{
  "_format": "hh-sol-artifact-1",
  "contractName": "CErc20Delegate",
  "sourceName": "contracts/CErc20Delegate.sol",
  "abi": [
    {
      "inputs": [],
      "payable": false,
      "stateMutability": "nonpayable",
      "type": "constructor"
    },
    {
      "anonymous": false,
      "inputs": [
        {
          "indexed": false,
          "internalType": "uint256",
          "name": "cashPrior",
          "type": "uint256"
        },
        {
          "indexed": false,
          "internalType": "uint256",
          "name": "interestAccumulated",
          "type": "uint256"
        },
        {
          "indexed": false,
          "internalType": "uint256",
          "name": "borrowIndex",
          "type": "uint256"
        },
        {
          "indexed": false,
          "internalType": "uint256",
          "name": "totalBorrows",
          "type": "uint256"
        }
      ],
      "name": "AccrueInterest",
      "type": "event"
    },
    {
      "anonymous": false,
      "inputs": [
        {
          "indexed": true,
          "internalType": "address",
          "name": "owner",
          "type": "address"
        },
        {
          "indexed": true,
          "internalType": "address",
          "name": "spender",
          "type": "address"
        },
        {
          "indexed": false,
          "internalType": "uint256",
          "name": "amount",
          "type": "uint256"
        }
      ],
      "name": "Approval",
      "type": "event"
    },
    {
      "anonymous": false,
      "inputs": [
        {
          "indexed": true,
          "internalType": "address",
          "name": "borrower",
          "type": "address"
        },
        {
          "indexed": false,
          "internalType": "uint256",
          "name": "borrowAmount",
          "type": "uint256"
        },
        {
          "indexed": false,
          "internalType": "uint256",
          "name": "accountBorrows",
          "type": "uint256"
        },
        {
          "indexed": false,
          "internalType": "uint256",
          "name": "totalBorrows",
          "type": "uint256"
        }
      ],
      "name": "Borrow",
      "type": "event"
    },
    {
      "anonymous": false,
      "inputs": [
        {
          "indexed": false,
          "internalType": "uint256",
          "name": "error",
          "type": "uint256"
        },
        {
          "indexed": false,
          "internalType": "uint256",
          "name": "info",
          "type": "uint256"
        },
        {
          "indexed": false,
          "internalType": "uint256",
          "name": "detail",
          "type": "uint256"
        }
      ],
      "name": "Failure",
      "type": "event"
    },
    {
      "anonymous": false,
      "inputs": [
        {
          "indexed": true,
          "internalType": "address",
          "name": "liquidator",
          "type": "address"
        },
        {
          "indexed": true,
          "internalType": "address",
          "name": "borrower",
          "type": "address"
        },
        {
          "indexed": false,
          "internalType": "uint256",
          "name": "repayAmount",
          "type": "uint256"
        },
        {
          "indexed": true,
          "internalType": "address",
          "name": "cTokenCollateral",
          "type": "address"
        },
        {
          "indexed": false,
          "internalType": "uint256",
          "name": "seizeTokens",
          "type": "uint256"
        }
      ],
      "name": "LiquidateBorrow",
      "type": "event"
    },
    {
      "anonymous": false,
      "inputs": [
        {
          "indexed": true,
          "internalType": "address",
          "name": "minter",
          "type": "address"
        },
        {
          "indexed": false,
          "internalType": "uint256",
          "name": "mintAmount",
          "type": "uint256"
        },
        {
          "indexed": false,
          "internalType": "uint256",
          "name": "mintTokens",
          "type": "uint256"
        }
      ],
      "name": "Mint",
      "type": "event"
    },
    {
      "anonymous": false,
      "inputs": [
        {
          "indexed": false,
          "internalType": "address",
          "name": "oldAdmin",
          "type": "address"
        },
        {
          "indexed": false,
          "internalType": "address",
          "name": "newAdmin",
          "type": "address"
        }
      ],
      "name": "NewAdmin",
      "type": "event"
    },
    {
      "anonymous": false,
      "inputs": [
        {
          "indexed": false,
          "internalType": "contract ComptrollerInterface",
          "name": "oldComptroller",
          "type": "address"
        },
        {
          "indexed": false,
          "internalType": "contract ComptrollerInterface",
          "name": "newComptroller",
          "type": "address"
        }
      ],
      "name": "NewComptroller",
      "type": "event"
    },
    {
      "anonymous": false,
      "inputs": [
        {
          "indexed": false,
          "internalType": "contract InterestRateModel",
          "name": "oldInterestRateModel",
          "type": "address"
        },
        {
          "indexed": false,
          "internalType": "contract InterestRateModel",
          "name": "newInterestRateModel",
          "type": "address"
        }
      ],
      "name": "NewMarketInterestRateModel",
      "type": "event"
    },
    {
      "anonymous": false,
      "inputs": [
        {
          "indexed": false,
          "internalType": "address",
          "name": "oldPendingAdmin",
          "type": "address"
        },
        {
          "indexed": false,
          "internalType": "address",
          "name": "newPendingAdmin",
          "type": "address"
        }
      ],
      "name": "NewPendingAdmin",
      "type": "event"
    },
    {
      "anonymous": false,
      "inputs": [
        {
          "indexed": false,
          "internalType": "uint256",
          "name": "oldReserveFactorMantissa",
          "type": "uint256"
        },
        {
          "indexed": false,
          "internalType": "uint256",
          "name": "newReserveFactorMantissa",
          "type": "uint256"
        }
      ],
      "name": "NewReserveFactor",
      "type": "event"
    },
    {
      "anonymous": false,
      "inputs": [
        {
          "indexed": true,
          "internalType": "address",
          "name": "redeemer",
          "type": "address"
        },
        {
          "indexed": false,
          "internalType": "uint256",
          "name": "redeemAmount",
          "type": "uint256"
        },
        {
          "indexed": false,
          "internalType": "uint256",
          "name": "redeemTokens",
          "type": "uint256"
        }
      ],
      "name": "Redeem",
      "type": "event"
    },
    {
      "anonymous": false,
      "inputs": [
        {
          "indexed": true,
          "internalType": "address",
          "name": "payer",
          "type": "address"
        },
        {
          "indexed": true,
          "internalType": "address",
          "name": "borrower",
          "type": "address"
        },
        {
          "indexed": false,
          "internalType": "uint256",
          "name": "repayAmount",
          "type": "uint256"
        },
        {
          "indexed": false,
          "internalType": "uint256",
          "name": "accountBorrows",
          "type": "uint256"
        },
        {
          "indexed": false,
          "internalType": "uint256",
          "name": "totalBorrows",
          "type": "uint256"
        }
      ],
      "name": "RepayBorrow",
      "type": "event"
    },
    {
      "anonymous": false,
      "inputs": [
        {
          "indexed": false,
          "internalType": "address",
          "name": "benefactor",
          "type": "address"
        },
        {
          "indexed": false,
          "internalType": "uint256",
          "name": "addAmount",
          "type": "uint256"
        },
        {
          "indexed": false,
          "internalType": "uint256",
          "name": "newTotalReserves",
          "type": "uint256"
        }
      ],
      "name": "ReservesAdded",
      "type": "event"
    },
    {
      "anonymous": false,
      "inputs": [
        {
          "indexed": false,
          "internalType": "address",
          "name": "admin",
          "type": "address"
        },
        {
          "indexed": false,
          "internalType": "uint256",
          "name": "reduceAmount",
          "type": "uint256"
        },
        {
          "indexed": false,
          "internalType": "uint256",
          "name": "newTotalReserves",
          "type": "uint256"
        }
      ],
      "name": "ReservesReduced",
      "type": "event"
    },
    {
      "anonymous": false,
      "inputs": [
        {
          "indexed": false,
          "internalType": "address",
          "name": "benefactor",
          "type": "address"
        },
        {
          "indexed": false,
          "internalType": "uint256",
          "name": "addAmount",
          "type": "uint256"
        },
        {
          "indexed": false,
          "internalType": "uint256",
          "name": "newSubsidyFund",
          "type": "uint256"
        }
      ],
      "name": "SubsidyAdded",
      "type": "event"
    },
    {
      "anonymous": false,
      "inputs": [
        {
          "indexed": true,
          "internalType": "address",
          "name": "from",
          "type": "address"
        },
        {
          "indexed": true,
          "internalType": "address",
          "name": "to",
          "type": "address"
        },
        {
          "indexed": false,
          "internalType": "uint256",
          "name": "amount",
          "type": "uint256"
        }
      ],
      "name": "Transfer",
      "type": "event"
    },
    {
      "constant": false,
      "inputs": [],
      "name": "_acceptAdmin",
      "outputs": [
        {
          "internalType": "uint256",
          "name": "",
          "type": "uint256"
        }
      ],
      "payable": false,
      "stateMutability": "nonpayable",
      "type": "function"
    },
    {
      "constant": false,
      "inputs": [
        {
          "internalType": "uint256",
          "name": "addAmount",
          "type": "uint256"
        }
      ],
      "name": "_addReserves",
      "outputs": [
        {
          "internalType": "uint256",
          "name": "",
          "type": "uint256"
        }
      ],
      "payable": false,
      "stateMutability": "nonpayable",
      "type": "function"
    },
    {
      "constant": false,
      "inputs": [
        {
          "internalType": "bytes",
          "name": "data",
          "type": "bytes"
        }
      ],
      "name": "_becomeImplementation",
      "outputs": [],
      "payable": false,
      "stateMutability": "nonpayable",
      "type": "function"
    },
    {
      "constant": false,
      "inputs": [
        {
          "internalType": "uint256",
          "name": "reduceAmount",
          "type": "uint256"
        }
      ],
      "name": "_reduceReserves",
      "outputs": [
        {
          "internalType": "uint256",
          "name": "",
          "type": "uint256"
        }
      ],
      "payable": false,
      "stateMutability": "nonpayable",
      "type": "function"
    },
    {
      "constant": false,
      "inputs": [],
      "name": "_resignImplementation",
      "outputs": [],
      "payable": false,
      "stateMutability": "nonpayable",
      "type": "function"
    },
    {
      "constant": false,
      "inputs": [
        {
          "internalType": "contract ComptrollerInterface",
          "name": "newComptroller",
          "type": "address"
        }
      ],
      "name": "_setComptroller",
      "outputs": [
        {
          "internalType": "uint256",
          "name": "",
          "type": "uint256"
        }
      ],
      "payable": false,
      "stateMutability": "nonpayable",
      "type": "function"
    },
    {
      "constant": false,
      "inputs": [
        {
          "internalType": "contract InterestRateModel",
          "name": "newInterestRateModel",
          "type": "address"
        }
      ],
      "name": "_setInterestRateModel",
      "outputs": [
        {
          "internalType": "uint256",
          "name": "",
          "type": "uint256"
        }
      ],
      "payable": false,
      "stateMutability": "nonpayable",
      "type": "function"
    },
    {
      "constant": false,
      "inputs": [
        {
          "internalType": "address payable",
          "name": "newPendingAdmin",
          "type": "address"
        }
      ],
      "name": "_setPendingAdmin",
      "outputs": [
        {
          "internalType": "uint256",
          "name": "",
          "type": "uint256"
        }
      ],
      "payable": false,
      "stateMutability": "nonpayable",
      "type": "function"
    },
    {
      "constant": false,
      "inputs": [
        {
          "internalType": "uint256",
          "name": "newReserveFactorMantissa",
          "type": "uint256"
        }
      ],
      "name": "_setReserveFactor",
      "outputs": [
        {
          "internalType": "uint256",
          "name": "",
          "type": "uint256"
        }
      ],
      "payable": false,
      "stateMutability": "nonpayable",
      "type": "function"
    },
    {
      "constant": true,
      "inputs": [],
      "name": "accrualBlockNumber",
      "outputs": [
        {
          "internalType": "uint256",
          "name": "",
          "type": "uint256"
        }
      ],
      "payable": false,
      "stateMutability": "view",
      "type": "function"
    },
    {
      "constant": false,
      "inputs": [],
      "name": "accrueInterest",
      "outputs": [
        {
          "internalType": "uint256",
          "name": "",
          "type": "uint256"
        }
      ],
      "payable": false,
      "stateMutability": "nonpayable",
      "type": "function"
    },
    {
      "constant": true,
      "inputs": [],
      "name": "admin",
      "outputs": [
        {
          "internalType": "address payable",
          "name": "",
          "type": "address"
        }
      ],
      "payable": false,
      "stateMutability": "view",
      "type": "function"
    },
    {
      "constant": true,
      "inputs": [
        {
          "internalType": "address",
          "name": "owner",
          "type": "address"
        },
        {
          "internalType": "address",
          "name": "spender",
          "type": "address"
        }
      ],
      "name": "allowance",
      "outputs": [
        {
          "internalType": "uint256",
          "name": "",
          "type": "uint256"
        }
      ],
      "payable": false,
      "stateMutability": "view",
      "type": "function"
    },
    {
      "constant": false,
      "inputs": [
        {
          "internalType": "address",
          "name": "spender",
          "type": "address"
        },
        {
          "internalType": "uint256",
          "name": "amount",
          "type": "uint256"
        }
      ],
      "name": "approve",
      "outputs": [
        {
          "internalType": "bool",
          "name": "",
          "type": "bool"
        }
      ],
      "payable": false,
      "stateMutability": "nonpayable",
      "type": "function"
    },
    {
      "constant": true,
      "inputs": [
        {
          "internalType": "address",
          "name": "owner",
          "type": "address"
        }
      ],
      "name": "balanceOf",
      "outputs": [
        {
          "internalType": "uint256",
          "name": "",
          "type": "uint256"
        }
      ],
      "payable": false,
      "stateMutability": "view",
      "type": "function"
    },
    {
      "constant": false,
      "inputs": [
        {
          "internalType": "address",
          "name": "owner",
          "type": "address"
        }
      ],
      "name": "balanceOfUnderlying",
      "outputs": [
        {
          "internalType": "uint256",
          "name": "",
          "type": "uint256"
        }
      ],
      "payable": false,
      "stateMutability": "nonpayable",
      "type": "function"
    },
    {
      "constant": false,
      "inputs": [
        {
          "internalType": "uint256",
          "name": "borrowAmount",
          "type": "uint256"
        }
      ],
      "name": "borrow",
      "outputs": [
        {
          "internalType": "uint256",
          "name": "",
          "type": "uint256"
        }
      ],
      "payable": false,
      "stateMutability": "nonpayable",
      "type": "function"
    },
    {
      "constant": false,
      "inputs": [
        {
          "internalType": "address",
          "name": "account",
          "type": "address"
        }
      ],
      "name": "borrowBalanceCurrent",
      "outputs": [
        {
          "internalType": "uint256",
          "name": "",
          "type": "uint256"
        }
      ],
      "payable": false,
      "stateMutability": "nonpayable",
      "type": "function"
    },
    {
      "constant": true,
      "inputs": [
        {
          "internalType": "address",
          "name": "account",
          "type": "address"
        }
      ],
      "name": "borrowBalanceStored",
      "outputs": [
        {
          "internalType": "uint256",
          "name": "",
          "type": "uint256"
        }
      ],
      "payable": false,
      "stateMutability": "view",
      "type": "function"
    },
    {
      "constant": true,
      "inputs": [],
      "name": "borrowIndex",
      "outputs": [
        {
          "internalType": "uint256",
          "name": "",
          "type": "uint256"
        }
      ],
      "payable": false,
      "stateMutability": "view",
      "type": "function"
    },
    {
      "constant": true,
      "inputs": [],
      "name": "borrowRatePerBlock",
      "outputs": [
        {
          "internalType": "uint256",
          "name": "",
          "type": "uint256"
        }
      ],
      "payable": false,
      "stateMutability": "view",
      "type": "function"
    },
    {
      "constant": true,
      "inputs": [],
      "name": "comptroller",
      "outputs": [
        {
          "internalType": "contract ComptrollerInterface",
          "name": "",
          "type": "address"
        }
      ],
      "payable": false,
      "stateMutability": "view",
      "type": "function"
    },
    {
      "constant": true,
      "inputs": [],
      "name": "decimals",
      "outputs": [
        {
          "internalType": "uint8",
          "name": "",
          "type": "uint8"
        }
      ],
      "payable": false,
      "stateMutability": "view",
      "type": "function"
    },
    {
      "constant": false,
      "inputs": [],
      "name": "exchangeRateCurrent",
      "outputs": [
        {
          "internalType": "uint256",
          "name": "",
          "type": "uint256"
        }
      ],
      "payable": false,
      "stateMutability": "nonpayable",
      "type": "function"
    },
    {
      "constant": true,
      "inputs": [],
      "name": "exchangeRateStored",
      "outputs": [
        {
          "internalType": "uint256",
          "name": "",
          "type": "uint256"
        }
      ],
      "payable": false,
      "stateMutability": "view",
      "type": "function"
    },
    {
      "constant": true,
      "inputs": [
        {
          "internalType": "address",
          "name": "account",
          "type": "address"
        }
      ],
      "name": "getAccountSnapshot",
      "outputs": [
        {
          "internalType": "uint256",
          "name": "",
          "type": "uint256"
        },
        {
          "internalType": "uint256",
          "name": "",
          "type": "uint256"
        },
        {
          "internalType": "uint256",
          "name": "",
          "type": "uint256"
        },
        {
          "internalType": "uint256",
          "name": "",
          "type": "uint256"
        }
      ],
      "payable": false,
      "stateMutability": "view",
      "type": "function"
    },
    {
      "constant": true,
      "inputs": [
        {
          "internalType": "address",
          "name": "account",
          "type": "address"
        }
      ],
      "name": "getBorrowerPrincipalStored",
      "outputs": [
        {
          "internalType": "uint256",
          "name": "borrowed",
          "type": "uint256"
        }
      ],
      "payable": false,
      "stateMutability": "view",
      "type": "function"
    },
    {
      "constant": true,
      "inputs": [],
      "name": "getCash",
      "outputs": [
        {
          "internalType": "uint256",
          "name": "",
          "type": "uint256"
        }
      ],
      "payable": false,
      "stateMutability": "view",
      "type": "function"
    },
    {
      "constant": true,
      "inputs": [
        {
          "internalType": "address",
          "name": "account",
          "type": "address"
        }
      ],
      "name": "getSupplierSnapshotStored",
      "outputs": [
        {
          "internalType": "uint256",
          "name": "tokens",
          "type": "uint256"
        },
        {
          "internalType": "uint256",
          "name": "underlyingAmount",
          "type": "uint256"
        },
        {
          "internalType": "uint256",
          "name": "suppliedAt",
          "type": "uint256"
        },
        {
          "internalType": "uint256",
          "name": "promisedSupplyRate",
          "type": "uint256"
        }
      ],
      "payable": false,
      "stateMutability": "view",
      "type": "function"
    },
    {
      "constant": true,
      "inputs": [],
      "name": "implementation",
      "outputs": [
        {
          "internalType": "address",
          "name": "",
          "type": "address"
        }
      ],
      "payable": false,
      "stateMutability": "view",
      "type": "function"
    },
    {
      "constant": true,
      "inputs": [],
      "name": "initialExchangeRateMantissa",
      "outputs": [
        {
          "internalType": "uint256",
          "name": "",
          "type": "uint256"
        }
      ],
      "payable": false,
      "stateMutability": "view",
      "type": "function"
    },
    {
      "constant": false,
      "inputs": [
        {
          "internalType": "address",
          "name": "underlying_",
          "type": "address"
        },
        {
          "internalType": "contract ComptrollerInterface",
          "name": "comptroller_",
          "type": "address"
        },
        {
          "internalType": "contract InterestRateModel",
          "name": "interestRateModel_",
          "type": "address"
        },
        {
          "internalType": "uint256",
          "name": "initialExchangeRateMantissa_",
          "type": "uint256"
        },
        {
          "internalType": "string",
          "name": "name_",
          "type": "string"
        },
        {
          "internalType": "string",
          "name": "symbol_",
          "type": "string"
        },
        {
          "internalType": "uint8",
          "name": "decimals_",
          "type": "uint8"
        }
      ],
      "name": "initialize",
      "outputs": [],
      "payable": false,
      "stateMutability": "nonpayable",
      "type": "function"
    },
    {
      "constant": false,
      "inputs": [
        {
          "internalType": "contract ComptrollerInterface",
          "name": "comptroller_",
          "type": "address"
        },
        {
          "internalType": "contract InterestRateModel",
          "name": "interestRateModel_",
          "type": "address"
        },
        {
          "internalType": "uint256",
          "name": "initialExchangeRateMantissa_",
          "type": "uint256"
        },
        {
          "internalType": "string",
          "name": "name_",
          "type": "string"
        },
        {
          "internalType": "string",
          "name": "symbol_",
          "type": "string"
        },
        {
          "internalType": "uint8",
          "name": "decimals_",
          "type": "uint8"
        }
      ],
      "name": "initialize",
      "outputs": [],
      "payable": false,
      "stateMutability": "nonpayable",
      "type": "function"
    },
    {
      "constant": true,
      "inputs": [],
      "name": "interestRateModel",
      "outputs": [
        {
          "internalType": "contract InterestRateModel",
          "name": "",
          "type": "address"
        }
      ],
      "payable": false,
      "stateMutability": "view",
      "type": "function"
    },
    {
      "constant": true,
      "inputs": [],
      "name": "isCToken",
      "outputs": [
        {
          "internalType": "bool",
          "name": "",
          "type": "bool"
        }
      ],
      "payable": false,
      "stateMutability": "view",
      "type": "function"
    },
    {
      "constant": false,
      "inputs": [
        {
          "internalType": "address",
          "name": "borrower",
          "type": "address"
        },
        {
          "internalType": "uint256",
          "name": "repayAmount",
          "type": "uint256"
        },
        {
          "internalType": "contract CTokenInterface",
          "name": "cTokenCollateral",
          "type": "address"
        }
      ],
      "name": "liquidateBorrow",
      "outputs": [
        {
          "internalType": "uint256",
          "name": "",
          "type": "uint256"
        }
      ],
      "payable": false,
      "stateMutability": "nonpayable",
      "type": "function"
    },
    {
      "constant": false,
      "inputs": [
        {
          "internalType": "uint256",
          "name": "mintAmount",
          "type": "uint256"
        }
      ],
      "name": "mint",
      "outputs": [
        {
          "internalType": "uint256",
          "name": "",
          "type": "uint256"
        }
      ],
      "payable": false,
      "stateMutability": "nonpayable",
      "type": "function"
    },
    {
      "constant": true,
      "inputs": [],
      "name": "name",
      "outputs": [
        {
          "internalType": "string",
          "name": "",
          "type": "string"
        }
      ],
      "payable": false,
      "stateMutability": "view",
      "type": "function"
    },
    {
      "constant": true,
      "inputs": [],
      "name": "pendingAdmin",
      "outputs": [
        {
          "internalType": "address payable",
          "name": "",
          "type": "address"
        }
      ],
      "payable": false,
      "stateMutability": "view",
      "type": "function"
    },
    {
      "constant": false,
      "inputs": [
        {
          "internalType": "uint256",
          "name": "redeemTokens",
          "type": "uint256"
        }
      ],
      "name": "redeem",
      "outputs": [
        {
          "internalType": "uint256",
          "name": "",
          "type": "uint256"
        }
      ],
      "payable": false,
      "stateMutability": "nonpayable",
      "type": "function"
    },
    {
      "constant": false,
      "inputs": [
        {
          "internalType": "uint256",
          "name": "redeemAmount",
          "type": "uint256"
        }
      ],
      "name": "redeemUnderlying",
      "outputs": [
        {
          "internalType": "uint256",
          "name": "",
          "type": "uint256"
        }
      ],
      "payable": false,
      "stateMutability": "nonpayable",
      "type": "function"
    },
    {
      "constant": false,
      "inputs": [
        {
          "internalType": "uint256",
          "name": "repayAmount",
          "type": "uint256"
        }
      ],
      "name": "repayBorrow",
      "outputs": [
        {
          "internalType": "uint256",
          "name": "",
          "type": "uint256"
        }
      ],
      "payable": false,
      "stateMutability": "nonpayable",
      "type": "function"
    },
    {
      "constant": false,
      "inputs": [
        {
          "internalType": "address",
          "name": "borrower",
          "type": "address"
        },
        {
          "internalType": "uint256",
          "name": "repayAmount",
          "type": "uint256"
        }
      ],
      "name": "repayBorrowBehalf",
      "outputs": [
        {
          "internalType": "uint256",
          "name": "",
          "type": "uint256"
        }
      ],
      "payable": false,
      "stateMutability": "nonpayable",
      "type": "function"
    },
    {
      "constant": true,
      "inputs": [],
      "name": "reserveFactorMantissa",
      "outputs": [
        {
          "internalType": "uint256",
          "name": "",
          "type": "uint256"
        }
      ],
      "payable": false,
      "stateMutability": "view",
      "type": "function"
    },
    {
      "constant": false,
      "inputs": [
        {
          "internalType": "address",
          "name": "liquidator",
          "type": "address"
        },
        {
          "internalType": "address",
          "name": "borrower",
          "type": "address"
        },
        {
          "internalType": "uint256",
          "name": "seizeTokens",
          "type": "uint256"
        }
      ],
      "name": "seize",
      "outputs": [
        {
          "internalType": "uint256",
          "name": "",
          "type": "uint256"
        }
      ],
      "payable": false,
      "stateMutability": "nonpayable",
      "type": "function"
    },
    {
      "constant": true,
      "inputs": [],
      "name": "subsidyFund",
      "outputs": [
        {
          "internalType": "uint256",
          "name": "",
          "type": "uint256"
        }
      ],
      "payable": false,
      "stateMutability": "view",
      "type": "function"
    },
    {
      "constant": true,
      "inputs": [],
      "name": "supplyRatePerBlock",
      "outputs": [
        {
          "internalType": "uint256",
          "name": "",
          "type": "uint256"
        }
      ],
      "payable": false,
      "stateMutability": "view",
      "type": "function"
    },
    {
      "constant": false,
      "inputs": [
        {
          "internalType": "contract EIP20NonStandardInterface",
          "name": "token",
          "type": "address"
        }
      ],
      "name": "sweepToken",
      "outputs": [],
      "payable": false,
      "stateMutability": "nonpayable",
      "type": "function"
    },
    {
      "constant": true,
      "inputs": [],
      "name": "symbol",
      "outputs": [
        {
          "internalType": "string",
          "name": "",
          "type": "string"
        }
      ],
      "payable": false,
      "stateMutability": "view",
      "type": "function"
    },
    {
      "constant": true,
      "inputs": [],
      "name": "totalBorrows",
      "outputs": [
        {
          "internalType": "uint256",
          "name": "",
          "type": "uint256"
        }
      ],
      "payable": false,
      "stateMutability": "view",
      "type": "function"
    },
    {
      "constant": false,
      "inputs": [],
      "name": "totalBorrowsCurrent",
      "outputs": [
        {
          "internalType": "uint256",
          "name": "",
          "type": "uint256"
        }
      ],
      "payable": false,
      "stateMutability": "nonpayable",
      "type": "function"
    },
    {
      "constant": true,
      "inputs": [],
      "name": "totalReserves",
      "outputs": [
        {
          "internalType": "uint256",
          "name": "",
          "type": "uint256"
        }
      ],
      "payable": false,
      "stateMutability": "view",
      "type": "function"
    },
    {
      "constant": true,
      "inputs": [],
      "name": "totalSupply",
      "outputs": [
        {
          "internalType": "uint256",
          "name": "",
          "type": "uint256"
        }
      ],
      "payable": false,
      "stateMutability": "view",
      "type": "function"
    },
    {
      "constant": false,
      "inputs": [
        {
          "internalType": "address",
          "name": "dst",
          "type": "address"
        },
        {
          "internalType": "uint256",
          "name": "amount",
          "type": "uint256"
        }
      ],
      "name": "transfer",
      "outputs": [
        {
          "internalType": "bool",
          "name": "",
          "type": "bool"
        }
      ],
      "payable": false,
      "stateMutability": "nonpayable",
      "type": "function"
    },
    {
      "constant": false,
      "inputs": [
        {
          "internalType": "address",
          "name": "src",
          "type": "address"
        },
        {
          "internalType": "address",
          "name": "dst",
          "type": "address"
        },
        {
          "internalType": "uint256",
          "name": "amount",
          "type": "uint256"
        }
      ],
      "name": "transferFrom",
      "outputs": [
        {
          "internalType": "bool",
          "name": "",
          "type": "bool"
        }
      ],
      "payable": false,
      "stateMutability": "nonpayable",
      "type": "function"
    },
    {
      "constant": true,
      "inputs": [
        {
          "internalType": "address",
          "name": "account",
          "type": "address"
        }
      ],
      "name": "tropykusInterestAccrued",
      "outputs": [
        {
          "internalType": "enum CarefulMath.MathError",
          "name": "",
          "type": "uint8"
        },
        {
          "internalType": "uint256",
          "name": "",
          "type": "uint256"
        },
        {
          "internalType": "uint256",
          "name": "",
          "type": "uint256"
        },
        {
          "internalType": "uint256",
          "name": "",
          "type": "uint256"
        },
        {
          "internalType": "uint256",
          "name": "",
          "type": "uint256"
        }
      ],
      "payable": false,
      "stateMutability": "view",
      "type": "function"
    },
    {
      "constant": true,
      "inputs": [],
      "name": "underlying",
      "outputs": [
        {
          "internalType": "address",
          "name": "",
          "type": "address"
        }
      ],
      "payable": false,
      "stateMutability": "view",
      "type": "function"
    }
  ],
  "bytecode": "0x608060405234801561001057600080fd5b50615cca80620000216000396000f3fe608060405234801561001057600080fd5b50600436106103835760003560e01c806370a08231116101de578063bd6d894d1161010f578063f2b3abbd116100ad578063f8f9da281161007c578063f8f9da2814610c4e578063fc610b3d14610c56578063fca7820b14610cbc578063fe9c44ae14610cd957610383565b8063f2b3abbd14610be2578063f3fdb15a14610c08578063f5e3c46214610c10578063f851a44014610c4657610383565b8063c5ebeaec116100e9578063c5ebeaec14610b72578063db006a7514610b8f578063dd62ed3e14610bac578063e9c714f214610bda57610383565b8063bd6d894d14610b1e578063c139562b14610b26578063c37f68e214610b4c57610383565b8063a0712d681161017c578063aa5af0fd11610156578063aa5af0fd14610ab2578063ae9d70b014610aba578063b2a02ff114610ac2578063b71d1a0c14610af857610383565b8063a0712d6814610a61578063a6afed9514610a7e578063a9059cbb14610a8657610383565b80638f840ddd116101b85780638f840ddd146108dd57806395d89b41146108e557806395dd9193146108ed57806399d8c1b41461091357610383565b806370a082311461089257806373acee98146108b8578063852a12e3146108c057610383565b8063313ce567116102b857806356e6772811610256578063601a0bf111610230578063601a0bf11461085d578063675d972c1461087a5780636c540baf146108825780636f307dc31461088a57610383565b806356e67728146107a95780635c60da1b1461084d5780635fe3b5671461085557610383565b80633e941010116102925780633e941010146107125780634576b5db1461072f57806347bd371814610755578063524fe4b51461075d57610383565b8063313ce567146106c65780633af9e669146106e45780633b1d21a21461070a57610383565b8063182df0f5116103255780631df0ba9d116102ff5780631df0ba9d1461063857806323b872dd146106405780632608f8181461067657806326782247146106a257610383565b8063182df0f5146104b45780631a31d465146104bc5780631be195601461061257610383565b8063153ab50511610361578063153ab50514610474578063173b99041461047e57806317bfdfbc1461048657806318160ddd146104ac57610383565b806306fdde0314610388578063095ea7b3146104055780630e75270214610445575b600080fd5b610390610ce1565b6040805160208082528351818301528351919283929083019185019080838360005b838110156103ca5781810151838201526020016103b2565b50505050905090810190601f1680156103f75780820380516001836020036101000a031916815260200191505b509250505060405180910390f35b6104316004803603604081101561041b57600080fd5b506001600160a01b038135169060200135610d6e565b604080519115158252519081900360200190f35b6104626004803603602081101561045b57600080fd5b5035610ddb565b60408051918252519081900360200190f35b61047c610df1565b005b610462610e3c565b6104626004803603602081101561049c57600080fd5b50356001600160a01b0316610e42565b610462610ee7565b610462610eed565b61047c600480360360e08110156104d257600080fd5b6001600160a01b03823581169260208101358216926040820135909216916060820135919081019060a081016080820135600160201b81111561051457600080fd5b82018360208201111561052657600080fd5b803590602001918460018302840111600160201b8311171561054757600080fd5b91908080601f0160208091040260200160405190810160405280939291908181526020018383808284376000920191909152509295949360208101935035915050600160201b81111561059957600080fd5b8201836020820111156105ab57600080fd5b803590602001918460018302840111600160201b831117156105cc57600080fd5b91908080601f0160208091040260200160405190810160405280939291908181526020018383808284376000920191909152509295505050903560ff169150610f4b9050565b61047c6004803603602081101561062857600080fd5b50356001600160a01b0316610fea565b610462611121565b6104316004803603606081101561065657600080fd5b506001600160a01b03813581169160208101359091169060400135611127565b6104626004803603604081101561068c57600080fd5b506001600160a01b038135169060200135611192565b6106aa6111a8565b604080516001600160a01b039092168252519081900360200190f35b6106ce6111b7565b6040805160ff9092168252519081900360200190f35b610462600480360360208110156106fa57600080fd5b50356001600160a01b03166111c0565b61046261125b565b6104626004803603602081101561072857600080fd5b503561126a565b6104626004803603602081101561074557600080fd5b50356001600160a01b0316611275565b6104626113b0565b6107836004803603602081101561077357600080fd5b50356001600160a01b03166113b6565b604080519485526020850193909352838301919091526060830152519081900360800190f35b61047c600480360360208110156107bf57600080fd5b810190602081018135600160201b8111156107d957600080fd5b8201836020820111156107eb57600080fd5b803590602001918460018302840111600160201b8311171561080c57600080fd5b91908080601f0160208091040260200160405190810160405280939291908181526020018383808284376000920191909152509295506113e7945050505050565b6106aa611433565b6106aa611442565b6104626004803603602081101561087357600080fd5b5035611451565b6104626114e5565b6104626114eb565b6106aa6114f1565b610462600480360360208110156108a857600080fd5b50356001600160a01b0316611500565b61046261151b565b610462600480360360208110156108d657600080fd5b50356115b6565b6104626115c1565b6103906115c7565b6104626004803603602081101561090357600080fd5b50356001600160a01b031661161f565b61047c600480360360c081101561092957600080fd5b6001600160a01b03823581169260208101359091169160408201359190810190608081016060820135600160201b81111561096357600080fd5b82018360208201111561097557600080fd5b803590602001918460018302840111600160201b8311171561099657600080fd5b91908080601f0160208091040260200160405190810160405280939291908181526020018383808284376000920191909152509295949360208101935035915050600160201b8111156109e857600080fd5b8201836020820111156109fa57600080fd5b803590602001918460018302840111600160201b83111715610a1b57600080fd5b91908080601f0160208091040260200160405190810160405280939291908181526020018383808284376000920191909152509295505050903560ff1691506116779050565b61046260048036036020811015610a7757600080fd5b503561182f565b61046261183b565b61043160048036036040811015610a9c57600080fd5b506001600160a01b038135169060200135611c16565b610462611c80565b610462611c86565b61046260048036036060811015610ad857600080fd5b506001600160a01b03813581169160208101359091169060400135611d25565b61046260048036036020811015610b0e57600080fd5b50356001600160a01b0316611d8f565b610462611e1b565b61046260048036036020811015610b3c57600080fd5b50356001600160a01b0316611ebc565b61078360048036036020811015610b6257600080fd5b50356001600160a01b0316611ed7565b61046260048036036020811015610b8857600080fd5b5035611f6c565b61046260048036036020811015610ba557600080fd5b5035611f77565b61046260048036036040811015610bc257600080fd5b506001600160a01b0381358116916020013516611f82565b610462611fad565b61046260048036036020811015610bf857600080fd5b50356001600160a01b03166120b0565b6106aa6120ea565b61046260048036036060811015610c2657600080fd5b506001600160a01b038135811691602081013591604090910135166120f9565b6106aa612111565b610462612125565b610c7c60048036036020811015610c6c57600080fd5b50356001600160a01b0316612189565b60405180866003811115610c8c57fe5b60ff1681526020018581526020018481526020018381526020018281526020019550505050505060405180910390f35b61046260048036036020811015610cd257600080fd5b5035612470565b6104316124e7565b60018054604080516020600284861615610100026000190190941693909304601f81018490048402820184019092528181529291830182828015610d665780601f10610d3b57610100808354040283529160200191610d66565b820191906000526020600020905b815481529060010190602001808311610d4957829003601f168201915b505050505081565b3360008181526010602090815260408083206001600160a01b03871680855290835281842086905581518681529151939493909284927f8c5be1e5ebec7d5bd14f71427d1e84f3dd0314c0f7b2291e5b200ac8c7c3b925929081900390910190a360019150505b92915050565b600080610de7836124ec565b509150505b919050565b60035461010090046001600160a01b03163314610e3a576040805162461bcd60e51b8152602060048201526002602482015261229b60f11b604482015290519081900360640190fd5b565b60085481565b6000805460ff16610e80576040805162461bcd60e51b81526020600482015260036024820152622a191b60e91b604482015290519081900360640190fd5b6000805460ff19168155610e9261183b565b14610ec9576040805162461bcd60e51b8152602060048201526002602482015261543760f01b604482015290519081900360640190fd5b610ed28261161f565b90505b6000805460ff19166001179055919050565b600d5481565b6000806000610efa61258e565b90925090506000826003811115610f0d57fe5b14610f44576040805162461bcd60e51b8152602060048201526002602482015261543960f01b604482015290519081900360640190fd5b9150505b90565b610f59868686868686611677565b601280546001600160a01b0319166001600160a01b038981169190911791829055604080516318160ddd60e01b8152905192909116916318160ddd91600480820192602092909190829003018186803b158015610fb557600080fd5b505afa158015610fc9573d6000803e3d6000fd5b505050506040513d6020811015610fdf57600080fd5b505050505050505050565b6012546001600160a01b0382811691161415611032576040805162461bcd60e51b8152602060048201526002602482015261453160f01b604482015290519081900360640190fd5b604080516370a0823160e01b815230600482015290516000916001600160a01b038416916370a0823191602480820192602092909190829003018186803b15801561107c57600080fd5b505afa158015611090573d6000803e3d6000fd5b505050506040513d60208110156110a657600080fd5b50516003546040805163a9059cbb60e01b81526101009092046001600160a01b03908116600484015260248301849052905192935084169163a9059cbb9160448082019260009290919082900301818387803b15801561110557600080fd5b505af1158015611119573d6000803e3d6000fd5b505050505050565b600e5481565b6000805460ff16611165576040805162461bcd60e51b81526020600482015260036024820152622a191b60e91b604482015290519081900360640190fd5b6000805460ff1916815561117b33868686612726565b1490506000805460ff191660011790559392505050565b60008061119f84846129b2565b50949350505050565b6004546001600160a01b031681565b60035460ff1681565b60006111ca615afe565b60405180602001604052806111dd611e1b565b90526001600160a01b0384166000908152600f6020526040812054919250908190611209908490612a56565b9092509050600082600381111561121c57fe5b14611253576040805162461bcd60e51b81526020600482015260026024820152612a1b60f11b604482015290519081900360640190fd5b949350505050565b6000611265612aaa565b905090565b6000610dd582612b2a565b60035460009061010090046001600160a01b031633146112a25761129b6001603f612bb7565b9050610dec565b60055460408051623f1ee960e11b815290516001600160a01b0392831692851691627e3dd2916004808301926020929190829003018186803b1580156112e757600080fd5b505afa1580156112fb573d6000803e3d6000fd5b505050506040513d602081101561131157600080fd5b505161134a576040805162461bcd60e51b81526020600482015260036024820152622a191960e91b604482015290519081900360640190fd5b600580546001600160a01b0319166001600160a01b03858116918217909255604080519284168352602083019190915280517f7ac369dbd14fa5ea3f473ed67cc9d598964a77501540ba6751eb0b3decf5870d9281900390910190a160005b9392505050565b600b5481565b6001600160a01b03166000908152600f60205260409020805460018201546002830154600390930154919390929190565b60035461010090046001600160a01b03163314611430576040805162461bcd60e51b8152602060048201526002602482015261453560f01b604482015290519081900360640190fd5b50565b6013546001600160a01b031681565b6005546001600160a01b031681565b6000805460ff1661148f576040805162461bcd60e51b81526020600482015260036024820152622a191b60e91b604482015290519081900360640190fd5b6000805460ff191681556114a161183b565b905080156114c7576114bf8160108111156114b857fe5b6030612bb7565b915050610ed5565b6114d083612c1d565b9150506000805460ff19166001179055919050565b60075481565b60095481565b6012546001600160a01b031681565b6001600160a01b03166000908152600f602052604090205490565b6000805460ff16611559576040805162461bcd60e51b81526020600482015260036024820152622a191b60e91b604482015290519081900360640190fd5b6000805460ff1916815561156b61183b565b146115a2576040805162461bcd60e51b8152602060048201526002602482015261543760f01b604482015290519081900360640190fd5b50600b546000805460ff1916600117905590565b6000610dd582612d4c565b600c5481565b6002805460408051602060018416156101000260001901909316849004601f81018490048402820184019092528181529291830182828015610d665780601f10610d3b57610100808354040283529160200191610d66565b600080600061162d84612dc6565b9092509050600082600381111561164057fe5b146113a9576040805162461bcd60e51b81526020600482015260026024820152610a8760f31b604482015290519081900360640190fd5b60035461010090046001600160a01b031633146116c0576040805162461bcd60e51b8152602060048201526002602482015261543160f01b604482015290519081900360640190fd5b6009541580156116d05750600a54155b611706576040805162461bcd60e51b81526020600482015260026024820152612a1960f11b604482015290519081900360640190fd5b600784905583611742576040805162461bcd60e51b8152602060048201526002602482015261543360f01b604482015290519081900360640190fd5b600061174d87611275565b90508015611787576040805162461bcd60e51b8152602060048201526002602482015261150d60f21b604482015290519081900360640190fd5b61178f612e7a565b600955670de0b6b3a7640000600a556117a786612e7e565b905080156117e1576040805162461bcd60e51b8152602060048201526002602482015261543560f01b604482015290519081900360640190fd5b83516117f4906001906020870190615b11565b508251611808906002906020860190615b11565b50506003805460ff90921660ff199283161790556000805490911660011790555050505050565b600080610de783612fd9565b600080611846612e7a565b6009549091508082141561185f57600092505050610f48565b6000611869612aaa565b600b54600c54600a54600654604080516315f2405360e01b815260048101879052602481018690526044810185905290519596509394929391926000926001600160a01b03909216916315f24053916064808301926020929190829003018186803b1580156118d757600080fd5b505afa1580156118eb573d6000803e3d6000fd5b505050506040513d602081101561190157600080fd5b5051905065048c27395000811115611946576040805162461bcd60e51b815260206004820152600360248201526205431360ec1b604482015290519081900360640190fd5b6000806119538989613053565b9092509050600082600381111561196657fe5b1461199e576040805162461bcd60e51b815260206004820152600360248201526254313160e81b604482015290519081900360640190fd5b6119a6615afe565b6000806000806119c460405180602001604052808a81525087613076565b909750945060008760038111156119d757fe5b14611a09576119f4600960068960038111156119ef57fe5b6130de565b9e505050505050505050505050505050610f48565b611a13858c612a56565b90975093506000876003811115611a2657fe5b14611a3e576119f4600960018960038111156119ef57fe5b611a48848c613144565b90975092506000876003811115611a5b57fe5b14611a73576119f4600960048960038111156119ef57fe5b611a8e6040518060200160405280600854815250858c61316a565b90975091506000876003811115611aa157fe5b14611ab9576119f4600960058960038111156119ef57fe5b600660009054906101000a90046001600160a01b03166001600160a01b031663e36c26e46040518163ffffffff1660e01b815260040160206040518083038186803b158015611b0757600080fd5b505afa158015611b1b573d6000803e3d6000fd5b505050506040513d6020811015611b3157600080fd5b505115611b7057611b45888d8d8d886131c6565b90975091506000876003811115611b5857fe5b14611b70576119f4600960058960038111156119ef57fe5b611b7b858a8b61316a565b90975090506000876003811115611b8e57fe5b14611ba6576119f4600960038960038111156119ef57fe5b60098e9055600a819055600b839055600c829055604080518d8152602081018690528082018390526060810185905290517f4dec04e750ca11537cabcd8a9eab06494de08da3735bc8871cd41250e190bc049181900360800190a160009e50505050505050505050505050505090565b6000805460ff16611c54576040805162461bcd60e51b81526020600482015260036024820152622a191b60e91b604482015290519081900360640190fd5b6000805460ff19168155611c6a33338686612726565b1490506000805460ff1916600117905592915050565b600a5481565b6006546000906001600160a01b031663b8168816611ca2612aaa565b600b54600c546008546040518563ffffffff1660e01b81526004018085815260200184815260200183815260200182815260200194505050505060206040518083038186803b158015611cf457600080fd5b505afa158015611d08573d6000803e3d6000fd5b505050506040513d6020811015611d1e57600080fd5b5051905090565b6000805460ff16611d63576040805162461bcd60e51b81526020600482015260036024820152622a191b60e91b604482015290519081900360640190fd5b6000805460ff19169055611d793385858561343b565b90506000805460ff191660011790559392505050565b60035460009061010090046001600160a01b03163314611db55761129b60016045612bb7565b600480546001600160a01b038481166001600160a01b0319831681179093556040805191909216808252602082019390935281517fca4f2f25d0898edd99413412fb94012f9e54ec8142f9b093e7720646a95b16a9929181900390910190a160006113a9565b6000805460ff16611e59576040805162461bcd60e51b81526020600482015260036024820152622a191b60e91b604482015290519081900360640190fd5b6000805460ff19168155611e6b61183b565b14611ea2576040805162461bcd60e51b8152602060048201526002602482015261543760f01b604482015290519081900360640190fd5b611eaa610eed565b90506000805460ff1916600117905590565b6001600160a01b031660009081526011602052604090205490565b6001600160a01b0381166000908152600f6020526040812054819081908190818080611f0289612dc6565b935090506000816003811115611f1457fe5b14611f325760095b975060009650869550859450611f659350505050565b611f3a61258e565b925090506000816003811115611f4c57fe5b14611f58576009611f1c565b5060009650919450925090505b9193509193565b6000610dd582613617565b6000610dd58261368f565b6001600160a01b03918216600090815260106020908152604080832093909416825291909152205490565b6004546000906001600160a01b031633141580611fc8575033155b15611fe057611fd960016000612bb7565b9050610f48565b60038054600480546001600160a01b03818116610100818102610100600160a81b0319871617968790556001600160a01b031990931690935560408051948390048216808652929095041660208401528351909391927ff9ffabca9c8276e99321725bcb43fb076a6c66a54b7f21c4e8146d8519b417dc92908290030190a1600454604080516001600160a01b038085168252909216602083015280517fca4f2f25d0898edd99413412fb94012f9e54ec8142f9b093e7720646a95b16a99281900390910190a160009250505090565b6000806120bb61183b565b905080156120e1576120d98160108111156120d257fe5b6040612bb7565b915050610dec565b6113a983612e7e565b6006546001600160a01b031681565b600080612107858585613702565b5095945050505050565b60035461010090046001600160a01b031681565b6006546000906001600160a01b03166315f24053612141612aaa565b600b54600c546040518463ffffffff1660e01b815260040180848152602001838152602001828152602001935050505060206040518083038186803b158015611cf457600080fd5b6000806000806000612199615b8f565b6001600160a01b0387166000908152600f602090815260409091206003810154918301919091526121c8615afe565b6040518060200160405280846020015181525090506121ed6009548360020154613053565b604085018190528482600381111561220157fe5b600381111561220c57fe5b905250600090508351600381111561222057fe5b1461223f57505051600754909550600094508493509150829050612467565b612247615afe565b612255828560400151613076565b9150818582600381111561226557fe5b600381111561227057fe5b905250600090508451600381111561228457fe5b146122a657505090516007549096506000955085945092508391506124679050565b6122c66040518060200160405280670de0b6b3a76400008152508261382d565b60608601819052858260038111156122da57fe5b60038111156122e557fe5b9052505060018301546080850190815260408051602081019091529051815260a08501819052606085015161231991613867565b60c086018190528582600381111561232d57fe5b600381111561233857fe5b905250600090508451600381111561234c57fe5b1461236e57505090516007549096506000955085945092508391506124679050565b60006123868560c00151600001518660800151613053565b9150818682600381111561239657fe5b60038111156123a157fe5b90525060009050855160038111156123b557fe5b146123d85750509151600754909750600096508695509350849250612467915050565b60c08501515184546123ea9190613950565b60e08701819052868260038111156123fe57fe5b600381111561240957fe5b905250600090508551600381111561241d57fe5b146124405750509151600754909750600096508695509350849250612467915050565b60608501515160e08601515160c0909601515160009b509099509097509395509293505050505b91939590929450565b6000805460ff166124ae576040805162461bcd60e51b81526020600482015260036024820152622a191b60e91b604482015290519081900360640190fd5b6000805460ff191681556124c061183b565b905080156124de576114bf8160108111156124d757fe5b6046612bb7565b6114d083613a00565b600181565b60008054819060ff1661252c576040805162461bcd60e51b81526020600482015260036024820152622a191b60e91b604482015290519081900360640190fd5b6000805460ff1916815561253e61183b565b905080156125695761255c81601081111561255557fe5b6036612bb7565b92506000915061257a9050565b612574333386613aa8565b92509250505b6000805460ff191660011790559092909150565b600d546000908190806125a957505060075460009150612722565b60008060006125b6612aaa565b9050600660009054906101000a90046001600160a01b03166001600160a01b031663e36c26e46040518163ffffffff1660e01b815260040160206040518083038186803b15801561260657600080fd5b505afa15801561261a573d6000803e3d6000fd5b505050506040513d602081101561263057600080fd5b50511561267a5761264033613df2565b9093509150600083600381111561265357fe5b14156126685750600094509250612722915050565b60006007549550955050505050612722565b600654600b54600c54600d5460408051639dc8bea760e01b81526004810187905260248101949094526044840192909252606483015280516001600160a01b0390931692639dc8bea7926084808201939291829003018186803b1580156126e057600080fd5b505afa1580156126f4573d6000803e3d6000fd5b505050506040513d604081101561270a57600080fd5b50805160209091015190965094506127229350505050565b9091565b600554604080516317b9b84b60e31b81523060048201526001600160a01b03868116602483015285811660448301526064820185905291516000938493169163bdcdc25891608480830192602092919082900301818787803b15801561278b57600080fd5b505af115801561279f573d6000803e3d6000fd5b505050506040513d60208110156127b557600080fd5b5051905080156127d4576127cc6003604a836130de565b915050611253565b836001600160a01b0316856001600160a01b031614156127fa576127cc6002604b612bb7565b60006001600160a01b0387811690871614156128195750600019612841565b506001600160a01b038086166000908152601060209081526040808320938a16835292905220545b6000806000806128518589613053565b9094509250600084600381111561286457fe5b14612882576128756009604b612bb7565b9650505050505050611253565b6001600160a01b038a166000908152600f60205260409020546128a59089613053565b909450915060008460038111156128b857fe5b146128c9576128756009604c612bb7565b6001600160a01b0389166000908152600f60205260409020546128ec9089613144565b909450905060008460038111156128ff57fe5b14612910576128756009604d612bb7565b6001600160a01b03808b166000908152600f6020526040808220859055918b168152208190556000198514612968576001600160a01b03808b166000908152601060209081526040808320938f168352929052208390555b886001600160a01b03168a6001600160a01b0316600080516020615c768339815191528a6040518082815260200191505060405180910390a35060009a9950505050505050505050565b60008054819060ff166129f2576040805162461bcd60e51b81526020600482015260036024820152622a191b60e91b604482015290519081900360640190fd5b6000805460ff19168155612a0461183b565b90508015612a2f57612a22816010811115612a1b57fe5b6035612bb7565b925060009150612a409050565b612a3a338686613aa8565b92509250505b6000805460ff1916600117905590939092509050565b6000806000612a63615afe565b612a6d8686613076565b90925090506000826003811115612a8057fe5b14612a915750915060009050612aa3565b6000612a9c82613eba565b9350935050505b9250929050565b601254604080516370a0823160e01b815230600482015290516000926001600160a01b03169182916370a0823191602480820192602092909190829003018186803b158015612af857600080fd5b505afa158015612b0c573d6000803e3d6000fd5b505050506040513d6020811015612b2257600080fd5b505191505090565b6000805460ff16612b68576040805162461bcd60e51b81526020600482015260036024820152622a191b60e91b604482015290519081900360640190fd5b6000805460ff19168155612b7a61183b565b90508015612b98576114bf816010811115612b9157fe5b604e612bb7565b612ba183613ec9565b509150506000805460ff19166001179055919050565b60007f45b96fe442630264581b197e84bbada861235052c5a1aadfff9ea4e40a969aa0836010811115612be657fe5b836052811115612bf257fe5b604080519283526020830191909152600082820152519081900360600190a18260108111156113a957fe5b600354600090819061010090046001600160a01b03163314612c45576120d960016031612bb7565b612c4d612e7a565b60095414612c61576120d9600a6033612bb7565b82612c6a612aaa565b1015612c7c576120d9600e6032612bb7565b600c54831115612c92576120d960026034612bb7565b50600c5482810390811115612cd4576040805162461bcd60e51b815260206004820152600360248201526254323560e81b604482015290519081900360640190fd5b600c819055600354612cf49061010090046001600160a01b031684613f97565b600354604080516101009092046001600160a01b0316825260208201859052818101839052517f3bad0c59cf2f06e7314077049f48a93578cd16f5ef92329f1dab1420a99c177e916060908290030190a160006113a9565b6000805460ff16612d8a576040805162461bcd60e51b81526020600482015260036024820152622a191b60e91b604482015290519081900360640190fd5b6000805460ff19168155612d9c61183b565b90508015612dba576114bf816010811115612db357fe5b6027612bb7565b6114d033600085614073565b6001600160a01b038116600090815260116020526040812080548291829182918291612dfd575060009450849350612e7592505050565b612e0d8160000154600a54614a1f565b90945092506000846003811115612e2057fe5b14612e35575091935060009250612e75915050565b612e43838260010154614a5e565b90945091506000846003811115612e5657fe5b14612e6b575091935060009250612e75915050565b5060009450925050505b915091565b4390565b600354600090819061010090046001600160a01b03163314612ea6576120d960016042612bb7565b612eae612e7a565b60095414612ec2576120d9600a6041612bb7565b600660009054906101000a90046001600160a01b03169050826001600160a01b0316632191f92a6040518163ffffffff1660e01b815260040160206040518083038186803b158015612f1357600080fd5b505afa158015612f27573d6000803e3d6000fd5b505050506040513d6020811015612f3d57600080fd5b5051612f76576040805162461bcd60e51b81526020600482015260036024820152622a191960e91b604482015290519081900360640190fd5b600680546001600160a01b0319166001600160a01b03858116918217909255604080519284168352602083019190915280517fedffc32e068c7c95dfd4bdfd5c4d939a084d6b11c4199eac8436ed234d72f9269281900390910190a160006113a9565b60008054819060ff16613019576040805162461bcd60e51b81526020600482015260036024820152622a191b60e91b604482015290519081900360640190fd5b6000805460ff1916815561302b61183b565b905080156130495761255c81601081111561304257fe5b601e612bb7565b6125743385614a89565b60008083831161306a575060009050818303612aa3565b50600390506000612aa3565b6000613080615afe565b600080613091866000015186614a1f565b909250905060008260038111156130a457fe5b146130c357506040805160208101909152600081529092509050612aa3565b60408051602081019091529081526000969095509350505050565b60007f45b96fe442630264581b197e84bbada861235052c5a1aadfff9ea4e40a969aa084601081111561310d57fe5b84605281111561311957fe5b604080519283526020830191909152818101859052519081900360600190a183601081111561125357fe5b60008083830184811061315c57600092509050612aa3565b506002915060009050612aa3565b6000806000613177615afe565b6131818787613076565b9092509050600082600381111561319457fe5b146131a557509150600090506131be565b6131b76131b182613eba565b86613144565b9350935050505b935093915050565b60065460408051630dce3c5b60e31b815260048101879052602481018690526044810185905290516000928392839283926001600160a01b031691636e71e2d8916064808301926020929190829003018186803b15801561322657600080fd5b505afa15801561323a573d6000803e3d6000fd5b505050506040513d602081101561325057600080fd5b505160065460085460408051635c0b440b60e11b8152600481018d9052602481018c9052604481018b90526064810192909252519293506000926001600160a01b039092169163b816881691608480820192602092909190829003018186803b1580156132bc57600080fd5b505afa1580156132d0573d6000803e3d6000fd5b505050506040513d60208110156132e657600080fd5b50516006546040805163327a176d60e11b8152600481018d9052602481018c9052604481018b905290519293506001600160a01b03909116916364f42eda91606480820192602092909190829003018186803b15801561334557600080fd5b505afa158015613359573d6000803e3d6000fd5b505050506040513d602081101561336f57600080fd5b5051156134255761338e6040518060200160405280848152508b612a56565b909550925060008560038111156133a157fe5b146133b3575060009250613431915050565b6133bd8382613053565b909550925060008560038111156133d057fe5b146133e2575060009250613431915050565b6133fb604051806020016040528085815250878961316a565b9095509350600085600381111561340e57fe5b14613420575060009250613431915050565b61342d565b600094508693505b5050505b9550959350505050565b6005546040805163d02f735160e01b81523060048201526001600160a01b038781166024830152868116604483015285811660648301526084820185905291516000938493169163d02f73519160a480830192602092919082900301818787803b1580156134a857600080fd5b505af11580156134bc573d6000803e3d6000fd5b505050506040513d60208110156134d257600080fd5b5051905080156134e9576127cc6003601b836130de565b846001600160a01b0316846001600160a01b0316141561350f576127cc6006601c612bb7565b6001600160a01b0384166000908152600f6020526040812054819081906135369087613053565b9093509150600083600381111561354957fe5b1461356c576135616009601a8560038111156119ef57fe5b945050505050611253565b6001600160a01b0388166000908152600f602052604090205461358f9087613144565b909350905060008360038111156135a257fe5b146135ba57613561600960198560038111156119ef57fe5b6001600160a01b038088166000818152600f60209081526040808320879055938c168083529184902085905583518a815293519193600080516020615c76833981519152929081900390910190a360009998505050505050505050565b6000805460ff16613655576040805162461bcd60e51b81526020600482015260036024820152622a191b60e91b604482015290519081900360640190fd5b6000805460ff1916815561366761183b565b90508015613685576114bf81601081111561367e57fe5b6008612bb7565b6114d033846150c0565b6000805460ff166136cd576040805162461bcd60e51b81526020600482015260036024820152622a191b60e91b604482015290519081900360640190fd5b6000805460ff191681556136df61183b565b905080156136f6576114bf816010811115612db357fe5b6114d033846000614073565b60008054819060ff16613742576040805162461bcd60e51b81526020600482015260036024820152622a191b60e91b604482015290519081900360640190fd5b6000805460ff1916815561375461183b565b9050801561377f5761377281601081111561376b57fe5b600f612bb7565b9250600091506138169050565b836001600160a01b031663a6afed956040518163ffffffff1660e01b8152600401602060405180830381600087803b1580156137ba57600080fd5b505af11580156137ce573d6000803e3d6000fd5b505050506040513d60208110156137e457600080fd5b505190508015613804576137728160108111156137fd57fe5b6010612bb7565b61381033878787615358565b92509250505b6000805460ff191660011790559094909350915050565b6000613837615afe565b60008061384c86600001518660000151613144565b60408051602081019091529081529097909650945050505050565b6000613871615afe565b60008061388686600001518660000151614a1f565b9092509050600082600381111561389957fe5b146138b857506040805160208101909152600081529092509050612aa3565b6000806138cd6706f05b59d3b2000084613144565b909250905060008260038111156138e057fe5b1461390257506040805160208101909152600081529094509250612aa3915050565b60008061391783670de0b6b3a7640000614a5e565b9092509050600082600381111561392a57fe5b1461393157fe5b604080516020810190915290815260009a909950975050505050505050565b600061395a615afe565b60008061396f86670de0b6b3a7640000614a1f565b9092509050600082600381111561398257fe5b146139a157506040805160208101909152600081529092509050612aa3565b6000806139ae8388614a5e565b909250905060008260038111156139c157fe5b146139e357506040805160208101909152600081529094509250612aa3915050565b604080516020810190915290815260009890975095505050505050565b60035460009061010090046001600160a01b03163314613a265761129b60016047612bb7565b613a2e612e7a565b60095414613a425761129b600a6048612bb7565b670de0b6b3a7640000821115613a5e5761129b60026049612bb7565b6008805490839055604080518281526020810185905281517faaa68312e2ea9d50e16af5068410ab56e1a1fd06037b1a35664812c30f821460929181900390910190a160006113a9565b60055460408051631200453160e11b81523060048201526001600160a01b0386811660248301528581166044830152606482018590529151600093849384939116916324008a629160848082019260209290919082900301818787803b158015613b1157600080fd5b505af1158015613b25573d6000803e3d6000fd5b505050506040513d6020811015613b3b57600080fd5b505190508015613b5f57613b5260036038836130de565b9250600091506131be9050565b613b67612e7a565b60095414613b7b57613b52600a6039612bb7565b613b83615bec565b6001600160a01b0386166000908152601160205260409020600101546060820152613bad86612dc6565b6080830181905260208301826003811115613bc457fe5b6003811115613bcf57fe5b9052506000905081602001516003811115613be657fe5b14613c1057613c0260096037836020015160038111156119ef57fe5b9350600092506131be915050565b600019851415613c3d57608081015160408201819052613c33908890600161581f565b60e0820152613c54565b60408101859052613c4e8786615827565b60e08201525b613c6681608001518260e00151613053565b60a0830181905260208301826003811115613c7d57fe5b6003811115613c8857fe5b9052506000905081602001516003811115613c9f57fe5b14613cd7576040805162461bcd60e51b815260206004820152600360248201526254313760e81b604482015290519081900360640190fd5b613ce7600b548260e00151613053565b60c0830181905260208301826003811115613cfe57fe5b6003811115613d0957fe5b9052506000905081602001516003811115613d2057fe5b14613d58576040805162461bcd60e51b81526020600482015260036024820152620a862760eb1b604482015290519081900360640190fd5b60a0810180516001600160a01b03808916600081815260116020908152604091829020948555600a5460019095019490945560c0860151600b81905560e087015195518251968752948601949094528481019390935291519192908a16917f1a2a22cb034d26d1854bdc6666a5b91fe25efbbb5dcad3b0355478d6f5c362a19181900360600190a360e00151600097909650945050505050565b600080600d5460001415613e0d575050600754600090612e75565b613e15615b8f565b6001600160a01b0384166000908152600f602052604090206002810154613e4657506001925060009150612e759050565b80541580613e5657506001810154155b15613e6b576000600754935093505050612e75565b600080613e7787612189565b5093505050915060006003811115613e8b57fe5b826003811115613e9757fe5b14613eab5750935060009250612e75915050565b600095509350612e7592505050565b51670de0b6b3a7640000900490565b600080600080613ed7612e7a565b60095414613ef657613eeb600a604f612bb7565b93509150612e759050565b613f003386615827565b905080600c54019150600c54821015613f46576040805162461bcd60e51b815260206004820152600360248201526254323360e81b604482015290519081900360640190fd5b600c829055604080513381526020810183905280820184905290517fa91e67c5ea634cd43a12c5a482724b03de01e85ca68702a53d0c2f45cb7c1dc59181900360600190a160009350915050915091565b6012546040805163a9059cbb60e01b81526001600160a01b0385811660048301526024820185905291519190921691829163a9059cbb9160448082019260009290919082900301818387803b158015613fef57600080fd5b505af1158015614003573d6000803e3d6000fd5b5050505060003d6000811461401f576020811461402957600080fd5b6000199150614035565b60206000803e60005191505b508061406d576040805162461bcd60e51b8152602060048201526002602482015261114d60f21b604482015290519081900360640190fd5b50505050565b6000821580614080575081155b6140b7576040805162461bcd60e51b81526020600482015260036024820152622a189b60e91b604482015290519081900360640190fd5b6140bf615bec565b6001600160a01b0385166000908152600f602052604090206140df61258e565b60408401819052602084018260038111156140f657fe5b600381111561410157fe5b905250600090508260200151600381111561411857fe5b1461413d576141346009602b846020015160038111156119ef57fe5b925050506113a9565b6000806000806000600660009054906101000a90046001600160a01b03166001600160a01b031663e36c26e46040518163ffffffff1660e01b815260040160206040518083038186803b15801561419357600080fd5b505afa1580156141a7573d6000803e3d6000fd5b505050506040513d60208110156141bd57600080fd5b5051905080156141e4576141d08b612189565b60018b018190559198509095508594505050505b6006546001600160a01b031663b81688166141fd612aaa565b600b54600c546008546040518563ffffffff1660e01b81526004018085815260200184815260200183815260200182815260200194505050505060206040518083038186803b15801561424f57600080fd5b505afa158015614263573d6000803e3d6000fd5b505050506040513d602081101561427957600080fd5b5051600387015580801561431757506006546001600160a01b03166364f42eda6142a1612aaa565b600b54600c546040518463ffffffff1660e01b815260040180848152602001838152602001828152602001935050505060206040518083038186803b1580156142e957600080fd5b505afa1580156142fd573d6000803e3d6000fd5b505050506040513d602081101561431357600080fd5b5051155b1561449d576006546000906001600160a01b03166315f24053614338612aaa565b600b54600c546040518463ffffffff1660e01b815260040180848152602001838152602001828152602001935050505060206040518083038186803b15801561438057600080fd5b505afa158015614394573d6000803e3d6000fd5b505050506040513d60208110156143aa57600080fd5b50516006549091506000906001600160a01b0316636e71e2d86143cb612aaa565b600b54600c546040518463ffffffff1660e01b815260040180848152602001838152602001828152602001935050505060206040518083038186803b15801561441357600080fd5b505afa158015614427573d6000803e3d6000fd5b505050506040513d602081101561443d57600080fd5b5051604080516020810190915283815290915060009061445d9083612a56565b91505061446e896003015482613053565b975061447a9050615afe565b614488888b60030154613950565b915050614495818a612a56565b985050505050505b6000198914156144d3576040805160208101825290880151815286546144c39190612a56565b6080890181905299506144db9050565b608087018990525b89156145c857606087018a905280156145445785548a1415614506576001860154608088015261453f565b61450e615afe565b61451c886060015184615a3b565b915050614527615afe565b815188546145359190613950565b5160808b01525050505b6145c3565b614560604051806020016040528089604001518152508b612a56565b608089018190526020890182600381111561457757fe5b600381111561458257fe5b905250600090508760200151600381111561459957fe5b146145c3576145b560096029896020015160038111156119ef57fe5b9750505050505050506113a9565b614686565b608087018990528015614615576145dd615afe565b6145ef88608001518860000154615a3b565b9150506145fa615afe565b81516146069085613950565b5160608b015250614686915050565b6146318960405180602001604052808a60400151815250615a76565b606089018190526020890182600381111561464857fe5b600381111561465357fe5b905250600090508760200151600381111561466a57fe5b14614686576145b56009602a896020015160038111156119ef57fe5b60055460608801516040805163eabe7d9160e01b81523060048201526001600160a01b038f8116602483015260448201939093529051600093929092169163eabe7d919160648082019260209290919082900301818787803b1580156146eb57600080fd5b505af11580156146ff573d6000803e3d6000fd5b505050506040513d602081101561471557600080fd5b50519050801561473b5761472c60036028836130de565b985050505050505050506113a9565b614743612e7a565b600954146147575761472c600a602c612bb7565b614767600d548960600151613053565b60a08a0181905260208a0182600381111561477e57fe5b600381111561478957fe5b90525060009050886020015160038111156147a057fe5b146147bc5761472c6009602e8a6020015160038111156119ef57fe5b6147c8600e5486613053565b60e08a015250865460608901516147df9190613053565b60c08a0181905260208a018260038111156147f657fe5b600381111561480157fe5b905250600090508860200151600381111561481857fe5b146148345761472c6009602d8a6020015160038111156119ef57fe5b600061483e612aaa565b905082156148495750475b886080015181101561487157614861600e602f612bb7565b99505050505050505050506113a9565b61487f8d8a60800151613f97565b60a0890151600d5560e0890151600e5560c089015188556009546002890155600188015460808a01516148b29190613053565b9050886001016000829190505550306001600160a01b03168d6001600160a01b0316600080516020615c768339815191528b606001516040518082815260200191505060405180910390a38c6001600160a01b03167fe5b754fb1abb7f01b499791d0b820ae3b6af3424ac1c59768edb53f4ec31a9298a608001518b60600151604051808381526020018281526020019250505060405180910390a2600560009054906101000a90046001600160a01b03166001600160a01b03166351dff989308f8c608001518d606001516040518563ffffffff1660e01b815260040180856001600160a01b03166001600160a01b03168152602001846001600160a01b03166001600160a01b03168152602001838152602001828152602001945050505050600060405180830381600087803b1580156149ed57600080fd5b505af1158015614a01573d6000803e3d6000fd5b5060009250614a0e915050565b9d9c50505050505050505050505050565b60008083614a3257506000905080612aa3565b83830283858281614a3f57fe5b0414614a5357506002915060009050612aa3565b600092509050612aa3565b60008082614a725750600190506000612aa3565b6000838581614a7d57fe5b04915091509250929050565b6001600160a01b038216600090815260116020526040812054819015614adc576040805162461bcd60e51b81526020600482015260036024820152622a189960e91b604482015290519081900360640190fd5b60055460408051634ef4c3e160e01b81523060048201526001600160a01b0387811660248301526044820187905291516000939290921691634ef4c3e19160648082019260209290919082900301818787803b158015614b3b57600080fd5b505af1158015614b4f573d6000803e3d6000fd5b505050506040513d6020811015614b6557600080fd5b505190508015614b8957614b7c6003601f836130de565b925060009150612aa39050565b614b91612e7a565b60095414614ba557614b7c600a6022612bb7565b614bad615bec565b614bb561258e565b6040830181905260208301826003811115614bcc57fe5b6003811115614bd757fe5b9052506000905081602001516003811115614bee57fe5b14614c1857614c0a60096021836020015160038111156119ef57fe5b935060009250612aa3915050565b60808101859052614c298682615a8d565b614c338686615827565b60e0820181905260408051602081018252908301518152614c549190615a76565b6060830181905260208301826003811115614c6b57fe5b6003811115614c7657fe5b9052506000905081602001516003811115614c8d57fe5b14614cc5576040805162461bcd60e51b815260206004820152600360248201526254313360e81b604482015290519081900360640190fd5b614cd5600d548260600151613144565b60a0830181905260208301826003811115614cec57fe5b6003811115614cf757fe5b9052506000905081602001516003811115614d0e57fe5b14614d46576040805162461bcd60e51b8152602060048201526003602482015262150c4d60ea1b604482015290519081900360640190fd5b6001600160a01b0386166000908152600f60205260409020546060820151614d6e9190613144565b60c0830181905260208301826003811115614d8557fe5b6003811115614d9057fe5b9052506000905081602001516003811115614da757fe5b14614ddf576040805162461bcd60e51b815260206004820152600360248201526254313560e81b604482015290519081900360640190fd5b6006546000906001600160a01b031663b8168816614dfb612aaa565b600b54600c546008546040518563ffffffff1660e01b81526004018085815260200184815260200183815260200182815260200194505050505060206040518083038186803b158015614e4d57600080fd5b505afa158015614e61573d6000803e3d6000fd5b505050506040513d6020811015614e7757600080fd5b5051600654604080516338db09b960e21b815290519293506000926001600160a01b039092169163e36c26e491600480820192602092909190829003018186803b158015614ec457600080fd5b505afa158015614ed8573d6000803e3d6000fd5b505050506040513d6020811015614eee57600080fd5b50516001600160a01b0389166000908152600f602052604090205490915015614fd557614f19615afe565b8115614f45576000614f2a8a612189565b60408051602081019091529081529550614fc4945050505050565b6001600160a01b0389166000908152600f602090815260408083205481518084018352818152825193840183529188015183529291614f849190613867565b935090506000816003811115614f9657fe5b14614fc157614fae600960208360038111156119ef57fe5b985060009750612aa39650505050505050565b50505b8051614fd09089613144565b985050505b60a0830151600d556040805160808101825260c0850151815260208082018a815260095483850190815260608085018881526001600160a01b038f166000818152600f8752889020965187559351600187015591516002860155905160039094019390935560e087015192870151845193845291830191909152825190927f4c209b5fc8ad50758f13e2e1088ba56a560dff690a1c6fef26394f4c03821c4f928290030190a2606083015160408051918252516001600160a01b038a16913091600080516020615c768339815191529181900360200190a3505060e001516000969095509350505050565b6005546040805163368f515360e21b81523060048201526001600160a01b0385811660248301526044820185905291516000938493169163da3d454c91606480830192602092919082900301818787803b15801561511d57600080fd5b505af1158015615131573d6000803e3d6000fd5b505050506040513d602081101561514757600080fd5b5051905080156151665761515e6003600e836130de565b915050610dd5565b61516e612e7a565b600954146151815761515e600a80612bb7565b8261518a612aaa565b101561519c5761515e600e6009612bb7565b6151a4615c32565b6151ad85612dc6565b60208301819052828260038111156151c157fe5b60038111156151cc57fe5b90525060009050815160038111156151e057fe5b14615205576151fc60096007836000015160038111156119ef57fe5b92505050610dd5565b615213816020015185613144565b604083018190528282600381111561522757fe5b600381111561523257fe5b905250600090508151600381111561524657fe5b14615262576151fc6009600c836000015160038111156119ef57fe5b61526e600b5485613144565b606083018190528282600381111561528257fe5b600381111561528d57fe5b90525060009050815160038111156152a157fe5b146152bd576151fc6009600b836000015160038111156119ef57fe5b6152c78582615a91565b90506152d38585613f97565b604080820180516001600160a01b03881660008181526011602090815290859020928355600a54600190930192909255606080860151600b819055935185518a8152938401528285019390935292517f13ed6866d4e1ee6da46f845c46d7e54120883d75c5ea9a2dacc1c4ca8984ab80929181900390910190a2600095945050505050565b60055460408051632fe3f38f60e11b81523060048201526001600160a01b0384811660248301528781166044830152868116606483015260848201869052915160009384938493911691635fc7e71e9160a48082019260209290919082900301818787803b1580156153c957600080fd5b505af11580156153dd573d6000803e3d6000fd5b505050506040513d60208110156153f357600080fd5b5051905080156154175761540a60036012836130de565b9250600091506158169050565b61541f612e7a565b600954146154335761540a600a6016612bb7565b61543b612e7a565b846001600160a01b0316636c540baf6040518163ffffffff1660e01b815260040160206040518083038186803b15801561547457600080fd5b505afa158015615488573d6000803e3d6000fd5b505050506040513d602081101561549e57600080fd5b5051146154b15761540a600a6011612bb7565b866001600160a01b0316866001600160a01b031614156154d75761540a60066017612bb7565b846154e85761540a60076015612bb7565b6000198514156154fe5761540a60076014612bb7565b60008061550c898989613aa8565b9092509050811561553c5761552d82601081111561552657fe5b6018612bb7565b94506000935061581692505050565b6005546040805163c488847b60e01b81523060048201526001600160a01b038981166024830152604482018590528251600094859492169263c488847b926064808301939192829003018186803b15801561559657600080fd5b505afa1580156155aa573d6000803e3d6000fd5b505050506040513d60408110156155c057600080fd5b50805160209091015190925090508115615607576040805162461bcd60e51b815260206004820152600360248201526254313960e81b604482015290519081900360640190fd5b80886001600160a01b03166370a082318c6040518263ffffffff1660e01b815260040180826001600160a01b03166001600160a01b0316815260200191505060206040518083038186803b15801561565e57600080fd5b505afa158015615672573d6000803e3d6000fd5b505050506040513d602081101561568857600080fd5b505110156156c3576040805162461bcd60e51b815260206004820152600360248201526205432360ec1b604482015290519081900360640190fd5b60006001600160a01b0389163014156156e9576156e2308d8d8561343b565b9050615773565b6040805163b2a02ff160e01b81526001600160a01b038e811660048301528d81166024830152604482018590529151918b169163b2a02ff1916064808201926020929091908290030181600087803b15801561574457600080fd5b505af1158015615758573d6000803e3d6000fd5b505050506040513d602081101561576e57600080fd5b505190505b80156157ac576040805162461bcd60e51b815260206004820152600360248201526254323160e81b604482015290519081900360640190fd5b886001600160a01b03168b6001600160a01b03168d6001600160a01b03167f298637f684da70674f26509b10f07ec2fbc77a335ab1e7d6215a4b2484d8bb528786604051808381526020018281526020019250505060405180910390a46000975092955050505050505b94509492505050565b600061125384845b601254604080516370a0823160e01b815230600482015290516000926001600160a01b031691839183916370a08231916024808301926020929190829003018186803b15801561587657600080fd5b505afa15801561588a573d6000803e3d6000fd5b505050506040513d60208110156158a057600080fd5b5051604080516323b872dd60e01b81526001600160a01b038881166004830152306024830152604482018890529151929350908416916323b872dd9160648082019260009290919082900301818387803b1580156158fd57600080fd5b505af1158015615911573d6000803e3d6000fd5b5050505060003d6000811461592d576020811461593757600080fd5b6000199150615943565b60206000803e60005191505b508061597b576040805162461bcd60e51b8152602060048201526002602482015261229960f11b604482015290519081900360640190fd5b601254604080516370a0823160e01b815230600482015290516000926001600160a01b0316916370a08231916024808301926020929190829003018186803b1580156159c657600080fd5b505afa1580156159da573d6000803e3d6000fd5b505050506040513d60208110156159f057600080fd5b5051905082811015615a2e576040805162461bcd60e51b8152602060048201526002602482015261453360f01b604482015290519081900360640190fd5b9190910395945050505050565b6000615a45615afe565b615a6b604051806020016040528086815250604051806020016040528086815250613867565b915091509250929050565b6000806000615a83615afe565b612a6d8686615a9f565b5050565b615a99615c32565b50919050565b6000615aa9615afe565b600080615abe670de0b6b3a764000087614a1f565b90925090506000826003811115615ad157fe5b14615af057506040805160208101909152600081529092509050612aa3565b612a9c818660000151613950565b6040518060200160405280600081525090565b828054600181600116156101000203166002900490600052602060002090601f016020900481019282601f10615b5257805160ff1916838001178555615b7f565b82800160010185558215615b7f579182015b82811115615b7f578251825591602001919060010190615b64565b50615b8b929150615c5b565b5090565b60408051610100810190915280600081526020016000815260200160008152602001615bb9615afe565b815260200160008152602001615bcd615afe565b8152602001615bda615afe565b8152602001615be7615afe565b905290565b6040805161010081019091528060008152602001600081526020016000815260200160008152602001600081526020016000815260200160008152602001600081525090565b604080516080810190915280600081526020016000815260200160008152602001600081525090565b610f4891905b80821115615b8b5760008155600101615c6156feddf252ad1be2c89b69c2b068fc378daa952ba7f163c4a11628f55a4df523b3efa265627a7a72315820e851eba8659eeba8cebe86a511fa0cdfab20f47953e58a8dd8d97b344e43ed0664736f6c63430005100032",
  "linkReferences": {},
  "deployedLinkReferences": {}
}