{
  "_format": "hh-sol-artifact-1",
  "contractName": "MockPriceProviderMoC",
  "sourceName": "contracts/mocks/MockPriceProviderMoC.sol",
  "abi": [
    {
      "inputs": [
        {
          "internalType": "address",
          "name": "guardian_",
          "type": "address"
        },
        {
          "internalType": "uint256",
          "name": "price",
          "type": "uint256"
        }
      ],
      "payable": false,
      "stateMutability": "nonpayable",
      "type": "constructor"
    },
    {
      "anonymous": false,
      "inputs": [
        {
          "indexed": false,
          "internalType": "uint256",
          "name": "oldPrice",
          "type": "uint256"
        },
        {
          "indexed": false,
          "internalType": "uint256",
          "name": "newPrice",
          "type": "uint256"
        }
      ],
      "name": "MockPriceProviderMoCUpdated",
      "type": "event"
    },
    {
      "constant": true,
      "inputs": [],
      "name": "guardian",
      "outputs": [
        {
          "internalType": "address",
          "name": "",
          "type": "address"
        }
      ],
      "payable": false,
      "stateMutability": "view",
      "type": "function"
    },
    {
      "constant": true,
      "inputs": [],
      "name": "peek",
      "outputs": [
        {
          "internalType": "bytes32",
          "name": "",
          "type": "bytes32"
        },
        {
          "internalType": "bool",
          "name": "",
          "type": "bool"
        }
      ],
      "payable": false,
      "stateMutability": "view",
      "type": "function"
    },
    {
      "constant": false,
      "inputs": [
        {
          "internalType": "uint256",
          "name": "price",
          "type": "uint256"
        }
      ],
      "name": "setPrice",
      "outputs": [],
      "payable": false,
      "stateMutability": "nonpayable",
      "type": "function"
    }
  ],
  "bytecode": "0x608060405234801561001057600080fd5b506040516103893803806103898339818101604052604081101561003357600080fd5b5080516020909101516001600160a01b0382166100815760405162461bcd60e51b815260040180806020018281038252602c81526020018061035d602c913960400191505060405180910390fd5b806100bd5760405162461bcd60e51b815260040180806020018281038252602a815260200180610333602a913960400191505060405180910390fd5b6001805460009290925560ff196001600160a01b0390931661010002610100600160a81b0319909216919091179190911681179055610232806101016000396000f3fe608060405234801561001057600080fd5b50600436106100415760003560e01c8063452a93201461004657806359e02dd71461006a57806391b7f5ed1461008b575b600080fd5b61004e6100aa565b604080516001600160a01b039092168252519081900360200190f35b6100726100be565b6040805192835290151560208301528051918290030190f35b6100a8600480360360208110156100a157600080fd5b50356100cb565b005b60015461010090046001600160a01b031681565b60005460015460ff169091565b60015461010090046001600160a01b031633146101195760405162461bcd60e51b815260040180806020018281038252603781526020018061019d6037913960400191505060405180910390fd5b806101555760405162461bcd60e51b815260040180806020018281038252602a8152602001806101d4602a913960400191505060405180910390fd5b6000805490829055604080518281526020810184905281517f0f044c0280bacc38accfa21abc3ff4078e3acc7d7a14569f5db61f36870df047929181900390910190a1505056fe4d6f636b507269636550726f76696465724d6f433a206f6e6c7920677561726469616e206d6179207365742074686520616464726573734d6f636b507269636550726f76696465724d6f433a20707269636520636f756c64206e6f742062652030a265627a7a72315820441fdc067ac66dda3190894afcd84e3a77ff96375ad297b9572148e54c5f833a64736f6c634300051000324d6f636b507269636550726f76696465724d6f433a20707269636520636f756c64206e6f7420626520304d6f636b507269636550726f76696465724d6f433a206164647265737320636f756c64206e6f742062652030",
  "linkReferences": {},
  "deployedLinkReferences": {}
}