{
  "_format": "hh-sol-artifact-1",
  "contractName": "ComptrollerG4",
  "sourceName": "contracts/ComptrollerG4.sol",
  "abi": [
    {
      "inputs": [],
      "payable": false,
      "stateMutability": "nonpayable",
      "type": "constructor"
    },
    {
      "anonymous": false,
      "inputs": [
        {
          "indexed": false,
          "internalType": "string",
          "name": "action",
          "type": "string"
        },
        {
          "indexed": false,
          "internalType": "bool",
          "name": "pauseState",
          "type": "bool"
        }
      ],
      "name": "ActionPaused",
      "type": "event"
    },
    {
      "anonymous": false,
      "inputs": [
        {
          "indexed": false,
          "internalType": "contract CToken",
          "name": "cToken",
          "type": "address"
        },
        {
          "indexed": false,
          "internalType": "string",
          "name": "action",
          "type": "string"
        },
        {
          "indexed": false,
          "internalType": "bool",
          "name": "pauseState",
          "type": "bool"
        }
      ],
      "name": "ActionPaused",
      "type": "event"
    },
    {
      "anonymous": false,
      "inputs": [
        {
          "indexed": true,
          "internalType": "contract CToken",
          "name": "cToken",
          "type": "address"
        },
        {
          "indexed": false,
          "internalType": "uint256",
          "name": "newSpeed",
          "type": "uint256"
        }
      ],
      "name": "CompSpeedUpdated",
      "type": "event"
    },
    {
      "anonymous": false,
      "inputs": [
        {
          "indexed": true,
          "internalType": "contract CToken",
          "name": "cToken",
          "type": "address"
        },
        {
          "indexed": true,
          "internalType": "address",
          "name": "borrower",
          "type": "address"
        },
        {
          "indexed": false,
          "internalType": "uint256",
          "name": "compDelta",
          "type": "uint256"
        },
        {
          "indexed": false,
          "internalType": "uint256",
          "name": "compBorrowIndex",
          "type": "uint256"
        }
      ],
      "name": "DistributedBorrowerComp",
      "type": "event"
    },
    {
      "anonymous": false,
      "inputs": [
        {
          "indexed": true,
          "internalType": "contract CToken",
          "name": "cToken",
          "type": "address"
        },
        {
          "indexed": true,
          "internalType": "address",
          "name": "supplier",
          "type": "address"
        },
        {
          "indexed": false,
          "internalType": "uint256",
          "name": "compDelta",
          "type": "uint256"
        },
        {
          "indexed": false,
          "internalType": "uint256",
          "name": "compSupplyIndex",
          "type": "uint256"
        }
      ],
      "name": "DistributedSupplierComp",
      "type": "event"
    },
    {
      "anonymous": false,
      "inputs": [
        {
          "indexed": false,
          "internalType": "uint256",
          "name": "error",
          "type": "uint256"
        },
        {
          "indexed": false,
          "internalType": "uint256",
          "name": "info",
          "type": "uint256"
        },
        {
          "indexed": false,
          "internalType": "uint256",
          "name": "detail",
          "type": "uint256"
        }
      ],
      "name": "Failure",
      "type": "event"
    },
    {
      "anonymous": false,
      "inputs": [
        {
          "indexed": false,
          "internalType": "contract CToken",
          "name": "cToken",
          "type": "address"
        },
        {
          "indexed": false,
          "internalType": "bool",
          "name": "isComped",
          "type": "bool"
        }
      ],
      "name": "MarketComped",
      "type": "event"
    },
    {
      "anonymous": false,
      "inputs": [
        {
          "indexed": false,
          "internalType": "contract CToken",
          "name": "cToken",
          "type": "address"
        },
        {
          "indexed": false,
          "internalType": "address",
          "name": "account",
          "type": "address"
        }
      ],
      "name": "MarketEntered",
      "type": "event"
    },
    {
      "anonymous": false,
      "inputs": [
        {
          "indexed": false,
          "internalType": "contract CToken",
          "name": "cToken",
          "type": "address"
        },
        {
          "indexed": false,
          "internalType": "address",
          "name": "account",
          "type": "address"
        }
      ],
      "name": "MarketExited",
      "type": "event"
    },
    {
      "anonymous": false,
      "inputs": [
        {
          "indexed": false,
          "internalType": "contract CToken",
          "name": "cToken",
          "type": "address"
        }
      ],
      "name": "MarketListed",
      "type": "event"
    },
    {
      "anonymous": false,
      "inputs": [
        {
          "indexed": false,
          "internalType": "uint256",
          "name": "oldCloseFactorMantissa",
          "type": "uint256"
        },
        {
          "indexed": false,
          "internalType": "uint256",
          "name": "newCloseFactorMantissa",
          "type": "uint256"
        }
      ],
      "name": "NewCloseFactor",
      "type": "event"
    },
    {
      "anonymous": false,
      "inputs": [
        {
          "indexed": false,
          "internalType": "contract CToken",
          "name": "cToken",
          "type": "address"
        },
        {
          "indexed": false,
          "internalType": "uint256",
          "name": "oldCollateralFactorMantissa",
          "type": "uint256"
        },
        {
          "indexed": false,
          "internalType": "uint256",
          "name": "newCollateralFactorMantissa",
          "type": "uint256"
        }
      ],
      "name": "NewCollateralFactor",
      "type": "event"
    },
    {
      "anonymous": false,
      "inputs": [
        {
          "indexed": false,
          "internalType": "uint256",
          "name": "oldCompRate",
          "type": "uint256"
        },
        {
          "indexed": false,
          "internalType": "uint256",
          "name": "newCompRate",
          "type": "uint256"
        }
      ],
      "name": "NewCompRate",
      "type": "event"
    },
    {
      "anonymous": false,
      "inputs": [
        {
          "indexed": false,
          "internalType": "uint256",
          "name": "oldLiquidationIncentiveMantissa",
          "type": "uint256"
        },
        {
          "indexed": false,
          "internalType": "uint256",
          "name": "newLiquidationIncentiveMantissa",
          "type": "uint256"
        }
      ],
      "name": "NewLiquidationIncentive",
      "type": "event"
    },
    {
      "anonymous": false,
      "inputs": [
        {
          "indexed": false,
          "internalType": "uint256",
          "name": "oldMaxAssets",
          "type": "uint256"
        },
        {
          "indexed": false,
          "internalType": "uint256",
          "name": "newMaxAssets",
          "type": "uint256"
        }
      ],
      "name": "NewMaxAssets",
      "type": "event"
    },
    {
      "anonymous": false,
      "inputs": [
        {
          "indexed": false,
          "internalType": "address",
          "name": "oldPauseGuardian",
          "type": "address"
        },
        {
          "indexed": false,
          "internalType": "address",
          "name": "newPauseGuardian",
          "type": "address"
        }
      ],
      "name": "NewPauseGuardian",
      "type": "event"
    },
    {
      "anonymous": false,
      "inputs": [
        {
          "indexed": false,
          "internalType": "contract PriceOracle",
          "name": "oldPriceOracle",
          "type": "address"
        },
        {
          "indexed": false,
          "internalType": "contract PriceOracle",
          "name": "newPriceOracle",
          "type": "address"
        }
      ],
      "name": "NewPriceOracle",
      "type": "event"
    },
    {
      "constant": false,
      "inputs": [
        {
          "internalType": "address[]",
          "name": "cTokens",
          "type": "address[]"
        }
      ],
      "name": "_addCompMarkets",
      "outputs": [],
      "payable": false,
      "stateMutability": "nonpayable",
      "type": "function"
    },
    {
      "constant": false,
      "inputs": [
        {
          "internalType": "contract Unitroller",
          "name": "unitroller",
          "type": "address"
        }
      ],
      "name": "_become",
      "outputs": [],
      "payable": false,
      "stateMutability": "nonpayable",
      "type": "function"
    },
    {
      "constant": true,
      "inputs": [],
      "name": "_borrowGuardianPaused",
      "outputs": [
        {
          "internalType": "bool",
          "name": "",
          "type": "bool"
        }
      ],
      "payable": false,
      "stateMutability": "view",
      "type": "function"
    },
    {
      "constant": false,
      "inputs": [
        {
          "internalType": "address",
          "name": "cToken",
          "type": "address"
        }
      ],
      "name": "_dropCompMarket",
      "outputs": [],
      "payable": false,
      "stateMutability": "nonpayable",
      "type": "function"
    },
    {
      "constant": true,
      "inputs": [],
      "name": "_mintGuardianPaused",
      "outputs": [
        {
          "internalType": "bool",
          "name": "",
          "type": "bool"
        }
      ],
      "payable": false,
      "stateMutability": "view",
      "type": "function"
    },
    {
      "constant": false,
      "inputs": [
        {
          "internalType": "contract CToken",
          "name": "cToken",
          "type": "address"
        },
        {
          "internalType": "bool",
          "name": "state",
          "type": "bool"
        }
      ],
      "name": "_setBorrowPaused",
      "outputs": [
        {
          "internalType": "bool",
          "name": "",
          "type": "bool"
        }
      ],
      "payable": false,
      "stateMutability": "nonpayable",
      "type": "function"
    },
    {
      "constant": false,
      "inputs": [
        {
          "internalType": "uint256",
          "name": "newCloseFactorMantissa",
          "type": "uint256"
        }
      ],
      "name": "_setCloseFactor",
      "outputs": [
        {
          "internalType": "uint256",
          "name": "",
          "type": "uint256"
        }
      ],
      "payable": false,
      "stateMutability": "nonpayable",
      "type": "function"
    },
    {
      "constant": false,
      "inputs": [
        {
          "internalType": "contract CToken",
          "name": "cToken",
          "type": "address"
        },
        {
          "internalType": "uint256",
          "name": "newCollateralFactorMantissa",
          "type": "uint256"
        }
      ],
      "name": "_setCollateralFactor",
      "outputs": [
        {
          "internalType": "uint256",
          "name": "",
          "type": "uint256"
        }
      ],
      "payable": false,
      "stateMutability": "nonpayable",
      "type": "function"
    },
    {
      "constant": false,
      "inputs": [
        {
          "internalType": "uint256",
          "name": "compRate_",
          "type": "uint256"
        }
      ],
      "name": "_setCompRate",
      "outputs": [],
      "payable": false,
      "stateMutability": "nonpayable",
      "type": "function"
    },
    {
      "constant": false,
      "inputs": [
        {
          "internalType": "uint256",
          "name": "newLiquidationIncentiveMantissa",
          "type": "uint256"
        }
      ],
      "name": "_setLiquidationIncentive",
      "outputs": [
        {
          "internalType": "uint256",
          "name": "",
          "type": "uint256"
        }
      ],
      "payable": false,
      "stateMutability": "nonpayable",
      "type": "function"
    },
    {
      "constant": false,
      "inputs": [
        {
          "internalType": "uint256",
          "name": "newMaxAssets",
          "type": "uint256"
        }
      ],
      "name": "_setMaxAssets",
      "outputs": [
        {
          "internalType": "uint256",
          "name": "",
          "type": "uint256"
        }
      ],
      "payable": false,
      "stateMutability": "nonpayable",
      "type": "function"
    },
    {
      "constant": false,
      "inputs": [
        {
          "internalType": "contract CToken",
          "name": "cToken",
          "type": "address"
        },
        {
          "internalType": "bool",
          "name": "state",
          "type": "bool"
        }
      ],
      "name": "_setMintPaused",
      "outputs": [
        {
          "internalType": "bool",
          "name": "",
          "type": "bool"
        }
      ],
      "payable": false,
      "stateMutability": "nonpayable",
      "type": "function"
    },
    {
      "constant": false,
      "inputs": [
        {
          "internalType": "address",
          "name": "newPauseGuardian",
          "type": "address"
        }
      ],
      "name": "_setPauseGuardian",
      "outputs": [
        {
          "internalType": "uint256",
          "name": "",
          "type": "uint256"
        }
      ],
      "payable": false,
      "stateMutability": "nonpayable",
      "type": "function"
    },
    {
      "constant": false,
      "inputs": [
        {
          "internalType": "contract PriceOracle",
          "name": "newOracle",
          "type": "address"
        }
      ],
      "name": "_setPriceOracle",
      "outputs": [
        {
          "internalType": "uint256",
          "name": "",
          "type": "uint256"
        }
      ],
      "payable": false,
      "stateMutability": "nonpayable",
      "type": "function"
    },
    {
      "constant": false,
      "inputs": [
        {
          "internalType": "bool",
          "name": "state",
          "type": "bool"
        }
      ],
      "name": "_setSeizePaused",
      "outputs": [
        {
          "internalType": "bool",
          "name": "",
          "type": "bool"
        }
      ],
      "payable": false,
      "stateMutability": "nonpayable",
      "type": "function"
    },
    {
      "constant": false,
      "inputs": [
        {
          "internalType": "bool",
          "name": "state",
          "type": "bool"
        }
      ],
      "name": "_setTransferPaused",
      "outputs": [
        {
          "internalType": "bool",
          "name": "",
          "type": "bool"
        }
      ],
      "payable": false,
      "stateMutability": "nonpayable",
      "type": "function"
    },
    {
      "constant": false,
      "inputs": [
        {
          "internalType": "contract CToken",
          "name": "cToken",
          "type": "address"
        }
      ],
      "name": "_supportMarket",
      "outputs": [
        {
          "internalType": "uint256",
          "name": "",
          "type": "uint256"
        }
      ],
      "payable": false,
      "stateMutability": "nonpayable",
      "type": "function"
    },
    {
      "constant": true,
      "inputs": [
        {
          "internalType": "address",
          "name": "",
          "type": "address"
        },
        {
          "internalType": "uint256",
          "name": "",
          "type": "uint256"
        }
      ],
      "name": "accountAssets",
      "outputs": [
        {
          "internalType": "contract CToken",
          "name": "",
          "type": "address"
        }
      ],
      "payable": false,
      "stateMutability": "view",
      "type": "function"
    },
    {
      "constant": true,
      "inputs": [],
      "name": "admin",
      "outputs": [
        {
          "internalType": "address",
          "name": "",
          "type": "address"
        }
      ],
      "payable": false,
      "stateMutability": "view",
      "type": "function"
    },
    {
      "constant": true,
      "inputs": [
        {
          "internalType": "uint256",
          "name": "",
          "type": "uint256"
        }
      ],
      "name": "allMarkets",
      "outputs": [
        {
          "internalType": "contract CToken",
          "name": "",
          "type": "address"
        }
      ],
      "payable": false,
      "stateMutability": "view",
      "type": "function"
    },
    {
      "constant": false,
      "inputs": [
        {
          "internalType": "address",
          "name": "cToken",
          "type": "address"
        },
        {
          "internalType": "address",
          "name": "borrower",
          "type": "address"
        },
        {
          "internalType": "uint256",
          "name": "borrowAmount",
          "type": "uint256"
        }
      ],
      "name": "borrowAllowed",
      "outputs": [
        {
          "internalType": "uint256",
          "name": "",
          "type": "uint256"
        }
      ],
      "payable": false,
      "stateMutability": "nonpayable",
      "type": "function"
    },
    {
      "constant": true,
      "inputs": [
        {
          "internalType": "address",
          "name": "",
          "type": "address"
        }
      ],
      "name": "borrowGuardianPaused",
      "outputs": [
        {
          "internalType": "bool",
          "name": "",
          "type": "bool"
        }
      ],
      "payable": false,
      "stateMutability": "view",
      "type": "function"
    },
    {
      "constant": false,
      "inputs": [
        {
          "internalType": "address",
          "name": "cToken",
          "type": "address"
        },
        {
          "internalType": "address",
          "name": "borrower",
          "type": "address"
        },
        {
          "internalType": "uint256",
          "name": "borrowAmount",
          "type": "uint256"
        }
      ],
      "name": "borrowVerify",
      "outputs": [],
      "payable": false,
      "stateMutability": "nonpayable",
      "type": "function"
    },
    {
      "constant": true,
      "inputs": [
        {
          "internalType": "address",
          "name": "account",
          "type": "address"
        },
        {
          "internalType": "contract CToken",
          "name": "cToken",
          "type": "address"
        }
      ],
      "name": "checkMembership",
      "outputs": [
        {
          "internalType": "bool",
          "name": "",
          "type": "bool"
        }
      ],
      "payable": false,
      "stateMutability": "view",
      "type": "function"
    },
    {
      "constant": false,
      "inputs": [
        {
          "internalType": "address",
          "name": "holder",
          "type": "address"
        },
        {
          "internalType": "contract CToken[]",
          "name": "cTokens",
          "type": "address[]"
        }
      ],
      "name": "claimComp",
      "outputs": [],
      "payable": false,
      "stateMutability": "nonpayable",
      "type": "function"
    },
    {
      "constant": false,
      "inputs": [
        {
          "internalType": "address[]",
          "name": "holders",
          "type": "address[]"
        },
        {
          "internalType": "contract CToken[]",
          "name": "cTokens",
          "type": "address[]"
        },
        {
          "internalType": "bool",
          "name": "borrowers",
          "type": "bool"
        },
        {
          "internalType": "bool",
          "name": "suppliers",
          "type": "bool"
        }
      ],
      "name": "claimComp",
      "outputs": [],
      "payable": false,
      "stateMutability": "nonpayable",
      "type": "function"
    },
    {
      "constant": false,
      "inputs": [
        {
          "internalType": "address",
          "name": "holder",
          "type": "address"
        }
      ],
      "name": "claimComp",
      "outputs": [],
      "payable": false,
      "stateMutability": "nonpayable",
      "type": "function"
    },
    {
      "constant": true,
      "inputs": [],
      "name": "closeFactorMantissa",
      "outputs": [
        {
          "internalType": "uint256",
          "name": "",
          "type": "uint256"
        }
      ],
      "payable": false,
      "stateMutability": "view",
      "type": "function"
    },
    {
      "constant": true,
      "inputs": [
        {
          "internalType": "address",
          "name": "",
          "type": "address"
        }
      ],
      "name": "compAccrued",
      "outputs": [
        {
          "internalType": "uint256",
          "name": "",
          "type": "uint256"
        }
      ],
      "payable": false,
      "stateMutability": "view",
      "type": "function"
    },
    {
      "constant": true,
      "inputs": [
        {
          "internalType": "address",
          "name": "",
          "type": "address"
        }
      ],
      "name": "compBorrowState",
      "outputs": [
        {
          "internalType": "uint224",
          "name": "index",
          "type": "uint224"
        },
        {
          "internalType": "uint32",
          "name": "block",
          "type": "uint32"
        }
      ],
      "payable": false,
      "stateMutability": "view",
      "type": "function"
    },
    {
      "constant": true,
      "inputs": [
        {
          "internalType": "address",
          "name": "",
          "type": "address"
        },
        {
          "internalType": "address",
          "name": "",
          "type": "address"
        }
      ],
      "name": "compBorrowerIndex",
      "outputs": [
        {
          "internalType": "uint256",
          "name": "",
          "type": "uint256"
        }
      ],
      "payable": false,
      "stateMutability": "view",
      "type": "function"
    },
    {
      "constant": true,
      "inputs": [],
      "name": "compClaimThreshold",
      "outputs": [
        {
          "internalType": "uint256",
          "name": "",
          "type": "uint256"
        }
      ],
      "payable": false,
      "stateMutability": "view",
      "type": "function"
    },
    {
      "constant": true,
      "inputs": [],
      "name": "compInitialIndex",
      "outputs": [
        {
          "internalType": "uint224",
          "name": "",
          "type": "uint224"
        }
      ],
      "payable": false,
      "stateMutability": "view",
      "type": "function"
    },
    {
      "constant": true,
      "inputs": [],
      "name": "compRate",
      "outputs": [
        {
          "internalType": "uint256",
          "name": "",
          "type": "uint256"
        }
      ],
      "payable": false,
      "stateMutability": "view",
      "type": "function"
    },
    {
      "constant": true,
      "inputs": [
        {
          "internalType": "address",
          "name": "",
          "type": "address"
        }
      ],
      "name": "compSpeeds",
      "outputs": [
        {
          "internalType": "uint256",
          "name": "",
          "type": "uint256"
        }
      ],
      "payable": false,
      "stateMutability": "view",
      "type": "function"
    },
    {
      "constant": true,
      "inputs": [
        {
          "internalType": "address",
          "name": "",
          "type": "address"
        },
        {
          "internalType": "address",
          "name": "",
          "type": "address"
        }
      ],
      "name": "compSupplierIndex",
      "outputs": [
        {
          "internalType": "uint256",
          "name": "",
          "type": "uint256"
        }
      ],
      "payable": false,
      "stateMutability": "view",
      "type": "function"
    },
    {
      "constant": true,
      "inputs": [
        {
          "internalType": "address",
          "name": "",
          "type": "address"
        }
      ],
      "name": "compSupplyState",
      "outputs": [
        {
          "internalType": "uint224",
          "name": "index",
          "type": "uint224"
        },
        {
          "internalType": "uint32",
          "name": "block",
          "type": "uint32"
        }
      ],
      "payable": false,
      "stateMutability": "view",
      "type": "function"
    },
    {
      "constant": true,
      "inputs": [],
      "name": "comptrollerImplementation",
      "outputs": [
        {
          "internalType": "address",
          "name": "",
          "type": "address"
        }
      ],
      "payable": false,
      "stateMutability": "view",
      "type": "function"
    },
    {
      "constant": false,
      "inputs": [
        {
          "internalType": "address[]",
          "name": "cTokens",
          "type": "address[]"
        }
      ],
      "name": "enterMarkets",
      "outputs": [
        {
          "internalType": "uint256[]",
          "name": "",
          "type": "uint256[]"
        }
      ],
      "payable": false,
      "stateMutability": "nonpayable",
      "type": "function"
    },
    {
      "constant": false,
      "inputs": [
        {
          "internalType": "address",
          "name": "cTokenAddress",
          "type": "address"
        }
      ],
      "name": "exitMarket",
      "outputs": [
        {
          "internalType": "uint256",
          "name": "",
          "type": "uint256"
        }
      ],
      "payable": false,
      "stateMutability": "nonpayable",
      "type": "function"
    },
    {
      "constant": true,
      "inputs": [
        {
          "internalType": "address",
          "name": "account",
          "type": "address"
        }
      ],
      "name": "getAccountLiquidity",
      "outputs": [
        {
          "internalType": "uint256",
          "name": "",
          "type": "uint256"
        },
        {
          "internalType": "uint256",
          "name": "",
          "type": "uint256"
        },
        {
          "internalType": "uint256",
          "name": "",
          "type": "uint256"
        }
      ],
      "payable": false,
      "stateMutability": "view",
      "type": "function"
    },
    {
      "constant": true,
      "inputs": [],
      "name": "getAllMarkets",
      "outputs": [
        {
          "internalType": "contract CToken[]",
          "name": "",
          "type": "address[]"
        }
      ],
      "payable": false,
      "stateMutability": "view",
      "type": "function"
    },
    {
      "constant": true,
      "inputs": [
        {
          "internalType": "address",
          "name": "account",
          "type": "address"
        }
      ],
      "name": "getAssetsIn",
      "outputs": [
        {
          "internalType": "contract CToken[]",
          "name": "",
          "type": "address[]"
        }
      ],
      "payable": false,
      "stateMutability": "view",
      "type": "function"
    },
    {
      "constant": true,
      "inputs": [],
      "name": "getBlockNumber",
      "outputs": [
        {
          "internalType": "uint256",
          "name": "",
          "type": "uint256"
        }
      ],
      "payable": false,
      "stateMutability": "view",
      "type": "function"
    },
    {
      "constant": true,
      "inputs": [],
      "name": "getCompAddress",
      "outputs": [
        {
          "internalType": "address",
          "name": "",
          "type": "address"
        }
      ],
      "payable": false,
      "stateMutability": "view",
      "type": "function"
    },
    {
      "constant": true,
      "inputs": [
        {
          "internalType": "address",
          "name": "account",
          "type": "address"
        },
        {
          "internalType": "address",
          "name": "cTokenModify",
          "type": "address"
        },
        {
          "internalType": "uint256",
          "name": "redeemTokens",
          "type": "uint256"
        },
        {
          "internalType": "uint256",
          "name": "borrowAmount",
          "type": "uint256"
        }
      ],
      "name": "getHypotheticalAccountLiquidity",
      "outputs": [
        {
          "internalType": "uint256",
          "name": "",
          "type": "uint256"
        },
        {
          "internalType": "uint256",
          "name": "",
          "type": "uint256"
        },
        {
          "internalType": "uint256",
          "name": "",
          "type": "uint256"
        }
      ],
      "payable": false,
      "stateMutability": "view",
      "type": "function"
    },
    {
      "constant": true,
      "inputs": [],
      "name": "isComptroller",
      "outputs": [
        {
          "internalType": "bool",
          "name": "",
          "type": "bool"
        }
      ],
      "payable": false,
      "stateMutability": "view",
      "type": "function"
    },
    {
      "constant": false,
      "inputs": [
        {
          "internalType": "address",
          "name": "cTokenBorrowed",
          "type": "address"
        },
        {
          "internalType": "address",
          "name": "cTokenCollateral",
          "type": "address"
        },
        {
          "internalType": "address",
          "name": "liquidator",
          "type": "address"
        },
        {
          "internalType": "address",
          "name": "borrower",
          "type": "address"
        },
        {
          "internalType": "uint256",
          "name": "repayAmount",
          "type": "uint256"
        }
      ],
      "name": "liquidateBorrowAllowed",
      "outputs": [
        {
          "internalType": "uint256",
          "name": "",
          "type": "uint256"
        }
      ],
      "payable": false,
      "stateMutability": "nonpayable",
      "type": "function"
    },
    {
      "constant": false,
      "inputs": [
        {
          "internalType": "address",
          "name": "cTokenBorrowed",
          "type": "address"
        },
        {
          "internalType": "address",
          "name": "cTokenCollateral",
          "type": "address"
        },
        {
          "internalType": "address",
          "name": "liquidator",
          "type": "address"
        },
        {
          "internalType": "address",
          "name": "borrower",
          "type": "address"
        },
        {
          "internalType": "uint256",
          "name": "actualRepayAmount",
          "type": "uint256"
        },
        {
          "internalType": "uint256",
          "name": "seizeTokens",
          "type": "uint256"
        }
      ],
      "name": "liquidateBorrowVerify",
      "outputs": [],
      "payable": false,
      "stateMutability": "nonpayable",
      "type": "function"
    },
    {
      "constant": true,
      "inputs": [
        {
          "internalType": "address",
          "name": "cTokenBorrowed",
          "type": "address"
        },
        {
          "internalType": "address",
          "name": "cTokenCollateral",
          "type": "address"
        },
        {
          "internalType": "uint256",
          "name": "actualRepayAmount",
          "type": "uint256"
        }
      ],
      "name": "liquidateCalculateSeizeTokens",
      "outputs": [
        {
          "internalType": "uint256",
          "name": "",
          "type": "uint256"
        },
        {
          "internalType": "uint256",
          "name": "",
          "type": "uint256"
        }
      ],
      "payable": false,
      "stateMutability": "view",
      "type": "function"
    },
    {
      "constant": true,
      "inputs": [],
      "name": "liquidationIncentiveMantissa",
      "outputs": [
        {
          "internalType": "uint256",
          "name": "",
          "type": "uint256"
        }
      ],
      "payable": false,
      "stateMutability": "view",
      "type": "function"
    },
    {
      "constant": true,
      "inputs": [
        {
          "internalType": "address",
          "name": "",
          "type": "address"
        }
      ],
      "name": "markets",
      "outputs": [
        {
          "internalType": "bool",
          "name": "isListed",
          "type": "bool"
        },
        {
          "internalType": "uint256",
          "name": "collateralFactorMantissa",
          "type": "uint256"
        },
        {
          "internalType": "bool",
          "name": "isComped",
          "type": "bool"
        }
      ],
      "payable": false,
      "stateMutability": "view",
      "type": "function"
    },
    {
      "constant": true,
      "inputs": [],
      "name": "maxAssets",
      "outputs": [
        {
          "internalType": "uint256",
          "name": "",
          "type": "uint256"
        }
      ],
      "payable": false,
      "stateMutability": "view",
      "type": "function"
    },
    {
      "constant": false,
      "inputs": [
        {
          "internalType": "address",
          "name": "cToken",
          "type": "address"
        },
        {
          "internalType": "address",
          "name": "minter",
          "type": "address"
        },
        {
          "internalType": "uint256",
          "name": "mintAmount",
          "type": "uint256"
        }
      ],
      "name": "mintAllowed",
      "outputs": [
        {
          "internalType": "uint256",
          "name": "",
          "type": "uint256"
        }
      ],
      "payable": false,
      "stateMutability": "nonpayable",
      "type": "function"
    },
    {
      "constant": true,
      "inputs": [
        {
          "internalType": "address",
          "name": "",
          "type": "address"
        }
      ],
      "name": "mintGuardianPaused",
      "outputs": [
        {
          "internalType": "bool",
          "name": "",
          "type": "bool"
        }
      ],
      "payable": false,
      "stateMutability": "view",
      "type": "function"
    },
    {
      "constant": false,
      "inputs": [
        {
          "internalType": "address",
          "name": "cToken",
          "type": "address"
        },
        {
          "internalType": "address",
          "name": "minter",
          "type": "address"
        },
        {
          "internalType": "uint256",
          "name": "actualMintAmount",
          "type": "uint256"
        },
        {
          "internalType": "uint256",
          "name": "mintTokens",
          "type": "uint256"
        }
      ],
      "name": "mintVerify",
      "outputs": [],
      "payable": false,
      "stateMutability": "nonpayable",
      "type": "function"
    },
    {
      "constant": true,
      "inputs": [],
      "name": "oracle",
      "outputs": [
        {
          "internalType": "contract PriceOracle",
          "name": "",
          "type": "address"
        }
      ],
      "payable": false,
      "stateMutability": "view",
      "type": "function"
    },
    {
      "constant": true,
      "inputs": [],
      "name": "pauseGuardian",
      "outputs": [
        {
          "internalType": "address",
          "name": "",
          "type": "address"
        }
      ],
      "payable": false,
      "stateMutability": "view",
      "type": "function"
    },
    {
      "constant": true,
      "inputs": [],
      "name": "pendingAdmin",
      "outputs": [
        {
          "internalType": "address",
          "name": "",
          "type": "address"
        }
      ],
      "payable": false,
      "stateMutability": "view",
      "type": "function"
    },
    {
      "constant": true,
      "inputs": [],
      "name": "pendingComptrollerImplementation",
      "outputs": [
        {
          "internalType": "address",
          "name": "",
          "type": "address"
        }
      ],
      "payable": false,
      "stateMutability": "view",
      "type": "function"
    },
    {
      "constant": false,
      "inputs": [
        {
          "internalType": "address",
          "name": "cToken",
          "type": "address"
        },
        {
          "internalType": "address",
          "name": "redeemer",
          "type": "address"
        },
        {
          "internalType": "uint256",
          "name": "redeemTokens",
          "type": "uint256"
        }
      ],
      "name": "redeemAllowed",
      "outputs": [
        {
          "internalType": "uint256",
          "name": "",
          "type": "uint256"
        }
      ],
      "payable": false,
      "stateMutability": "nonpayable",
      "type": "function"
    },
    {
      "constant": false,
      "inputs": [
        {
          "internalType": "address",
          "name": "cToken",
          "type": "address"
        },
        {
          "internalType": "address",
          "name": "redeemer",
          "type": "address"
        },
        {
          "internalType": "uint256",
          "name": "redeemAmount",
          "type": "uint256"
        },
        {
          "internalType": "uint256",
          "name": "redeemTokens",
          "type": "uint256"
        }
      ],
      "name": "redeemVerify",
      "outputs": [],
      "payable": false,
      "stateMutability": "nonpayable",
      "type": "function"
    },
    {
      "constant": false,
      "inputs": [],
      "name": "refreshCompSpeeds",
      "outputs": [],
      "payable": false,
      "stateMutability": "nonpayable",
      "type": "function"
    },
    {
      "constant": false,
      "inputs": [
        {
          "internalType": "address",
          "name": "cToken",
          "type": "address"
        },
        {
          "internalType": "address",
          "name": "payer",
          "type": "address"
        },
        {
          "internalType": "address",
          "name": "borrower",
          "type": "address"
        },
        {
          "internalType": "uint256",
          "name": "repayAmount",
          "type": "uint256"
        }
      ],
      "name": "repayBorrowAllowed",
      "outputs": [
        {
          "internalType": "uint256",
          "name": "",
          "type": "uint256"
        }
      ],
      "payable": false,
      "stateMutability": "nonpayable",
      "type": "function"
    },
    {
      "constant": false,
      "inputs": [
        {
          "internalType": "address",
          "name": "cToken",
          "type": "address"
        },
        {
          "internalType": "address",
          "name": "payer",
          "type": "address"
        },
        {
          "internalType": "address",
          "name": "borrower",
          "type": "address"
        },
        {
          "internalType": "uint256",
          "name": "actualRepayAmount",
          "type": "uint256"
        },
        {
          "internalType": "uint256",
          "name": "borrowerIndex",
          "type": "uint256"
        }
      ],
      "name": "repayBorrowVerify",
      "outputs": [],
      "payable": false,
      "stateMutability": "nonpayable",
      "type": "function"
    },
    {
      "constant": false,
      "inputs": [
        {
          "internalType": "address",
          "name": "cTokenCollateral",
          "type": "address"
        },
        {
          "internalType": "address",
          "name": "cTokenBorrowed",
          "type": "address"
        },
        {
          "internalType": "address",
          "name": "liquidator",
          "type": "address"
        },
        {
          "internalType": "address",
          "name": "borrower",
          "type": "address"
        },
        {
          "internalType": "uint256",
          "name": "seizeTokens",
          "type": "uint256"
        }
      ],
      "name": "seizeAllowed",
      "outputs": [
        {
          "internalType": "uint256",
          "name": "",
          "type": "uint256"
        }
      ],
      "payable": false,
      "stateMutability": "nonpayable",
      "type": "function"
    },
    {
      "constant": true,
      "inputs": [],
      "name": "seizeGuardianPaused",
      "outputs": [
        {
          "internalType": "bool",
          "name": "",
          "type": "bool"
        }
      ],
      "payable": false,
      "stateMutability": "view",
      "type": "function"
    },
    {
      "constant": false,
      "inputs": [
        {
          "internalType": "address",
          "name": "cTokenCollateral",
          "type": "address"
        },
        {
          "internalType": "address",
          "name": "cTokenBorrowed",
          "type": "address"
        },
        {
          "internalType": "address",
          "name": "liquidator",
          "type": "address"
        },
        {
          "internalType": "address",
          "name": "borrower",
          "type": "address"
        },
        {
          "internalType": "uint256",
          "name": "seizeTokens",
          "type": "uint256"
        }
      ],
      "name": "seizeVerify",
      "outputs": [],
      "payable": false,
      "stateMutability": "nonpayable",
      "type": "function"
    },
    {
      "constant": false,
      "inputs": [
        {
          "internalType": "address",
          "name": "cToken",
          "type": "address"
        },
        {
          "internalType": "address",
          "name": "src",
          "type": "address"
        },
        {
          "internalType": "address",
          "name": "dst",
          "type": "address"
        },
        {
          "internalType": "uint256",
          "name": "transferTokens",
          "type": "uint256"
        }
      ],
      "name": "transferAllowed",
      "outputs": [
        {
          "internalType": "uint256",
          "name": "",
          "type": "uint256"
        }
      ],
      "payable": false,
      "stateMutability": "nonpayable",
      "type": "function"
    },
    {
      "constant": true,
      "inputs": [],
      "name": "transferGuardianPaused",
      "outputs": [
        {
          "internalType": "bool",
          "name": "",
          "type": "bool"
        }
      ],
      "payable": false,
      "stateMutability": "view",
      "type": "function"
    },
    {
      "constant": false,
      "inputs": [
        {
          "internalType": "address",
          "name": "cToken",
          "type": "address"
        },
        {
          "internalType": "address",
          "name": "src",
          "type": "address"
        },
        {
          "internalType": "address",
          "name": "dst",
          "type": "address"
        },
        {
          "internalType": "uint256",
          "name": "transferTokens",
          "type": "uint256"
        }
      ],
      "name": "transferVerify",
      "outputs": [],
      "payable": false,
      "stateMutability": "nonpayable",
      "type": "function"
    }
  ],
  "bytecode": "0x608060405234801561001057600080fd5b50600080546001600160a01b0319163317905561579780620000336000396000f3fe608060405234801561001057600080fd5b506004361061041c5760003560e01c8063731f0c2b1161022b578063bdcdc25811610130578063dce15449116100b8578063e875544611610087578063e8755446146110ca578063e9af0292146110d2578063eabe7d91146110f8578063ede4edd01461112e578063f851a440146111545761041c565b8063dce1544914611062578063dcfbc0c71461108e578063e4028eee14611096578063e6653f3d146110c25761041c565b8063cc7ebdc4116100ff578063cc7ebdc414610f02578063ce485c5e14610f28578063d02f735114610fc9578063d9226ced1461100f578063da3d454c1461102c5761041c565b8063bdcdc25814610da8578063c299823814610de4578063c488847b14610e85578063ca0af04314610ed45761041c565b80639d1b5a0a116101b3578063abfceffc11610182578063abfceffc14610cec578063ac0b0bb714610d62578063b0772d0b14610d6a578063b21be7fd14610d72578063bb82aa5e14610da05761041c565b80639d1b5a0a14610c92578063a76b3fda14610c9a578063a7f0e23114610cc0578063aa90075414610ce45761041c565b80638c57804e116101fa5780638c57804e14610bcf5780638e8f294b14610bf55780638ebf636414610c3d578063929fe9a114610c5c57806394b2294b14610c8a5761041c565b8063731f0c2b14610b91578063747026c914610bb75780637dc0d1d014610bbf57806387f7630314610bc75761041c565b80634ada90af116103315780635ec88c79116102b95780636a491112116102885780636a49111214610a7e5780636a56947e14610a9b5780636b79c38d14610ad75780636d154ea514610b255780636d35bf9114610b4b5761041c565b80635ec88c79146108c05780635f5af1aa146108e65780635fc7e71e1461090c5780636810dfa6146109525761041c565b80634fd42e17116103005780634fd42e17146107ee57806351dff9891461080b57806352d84d1e1461084757806355ee1fe1146108645780635c7786051461088a5761041c565b80634ada90af1461074e5780634d8e5037146107565780634e79238f1461075e5780634ef4c3e1146107b85761041c565b806326782247116103b45780633bcf7ec1116103835780633bcf7ec1146106885780633c94786f146106b657806341c728b9146106be57806342cbb15c146106fa57806347ef3b3b146107025761041c565b8063267822471461061e5780632d70db7814610626578063317b0b77146106455780633aa729b4146106625761041c565b80631d7b33d7116103f05780631d7b33d7146105445780631ededc911461057c57806324008a62146105be57806324a3d622146105fa5761041c565b80627e3dd21461042157806318c882a51461043d5780631c3db2e01461046b5780631d504dc61461051e575b600080fd5b61042961115c565b604080519115158252519081900360200190f35b6104296004803603604081101561045357600080fd5b506001600160a01b0381351690602001351515611161565b61051c6004803603604081101561048157600080fd5b6001600160a01b038235169190810190604081016020820135600160201b8111156104ab57600080fd5b8201836020820111156104bd57600080fd5b803590602001918460208302840111600160201b831117156104de57600080fd5b9190808060200260200160405190810160405280939291908181526020018383602002808284376000920191909152509295506112e6945050505050565b005b61051c6004803603602081101561053457600080fd5b50356001600160a01b0316611348565b61056a6004803603602081101561055a57600080fd5b50356001600160a01b0316611491565b60408051918252519081900360200190f35b61051c600480360360a081101561059257600080fd5b506001600160a01b038135811691602081013582169160408201351690606081013590608001356114a3565b61056a600480360360808110156105d457600080fd5b506001600160a01b038135811691602081013582169160408201351690606001356114aa565b610602611573565b604080516001600160a01b039092168252519081900360200190f35b610602611582565b6104296004803603602081101561063c57600080fd5b50351515611591565b61056a6004803603602081101561065b57600080fd5b50356116b4565b61051c6004803603602081101561067857600080fd5b50356001600160a01b03166117c5565b6104296004803603604081101561069e57600080fd5b506001600160a01b03813516906020013515156118c2565b610429611a42565b61051c600480360360808110156106d457600080fd5b506001600160a01b03813581169160208101359091169060408101359060600135611a52565b61056a611a58565b61051c600480360360c081101561071857600080fd5b506001600160a01b0381358116916020810135821691604082013581169160608101359091169060808101359060a00135611a5d565b61056a611a65565b61051c611a6b565b61079a6004803603608081101561077457600080fd5b506001600160a01b03813581169160208101359091169060408101359060600135611aaf565b60408051938452602084019290925282820152519081900360600190f35b61056a600480360360608110156107ce57600080fd5b506001600160a01b03813581169160208101359091169060400135611ae9565b61056a6004803603602081101561080457600080fd5b5035611b88565b61051c6004803603608081101561082157600080fd5b506001600160a01b03813581169160208101359091169060408101359060600135611c7c565b6106026004803603602081101561085d57600080fd5b5035611cc1565b61056a6004803603602081101561087a57600080fd5b50356001600160a01b0316611ce8565b61051c600480360360608110156108a057600080fd5b506001600160a01b03813581169160208101359091169060400135611d6f565b61079a600480360360208110156108d657600080fd5b50356001600160a01b0316611d74565b61056a600480360360208110156108fc57600080fd5b50356001600160a01b0316611da9565b61056a600480360360a081101561092257600080fd5b506001600160a01b0381358116916020810135821691604082013581169160608101359091169060800135611e2d565b61051c6004803603608081101561096857600080fd5b810190602081018135600160201b81111561098257600080fd5b82018360208201111561099457600080fd5b803590602001918460208302840111600160201b831117156109b557600080fd5b9190808060200260200160405190810160405280939291908181526020018383602002808284376000920191909152509295949360208101935035915050600160201b811115610a0457600080fd5b820183602082011115610a1657600080fd5b803590602001918460208302840111600160201b83111715610a3757600080fd5b919080806020026020016040519081016040528093929190818152602001838360200280828437600092019190915250929550505050803515159150602001351515611fb4565b61051c60048036036020811015610a9457600080fd5b503561215d565b61051c60048036036080811015610ab157600080fd5b506001600160a01b03813581169160208101358216916040820135169060600135611a52565b610afd60048036036020811015610aed57600080fd5b50356001600160a01b03166121e7565b604080516001600160e01b03909316835263ffffffff90911660208301528051918290030190f35b61042960048036036020811015610b3b57600080fd5b50356001600160a01b0316612211565b61051c600480360360a0811015610b6157600080fd5b506001600160a01b03813581169160208101358216916040820135811691606081013590911690608001356114a3565b61042960048036036020811015610ba757600080fd5b50356001600160a01b0316612226565b61056a61223b565b610602612246565b610429612255565b610afd60048036036020811015610be557600080fd5b50356001600160a01b0316612265565b610c1b60048036036020811015610c0b57600080fd5b50356001600160a01b031661228f565b6040805193151584526020840192909252151582820152519081900360600190f35b61042960048036036020811015610c5357600080fd5b503515156122b5565b61042960048036036040811015610c7257600080fd5b506001600160a01b03813581169160200135166123d7565b61056a61240a565b610602612410565b61056a60048036036020811015610cb057600080fd5b50356001600160a01b0316612428565b610cc8612585565b604080516001600160e01b039092168252519081900360200190f35b61056a612598565b610d1260048036036020811015610d0257600080fd5b50356001600160a01b031661259e565b60408051602080825283518183015283519192839290830191858101910280838360005b83811015610d4e578181015183820152602001610d36565b505050509050019250505060405180910390f35b610429612627565b610d12612637565b61056a60048036036040811015610d8857600080fd5b506001600160a01b0381358116916020013516612699565b6106026126b6565b61056a60048036036080811015610dbe57600080fd5b506001600160a01b038135811691602081013582169160408201351690606001356126c5565b610d1260048036036020811015610dfa57600080fd5b810190602081018135600160201b811115610e1457600080fd5b820183602082011115610e2657600080fd5b803590602001918460208302840111600160201b83111715610e4757600080fd5b919080806020026020016040519081016040528093929190818152602001838360200280828437600092019190915250929550612749945050505050565b610ebb60048036036060811015610e9b57600080fd5b506001600160a01b038135811691602081013590911690604001356127e0565b6040805192835260208301919091528051918290030190f35b61056a60048036036040811015610eea57600080fd5b506001600160a01b0381358116916020013516612a55565b61056a60048036036020811015610f1857600080fd5b50356001600160a01b0316612a72565b61051c60048036036020811015610f3e57600080fd5b810190602081018135600160201b811115610f5857600080fd5b820183602082011115610f6a57600080fd5b803590602001918460208302840111600160201b83111715610f8b57600080fd5b919080806020026020016040519081016040528093929190818152602001838360200280828437600092019190915250929550612a84945050505050565b61056a600480360360a0811015610fdf57600080fd5b506001600160a01b0381358116916020810135821691604082013581169160608101359091169060800135612afc565b61056a6004803603602081101561102557600080fd5b5035612ca7565b61056a6004803603606081101561104257600080fd5b506001600160a01b03813581169160208101359091169060400135612d10565b6106026004803603604081101561107857600080fd5b506001600160a01b038135169060200135612fdc565b610602613011565b61056a600480360360408110156110ac57600080fd5b506001600160a01b038135169060200135613020565b6104296131d0565b61056a6131e0565b61051c600480360360208110156110e857600080fd5b50356001600160a01b03166131e6565b61056a6004803603606081101561110e57600080fd5b506001600160a01b0381358116916020810135909116906040013561324a565b61056a6004803603602081101561114457600080fd5b50356001600160a01b0316613287565b610602613595565b600181565b6001600160a01b03821660009081526009602052604081205460ff166111b4576040805162461bcd60e51b815260206004820152600360248201526210cc4d60ea1b604482015290519081900360640190fd5b600a546001600160a01b03163314806111d757506000546001600160a01b031633145b61120e576040805162461bcd60e51b815260206004820152600360248201526243313560e81b604482015290519081900360640190fd5b6000546001600160a01b031633148061122957506001821515145b611260576040805162461bcd60e51b815260206004820152600360248201526221989b60e91b604482015290519081900360640190fd5b6001600160a01b0383166000818152600c6020908152604091829020805486151560ff199091168117909155825193845283830152606090830181905260069083015265426f72726f7760d01b6080830152517f71aec636243f9709bb0007ae15e9afb8150ab01716d75fd7573be5cc096e03b09181900360a00190a150805b92915050565b60408051600180825281830190925260609160208083019080388339019050509050828160008151811061131657fe5b60200260200101906001600160a01b031690816001600160a01b0316815250506113438183600180611fb4565b505050565b806001600160a01b031663f851a4406040518163ffffffff1660e01b815260040160206040518083038186803b15801561138157600080fd5b505afa158015611395573d6000803e3d6000fd5b505050506040513d60208110156113ab57600080fd5b50516001600160a01b031633146113ef576040805162461bcd60e51b815260206004820152600360248201526243313760e81b604482015290519081900360640190fd5b806001600160a01b031663c1e803346040518163ffffffff1660e01b8152600401602060405180830381600087803b15801561142a57600080fd5b505af115801561143e573d6000803e3d6000fd5b505050506040513d602081101561145457600080fd5b50511561148e576040805162461bcd60e51b815260206004820152600360248201526208662760eb1b604482015290519081900360640190fd5b50565b600f6020526000908152604090205481565b5050505050565b6001600160a01b03841660009081526009602052604081205460ff166114d25750600961156b565b6114da6156a3565b6040518060200160405280876001600160a01b031663aa5af0fd6040518163ffffffff1660e01b815260040160206040518083038186803b15801561151e57600080fd5b505afa158015611532573d6000803e3d6000fd5b505050506040513d602081101561154857600080fd5b50519052905061155886826135a4565b6115658685836000613802565b60009150505b949350505050565b600a546001600160a01b031681565b6001546001600160a01b031681565b600a546000906001600160a01b03163314806115b757506000546001600160a01b031633145b6115ee576040805162461bcd60e51b815260206004820152600360248201526243313560e81b604482015290519081900360640190fd5b6000546001600160a01b031633148061160957506001821515145b611640576040805162461bcd60e51b815260206004820152600360248201526221989b60e91b604482015290519081900360640190fd5b600a8054831515600160b81b810260ff60b81b1990921691909117909155604080516020810192909252808252600582820152645365697a6560d81b6060830152517fef159d9a32b2472e32b098f954f3ce62d232939f1c207070b584df1814de2de09181900360800190a150805b919050565b600080546001600160a01b031633146116da576116d3600160046139ed565b90506116af565b6116e26156a3565b5060408051602081019091528281526116f96156a3565b50604080516020810190915266b1a2bc2ec5000081526117198282613a53565b15611732576117296005806139ed565b925050506116af565b61173a6156a3565b506040805160208101909152670c7d713b49da0000815261175b8184613a5b565b156117755761176b6005806139ed565b93505050506116af565b6005805490869055604080518281526020810188905281517f3b9670cf975d26958e754b57098eaa2ac914d8d2a31b83257997b9f346110fd9929181900390910190a160005b9695505050505050565b6000546001600160a01b0316331461180a576040805162461bcd60e51b815260206004820152600360248201526210cc8d60ea1b604482015290519081900360640190fd5b6001600160a01b0381166000908152600960205260409020600381015460ff161515600114611866576040805162461bcd60e51b815260206004820152600360248201526243323560e81b604482015290519081900360640190fd5b60038101805460ff19169055604080516001600160a01b03841681526000602082015281517f93c1f3e36ed71139f466a4ce8c9751790e2e33f5afb2df0dcfb3aeabe55d5aa2929181900390910190a16118be613a62565b5050565b6001600160a01b03821660009081526009602052604081205460ff16611915576040805162461bcd60e51b815260206004820152600360248201526210cc4d60ea1b604482015290519081900360640190fd5b600a546001600160a01b031633148061193857506000546001600160a01b031633145b61196f576040805162461bcd60e51b815260206004820152600360248201526243313560e81b604482015290519081900360640190fd5b6000546001600160a01b031633148061198a57506001821515145b6119c1576040805162461bcd60e51b815260206004820152600360248201526221989b60e91b604482015290519081900360640190fd5b6001600160a01b0383166000818152600b6020908152604091829020805486151560ff199091168117909155825193845283830152606090830181905260049083015263135a5b9d60e21b6080830152517f71aec636243f9709bb0007ae15e9afb8150ab01716d75fd7573be5cc096e03b09181900360a00190a150919050565b600a54600160a01b900460ff1681565b50505050565b435b90565b505050505050565b60065481565b333214611aa5576040805162461bcd60e51b815260206004820152600360248201526243313960e81b604482015290519081900360640190fd5b611aad613a62565b565b600080600080600080611ac48a8a8a8a613e27565b925092509250826011811115611ad657fe5b95509093509150505b9450945094915050565b6001600160a01b0383166000908152600b602052604081205460ff1615611b3c576040805162461bcd60e51b8152602060048201526002602482015261219960f11b604482015290519081900360640190fd5b6001600160a01b03841660009081526009602052604090205460ff16611b665760095b9050611b81565b611b6f84614242565b611b7b84846000614496565b60005b90505b9392505050565b600080546001600160a01b03163314611ba7576116d36001600b6139ed565b611baf6156a3565b506040805160208101909152828152611bc66156a3565b506040805160208101909152670de0b6b3a76400008152611be78282613a5b565b15611bf8576117296007600c6139ed565b611c006156a3565b5060408051602081019091526714d1120d7b1600008152611c218184613a5b565b15611c325761176b6007600c6139ed565b6006805490869055604080518281526020810188905281517faeba5a6c40a8ac138134bff1aaa65debf25971188a58804bad717f82f0ec1316929181900390910190a160006117bb565b80158015611c8a5750600082115b15611a52576040805162461bcd60e51b8152602060048201526002602482015261433360f01b604482015290519081900360640190fd5b600d8181548110611cce57fe5b6000918252602090912001546001600160a01b0316905081565b600080546001600160a01b03163314611d07576116d3600160106139ed565b600480546001600160a01b038481166001600160a01b0319831681179093556040805191909216808252602082019390935281517fd52b2b9b7e9ee655fcb95d2e5b9e0c9f69e7ef2b8e9d2d0ea78402d576d22e22929181900390910190a160009392505050565b611343565b600080600080600080611d8b876000806000613e27565b925092509250826011811115611d9d57fe5b97919650945092505050565b600080546001600160a01b03163314611dc8576116d3600160136139ed565b600a80546001600160a01b038481166001600160a01b0319831617928390556040805192821680845293909116602083015280517f0613b6ee6a04f0d09f390e4d9318894b9f6ac7fd83897cd8d18896ba579c401e9281900390910190a16000611b81565b6001600160a01b03851660009081526009602052604081205460ff161580611e6e57506001600160a01b03851660009081526009602052604090205460ff16155b15611e7d5760095b9050611fab565b600080611e898561468e565b91935090915060009050826011811115611e9f57fe5b14611eb957816011811115611eb057fe5b92505050611fab565b80611ec5576003611eb0565b6000886001600160a01b03166395dd9193876040518263ffffffff1660e01b815260040180826001600160a01b03166001600160a01b0316815260200191505060206040518083038186803b158015611f1d57600080fd5b505afa158015611f31573d6000803e3d6000fd5b505050506040513d6020811015611f4757600080fd5b5051604080516020810190915260055481529091506000908190611f6b90846146ae565b90925090506000826003811115611f7e57fe5b14611f9257600b5b95505050505050611fab565b80871115611fa1576011611f86565b6000955050505050505b95945050505050565b60005b83518110156114a3576000848281518110611fce57fe5b6020908102919091018101516001600160a01b0381166000908152600990925260409091205490915060ff16612043576040805162461bcd60e51b81526020600482015260156024820152741b585c9ad95d081b5d5cdd081899481b1a5cdd1959605a1b604482015290519081900360640190fd5b6001841515141561210b576120566156a3565b6040518060200160405280836001600160a01b031663aa5af0fd6040518163ffffffff1660e01b815260040160206040518083038186803b15801561209a57600080fd5b505afa1580156120ae573d6000803e3d6000fd5b505050506040513d60208110156120c457600080fd5b5051905290506120d482826135a4565b60005b875181101561210857612100838983815181106120f057fe5b6020026020010151846001613802565b6001016120d7565b50505b600183151514156121545761211f81614242565b60005b86518110156121525761214a8288838151811061213b57fe5b60200260200101516001614496565b600101612122565b505b50600101611fb7565b612165614702565b61219c576040805162461bcd60e51b815260206004820152600360248201526221991960e91b604482015290519081900360640190fd5b600e805490829055604080518281526020810184905281517fc227c9272633c3a307d9845bf2bc2509cefb20d655b5f3c1002d8e1e3f22c8b0929181900390910190a16118be613a62565b6010602052600090815260409020546001600160e01b03811690600160e01b900463ffffffff1682565b600c6020526000908152604090205460ff1681565b600b6020526000908152604090205460ff1681565b66038d7ea4c6800081565b6004546001600160a01b031681565b600a54600160b01b900460ff1681565b6011602052600090815260409020546001600160e01b03811690600160e01b900463ffffffff1682565b60096020526000908152604090208054600182015460039092015460ff91821692911683565b600a546000906001600160a01b03163314806122db57506000546001600160a01b031633145b612312576040805162461bcd60e51b815260206004820152600360248201526243313560e81b604482015290519081900360640190fd5b6000546001600160a01b031633148061232d57506001821515145b612364576040805162461bcd60e51b815260206004820152600360248201526221989b60e91b604482015290519081900360640190fd5b600a8054831515600160b01b810260ff60b01b1990921691909117909155604080516020810192909252808252600882820152672a3930b739b332b960c11b6060830152517fef159d9a32b2472e32b098f954f3ce62d232939f1c207070b584df1814de2de09181900360800190a15090565b6001600160a01b038082166000908152600960209081526040808320938616835260029093019052205460ff1692915050565b60075481565b73c00e94cb662c3520282e6f5717214004a7f2688890565b600080546001600160a01b03163314612447576116d3600160126139ed565b6001600160a01b03821660009081526009602052604090205460ff1615612474576116d3600a60116139ed565b816001600160a01b031663fe9c44ae6040518163ffffffff1660e01b815260040160206040518083038186803b1580156124ad57600080fd5b505afa1580156124c1573d6000803e3d6000fd5b505050506040513d60208110156124d757600080fd5b5050604080516060810182526001808252600060208381018281528486018381526001600160a01b03891684526009909252949091209251835490151560ff199182161784559351918301919091555160039091018054911515919092161790556125418261472b565b604080516001600160a01b038416815290517fcf583bb0c569eb967f806b11601c4cb93c10310485c67add5f8362c2f212321f9181900360200190a1600092915050565b6ec097ce7bc90715b34b9f100000000081565b600e5481565b60608060086000846001600160a01b03166001600160a01b0316815260200190815260200160002080548060200260200160405190810160405280929190818152602001828054801561261a57602002820191906000526020600020905b81546001600160a01b031681526001909101906020018083116125fc575b5093979650505050505050565b600a54600160b81b900460ff1681565b6060600d80548060200260200160405190810160405280929190818152602001828054801561268f57602002820191906000526020600020905b81546001600160a01b03168152600190910190602001808311612671575b5050505050905090565b601260209081526000928352604080842090915290825290205481565b6002546001600160a01b031681565b600a54600090600160b01b900460ff161561270c576040805162461bcd60e51b8152602060048201526002602482015261433960f01b604482015290519081900360640190fd5b60006127198686856147f8565b9050801561272857905061156b565b61273186614242565b61273d86866000614496565b61156586856000614496565b606060008251905060608160405190808252806020026020018201604052801561277d578160200160208202803883390190505b50905060005b828110156127d857600085828151811061279957fe5b602002602001015190506127ad813361489b565b60118111156127b857fe5b8383815181106127c457fe5b602090810291909101015250600101612783565b509392505050565b600480546040805163fc57d4df60e01b81526001600160a01b038781169482019490945290516000938493849391169163fc57d4df91602480820192602092909190829003018186803b15801561283657600080fd5b505afa15801561284a573d6000803e3d6000fd5b505050506040513d602081101561286057600080fd5b5051600480546040805163fc57d4df60e01b81526001600160a01b038a8116948201949094529051939450600093929091169163fc57d4df91602480820192602092909190829003018186803b1580156128b957600080fd5b505afa1580156128cd573d6000803e3d6000fd5b505050506040513d60208110156128e357600080fd5b505190508115806128f2575080155b1561290757600d935060009250612a4d915050565b6000866001600160a01b031663182df0f56040518163ffffffff1660e01b815260040160206040518083038186803b15801561294257600080fd5b505afa158015612956573d6000803e3d6000fd5b505050506040513d602081101561296c57600080fd5b50519050600061297a6156a3565b6129826156a3565b61298a6156a3565b6000612998600654896149bc565b9450905060008160038111156129aa57fe5b146129c657600b5b995060009850612a4d975050505050505050565b6129d087876149bc565b9350905060008160038111156129e257fe5b146129ee57600b6129b2565b6129f884846149f7565b925090506000816003811115612a0a57fe5b14612a1657600b6129b2565b612a20828c6146ae565b955090506000816003811115612a3257fe5b14612a3e57600b6129b2565b60009950939750505050505050505b935093915050565b601360209081526000928352604080842090915290825290205481565b60146020526000908152604090205481565b612a8c614702565b612ac3576040805162461bcd60e51b815260206004820152600360248201526243323360e81b604482015290519081900360640190fd5b60005b8151811015612af357612aeb828281518110612ade57fe5b6020026020010151614a0f565b600101612ac6565b5061148e613a62565b600a54600090600160b81b900460ff1615612b43576040805162461bcd60e51b8152602060048201526002602482015261086760f31b604482015290519081900360640190fd5b6001600160a01b03861660009081526009602052604090205460ff161580612b8457506001600160a01b03851660009081526009602052604090205460ff16155b15612b90576009611e76565b846001600160a01b0316635fe3b5676040518163ffffffff1660e01b815260040160206040518083038186803b158015612bc957600080fd5b505afa158015612bdd573d6000803e3d6000fd5b505050506040513d6020811015612bf357600080fd5b505160408051635fe3b56760e01b815290516001600160a01b0392831692891691635fe3b567916004808301926020929190829003018186803b158015612c3957600080fd5b505afa158015612c4d573d6000803e3d6000fd5b505050506040513d6020811015612c6357600080fd5b50516001600160a01b031614612c7a576002611e76565b612c8386614242565b612c8f86846000614496565b612c9b86856000614496565b60009695505050505050565b600080546001600160a01b03163314612cc6576116d36001600d6139ed565b6007805490839055604080518281526020810185905281517f7093cf1eb653f749c3ff531d6df7f92764536a7fa0d13530cd26e070780c32ea929181900390910190a16000611b81565b6001600160a01b0383166000908152600c602052604081205460ff1615612d63576040805162461bcd60e51b815260206004820152600260248201526110cd60f21b604482015290519081900360640190fd5b6001600160a01b03841660009081526009602052604090205460ff16612d8a576009611b5f565b6001600160a01b038085166000908152600960209081526040808320938716835260029093019052205460ff16612e6757336001600160a01b03851614612dfd576040805162461bcd60e51b8152602060048201526002602482015261433560f01b604482015290519081900360640190fd5b6000612e09338561489b565b90506000816011811115612e1957fe5b14612e3257806011811115612e2a57fe5b915050611b81565b6001600160a01b038086166000908152600960209081526040808320938816835260029093019052205460ff16612e6557fe5b505b600480546040805163fc57d4df60e01b81526001600160a01b03888116948201949094529051929091169163fc57d4df91602480820192602092909190829003018186803b158015612eb857600080fd5b505afa158015612ecc573d6000803e3d6000fd5b505050506040513d6020811015612ee257600080fd5b5051612eef57600d611b5f565b600080612eff8587600087613e27565b91935090915060009050826011811115612f1557fe5b14612f2f57816011811115612f2657fe5b92505050611b81565b8015612f3c576004612f26565b612f446156a3565b6040518060200160405280886001600160a01b031663aa5af0fd6040518163ffffffff1660e01b815260040160206040518083038186803b158015612f8857600080fd5b505afa158015612f9c573d6000803e3d6000fd5b505050506040513d6020811015612fb257600080fd5b505190529050612fc287826135a4565b612fcf8787836000613802565b6000979650505050505050565b60086020528160005260406000208181548110612ff557fe5b6000918252602090912001546001600160a01b03169150829050565b6003546001600160a01b031681565b600080546001600160a01b031633146130465761303f600160066139ed565b90506112e0565b6001600160a01b0383166000908152600960205260409020805460ff1661307b57613073600960076139ed565b9150506112e0565b6130836156a3565b50604080516020810190915283815261309a6156a3565b506040805160208101909152670c7d713b49da000081526130bb8183613a5b565b156130d6576130cc600660086139ed565b93505050506112e0565b841580159061315f5750600480546040805163fc57d4df60e01b81526001600160a01b038a8116948201949094529051929091169163fc57d4df91602480820192602092909190829003018186803b15801561313157600080fd5b505afa158015613145573d6000803e3d6000fd5b505050506040513d602081101561315b57600080fd5b5051155b15613170576130cc600d60096139ed565b60018301805490869055604080516001600160a01b03891681526020810183905280820188905290517f70483e6592cd5182d45ac970e05bc62cdcc90e9d8ef2c2dbe686cf383bcd7fc59181900360600190a16000979650505050505050565b600a54600160a81b900460ff1681565b60055481565b61148e81600d80548060200260200160405190810160405280929190818152602001828054801561324057602002820191906000526020600020905b81546001600160a01b03168152600190910190602001808311613222575b50505050506112e6565b6000806132588585856147f8565b90508015613267579050611b81565b61327085614242565b61327c85856000614496565b600095945050505050565b6000808290506000806000836001600160a01b031663c37f68e2336040518263ffffffff1660e01b815260040180826001600160a01b03166001600160a01b0316815260200191505060806040518083038186803b1580156132e857600080fd5b505afa1580156132fc573d6000803e3d6000fd5b505050506040513d608081101561331257600080fd5b508051602082015160409092015190945090925090508215613360576040805162461bcd60e51b8152602060048201526002602482015261433160f01b604482015290519081900360640190fd5b801561337d57613372600c60026139ed565b9450505050506116af565b600061338a8733856147f8565b905080156133ab5761339f600e600383614d0d565b955050505050506116af565b6001600160a01b0385166000908152600960209081526040808320338452600281019092529091205460ff166133ea57600096505050505050506116af565b3360009081526002820160209081526040808320805460ff19169055600882529182902080548351818402810184019094528084526060939283018282801561345c57602002820191906000526020600020905b81546001600160a01b0316815260019091019060200180831161343e575b5050835193945083925060009150505b828110156134b157896001600160a01b031684828151811061348a57fe5b60200260200101516001600160a01b031614156134a9578091506134b1565b60010161346c565b508181106134bb57fe5b3360009081526008602052604090208054819060001981019081106134dc57fe5b9060005260206000200160009054906101000a90046001600160a01b031681838154811061350657fe5b600091825260209091200180546001600160a01b0319166001600160a01b0392909216919091179055805461353f8260001983016156b6565b50604080516001600160a01b038c16815233602082015281517fe699a64c18b07ac5b7301aa273f36a2287239eb9501d81950672794afba29a0d929181900390910190a160009c9b505050505050505050505050565b6000546001600160a01b031681565b6001600160a01b0382166000908152601160209081526040808320600f90925282205490916135d1611a58565b83549091506000906135f1908390600160e01b900463ffffffff16614d73565b90506000811180156136035750600083115b156137b0576000613678876001600160a01b03166347bd37186040518163ffffffff1660e01b815260040160206040518083038186803b15801561364657600080fd5b505afa15801561365a573d6000803e3d6000fd5b505050506040513d602081101561367057600080fd5b505187614dad565b905060006136868386614dcb565b90506136906156a3565b600083116136ad57604051806020016040528060008152506136b7565b6136b78284614e0d565b90506136c16156a3565b604080516020810190915288546001600160e01b031681526136e39083614e4b565b9050604051806040016040528061371983600001516040518060400160405280600381526020016204332360ec1b815250614e70565b6001600160e01b0316815260200161374c886040518060400160405280600381526020016243323160e81b815250614f0a565b63ffffffff9081169091526001600160a01b038c166000908152601160209081526040909120835181549490920151909216600160e01b026001600160e01b039182166001600160e01b0319909416939093171691909117905550611a5d92505050565b8015611a5d576137db826040518060400160405280600381526020016243323160e81b815250614f0a565b845463ffffffff91909116600160e01b026001600160e01b03909116178455505050505050565b6001600160a01b03841660009081526011602052604090206138226156a3565b50604080516020810190915281546001600160e01b031681526138436156a3565b5060408051602080820183526001600160a01b03808a16600090815260138352848120918a16808252828452948120805485528651959091529152919091558051156139e4576138916156a3565b61389b8383614f5f565b9050600061392a896001600160a01b03166395dd91938a6040518263ffffffff1660e01b815260040180826001600160a01b03166001600160a01b0316815260200191505060206040518083038186803b1580156138f857600080fd5b505afa15801561390c573d6000803e3d6000fd5b505050506040513d602081101561392257600080fd5b505188614dad565b905060006139388284614f84565b6001600160a01b038a166000908152601460205260408120549192509061395f9083614fb3565b90506139808a828a6139785766038d7ea4c6800061397b565b60005b614fe9565b6001600160a01b03808c1660008181526014602090815260409182902094909455895181518781529485015280519193928f16927f1fc3ecc087d8d2d15e23d0032af5a47059c3892d003d8e139fdcb6bb327c99a6929081900390910190a3505050505b50505050505050565b60007f45b96fe442630264581b197e84bbada861235052c5a1aadfff9ea4e40a969aa0836011811115613a1c57fe5b836013811115613a2857fe5b604080519283526020830191909152600082820152519081900360600190a1826011811115611b8157fe5b519051111590565b5190511090565b6060600d805480602002602001604051908101604052809291908181526020018280548015613aba57602002820191906000526020600020905b81546001600160a01b03168152600190910190602001808311613a9c575b50939450600093505050505b8151811015613b80576000828281518110613add57fe5b60200260200101519050613aef6156a3565b6040518060200160405280836001600160a01b031663aa5af0fd6040518163ffffffff1660e01b815260040160206040518083038186803b158015613b3357600080fd5b505afa158015613b47573d6000803e3d6000fd5b505050506040513d6020811015613b5d57600080fd5b505190529050613b6c82614242565b613b7682826135a4565b5050600101613ac6565b50613b896156a3565b60405180602001604052806000815250905060608251604051908082528060200260200182016040528015613bd857816020015b613bc56156a3565b815260200190600190039081613bbd5790505b50905060005b8351811015613d5e576000848281518110613bf557fe5b6020908102919091018101516001600160a01b0381166000908152600990925260409091206003015490915060ff1615613d5557613c316156a3565b60408051602080820180845260045463fc57d4df60e01b9091526001600160a01b03868116602485015293519293849391169163fc57d4df916044808601929190818703018186803b158015613c8657600080fd5b505afa158015613c9a573d6000803e3d6000fd5b505050506040513d6020811015613cb057600080fd5b505190529050613cbe6156a3565b613d2c82846001600160a01b03166347bd37186040518163ffffffff1660e01b815260040160206040518083038186803b158015613cfb57600080fd5b505afa158015613d0f573d6000803e3d6000fd5b505050506040513d6020811015613d2557600080fd5b505161512e565b905080858581518110613d3b57fe5b6020026020010181905250613d508682614e4b565b955050505b50600101613bde565b5060005b8351811015611a52576000600d8281548110613d7a57fe5b600091825260208220015485516001600160a01b039091169250613d9f576000613dc7565b613dc7600e54613dc2868681518110613db457fe5b60200260200101518861514f565b615182565b6001600160a01b0383166000818152600f60209081526040918290208490558151848152915193945091927f2ab93f65628379309f36cb125e90d7c902454a545c4f8b8cb0794af75c24b807929181900390910190a25050600101613d62565b6000806000613e346156da565b6001600160a01b038816600090815260086020908152604080832080548251818502810185019093528083528493606093929190830182828015613ea157602002820191906000526020600020905b81546001600160a01b03168152600190910190602001808311613e83575b50939450600093505050505b81518110156141fd576000828281518110613ec457fe5b60200260200101519050806001600160a01b031663c37f68e28e6040518263ffffffff1660e01b815260040180826001600160a01b03166001600160a01b0316815260200191505060806040518083038186803b158015613f2457600080fd5b505afa158015613f38573d6000803e3d6000fd5b505050506040513d6080811015613f4e57600080fd5b508051602082015160408084015160609485015160808c0152938a01939093529188019190915294508415613f945750600f975060009650869550611adf945050505050565b60408051602080820183526001600160a01b0380851660008181526009845285902060010154845260c08b01939093528351808301855260808b0151815260e08b015260048054855163fc57d4df60e01b815291820194909452935192169263fc57d4df9260248083019392829003018186803b15801561401457600080fd5b505afa158015614028573d6000803e3d6000fd5b505050506040513d602081101561403e57600080fd5b505160a087018190526140625750600d975060009650869550611adf945050505050565b604080516020810190915260a08701518152610100870181905260c087015160e088015161408f9261519b565b610120880152935060008460038111156140a557fe5b146140c15750600b975060009650869550611adf945050505050565b6140d9866101200151876040015188600001516151f3565b8752935060008460038111156140eb57fe5b146141075750600b975060009650869550611adf945050505050565b61411f866101000151876060015188602001516151f3565b60208801529350600084600381111561413457fe5b146141505750600b975060009650869550611adf945050505050565b8b6001600160a01b0316816001600160a01b031614156141f45761417e8661012001518c88602001516151f3565b60208801529350600084600381111561419357fe5b146141af5750600b975060009650869550611adf945050505050565b6141c38661010001518b88602001516151f3565b6020880152935060008460038111156141d857fe5b146141f45750600b975060009650869550611adf945050505050565b50600101613ead565b50602084015184511115614224575050506020810151905160009450039150829050611adf565b5050815160209092015160009550859450919091039150611adf9050565b6001600160a01b0381166000908152601060209081526040808320600f909252822054909161426f611a58565b835490915060009061428f908390600160e01b900463ffffffff16614d73565b90506000811180156142a15750600083115b15614445576000856001600160a01b03166318160ddd6040518163ffffffff1660e01b815260040160206040518083038186803b1580156142e157600080fd5b505afa1580156142f5573d6000803e3d6000fd5b505050506040513d602081101561430b57600080fd5b50519050600061431b8386614dcb565b90506143256156a3565b60008311614342576040518060200160405280600081525061434c565b61434c8284614e0d565b90506143566156a3565b604080516020810190915288546001600160e01b031681526143789083614e4b565b905060405180604001604052806143ae83600001516040518060400160405280600381526020016204332360ec1b815250614e70565b6001600160e01b031681526020016143e1886040518060400160405280600381526020016243323160e81b815250614f0a565b63ffffffff9081169091526001600160a01b038b166000908152601060209081526040909120835181549490920151909216600160e01b026001600160e01b039182166001600160e01b03199094169390931716919091179055506114a392505050565b80156114a357614470826040518060400160405280600381526020016243323160e81b815250614f0a565b845463ffffffff91909116600160e01b026001600160e01b039091161784555050505050565b6001600160a01b03831660009081526010602052604090206144b66156a3565b50604080516020810190915281546001600160e01b031681526144d76156a3565b5060408051602080820183526001600160a01b038089166000908152601283528481209189168082528284529481208054855286519590915291529190915580511580156145255750815115155b1561453d576ec097ce7bc90715b34b9f100000000081525b6145456156a3565b61454f8383614f5f565b90506000876001600160a01b03166370a08231886040518263ffffffff1660e01b815260040180826001600160a01b03166001600160a01b0316815260200191505060206040518083038186803b1580156145a957600080fd5b505afa1580156145bd573d6000803e3d6000fd5b505050506040513d60208110156145d357600080fd5b5051905060006145e38284614f84565b6001600160a01b0389166000908152601460205260408120549192509061460a9083614fb3565b905061462389828a6139785766038d7ea4c6800061397b565b6001600160a01b03808b1660008181526014602090815260409182902094909455895181518781529485015280519193928e16927f2caecd17d02f56fa897705dcc740da2d237c373f70686f4e0d9bd3bf0400ea7a929081900390910190a350505050505050505050565b60008060006146a1846000806000613e27565b9250925092509193909250565b60008060006146bb6156a3565b6146c58686615240565b909250905060008260038111156146d857fe5b146146e957509150600090506146fb565b60006146f4826152a8565b9350935050505b9250929050565b600080546001600160a01b031633148061472657506002546001600160a01b031633145b905090565b60005b600d548110156147a557816001600160a01b0316600d828154811061474f57fe5b6000918252602090912001546001600160a01b0316141561479d576040805162461bcd60e51b815260206004820152600360248201526204331360ec1b604482015290519081900360640190fd5b60010161472e565b50600d80546001810182556000919091527fd7b6990105719101dabeb77144f2a3385c8033acd3af97e9423a695e81ad1eb50180546001600160a01b0319166001600160a01b0392909216919091179055565b6001600160a01b03831660009081526009602052604081205460ff1661481f576009611b5f565b6001600160a01b038085166000908152600960209081526040808320938716835260029093019052205460ff16614857576000611b5f565b6000806148678587866000613e27565b9193509091506000905082601181111561487d57fe5b1461488e57816011811115612f2657fe5b8015612c9b576004612f26565b6001600160a01b0382166000908152600960205260408120805460ff166148c65760099150506112e0565b6001600160a01b038316600090815260028201602052604090205460ff161515600114156148f85760009150506112e0565b6007546001600160a01b038416600090815260086020526040902054106149235760109150506112e0565b6001600160a01b0380841660008181526002840160209081526040808320805460ff19166001908117909155600883528184208054918201815584529282902090920180549489166001600160a01b031990951685179055815193845283019190915280517f3ab23ab0d51cccc0c3085aec51f99228625aa1a922b3a8ca89a26b0f2027a1a59281900390910190a15060009392505050565b60006149c66156a3565b6149ec6040518060200160405280868152506040518060200160405280868152506152b7565b915091509250929050565b6000614a016156a3565b835183516149ec91906153a0565b6001600160a01b0381166000908152600960205260409020805460ff161515600114614a82576040805162461bcd60e51b815260206004820152601960248201527f636f6d70206d61726b6574206973206e6f74206c697374656400000000000000604482015290519081900360640190fd5b600381015460ff1615614ac7576040805162461bcd60e51b81526020600482015260086024820152670636f6d70204331360c41b604482015290519081900360640190fd5b60038101805460ff19166001908117909155604080516001600160a01b0385168152602081019290925280517f93c1f3e36ed71139f466a4ce8c9751790e2e33f5afb2df0dcfb3aeabe55d5aa29281900390910190a16001600160a01b0382166000908152601060205260409020546001600160e01b0316158015614b6f57506001600160a01b038216600090815260106020526040902054600160e01b900463ffffffff16155b15614c245760405180604001604052806ec097ce7bc90715b34b9f10000000006001600160e01b03168152602001614bc9614ba8611a58565b6040518060400160405280600381526020016243323160e81b815250614f0a565b63ffffffff9081169091526001600160a01b0384166000908152601060209081526040909120835181549490920151909216600160e01b026001600160e01b039182166001600160e01b031990941693909317169190911790555b6001600160a01b0382166000908152601160205260409020546001600160e01b0316158015614c7657506001600160a01b038216600090815260116020526040902054600160e01b900463ffffffff16155b156118be5760405180604001604052806ec097ce7bc90715b34b9f10000000006001600160e01b03168152602001614caf614ba8611a58565b63ffffffff9081169091526001600160a01b0384166000908152601160209081526040909120835181549490920151909216600160e01b026001600160e01b039182166001600160e01b031990941693909317169190911790555050565b60007f45b96fe442630264581b197e84bbada861235052c5a1aadfff9ea4e40a969aa0846011811115614d3c57fe5b846013811115614d4857fe5b604080519283526020830191909152818101859052519081900360600190a1836011811115611b7e57fe5b6000611b818383604051806040016040528060158152602001747375627472616374696f6e20756e646572666c6f7760581b815250615450565b6000611b81614dc484670de0b6b3a7640000614dcb565b83516154aa565b6000611b8183836040518060400160405280601781526020017f6d756c7469706c69636174696f6e206f766572666c6f770000000000000000008152506154dd565b614e156156a3565b6040518060200160405280614e42614e3c866ec097ce7bc90715b34b9f1000000000614dcb565b856154aa565b90529392505050565b614e536156a3565b6040518060200160405280614e4285600001518560000151614fb3565b600081600160e01b8410614f025760405162461bcd60e51b81526004018080602001828103825283818151815260200191508051906020019080838360005b83811015614ec7578181015183820152602001614eaf565b50505050905090810190601f168015614ef45780820380516001836020036101000a031916815260200191505b509250505060405180910390fd5b509192915050565b600081600160201b8410614f025760405162461bcd60e51b8152602060048201818152835160248401528351909283926044909101919085019080838360008315614ec7578181015183820152602001614eaf565b614f676156a3565b6040518060200160405280614e4285600001518560000151614d73565b60006ec097ce7bc90715b34b9f1000000000614fa4848460000151614dcb565b81614fab57fe5b049392505050565b6000611b818383604051806040016040528060118152602001706164646974696f6e206f766572666c6f7760781b81525061555c565b6000818310158015614ffb5750600083115b1561512657600061500a612410565b604080516370a0823160e01b815230600482015290519192506000916001600160a01b038416916370a08231916024808301926020929190829003018186803b15801561505657600080fd5b505afa15801561506a573d6000803e3d6000fd5b505050506040513d602081101561508057600080fd5b5051905080851161512357816001600160a01b031663a9059cbb87876040518363ffffffff1660e01b815260040180836001600160a01b03166001600160a01b0316815260200182815260200192505050602060405180830381600087803b1580156150eb57600080fd5b505af11580156150ff573d6000803e3d6000fd5b505050506040513d602081101561511557600080fd5b5060009350611b8192505050565b50505b509092915050565b6151366156a3565b6040518060200160405280614e42856000015185614dcb565b6151576156a3565b6040518060200160405280614e4261517b8660000151670de0b6b3a7640000614dcb565b85516154aa565b6000670de0b6b3a7640000614fa4848460000151614dcb565b60006151a56156a3565b60006151af6156a3565b6151b987876152b7565b909250905060008260038111156151cc57fe5b146151db579092509050612a4d565b6151e581866152b7565b935093505050935093915050565b60008060006152006156a3565b61520a8787615240565b9092509050600082600381111561521d57fe5b1461522e5750915060009050612a4d565b6151e561523a826152a8565b866155b1565b600061524a6156a3565b60008061525b8660000151866155d7565b9092509050600082600381111561526e57fe5b1461528d575060408051602081019091526000815290925090506146fb565b60408051602081019091529081526000969095509350505050565b51670de0b6b3a7640000900490565b60006152c16156a3565b6000806152d6866000015186600001516155d7565b909250905060008260038111156152e957fe5b14615308575060408051602081019091526000815290925090506146fb565b60008061531d6706f05b59d3b20000846155b1565b9092509050600082600381111561533057fe5b14615352575060408051602081019091526000815290945092506146fb915050565b60008061536783670de0b6b3a7640000615616565b9092509050600082600381111561537a57fe5b1461538157fe5b604080516020810190915290815260009a909950975050505050505050565b60006153aa6156a3565b6000806153bf86670de0b6b3a76400006155d7565b909250905060008260038111156153d257fe5b146153f1575060408051602081019091526000815290925090506146fb565b6000806153fe8388615616565b9092509050600082600381111561541157fe5b14615433575060408051602081019091526000815290945092506146fb915050565b604080516020810190915290815260009890975095505050505050565b600081848411156154a25760405162461bcd60e51b8152602060048201818152835160248401528351909283926044909101919085019080838360008315614ec7578181015183820152602001614eaf565b505050900390565b6000611b8183836040518060400160405280600e81526020016d646976696465206279207a65726f60901b815250615641565b60008315806154ea575082155b156154f757506000611b81565b8383028385828161550457fe5b041483906155535760405162461bcd60e51b8152602060048201818152835160248401528351909283926044909101919085019080838360008315614ec7578181015183820152602001614eaf565b50949350505050565b600083830182858210156155535760405162461bcd60e51b8152602060048201818152835160248401528351909283926044909101919085019080838360008315614ec7578181015183820152602001614eaf565b6000808383018481106155c9576000925090506146fb565b5060029150600090506146fb565b600080836155ea575060009050806146fb565b838302838582816155f757fe5b041461560b575060029150600090506146fb565b6000925090506146fb565b6000808261562a57506001905060006146fb565b600083858161563557fe5b04915091509250929050565b600081836156905760405162461bcd60e51b8152602060048201818152835160248401528351909283926044909101919085019080838360008315614ec7578181015183820152602001614eaf565b5082848161569a57fe5b04949350505050565b6040518060200160405280600081525090565b81548183558181111561134357600083815260209020611343918101908301615744565b6040518061014001604052806000815260200160008152602001600081526020016000815260200160008152602001600081526020016157186156a3565b81526020016157256156a3565b81526020016157326156a3565b815260200161573f6156a3565b905290565b611a5a91905b8082111561575e576000815560010161574a565b509056fea265627a7a723158206e22d92d8d96ec664fad4c1f84d705b21d3463b743d96c1947d93f4d92126bdf64736f6c63430005100032",
  "linkReferences": {},
  "deployedLinkReferences": {}
}