{
  "_format": "hh-sol-artifact-1",
  "contractName": "ComptrollerG1",
  "sourceName": "contracts/ComptrollerG1.sol",
  "abi": [
    {
      "inputs": [],
      "payable": false,
      "stateMutability": "nonpayable",
      "type": "constructor"
    },
    {
      "anonymous": false,
      "inputs": [
        {
          "indexed": false,
          "internalType": "uint256",
          "name": "error",
          "type": "uint256"
        },
        {
          "indexed": false,
          "internalType": "uint256",
          "name": "info",
          "type": "uint256"
        },
        {
          "indexed": false,
          "internalType": "uint256",
          "name": "detail",
          "type": "uint256"
        }
      ],
      "name": "Failure",
      "type": "event"
    },
    {
      "anonymous": false,
      "inputs": [
        {
          "indexed": false,
          "internalType": "contract CToken",
          "name": "cToken",
          "type": "address"
        },
        {
          "indexed": false,
          "internalType": "address",
          "name": "account",
          "type": "address"
        }
      ],
      "name": "MarketEntered",
      "type": "event"
    },
    {
      "anonymous": false,
      "inputs": [
        {
          "indexed": false,
          "internalType": "contract CToken",
          "name": "cToken",
          "type": "address"
        },
        {
          "indexed": false,
          "internalType": "address",
          "name": "account",
          "type": "address"
        }
      ],
      "name": "MarketExited",
      "type": "event"
    },
    {
      "anonymous": false,
      "inputs": [
        {
          "indexed": false,
          "internalType": "contract CToken",
          "name": "cToken",
          "type": "address"
        }
      ],
      "name": "MarketListed",
      "type": "event"
    },
    {
      "anonymous": false,
      "inputs": [
        {
          "indexed": false,
          "internalType": "uint256",
          "name": "oldCloseFactorMantissa",
          "type": "uint256"
        },
        {
          "indexed": false,
          "internalType": "uint256",
          "name": "newCloseFactorMantissa",
          "type": "uint256"
        }
      ],
      "name": "NewCloseFactor",
      "type": "event"
    },
    {
      "anonymous": false,
      "inputs": [
        {
          "indexed": false,
          "internalType": "contract CToken",
          "name": "cToken",
          "type": "address"
        },
        {
          "indexed": false,
          "internalType": "uint256",
          "name": "oldCollateralFactorMantissa",
          "type": "uint256"
        },
        {
          "indexed": false,
          "internalType": "uint256",
          "name": "newCollateralFactorMantissa",
          "type": "uint256"
        }
      ],
      "name": "NewCollateralFactor",
      "type": "event"
    },
    {
      "anonymous": false,
      "inputs": [
        {
          "indexed": false,
          "internalType": "uint256",
          "name": "oldLiquidationIncentiveMantissa",
          "type": "uint256"
        },
        {
          "indexed": false,
          "internalType": "uint256",
          "name": "newLiquidationIncentiveMantissa",
          "type": "uint256"
        }
      ],
      "name": "NewLiquidationIncentive",
      "type": "event"
    },
    {
      "anonymous": false,
      "inputs": [
        {
          "indexed": false,
          "internalType": "uint256",
          "name": "oldMaxAssets",
          "type": "uint256"
        },
        {
          "indexed": false,
          "internalType": "uint256",
          "name": "newMaxAssets",
          "type": "uint256"
        }
      ],
      "name": "NewMaxAssets",
      "type": "event"
    },
    {
      "anonymous": false,
      "inputs": [
        {
          "indexed": false,
          "internalType": "contract PriceOracle",
          "name": "oldPriceOracle",
          "type": "address"
        },
        {
          "indexed": false,
          "internalType": "contract PriceOracle",
          "name": "newPriceOracle",
          "type": "address"
        }
      ],
      "name": "NewPriceOracle",
      "type": "event"
    },
    {
      "constant": false,
      "inputs": [
        {
          "internalType": "contract Unitroller",
          "name": "unitroller",
          "type": "address"
        },
        {
          "internalType": "contract PriceOracle",
          "name": "_oracle",
          "type": "address"
        },
        {
          "internalType": "uint256",
          "name": "_closeFactorMantissa",
          "type": "uint256"
        },
        {
          "internalType": "uint256",
          "name": "_maxAssets",
          "type": "uint256"
        },
        {
          "internalType": "bool",
          "name": "reinitializing",
          "type": "bool"
        }
      ],
      "name": "_become",
      "outputs": [],
      "payable": false,
      "stateMutability": "nonpayable",
      "type": "function"
    },
    {
      "constant": false,
      "inputs": [
        {
          "internalType": "uint256",
          "name": "newCloseFactorMantissa",
          "type": "uint256"
        }
      ],
      "name": "_setCloseFactor",
      "outputs": [
        {
          "internalType": "uint256",
          "name": "",
          "type": "uint256"
        }
      ],
      "payable": false,
      "stateMutability": "nonpayable",
      "type": "function"
    },
    {
      "constant": false,
      "inputs": [
        {
          "internalType": "contract CToken",
          "name": "cToken",
          "type": "address"
        },
        {
          "internalType": "uint256",
          "name": "newCollateralFactorMantissa",
          "type": "uint256"
        }
      ],
      "name": "_setCollateralFactor",
      "outputs": [
        {
          "internalType": "uint256",
          "name": "",
          "type": "uint256"
        }
      ],
      "payable": false,
      "stateMutability": "nonpayable",
      "type": "function"
    },
    {
      "constant": false,
      "inputs": [
        {
          "internalType": "uint256",
          "name": "newLiquidationIncentiveMantissa",
          "type": "uint256"
        }
      ],
      "name": "_setLiquidationIncentive",
      "outputs": [
        {
          "internalType": "uint256",
          "name": "",
          "type": "uint256"
        }
      ],
      "payable": false,
      "stateMutability": "nonpayable",
      "type": "function"
    },
    {
      "constant": false,
      "inputs": [
        {
          "internalType": "uint256",
          "name": "newMaxAssets",
          "type": "uint256"
        }
      ],
      "name": "_setMaxAssets",
      "outputs": [
        {
          "internalType": "uint256",
          "name": "",
          "type": "uint256"
        }
      ],
      "payable": false,
      "stateMutability": "nonpayable",
      "type": "function"
    },
    {
      "constant": false,
      "inputs": [
        {
          "internalType": "contract PriceOracle",
          "name": "newOracle",
          "type": "address"
        }
      ],
      "name": "_setPriceOracle",
      "outputs": [
        {
          "internalType": "uint256",
          "name": "",
          "type": "uint256"
        }
      ],
      "payable": false,
      "stateMutability": "nonpayable",
      "type": "function"
    },
    {
      "constant": false,
      "inputs": [
        {
          "internalType": "contract CToken",
          "name": "cToken",
          "type": "address"
        }
      ],
      "name": "_supportMarket",
      "outputs": [
        {
          "internalType": "uint256",
          "name": "",
          "type": "uint256"
        }
      ],
      "payable": false,
      "stateMutability": "nonpayable",
      "type": "function"
    },
    {
      "constant": true,
      "inputs": [
        {
          "internalType": "address",
          "name": "",
          "type": "address"
        },
        {
          "internalType": "uint256",
          "name": "",
          "type": "uint256"
        }
      ],
      "name": "accountAssets",
      "outputs": [
        {
          "internalType": "contract CToken",
          "name": "",
          "type": "address"
        }
      ],
      "payable": false,
      "stateMutability": "view",
      "type": "function"
    },
    {
      "constant": true,
      "inputs": [],
      "name": "admin",
      "outputs": [
        {
          "internalType": "address",
          "name": "",
          "type": "address"
        }
      ],
      "payable": false,
      "stateMutability": "view",
      "type": "function"
    },
    {
      "constant": false,
      "inputs": [
        {
          "internalType": "address",
          "name": "cToken",
          "type": "address"
        },
        {
          "internalType": "address",
          "name": "borrower",
          "type": "address"
        },
        {
          "internalType": "uint256",
          "name": "borrowAmount",
          "type": "uint256"
        }
      ],
      "name": "borrowAllowed",
      "outputs": [
        {
          "internalType": "uint256",
          "name": "",
          "type": "uint256"
        }
      ],
      "payable": false,
      "stateMutability": "nonpayable",
      "type": "function"
    },
    {
      "constant": false,
      "inputs": [
        {
          "internalType": "address",
          "name": "cToken",
          "type": "address"
        },
        {
          "internalType": "address",
          "name": "borrower",
          "type": "address"
        },
        {
          "internalType": "uint256",
          "name": "borrowAmount",
          "type": "uint256"
        }
      ],
      "name": "borrowVerify",
      "outputs": [],
      "payable": false,
      "stateMutability": "nonpayable",
      "type": "function"
    },
    {
      "constant": true,
      "inputs": [
        {
          "internalType": "address",
          "name": "account",
          "type": "address"
        },
        {
          "internalType": "contract CToken",
          "name": "cToken",
          "type": "address"
        }
      ],
      "name": "checkMembership",
      "outputs": [
        {
          "internalType": "bool",
          "name": "",
          "type": "bool"
        }
      ],
      "payable": false,
      "stateMutability": "view",
      "type": "function"
    },
    {
      "constant": true,
      "inputs": [],
      "name": "closeFactorMantissa",
      "outputs": [
        {
          "internalType": "uint256",
          "name": "",
          "type": "uint256"
        }
      ],
      "payable": false,
      "stateMutability": "view",
      "type": "function"
    },
    {
      "constant": true,
      "inputs": [],
      "name": "comptrollerImplementation",
      "outputs": [
        {
          "internalType": "address",
          "name": "",
          "type": "address"
        }
      ],
      "payable": false,
      "stateMutability": "view",
      "type": "function"
    },
    {
      "constant": false,
      "inputs": [
        {
          "internalType": "address[]",
          "name": "cTokens",
          "type": "address[]"
        }
      ],
      "name": "enterMarkets",
      "outputs": [
        {
          "internalType": "uint256[]",
          "name": "",
          "type": "uint256[]"
        }
      ],
      "payable": false,
      "stateMutability": "nonpayable",
      "type": "function"
    },
    {
      "constant": false,
      "inputs": [
        {
          "internalType": "address",
          "name": "cTokenAddress",
          "type": "address"
        }
      ],
      "name": "exitMarket",
      "outputs": [
        {
          "internalType": "uint256",
          "name": "",
          "type": "uint256"
        }
      ],
      "payable": false,
      "stateMutability": "nonpayable",
      "type": "function"
    },
    {
      "constant": true,
      "inputs": [
        {
          "internalType": "address",
          "name": "account",
          "type": "address"
        }
      ],
      "name": "getAccountLiquidity",
      "outputs": [
        {
          "internalType": "uint256",
          "name": "",
          "type": "uint256"
        },
        {
          "internalType": "uint256",
          "name": "",
          "type": "uint256"
        },
        {
          "internalType": "uint256",
          "name": "",
          "type": "uint256"
        }
      ],
      "payable": false,
      "stateMutability": "view",
      "type": "function"
    },
    {
      "constant": true,
      "inputs": [
        {
          "internalType": "address",
          "name": "account",
          "type": "address"
        }
      ],
      "name": "getAssetsIn",
      "outputs": [
        {
          "internalType": "contract CToken[]",
          "name": "",
          "type": "address[]"
        }
      ],
      "payable": false,
      "stateMutability": "view",
      "type": "function"
    },
    {
      "constant": true,
      "inputs": [],
      "name": "isComptroller",
      "outputs": [
        {
          "internalType": "bool",
          "name": "",
          "type": "bool"
        }
      ],
      "payable": false,
      "stateMutability": "view",
      "type": "function"
    },
    {
      "constant": false,
      "inputs": [
        {
          "internalType": "address",
          "name": "cTokenBorrowed",
          "type": "address"
        },
        {
          "internalType": "address",
          "name": "cTokenCollateral",
          "type": "address"
        },
        {
          "internalType": "address",
          "name": "liquidator",
          "type": "address"
        },
        {
          "internalType": "address",
          "name": "borrower",
          "type": "address"
        },
        {
          "internalType": "uint256",
          "name": "repayAmount",
          "type": "uint256"
        }
      ],
      "name": "liquidateBorrowAllowed",
      "outputs": [
        {
          "internalType": "uint256",
          "name": "",
          "type": "uint256"
        }
      ],
      "payable": false,
      "stateMutability": "nonpayable",
      "type": "function"
    },
    {
      "constant": false,
      "inputs": [
        {
          "internalType": "address",
          "name": "cTokenBorrowed",
          "type": "address"
        },
        {
          "internalType": "address",
          "name": "cTokenCollateral",
          "type": "address"
        },
        {
          "internalType": "address",
          "name": "liquidator",
          "type": "address"
        },
        {
          "internalType": "address",
          "name": "borrower",
          "type": "address"
        },
        {
          "internalType": "uint256",
          "name": "repayAmount",
          "type": "uint256"
        },
        {
          "internalType": "uint256",
          "name": "seizeTokens",
          "type": "uint256"
        }
      ],
      "name": "liquidateBorrowVerify",
      "outputs": [],
      "payable": false,
      "stateMutability": "nonpayable",
      "type": "function"
    },
    {
      "constant": true,
      "inputs": [
        {
          "internalType": "address",
          "name": "cTokenBorrowed",
          "type": "address"
        },
        {
          "internalType": "address",
          "name": "cTokenCollateral",
          "type": "address"
        },
        {
          "internalType": "uint256",
          "name": "repayAmount",
          "type": "uint256"
        }
      ],
      "name": "liquidateCalculateSeizeTokens",
      "outputs": [
        {
          "internalType": "uint256",
          "name": "",
          "type": "uint256"
        },
        {
          "internalType": "uint256",
          "name": "",
          "type": "uint256"
        }
      ],
      "payable": false,
      "stateMutability": "view",
      "type": "function"
    },
    {
      "constant": true,
      "inputs": [],
      "name": "liquidationIncentiveMantissa",
      "outputs": [
        {
          "internalType": "uint256",
          "name": "",
          "type": "uint256"
        }
      ],
      "payable": false,
      "stateMutability": "view",
      "type": "function"
    },
    {
      "constant": true,
      "inputs": [
        {
          "internalType": "address",
          "name": "",
          "type": "address"
        }
      ],
      "name": "markets",
      "outputs": [
        {
          "internalType": "bool",
          "name": "isListed",
          "type": "bool"
        },
        {
          "internalType": "uint256",
          "name": "collateralFactorMantissa",
          "type": "uint256"
        }
      ],
      "payable": false,
      "stateMutability": "view",
      "type": "function"
    },
    {
      "constant": true,
      "inputs": [],
      "name": "maxAssets",
      "outputs": [
        {
          "internalType": "uint256",
          "name": "",
          "type": "uint256"
        }
      ],
      "payable": false,
      "stateMutability": "view",
      "type": "function"
    },
    {
      "constant": false,
      "inputs": [
        {
          "internalType": "address",
          "name": "cToken",
          "type": "address"
        },
        {
          "internalType": "address",
          "name": "minter",
          "type": "address"
        },
        {
          "internalType": "uint256",
          "name": "mintAmount",
          "type": "uint256"
        }
      ],
      "name": "mintAllowed",
      "outputs": [
        {
          "internalType": "uint256",
          "name": "",
          "type": "uint256"
        }
      ],
      "payable": false,
      "stateMutability": "nonpayable",
      "type": "function"
    },
    {
      "constant": false,
      "inputs": [
        {
          "internalType": "address",
          "name": "cToken",
          "type": "address"
        },
        {
          "internalType": "address",
          "name": "minter",
          "type": "address"
        },
        {
          "internalType": "uint256",
          "name": "mintAmount",
          "type": "uint256"
        },
        {
          "internalType": "uint256",
          "name": "mintTokens",
          "type": "uint256"
        }
      ],
      "name": "mintVerify",
      "outputs": [],
      "payable": false,
      "stateMutability": "nonpayable",
      "type": "function"
    },
    {
      "constant": true,
      "inputs": [],
      "name": "oracle",
      "outputs": [
        {
          "internalType": "contract PriceOracle",
          "name": "",
          "type": "address"
        }
      ],
      "payable": false,
      "stateMutability": "view",
      "type": "function"
    },
    {
      "constant": true,
      "inputs": [],
      "name": "pendingAdmin",
      "outputs": [
        {
          "internalType": "address",
          "name": "",
          "type": "address"
        }
      ],
      "payable": false,
      "stateMutability": "view",
      "type": "function"
    },
    {
      "constant": true,
      "inputs": [],
      "name": "pendingComptrollerImplementation",
      "outputs": [
        {
          "internalType": "address",
          "name": "",
          "type": "address"
        }
      ],
      "payable": false,
      "stateMutability": "view",
      "type": "function"
    },
    {
      "constant": false,
      "inputs": [
        {
          "internalType": "address",
          "name": "cToken",
          "type": "address"
        },
        {
          "internalType": "address",
          "name": "redeemer",
          "type": "address"
        },
        {
          "internalType": "uint256",
          "name": "redeemTokens",
          "type": "uint256"
        }
      ],
      "name": "redeemAllowed",
      "outputs": [
        {
          "internalType": "uint256",
          "name": "",
          "type": "uint256"
        }
      ],
      "payable": false,
      "stateMutability": "nonpayable",
      "type": "function"
    },
    {
      "constant": false,
      "inputs": [
        {
          "internalType": "address",
          "name": "cToken",
          "type": "address"
        },
        {
          "internalType": "address",
          "name": "redeemer",
          "type": "address"
        },
        {
          "internalType": "uint256",
          "name": "redeemAmount",
          "type": "uint256"
        },
        {
          "internalType": "uint256",
          "name": "redeemTokens",
          "type": "uint256"
        }
      ],
      "name": "redeemVerify",
      "outputs": [],
      "payable": false,
      "stateMutability": "nonpayable",
      "type": "function"
    },
    {
      "constant": false,
      "inputs": [
        {
          "internalType": "address",
          "name": "cToken",
          "type": "address"
        },
        {
          "internalType": "address",
          "name": "payer",
          "type": "address"
        },
        {
          "internalType": "address",
          "name": "borrower",
          "type": "address"
        },
        {
          "internalType": "uint256",
          "name": "repayAmount",
          "type": "uint256"
        }
      ],
      "name": "repayBorrowAllowed",
      "outputs": [
        {
          "internalType": "uint256",
          "name": "",
          "type": "uint256"
        }
      ],
      "payable": false,
      "stateMutability": "nonpayable",
      "type": "function"
    },
    {
      "constant": false,
      "inputs": [
        {
          "internalType": "address",
          "name": "cToken",
          "type": "address"
        },
        {
          "internalType": "address",
          "name": "payer",
          "type": "address"
        },
        {
          "internalType": "address",
          "name": "borrower",
          "type": "address"
        },
        {
          "internalType": "uint256",
          "name": "repayAmount",
          "type": "uint256"
        },
        {
          "internalType": "uint256",
          "name": "borrowerIndex",
          "type": "uint256"
        }
      ],
      "name": "repayBorrowVerify",
      "outputs": [],
      "payable": false,
      "stateMutability": "nonpayable",
      "type": "function"
    },
    {
      "constant": false,
      "inputs": [
        {
          "internalType": "address",
          "name": "cTokenCollateral",
          "type": "address"
        },
        {
          "internalType": "address",
          "name": "cTokenBorrowed",
          "type": "address"
        },
        {
          "internalType": "address",
          "name": "liquidator",
          "type": "address"
        },
        {
          "internalType": "address",
          "name": "borrower",
          "type": "address"
        },
        {
          "internalType": "uint256",
          "name": "seizeTokens",
          "type": "uint256"
        }
      ],
      "name": "seizeAllowed",
      "outputs": [
        {
          "internalType": "uint256",
          "name": "",
          "type": "uint256"
        }
      ],
      "payable": false,
      "stateMutability": "nonpayable",
      "type": "function"
    },
    {
      "constant": false,
      "inputs": [
        {
          "internalType": "address",
          "name": "cTokenCollateral",
          "type": "address"
        },
        {
          "internalType": "address",
          "name": "cTokenBorrowed",
          "type": "address"
        },
        {
          "internalType": "address",
          "name": "liquidator",
          "type": "address"
        },
        {
          "internalType": "address",
          "name": "borrower",
          "type": "address"
        },
        {
          "internalType": "uint256",
          "name": "seizeTokens",
          "type": "uint256"
        }
      ],
      "name": "seizeVerify",
      "outputs": [],
      "payable": false,
      "stateMutability": "nonpayable",
      "type": "function"
    },
    {
      "constant": false,
      "inputs": [
        {
          "internalType": "address",
          "name": "cToken",
          "type": "address"
        },
        {
          "internalType": "address",
          "name": "src",
          "type": "address"
        },
        {
          "internalType": "address",
          "name": "dst",
          "type": "address"
        },
        {
          "internalType": "uint256",
          "name": "transferTokens",
          "type": "uint256"
        }
      ],
      "name": "transferAllowed",
      "outputs": [
        {
          "internalType": "uint256",
          "name": "",
          "type": "uint256"
        }
      ],
      "payable": false,
      "stateMutability": "nonpayable",
      "type": "function"
    },
    {
      "constant": false,
      "inputs": [
        {
          "internalType": "address",
          "name": "cToken",
          "type": "address"
        },
        {
          "internalType": "address",
          "name": "src",
          "type": "address"
        },
        {
          "internalType": "address",
          "name": "dst",
          "type": "address"
        },
        {
          "internalType": "uint256",
          "name": "transferTokens",
          "type": "uint256"
        }
      ],
      "name": "transferVerify",
      "outputs": [],
      "payable": false,
      "stateMutability": "nonpayable",
      "type": "function"
    }
  ],
  "bytecode": "0x608060405234801561001057600080fd5b50600080546001600160a01b03191633179055612c54806100326000396000f3fe608060405234801561001057600080fd5b50600436106102315760003560e01c80638e8f294b11610130578063d02f7351116100b8578063e4028eee1161007c578063e4028eee1461090e578063e87554461461093a578063eabe7d9114610942578063ede4edd014610978578063f851a4401461099e57610231565b8063d02f735114610841578063d9226ced14610887578063da3d454c146108a4578063dce15449146108da578063dcfbc0c71461090657610231565b8063abfceffc116100ff578063abfceffc14610695578063bb82aa5e1461070b578063bdcdc25814610713578063c29982381461074f578063c488847b146107f257610231565b80638e8f294b146105f8578063929fe9a11461063957806394b2294b14610667578063a76b3fda1461066f57610231565b80634ef4c3e1116101be5780635ec88c79116101825780635ec88c79146104e45780635fc7e71e146105285780636a56947e1461056e5780636d35bf91146105aa5780637dc0d1d0146105f057610231565b80634ef4c3e1146103f95780634fd42e171461042f57806351dff9891461044c57806355ee1fe1146104885780635c778605146104ae57610231565b8063317b0b7711610205578063317b0b771461030857806332000e001461032557806341c728b91461036957806347ef3b3b146103a55780634ada90af146103f157610231565b80627e3dd2146102365780631ededc911461025257806324008a621461029657806326782247146102e4575b600080fd5b61023e6109a6565b604080519115158252519081900360200190f35b610294600480360360a081101561026857600080fd5b506001600160a01b038135811691602081013582169160408201351690606081013590608001356109ab565b005b6102d2600480360360808110156102ac57600080fd5b506001600160a01b038135811691602081013582169160408201351690606001356109b2565b60408051918252519081900360200190f35b6102ec6109e8565b604080516001600160a01b039092168252519081900360200190f35b6102d26004803603602081101561031e57600080fd5b50356109f7565b610294600480360360a081101561033b57600080fd5b506001600160a01b038135811691602081013590911690604081013590606081013590608001351515610b05565b6102946004803603608081101561037f57600080fd5b506001600160a01b03813581169160208101359091169060408101359060600135610f87565b610294600480360360c08110156103bb57600080fd5b506001600160a01b0381358116916020810135821691604082013581169160608101359091169060808101359060a00135610f8d565b6102d2610f92565b6102d26004803603606081101561040f57600080fd5b506001600160a01b03813581169160208101359091169060400135610f98565b6102d26004803603602081101561044557600080fd5b5035610fcf565b6102946004803603608081101561046257600080fd5b506001600160a01b038135811691602081013590911690604081013590606001356110be565b6102d26004803603602081101561049e57600080fd5b50356001600160a01b0316611103565b610294600480360360608110156104c457600080fd5b506001600160a01b03813581169160208101359091169060400135611185565b61050a600480360360208110156104fa57600080fd5b50356001600160a01b031661118a565b60408051938452602084019290925282820152519081900360600190f35b6102d2600480360360a081101561053e57600080fd5b506001600160a01b03813581169160208101358216916040820135811691606081013590911690608001356111bf565b6102946004803603608081101561058457600080fd5b506001600160a01b03813581169160208101358216916040820135169060600135610f87565b610294600480360360a08110156105c057600080fd5b506001600160a01b03813581169160208101358216916040820135811691606081013590911690608001356109ab565b6102ec611346565b61061e6004803603602081101561060e57600080fd5b50356001600160a01b0316611355565b60408051921515835260208301919091528051918290030190f35b61023e6004803603604081101561064f57600080fd5b506001600160a01b0381358116916020013516611374565b6102d26113a8565b6102d26004803603602081101561068557600080fd5b50356001600160a01b03166113ae565b6106bb600480360360208110156106ab57600080fd5b50356001600160a01b03166114dd565b60408051602080825283518183015283519192839290830191858101910280838360005b838110156106f75781810151838201526020016106df565b505050509050019250505060405180910390f35b6102ec611566565b6102d26004803603608081101561072957600080fd5b506001600160a01b03813581169160208101358216916040820135169060600135611575565b6106bb6004803603602081101561076557600080fd5b81019060208101813564010000000081111561078057600080fd5b82018360208201111561079257600080fd5b803590602001918460208302840111640100000000831117156107b457600080fd5b919080806020026020016040519081016040528093929190818152602001838360200280828437600092019190915250929550611582945050505050565b6108286004803603606081101561080857600080fd5b506001600160a01b03813581169160208101359091169060400135611726565b6040805192835260208301919091528051918290030190f35b6102d2600480360360a081101561085757600080fd5b506001600160a01b038135811691602081013582169160408201358116916060810135909116906080013561199b565b6102d26004803603602081101561089d57600080fd5b5035611ade565b6102d2600480360360608110156108ba57600080fd5b506001600160a01b03813581169160208101359091169060400135611b42565b6102ec600480360360408110156108f057600080fd5b506001600160a01b038135169060200135611c76565b6102ec611cab565b6102d26004803603604081101561092457600080fd5b506001600160a01b038135169060200135611cba565b6102d2611e6a565b6102d26004803603606081101561095857600080fd5b506001600160a01b03813581169160208101359091169060400135611e70565b6102d26004803603602081101561098e57600080fd5b50356001600160a01b0316611e7d565b6102ec61218b565b600181565b5050505050565b6001600160a01b03841660009081526009602052604081205460ff166109da575060096109e0565b60005b90505b949350505050565b6001546001600160a01b031681565b6000610a0161219a565b610a1857610a11600160046121e5565b9050610b00565b610a20612b60565b506040805160208101909152828152610a37612b60565b50604080516020810190915266b1a2bc2ec500008152610a57828261224b565b15610a7057610a676005806121e5565b92505050610b00565b610a78612b60565b506040805160208101909152670c7d713b49da00008152610a998184612253565b15610ab357610aa96005806121e5565b9350505050610b00565b6005805490869055604080518281526020810188905281517f3b9670cf975d26958e754b57098eaa2ac914d8d2a31b83257997b9f346110fd9929181900390910190a160005b9450505050505b919050565b846001600160a01b031663f851a4406040518163ffffffff1660e01b815260040160206040518083038186803b158015610b3e57600080fd5b505afa158015610b52573d6000803e3d6000fd5b505050506040513d6020811015610b6857600080fd5b50516001600160a01b03163314610bac576040805162461bcd60e51b815260206004820152600360248201526243313760e81b604482015290519081900360640190fd5b6000856001600160a01b031663c1e803346040518163ffffffff1660e01b8152600401602060405180830381600087803b158015610be957600080fd5b505af1158015610bfd573d6000803e3d6000fd5b505050506040513d6020811015610c1357600080fd5b505190508015610c50576040805162461bcd60e51b815260206004820152600360248201526208662760eb1b604482015290519081900360640190fd5b81610f7f5760008690506000816001600160a01b03166355ee1fe1886040518263ffffffff1660e01b815260040180826001600160a01b03166001600160a01b03168152602001915050602060405180830381600087803b158015610cb457600080fd5b505af1158015610cc8573d6000803e3d6000fd5b505050506040513d6020811015610cde57600080fd5b505190508015610d2e576040805162461bcd60e51b815260206004820152601660248201527539b2ba10383934b1b29037b930b1b6329032b93937b960511b604482015290519081900360640190fd5b816001600160a01b031663317b0b77876040518263ffffffff1660e01b815260040180828152602001915050602060405180830381600087803b158015610d7457600080fd5b505af1158015610d88573d6000803e3d6000fd5b505050506040513d6020811015610d9e57600080fd5b505190508015610dee576040805162461bcd60e51b815260206004820152601660248201527539b2ba1031b637b9b2903330b1ba37b91032b93937b960511b604482015290519081900360640190fd5b816001600160a01b031663d9226ced866040518263ffffffff1660e01b815260040180828152602001915050602060405180830381600087803b158015610e3457600080fd5b505af1158015610e48573d6000803e3d6000fd5b505050506040513d6020811015610e5e57600080fd5b505190508015610ead576040805162461bcd60e51b815260206004820152601560248201527439b2ba1036b0bc1030b9b9b9b2ba399032b93937b960591b604482015290519081900360640190fd5b816001600160a01b0316634fd42e17670de0b6b3a76400006040518263ffffffff1660e01b815260040180828152602001915050602060405180830381600087803b158015610efb57600080fd5b505af1158015610f0f573d6000803e3d6000fd5b505050506040513d6020811015610f2557600080fd5b505190508015610f7c576040805162461bcd60e51b815260206004820152601f60248201527f736574206c69717569646174696f6e20696e63656e74697665206572726f7200604482015290519081900360640190fd5b50505b505050505050565b50505050565b610f7f565b60065481565b6001600160a01b03831660009081526009602052604081205460ff16610fc25760095b9050610fc8565b60005b90505b9392505050565b6000610fd961219a565b610fe957610a116001600b6121e5565b610ff1612b60565b506040805160208101909152828152611008612b60565b506040805160208101909152670de0b6b3a764000081526110298282612253565b1561103a57610a676007600c6121e5565b611042612b60565b5060408051602081019091526714d1120d7b16000081526110638184612253565b1561107457610aa96007600c6121e5565b6006805490869055604080518281526020810188905281517faeba5a6c40a8ac138134bff1aaa65debf25971188a58804bad717f82f0ec1316929181900390910190a16000610af9565b801580156110cc5750600082115b15610f87576040805162461bcd60e51b8152602060048201526002602482015261433360f01b604482015290519081900360640190fd5b600061110d61219a565b61111d57610a11600160106121e5565b600480546001600160a01b038481166001600160a01b0319831681179093556040805191909216808252602082019390935281517fd52b2b9b7e9ee655fcb95d2e5b9e0c9f69e7ef2b8e9d2d0ea78402d576d22e22929181900390910190a160009392505050565b505050565b6000806000806000806111a187600080600061225a565b9250925092508260118111156111b357fe5b97919650945092505050565b6001600160a01b03851660009081526009602052604081205460ff16158061120057506001600160a01b03851660009081526009602052604090205460ff16155b1561120f5760095b905061133d565b60008061121b8561267f565b9193509091506000905082601181111561123157fe5b1461124b5781601181111561124257fe5b9250505061133d565b80611257576003611242565b6000886001600160a01b03166395dd9193876040518263ffffffff1660e01b815260040180826001600160a01b03166001600160a01b0316815260200191505060206040518083038186803b1580156112af57600080fd5b505afa1580156112c3573d6000803e3d6000fd5b505050506040513d60208110156112d957600080fd5b50516040805160208101909152600554815290915060009081906112fd908461269f565b9092509050600082600381111561131057fe5b1461132457600b5b9550505050505061133d565b80871115611333576011611318565b6000955050505050505b95945050505050565b6004546001600160a01b031681565b6009602052600090815260409020805460019091015460ff9091169082565b6001600160a01b038082166000908152600960209081526040808320938616835260029093019052205460ff165b92915050565b60075481565b600080546001600160a01b031633146113cd57610a11600160126121e5565b6001600160a01b03821660009081526009602052604090205460ff16156113fa57610a11600a60116121e5565b816001600160a01b031663fe9c44ae6040518163ffffffff1660e01b815260040160206040518083038186803b15801561143357600080fd5b505afa158015611447573d6000803e3d6000fd5b505050506040513d602081101561145d57600080fd5b50506040805180820182526001808252600060208084018281526001600160a01b03881680845260098352928690209451855460ff1916901515178555519390920192909255825191825291517fcf583bb0c569eb967f806b11601c4cb93c10310485c67add5f8362c2f212321f929181900390910190a1600092915050565b60608060086000846001600160a01b03166001600160a01b0316815260200190815260200160002080548060200260200160405190810160405280929190818152602001828054801561155957602002820191906000526020600020905b81546001600160a01b0316815260019091019060200180831161153b575b5093979650505050505050565b6002546001600160a01b031681565b60006109dd8585846126f3565b60606000825190506060816040519080825280602002602001820160405280156115b6578160200160208202803883390190505b50905060005b8281101561171e5760008582815181106115d257fe5b6020908102919091018101516001600160a01b03811660009081526009909252604090912080549192509060ff166116265760095b84848151811061161357fe5b6020026020010181815250505050611716565b33600090815260028201602052604090205460ff1615156001141561164c576000611607565b600754336000908152600860205260409020541061166b576010611607565b3360008181526002830160209081526040808320805460ff19166001908117909155600883528184208054918201815584529282902090920180546001600160a01b0387166001600160a01b0319909116811790915582519081529081019290925280517f3ab23ab0d51cccc0c3085aec51f99228625aa1a922b3a8ca89a26b0f2027a1a59281900390910190a1600084848151811061170757fe5b60200260200101818152505050505b6001016115bc565b509392505050565b600480546040805163fc57d4df60e01b81526001600160a01b038781169482019490945290516000938493849391169163fc57d4df91602480820192602092909190829003018186803b15801561177c57600080fd5b505afa158015611790573d6000803e3d6000fd5b505050506040513d60208110156117a657600080fd5b5051600480546040805163fc57d4df60e01b81526001600160a01b038a8116948201949094529051939450600093929091169163fc57d4df91602480820192602092909190829003018186803b1580156117ff57600080fd5b505afa158015611813573d6000803e3d6000fd5b505050506040513d602081101561182957600080fd5b50519050811580611838575080155b1561184d57600d935060009250611993915050565b6000866001600160a01b031663182df0f56040518163ffffffff1660e01b815260040160206040518083038186803b15801561188857600080fd5b505afa15801561189c573d6000803e3d6000fd5b505050506040513d60208110156118b257600080fd5b5051905060006118c0612b60565b6118c8612b60565b6118d0612b60565b60006118de60065489612762565b9450905060008160038111156118f057fe5b1461190c57600b5b995060009850611993975050505050505050565b6119168787612762565b93509050600081600381111561192857fe5b1461193457600b6118f8565b61193e848461279d565b92509050600081600381111561195057fe5b1461195c57600b6118f8565b611966828c61269f565b95509050600081600381111561197857fe5b1461198457600b6118f8565b60009950939750505050505050505b935093915050565b6001600160a01b03851660009081526009602052604081205460ff1615806119dc57506001600160a01b03851660009081526009602052604090205460ff16155b156119e8576009611208565b846001600160a01b0316635fe3b5676040518163ffffffff1660e01b815260040160206040518083038186803b158015611a2157600080fd5b505afa158015611a35573d6000803e3d6000fd5b505050506040513d6020811015611a4b57600080fd5b505160408051635fe3b56760e01b815290516001600160a01b0392831692891691635fe3b567916004808301926020929190829003018186803b158015611a9157600080fd5b505afa158015611aa5573d6000803e3d6000fd5b505050506040513d6020811015611abb57600080fd5b50516001600160a01b031614611ad2576002611208565b60009695505050505050565b6000611ae861219a565b611af857610a116001600d6121e5565b6007805490839055604080518281526020810185905281517f7093cf1eb653f749c3ff531d6df7f92764536a7fa0d13530cd26e070780c32ea929181900390910190a16000610fc8565b6001600160a01b03831660009081526009602052604081205460ff16611b69576009610fbb565b6001600160a01b038085166000908152600960209081526040808320938716835260029093019052205460ff16611ba1576008610fbb565b600480546040805163fc57d4df60e01b81526001600160a01b03888116948201949094529051929091169163fc57d4df91602480820192602092909190829003018186803b158015611bf257600080fd5b505afa158015611c06573d6000803e3d6000fd5b505050506040513d6020811015611c1c57600080fd5b5051611c2957600d610fbb565b600080611c39858760008761225a565b91935090915060009050826011811115611c4f57fe5b14611c6957816011811115611c6057fe5b92505050610fc8565b8015611ad2576004611c60565b60086020528160005260406000208181548110611c8f57fe5b6000918252602090912001546001600160a01b03169150829050565b6003546001600160a01b031681565b600080546001600160a01b03163314611ce057611cd9600160066121e5565b90506113a2565b6001600160a01b0383166000908152600960205260409020805460ff16611d1557611d0d600960076121e5565b9150506113a2565b611d1d612b60565b506040805160208101909152838152611d34612b60565b506040805160208101909152670c7d713b49da00008152611d558183612253565b15611d7057611d66600660086121e5565b93505050506113a2565b8415801590611df95750600480546040805163fc57d4df60e01b81526001600160a01b038a8116948201949094529051929091169163fc57d4df91602480820192602092909190829003018186803b158015611dcb57600080fd5b505afa158015611ddf573d6000803e3d6000fd5b505050506040513d6020811015611df557600080fd5b5051155b15611e0a57611d66600d60096121e5565b60018301805490869055604080516001600160a01b03891681526020810183905280820188905290517f70483e6592cd5182d45ac970e05bc62cdcc90e9d8ef2c2dbe686cf383bcd7fc59181900360600190a16000979650505050505050565b60055481565b6000610fc58484846126f3565b6000808290506000806000836001600160a01b031663c37f68e2336040518263ffffffff1660e01b815260040180826001600160a01b03166001600160a01b0316815260200191505060806040518083038186803b158015611ede57600080fd5b505afa158015611ef2573d6000803e3d6000fd5b505050506040513d6080811015611f0857600080fd5b508051602082015160409092015190945090925090508215611f56576040805162461bcd60e51b8152602060048201526002602482015261433160f01b604482015290519081900360640190fd5b8015611f7357611f68600c60026121e5565b945050505050610b00565b6000611f808733856126f3565b90508015611fa157611f95600e6003836127b5565b95505050505050610b00565b6001600160a01b0385166000908152600960209081526040808320338452600281019092529091205460ff16611fe05760009650505050505050610b00565b3360009081526002820160209081526040808320805460ff19169055600882529182902080548351818402810184019094528084526060939283018282801561205257602002820191906000526020600020905b81546001600160a01b03168152600190910190602001808311612034575b5050835193945083925060009150505b828110156120a757896001600160a01b031684828151811061208057fe5b60200260200101516001600160a01b0316141561209f578091506120a7565b600101612062565b508181106120b157fe5b3360009081526008602052604090208054819060001981019081106120d257fe5b9060005260206000200160009054906101000a90046001600160a01b03168183815481106120fc57fe5b600091825260209091200180546001600160a01b0319166001600160a01b03929092169190911790558054612135826000198301612b73565b50604080516001600160a01b038c16815233602082015281517fe699a64c18b07ac5b7301aa273f36a2287239eb9501d81950672794afba29a0d929181900390910190a160009c9b505050505050505050505050565b6000546001600160a01b031681565b60025460009081906001600160a01b0316331480156121c357506000546001600160a01b031632145b6000549091506001600160a01b0316331480806121dd5750815b925050505b90565b60007f45b96fe442630264581b197e84bbada861235052c5a1aadfff9ea4e40a969aa083601181111561221457fe5b83601381111561222057fe5b604080519283526020830191909152600082820152519081900360600190a1826011811115610fc857fe5b519051111590565b5190511090565b6000806000612267612b97565b6001600160a01b0388166000908152600860209081526040808320805482518185028101850190935280835284936060939291908301828280156122d457602002820191906000526020600020905b81546001600160a01b031681526001909101906020018083116122b6575b50939450600093505050505b81518110156126305760008282815181106122f757fe5b60200260200101519050806001600160a01b031663c37f68e28e6040518263ffffffff1660e01b815260040180826001600160a01b03166001600160a01b0316815260200191505060806040518083038186803b15801561235757600080fd5b505afa15801561236b573d6000803e3d6000fd5b505050506040513d608081101561238157600080fd5b508051602082015160408084015160609485015160808c0152938a019390935291880191909152945084156123c75750600f975060009650869550612675945050505050565b60408051602080820183526001600160a01b0380851660008181526009845285902060010154845260c08b01939093528351808301855260808b0151815260e08b015260048054855163fc57d4df60e01b815291820194909452935192169263fc57d4df9260248083019392829003018186803b15801561244757600080fd5b505afa15801561245b573d6000803e3d6000fd5b505050506040513d602081101561247157600080fd5b505160a087018190526124955750600d975060009650869550612675945050505050565b604080516020810190915260a08701518152610100870181905260c087015160e08801516124c29261281b565b610120880152935060008460038111156124d857fe5b146124f45750600b975060009650869550612675945050505050565b61250c86610120015187604001518860000151612873565b87529350600084600381111561251e57fe5b1461253a5750600b975060009650869550612675945050505050565b61255286610100015187606001518860200151612873565b60208801529350600084600381111561256757fe5b146125835750600b975060009650869550612675945050505050565b8b6001600160a01b0316816001600160a01b03161415612627576125b18661012001518c8860200151612873565b6020880152935060008460038111156125c657fe5b146125e25750600b975060009650869550612675945050505050565b6125f68661010001518b8860200151612873565b60208801529350600084600381111561260b57fe5b146126275750600b975060009650869550612675945050505050565b506001016122e0565b50602084015184511115612657575050506020810151905160009450039150829050612675565b50508151602090920151600095508594509190910391506126759050565b9450945094915050565b600080600061269284600080600061225a565b9250925092509193909250565b60008060006126ac612b60565b6126b686866128c0565b909250905060008260038111156126c957fe5b146126da57509150600090506126ec565b60006126e582612928565b9350935050505b9250929050565b6001600160a01b03831660009081526009602052604081205460ff1661271a576009610fbb565b6001600160a01b038085166000908152600960209081526040808320938716835260029093019052205460ff16612752576000610fbb565b600080611c39858786600061225a565b600061276c612b60565b612792604051806020016040528086815250604051806020016040528086815250612937565b915091509250929050565b60006127a7612b60565b835183516127929190612a20565b60007f45b96fe442630264581b197e84bbada861235052c5a1aadfff9ea4e40a969aa08460118111156127e457fe5b8460138111156127f057fe5b604080519283526020830191909152818101859052519081900360600190a1836011811115610fc557fe5b6000612825612b60565b600061282f612b60565b6128398787612937565b9092509050600082600381111561284c57fe5b1461285b579092509050611993565b6128658186612937565b935093505050935093915050565b6000806000612880612b60565b61288a87876128c0565b9092509050600082600381111561289d57fe5b146128ae5750915060009050611993565b6128656128ba82612928565b86612ad0565b60006128ca612b60565b6000806128db866000015186612af6565b909250905060008260038111156128ee57fe5b1461290d575060408051602081019091526000815290925090506126ec565b60408051602081019091529081526000969095509350505050565b51670de0b6b3a7640000900490565b6000612941612b60565b60008061295686600001518660000151612af6565b9092509050600082600381111561296957fe5b14612988575060408051602081019091526000815290925090506126ec565b60008061299d6706f05b59d3b2000084612ad0565b909250905060008260038111156129b057fe5b146129d2575060408051602081019091526000815290945092506126ec915050565b6000806129e783670de0b6b3a7640000612b35565b909250905060008260038111156129fa57fe5b14612a0157fe5b604080516020810190915290815260009a909950975050505050505050565b6000612a2a612b60565b600080612a3f86670de0b6b3a7640000612af6565b90925090506000826003811115612a5257fe5b14612a71575060408051602081019091526000815290925090506126ec565b600080612a7e8388612b35565b90925090506000826003811115612a9157fe5b14612ab3575060408051602081019091526000815290945092506126ec915050565b604080516020810190915290815260009890975095505050505050565b600080838301848110612ae8576000925090506126ec565b5060029150600090506126ec565b60008083612b09575060009050806126ec565b83830283858281612b1657fe5b0414612b2a575060029150600090506126ec565b6000925090506126ec565b60008082612b4957506001905060006126ec565b6000838581612b5457fe5b04915091509250929050565b6040518060200160405280600081525090565b81548183558181111561118557600083815260209020611185918101908301612c01565b604051806101400160405280600081526020016000815260200160008152602001600081526020016000815260200160008152602001612bd5612b60565b8152602001612be2612b60565b8152602001612bef612b60565b8152602001612bfc612b60565b905290565b6121e291905b80821115612c1b5760008155600101612c07565b509056fea265627a7a7231582023cbbdba18e6b023a06032f812297b0969d6e102a362790f8669765b4043488364736f6c63430005100032",
  "linkReferences": {},
  "deployedLinkReferences": {}
}