{
  "_format": "hh-sol-artifact-1",
  "contractName": "PriceOracleAdapterCompound",
  "sourceName": "contracts/mocks/PriceOracleAdapterCompound.sol",
  "abi": [
    {
      "inputs": [
        {
          "internalType": "address",
          "name": "guardian_",
          "type": "address"
        }
      ],
      "payable": false,
      "stateMutability": "nonpayable",
      "type": "constructor"
    },
    {
      "anonymous": false,
      "inputs": [
        {
          "indexed": false,
          "internalType": "address",
          "name": "oldAddress",
          "type": "address"
        },
        {
          "indexed": false,
          "internalType": "address",
          "name": "newAddress",
          "type": "address"
        }
      ],
      "name": "PriceOracleAdapterUpdated",
      "type": "event"
    },
    {
      "anonymous": false,
      "inputs": [
        {
          "indexed": false,
          "internalType": "address",
          "name": "oldAddress",
          "type": "address"
        },
        {
          "indexed": false,
          "internalType": "address",
          "name": "newAddress",
          "type": "address"
        },
        {
          "indexed": false,
          "internalType": "address",
          "name": "cTokenAddress",
          "type": "address"
        }
      ],
      "name": "PriceOracleKeyUpdated",
      "type": "event"
    },
    {
      "constant": true,
      "inputs": [
        {
          "internalType": "address",
          "name": "cTokenAddress",
          "type": "address"
        }
      ],
      "name": "assetPrices",
      "outputs": [
        {
          "internalType": "uint256",
          "name": "",
          "type": "uint256"
        }
      ],
      "payable": false,
      "stateMutability": "view",
      "type": "function"
    },
    {
      "constant": true,
      "inputs": [],
      "name": "guardian",
      "outputs": [
        {
          "internalType": "address",
          "name": "",
          "type": "address"
        }
      ],
      "payable": false,
      "stateMutability": "view",
      "type": "function"
    },
    {
      "constant": true,
      "inputs": [
        {
          "internalType": "address",
          "name": "",
          "type": "address"
        }
      ],
      "name": "oracleKeyAddress",
      "outputs": [
        {
          "internalType": "address",
          "name": "",
          "type": "address"
        }
      ],
      "payable": false,
      "stateMutability": "view",
      "type": "function"
    },
    {
      "constant": true,
      "inputs": [],
      "name": "priceProviderInterface",
      "outputs": [
        {
          "internalType": "contract V1PriceOracleInterface",
          "name": "",
          "type": "address"
        }
      ],
      "payable": false,
      "stateMutability": "view",
      "type": "function"
    },
    {
      "constant": true,
      "inputs": [],
      "name": "saiPrice",
      "outputs": [
        {
          "internalType": "uint256",
          "name": "",
          "type": "uint256"
        }
      ],
      "payable": false,
      "stateMutability": "view",
      "type": "function"
    },
    {
      "constant": false,
      "inputs": [
        {
          "internalType": "address",
          "name": "cTokenAddress",
          "type": "address"
        },
        {
          "internalType": "address",
          "name": "keyOracle",
          "type": "address"
        }
      ],
      "name": "setKeyOracle",
      "outputs": [],
      "payable": false,
      "stateMutability": "nonpayable",
      "type": "function"
    },
    {
      "constant": false,
      "inputs": [
        {
          "internalType": "address",
          "name": "priceProviderAddress",
          "type": "address"
        }
      ],
      "name": "setPriceProvider",
      "outputs": [],
      "payable": false,
      "stateMutability": "nonpayable",
      "type": "function"
    },
    {
      "constant": false,
      "inputs": [
        {
          "internalType": "uint256",
          "name": "price",
          "type": "uint256"
        }
      ],
      "name": "setSaiPrice",
      "outputs": [],
      "payable": false,
      "stateMutability": "nonpayable",
      "type": "function"
    }
  ],
  "bytecode": "0x608060405234801561001057600080fd5b506040516107d53803806107d58339818101604052602081101561003357600080fd5b5051600080546001600160a01b039092166001600160a01b0319909216919091179055610770806100656000396000f3fe608060405234801561001057600080fd5b50600436106100885760003560e01c8063cfc633571161005b578063cfc6335714610119578063f058367214610121578063f0e802031461014f578063f9c99e9c1461017557610088565b8063372aa2241461008d578063452a9320146100b55780635e9a523c146100d9578063a86b194414610111575b600080fd5b6100b3600480360360208110156100a357600080fd5b50356001600160a01b0316610192565b005b6100bd610282565b604080516001600160a01b039092168252519081900360200190f35b6100ff600480360360208110156100ef57600080fd5b50356001600160a01b0316610291565b60408051918252519081900360200190f35b6100ff6103bc565b6100bd6103c2565b6100b36004803603604081101561013757600080fd5b506001600160a01b03813581169160200135166103d1565b6100bd6004803603602081101561016557600080fd5b50356001600160a01b0316610523565b6100b36004803603602081101561018b57600080fd5b503561053e565b6000546001600160a01b031633146101db5760405162461bcd60e51b815260040180806020018281038252603d8152602001806106ff603d913960400191505060405180910390fd5b6001600160a01b0381166102205760405162461bcd60e51b81526004018080602001828103825260328152602001806106cd6032913960400191505060405180910390fd5b600180546001600160a01b038381166001600160a01b0319831617928390556040805192821680845293909116602083015280517f58d7caa9bcc8339b310213ec53c711c9157920c93aef03ac3c4a16ce01bc602e9281900390910190a15050565b6000546001600160a01b031681565b6001600160a01b03818116600090815260026020526040812054909182911661031e57826001600160a01b0316636f307dc36040518163ffffffff1660e01b815260040160206040518083038186803b1580156102ed57600080fd5b505afa158015610301573d6000803e3d6000fd5b505050506040513d602081101561031757600080fd5b505161033a565b6001600160a01b03808416600090815260026020526040902054165b600154604080516317a6948f60e21b81526001600160a01b0380851660048301529151939450911691635e9a523c91602480820192602092909190829003018186803b15801561038957600080fd5b505afa15801561039d573d6000803e3d6000fd5b505050506040513d60208110156103b357600080fd5b50519392505050565b60035481565b6001546001600160a01b031681565b6000546001600160a01b0316331461041a5760405162461bcd60e51b815260040180806020018281038252603d8152602001806106ff603d913960400191505060405180910390fd5b6001600160a01b03821661045f5760405162461bcd60e51b81526004018080602001828103825260388152602001806106956038913960400191505060405180910390fd5b6001600160a01b0381166104a45760405162461bcd60e51b815260040180806020018281038252603481526020018061063e6034913960400191505060405180910390fd5b6001600160a01b0380831660008181526002602090815260409182902080548686166001600160a01b03198216179182905583519086168082529190951691850191909152838201929092525190917ff0a4269df7e862458b54f7418a388488754c0aea0cfc99d5c1cffef9cceb191a919081900360600190a1505050565b6002602052600090815260409020546001600160a01b031681565b6000546001600160a01b031633146105875760405162461bcd60e51b81526004018080602001828103825260238152602001806106726023913960400191505060405180910390fd5b600354156105dc576040805162461bcd60e51b815260206004820152601e60248201527f534149207072696365206d6179206f6e6c7920626520736574206f6e63650000604482015290519081900360640190fd5b67016345785d8a00008110610638576040805162461bcd60e51b815260206004820152601b60248201527f534149207072696365206d757374206265203c20302e31204554480000000000604482015290519081900360640190fd5b60035556fe50726963654f7261636c6541646170746572436f6d706f756e643a206b65794f7261636c6520636f756c64206e6f7420626520306f6e6c7920677561726469616e206d617920736574207468652053414920707269636550726963654f7261636c6541646170746572436f6d706f756e643a2063546f6b656e4164647265737320636f756c64206e6f74206265203050726963654f7261636c6541646170746572436f6d706f756e643a206164647265737320636f756c64206e6f74206265203050726963654f7261636c6541646170746572436f6d706f756e643a206f6e6c7920677561726469616e206d617920736574207468652061646472657373a265627a7a72315820538f68e17739145f6aec62f4bc950eaaa03a5d69ef41ad592efab8dc4a33a16764736f6c63430005100032",
  "linkReferences": {},
  "deployedLinkReferences": {}
}