{
  "_format": "hh-sol-artifact-1",
  "contractName": "ComptrollerG5",
  "sourceName": "contracts/ComptrollerG5.sol",
  "abi": [
    {
      "inputs": [],
      "payable": false,
      "stateMutability": "nonpayable",
      "type": "constructor"
    },
    {
      "anonymous": false,
      "inputs": [
        {
          "indexed": false,
          "internalType": "string",
          "name": "action",
          "type": "string"
        },
        {
          "indexed": false,
          "internalType": "bool",
          "name": "pauseState",
          "type": "bool"
        }
      ],
      "name": "ActionPaused",
      "type": "event"
    },
    {
      "anonymous": false,
      "inputs": [
        {
          "indexed": false,
          "internalType": "contract CToken",
          "name": "cToken",
          "type": "address"
        },
        {
          "indexed": false,
          "internalType": "string",
          "name": "action",
          "type": "string"
        },
        {
          "indexed": false,
          "internalType": "bool",
          "name": "pauseState",
          "type": "bool"
        }
      ],
      "name": "ActionPaused",
      "type": "event"
    },
    {
      "anonymous": false,
      "inputs": [
        {
          "indexed": true,
          "internalType": "contract CToken",
          "name": "cToken",
          "type": "address"
        },
        {
          "indexed": false,
          "internalType": "uint256",
          "name": "newSpeed",
          "type": "uint256"
        }
      ],
      "name": "CompSpeedUpdated",
      "type": "event"
    },
    {
      "anonymous": false,
      "inputs": [
        {
          "indexed": true,
          "internalType": "contract CToken",
          "name": "cToken",
          "type": "address"
        },
        {
          "indexed": true,
          "internalType": "address",
          "name": "borrower",
          "type": "address"
        },
        {
          "indexed": false,
          "internalType": "uint256",
          "name": "compDelta",
          "type": "uint256"
        },
        {
          "indexed": false,
          "internalType": "uint256",
          "name": "compBorrowIndex",
          "type": "uint256"
        }
      ],
      "name": "DistributedBorrowerComp",
      "type": "event"
    },
    {
      "anonymous": false,
      "inputs": [
        {
          "indexed": true,
          "internalType": "contract CToken",
          "name": "cToken",
          "type": "address"
        },
        {
          "indexed": true,
          "internalType": "address",
          "name": "supplier",
          "type": "address"
        },
        {
          "indexed": false,
          "internalType": "uint256",
          "name": "compDelta",
          "type": "uint256"
        },
        {
          "indexed": false,
          "internalType": "uint256",
          "name": "compSupplyIndex",
          "type": "uint256"
        }
      ],
      "name": "DistributedSupplierComp",
      "type": "event"
    },
    {
      "anonymous": false,
      "inputs": [
        {
          "indexed": false,
          "internalType": "uint256",
          "name": "error",
          "type": "uint256"
        },
        {
          "indexed": false,
          "internalType": "uint256",
          "name": "info",
          "type": "uint256"
        },
        {
          "indexed": false,
          "internalType": "uint256",
          "name": "detail",
          "type": "uint256"
        }
      ],
      "name": "Failure",
      "type": "event"
    },
    {
      "anonymous": false,
      "inputs": [
        {
          "indexed": false,
          "internalType": "contract CToken",
          "name": "cToken",
          "type": "address"
        },
        {
          "indexed": false,
          "internalType": "bool",
          "name": "isComped",
          "type": "bool"
        }
      ],
      "name": "MarketComped",
      "type": "event"
    },
    {
      "anonymous": false,
      "inputs": [
        {
          "indexed": false,
          "internalType": "contract CToken",
          "name": "cToken",
          "type": "address"
        },
        {
          "indexed": false,
          "internalType": "address",
          "name": "account",
          "type": "address"
        }
      ],
      "name": "MarketEntered",
      "type": "event"
    },
    {
      "anonymous": false,
      "inputs": [
        {
          "indexed": false,
          "internalType": "contract CToken",
          "name": "cToken",
          "type": "address"
        },
        {
          "indexed": false,
          "internalType": "address",
          "name": "account",
          "type": "address"
        }
      ],
      "name": "MarketExited",
      "type": "event"
    },
    {
      "anonymous": false,
      "inputs": [
        {
          "indexed": false,
          "internalType": "contract CToken",
          "name": "cToken",
          "type": "address"
        }
      ],
      "name": "MarketListed",
      "type": "event"
    },
    {
      "anonymous": false,
      "inputs": [
        {
          "indexed": true,
          "internalType": "contract CToken",
          "name": "cToken",
          "type": "address"
        },
        {
          "indexed": false,
          "internalType": "uint256",
          "name": "newBorrowCap",
          "type": "uint256"
        }
      ],
      "name": "NewBorrowCap",
      "type": "event"
    },
    {
      "anonymous": false,
      "inputs": [
        {
          "indexed": false,
          "internalType": "address",
          "name": "oldBorrowCapGuardian",
          "type": "address"
        },
        {
          "indexed": false,
          "internalType": "address",
          "name": "newBorrowCapGuardian",
          "type": "address"
        }
      ],
      "name": "NewBorrowCapGuardian",
      "type": "event"
    },
    {
      "anonymous": false,
      "inputs": [
        {
          "indexed": false,
          "internalType": "uint256",
          "name": "oldCloseFactorMantissa",
          "type": "uint256"
        },
        {
          "indexed": false,
          "internalType": "uint256",
          "name": "newCloseFactorMantissa",
          "type": "uint256"
        }
      ],
      "name": "NewCloseFactor",
      "type": "event"
    },
    {
      "anonymous": false,
      "inputs": [
        {
          "indexed": false,
          "internalType": "contract CToken",
          "name": "cToken",
          "type": "address"
        },
        {
          "indexed": false,
          "internalType": "uint256",
          "name": "oldCollateralFactorMantissa",
          "type": "uint256"
        },
        {
          "indexed": false,
          "internalType": "uint256",
          "name": "newCollateralFactorMantissa",
          "type": "uint256"
        }
      ],
      "name": "NewCollateralFactor",
      "type": "event"
    },
    {
      "anonymous": false,
      "inputs": [
        {
          "indexed": false,
          "internalType": "uint256",
          "name": "oldCompRate",
          "type": "uint256"
        },
        {
          "indexed": false,
          "internalType": "uint256",
          "name": "newCompRate",
          "type": "uint256"
        }
      ],
      "name": "NewCompRate",
      "type": "event"
    },
    {
      "anonymous": false,
      "inputs": [
        {
          "indexed": false,
          "internalType": "uint256",
          "name": "oldLiquidationIncentiveMantissa",
          "type": "uint256"
        },
        {
          "indexed": false,
          "internalType": "uint256",
          "name": "newLiquidationIncentiveMantissa",
          "type": "uint256"
        }
      ],
      "name": "NewLiquidationIncentive",
      "type": "event"
    },
    {
      "anonymous": false,
      "inputs": [
        {
          "indexed": false,
          "internalType": "uint256",
          "name": "oldMaxAssets",
          "type": "uint256"
        },
        {
          "indexed": false,
          "internalType": "uint256",
          "name": "newMaxAssets",
          "type": "uint256"
        }
      ],
      "name": "NewMaxAssets",
      "type": "event"
    },
    {
      "anonymous": false,
      "inputs": [
        {
          "indexed": false,
          "internalType": "address",
          "name": "oldPauseGuardian",
          "type": "address"
        },
        {
          "indexed": false,
          "internalType": "address",
          "name": "newPauseGuardian",
          "type": "address"
        }
      ],
      "name": "NewPauseGuardian",
      "type": "event"
    },
    {
      "anonymous": false,
      "inputs": [
        {
          "indexed": false,
          "internalType": "contract PriceOracle",
          "name": "oldPriceOracle",
          "type": "address"
        },
        {
          "indexed": false,
          "internalType": "contract PriceOracle",
          "name": "newPriceOracle",
          "type": "address"
        }
      ],
      "name": "NewPriceOracle",
      "type": "event"
    },
    {
      "constant": false,
      "inputs": [
        {
          "internalType": "address[]",
          "name": "cTokens",
          "type": "address[]"
        }
      ],
      "name": "_addCompMarkets",
      "outputs": [],
      "payable": false,
      "stateMutability": "nonpayable",
      "type": "function"
    },
    {
      "constant": false,
      "inputs": [
        {
          "internalType": "contract Unitroller",
          "name": "unitroller",
          "type": "address"
        }
      ],
      "name": "_become",
      "outputs": [],
      "payable": false,
      "stateMutability": "nonpayable",
      "type": "function"
    },
    {
      "constant": true,
      "inputs": [],
      "name": "_borrowGuardianPaused",
      "outputs": [
        {
          "internalType": "bool",
          "name": "",
          "type": "bool"
        }
      ],
      "payable": false,
      "stateMutability": "view",
      "type": "function"
    },
    {
      "constant": false,
      "inputs": [
        {
          "internalType": "address",
          "name": "cToken",
          "type": "address"
        }
      ],
      "name": "_dropCompMarket",
      "outputs": [],
      "payable": false,
      "stateMutability": "nonpayable",
      "type": "function"
    },
    {
      "constant": true,
      "inputs": [],
      "name": "_mintGuardianPaused",
      "outputs": [
        {
          "internalType": "bool",
          "name": "",
          "type": "bool"
        }
      ],
      "payable": false,
      "stateMutability": "view",
      "type": "function"
    },
    {
      "constant": false,
      "inputs": [
        {
          "internalType": "address",
          "name": "newBorrowCapGuardian",
          "type": "address"
        }
      ],
      "name": "_setBorrowCapGuardian",
      "outputs": [],
      "payable": false,
      "stateMutability": "nonpayable",
      "type": "function"
    },
    {
      "constant": false,
      "inputs": [
        {
          "internalType": "contract CToken",
          "name": "cToken",
          "type": "address"
        },
        {
          "internalType": "bool",
          "name": "state",
          "type": "bool"
        }
      ],
      "name": "_setBorrowPaused",
      "outputs": [
        {
          "internalType": "bool",
          "name": "",
          "type": "bool"
        }
      ],
      "payable": false,
      "stateMutability": "nonpayable",
      "type": "function"
    },
    {
      "constant": false,
      "inputs": [
        {
          "internalType": "uint256",
          "name": "newCloseFactorMantissa",
          "type": "uint256"
        }
      ],
      "name": "_setCloseFactor",
      "outputs": [
        {
          "internalType": "uint256",
          "name": "",
          "type": "uint256"
        }
      ],
      "payable": false,
      "stateMutability": "nonpayable",
      "type": "function"
    },
    {
      "constant": false,
      "inputs": [
        {
          "internalType": "contract CToken",
          "name": "cToken",
          "type": "address"
        },
        {
          "internalType": "uint256",
          "name": "newCollateralFactorMantissa",
          "type": "uint256"
        }
      ],
      "name": "_setCollateralFactor",
      "outputs": [
        {
          "internalType": "uint256",
          "name": "",
          "type": "uint256"
        }
      ],
      "payable": false,
      "stateMutability": "nonpayable",
      "type": "function"
    },
    {
      "constant": false,
      "inputs": [
        {
          "internalType": "uint256",
          "name": "compRate_",
          "type": "uint256"
        }
      ],
      "name": "_setCompRate",
      "outputs": [],
      "payable": false,
      "stateMutability": "nonpayable",
      "type": "function"
    },
    {
      "constant": false,
      "inputs": [
        {
          "internalType": "uint256",
          "name": "newLiquidationIncentiveMantissa",
          "type": "uint256"
        }
      ],
      "name": "_setLiquidationIncentive",
      "outputs": [
        {
          "internalType": "uint256",
          "name": "",
          "type": "uint256"
        }
      ],
      "payable": false,
      "stateMutability": "nonpayable",
      "type": "function"
    },
    {
      "constant": false,
      "inputs": [
        {
          "internalType": "contract CToken[]",
          "name": "cTokens",
          "type": "address[]"
        },
        {
          "internalType": "uint256[]",
          "name": "newBorrowCaps",
          "type": "uint256[]"
        }
      ],
      "name": "_setMarketBorrowCaps",
      "outputs": [],
      "payable": false,
      "stateMutability": "nonpayable",
      "type": "function"
    },
    {
      "constant": false,
      "inputs": [
        {
          "internalType": "uint256",
          "name": "newMaxAssets",
          "type": "uint256"
        }
      ],
      "name": "_setMaxAssets",
      "outputs": [
        {
          "internalType": "uint256",
          "name": "",
          "type": "uint256"
        }
      ],
      "payable": false,
      "stateMutability": "nonpayable",
      "type": "function"
    },
    {
      "constant": false,
      "inputs": [
        {
          "internalType": "contract CToken",
          "name": "cToken",
          "type": "address"
        },
        {
          "internalType": "bool",
          "name": "state",
          "type": "bool"
        }
      ],
      "name": "_setMintPaused",
      "outputs": [
        {
          "internalType": "bool",
          "name": "",
          "type": "bool"
        }
      ],
      "payable": false,
      "stateMutability": "nonpayable",
      "type": "function"
    },
    {
      "constant": false,
      "inputs": [
        {
          "internalType": "address",
          "name": "newPauseGuardian",
          "type": "address"
        }
      ],
      "name": "_setPauseGuardian",
      "outputs": [
        {
          "internalType": "uint256",
          "name": "",
          "type": "uint256"
        }
      ],
      "payable": false,
      "stateMutability": "nonpayable",
      "type": "function"
    },
    {
      "constant": false,
      "inputs": [
        {
          "internalType": "contract PriceOracle",
          "name": "newOracle",
          "type": "address"
        }
      ],
      "name": "_setPriceOracle",
      "outputs": [
        {
          "internalType": "uint256",
          "name": "",
          "type": "uint256"
        }
      ],
      "payable": false,
      "stateMutability": "nonpayable",
      "type": "function"
    },
    {
      "constant": false,
      "inputs": [
        {
          "internalType": "bool",
          "name": "state",
          "type": "bool"
        }
      ],
      "name": "_setSeizePaused",
      "outputs": [
        {
          "internalType": "bool",
          "name": "",
          "type": "bool"
        }
      ],
      "payable": false,
      "stateMutability": "nonpayable",
      "type": "function"
    },
    {
      "constant": false,
      "inputs": [
        {
          "internalType": "bool",
          "name": "state",
          "type": "bool"
        }
      ],
      "name": "_setTransferPaused",
      "outputs": [
        {
          "internalType": "bool",
          "name": "",
          "type": "bool"
        }
      ],
      "payable": false,
      "stateMutability": "nonpayable",
      "type": "function"
    },
    {
      "constant": false,
      "inputs": [
        {
          "internalType": "contract CToken",
          "name": "cToken",
          "type": "address"
        }
      ],
      "name": "_supportMarket",
      "outputs": [
        {
          "internalType": "uint256",
          "name": "",
          "type": "uint256"
        }
      ],
      "payable": false,
      "stateMutability": "nonpayable",
      "type": "function"
    },
    {
      "constant": true,
      "inputs": [
        {
          "internalType": "address",
          "name": "",
          "type": "address"
        },
        {
          "internalType": "uint256",
          "name": "",
          "type": "uint256"
        }
      ],
      "name": "accountAssets",
      "outputs": [
        {
          "internalType": "contract CToken",
          "name": "",
          "type": "address"
        }
      ],
      "payable": false,
      "stateMutability": "view",
      "type": "function"
    },
    {
      "constant": true,
      "inputs": [],
      "name": "admin",
      "outputs": [
        {
          "internalType": "address",
          "name": "",
          "type": "address"
        }
      ],
      "payable": false,
      "stateMutability": "view",
      "type": "function"
    },
    {
      "constant": true,
      "inputs": [
        {
          "internalType": "uint256",
          "name": "",
          "type": "uint256"
        }
      ],
      "name": "allMarkets",
      "outputs": [
        {
          "internalType": "contract CToken",
          "name": "",
          "type": "address"
        }
      ],
      "payable": false,
      "stateMutability": "view",
      "type": "function"
    },
    {
      "constant": false,
      "inputs": [
        {
          "internalType": "address",
          "name": "cToken",
          "type": "address"
        },
        {
          "internalType": "address",
          "name": "borrower",
          "type": "address"
        },
        {
          "internalType": "uint256",
          "name": "borrowAmount",
          "type": "uint256"
        }
      ],
      "name": "borrowAllowed",
      "outputs": [
        {
          "internalType": "uint256",
          "name": "",
          "type": "uint256"
        }
      ],
      "payable": false,
      "stateMutability": "nonpayable",
      "type": "function"
    },
    {
      "constant": true,
      "inputs": [],
      "name": "borrowCapGuardian",
      "outputs": [
        {
          "internalType": "address",
          "name": "",
          "type": "address"
        }
      ],
      "payable": false,
      "stateMutability": "view",
      "type": "function"
    },
    {
      "constant": true,
      "inputs": [
        {
          "internalType": "address",
          "name": "",
          "type": "address"
        }
      ],
      "name": "borrowCaps",
      "outputs": [
        {
          "internalType": "uint256",
          "name": "",
          "type": "uint256"
        }
      ],
      "payable": false,
      "stateMutability": "view",
      "type": "function"
    },
    {
      "constant": true,
      "inputs": [
        {
          "internalType": "address",
          "name": "",
          "type": "address"
        }
      ],
      "name": "borrowGuardianPaused",
      "outputs": [
        {
          "internalType": "bool",
          "name": "",
          "type": "bool"
        }
      ],
      "payable": false,
      "stateMutability": "view",
      "type": "function"
    },
    {
      "constant": false,
      "inputs": [
        {
          "internalType": "address",
          "name": "cToken",
          "type": "address"
        },
        {
          "internalType": "address",
          "name": "borrower",
          "type": "address"
        },
        {
          "internalType": "uint256",
          "name": "borrowAmount",
          "type": "uint256"
        }
      ],
      "name": "borrowVerify",
      "outputs": [],
      "payable": false,
      "stateMutability": "nonpayable",
      "type": "function"
    },
    {
      "constant": true,
      "inputs": [
        {
          "internalType": "address",
          "name": "account",
          "type": "address"
        },
        {
          "internalType": "contract CToken",
          "name": "cToken",
          "type": "address"
        }
      ],
      "name": "checkMembership",
      "outputs": [
        {
          "internalType": "bool",
          "name": "",
          "type": "bool"
        }
      ],
      "payable": false,
      "stateMutability": "view",
      "type": "function"
    },
    {
      "constant": false,
      "inputs": [
        {
          "internalType": "address",
          "name": "holder",
          "type": "address"
        },
        {
          "internalType": "contract CToken[]",
          "name": "cTokens",
          "type": "address[]"
        }
      ],
      "name": "claimComp",
      "outputs": [],
      "payable": false,
      "stateMutability": "nonpayable",
      "type": "function"
    },
    {
      "constant": false,
      "inputs": [
        {
          "internalType": "address[]",
          "name": "holders",
          "type": "address[]"
        },
        {
          "internalType": "contract CToken[]",
          "name": "cTokens",
          "type": "address[]"
        },
        {
          "internalType": "bool",
          "name": "borrowers",
          "type": "bool"
        },
        {
          "internalType": "bool",
          "name": "suppliers",
          "type": "bool"
        }
      ],
      "name": "claimComp",
      "outputs": [],
      "payable": false,
      "stateMutability": "nonpayable",
      "type": "function"
    },
    {
      "constant": false,
      "inputs": [
        {
          "internalType": "address",
          "name": "holder",
          "type": "address"
        }
      ],
      "name": "claimComp",
      "outputs": [],
      "payable": false,
      "stateMutability": "nonpayable",
      "type": "function"
    },
    {
      "constant": true,
      "inputs": [],
      "name": "closeFactorMantissa",
      "outputs": [
        {
          "internalType": "uint256",
          "name": "",
          "type": "uint256"
        }
      ],
      "payable": false,
      "stateMutability": "view",
      "type": "function"
    },
    {
      "constant": true,
      "inputs": [
        {
          "internalType": "address",
          "name": "",
          "type": "address"
        }
      ],
      "name": "compAccrued",
      "outputs": [
        {
          "internalType": "uint256",
          "name": "",
          "type": "uint256"
        }
      ],
      "payable": false,
      "stateMutability": "view",
      "type": "function"
    },
    {
      "constant": true,
      "inputs": [
        {
          "internalType": "address",
          "name": "",
          "type": "address"
        }
      ],
      "name": "compBorrowState",
      "outputs": [
        {
          "internalType": "uint224",
          "name": "index",
          "type": "uint224"
        },
        {
          "internalType": "uint32",
          "name": "block",
          "type": "uint32"
        }
      ],
      "payable": false,
      "stateMutability": "view",
      "type": "function"
    },
    {
      "constant": true,
      "inputs": [
        {
          "internalType": "address",
          "name": "",
          "type": "address"
        },
        {
          "internalType": "address",
          "name": "",
          "type": "address"
        }
      ],
      "name": "compBorrowerIndex",
      "outputs": [
        {
          "internalType": "uint256",
          "name": "",
          "type": "uint256"
        }
      ],
      "payable": false,
      "stateMutability": "view",
      "type": "function"
    },
    {
      "constant": true,
      "inputs": [],
      "name": "compClaimThreshold",
      "outputs": [
        {
          "internalType": "uint256",
          "name": "",
          "type": "uint256"
        }
      ],
      "payable": false,
      "stateMutability": "view",
      "type": "function"
    },
    {
      "constant": true,
      "inputs": [],
      "name": "compInitialIndex",
      "outputs": [
        {
          "internalType": "uint224",
          "name": "",
          "type": "uint224"
        }
      ],
      "payable": false,
      "stateMutability": "view",
      "type": "function"
    },
    {
      "constant": true,
      "inputs": [],
      "name": "compRate",
      "outputs": [
        {
          "internalType": "uint256",
          "name": "",
          "type": "uint256"
        }
      ],
      "payable": false,
      "stateMutability": "view",
      "type": "function"
    },
    {
      "constant": true,
      "inputs": [
        {
          "internalType": "address",
          "name": "",
          "type": "address"
        }
      ],
      "name": "compSpeeds",
      "outputs": [
        {
          "internalType": "uint256",
          "name": "",
          "type": "uint256"
        }
      ],
      "payable": false,
      "stateMutability": "view",
      "type": "function"
    },
    {
      "constant": true,
      "inputs": [
        {
          "internalType": "address",
          "name": "",
          "type": "address"
        },
        {
          "internalType": "address",
          "name": "",
          "type": "address"
        }
      ],
      "name": "compSupplierIndex",
      "outputs": [
        {
          "internalType": "uint256",
          "name": "",
          "type": "uint256"
        }
      ],
      "payable": false,
      "stateMutability": "view",
      "type": "function"
    },
    {
      "constant": true,
      "inputs": [
        {
          "internalType": "address",
          "name": "",
          "type": "address"
        }
      ],
      "name": "compSupplyState",
      "outputs": [
        {
          "internalType": "uint224",
          "name": "index",
          "type": "uint224"
        },
        {
          "internalType": "uint32",
          "name": "block",
          "type": "uint32"
        }
      ],
      "payable": false,
      "stateMutability": "view",
      "type": "function"
    },
    {
      "constant": true,
      "inputs": [],
      "name": "comptrollerImplementation",
      "outputs": [
        {
          "internalType": "address",
          "name": "",
          "type": "address"
        }
      ],
      "payable": false,
      "stateMutability": "view",
      "type": "function"
    },
    {
      "constant": false,
      "inputs": [
        {
          "internalType": "address[]",
          "name": "cTokens",
          "type": "address[]"
        }
      ],
      "name": "enterMarkets",
      "outputs": [
        {
          "internalType": "uint256[]",
          "name": "",
          "type": "uint256[]"
        }
      ],
      "payable": false,
      "stateMutability": "nonpayable",
      "type": "function"
    },
    {
      "constant": false,
      "inputs": [
        {
          "internalType": "address",
          "name": "cTokenAddress",
          "type": "address"
        }
      ],
      "name": "exitMarket",
      "outputs": [
        {
          "internalType": "uint256",
          "name": "",
          "type": "uint256"
        }
      ],
      "payable": false,
      "stateMutability": "nonpayable",
      "type": "function"
    },
    {
      "constant": true,
      "inputs": [
        {
          "internalType": "address",
          "name": "account",
          "type": "address"
        }
      ],
      "name": "getAccountLiquidity",
      "outputs": [
        {
          "internalType": "uint256",
          "name": "",
          "type": "uint256"
        },
        {
          "internalType": "uint256",
          "name": "",
          "type": "uint256"
        },
        {
          "internalType": "uint256",
          "name": "",
          "type": "uint256"
        }
      ],
      "payable": false,
      "stateMutability": "view",
      "type": "function"
    },
    {
      "constant": true,
      "inputs": [],
      "name": "getAllMarkets",
      "outputs": [
        {
          "internalType": "contract CToken[]",
          "name": "",
          "type": "address[]"
        }
      ],
      "payable": false,
      "stateMutability": "view",
      "type": "function"
    },
    {
      "constant": true,
      "inputs": [
        {
          "internalType": "address",
          "name": "account",
          "type": "address"
        }
      ],
      "name": "getAssetsIn",
      "outputs": [
        {
          "internalType": "contract CToken[]",
          "name": "",
          "type": "address[]"
        }
      ],
      "payable": false,
      "stateMutability": "view",
      "type": "function"
    },
    {
      "constant": true,
      "inputs": [],
      "name": "getBlockNumber",
      "outputs": [
        {
          "internalType": "uint256",
          "name": "",
          "type": "uint256"
        }
      ],
      "payable": false,
      "stateMutability": "view",
      "type": "function"
    },
    {
      "constant": true,
      "inputs": [],
      "name": "getCompAddress",
      "outputs": [
        {
          "internalType": "address",
          "name": "",
          "type": "address"
        }
      ],
      "payable": false,
      "stateMutability": "view",
      "type": "function"
    },
    {
      "constant": true,
      "inputs": [
        {
          "internalType": "address",
          "name": "account",
          "type": "address"
        },
        {
          "internalType": "address",
          "name": "cTokenModify",
          "type": "address"
        },
        {
          "internalType": "uint256",
          "name": "redeemTokens",
          "type": "uint256"
        },
        {
          "internalType": "uint256",
          "name": "borrowAmount",
          "type": "uint256"
        }
      ],
      "name": "getHypotheticalAccountLiquidity",
      "outputs": [
        {
          "internalType": "uint256",
          "name": "",
          "type": "uint256"
        },
        {
          "internalType": "uint256",
          "name": "",
          "type": "uint256"
        },
        {
          "internalType": "uint256",
          "name": "",
          "type": "uint256"
        }
      ],
      "payable": false,
      "stateMutability": "view",
      "type": "function"
    },
    {
      "constant": true,
      "inputs": [],
      "name": "isComptroller",
      "outputs": [
        {
          "internalType": "bool",
          "name": "",
          "type": "bool"
        }
      ],
      "payable": false,
      "stateMutability": "view",
      "type": "function"
    },
    {
      "constant": false,
      "inputs": [
        {
          "internalType": "address",
          "name": "cTokenBorrowed",
          "type": "address"
        },
        {
          "internalType": "address",
          "name": "cTokenCollateral",
          "type": "address"
        },
        {
          "internalType": "address",
          "name": "liquidator",
          "type": "address"
        },
        {
          "internalType": "address",
          "name": "borrower",
          "type": "address"
        },
        {
          "internalType": "uint256",
          "name": "repayAmount",
          "type": "uint256"
        }
      ],
      "name": "liquidateBorrowAllowed",
      "outputs": [
        {
          "internalType": "uint256",
          "name": "",
          "type": "uint256"
        }
      ],
      "payable": false,
      "stateMutability": "nonpayable",
      "type": "function"
    },
    {
      "constant": false,
      "inputs": [
        {
          "internalType": "address",
          "name": "cTokenBorrowed",
          "type": "address"
        },
        {
          "internalType": "address",
          "name": "cTokenCollateral",
          "type": "address"
        },
        {
          "internalType": "address",
          "name": "liquidator",
          "type": "address"
        },
        {
          "internalType": "address",
          "name": "borrower",
          "type": "address"
        },
        {
          "internalType": "uint256",
          "name": "actualRepayAmount",
          "type": "uint256"
        },
        {
          "internalType": "uint256",
          "name": "seizeTokens",
          "type": "uint256"
        }
      ],
      "name": "liquidateBorrowVerify",
      "outputs": [],
      "payable": false,
      "stateMutability": "nonpayable",
      "type": "function"
    },
    {
      "constant": true,
      "inputs": [
        {
          "internalType": "address",
          "name": "cTokenBorrowed",
          "type": "address"
        },
        {
          "internalType": "address",
          "name": "cTokenCollateral",
          "type": "address"
        },
        {
          "internalType": "uint256",
          "name": "actualRepayAmount",
          "type": "uint256"
        }
      ],
      "name": "liquidateCalculateSeizeTokens",
      "outputs": [
        {
          "internalType": "uint256",
          "name": "",
          "type": "uint256"
        },
        {
          "internalType": "uint256",
          "name": "",
          "type": "uint256"
        }
      ],
      "payable": false,
      "stateMutability": "view",
      "type": "function"
    },
    {
      "constant": true,
      "inputs": [],
      "name": "liquidationIncentiveMantissa",
      "outputs": [
        {
          "internalType": "uint256",
          "name": "",
          "type": "uint256"
        }
      ],
      "payable": false,
      "stateMutability": "view",
      "type": "function"
    },
    {
      "constant": true,
      "inputs": [
        {
          "internalType": "address",
          "name": "",
          "type": "address"
        }
      ],
      "name": "markets",
      "outputs": [
        {
          "internalType": "bool",
          "name": "isListed",
          "type": "bool"
        },
        {
          "internalType": "uint256",
          "name": "collateralFactorMantissa",
          "type": "uint256"
        },
        {
          "internalType": "bool",
          "name": "isComped",
          "type": "bool"
        }
      ],
      "payable": false,
      "stateMutability": "view",
      "type": "function"
    },
    {
      "constant": true,
      "inputs": [],
      "name": "maxAssets",
      "outputs": [
        {
          "internalType": "uint256",
          "name": "",
          "type": "uint256"
        }
      ],
      "payable": false,
      "stateMutability": "view",
      "type": "function"
    },
    {
      "constant": false,
      "inputs": [
        {
          "internalType": "address",
          "name": "cToken",
          "type": "address"
        },
        {
          "internalType": "address",
          "name": "minter",
          "type": "address"
        },
        {
          "internalType": "uint256",
          "name": "mintAmount",
          "type": "uint256"
        }
      ],
      "name": "mintAllowed",
      "outputs": [
        {
          "internalType": "uint256",
          "name": "",
          "type": "uint256"
        }
      ],
      "payable": false,
      "stateMutability": "nonpayable",
      "type": "function"
    },
    {
      "constant": true,
      "inputs": [
        {
          "internalType": "address",
          "name": "",
          "type": "address"
        }
      ],
      "name": "mintGuardianPaused",
      "outputs": [
        {
          "internalType": "bool",
          "name": "",
          "type": "bool"
        }
      ],
      "payable": false,
      "stateMutability": "view",
      "type": "function"
    },
    {
      "constant": false,
      "inputs": [
        {
          "internalType": "address",
          "name": "cToken",
          "type": "address"
        },
        {
          "internalType": "address",
          "name": "minter",
          "type": "address"
        },
        {
          "internalType": "uint256",
          "name": "actualMintAmount",
          "type": "uint256"
        },
        {
          "internalType": "uint256",
          "name": "mintTokens",
          "type": "uint256"
        }
      ],
      "name": "mintVerify",
      "outputs": [],
      "payable": false,
      "stateMutability": "nonpayable",
      "type": "function"
    },
    {
      "constant": true,
      "inputs": [],
      "name": "oracle",
      "outputs": [
        {
          "internalType": "contract PriceOracle",
          "name": "",
          "type": "address"
        }
      ],
      "payable": false,
      "stateMutability": "view",
      "type": "function"
    },
    {
      "constant": true,
      "inputs": [],
      "name": "pauseGuardian",
      "outputs": [
        {
          "internalType": "address",
          "name": "",
          "type": "address"
        }
      ],
      "payable": false,
      "stateMutability": "view",
      "type": "function"
    },
    {
      "constant": true,
      "inputs": [],
      "name": "pendingAdmin",
      "outputs": [
        {
          "internalType": "address",
          "name": "",
          "type": "address"
        }
      ],
      "payable": false,
      "stateMutability": "view",
      "type": "function"
    },
    {
      "constant": true,
      "inputs": [],
      "name": "pendingComptrollerImplementation",
      "outputs": [
        {
          "internalType": "address",
          "name": "",
          "type": "address"
        }
      ],
      "payable": false,
      "stateMutability": "view",
      "type": "function"
    },
    {
      "constant": false,
      "inputs": [
        {
          "internalType": "address",
          "name": "cToken",
          "type": "address"
        },
        {
          "internalType": "address",
          "name": "redeemer",
          "type": "address"
        },
        {
          "internalType": "uint256",
          "name": "redeemTokens",
          "type": "uint256"
        }
      ],
      "name": "redeemAllowed",
      "outputs": [
        {
          "internalType": "uint256",
          "name": "",
          "type": "uint256"
        }
      ],
      "payable": false,
      "stateMutability": "nonpayable",
      "type": "function"
    },
    {
      "constant": false,
      "inputs": [
        {
          "internalType": "address",
          "name": "cToken",
          "type": "address"
        },
        {
          "internalType": "address",
          "name": "redeemer",
          "type": "address"
        },
        {
          "internalType": "uint256",
          "name": "redeemAmount",
          "type": "uint256"
        },
        {
          "internalType": "uint256",
          "name": "redeemTokens",
          "type": "uint256"
        }
      ],
      "name": "redeemVerify",
      "outputs": [],
      "payable": false,
      "stateMutability": "nonpayable",
      "type": "function"
    },
    {
      "constant": false,
      "inputs": [],
      "name": "refreshCompSpeeds",
      "outputs": [],
      "payable": false,
      "stateMutability": "nonpayable",
      "type": "function"
    },
    {
      "constant": false,
      "inputs": [
        {
          "internalType": "address",
          "name": "cToken",
          "type": "address"
        },
        {
          "internalType": "address",
          "name": "payer",
          "type": "address"
        },
        {
          "internalType": "address",
          "name": "borrower",
          "type": "address"
        },
        {
          "internalType": "uint256",
          "name": "repayAmount",
          "type": "uint256"
        }
      ],
      "name": "repayBorrowAllowed",
      "outputs": [
        {
          "internalType": "uint256",
          "name": "",
          "type": "uint256"
        }
      ],
      "payable": false,
      "stateMutability": "nonpayable",
      "type": "function"
    },
    {
      "constant": false,
      "inputs": [
        {
          "internalType": "address",
          "name": "cToken",
          "type": "address"
        },
        {
          "internalType": "address",
          "name": "payer",
          "type": "address"
        },
        {
          "internalType": "address",
          "name": "borrower",
          "type": "address"
        },
        {
          "internalType": "uint256",
          "name": "actualRepayAmount",
          "type": "uint256"
        },
        {
          "internalType": "uint256",
          "name": "borrowerIndex",
          "type": "uint256"
        }
      ],
      "name": "repayBorrowVerify",
      "outputs": [],
      "payable": false,
      "stateMutability": "nonpayable",
      "type": "function"
    },
    {
      "constant": false,
      "inputs": [
        {
          "internalType": "address",
          "name": "cTokenCollateral",
          "type": "address"
        },
        {
          "internalType": "address",
          "name": "cTokenBorrowed",
          "type": "address"
        },
        {
          "internalType": "address",
          "name": "liquidator",
          "type": "address"
        },
        {
          "internalType": "address",
          "name": "borrower",
          "type": "address"
        },
        {
          "internalType": "uint256",
          "name": "seizeTokens",
          "type": "uint256"
        }
      ],
      "name": "seizeAllowed",
      "outputs": [
        {
          "internalType": "uint256",
          "name": "",
          "type": "uint256"
        }
      ],
      "payable": false,
      "stateMutability": "nonpayable",
      "type": "function"
    },
    {
      "constant": true,
      "inputs": [],
      "name": "seizeGuardianPaused",
      "outputs": [
        {
          "internalType": "bool",
          "name": "",
          "type": "bool"
        }
      ],
      "payable": false,
      "stateMutability": "view",
      "type": "function"
    },
    {
      "constant": false,
      "inputs": [
        {
          "internalType": "address",
          "name": "cTokenCollateral",
          "type": "address"
        },
        {
          "internalType": "address",
          "name": "cTokenBorrowed",
          "type": "address"
        },
        {
          "internalType": "address",
          "name": "liquidator",
          "type": "address"
        },
        {
          "internalType": "address",
          "name": "borrower",
          "type": "address"
        },
        {
          "internalType": "uint256",
          "name": "seizeTokens",
          "type": "uint256"
        }
      ],
      "name": "seizeVerify",
      "outputs": [],
      "payable": false,
      "stateMutability": "nonpayable",
      "type": "function"
    },
    {
      "constant": false,
      "inputs": [
        {
          "internalType": "address",
          "name": "cToken",
          "type": "address"
        },
        {
          "internalType": "address",
          "name": "src",
          "type": "address"
        },
        {
          "internalType": "address",
          "name": "dst",
          "type": "address"
        },
        {
          "internalType": "uint256",
          "name": "transferTokens",
          "type": "uint256"
        }
      ],
      "name": "transferAllowed",
      "outputs": [
        {
          "internalType": "uint256",
          "name": "",
          "type": "uint256"
        }
      ],
      "payable": false,
      "stateMutability": "nonpayable",
      "type": "function"
    },
    {
      "constant": true,
      "inputs": [],
      "name": "transferGuardianPaused",
      "outputs": [
        {
          "internalType": "bool",
          "name": "",
          "type": "bool"
        }
      ],
      "payable": false,
      "stateMutability": "view",
      "type": "function"
    },
    {
      "constant": false,
      "inputs": [
        {
          "internalType": "address",
          "name": "cToken",
          "type": "address"
        },
        {
          "internalType": "address",
          "name": "src",
          "type": "address"
        },
        {
          "internalType": "address",
          "name": "dst",
          "type": "address"
        },
        {
          "internalType": "uint256",
          "name": "transferTokens",
          "type": "uint256"
        }
      ],
      "name": "transferVerify",
      "outputs": [],
      "payable": false,
      "stateMutability": "nonpayable",
      "type": "function"
    },
    {
      "constant": true,
      "inputs": [],
      "name": "tropAddress",
      "outputs": [
        {
          "internalType": "address",
          "name": "",
          "type": "address"
        }
      ],
      "payable": false,
      "stateMutability": "view",
      "type": "function"
    }
  ],
  "bytecode": "0x608060405234801561001057600080fd5b50600080546001600160a01b03191633179055615c6880620000336000396000f3fe608060405234801561001057600080fd5b50600436106104535760003560e01c80636d35bf9111610241578063bdcdc2581161013b578063da3d454c116100c3578063e875544611610087578063e87554461461121b578063e9af029214611223578063eabe7d9114611249578063ede4edd01461127f578063f851a440146112a557610453565b8063da3d454c1461117d578063dce15449146111b3578063dcfbc0c7146111df578063e4028eee146111e7578063e6653f3d1461121357610453565b8063cc7ebdc41161010a578063cc7ebdc41461104b578063ce485c5e14611071578063d02f735114611112578063d9226ced14611158578063d9bbdf381461117557610453565b8063bdcdc25814610ef1578063c299823814610f2d578063c488847b14610fce578063ca0af0431461101d57610453565b806394b2294b116101c9578063abfceffc1161018d578063abfceffc14610e35578063ac0b0bb714610eab578063b0772d0b14610eb3578063b21be7fd14610ebb578063bb82aa5e14610ee957610453565b806394b2294b14610dd35780639d1b5a0a14610ddb578063a76b3fda14610de3578063a7f0e23114610e09578063aa90075414610e2d57610453565b806387f763031161021057806387f7630314610d105780638c57804e14610d185780638e8f294b14610d3e5780638ebf636414610d86578063929fe9a114610da557610453565b80636d35bf9114610c94578063731f0c2b14610cda578063747026c914610d005780637dc0d1d014610d0857610453565b80634a584432116103525780635c778605116102da5780636810dfa61161029e5780636810dfa614610a9b5780636a49111214610bc75780636a56947e14610be45780636b79c38d14610c205780636d154ea514610c6e57610453565b80635c778605146109155780635ec88c791461094b5780635f5af1aa146109715780635fc7e71e14610997578063607ef6c1146109dd57610453565b80634ef4c3e1116103215780634ef4c3e1146108435780634fd42e171461087957806351dff9891461089657806352d84d1e146108d257806355ee1fe1146108ef57610453565b80634a584432146107b35780634ada90af146107d95780634d8e5037146107e15780634e79238f146107e957610453565b806326782247116103e05780633bcf7ec1116103a45780633bcf7ec1146106ed5780633c94786f1461071b57806341c728b91461072357806342cbb15c1461075f57806347ef3b3b1461076757610453565b8063267822471461065d5780632d70db7814610665578063317b0b7714610684578063391957d7146106a15780633aa729b4146106c757610453565b80631d7b33d7116104275780631d7b33d71461057b5780631ededc91146105b357806321af4569146105f557806324008a621461061957806324a3d6221461065557610453565b80627e3dd21461045857806318c882a5146104745780631c3db2e0146104a25780631d504dc614610555575b600080fd5b6104606112ad565b604080519115158252519081900360200190f35b6104606004803603604081101561048a57600080fd5b506001600160a01b03813516906020013515156112b2565b610553600480360360408110156104b857600080fd5b6001600160a01b038235169190810190604081016020820135600160201b8111156104e257600080fd5b8201836020820111156104f457600080fd5b803590602001918460208302840111600160201b8311171561051557600080fd5b919080806020026020016040519081016040528093929190818152602001838360200280828437600092019190915250929550611437945050505050565b005b6105536004803603602081101561056b57600080fd5b50356001600160a01b0316611499565b6105a16004803603602081101561059157600080fd5b50356001600160a01b03166115e2565b60408051918252519081900360200190f35b610553600480360360a08110156105c957600080fd5b506001600160a01b038135811691602081013582169160408201351690606081013590608001356115f4565b6105fd6115fb565b604080516001600160a01b039092168252519081900360200190f35b6105a16004803603608081101561062f57600080fd5b506001600160a01b0381358116916020810135821691604082013516906060013561160a565b6105fd6116d3565b6105fd6116e2565b6104606004803603602081101561067b57600080fd5b503515156116f1565b6105a16004803603602081101561069a57600080fd5b5035611814565b610553600480360360208110156106b757600080fd5b50356001600160a01b0316611925565b610553600480360360208110156106dd57600080fd5b50356001600160a01b03166119cd565b6104606004803603604081101561070357600080fd5b506001600160a01b0381351690602001351515611aca565b610460611c4a565b6105536004803603608081101561073957600080fd5b506001600160a01b03813581169160208101359091169060408101359060600135611c5a565b6105a1611c60565b610553600480360360c081101561077d57600080fd5b506001600160a01b0381358116916020810135821691604082013581169160608101359091169060808101359060a00135611c65565b6105a1600480360360208110156107c957600080fd5b50356001600160a01b0316611c6d565b6105a1611c7f565b610553611c85565b610825600480360360808110156107ff57600080fd5b506001600160a01b03813581169160208101359091169060408101359060600135611cc9565b60408051938452602084019290925282820152519081900360600190f35b6105a16004803603606081101561085957600080fd5b506001600160a01b03813581169160208101359091169060400135611d03565b6105a16004803603602081101561088f57600080fd5b5035611da2565b610553600480360360808110156108ac57600080fd5b506001600160a01b03813581169160208101359091169060408101359060600135611e96565b6105fd600480360360208110156108e857600080fd5b5035611edb565b6105a16004803603602081101561090557600080fd5b50356001600160a01b0316611f02565b6105536004803603606081101561092b57600080fd5b506001600160a01b03813581169160208101359091169060400135611f89565b6108256004803603602081101561096157600080fd5b50356001600160a01b0316611f8e565b6105a16004803603602081101561098757600080fd5b50356001600160a01b0316611fc3565b6105a1600480360360a08110156109ad57600080fd5b506001600160a01b0381358116916020810135821691604082013581169160608101359091169060800135612047565b610553600480360360408110156109f357600080fd5b810190602081018135600160201b811115610a0d57600080fd5b820183602082011115610a1f57600080fd5b803590602001918460208302840111600160201b83111715610a4057600080fd5b919390929091602081019035600160201b811115610a5d57600080fd5b820183602082011115610a6f57600080fd5b803590602001918460208302840111600160201b83111715610a9057600080fd5b5090925090506121ce565b61055360048036036080811015610ab157600080fd5b810190602081018135600160201b811115610acb57600080fd5b820183602082011115610add57600080fd5b803590602001918460208302840111600160201b83111715610afe57600080fd5b9190808060200260200160405190810160405280939291908181526020018383602002808284376000920191909152509295949360208101935035915050600160201b811115610b4d57600080fd5b820183602082011115610b5f57600080fd5b803590602001918460208302840111600160201b83111715610b8057600080fd5b919080806020026020016040519081016040528093929190818152602001838360200280828437600092019190915250929550505050803515159150602001351515612350565b61055360048036036020811015610bdd57600080fd5b50356124f9565b61055360048036036080811015610bfa57600080fd5b506001600160a01b03813581169160208101358216916040820135169060600135611c5a565b610c4660048036036020811015610c3657600080fd5b50356001600160a01b0316612583565b604080516001600160e01b03909316835263ffffffff90911660208301528051918290030190f35b61046060048036036020811015610c8457600080fd5b50356001600160a01b03166125ad565b610553600480360360a0811015610caa57600080fd5b506001600160a01b03813581169160208101358216916040820135811691606081013590911690608001356115f4565b61046060048036036020811015610cf057600080fd5b50356001600160a01b03166125c2565b6105a16125d7565b6105fd6125e2565b6104606125f1565b610c4660048036036020811015610d2e57600080fd5b50356001600160a01b0316612601565b610d6460048036036020811015610d5457600080fd5b50356001600160a01b031661262b565b6040805193151584526020840192909252151582820152519081900360600190f35b61046060048036036020811015610d9c57600080fd5b50351515612651565b61046060048036036040811015610dbb57600080fd5b506001600160a01b0381358116916020013516612773565b6105a16127a6565b6105fd6127ac565b6105a160048036036020811015610df957600080fd5b50356001600160a01b03166127c4565b610e11612921565b604080516001600160e01b039092168252519081900360200190f35b6105a1612934565b610e5b60048036036020811015610e4b57600080fd5b50356001600160a01b031661293a565b60408051602080825283518183015283519192839290830191858101910280838360005b83811015610e97578181015183820152602001610e7f565b505050509050019250505060405180910390f35b6104606129c3565b610e5b6129d3565b6105a160048036036040811015610ed157600080fd5b506001600160a01b0381358116916020013516612a35565b6105fd612a52565b6105a160048036036080811015610f0757600080fd5b506001600160a01b03813581169160208101358216916040820135169060600135612a61565b610e5b60048036036020811015610f4357600080fd5b810190602081018135600160201b811115610f5d57600080fd5b820183602082011115610f6f57600080fd5b803590602001918460208302840111600160201b83111715610f9057600080fd5b919080806020026020016040519081016040528093929190818152602001838360200280828437600092019190915250929550612ae5945050505050565b61100460048036036060811015610fe457600080fd5b506001600160a01b03813581169160208101359091169060400135612b7c565b6040805192835260208301919091528051918290030190f35b6105a16004803603604081101561103357600080fd5b506001600160a01b0381358116916020013516612df1565b6105a16004803603602081101561106157600080fd5b50356001600160a01b0316612e0e565b6105536004803603602081101561108757600080fd5b810190602081018135600160201b8111156110a157600080fd5b8201836020820111156110b357600080fd5b803590602001918460208302840111600160201b831117156110d457600080fd5b919080806020026020016040519081016040528093929190818152602001838360200280828437600092019190915250929550612e20945050505050565b6105a1600480360360a081101561112857600080fd5b506001600160a01b0381358116916020810135821691604082013581169160608101359091169060800135612e98565b6105a16004803603602081101561116e57600080fd5b5035613043565b6105fd6130ac565b6105a16004803603606081101561119357600080fd5b506001600160a01b038135811691602081013590911690604001356130bb565b6105fd600480360360408110156111c957600080fd5b506001600160a01b0381351690602001356134a5565b6105fd6134da565b6105a1600480360360408110156111fd57600080fd5b506001600160a01b0381351690602001356134e9565b610460613699565b6105a16136a9565b6105536004803603602081101561123957600080fd5b50356001600160a01b03166136af565b6105a16004803603606081101561125f57600080fd5b506001600160a01b03813581169160208101359091169060400135613713565b6105a16004803603602081101561129557600080fd5b50356001600160a01b0316613750565b6105fd613a5e565b600181565b6001600160a01b03821660009081526009602052604081205460ff16611305576040805162461bcd60e51b815260206004820152600360248201526210cc4d60ea1b604482015290519081900360640190fd5b600a546001600160a01b031633148061132857506000546001600160a01b031633145b61135f576040805162461bcd60e51b815260206004820152600360248201526243313560e81b604482015290519081900360640190fd5b6000546001600160a01b031633148061137a57506001821515145b6113b1576040805162461bcd60e51b815260206004820152600360248201526221989b60e91b604482015290519081900360640190fd5b6001600160a01b0383166000818152600c6020908152604091829020805486151560ff199091168117909155825193845283830152606090830181905260069083015265426f72726f7760d01b6080830152517f71aec636243f9709bb0007ae15e9afb8150ab01716d75fd7573be5cc096e03b09181900360a00190a150805b92915050565b60408051600180825281830190925260609160208083019080388339019050509050828160008151811061146757fe5b60200260200101906001600160a01b031690816001600160a01b0316815250506114948183600180612350565b505050565b806001600160a01b031663f851a4406040518163ffffffff1660e01b815260040160206040518083038186803b1580156114d257600080fd5b505afa1580156114e6573d6000803e3d6000fd5b505050506040513d60208110156114fc57600080fd5b50516001600160a01b03163314611540576040805162461bcd60e51b815260206004820152600360248201526243313760e81b604482015290519081900360640190fd5b806001600160a01b031663c1e803346040518163ffffffff1660e01b8152600401602060405180830381600087803b15801561157b57600080fd5b505af115801561158f573d6000803e3d6000fd5b505050506040513d60208110156115a557600080fd5b5051156115df576040805162461bcd60e51b815260206004820152600360248201526208662760eb1b604482015290519081900360640190fd5b50565b600f6020526000908152604090205481565b5050505050565b6015546001600160a01b031681565b6001600160a01b03841660009081526009602052604081205460ff16611632575060096116cb565b61163a615b74565b6040518060200160405280876001600160a01b031663aa5af0fd6040518163ffffffff1660e01b815260040160206040518083038186803b15801561167e57600080fd5b505afa158015611692573d6000803e3d6000fd5b505050506040513d60208110156116a857600080fd5b5051905290506116b88682613a6d565b6116c58685836000613ccb565b60009150505b949350505050565b600a546001600160a01b031681565b6001546001600160a01b031681565b600a546000906001600160a01b031633148061171757506000546001600160a01b031633145b61174e576040805162461bcd60e51b815260206004820152600360248201526243313560e81b604482015290519081900360640190fd5b6000546001600160a01b031633148061176957506001821515145b6117a0576040805162461bcd60e51b815260206004820152600360248201526221989b60e91b604482015290519081900360640190fd5b600a8054831515600160b81b810260ff60b81b1990921691909117909155604080516020810192909252808252600582820152645365697a6560d81b6060830152517fef159d9a32b2472e32b098f954f3ce62d232939f1c207070b584df1814de2de09181900360800190a150805b919050565b600080546001600160a01b0316331461183a5761183360016004613eb5565b905061180f565b611842615b74565b506040805160208101909152828152611859615b74565b50604080516020810190915266b1a2bc2ec5000081526118798282613f1b565b1561189257611889600580613eb5565b9250505061180f565b61189a615b74565b506040805160208101909152670c7d713b49da000081526118bb8184613f23565b156118d5576118cb600580613eb5565b935050505061180f565b6005805490869055604080518281526020810188905281517f3b9670cf975d26958e754b57098eaa2ac914d8d2a31b83257997b9f346110fd9929181900390910190a160005b9695505050505050565b6000546001600160a01b0316331461196a576040805162461bcd60e51b815260206004820152600360248201526243313360e81b604482015290519081900360640190fd5b601580546001600160a01b038381166001600160a01b0319831681179093556040805191909216808252602082019390935281517feda98690e518e9a05f8ec6837663e188211b2da8f4906648b323f2c1d4434e29929181900390910190a15050565b6000546001600160a01b03163314611a12576040805162461bcd60e51b815260206004820152600360248201526210cc8d60ea1b604482015290519081900360640190fd5b6001600160a01b0381166000908152600960205260409020600381015460ff161515600114611a6e576040805162461bcd60e51b815260206004820152600360248201526243323560e81b604482015290519081900360640190fd5b60038101805460ff19169055604080516001600160a01b03841681526000602082015281517f93c1f3e36ed71139f466a4ce8c9751790e2e33f5afb2df0dcfb3aeabe55d5aa2929181900390910190a1611ac6613f2a565b5050565b6001600160a01b03821660009081526009602052604081205460ff16611b1d576040805162461bcd60e51b815260206004820152600360248201526210cc4d60ea1b604482015290519081900360640190fd5b600a546001600160a01b0316331480611b4057506000546001600160a01b031633145b611b77576040805162461bcd60e51b815260206004820152600360248201526243313560e81b604482015290519081900360640190fd5b6000546001600160a01b0316331480611b9257506001821515145b611bc9576040805162461bcd60e51b815260206004820152600360248201526221989b60e91b604482015290519081900360640190fd5b6001600160a01b0383166000818152600b6020908152604091829020805486151560ff199091168117909155825193845283830152606090830181905260049083015263135a5b9d60e21b6080830152517f71aec636243f9709bb0007ae15e9afb8150ab01716d75fd7573be5cc096e03b09181900360a00190a150919050565b600a54600160a01b900460ff1681565b50505050565b435b90565b505050505050565b60166020526000908152604090205481565b60065481565b333214611cbf576040805162461bcd60e51b815260206004820152600360248201526243313960e81b604482015290519081900360640190fd5b611cc7613f2a565b565b600080600080600080611cde8a8a8a8a6142ef565b925092509250826011811115611cf057fe5b95509093509150505b9450945094915050565b6001600160a01b0383166000908152600b602052604081205460ff1615611d56576040805162461bcd60e51b8152602060048201526002602482015261219960f11b604482015290519081900360640190fd5b6001600160a01b03841660009081526009602052604090205460ff16611d805760095b9050611d9b565b611d898461470a565b611d958484600061495e565b60005b90505b9392505050565b600080546001600160a01b03163314611dc1576118336001600b613eb5565b611dc9615b74565b506040805160208101909152828152611de0615b74565b506040805160208101909152670de0b6b3a76400008152611e018282613f23565b15611e12576118896007600c613eb5565b611e1a615b74565b5060408051602081019091526714d1120d7b1600008152611e3b8184613f23565b15611e4c576118cb6007600c613eb5565b6006805490869055604080518281526020810188905281517faeba5a6c40a8ac138134bff1aaa65debf25971188a58804bad717f82f0ec1316929181900390910190a1600061191b565b80158015611ea45750600082115b15611c5a576040805162461bcd60e51b8152602060048201526002602482015261433360f01b604482015290519081900360640190fd5b600d8181548110611ee857fe5b6000918252602090912001546001600160a01b0316905081565b600080546001600160a01b03163314611f215761183360016010613eb5565b600480546001600160a01b038481166001600160a01b0319831681179093556040805191909216808252602082019390935281517fd52b2b9b7e9ee655fcb95d2e5b9e0c9f69e7ef2b8e9d2d0ea78402d576d22e22929181900390910190a160009392505050565b611494565b600080600080600080611fa58760008060006142ef565b925092509250826011811115611fb757fe5b97919650945092505050565b600080546001600160a01b03163314611fe25761183360016013613eb5565b600a80546001600160a01b038481166001600160a01b0319831617928390556040805192821680845293909116602083015280517f0613b6ee6a04f0d09f390e4d9318894b9f6ac7fd83897cd8d18896ba579c401e9281900390910190a16000611d9b565b6001600160a01b03851660009081526009602052604081205460ff16158061208857506001600160a01b03851660009081526009602052604090205460ff16155b156120975760095b90506121c5565b6000806120a385614b56565b919350909150600090508260118111156120b957fe5b146120d3578160118111156120ca57fe5b925050506121c5565b806120df5760036120ca565b6000886001600160a01b03166395dd9193876040518263ffffffff1660e01b815260040180826001600160a01b03166001600160a01b0316815260200191505060206040518083038186803b15801561213757600080fd5b505afa15801561214b573d6000803e3d6000fd5b505050506040513d602081101561216157600080fd5b50516040805160208101909152600554815290915060009081906121859084614b76565b9092509050600082600381111561219857fe5b146121ac57600b5b955050505050506121c5565b808711156121bb5760116121a0565b6000955050505050505b95945050505050565b6000546001600160a01b03163314806121f157506015546001600160a01b031633145b612228576040805162461bcd60e51b815260206004820152600360248201526243313160e81b604482015290519081900360640190fd5b8281811580159061223857508082145b61226f576040805162461bcd60e51b815260206004820152600360248201526221989960e91b604482015290519081900360640190fd5b60005b828110156123475784848281811061228657fe5b905060200201356016600089898581811061229d57fe5b905060200201356001600160a01b03166001600160a01b03166001600160a01b03168152602001908152602001600020819055508686828181106122dd57fe5b905060200201356001600160a01b03166001600160a01b03167f6f1951b2aad10f3fc81b86d91105b413a5b3f847a34bbc5ce1904201b14438f686868481811061232357fe5b905060200201356040518082815260200191505060405180910390a2600101612272565b50505050505050565b60005b83518110156115f457600084828151811061236a57fe5b6020908102919091018101516001600160a01b0381166000908152600990925260409091205490915060ff166123df576040805162461bcd60e51b81526020600482015260156024820152741b585c9ad95d081b5d5cdd081899481b1a5cdd1959605a1b604482015290519081900360640190fd5b600184151514156124a7576123f2615b74565b6040518060200160405280836001600160a01b031663aa5af0fd6040518163ffffffff1660e01b815260040160206040518083038186803b15801561243657600080fd5b505afa15801561244a573d6000803e3d6000fd5b505050506040513d602081101561246057600080fd5b5051905290506124708282613a6d565b60005b87518110156124a45761249c8389838151811061248c57fe5b6020026020010151846001613ccb565b600101612473565b50505b600183151514156124f0576124bb8161470a565b60005b86518110156124ee576124e6828883815181106124d757fe5b6020026020010151600161495e565b6001016124be565b505b50600101612353565b612501614bca565b612538576040805162461bcd60e51b815260206004820152600360248201526221991960e91b604482015290519081900360640190fd5b600e805490829055604080518281526020810184905281517fc227c9272633c3a307d9845bf2bc2509cefb20d655b5f3c1002d8e1e3f22c8b0929181900390910190a1611ac6613f2a565b6010602052600090815260409020546001600160e01b03811690600160e01b900463ffffffff1682565b600c6020526000908152604090205460ff1681565b600b6020526000908152604090205460ff1681565b66038d7ea4c6800081565b6004546001600160a01b031681565b600a54600160b01b900460ff1681565b6011602052600090815260409020546001600160e01b03811690600160e01b900463ffffffff1682565b60096020526000908152604090208054600182015460039092015460ff91821692911683565b600a546000906001600160a01b031633148061267757506000546001600160a01b031633145b6126ae576040805162461bcd60e51b815260206004820152600360248201526243313560e81b604482015290519081900360640190fd5b6000546001600160a01b03163314806126c957506001821515145b612700576040805162461bcd60e51b815260206004820152600360248201526221989b60e91b604482015290519081900360640190fd5b600a8054831515600160b01b810260ff60b01b1990921691909117909155604080516020810192909252808252600882820152672a3930b739b332b960c11b6060830152517fef159d9a32b2472e32b098f954f3ce62d232939f1c207070b584df1814de2de09181900360800190a15090565b6001600160a01b038082166000908152600960209081526040808320938616835260029093019052205460ff1692915050565b60075481565b73c00e94cb662c3520282e6f5717214004a7f2688890565b600080546001600160a01b031633146127e35761183360016012613eb5565b6001600160a01b03821660009081526009602052604090205460ff161561281057611833600a6011613eb5565b816001600160a01b031663fe9c44ae6040518163ffffffff1660e01b815260040160206040518083038186803b15801561284957600080fd5b505afa15801561285d573d6000803e3d6000fd5b505050506040513d602081101561287357600080fd5b5050604080516060810182526001808252600060208381018281528486018381526001600160a01b03891684526009909252949091209251835490151560ff199182161784559351918301919091555160039091018054911515919092161790556128dd82614bf3565b604080516001600160a01b038416815290517fcf583bb0c569eb967f806b11601c4cb93c10310485c67add5f8362c2f212321f9181900360200190a1600092915050565b6ec097ce7bc90715b34b9f100000000081565b600e5481565b60608060086000846001600160a01b03166001600160a01b031681526020019081526020016000208054806020026020016040519081016040528092919081815260200182805480156129b657602002820191906000526020600020905b81546001600160a01b03168152600190910190602001808311612998575b5093979650505050505050565b600a54600160b81b900460ff1681565b6060600d805480602002602001604051908101604052809291908181526020018280548015612a2b57602002820191906000526020600020905b81546001600160a01b03168152600190910190602001808311612a0d575b5050505050905090565b601260209081526000928352604080842090915290825290205481565b6002546001600160a01b031681565b600a54600090600160b01b900460ff1615612aa8576040805162461bcd60e51b8152602060048201526002602482015261433960f01b604482015290519081900360640190fd5b6000612ab5868685614cc0565b90508015612ac45790506116cb565b612acd8661470a565b612ad98686600061495e565b6116c58685600061495e565b6060600082519050606081604051908082528060200260200182016040528015612b19578160200160208202803883390190505b50905060005b82811015612b74576000858281518110612b3557fe5b60200260200101519050612b498133614d6c565b6011811115612b5457fe5b838381518110612b6057fe5b602090810291909101015250600101612b1f565b509392505050565b600480546040805163fc57d4df60e01b81526001600160a01b038781169482019490945290516000938493849391169163fc57d4df91602480820192602092909190829003018186803b158015612bd257600080fd5b505afa158015612be6573d6000803e3d6000fd5b505050506040513d6020811015612bfc57600080fd5b5051600480546040805163fc57d4df60e01b81526001600160a01b038a8116948201949094529051939450600093929091169163fc57d4df91602480820192602092909190829003018186803b158015612c5557600080fd5b505afa158015612c69573d6000803e3d6000fd5b505050506040513d6020811015612c7f57600080fd5b50519050811580612c8e575080155b15612ca357600d935060009250612de9915050565b6000866001600160a01b031663182df0f56040518163ffffffff1660e01b815260040160206040518083038186803b158015612cde57600080fd5b505afa158015612cf2573d6000803e3d6000fd5b505050506040513d6020811015612d0857600080fd5b505190506000612d16615b74565b612d1e615b74565b612d26615b74565b6000612d3460065489614e8d565b945090506000816003811115612d4657fe5b14612d6257600b5b995060009850612de9975050505050505050565b612d6c8787614e8d565b935090506000816003811115612d7e57fe5b14612d8a57600b612d4e565b612d948484614ec8565b925090506000816003811115612da657fe5b14612db257600b612d4e565b612dbc828c614b76565b955090506000816003811115612dce57fe5b14612dda57600b612d4e565b60009950939750505050505050505b935093915050565b601360209081526000928352604080842090915290825290205481565b60146020526000908152604090205481565b612e28614bca565b612e5f576040805162461bcd60e51b815260206004820152600360248201526243323360e81b604482015290519081900360640190fd5b60005b8151811015612e8f57612e87828281518110612e7a57fe5b6020026020010151614ee0565b600101612e62565b506115df613f2a565b600a54600090600160b81b900460ff1615612edf576040805162461bcd60e51b8152602060048201526002602482015261086760f31b604482015290519081900360640190fd5b6001600160a01b03861660009081526009602052604090205460ff161580612f2057506001600160a01b03851660009081526009602052604090205460ff16155b15612f2c576009612090565b846001600160a01b0316635fe3b5676040518163ffffffff1660e01b815260040160206040518083038186803b158015612f6557600080fd5b505afa158015612f79573d6000803e3d6000fd5b505050506040513d6020811015612f8f57600080fd5b505160408051635fe3b56760e01b815290516001600160a01b0392831692891691635fe3b567916004808301926020929190829003018186803b158015612fd557600080fd5b505afa158015612fe9573d6000803e3d6000fd5b505050506040513d6020811015612fff57600080fd5b50516001600160a01b031614613016576002612090565b61301f8661470a565b61302b8684600061495e565b6130378685600061495e565b60009695505050505050565b600080546001600160a01b03163314613062576118336001600d613eb5565b6007805490839055604080518281526020810185905281517f7093cf1eb653f749c3ff531d6df7f92764536a7fa0d13530cd26e070780c32ea929181900390910190a16000611d9b565b6017546001600160a01b031681565b6001600160a01b0383166000908152600c602052604081205460ff161561310e576040805162461bcd60e51b815260206004820152600260248201526110cd60f21b604482015290519081900360640190fd5b6001600160a01b03841660009081526009602052604090205460ff16613135576009611d79565b6001600160a01b038085166000908152600960209081526040808320938716835260029093019052205460ff1661321257336001600160a01b038516146131a8576040805162461bcd60e51b8152602060048201526002602482015261433560f01b604482015290519081900360640190fd5b60006131b43385614d6c565b905060008160118111156131c457fe5b146131dd578060118111156131d557fe5b915050611d9b565b6001600160a01b038086166000908152600960209081526040808320938816835260029093019052205460ff1661321057fe5b505b600480546040805163fc57d4df60e01b81526001600160a01b03888116948201949094529051929091169163fc57d4df91602480820192602092909190829003018186803b15801561326357600080fd5b505afa158015613277573d6000803e3d6000fd5b505050506040513d602081101561328d57600080fd5b505161329a57600d611d79565b6001600160a01b03841660009081526016602052604090205480156133b6576000856001600160a01b03166347bd37186040518163ffffffff1660e01b815260040160206040518083038186803b1580156132f457600080fd5b505afa158015613308573d6000803e3d6000fd5b505050506040513d602081101561331e57600080fd5b5051905060008061332f83876151de565b9092509050600082600381111561334257fe5b14613379576040805162461bcd60e51b8152602060048201526002602482015261219b60f11b604482015290519081900360640190fd5b8381106133b2576040805162461bcd60e51b8152602060048201526002602482015261433760f01b604482015290519081900360640190fd5b5050505b6000806133c686886000886142ef565b919350909150600090508260118111156133dc57fe5b146133f7578160118111156133ed57fe5b9350505050611d9b565b80156134045760046133ed565b61340c615b74565b6040518060200160405280896001600160a01b031663aa5af0fd6040518163ffffffff1660e01b815260040160206040518083038186803b15801561345057600080fd5b505afa158015613464573d6000803e3d6000fd5b505050506040513d602081101561347a57600080fd5b50519052905061348a8882613a6d565b6134978888836000613ccb565b600098975050505050505050565b600860205281600052604060002081815481106134be57fe5b6000918252602090912001546001600160a01b03169150829050565b6003546001600160a01b031681565b600080546001600160a01b0316331461350f5761350860016006613eb5565b9050611431565b6001600160a01b0383166000908152600960205260409020805460ff166135445761353c60096007613eb5565b915050611431565b61354c615b74565b506040805160208101909152838152613563615b74565b506040805160208101909152670c7d713b49da000081526135848183613f23565b1561359f5761359560066008613eb5565b9350505050611431565b84158015906136285750600480546040805163fc57d4df60e01b81526001600160a01b038a8116948201949094529051929091169163fc57d4df91602480820192602092909190829003018186803b1580156135fa57600080fd5b505afa15801561360e573d6000803e3d6000fd5b505050506040513d602081101561362457600080fd5b5051155b1561363957613595600d6009613eb5565b60018301805490869055604080516001600160a01b03891681526020810183905280820188905290517f70483e6592cd5182d45ac970e05bc62cdcc90e9d8ef2c2dbe686cf383bcd7fc59181900360600190a16000979650505050505050565b600a54600160a81b900460ff1681565b60055481565b6115df81600d80548060200260200160405190810160405280929190818152602001828054801561370957602002820191906000526020600020905b81546001600160a01b031681526001909101906020018083116136eb575b5050505050611437565b600080613721858585614cc0565b90508015613730579050611d9b565b6137398561470a565b6137458585600061495e565b600095945050505050565b6000808290506000806000836001600160a01b031663c37f68e2336040518263ffffffff1660e01b815260040180826001600160a01b03166001600160a01b0316815260200191505060806040518083038186803b1580156137b157600080fd5b505afa1580156137c5573d6000803e3d6000fd5b505050506040513d60808110156137db57600080fd5b508051602082015160409092015190945090925090508215613829576040805162461bcd60e51b8152602060048201526002602482015261433160f01b604482015290519081900360640190fd5b80156138465761383b600c6002613eb5565b94505050505061180f565b6000613853873385614cc0565b9050801561387457613868600e600383615204565b9550505050505061180f565b6001600160a01b0385166000908152600960209081526040808320338452600281019092529091205460ff166138b3576000965050505050505061180f565b3360009081526002820160209081526040808320805460ff19169055600882529182902080548351818402810184019094528084526060939283018282801561392557602002820191906000526020600020905b81546001600160a01b03168152600190910190602001808311613907575b5050835193945083925060009150505b8281101561397a57896001600160a01b031684828151811061395357fe5b60200260200101516001600160a01b031614156139725780915061397a565b600101613935565b5081811061398457fe5b3360009081526008602052604090208054819060001981019081106139a557fe5b9060005260206000200160009054906101000a90046001600160a01b03168183815481106139cf57fe5b600091825260209091200180546001600160a01b0319166001600160a01b03929092169190911790558054613a08826000198301615b87565b50604080516001600160a01b038c16815233602082015281517fe699a64c18b07ac5b7301aa273f36a2287239eb9501d81950672794afba29a0d929181900390910190a160009c9b505050505050505050505050565b6000546001600160a01b031681565b6001600160a01b0382166000908152601160209081526040808320600f9092528220549091613a9a611c60565b8354909150600090613aba908390600160e01b900463ffffffff1661526a565b9050600081118015613acc5750600083115b15613c79576000613b41876001600160a01b03166347bd37186040518163ffffffff1660e01b815260040160206040518083038186803b158015613b0f57600080fd5b505afa158015613b23573d6000803e3d6000fd5b505050506040513d6020811015613b3957600080fd5b5051876152a4565b90506000613b4f83866152c2565b9050613b59615b74565b60008311613b765760405180602001604052806000815250613b80565b613b808284615304565b9050613b8a615b74565b604080516020810190915288546001600160e01b03168152613bac9083615342565b90506040518060400160405280613be283600001516040518060400160405280600381526020016204332360ec1b815250615367565b6001600160e01b03168152602001613c15886040518060400160405280600381526020016243323160e81b815250615401565b63ffffffff9081169091526001600160a01b038c166000908152601160209081526040909120835181549490920151909216600160e01b026001600160e01b039182166001600160e01b0319909416939093171691909117905550611c6592505050565b8015611c6557613ca4826040518060400160405280600381526020016243323160e81b815250615401565b845463ffffffff91909116600160e01b026001600160e01b03909116178455505050505050565b6001600160a01b0384166000908152601160205260409020613ceb615b74565b50604080516020810190915281546001600160e01b03168152613d0c615b74565b5060408051602080820183526001600160a01b03808a16600090815260138352848120918a168082528284529481208054855286519590915291529190915580511561234757613d5a615b74565b613d648383615456565b90506000613df3896001600160a01b03166395dd91938a6040518263ffffffff1660e01b815260040180826001600160a01b03166001600160a01b0316815260200191505060206040518083038186803b158015613dc157600080fd5b505afa158015613dd5573d6000803e3d6000fd5b505050506040513d6020811015613deb57600080fd5b5051886152a4565b90506000613e01828461547b565b6001600160a01b038a1660009081526014602052604081205491925090613e2890836154aa565b9050613e498a828a613e415766038d7ea4c68000613e44565b60005b6154e0565b6001600160a01b03808c1660008181526014602090815260409182902094909455895181518781529485015280519193928f16927f1fc3ecc087d8d2d15e23d0032af5a47059c3892d003d8e139fdcb6bb327c99a6929081900390910190a35050505050505050505050565b60007f45b96fe442630264581b197e84bbada861235052c5a1aadfff9ea4e40a969aa0836011811115613ee457fe5b836013811115613ef057fe5b604080519283526020830191909152600082820152519081900360600190a1826011811115611d9b57fe5b519051111590565b5190511090565b6060600d805480602002602001604051908101604052809291908181526020018280548015613f8257602002820191906000526020600020905b81546001600160a01b03168152600190910190602001808311613f64575b50939450600093505050505b8151811015614048576000828281518110613fa557fe5b60200260200101519050613fb7615b74565b6040518060200160405280836001600160a01b031663aa5af0fd6040518163ffffffff1660e01b815260040160206040518083038186803b158015613ffb57600080fd5b505afa15801561400f573d6000803e3d6000fd5b505050506040513d602081101561402557600080fd5b5051905290506140348261470a565b61403e8282613a6d565b5050600101613f8e565b50614051615b74565b604051806020016040528060008152509050606082516040519080825280602002602001820160405280156140a057816020015b61408d615b74565b8152602001906001900390816140855790505b50905060005b83518110156142265760008482815181106140bd57fe5b6020908102919091018101516001600160a01b0381166000908152600990925260409091206003015490915060ff161561421d576140f9615b74565b60408051602080820180845260045463fc57d4df60e01b9091526001600160a01b03868116602485015293519293849391169163fc57d4df916044808601929190818703018186803b15801561414e57600080fd5b505afa158015614162573d6000803e3d6000fd5b505050506040513d602081101561417857600080fd5b505190529050614186615b74565b6141f482846001600160a01b03166347bd37186040518163ffffffff1660e01b815260040160206040518083038186803b1580156141c357600080fd5b505afa1580156141d7573d6000803e3d6000fd5b505050506040513d60208110156141ed57600080fd5b5051615625565b90508085858151811061420357fe5b60200260200101819052506142188682615342565b955050505b506001016140a6565b5060005b8351811015611c5a576000600d828154811061424257fe5b600091825260208220015485516001600160a01b03909116925061426757600061428f565b61428f600e5461428a86868151811061427c57fe5b602002602001015188615646565b615679565b6001600160a01b0383166000818152600f60209081526040918290208490558151848152915193945091927f2ab93f65628379309f36cb125e90d7c902454a545c4f8b8cb0794af75c24b807929181900390910190a2505060010161422a565b60008060006142fc615bab565b6001600160a01b03881660009081526008602090815260408083208054825181850281018501909352808352849360609392919083018282801561436957602002820191906000526020600020905b81546001600160a01b0316815260019091019060200180831161434b575b50939450600093505050505b81518110156146c557600082828151811061438c57fe5b60200260200101519050806001600160a01b031663c37f68e28e6040518263ffffffff1660e01b815260040180826001600160a01b03166001600160a01b0316815260200191505060806040518083038186803b1580156143ec57600080fd5b505afa158015614400573d6000803e3d6000fd5b505050506040513d608081101561441657600080fd5b508051602082015160408084015160609485015160808c0152938a0193909352918801919091529450841561445c5750600f975060009650869550611cf9945050505050565b60408051602080820183526001600160a01b0380851660008181526009845285902060010154845260c08b01939093528351808301855260808b0151815260e08b015260048054855163fc57d4df60e01b815291820194909452935192169263fc57d4df9260248083019392829003018186803b1580156144dc57600080fd5b505afa1580156144f0573d6000803e3d6000fd5b505050506040513d602081101561450657600080fd5b505160a0870181905261452a5750600d975060009650869550611cf9945050505050565b604080516020810190915260a08701518152610100870181905260c087015160e088015161455792615692565b6101208801529350600084600381111561456d57fe5b146145895750600b975060009650869550611cf9945050505050565b6145a1866101200151876040015188600001516156ea565b8752935060008460038111156145b357fe5b146145cf5750600b975060009650869550611cf9945050505050565b6145e7866101000151876060015188602001516156ea565b6020880152935060008460038111156145fc57fe5b146146185750600b975060009650869550611cf9945050505050565b8b6001600160a01b0316816001600160a01b031614156146bc576146468661012001518c88602001516156ea565b60208801529350600084600381111561465b57fe5b146146775750600b975060009650869550611cf9945050505050565b61468b8661010001518b88602001516156ea565b6020880152935060008460038111156146a057fe5b146146bc5750600b975060009650869550611cf9945050505050565b50600101614375565b506020840151845111156146ec575050506020810151905160009450039150829050611cf9565b5050815160209092015160009550859450919091039150611cf99050565b6001600160a01b0381166000908152601060209081526040808320600f9092528220549091614737611c60565b8354909150600090614757908390600160e01b900463ffffffff1661526a565b90506000811180156147695750600083115b1561490d576000856001600160a01b03166318160ddd6040518163ffffffff1660e01b815260040160206040518083038186803b1580156147a957600080fd5b505afa1580156147bd573d6000803e3d6000fd5b505050506040513d60208110156147d357600080fd5b5051905060006147e383866152c2565b90506147ed615b74565b6000831161480a5760405180602001604052806000815250614814565b6148148284615304565b905061481e615b74565b604080516020810190915288546001600160e01b031681526148409083615342565b9050604051806040016040528061487683600001516040518060400160405280600381526020016204332360ec1b815250615367565b6001600160e01b031681526020016148a9886040518060400160405280600381526020016243323160e81b815250615401565b63ffffffff9081169091526001600160a01b038b166000908152601060209081526040909120835181549490920151909216600160e01b026001600160e01b039182166001600160e01b03199094169390931716919091179055506115f492505050565b80156115f457614938826040518060400160405280600381526020016243323160e81b815250615401565b845463ffffffff91909116600160e01b026001600160e01b039091161784555050505050565b6001600160a01b038316600090815260106020526040902061497e615b74565b50604080516020810190915281546001600160e01b0316815261499f615b74565b5060408051602080820183526001600160a01b038089166000908152601283528481209189168082528284529481208054855286519590915291529190915580511580156149ed5750815115155b15614a05576ec097ce7bc90715b34b9f100000000081525b614a0d615b74565b614a178383615456565b90506000876001600160a01b03166370a08231886040518263ffffffff1660e01b815260040180826001600160a01b03166001600160a01b0316815260200191505060206040518083038186803b158015614a7157600080fd5b505afa158015614a85573d6000803e3d6000fd5b505050506040513d6020811015614a9b57600080fd5b505190506000614aab828461547b565b6001600160a01b03891660009081526014602052604081205491925090614ad290836154aa565b9050614aeb89828a613e415766038d7ea4c68000613e44565b6001600160a01b03808b1660008181526014602090815260409182902094909455895181518781529485015280519193928e16927f2caecd17d02f56fa897705dcc740da2d237c373f70686f4e0d9bd3bf0400ea7a929081900390910190a350505050505050505050565b6000806000614b698460008060006142ef565b9250925092509193909250565b6000806000614b83615b74565b614b8d8686615737565b90925090506000826003811115614ba057fe5b14614bb15750915060009050614bc3565b6000614bbc8261579f565b9350935050505b9250929050565b600080546001600160a01b0316331480614bee57506002546001600160a01b031633145b905090565b60005b600d54811015614c6d57816001600160a01b0316600d8281548110614c1757fe5b6000918252602090912001546001600160a01b03161415614c65576040805162461bcd60e51b815260206004820152600360248201526204331360ec1b604482015290519081900360640190fd5b600101614bf6565b50600d80546001810182556000919091527fd7b6990105719101dabeb77144f2a3385c8033acd3af97e9423a695e81ad1eb50180546001600160a01b0319166001600160a01b0392909216919091179055565b6001600160a01b03831660009081526009602052604081205460ff16614ce7576009611d79565b6001600160a01b038085166000908152600960209081526040808320938716835260029093019052205460ff16614d1f576000611d79565b600080614d2f85878660006142ef565b91935090915060009050826011811115614d4557fe5b14614d5f57816011811115614d5657fe5b92505050611d9b565b8015613037576004614d56565b6001600160a01b0382166000908152600960205260408120805460ff16614d97576009915050611431565b6001600160a01b038316600090815260028201602052604090205460ff16151560011415614dc9576000915050611431565b6007546001600160a01b03841660009081526008602052604090205410614df4576010915050611431565b6001600160a01b0380841660008181526002840160209081526040808320805460ff19166001908117909155600883528184208054918201815584529282902090920180549489166001600160a01b031990951685179055815193845283019190915280517f3ab23ab0d51cccc0c3085aec51f99228625aa1a922b3a8ca89a26b0f2027a1a59281900390910190a15060009392505050565b6000614e97615b74565b614ebd6040518060200160405280868152506040518060200160405280868152506157ae565b915091509250929050565b6000614ed2615b74565b83518351614ebd9190615897565b6001600160a01b0381166000908152600960205260409020805460ff161515600114614f53576040805162461bcd60e51b815260206004820152601960248201527f636f6d70206d61726b6574206973206e6f74206c697374656400000000000000604482015290519081900360640190fd5b600381015460ff1615614f98576040805162461bcd60e51b81526020600482015260086024820152670636f6d70204331360c41b604482015290519081900360640190fd5b60038101805460ff19166001908117909155604080516001600160a01b0385168152602081019290925280517f93c1f3e36ed71139f466a4ce8c9751790e2e33f5afb2df0dcfb3aeabe55d5aa29281900390910190a16001600160a01b0382166000908152601060205260409020546001600160e01b031615801561504057506001600160a01b038216600090815260106020526040902054600160e01b900463ffffffff16155b156150f55760405180604001604052806ec097ce7bc90715b34b9f10000000006001600160e01b0316815260200161509a615079611c60565b6040518060400160405280600381526020016243323160e81b815250615401565b63ffffffff9081169091526001600160a01b0384166000908152601060209081526040909120835181549490920151909216600160e01b026001600160e01b039182166001600160e01b031990941693909317169190911790555b6001600160a01b0382166000908152601160205260409020546001600160e01b031615801561514757506001600160a01b038216600090815260116020526040902054600160e01b900463ffffffff16155b15611ac65760405180604001604052806ec097ce7bc90715b34b9f10000000006001600160e01b03168152602001615180615079611c60565b63ffffffff9081169091526001600160a01b0384166000908152601160209081526040909120835181549490920151909216600160e01b026001600160e01b039182166001600160e01b031990941693909317169190911790555050565b6000808383018481106151f657600092509050614bc3565b506002915060009050614bc3565b60007f45b96fe442630264581b197e84bbada861235052c5a1aadfff9ea4e40a969aa084601181111561523357fe5b84601381111561523f57fe5b604080519283526020830191909152818101859052519081900360600190a1836011811115611d9857fe5b6000611d9b8383604051806040016040528060158152602001747375627472616374696f6e20756e646572666c6f7760581b815250615947565b6000611d9b6152bb84670de0b6b3a76400006152c2565b83516159a1565b6000611d9b83836040518060400160405280601781526020017f6d756c7469706c69636174696f6e206f766572666c6f770000000000000000008152506159d4565b61530c615b74565b6040518060200160405280615339615333866ec097ce7bc90715b34b9f10000000006152c2565b856159a1565b90529392505050565b61534a615b74565b6040518060200160405280615339856000015185600001516154aa565b600081600160e01b84106153f95760405162461bcd60e51b81526004018080602001828103825283818151815260200191508051906020019080838360005b838110156153be5781810151838201526020016153a6565b50505050905090810190601f1680156153eb5780820380516001836020036101000a031916815260200191505b509250505060405180910390fd5b509192915050565b600081600160201b84106153f95760405162461bcd60e51b81526020600482018181528351602484015283519092839260449091019190850190808383600083156153be5781810151838201526020016153a6565b61545e615b74565b60405180602001604052806153398560000151856000015161526a565b60006ec097ce7bc90715b34b9f100000000061549b8484600001516152c2565b816154a257fe5b049392505050565b6000611d9b8383604051806040016040528060118152602001706164646974696f6e206f766572666c6f7760781b815250615a53565b60008183101580156154f25750600083115b1561561d5760006155016127ac565b604080516370a0823160e01b815230600482015290519192506000916001600160a01b038416916370a08231916024808301926020929190829003018186803b15801561554d57600080fd5b505afa158015615561573d6000803e3d6000fd5b505050506040513d602081101561557757600080fd5b5051905080851161561a57816001600160a01b031663a9059cbb87876040518363ffffffff1660e01b815260040180836001600160a01b03166001600160a01b0316815260200182815260200192505050602060405180830381600087803b1580156155e257600080fd5b505af11580156155f6573d6000803e3d6000fd5b505050506040513d602081101561560c57600080fd5b5060009350611d9b92505050565b50505b509092915050565b61562d615b74565b60405180602001604052806153398560000151856152c2565b61564e615b74565b60405180602001604052806153396156728660000151670de0b6b3a76400006152c2565b85516159a1565b6000670de0b6b3a764000061549b8484600001516152c2565b600061569c615b74565b60006156a6615b74565b6156b087876157ae565b909250905060008260038111156156c357fe5b146156d2579092509050612de9565b6156dc81866157ae565b935093505050935093915050565b60008060006156f7615b74565b6157018787615737565b9092509050600082600381111561571457fe5b146157255750915060009050612de9565b6156dc6157318261579f565b866151de565b6000615741615b74565b600080615752866000015186615aa8565b9092509050600082600381111561576557fe5b1461578457506040805160208101909152600081529092509050614bc3565b60408051602081019091529081526000969095509350505050565b51670de0b6b3a7640000900490565b60006157b8615b74565b6000806157cd86600001518660000151615aa8565b909250905060008260038111156157e057fe5b146157ff57506040805160208101909152600081529092509050614bc3565b6000806158146706f05b59d3b20000846151de565b9092509050600082600381111561582757fe5b1461584957506040805160208101909152600081529094509250614bc3915050565b60008061585e83670de0b6b3a7640000615ae7565b9092509050600082600381111561587157fe5b1461587857fe5b604080516020810190915290815260009a909950975050505050505050565b60006158a1615b74565b6000806158b686670de0b6b3a7640000615aa8565b909250905060008260038111156158c957fe5b146158e857506040805160208101909152600081529092509050614bc3565b6000806158f58388615ae7565b9092509050600082600381111561590857fe5b1461592a57506040805160208101909152600081529094509250614bc3915050565b604080516020810190915290815260009890975095505050505050565b600081848411156159995760405162461bcd60e51b81526020600482018181528351602484015283519092839260449091019190850190808383600083156153be5781810151838201526020016153a6565b505050900390565b6000611d9b83836040518060400160405280600e81526020016d646976696465206279207a65726f60901b815250615b12565b60008315806159e1575082155b156159ee57506000611d9b565b838302838582816159fb57fe5b04148390615a4a5760405162461bcd60e51b81526020600482018181528351602484015283519092839260449091019190850190808383600083156153be5781810151838201526020016153a6565b50949350505050565b60008383018285821015615a4a5760405162461bcd60e51b81526020600482018181528351602484015283519092839260449091019190850190808383600083156153be5781810151838201526020016153a6565b60008083615abb57506000905080614bc3565b83830283858281615ac857fe5b0414615adc57506002915060009050614bc3565b600092509050614bc3565b60008082615afb5750600190506000614bc3565b6000838581615b0657fe5b04915091509250929050565b60008183615b615760405162461bcd60e51b81526020600482018181528351602484015283519092839260449091019190850190808383600083156153be5781810151838201526020016153a6565b50828481615b6b57fe5b04949350505050565b6040518060200160405280600081525090565b81548183558181111561149457600083815260209020611494918101908301615c15565b604051806101400160405280600081526020016000815260200160008152602001600081526020016000815260200160008152602001615be9615b74565b8152602001615bf6615b74565b8152602001615c03615b74565b8152602001615c10615b74565b905290565b611c6291905b80821115615c2f5760008155600101615c1b565b509056fea265627a7a72315820fc83de466ce49647a8fafd456d9ebea2bc617b4b1580206e7b5666ae4768bedb64736f6c63430005100032",
  "linkReferences": {},
  "deployedLinkReferences": {}
}