{
  "_format": "hh-sol-artifact-1",
  "contractName": "ComptrollerG6",
  "sourceName": "contracts/ComptrollerG6.sol",
  "abi": [
    {
      "inputs": [],
      "payable": false,
      "stateMutability": "nonpayable",
      "type": "constructor"
    },
    {
      "anonymous": false,
      "inputs": [
        {
          "indexed": false,
          "internalType": "string",
          "name": "action",
          "type": "string"
        },
        {
          "indexed": false,
          "internalType": "bool",
          "name": "pauseState",
          "type": "bool"
        }
      ],
      "name": "ActionPaused",
      "type": "event"
    },
    {
      "anonymous": false,
      "inputs": [
        {
          "indexed": false,
          "internalType": "contract CToken",
          "name": "cToken",
          "type": "address"
        },
        {
          "indexed": false,
          "internalType": "string",
          "name": "action",
          "type": "string"
        },
        {
          "indexed": false,
          "internalType": "bool",
          "name": "pauseState",
          "type": "bool"
        }
      ],
      "name": "ActionPaused",
      "type": "event"
    },
    {
      "anonymous": false,
      "inputs": [
        {
          "indexed": false,
          "internalType": "address",
          "name": "recipient",
          "type": "address"
        },
        {
          "indexed": false,
          "internalType": "uint256",
          "name": "amount",
          "type": "uint256"
        }
      ],
      "name": "CompGranted",
      "type": "event"
    },
    {
      "anonymous": false,
      "inputs": [
        {
          "indexed": true,
          "internalType": "contract CToken",
          "name": "cToken",
          "type": "address"
        },
        {
          "indexed": false,
          "internalType": "uint256",
          "name": "newSpeed",
          "type": "uint256"
        }
      ],
      "name": "CompSpeedUpdated",
      "type": "event"
    },
    {
      "anonymous": false,
      "inputs": [
        {
          "indexed": true,
          "internalType": "address",
          "name": "contributor",
          "type": "address"
        },
        {
          "indexed": false,
          "internalType": "uint256",
          "name": "newSpeed",
          "type": "uint256"
        }
      ],
      "name": "ContributorCompSpeedUpdated",
      "type": "event"
    },
    {
      "anonymous": false,
      "inputs": [
        {
          "indexed": true,
          "internalType": "contract CToken",
          "name": "cToken",
          "type": "address"
        },
        {
          "indexed": true,
          "internalType": "address",
          "name": "borrower",
          "type": "address"
        },
        {
          "indexed": false,
          "internalType": "uint256",
          "name": "compDelta",
          "type": "uint256"
        },
        {
          "indexed": false,
          "internalType": "uint256",
          "name": "compBorrowIndex",
          "type": "uint256"
        }
      ],
      "name": "DistributedBorrowerComp",
      "type": "event"
    },
    {
      "anonymous": false,
      "inputs": [
        {
          "indexed": true,
          "internalType": "contract CToken",
          "name": "cToken",
          "type": "address"
        },
        {
          "indexed": true,
          "internalType": "address",
          "name": "supplier",
          "type": "address"
        },
        {
          "indexed": false,
          "internalType": "uint256",
          "name": "compDelta",
          "type": "uint256"
        },
        {
          "indexed": false,
          "internalType": "uint256",
          "name": "compSupplyIndex",
          "type": "uint256"
        }
      ],
      "name": "DistributedSupplierComp",
      "type": "event"
    },
    {
      "anonymous": false,
      "inputs": [
        {
          "indexed": false,
          "internalType": "uint256",
          "name": "error",
          "type": "uint256"
        },
        {
          "indexed": false,
          "internalType": "uint256",
          "name": "info",
          "type": "uint256"
        },
        {
          "indexed": false,
          "internalType": "uint256",
          "name": "detail",
          "type": "uint256"
        }
      ],
      "name": "Failure",
      "type": "event"
    },
    {
      "anonymous": false,
      "inputs": [
        {
          "indexed": false,
          "internalType": "contract CToken",
          "name": "cToken",
          "type": "address"
        },
        {
          "indexed": false,
          "internalType": "bool",
          "name": "isComped",
          "type": "bool"
        }
      ],
      "name": "MarketComped",
      "type": "event"
    },
    {
      "anonymous": false,
      "inputs": [
        {
          "indexed": false,
          "internalType": "contract CToken",
          "name": "cToken",
          "type": "address"
        },
        {
          "indexed": false,
          "internalType": "address",
          "name": "account",
          "type": "address"
        }
      ],
      "name": "MarketEntered",
      "type": "event"
    },
    {
      "anonymous": false,
      "inputs": [
        {
          "indexed": false,
          "internalType": "contract CToken",
          "name": "cToken",
          "type": "address"
        },
        {
          "indexed": false,
          "internalType": "address",
          "name": "account",
          "type": "address"
        }
      ],
      "name": "MarketExited",
      "type": "event"
    },
    {
      "anonymous": false,
      "inputs": [
        {
          "indexed": false,
          "internalType": "contract CToken",
          "name": "cToken",
          "type": "address"
        }
      ],
      "name": "MarketListed",
      "type": "event"
    },
    {
      "anonymous": false,
      "inputs": [
        {
          "indexed": true,
          "internalType": "contract CToken",
          "name": "cToken",
          "type": "address"
        },
        {
          "indexed": false,
          "internalType": "uint256",
          "name": "newBorrowCap",
          "type": "uint256"
        }
      ],
      "name": "NewBorrowCap",
      "type": "event"
    },
    {
      "anonymous": false,
      "inputs": [
        {
          "indexed": false,
          "internalType": "address",
          "name": "oldBorrowCapGuardian",
          "type": "address"
        },
        {
          "indexed": false,
          "internalType": "address",
          "name": "newBorrowCapGuardian",
          "type": "address"
        }
      ],
      "name": "NewBorrowCapGuardian",
      "type": "event"
    },
    {
      "anonymous": false,
      "inputs": [
        {
          "indexed": false,
          "internalType": "uint256",
          "name": "oldCloseFactorMantissa",
          "type": "uint256"
        },
        {
          "indexed": false,
          "internalType": "uint256",
          "name": "newCloseFactorMantissa",
          "type": "uint256"
        }
      ],
      "name": "NewCloseFactor",
      "type": "event"
    },
    {
      "anonymous": false,
      "inputs": [
        {
          "indexed": false,
          "internalType": "contract CToken",
          "name": "cToken",
          "type": "address"
        },
        {
          "indexed": false,
          "internalType": "uint256",
          "name": "oldCollateralFactorMantissa",
          "type": "uint256"
        },
        {
          "indexed": false,
          "internalType": "uint256",
          "name": "newCollateralFactorMantissa",
          "type": "uint256"
        }
      ],
      "name": "NewCollateralFactor",
      "type": "event"
    },
    {
      "anonymous": false,
      "inputs": [
        {
          "indexed": false,
          "internalType": "uint256",
          "name": "oldCompRate",
          "type": "uint256"
        },
        {
          "indexed": false,
          "internalType": "uint256",
          "name": "newCompRate",
          "type": "uint256"
        }
      ],
      "name": "NewCompRate",
      "type": "event"
    },
    {
      "anonymous": false,
      "inputs": [
        {
          "indexed": false,
          "internalType": "uint256",
          "name": "oldLiquidationIncentiveMantissa",
          "type": "uint256"
        },
        {
          "indexed": false,
          "internalType": "uint256",
          "name": "newLiquidationIncentiveMantissa",
          "type": "uint256"
        }
      ],
      "name": "NewLiquidationIncentive",
      "type": "event"
    },
    {
      "anonymous": false,
      "inputs": [
        {
          "indexed": false,
          "internalType": "address",
          "name": "oldPauseGuardian",
          "type": "address"
        },
        {
          "indexed": false,
          "internalType": "address",
          "name": "newPauseGuardian",
          "type": "address"
        }
      ],
      "name": "NewPauseGuardian",
      "type": "event"
    },
    {
      "anonymous": false,
      "inputs": [
        {
          "indexed": false,
          "internalType": "contract PriceOracle",
          "name": "oldPriceOracle",
          "type": "address"
        },
        {
          "indexed": false,
          "internalType": "contract PriceOracle",
          "name": "newPriceOracle",
          "type": "address"
        }
      ],
      "name": "NewPriceOracle",
      "type": "event"
    },
    {
      "constant": false,
      "inputs": [
        {
          "internalType": "address[]",
          "name": "cTokens",
          "type": "address[]"
        }
      ],
      "name": "_addCompMarkets",
      "outputs": [],
      "payable": false,
      "stateMutability": "nonpayable",
      "type": "function"
    },
    {
      "constant": false,
      "inputs": [
        {
          "internalType": "contract Unitroller",
          "name": "unitroller",
          "type": "address"
        }
      ],
      "name": "_become",
      "outputs": [],
      "payable": false,
      "stateMutability": "nonpayable",
      "type": "function"
    },
    {
      "constant": true,
      "inputs": [],
      "name": "_borrowGuardianPaused",
      "outputs": [
        {
          "internalType": "bool",
          "name": "",
          "type": "bool"
        }
      ],
      "payable": false,
      "stateMutability": "view",
      "type": "function"
    },
    {
      "constant": false,
      "inputs": [
        {
          "internalType": "address",
          "name": "cToken",
          "type": "address"
        }
      ],
      "name": "_dropCompMarket",
      "outputs": [],
      "payable": false,
      "stateMutability": "nonpayable",
      "type": "function"
    },
    {
      "constant": false,
      "inputs": [
        {
          "internalType": "address",
          "name": "recipient",
          "type": "address"
        },
        {
          "internalType": "uint256",
          "name": "amount",
          "type": "uint256"
        }
      ],
      "name": "_grantComp",
      "outputs": [],
      "payable": false,
      "stateMutability": "nonpayable",
      "type": "function"
    },
    {
      "constant": true,
      "inputs": [],
      "name": "_mintGuardianPaused",
      "outputs": [
        {
          "internalType": "bool",
          "name": "",
          "type": "bool"
        }
      ],
      "payable": false,
      "stateMutability": "view",
      "type": "function"
    },
    {
      "constant": false,
      "inputs": [
        {
          "internalType": "address",
          "name": "newBorrowCapGuardian",
          "type": "address"
        }
      ],
      "name": "_setBorrowCapGuardian",
      "outputs": [],
      "payable": false,
      "stateMutability": "nonpayable",
      "type": "function"
    },
    {
      "constant": false,
      "inputs": [
        {
          "internalType": "contract CToken",
          "name": "cToken",
          "type": "address"
        },
        {
          "internalType": "bool",
          "name": "state",
          "type": "bool"
        }
      ],
      "name": "_setBorrowPaused",
      "outputs": [
        {
          "internalType": "bool",
          "name": "",
          "type": "bool"
        }
      ],
      "payable": false,
      "stateMutability": "nonpayable",
      "type": "function"
    },
    {
      "constant": false,
      "inputs": [
        {
          "internalType": "uint256",
          "name": "newCloseFactorMantissa",
          "type": "uint256"
        }
      ],
      "name": "_setCloseFactor",
      "outputs": [
        {
          "internalType": "uint256",
          "name": "",
          "type": "uint256"
        }
      ],
      "payable": false,
      "stateMutability": "nonpayable",
      "type": "function"
    },
    {
      "constant": false,
      "inputs": [
        {
          "internalType": "contract CToken",
          "name": "cToken",
          "type": "address"
        },
        {
          "internalType": "uint256",
          "name": "newCollateralFactorMantissa",
          "type": "uint256"
        }
      ],
      "name": "_setCollateralFactor",
      "outputs": [
        {
          "internalType": "uint256",
          "name": "",
          "type": "uint256"
        }
      ],
      "payable": false,
      "stateMutability": "nonpayable",
      "type": "function"
    },
    {
      "constant": false,
      "inputs": [
        {
          "internalType": "uint256",
          "name": "compRate_",
          "type": "uint256"
        }
      ],
      "name": "_setCompRate",
      "outputs": [],
      "payable": false,
      "stateMutability": "nonpayable",
      "type": "function"
    },
    {
      "constant": false,
      "inputs": [
        {
          "internalType": "address",
          "name": "contributor",
          "type": "address"
        },
        {
          "internalType": "uint256",
          "name": "compSpeed",
          "type": "uint256"
        }
      ],
      "name": "_setContributorCompSpeed",
      "outputs": [],
      "payable": false,
      "stateMutability": "nonpayable",
      "type": "function"
    },
    {
      "constant": false,
      "inputs": [
        {
          "internalType": "uint256",
          "name": "newLiquidationIncentiveMantissa",
          "type": "uint256"
        }
      ],
      "name": "_setLiquidationIncentive",
      "outputs": [
        {
          "internalType": "uint256",
          "name": "",
          "type": "uint256"
        }
      ],
      "payable": false,
      "stateMutability": "nonpayable",
      "type": "function"
    },
    {
      "constant": false,
      "inputs": [
        {
          "internalType": "contract CToken[]",
          "name": "cTokens",
          "type": "address[]"
        },
        {
          "internalType": "uint256[]",
          "name": "newBorrowCaps",
          "type": "uint256[]"
        }
      ],
      "name": "_setMarketBorrowCaps",
      "outputs": [],
      "payable": false,
      "stateMutability": "nonpayable",
      "type": "function"
    },
    {
      "constant": false,
      "inputs": [
        {
          "internalType": "contract CToken",
          "name": "cToken",
          "type": "address"
        },
        {
          "internalType": "bool",
          "name": "state",
          "type": "bool"
        }
      ],
      "name": "_setMintPaused",
      "outputs": [
        {
          "internalType": "bool",
          "name": "",
          "type": "bool"
        }
      ],
      "payable": false,
      "stateMutability": "nonpayable",
      "type": "function"
    },
    {
      "constant": false,
      "inputs": [
        {
          "internalType": "address",
          "name": "newPauseGuardian",
          "type": "address"
        }
      ],
      "name": "_setPauseGuardian",
      "outputs": [
        {
          "internalType": "uint256",
          "name": "",
          "type": "uint256"
        }
      ],
      "payable": false,
      "stateMutability": "nonpayable",
      "type": "function"
    },
    {
      "constant": false,
      "inputs": [
        {
          "internalType": "contract PriceOracle",
          "name": "newOracle",
          "type": "address"
        }
      ],
      "name": "_setPriceOracle",
      "outputs": [
        {
          "internalType": "uint256",
          "name": "",
          "type": "uint256"
        }
      ],
      "payable": false,
      "stateMutability": "nonpayable",
      "type": "function"
    },
    {
      "constant": false,
      "inputs": [
        {
          "internalType": "bool",
          "name": "state",
          "type": "bool"
        }
      ],
      "name": "_setSeizePaused",
      "outputs": [
        {
          "internalType": "bool",
          "name": "",
          "type": "bool"
        }
      ],
      "payable": false,
      "stateMutability": "nonpayable",
      "type": "function"
    },
    {
      "constant": false,
      "inputs": [
        {
          "internalType": "bool",
          "name": "state",
          "type": "bool"
        }
      ],
      "name": "_setTransferPaused",
      "outputs": [
        {
          "internalType": "bool",
          "name": "",
          "type": "bool"
        }
      ],
      "payable": false,
      "stateMutability": "nonpayable",
      "type": "function"
    },
    {
      "constant": false,
      "inputs": [
        {
          "internalType": "contract CToken",
          "name": "cToken",
          "type": "address"
        }
      ],
      "name": "_supportMarket",
      "outputs": [
        {
          "internalType": "uint256",
          "name": "",
          "type": "uint256"
        }
      ],
      "payable": false,
      "stateMutability": "nonpayable",
      "type": "function"
    },
    {
      "constant": true,
      "inputs": [
        {
          "internalType": "address",
          "name": "",
          "type": "address"
        },
        {
          "internalType": "uint256",
          "name": "",
          "type": "uint256"
        }
      ],
      "name": "accountAssets",
      "outputs": [
        {
          "internalType": "contract CToken",
          "name": "",
          "type": "address"
        }
      ],
      "payable": false,
      "stateMutability": "view",
      "type": "function"
    },
    {
      "constant": true,
      "inputs": [],
      "name": "admin",
      "outputs": [
        {
          "internalType": "address",
          "name": "",
          "type": "address"
        }
      ],
      "payable": false,
      "stateMutability": "view",
      "type": "function"
    },
    {
      "constant": true,
      "inputs": [
        {
          "internalType": "uint256",
          "name": "",
          "type": "uint256"
        }
      ],
      "name": "allMarkets",
      "outputs": [
        {
          "internalType": "contract CToken",
          "name": "",
          "type": "address"
        }
      ],
      "payable": false,
      "stateMutability": "view",
      "type": "function"
    },
    {
      "constant": false,
      "inputs": [
        {
          "internalType": "address",
          "name": "cToken",
          "type": "address"
        },
        {
          "internalType": "address",
          "name": "borrower",
          "type": "address"
        },
        {
          "internalType": "uint256",
          "name": "borrowAmount",
          "type": "uint256"
        }
      ],
      "name": "borrowAllowed",
      "outputs": [
        {
          "internalType": "uint256",
          "name": "",
          "type": "uint256"
        }
      ],
      "payable": false,
      "stateMutability": "nonpayable",
      "type": "function"
    },
    {
      "constant": true,
      "inputs": [],
      "name": "borrowCapGuardian",
      "outputs": [
        {
          "internalType": "address",
          "name": "",
          "type": "address"
        }
      ],
      "payable": false,
      "stateMutability": "view",
      "type": "function"
    },
    {
      "constant": true,
      "inputs": [
        {
          "internalType": "address",
          "name": "",
          "type": "address"
        }
      ],
      "name": "borrowCaps",
      "outputs": [
        {
          "internalType": "uint256",
          "name": "",
          "type": "uint256"
        }
      ],
      "payable": false,
      "stateMutability": "view",
      "type": "function"
    },
    {
      "constant": true,
      "inputs": [
        {
          "internalType": "address",
          "name": "",
          "type": "address"
        }
      ],
      "name": "borrowGuardianPaused",
      "outputs": [
        {
          "internalType": "bool",
          "name": "",
          "type": "bool"
        }
      ],
      "payable": false,
      "stateMutability": "view",
      "type": "function"
    },
    {
      "constant": false,
      "inputs": [
        {
          "internalType": "address",
          "name": "cToken",
          "type": "address"
        },
        {
          "internalType": "address",
          "name": "borrower",
          "type": "address"
        },
        {
          "internalType": "uint256",
          "name": "borrowAmount",
          "type": "uint256"
        }
      ],
      "name": "borrowVerify",
      "outputs": [],
      "payable": false,
      "stateMutability": "nonpayable",
      "type": "function"
    },
    {
      "constant": true,
      "inputs": [
        {
          "internalType": "address",
          "name": "account",
          "type": "address"
        },
        {
          "internalType": "contract CToken",
          "name": "cToken",
          "type": "address"
        }
      ],
      "name": "checkMembership",
      "outputs": [
        {
          "internalType": "bool",
          "name": "",
          "type": "bool"
        }
      ],
      "payable": false,
      "stateMutability": "view",
      "type": "function"
    },
    {
      "constant": false,
      "inputs": [
        {
          "internalType": "address",
          "name": "holder",
          "type": "address"
        },
        {
          "internalType": "contract CToken[]",
          "name": "cTokens",
          "type": "address[]"
        }
      ],
      "name": "claimComp",
      "outputs": [],
      "payable": false,
      "stateMutability": "nonpayable",
      "type": "function"
    },
    {
      "constant": false,
      "inputs": [
        {
          "internalType": "address[]",
          "name": "holders",
          "type": "address[]"
        },
        {
          "internalType": "contract CToken[]",
          "name": "cTokens",
          "type": "address[]"
        },
        {
          "internalType": "bool",
          "name": "borrowers",
          "type": "bool"
        },
        {
          "internalType": "bool",
          "name": "suppliers",
          "type": "bool"
        }
      ],
      "name": "claimComp",
      "outputs": [],
      "payable": false,
      "stateMutability": "nonpayable",
      "type": "function"
    },
    {
      "constant": false,
      "inputs": [
        {
          "internalType": "address",
          "name": "holder",
          "type": "address"
        }
      ],
      "name": "claimComp",
      "outputs": [],
      "payable": false,
      "stateMutability": "nonpayable",
      "type": "function"
    },
    {
      "constant": true,
      "inputs": [],
      "name": "closeFactorMantissa",
      "outputs": [
        {
          "internalType": "uint256",
          "name": "",
          "type": "uint256"
        }
      ],
      "payable": false,
      "stateMutability": "view",
      "type": "function"
    },
    {
      "constant": true,
      "inputs": [
        {
          "internalType": "address",
          "name": "",
          "type": "address"
        }
      ],
      "name": "compAccrued",
      "outputs": [
        {
          "internalType": "uint256",
          "name": "",
          "type": "uint256"
        }
      ],
      "payable": false,
      "stateMutability": "view",
      "type": "function"
    },
    {
      "constant": true,
      "inputs": [
        {
          "internalType": "address",
          "name": "",
          "type": "address"
        }
      ],
      "name": "compBorrowState",
      "outputs": [
        {
          "internalType": "uint224",
          "name": "index",
          "type": "uint224"
        },
        {
          "internalType": "uint32",
          "name": "block",
          "type": "uint32"
        }
      ],
      "payable": false,
      "stateMutability": "view",
      "type": "function"
    },
    {
      "constant": true,
      "inputs": [
        {
          "internalType": "address",
          "name": "",
          "type": "address"
        },
        {
          "internalType": "address",
          "name": "",
          "type": "address"
        }
      ],
      "name": "compBorrowerIndex",
      "outputs": [
        {
          "internalType": "uint256",
          "name": "",
          "type": "uint256"
        }
      ],
      "payable": false,
      "stateMutability": "view",
      "type": "function"
    },
    {
      "constant": true,
      "inputs": [],
      "name": "compClaimThreshold",
      "outputs": [
        {
          "internalType": "uint256",
          "name": "",
          "type": "uint256"
        }
      ],
      "payable": false,
      "stateMutability": "view",
      "type": "function"
    },
    {
      "constant": true,
      "inputs": [
        {
          "internalType": "address",
          "name": "",
          "type": "address"
        }
      ],
      "name": "compContributorSpeeds",
      "outputs": [
        {
          "internalType": "uint256",
          "name": "",
          "type": "uint256"
        }
      ],
      "payable": false,
      "stateMutability": "view",
      "type": "function"
    },
    {
      "constant": true,
      "inputs": [],
      "name": "compInitialIndex",
      "outputs": [
        {
          "internalType": "uint224",
          "name": "",
          "type": "uint224"
        }
      ],
      "payable": false,
      "stateMutability": "view",
      "type": "function"
    },
    {
      "constant": true,
      "inputs": [],
      "name": "compRate",
      "outputs": [
        {
          "internalType": "uint256",
          "name": "",
          "type": "uint256"
        }
      ],
      "payable": false,
      "stateMutability": "view",
      "type": "function"
    },
    {
      "constant": true,
      "inputs": [
        {
          "internalType": "address",
          "name": "",
          "type": "address"
        }
      ],
      "name": "compSpeeds",
      "outputs": [
        {
          "internalType": "uint256",
          "name": "",
          "type": "uint256"
        }
      ],
      "payable": false,
      "stateMutability": "view",
      "type": "function"
    },
    {
      "constant": true,
      "inputs": [
        {
          "internalType": "address",
          "name": "",
          "type": "address"
        },
        {
          "internalType": "address",
          "name": "",
          "type": "address"
        }
      ],
      "name": "compSupplierIndex",
      "outputs": [
        {
          "internalType": "uint256",
          "name": "",
          "type": "uint256"
        }
      ],
      "payable": false,
      "stateMutability": "view",
      "type": "function"
    },
    {
      "constant": true,
      "inputs": [
        {
          "internalType": "address",
          "name": "",
          "type": "address"
        }
      ],
      "name": "compSupplyState",
      "outputs": [
        {
          "internalType": "uint224",
          "name": "index",
          "type": "uint224"
        },
        {
          "internalType": "uint32",
          "name": "block",
          "type": "uint32"
        }
      ],
      "payable": false,
      "stateMutability": "view",
      "type": "function"
    },
    {
      "constant": true,
      "inputs": [],
      "name": "comptrollerImplementation",
      "outputs": [
        {
          "internalType": "address",
          "name": "",
          "type": "address"
        }
      ],
      "payable": false,
      "stateMutability": "view",
      "type": "function"
    },
    {
      "constant": false,
      "inputs": [
        {
          "internalType": "address[]",
          "name": "cTokens",
          "type": "address[]"
        }
      ],
      "name": "enterMarkets",
      "outputs": [
        {
          "internalType": "uint256[]",
          "name": "",
          "type": "uint256[]"
        }
      ],
      "payable": false,
      "stateMutability": "nonpayable",
      "type": "function"
    },
    {
      "constant": false,
      "inputs": [
        {
          "internalType": "address",
          "name": "cTokenAddress",
          "type": "address"
        }
      ],
      "name": "exitMarket",
      "outputs": [
        {
          "internalType": "uint256",
          "name": "",
          "type": "uint256"
        }
      ],
      "payable": false,
      "stateMutability": "nonpayable",
      "type": "function"
    },
    {
      "constant": true,
      "inputs": [
        {
          "internalType": "address",
          "name": "account",
          "type": "address"
        }
      ],
      "name": "getAccountLiquidity",
      "outputs": [
        {
          "internalType": "uint256",
          "name": "",
          "type": "uint256"
        },
        {
          "internalType": "uint256",
          "name": "",
          "type": "uint256"
        },
        {
          "internalType": "uint256",
          "name": "",
          "type": "uint256"
        }
      ],
      "payable": false,
      "stateMutability": "view",
      "type": "function"
    },
    {
      "constant": true,
      "inputs": [],
      "name": "getAllMarkets",
      "outputs": [
        {
          "internalType": "contract CToken[]",
          "name": "",
          "type": "address[]"
        }
      ],
      "payable": false,
      "stateMutability": "view",
      "type": "function"
    },
    {
      "constant": true,
      "inputs": [
        {
          "internalType": "address",
          "name": "account",
          "type": "address"
        }
      ],
      "name": "getAssetsIn",
      "outputs": [
        {
          "internalType": "contract CToken[]",
          "name": "",
          "type": "address[]"
        }
      ],
      "payable": false,
      "stateMutability": "view",
      "type": "function"
    },
    {
      "constant": true,
      "inputs": [],
      "name": "getBlockNumber",
      "outputs": [
        {
          "internalType": "uint256",
          "name": "",
          "type": "uint256"
        }
      ],
      "payable": false,
      "stateMutability": "view",
      "type": "function"
    },
    {
      "constant": true,
      "inputs": [],
      "name": "getCompAddress",
      "outputs": [
        {
          "internalType": "address",
          "name": "",
          "type": "address"
        }
      ],
      "payable": false,
      "stateMutability": "view",
      "type": "function"
    },
    {
      "constant": true,
      "inputs": [
        {
          "internalType": "address",
          "name": "account",
          "type": "address"
        },
        {
          "internalType": "address",
          "name": "cTokenModify",
          "type": "address"
        },
        {
          "internalType": "uint256",
          "name": "redeemTokens",
          "type": "uint256"
        },
        {
          "internalType": "uint256",
          "name": "borrowAmount",
          "type": "uint256"
        }
      ],
      "name": "getHypotheticalAccountLiquidity",
      "outputs": [
        {
          "internalType": "uint256",
          "name": "",
          "type": "uint256"
        },
        {
          "internalType": "uint256",
          "name": "",
          "type": "uint256"
        },
        {
          "internalType": "uint256",
          "name": "",
          "type": "uint256"
        }
      ],
      "payable": false,
      "stateMutability": "view",
      "type": "function"
    },
    {
      "constant": true,
      "inputs": [],
      "name": "isComptroller",
      "outputs": [
        {
          "internalType": "bool",
          "name": "",
          "type": "bool"
        }
      ],
      "payable": false,
      "stateMutability": "view",
      "type": "function"
    },
    {
      "constant": true,
      "inputs": [
        {
          "internalType": "address",
          "name": "",
          "type": "address"
        }
      ],
      "name": "lastContributorBlock",
      "outputs": [
        {
          "internalType": "uint256",
          "name": "",
          "type": "uint256"
        }
      ],
      "payable": false,
      "stateMutability": "view",
      "type": "function"
    },
    {
      "constant": false,
      "inputs": [
        {
          "internalType": "address",
          "name": "cTokenBorrowed",
          "type": "address"
        },
        {
          "internalType": "address",
          "name": "cTokenCollateral",
          "type": "address"
        },
        {
          "internalType": "address",
          "name": "liquidator",
          "type": "address"
        },
        {
          "internalType": "address",
          "name": "borrower",
          "type": "address"
        },
        {
          "internalType": "uint256",
          "name": "repayAmount",
          "type": "uint256"
        }
      ],
      "name": "liquidateBorrowAllowed",
      "outputs": [
        {
          "internalType": "uint256",
          "name": "",
          "type": "uint256"
        }
      ],
      "payable": false,
      "stateMutability": "nonpayable",
      "type": "function"
    },
    {
      "constant": false,
      "inputs": [
        {
          "internalType": "address",
          "name": "cTokenBorrowed",
          "type": "address"
        },
        {
          "internalType": "address",
          "name": "cTokenCollateral",
          "type": "address"
        },
        {
          "internalType": "address",
          "name": "liquidator",
          "type": "address"
        },
        {
          "internalType": "address",
          "name": "borrower",
          "type": "address"
        },
        {
          "internalType": "uint256",
          "name": "actualRepayAmount",
          "type": "uint256"
        },
        {
          "internalType": "uint256",
          "name": "seizeTokens",
          "type": "uint256"
        }
      ],
      "name": "liquidateBorrowVerify",
      "outputs": [],
      "payable": false,
      "stateMutability": "nonpayable",
      "type": "function"
    },
    {
      "constant": true,
      "inputs": [
        {
          "internalType": "address",
          "name": "cTokenBorrowed",
          "type": "address"
        },
        {
          "internalType": "address",
          "name": "cTokenCollateral",
          "type": "address"
        },
        {
          "internalType": "uint256",
          "name": "actualRepayAmount",
          "type": "uint256"
        }
      ],
      "name": "liquidateCalculateSeizeTokens",
      "outputs": [
        {
          "internalType": "uint256",
          "name": "",
          "type": "uint256"
        },
        {
          "internalType": "uint256",
          "name": "",
          "type": "uint256"
        }
      ],
      "payable": false,
      "stateMutability": "view",
      "type": "function"
    },
    {
      "constant": true,
      "inputs": [],
      "name": "liquidationIncentiveMantissa",
      "outputs": [
        {
          "internalType": "uint256",
          "name": "",
          "type": "uint256"
        }
      ],
      "payable": false,
      "stateMutability": "view",
      "type": "function"
    },
    {
      "constant": true,
      "inputs": [
        {
          "internalType": "address",
          "name": "",
          "type": "address"
        }
      ],
      "name": "markets",
      "outputs": [
        {
          "internalType": "bool",
          "name": "isListed",
          "type": "bool"
        },
        {
          "internalType": "uint256",
          "name": "collateralFactorMantissa",
          "type": "uint256"
        },
        {
          "internalType": "bool",
          "name": "isComped",
          "type": "bool"
        }
      ],
      "payable": false,
      "stateMutability": "view",
      "type": "function"
    },
    {
      "constant": true,
      "inputs": [],
      "name": "maxAssets",
      "outputs": [
        {
          "internalType": "uint256",
          "name": "",
          "type": "uint256"
        }
      ],
      "payable": false,
      "stateMutability": "view",
      "type": "function"
    },
    {
      "constant": false,
      "inputs": [
        {
          "internalType": "address",
          "name": "cToken",
          "type": "address"
        },
        {
          "internalType": "address",
          "name": "minter",
          "type": "address"
        },
        {
          "internalType": "uint256",
          "name": "mintAmount",
          "type": "uint256"
        }
      ],
      "name": "mintAllowed",
      "outputs": [
        {
          "internalType": "uint256",
          "name": "",
          "type": "uint256"
        }
      ],
      "payable": false,
      "stateMutability": "nonpayable",
      "type": "function"
    },
    {
      "constant": true,
      "inputs": [
        {
          "internalType": "address",
          "name": "",
          "type": "address"
        }
      ],
      "name": "mintGuardianPaused",
      "outputs": [
        {
          "internalType": "bool",
          "name": "",
          "type": "bool"
        }
      ],
      "payable": false,
      "stateMutability": "view",
      "type": "function"
    },
    {
      "constant": false,
      "inputs": [
        {
          "internalType": "address",
          "name": "cToken",
          "type": "address"
        },
        {
          "internalType": "address",
          "name": "minter",
          "type": "address"
        },
        {
          "internalType": "uint256",
          "name": "actualMintAmount",
          "type": "uint256"
        },
        {
          "internalType": "uint256",
          "name": "mintTokens",
          "type": "uint256"
        }
      ],
      "name": "mintVerify",
      "outputs": [],
      "payable": false,
      "stateMutability": "nonpayable",
      "type": "function"
    },
    {
      "constant": true,
      "inputs": [],
      "name": "oracle",
      "outputs": [
        {
          "internalType": "contract PriceOracle",
          "name": "",
          "type": "address"
        }
      ],
      "payable": false,
      "stateMutability": "view",
      "type": "function"
    },
    {
      "constant": true,
      "inputs": [],
      "name": "pauseGuardian",
      "outputs": [
        {
          "internalType": "address",
          "name": "",
          "type": "address"
        }
      ],
      "payable": false,
      "stateMutability": "view",
      "type": "function"
    },
    {
      "constant": true,
      "inputs": [],
      "name": "pendingAdmin",
      "outputs": [
        {
          "internalType": "address",
          "name": "",
          "type": "address"
        }
      ],
      "payable": false,
      "stateMutability": "view",
      "type": "function"
    },
    {
      "constant": true,
      "inputs": [],
      "name": "pendingComptrollerImplementation",
      "outputs": [
        {
          "internalType": "address",
          "name": "",
          "type": "address"
        }
      ],
      "payable": false,
      "stateMutability": "view",
      "type": "function"
    },
    {
      "constant": false,
      "inputs": [
        {
          "internalType": "address",
          "name": "cToken",
          "type": "address"
        },
        {
          "internalType": "address",
          "name": "redeemer",
          "type": "address"
        },
        {
          "internalType": "uint256",
          "name": "redeemTokens",
          "type": "uint256"
        }
      ],
      "name": "redeemAllowed",
      "outputs": [
        {
          "internalType": "uint256",
          "name": "",
          "type": "uint256"
        }
      ],
      "payable": false,
      "stateMutability": "nonpayable",
      "type": "function"
    },
    {
      "constant": false,
      "inputs": [
        {
          "internalType": "address",
          "name": "cToken",
          "type": "address"
        },
        {
          "internalType": "address",
          "name": "redeemer",
          "type": "address"
        },
        {
          "internalType": "uint256",
          "name": "redeemAmount",
          "type": "uint256"
        },
        {
          "internalType": "uint256",
          "name": "redeemTokens",
          "type": "uint256"
        }
      ],
      "name": "redeemVerify",
      "outputs": [],
      "payable": false,
      "stateMutability": "nonpayable",
      "type": "function"
    },
    {
      "constant": false,
      "inputs": [],
      "name": "refreshCompSpeeds",
      "outputs": [],
      "payable": false,
      "stateMutability": "nonpayable",
      "type": "function"
    },
    {
      "constant": false,
      "inputs": [
        {
          "internalType": "address",
          "name": "cToken",
          "type": "address"
        },
        {
          "internalType": "address",
          "name": "payer",
          "type": "address"
        },
        {
          "internalType": "address",
          "name": "borrower",
          "type": "address"
        },
        {
          "internalType": "uint256",
          "name": "repayAmount",
          "type": "uint256"
        }
      ],
      "name": "repayBorrowAllowed",
      "outputs": [
        {
          "internalType": "uint256",
          "name": "",
          "type": "uint256"
        }
      ],
      "payable": false,
      "stateMutability": "nonpayable",
      "type": "function"
    },
    {
      "constant": false,
      "inputs": [
        {
          "internalType": "address",
          "name": "cToken",
          "type": "address"
        },
        {
          "internalType": "address",
          "name": "payer",
          "type": "address"
        },
        {
          "internalType": "address",
          "name": "borrower",
          "type": "address"
        },
        {
          "internalType": "uint256",
          "name": "actualRepayAmount",
          "type": "uint256"
        },
        {
          "internalType": "uint256",
          "name": "borrowerIndex",
          "type": "uint256"
        }
      ],
      "name": "repayBorrowVerify",
      "outputs": [],
      "payable": false,
      "stateMutability": "nonpayable",
      "type": "function"
    },
    {
      "constant": false,
      "inputs": [
        {
          "internalType": "address",
          "name": "cTokenCollateral",
          "type": "address"
        },
        {
          "internalType": "address",
          "name": "cTokenBorrowed",
          "type": "address"
        },
        {
          "internalType": "address",
          "name": "liquidator",
          "type": "address"
        },
        {
          "internalType": "address",
          "name": "borrower",
          "type": "address"
        },
        {
          "internalType": "uint256",
          "name": "seizeTokens",
          "type": "uint256"
        }
      ],
      "name": "seizeAllowed",
      "outputs": [
        {
          "internalType": "uint256",
          "name": "",
          "type": "uint256"
        }
      ],
      "payable": false,
      "stateMutability": "nonpayable",
      "type": "function"
    },
    {
      "constant": true,
      "inputs": [],
      "name": "seizeGuardianPaused",
      "outputs": [
        {
          "internalType": "bool",
          "name": "",
          "type": "bool"
        }
      ],
      "payable": false,
      "stateMutability": "view",
      "type": "function"
    },
    {
      "constant": false,
      "inputs": [
        {
          "internalType": "address",
          "name": "cTokenCollateral",
          "type": "address"
        },
        {
          "internalType": "address",
          "name": "cTokenBorrowed",
          "type": "address"
        },
        {
          "internalType": "address",
          "name": "liquidator",
          "type": "address"
        },
        {
          "internalType": "address",
          "name": "borrower",
          "type": "address"
        },
        {
          "internalType": "uint256",
          "name": "seizeTokens",
          "type": "uint256"
        }
      ],
      "name": "seizeVerify",
      "outputs": [],
      "payable": false,
      "stateMutability": "nonpayable",
      "type": "function"
    },
    {
      "constant": false,
      "inputs": [
        {
          "internalType": "address",
          "name": "cToken",
          "type": "address"
        },
        {
          "internalType": "address",
          "name": "src",
          "type": "address"
        },
        {
          "internalType": "address",
          "name": "dst",
          "type": "address"
        },
        {
          "internalType": "uint256",
          "name": "transferTokens",
          "type": "uint256"
        }
      ],
      "name": "transferAllowed",
      "outputs": [
        {
          "internalType": "uint256",
          "name": "",
          "type": "uint256"
        }
      ],
      "payable": false,
      "stateMutability": "nonpayable",
      "type": "function"
    },
    {
      "constant": true,
      "inputs": [],
      "name": "transferGuardianPaused",
      "outputs": [
        {
          "internalType": "bool",
          "name": "",
          "type": "bool"
        }
      ],
      "payable": false,
      "stateMutability": "view",
      "type": "function"
    },
    {
      "constant": false,
      "inputs": [
        {
          "internalType": "address",
          "name": "cToken",
          "type": "address"
        },
        {
          "internalType": "address",
          "name": "src",
          "type": "address"
        },
        {
          "internalType": "address",
          "name": "dst",
          "type": "address"
        },
        {
          "internalType": "uint256",
          "name": "transferTokens",
          "type": "uint256"
        }
      ],
      "name": "transferVerify",
      "outputs": [],
      "payable": false,
      "stateMutability": "nonpayable",
      "type": "function"
    },
    {
      "constant": true,
      "inputs": [],
      "name": "tropAddress",
      "outputs": [
        {
          "internalType": "address",
          "name": "",
          "type": "address"
        }
      ],
      "payable": false,
      "stateMutability": "view",
      "type": "function"
    },
    {
      "constant": false,
      "inputs": [
        {
          "internalType": "address",
          "name": "contributor",
          "type": "address"
        }
      ],
      "name": "updateContributorRewards",
      "outputs": [],
      "payable": false,
      "stateMutability": "nonpayable",
      "type": "function"
    }
  ],
  "bytecode": "0x608060405234801561001057600080fd5b50600080546001600160a01b03191633179055615b4280620000336000396000f3fe608060405234801561001057600080fd5b506004361061047f5760003560e01c80636d35bf9111610257578063bb82aa5e11610146578063da3d454c116100c3578063e875544611610087578063e8755446146112f4578063e9af0292146112fc578063eabe7d9114611322578063ede4edd014611358578063f851a4401461137e5761047f565b8063da3d454c14611256578063dce154491461128c578063dcfbc0c7146112b8578063e4028eee146112c0578063e6653f3d146112ec5761047f565b8063ca0af0431161010a578063ca0af04314611113578063cc7ebdc414611141578063ce485c5e14611167578063d02f735114611208578063d9bbdf381461124e5761047f565b8063bb82aa5e14610fb9578063bdcdc25814610fc1578063bea6b8b814610ffd578063c299823814611023578063c488847b146110c45761047f565b806394b2294b116101d4578063aa90075411610198578063aa90075414610efd578063abfceffc14610f05578063ac0b0bb714610f7b578063b0772d0b14610f83578063b21be7fd14610f8b5761047f565b806394b2294b14610e7d578063986ab83814610e855780639d1b5a0a14610eab578063a76b3fda14610eb3578063a7f0e23114610ed95761047f565b806387f763031161021b57806387f7630314610dba5780638c57804e14610dc25780638e8f294b14610de85780638ebf636414610e30578063929fe9a114610e4f5761047f565b80636d35bf9114610d18578063731f0c2b14610d5e578063741b252514610d84578063747026c914610daa5780637dc0d1d014610db25761047f565b80634a584432116103735780635c778605116102f05780636810dfa6116102b45780636810dfa614610b1f5780636a49111214610c4b5780636a56947e14610c685780636b79c38d14610ca45780636d154ea514610cf25761047f565b80635c778605146109995780635ec88c79146109cf5780635f5af1aa146109f55780635fc7e71e14610a1b578063607ef6c114610a615761047f565b80634fd42e17116103375780634fd42e17146108d157806351dff989146108ee57806352d84d1e1461092a57806355ee1fe114610947578063598ee1cb1461096d5761047f565b80634a5844321461080b5780634ada90af146108315780634d8e5037146108395780634e79238f146108415780634ef4c3e11461089b5761047f565b806327efe3cb116104015780633bcf7ec1116103c55780633bcf7ec1146107455780633c94786f1461077357806341c728b91461077b57806342cbb15c146107b757806347ef3b3b146107bf5761047f565b806327efe3cb146106915780632d70db78146106bd578063317b0b77146106dc578063391957d7146106f95780633aa729b41461071f5761047f565b80631ededc91116104485780631ededc91146105df57806321af45691461062157806324008a621461064557806324a3d6221461068157806326782247146106895761047f565b80627e3dd21461048457806318c882a5146104a05780631c3db2e0146104ce5780631d504dc6146105815780631d7b33d7146105a7575b600080fd5b61048c611386565b604080519115158252519081900360200190f35b61048c600480360360408110156104b657600080fd5b506001600160a01b038135169060200135151561138b565b61057f600480360360408110156104e457600080fd5b6001600160a01b038235169190810190604081016020820135600160201b81111561050e57600080fd5b82018360208201111561052057600080fd5b803590602001918460208302840111600160201b8311171561054157600080fd5b919080806020026020016040519081016040528093929190818152602001838360200280828437600092019190915250929550611510945050505050565b005b61057f6004803603602081101561059757600080fd5b50356001600160a01b0316611572565b6105cd600480360360208110156105bd57600080fd5b50356001600160a01b03166116bb565b60408051918252519081900360200190f35b61057f600480360360a08110156105f557600080fd5b506001600160a01b038135811691602081013582169160408201351690606081013590608001356116cd565b6106296116d4565b604080516001600160a01b039092168252519081900360200190f35b6105cd6004803603608081101561065b57600080fd5b506001600160a01b038135811691602081013582169160408201351690606001356116e3565b6106296117ac565b6106296117bb565b61057f600480360360408110156106a757600080fd5b506001600160a01b0381351690602001356117ca565b61048c600480360360208110156106d357600080fd5b503515156118cd565b6105cd600480360360208110156106f257600080fd5b50356119f0565b61057f6004803603602081101561070f57600080fd5b50356001600160a01b0316611a9d565b61057f6004803603602081101561073557600080fd5b50356001600160a01b0316611b85565b61048c6004803603604081101561075b57600080fd5b506001600160a01b0381351690602001351515611c82565b61048c611e02565b61057f6004803603608081101561079157600080fd5b506001600160a01b03813581169160208101359091169060408101359060600135611e12565b6105cd611e18565b61057f600480360360c08110156107d557600080fd5b506001600160a01b0381358116916020810135821691604082013581169160608101359091169060808101359060a00135611e1d565b6105cd6004803603602081101561082157600080fd5b50356001600160a01b0316611e25565b6105cd611e37565b61057f611e3d565b61087d6004803603608081101561085757600080fd5b506001600160a01b03813581169160208101359091169060408101359060600135611e81565b60408051938452602084019290925282820152519081900360600190f35b6105cd600480360360608110156108b157600080fd5b506001600160a01b03813581169160208101359091169060400135611ebb565b6105cd600480360360208110156108e757600080fd5b5035611f57565b61057f6004803603608081101561090457600080fd5b506001600160a01b03813581169160208101359091169060408101359060600135611fc7565b6106296004803603602081101561094057600080fd5b503561200c565b6105cd6004803603602081101561095d57600080fd5b50356001600160a01b0316612033565b61057f6004803603604081101561098357600080fd5b506001600160a01b0381351690602001356120b8565b61057f600480360360608110156109af57600080fd5b506001600160a01b038135811691602081013590911690604001356121a3565b61087d600480360360208110156109e557600080fd5b50356001600160a01b03166121a8565b6105cd60048036036020811015610a0b57600080fd5b50356001600160a01b03166121dd565b6105cd600480360360a0811015610a3157600080fd5b506001600160a01b03813581169160208101358216916040820135811691606081013590911690608001356122a1565b61057f60048036036040811015610a7757600080fd5b810190602081018135600160201b811115610a9157600080fd5b820183602082011115610aa357600080fd5b803590602001918460208302840111600160201b83111715610ac457600080fd5b919390929091602081019035600160201b811115610ae157600080fd5b820183602082011115610af357600080fd5b803590602001918460208302840111600160201b83111715610b1457600080fd5b509092509050612406565b61057f60048036036080811015610b3557600080fd5b810190602081018135600160201b811115610b4f57600080fd5b820183602082011115610b6157600080fd5b803590602001918460208302840111600160201b83111715610b8257600080fd5b9190808060200260200160405190810160405280939291908181526020018383602002808284376000920191909152509295949360208101935035915050600160201b811115610bd157600080fd5b820183602082011115610be357600080fd5b803590602001918460208302840111600160201b83111715610c0457600080fd5b919080806020026020016040519081016040528093929190818152602001838360200280828437600092019190915250929550505050803515159150602001351515612588565b61057f60048036036020811015610c6157600080fd5b5035612731565b61057f60048036036080811015610c7e57600080fd5b506001600160a01b03813581169160208101358216916040820135169060600135611e12565b610cca60048036036020811015610cba57600080fd5b50356001600160a01b03166127bb565b604080516001600160e01b03909316835263ffffffff90911660208301528051918290030190f35b61048c60048036036020811015610d0857600080fd5b50356001600160a01b03166127e5565b61057f600480360360a0811015610d2e57600080fd5b506001600160a01b03813581169160208101358216916040820135811691606081013590911690608001356116cd565b61048c60048036036020811015610d7457600080fd5b50356001600160a01b03166127fa565b61057f60048036036020811015610d9a57600080fd5b50356001600160a01b031661280f565b6105cd6128d2565b6106296128dd565b61048c6128ec565b610cca60048036036020811015610dd857600080fd5b50356001600160a01b03166128fc565b610e0e60048036036020811015610dfe57600080fd5b50356001600160a01b0316612926565b6040805193151584526020840192909252151582820152519081900360600190f35b61048c60048036036020811015610e4657600080fd5b5035151561294c565b61048c60048036036040811015610e6557600080fd5b506001600160a01b0381358116916020013516612a6e565b6105cd612aa1565b6105cd60048036036020811015610e9b57600080fd5b50356001600160a01b0316612aa7565b610629612ab9565b6105cd60048036036020811015610ec957600080fd5b50356001600160a01b0316612ad1565b610ee1612c2e565b604080516001600160e01b039092168252519081900360200190f35b6105cd612c41565b610f2b60048036036020811015610f1b57600080fd5b50356001600160a01b0316612c47565b60408051602080825283518183015283519192839290830191858101910280838360005b83811015610f67578181015183820152602001610f4f565b505050509050019250505060405180910390f35b61048c612cd0565b610f2b612ce0565b6105cd60048036036040811015610fa157600080fd5b506001600160a01b0381358116916020013516612d42565b610629612d5f565b6105cd60048036036080811015610fd757600080fd5b506001600160a01b03813581169160208101358216916040820135169060600135612d6e565b6105cd6004803603602081101561101357600080fd5b50356001600160a01b0316612df2565b610f2b6004803603602081101561103957600080fd5b810190602081018135600160201b81111561105357600080fd5b82018360208201111561106557600080fd5b803590602001918460208302840111600160201b8311171561108657600080fd5b919080806020026020016040519081016040528093929190818152602001838360200280828437600092019190915250929550612e04945050505050565b6110fa600480360360608110156110da57600080fd5b506001600160a01b03813581169160208101359091169060400135612e9b565b6040805192835260208301919091528051918290030190f35b6105cd6004803603604081101561112957600080fd5b506001600160a01b03813581169160200135166130c3565b6105cd6004803603602081101561115757600080fd5b50356001600160a01b03166130e0565b61057f6004803603602081101561117d57600080fd5b810190602081018135600160201b81111561119757600080fd5b8201836020820111156111a957600080fd5b803590602001918460208302840111600160201b831117156111ca57600080fd5b9190808060200260200160405190810160405280939291908181526020018383602002808284376000920191909152509295506130f2945050505050565b6105cd600480360360a081101561121e57600080fd5b506001600160a01b038135811691602081013582169160408201358116916060810135909116906080013561316a565b610629613315565b6105cd6004803603606081101561126c57600080fd5b506001600160a01b03813581169160208101359091169060400135613324565b610629600480360360408110156112a257600080fd5b506001600160a01b0381351690602001356136c4565b6106296136f9565b6105cd600480360360408110156112d657600080fd5b506001600160a01b038135169060200135613708565b61048c6138b8565b6105cd6138c8565b61057f6004803603602081101561131257600080fd5b50356001600160a01b03166138ce565b6105cd6004803603606081101561133857600080fd5b506001600160a01b03813581169160208101359091169060400135613932565b6105cd6004803603602081101561136e57600080fd5b50356001600160a01b031661396f565b610629613c7d565b600181565b6001600160a01b03821660009081526009602052604081205460ff166113de576040805162461bcd60e51b815260206004820152600360248201526210cc4d60ea1b604482015290519081900360640190fd5b600a546001600160a01b031633148061140157506000546001600160a01b031633145b611438576040805162461bcd60e51b815260206004820152600360248201526243313560e81b604482015290519081900360640190fd5b6000546001600160a01b031633148061145357506001821515145b61148a576040805162461bcd60e51b815260206004820152600360248201526221989b60e91b604482015290519081900360640190fd5b6001600160a01b0383166000818152600c6020908152604091829020805486151560ff199091168117909155825193845283830152606090830181905260069083015265426f72726f7760d01b6080830152517f71aec636243f9709bb0007ae15e9afb8150ab01716d75fd7573be5cc096e03b09181900360a00190a150805b92915050565b60408051600180825281830190925260609160208083019080388339019050509050828160008151811061154057fe5b60200260200101906001600160a01b031690816001600160a01b03168152505061156d8183600180612588565b505050565b806001600160a01b031663f851a4406040518163ffffffff1660e01b815260040160206040518083038186803b1580156115ab57600080fd5b505afa1580156115bf573d6000803e3d6000fd5b505050506040513d60208110156115d557600080fd5b50516001600160a01b03163314611619576040805162461bcd60e51b815260206004820152600360248201526243313760e81b604482015290519081900360640190fd5b806001600160a01b031663c1e803346040518163ffffffff1660e01b8152600401602060405180830381600087803b15801561165457600080fd5b505af1158015611668573d6000803e3d6000fd5b505050506040513d602081101561167e57600080fd5b5051156116b8576040805162461bcd60e51b815260206004820152600360248201526208662760eb1b604482015290519081900360640190fd5b50565b600f6020526000908152604090205481565b5050505050565b6015546001600160a01b031681565b6001600160a01b03841660009081526009602052604081205460ff1661170b575060096117a4565b611713615a4e565b6040518060200160405280876001600160a01b031663aa5af0fd6040518163ffffffff1660e01b815260040160206040518083038186803b15801561175757600080fd5b505afa15801561176b573d6000803e3d6000fd5b505050506040513d602081101561178157600080fd5b5051905290506117918682613c8c565b61179e8685836000613eea565b60009150505b949350505050565b600a546001600160a01b031681565b6001546001600160a01b031681565b6117d26140d4565b611823576040805162461bcd60e51b815260206004820152601960248201527f6f6e6c792061646d696e2063616e206772616e7420636f6d7000000000000000604482015290519081900360640190fd5b600061182f83836140fd565b90508015611884576040805162461bcd60e51b815260206004820152601b60248201527f696e73756666696369656e7420636f6d7020666f72206772616e740000000000604482015290519081900360640190fd5b604080516001600160a01b03851681526020810184905281517f98b2f82a3a07f223a0be64b3d0f47711c64dccd1feafb94aa28156b38cd9695c929181900390910190a1505050565b600a546000906001600160a01b03163314806118f357506000546001600160a01b031633145b61192a576040805162461bcd60e51b815260206004820152600360248201526243313560e81b604482015290519081900360640190fd5b6000546001600160a01b031633148061194557506001821515145b61197c576040805162461bcd60e51b815260206004820152600360248201526221989b60e91b604482015290519081900360640190fd5b600a8054831515600160b81b810260ff60b81b1990921691909117909155604080516020810192909252808252600582820152645365697a6560d81b6060830152517fef159d9a32b2472e32b098f954f3ce62d232939f1c207070b584df1814de2de09181900360800190a150805b919050565b600080546001600160a01b03163314611a50576040805162461bcd60e51b815260206004820152601f60248201527f6f6e6c792061646d696e2063616e2073657420636c6f736520666163746f7200604482015290519081900360640190fd5b6005805490839055604080518281526020810185905281517f3b9670cf975d26958e754b57098eaa2ac914d8d2a31b83257997b9f346110fd9929181900390910190a160005b9392505050565b6000546001600160a01b03163314611ae2576040805162461bcd60e51b815260206004820152600360248201526243313360e81b604482015290519081900360640190fd5b6001600160a01b038116611b22576040805162461bcd60e51b8152602060048201526002602482015261413160f01b604482015290519081900360640190fd5b601580546001600160a01b038381166001600160a01b0319831681179093556040805191909216808252602082019390935281517feda98690e518e9a05f8ec6837663e188211b2da8f4906648b323f2c1d4434e29929181900390910190a15050565b6000546001600160a01b03163314611bca576040805162461bcd60e51b815260206004820152600360248201526210cc8d60ea1b604482015290519081900360640190fd5b6001600160a01b0381166000908152600960205260409020600381015460ff161515600114611c26576040805162461bcd60e51b815260206004820152600360248201526243323560e81b604482015290519081900360640190fd5b60038101805460ff19169055604080516001600160a01b03841681526000602082015281517f93c1f3e36ed71139f466a4ce8c9751790e2e33f5afb2df0dcfb3aeabe55d5aa2929181900390910190a1611c7e61422a565b5050565b6001600160a01b03821660009081526009602052604081205460ff16611cd5576040805162461bcd60e51b815260206004820152600360248201526210cc4d60ea1b604482015290519081900360640190fd5b600a546001600160a01b0316331480611cf857506000546001600160a01b031633145b611d2f576040805162461bcd60e51b815260206004820152600360248201526243313560e81b604482015290519081900360640190fd5b6000546001600160a01b0316331480611d4a57506001821515145b611d81576040805162461bcd60e51b815260206004820152600360248201526221989b60e91b604482015290519081900360640190fd5b6001600160a01b0383166000818152600b6020908152604091829020805486151560ff199091168117909155825193845283830152606090830181905260049083015263135a5b9d60e21b6080830152517f71aec636243f9709bb0007ae15e9afb8150ab01716d75fd7573be5cc096e03b09181900360a00190a150919050565b600a54600160a01b900460ff1681565b50505050565b435b90565b505050505050565b60166020526000908152604090205481565b60065481565b333214611e77576040805162461bcd60e51b815260206004820152600360248201526243313960e81b604482015290519081900360640190fd5b611e7f61422a565b565b600080600080600080611e968a8a8a8a6145ef565b925092509250826011811115611ea857fe5b95509093509150505b9450945094915050565b6001600160a01b0383166000908152600b602052604081205460ff1615611f0e576040805162461bcd60e51b8152602060048201526002602482015261219960f11b604482015290519081900360640190fd5b6001600160a01b03841660009081526009602052604090205460ff16611f385760095b9050611a96565b611f4184614927565b611f4d84846000614b7b565b6000949350505050565b600080546001600160a01b03163314611f7d57611f766001600b614d73565b90506119eb565b6006805490839055604080518281526020810185905281517faeba5a6c40a8ac138134bff1aaa65debf25971188a58804bad717f82f0ec1316929181900390910190a16000611a96565b80158015611fd55750600082115b15611e12576040805162461bcd60e51b8152602060048201526002602482015261433360f01b604482015290519081900360640190fd5b600d818154811061201957fe5b6000918252602090912001546001600160a01b0316905081565b600080546001600160a01b0316331461205257611f7660016010614d73565b600480546001600160a01b038481166001600160a01b0319831681179093556040805191909216808252602082019390935281517fd52b2b9b7e9ee655fcb95d2e5b9e0c9f69e7ef2b8e9d2d0ea78402d576d22e22929181900390910190a16000611a96565b6120c06140d4565b612111576040805162461bcd60e51b815260206004820152601d60248201527f6f6e6c792061646d696e2063616e2073657420636f6d70207370656564000000604482015290519081900360640190fd5b61211a8261280f565b80612139576001600160a01b0382166000908152601960205260408120555b612141611e18565b6001600160a01b03831660008181526019602090815260408083209490945560188152908390208490558251848152925191927f386537fa92edc3319af95f1f904dcf1900021e4f3f4e08169a577a09076e66b3929081900390910190a25050565b61156d565b6000806000806000806121bf8760008060006145ef565b9250925092508260118111156121d157fe5b97919650945092505050565b600080546001600160a01b031633146121fc57611f7660016013614d73565b6001600160a01b03821661223c576040805162461bcd60e51b8152602060048201526002602482015261413160f01b604482015290519081900360640190fd5b600a80546001600160a01b038481166001600160a01b0319831617928390556040805192821680845293909116602083015280517f0613b6ee6a04f0d09f390e4d9318894b9f6ac7fd83897cd8d18896ba579c401e9281900390910190a16000611a96565b6001600160a01b03851660009081526009602052604081205460ff1615806122e257506001600160a01b03851660009081526009602052604090205460ff16155b156122f15760095b90506123fd565b6000806122fd85614dd9565b9193509091506000905082601181111561231357fe5b1461232d5781601181111561232457fe5b925050506123fd565b80612339576003612324565b6000886001600160a01b03166395dd9193876040518263ffffffff1660e01b815260040180826001600160a01b03166001600160a01b0316815260200191505060206040518083038186803b15801561239157600080fd5b505afa1580156123a5573d6000803e3d6000fd5b505050506040513d60208110156123bb57600080fd5b5051604080516020810190915260055481529091506000906123dd9083614df9565b9050808611156123f45760119450505050506123fd565b60009450505050505b95945050505050565b6000546001600160a01b031633148061242957506015546001600160a01b031633145b612460576040805162461bcd60e51b815260206004820152600360248201526243313160e81b604482015290519081900360640190fd5b8281811580159061247057508082145b6124a7576040805162461bcd60e51b815260206004820152600360248201526221989960e91b604482015290519081900360640190fd5b60005b8281101561257f578484828181106124be57fe5b90506020020135601660008989858181106124d557fe5b905060200201356001600160a01b03166001600160a01b03166001600160a01b031681526020019081526020016000208190555086868281811061251557fe5b905060200201356001600160a01b03166001600160a01b03167f6f1951b2aad10f3fc81b86d91105b413a5b3f847a34bbc5ce1904201b14438f686868481811061255b57fe5b905060200201356040518082815260200191505060405180910390a26001016124aa565b50505050505050565b60005b83518110156116cd5760008482815181106125a257fe5b6020908102919091018101516001600160a01b0381166000908152600990925260409091205490915060ff16612617576040805162461bcd60e51b81526020600482015260156024820152741b585c9ad95d081b5d5cdd081899481b1a5cdd1959605a1b604482015290519081900360640190fd5b600184151514156126df5761262a615a4e565b6040518060200160405280836001600160a01b031663aa5af0fd6040518163ffffffff1660e01b815260040160206040518083038186803b15801561266e57600080fd5b505afa158015612682573d6000803e3d6000fd5b505050506040513d602081101561269857600080fd5b5051905290506126a88282613c8c565b60005b87518110156126dc576126d4838983815181106126c457fe5b6020026020010151846001613eea565b6001016126ab565b50505b60018315151415612728576126f381614927565b60005b86518110156127265761271e8288838151811061270f57fe5b60200260200101516001614b7b565b6001016126f6565b505b5060010161258b565b6127396140d4565b612770576040805162461bcd60e51b815260206004820152600360248201526221991960e91b604482015290519081900360640190fd5b600e805490829055604080518281526020810184905281517fc227c9272633c3a307d9845bf2bc2509cefb20d655b5f3c1002d8e1e3f22c8b0929181900390910190a1611c7e61422a565b6010602052600090815260409020546001600160e01b03811690600160e01b900463ffffffff1682565b600c6020526000908152604090205460ff1681565b600b6020526000908152604090205460ff1681565b6001600160a01b03811660009081526018602052604081205490612831611e18565b6001600160a01b03841660009081526019602052604081205491925090612859908390614e18565b905060008111801561286b5750600083115b15611e1257600061287c8285614e52565b6001600160a01b038616600090815260146020526040812054919250906128a39083614e94565b6001600160a01b0387166000908152601460209081526040808320939093556019905220849055505050505050565b66038d7ea4c6800081565b6004546001600160a01b031681565b600a54600160b01b900460ff1681565b6011602052600090815260409020546001600160e01b03811690600160e01b900463ffffffff1682565b60096020526000908152604090208054600182015460039092015460ff91821692911683565b600a546000906001600160a01b031633148061297257506000546001600160a01b031633145b6129a9576040805162461bcd60e51b815260206004820152600360248201526243313560e81b604482015290519081900360640190fd5b6000546001600160a01b03163314806129c457506001821515145b6129fb576040805162461bcd60e51b815260206004820152600360248201526221989b60e91b604482015290519081900360640190fd5b600a8054831515600160b01b810260ff60b01b1990921691909117909155604080516020810192909252808252600882820152672a3930b739b332b960c11b6060830152517fef159d9a32b2472e32b098f954f3ce62d232939f1c207070b584df1814de2de09181900360800190a15090565b6001600160a01b038082166000908152600960209081526040808320938616835260029093019052205460ff1692915050565b60075481565b60186020526000908152604090205481565b73c00e94cb662c3520282e6f5717214004a7f2688890565b600080546001600160a01b03163314612af057611f7660016012614d73565b6001600160a01b03821660009081526009602052604090205460ff1615612b1d57611f76600a6011614d73565b816001600160a01b031663fe9c44ae6040518163ffffffff1660e01b815260040160206040518083038186803b158015612b5657600080fd5b505afa158015612b6a573d6000803e3d6000fd5b505050506040513d6020811015612b8057600080fd5b5050604080516060810182526001808252600060208381018281528486018381526001600160a01b03891684526009909252949091209251835490151560ff19918216178455935191830191909155516003909101805491151591909216179055612bea82614eca565b604080516001600160a01b038416815290517fcf583bb0c569eb967f806b11601c4cb93c10310485c67add5f8362c2f212321f9181900360200190a1600092915050565b6ec097ce7bc90715b34b9f100000000081565b600e5481565b60608060086000846001600160a01b03166001600160a01b03168152602001908152602001600020805480602002602001604051908101604052809291908181526020018280548015612cc357602002820191906000526020600020905b81546001600160a01b03168152600190910190602001808311612ca5575b5093979650505050505050565b600a54600160b81b900460ff1681565b6060600d805480602002602001604051908101604052809291908181526020018280548015612d3857602002820191906000526020600020905b81546001600160a01b03168152600190910190602001808311612d1a575b5050505050905090565b601260209081526000928352604080842090915290825290205481565b6002546001600160a01b031681565b600a54600090600160b01b900460ff1615612db5576040805162461bcd60e51b8152602060048201526002602482015261433960f01b604482015290519081900360640190fd5b6000612dc2868685614f97565b90508015612dd15790506117a4565b612dda86614927565b612de686866000614b7b565b61179e86856000614b7b565b60196020526000908152604090205481565b6060600082519050606081604051908082528060200260200182016040528015612e38578160200160208202803883390190505b50905060005b82811015612e93576000858281518110612e5457fe5b60200260200101519050612e688133615043565b6011811115612e7357fe5b838381518110612e7f57fe5b602090810291909101015250600101612e3e565b509392505050565b600480546040805163fc57d4df60e01b81526001600160a01b038781169482019490945290516000938493849391169163fc57d4df91602480820192602092909190829003018186803b158015612ef157600080fd5b505afa158015612f05573d6000803e3d6000fd5b505050506040513d6020811015612f1b57600080fd5b5051600480546040805163fc57d4df60e01b81526001600160a01b038a8116948201949094529051939450600093929091169163fc57d4df91602480820192602092909190829003018186803b158015612f7457600080fd5b505afa158015612f88573d6000803e3d6000fd5b505050506040513d6020811015612f9e57600080fd5b50519050811580612fad575080155b15612fc257600d9350600092506130bb915050565b6000866001600160a01b031663182df0f56040518163ffffffff1660e01b815260040160206040518083038186803b158015612ffd57600080fd5b505afa158015613011573d6000803e3d6000fd5b505050506040513d602081101561302757600080fd5b505190506000613035615a4e565b61303d615a4e565b613045615a4e565b61306d604051806020016040528060065481525060405180602001604052808a815250615139565b9250613095604051806020016040528088815250604051806020016040528088815250615139565b91506130a18383615178565b90506130ad818b614df9565b600099509750505050505050505b935093915050565b601360209081526000928352604080842090915290825290205481565b60146020526000908152604090205481565b6130fa6140d4565b613131576040805162461bcd60e51b815260206004820152600360248201526243323360e81b604482015290519081900360640190fd5b60005b81518110156131615761315982828151811061314c57fe5b60200260200101516151b4565b600101613134565b506116b861422a565b600a54600090600160b81b900460ff16156131b1576040805162461bcd60e51b8152602060048201526002602482015261086760f31b604482015290519081900360640190fd5b6001600160a01b03861660009081526009602052604090205460ff1615806131f257506001600160a01b03851660009081526009602052604090205460ff16155b156131fe5760096122ea565b846001600160a01b0316635fe3b5676040518163ffffffff1660e01b815260040160206040518083038186803b15801561323757600080fd5b505afa15801561324b573d6000803e3d6000fd5b505050506040513d602081101561326157600080fd5b505160408051635fe3b56760e01b815290516001600160a01b0392831692891691635fe3b567916004808301926020929190829003018186803b1580156132a757600080fd5b505afa1580156132bb573d6000803e3d6000fd5b505050506040513d60208110156132d157600080fd5b50516001600160a01b0316146132e85760026122ea565b6132f186614927565b6132fd86846000614b7b565b61330986856000614b7b565b60009695505050505050565b6017546001600160a01b031681565b6001600160a01b0383166000908152600c602052604081205460ff1615613377576040805162461bcd60e51b815260206004820152600260248201526110cd60f21b604482015290519081900360640190fd5b6001600160a01b03841660009081526009602052604090205460ff1661339e576009611f31565b6001600160a01b038085166000908152600960209081526040808320938716835260029093019052205460ff1661347b57336001600160a01b03851614613411576040805162461bcd60e51b8152602060048201526002602482015261433560f01b604482015290519081900360640190fd5b600061341d3385615043565b9050600081601181111561342d57fe5b146134465780601181111561343e57fe5b915050611a96565b6001600160a01b038086166000908152600960209081526040808320938816835260029093019052205460ff1661347957fe5b505b600480546040805163fc57d4df60e01b81526001600160a01b03888116948201949094529051929091169163fc57d4df91602480820192602092909190829003018186803b1580156134cc57600080fd5b505afa1580156134e0573d6000803e3d6000fd5b505050506040513d60208110156134f657600080fd5b505161350357600d611f31565b6001600160a01b03841660009081526016602052604090205480156135d5576000856001600160a01b03166347bd37186040518163ffffffff1660e01b815260040160206040518083038186803b15801561355d57600080fd5b505afa158015613571573d6000803e3d6000fd5b505050506040513d602081101561358757600080fd5b5051905060006135978286614e94565b90508281106135d2576040805162461bcd60e51b8152602060048201526002602482015261433760f01b604482015290519081900360640190fd5b50505b6000806135e586886000886145ef565b919350909150600090508260118111156135fb57fe5b146136165781601181111561360c57fe5b9350505050611a96565b801561362357600461360c565b61362b615a4e565b6040518060200160405280896001600160a01b031663aa5af0fd6040518163ffffffff1660e01b815260040160206040518083038186803b15801561366f57600080fd5b505afa158015613683573d6000803e3d6000fd5b505050506040513d602081101561369957600080fd5b5051905290506136a98882613c8c565b6136b68888836000613eea565b600098975050505050505050565b600860205281600052604060002081815481106136dd57fe5b6000918252602090912001546001600160a01b03169150829050565b6003546001600160a01b031681565b600080546001600160a01b0316331461372e5761372760016006614d73565b905061150a565b6001600160a01b0383166000908152600960205260409020805460ff166137635761375b60096007614d73565b91505061150a565b61376b615a4e565b506040805160208101909152838152613782615a4e565b506040805160208101909152670c7d713b49da000081526137a381836154b2565b156137be576137b460066008614d73565b935050505061150a565b84158015906138475750600480546040805163fc57d4df60e01b81526001600160a01b038a8116948201949094529051929091169163fc57d4df91602480820192602092909190829003018186803b15801561381957600080fd5b505afa15801561382d573d6000803e3d6000fd5b505050506040513d602081101561384357600080fd5b5051155b15613858576137b4600d6009614d73565b60018301805490869055604080516001600160a01b03891681526020810183905280820188905290517f70483e6592cd5182d45ac970e05bc62cdcc90e9d8ef2c2dbe686cf383bcd7fc59181900360600190a16000979650505050505050565b600a54600160a81b900460ff1681565b60055481565b6116b881600d80548060200260200160405190810160405280929190818152602001828054801561392857602002820191906000526020600020905b81546001600160a01b0316815260019091019060200180831161390a575b5050505050611510565b600080613940858585614f97565b9050801561394f579050611a96565b61395885614927565b61396485856000614b7b565b600095945050505050565b6000808290506000806000836001600160a01b031663c37f68e2336040518263ffffffff1660e01b815260040180826001600160a01b03166001600160a01b0316815260200191505060806040518083038186803b1580156139d057600080fd5b505afa1580156139e4573d6000803e3d6000fd5b505050506040513d60808110156139fa57600080fd5b508051602082015160409092015190945090925090508215613a48576040805162461bcd60e51b8152602060048201526002602482015261433160f01b604482015290519081900360640190fd5b8015613a6557613a5a600c6002614d73565b9450505050506119eb565b6000613a72873385614f97565b90508015613a9357613a87600e6003836154b9565b955050505050506119eb565b6001600160a01b0385166000908152600960209081526040808320338452600281019092529091205460ff16613ad257600096505050505050506119eb565b3360009081526002820160209081526040808320805460ff191690556008825291829020805483518184028101840190945280845260609392830182828015613b4457602002820191906000526020600020905b81546001600160a01b03168152600190910190602001808311613b26575b5050835193945083925060009150505b82811015613b9957896001600160a01b0316848281518110613b7257fe5b60200260200101516001600160a01b03161415613b9157809150613b99565b600101613b54565b50818110613ba357fe5b336000908152600860205260409020805481906000198101908110613bc457fe5b9060005260206000200160009054906101000a90046001600160a01b0316818381548110613bee57fe5b600091825260209091200180546001600160a01b0319166001600160a01b03929092169190911790558054613c27826000198301615a61565b50604080516001600160a01b038c16815233602082015281517fe699a64c18b07ac5b7301aa273f36a2287239eb9501d81950672794afba29a0d929181900390910190a160009c9b505050505050505050505050565b6000546001600160a01b031681565b6001600160a01b0382166000908152601160209081526040808320600f9092528220549091613cb9611e18565b8354909150600090613cd9908390600160e01b900463ffffffff16614e18565b9050600081118015613ceb5750600083115b15613e98576000613d60876001600160a01b03166347bd37186040518163ffffffff1660e01b815260040160206040518083038186803b158015613d2e57600080fd5b505afa158015613d42573d6000803e3d6000fd5b505050506040513d6020811015613d5857600080fd5b50518761551f565b90506000613d6e8386614e52565b9050613d78615a4e565b60008311613d955760405180602001604052806000815250613d9f565b613d9f828461553d565b9050613da9615a4e565b604080516020810190915288546001600160e01b03168152613dcb9083615572565b90506040518060400160405280613e0183600001516040518060400160405280600381526020016204332360ec1b815250615597565b6001600160e01b03168152602001613e34886040518060400160405280600381526020016243323160e81b815250615631565b63ffffffff9081169091526001600160a01b038c166000908152601160209081526040909120835181549490920151909216600160e01b026001600160e01b039182166001600160e01b0319909416939093171691909117905550611e1d92505050565b8015611e1d57613ec3826040518060400160405280600381526020016243323160e81b815250615631565b845463ffffffff91909116600160e01b026001600160e01b03909116178455505050505050565b6001600160a01b0384166000908152601160205260409020613f0a615a4e565b50604080516020810190915281546001600160e01b03168152613f2b615a4e565b5060408051602080820183526001600160a01b03808a16600090815260138352848120918a168082528284529481208054855286519590915291529190915580511561257f57613f79615a4e565b613f838383615686565b90506000614012896001600160a01b03166395dd91938a6040518263ffffffff1660e01b815260040180826001600160a01b03166001600160a01b0316815260200191505060206040518083038186803b158015613fe057600080fd5b505afa158015613ff4573d6000803e3d6000fd5b505050506040513d602081101561400a57600080fd5b50518861551f565b9050600061402082846156ab565b6001600160a01b038a16600090815260146020526040812054919250906140479083614e94565b90506140688a828a6140605766038d7ea4c68000614063565b60005b6156da565b6001600160a01b03808c1660008181526014602090815260409182902094909455895181518781529485015280519193928f16927f1fc3ecc087d8d2d15e23d0032af5a47059c3892d003d8e139fdcb6bb327c99a6929081900390910190a35050505050505050505050565b600080546001600160a01b03163314806140f857506002546001600160a01b031633145b905090565b600080614108612ab9565b604080516370a0823160e01b815230600482015290519192506000916001600160a01b038416916370a08231916024808301926020929190829003018186803b15801561415457600080fd5b505afa158015614168573d6000803e3d6000fd5b505050506040513d602081101561417e57600080fd5b5051905080841161422157816001600160a01b031663a9059cbb86866040518363ffffffff1660e01b815260040180836001600160a01b03166001600160a01b0316815260200182815260200192505050602060405180830381600087803b1580156141e957600080fd5b505af11580156141fd573d6000803e3d6000fd5b505050506040513d602081101561421357600080fd5b506000935061150a92505050565b50919392505050565b6060600d80548060200260200160405190810160405280929190818152602001828054801561428257602002820191906000526020600020905b81546001600160a01b03168152600190910190602001808311614264575b50939450600093505050505b81518110156143485760008282815181106142a557fe5b602002602001015190506142b7615a4e565b6040518060200160405280836001600160a01b031663aa5af0fd6040518163ffffffff1660e01b815260040160206040518083038186803b1580156142fb57600080fd5b505afa15801561430f573d6000803e3d6000fd5b505050506040513d602081101561432557600080fd5b50519052905061433482614927565b61433e8282613c8c565b505060010161428e565b50614351615a4e565b604051806020016040528060008152509050606082516040519080825280602002602001820160405280156143a057816020015b61438d615a4e565b8152602001906001900390816143855790505b50905060005b83518110156145265760008482815181106143bd57fe5b6020908102919091018101516001600160a01b0381166000908152600990925260409091206003015490915060ff161561451d576143f9615a4e565b60408051602080820180845260045463fc57d4df60e01b9091526001600160a01b03868116602485015293519293849391169163fc57d4df916044808601929190818703018186803b15801561444e57600080fd5b505afa158015614462573d6000803e3d6000fd5b505050506040513d602081101561447857600080fd5b505190529050614486615a4e565b6144f482846001600160a01b03166347bd37186040518163ffffffff1660e01b815260040160206040518083038186803b1580156144c357600080fd5b505afa1580156144d7573d6000803e3d6000fd5b505050506040513d60208110156144ed57600080fd5b505161581f565b90508085858151811061450357fe5b60200260200101819052506145188682615572565b955050505b506001016143a6565b5060005b8351811015611e12576000600d828154811061454257fe5b600091825260208220015485516001600160a01b03909116925061456757600061458f565b61458f600e5461458a86868151811061457c57fe5b602002602001015188615178565b615840565b6001600160a01b0383166000818152600f60209081526040918290208490558151848152915193945091927f2ab93f65628379309f36cb125e90d7c902454a545c4f8b8cb0794af75c24b807929181900390910190a2505060010161452a565b60008060006145fc615a85565b6001600160a01b0388166000908152600860209081526040808320805482518185028101850190935280835260609383018282801561466457602002820191906000526020600020905b81546001600160a01b03168152600190910190602001808311614646575b50939450600093505050505b81518110156148e857600082828151811061468757fe5b60200260200101519050806001600160a01b031663c37f68e28d6040518263ffffffff1660e01b815260040180826001600160a01b03166001600160a01b0316815260200191505060806040518083038186803b1580156146e757600080fd5b505afa1580156146fb573d6000803e3d6000fd5b505050506040513d608081101561471157600080fd5b508051602082015160408084015160609485015160808b01529389019390935291870191909152935083156147565750600f965060009550859450611eb19350505050565b60408051602080820183526001600160a01b0380851660008181526009845285902060010154845260c08a01939093528351808301855260808a0151815260e08a015260048054855163fc57d4df60e01b815291820194909452935192169263fc57d4df9260248083019392829003018186803b1580156147d657600080fd5b505afa1580156147ea573d6000803e3d6000fd5b505050506040513d602081101561480057600080fd5b505160a086018190526148235750600d965060009550859450611eb19350505050565b604080516020810190915260a0860151815261010086015260c085015160e086015161485d9161485291615139565b866101000151615139565b610120860181905260408601518651614877929190615859565b855261010085015160608601516020870151614894929190615859565b60208601526001600160a01b03818116908c1614156148df576148c18561012001518b8760200151615859565b602086018190526101008601516148d9918b90615859565b60208601525b50600101614670565b5060208301518351111561490e5750506020810151905160009450039150829050611eb1565b5050805160209091015160009450849350039050611eb1565b6001600160a01b0381166000908152601060209081526040808320600f9092528220549091614954611e18565b8354909150600090614974908390600160e01b900463ffffffff16614e18565b90506000811180156149865750600083115b15614b2a576000856001600160a01b03166318160ddd6040518163ffffffff1660e01b815260040160206040518083038186803b1580156149c657600080fd5b505afa1580156149da573d6000803e3d6000fd5b505050506040513d60208110156149f057600080fd5b505190506000614a008386614e52565b9050614a0a615a4e565b60008311614a275760405180602001604052806000815250614a31565b614a31828461553d565b9050614a3b615a4e565b604080516020810190915288546001600160e01b03168152614a5d9083615572565b90506040518060400160405280614a9383600001516040518060400160405280600381526020016204332360ec1b815250615597565b6001600160e01b03168152602001614ac6886040518060400160405280600381526020016243323160e81b815250615631565b63ffffffff9081169091526001600160a01b038b166000908152601060209081526040909120835181549490920151909216600160e01b026001600160e01b039182166001600160e01b03199094169390931716919091179055506116cd92505050565b80156116cd57614b55826040518060400160405280600381526020016243323160e81b815250615631565b845463ffffffff91909116600160e01b026001600160e01b039091161784555050505050565b6001600160a01b0383166000908152601060205260409020614b9b615a4e565b50604080516020810190915281546001600160e01b03168152614bbc615a4e565b5060408051602080820183526001600160a01b03808916600090815260128352848120918916808252828452948120805485528651959091529152919091558051158015614c0a5750815115155b15614c22576ec097ce7bc90715b34b9f100000000081525b614c2a615a4e565b614c348383615686565b90506000876001600160a01b03166370a08231886040518263ffffffff1660e01b815260040180826001600160a01b03166001600160a01b0316815260200191505060206040518083038186803b158015614c8e57600080fd5b505afa158015614ca2573d6000803e3d6000fd5b505050506040513d6020811015614cb857600080fd5b505190506000614cc882846156ab565b6001600160a01b03891660009081526014602052604081205491925090614cef9083614e94565b9050614d0889828a6140605766038d7ea4c68000614063565b6001600160a01b03808b1660008181526014602090815260409182902094909455895181518781529485015280519193928e16927f2caecd17d02f56fa897705dcc740da2d237c373f70686f4e0d9bd3bf0400ea7a929081900390910190a350505050505050505050565b60007f45b96fe442630264581b197e84bbada861235052c5a1aadfff9ea4e40a969aa0836011811115614da257fe5b836013811115614dae57fe5b604080519283526020830191909152600082820152519081900360600190a1826011811115611a9657fe5b6000806000614dec8460008060006145ef565b9250925092509193909250565b6000614e03615a4e565b614e0d848461581f565b90506117a481615881565b6000611a968383604051806040016040528060158152602001747375627472616374696f6e20756e646572666c6f7760581b815250615890565b6000611a9683836040518060400160405280601781526020017f6d756c7469706c69636174696f6e206f766572666c6f770000000000000000008152506158ea565b6000611a968383604051806040016040528060118152602001706164646974696f6e206f766572666c6f7760781b815250615969565b60005b600d54811015614f4457816001600160a01b0316600d8281548110614eee57fe5b6000918252602090912001546001600160a01b03161415614f3c576040805162461bcd60e51b815260206004820152600360248201526204331360ec1b604482015290519081900360640190fd5b600101614ecd565b50600d80546001810182556000919091527fd7b6990105719101dabeb77144f2a3385c8033acd3af97e9423a695e81ad1eb50180546001600160a01b0319166001600160a01b0392909216919091179055565b6001600160a01b03831660009081526009602052604081205460ff16614fbe576009611f31565b6001600160a01b038085166000908152600960209081526040808320938716835260029093019052205460ff16614ff6576000611f31565b60008061500685878660006145ef565b9193509091506000905082601181111561501c57fe5b146150365781601181111561502d57fe5b92505050611a96565b801561330957600461502d565b6001600160a01b0382166000908152600960205260408120805460ff1661506e57600991505061150a565b6001600160a01b038316600090815260028201602052604090205460ff161515600114156150a057600091505061150a565b6001600160a01b0380841660008181526002840160209081526040808320805460ff19166001908117909155600883528184208054918201815584529282902090920180549489166001600160a01b031990951685179055815193845283019190915280517f3ab23ab0d51cccc0c3085aec51f99228625aa1a922b3a8ca89a26b0f2027a1a59281900390910190a15060009392505050565b615141615a4e565b6040518060200160405280670de0b6b3a764000061516786600001518660000151614e52565b8161516e57fe5b0490529392505050565b615180615a4e565b60405180602001604052806151ab6151a48660000151670de0b6b3a7640000614e52565b85516159be565b90529392505050565b6001600160a01b0381166000908152600960205260409020805460ff161515600114615227576040805162461bcd60e51b815260206004820152601960248201527f636f6d70206d61726b6574206973206e6f74206c697374656400000000000000604482015290519081900360640190fd5b600381015460ff161561526c576040805162461bcd60e51b81526020600482015260086024820152670636f6d70204331360c41b604482015290519081900360640190fd5b60038101805460ff19166001908117909155604080516001600160a01b0385168152602081019290925280517f93c1f3e36ed71139f466a4ce8c9751790e2e33f5afb2df0dcfb3aeabe55d5aa29281900390910190a16001600160a01b0382166000908152601060205260409020546001600160e01b031615801561531457506001600160a01b038216600090815260106020526040902054600160e01b900463ffffffff16155b156153c95760405180604001604052806ec097ce7bc90715b34b9f10000000006001600160e01b0316815260200161536e61534d611e18565b6040518060400160405280600381526020016243323160e81b815250615631565b63ffffffff9081169091526001600160a01b0384166000908152601060209081526040909120835181549490920151909216600160e01b026001600160e01b039182166001600160e01b031990941693909317169190911790555b6001600160a01b0382166000908152601160205260409020546001600160e01b031615801561541b57506001600160a01b038216600090815260116020526040902054600160e01b900463ffffffff16155b15611c7e5760405180604001604052806ec097ce7bc90715b34b9f10000000006001600160e01b0316815260200161545461534d611e18565b63ffffffff9081169091526001600160a01b0384166000908152601160209081526040909120835181549490920151909216600160e01b026001600160e01b039182166001600160e01b031990941693909317169190911790555050565b5190511090565b60007f45b96fe442630264581b197e84bbada861235052c5a1aadfff9ea4e40a969aa08460118111156154e857fe5b8460138111156154f457fe5b604080519283526020830191909152818101859052519081900360600190a18360118111156117a457fe5b6000611a9661553684670de0b6b3a7640000614e52565b83516159be565b615545615a4e565b60405180602001604052806151ab61556c866ec097ce7bc90715b34b9f1000000000614e52565b856159be565b61557a615a4e565b60405180602001604052806151ab85600001518560000151614e94565b600081600160e01b84106156295760405162461bcd60e51b81526004018080602001828103825283818151815260200191508051906020019080838360005b838110156155ee5781810151838201526020016155d6565b50505050905090810190601f16801561561b5780820380516001836020036101000a031916815260200191505b509250505060405180910390fd5b509192915050565b600081600160201b84106156295760405162461bcd60e51b81526020600482018181528351602484015283519092839260449091019190850190808383600083156155ee5781810151838201526020016155d6565b61568e615a4e565b60405180602001604052806151ab85600001518560000151614e18565b60006ec097ce7bc90715b34b9f10000000006156cb848460000151614e52565b816156d257fe5b049392505050565b60008183101580156156ec5750600083115b156158175760006156fb612ab9565b604080516370a0823160e01b815230600482015290519192506000916001600160a01b038416916370a08231916024808301926020929190829003018186803b15801561574757600080fd5b505afa15801561575b573d6000803e3d6000fd5b505050506040513d602081101561577157600080fd5b5051905080851161581457816001600160a01b031663a9059cbb87876040518363ffffffff1660e01b815260040180836001600160a01b03166001600160a01b0316815260200182815260200192505050602060405180830381600087803b1580156157dc57600080fd5b505af11580156157f0573d6000803e3d6000fd5b505050506040513d602081101561580657600080fd5b5060009350611a9692505050565b50505b509092915050565b615827615a4e565b60405180602001604052806151ab856000015185614e52565b6000670de0b6b3a76400006156cb848460000151614e52565b6000615863615a4e565b61586d858561581f565b90506123fd61587b82615881565b84614e94565b51670de0b6b3a7640000900490565b600081848411156158e25760405162461bcd60e51b81526020600482018181528351602484015283519092839260449091019190850190808383600083156155ee5781810151838201526020016155d6565b505050900390565b60008315806158f7575082155b1561590457506000611a96565b8383028385828161591157fe5b041483906159605760405162461bcd60e51b81526020600482018181528351602484015283519092839260449091019190850190808383600083156155ee5781810151838201526020016155d6565b50949350505050565b600083830182858210156159605760405162461bcd60e51b81526020600482018181528351602484015283519092839260449091019190850190808383600083156155ee5781810151838201526020016155d6565b6000611a9683836040518060400160405280600e81526020016d646976696465206279207a65726f60901b81525060008183615a3b5760405162461bcd60e51b81526020600482018181528351602484015283519092839260449091019190850190808383600083156155ee5781810151838201526020016155d6565b50828481615a4557fe5b04949350505050565b6040518060200160405280600081525090565b81548183558181111561156d5760008381526020902061156d918101908301615aef565b604051806101400160405280600081526020016000815260200160008152602001600081526020016000815260200160008152602001615ac3615a4e565b8152602001615ad0615a4e565b8152602001615add615a4e565b8152602001615aea615a4e565b905290565b611e1a91905b80821115615b095760008155600101615af5565b509056fea265627a7a723158202f369fc0f48bdec1fedffb5258178ad347f47e4dc0ce3c49ecf23f81d2c3e75e64736f6c63430005100032",
  "linkReferences": {},
  "deployedLinkReferences": {}
}