{
  "_format": "hh-sol-artifact-1",
  "contractName": "HurricaneInterestRateModel",
  "sourceName": "contracts/HurricaneInterestRateModel.sol",
  "abi": [
    {
      "inputs": [
        {
          "internalType": "uint256",
          "name": "_baseBorrowRate",
          "type": "uint256"
        },
        {
          "internalType": "uint256",
          "name": "_promisedBaseReturnRate",
          "type": "uint256"
        },
        {
          "internalType": "uint256",
          "name": "_optimalUtilizationRate",
          "type": "uint256"
        },
        {
          "internalType": "uint256",
          "name": "_borrowRateSlope",
          "type": "uint256"
        },
        {
          "internalType": "uint256",
          "name": "_supplyRateSlope",
          "type": "uint256"
        }
      ],
      "payable": false,
      "stateMutability": "nonpayable",
      "type": "constructor"
    },
    {
      "constant": false,
      "inputs": [],
      "name": "_acceptPendingAdmin",
      "outputs": [],
      "payable": false,
      "stateMutability": "nonpayable",
      "type": "function"
    },
    {
      "constant": false,
      "inputs": [
        {
          "internalType": "address",
          "name": "pendingAdmin_",
          "type": "address"
        }
      ],
      "name": "_setPendingAdmin",
      "outputs": [],
      "payable": false,
      "stateMutability": "nonpayable",
      "type": "function"
    },
    {
      "constant": true,
      "inputs": [],
      "name": "baseBorrowRatePerBlock",
      "outputs": [
        {
          "internalType": "uint256",
          "name": "",
          "type": "uint256"
        }
      ],
      "payable": false,
      "stateMutability": "view",
      "type": "function"
    },
    {
      "constant": true,
      "inputs": [],
      "name": "blocksPerYear",
      "outputs": [
        {
          "internalType": "uint256",
          "name": "",
          "type": "uint256"
        }
      ],
      "payable": false,
      "stateMutability": "view",
      "type": "function"
    },
    {
      "constant": true,
      "inputs": [],
      "name": "borrowRateSlopePerBlock",
      "outputs": [
        {
          "internalType": "uint256",
          "name": "",
          "type": "uint256"
        }
      ],
      "payable": false,
      "stateMutability": "view",
      "type": "function"
    },
    {
      "constant": true,
      "inputs": [
        {
          "internalType": "uint256",
          "name": "cash",
          "type": "uint256"
        },
        {
          "internalType": "uint256",
          "name": "borrows",
          "type": "uint256"
        },
        {
          "internalType": "uint256",
          "name": "reserves",
          "type": "uint256"
        }
      ],
      "name": "getBorrowRate",
      "outputs": [
        {
          "internalType": "uint256",
          "name": "borrowRate",
          "type": "uint256"
        }
      ],
      "payable": false,
      "stateMutability": "view",
      "type": "function"
    },
    {
      "constant": true,
      "inputs": [
        {
          "internalType": "uint256",
          "name": "_totalCash",
          "type": "uint256"
        },
        {
          "internalType": "uint256",
          "name": "_totalBorrows",
          "type": "uint256"
        },
        {
          "internalType": "uint256",
          "name": "_totalReserves",
          "type": "uint256"
        },
        {
          "internalType": "uint256",
          "name": "_totalSupply",
          "type": "uint256"
        }
      ],
      "name": "getExchangeRate",
      "outputs": [
        {
          "internalType": "enum CarefulMath.MathError",
          "name": "",
          "type": "uint8"
        },
        {
          "internalType": "uint256",
          "name": "",
          "type": "uint256"
        }
      ],
      "payable": false,
      "stateMutability": "pure",
      "type": "function"
    },
    {
      "constant": true,
      "inputs": [
        {
          "internalType": "uint256",
          "name": "cash",
          "type": "uint256"
        },
        {
          "internalType": "uint256",
          "name": "borrows",
          "type": "uint256"
        },
        {
          "internalType": "uint256",
          "name": "reserves",
          "type": "uint256"
        },
        {
          "internalType": "uint256",
          "name": "reserveFactorMantissa",
          "type": "uint256"
        }
      ],
      "name": "getSupplyRate",
      "outputs": [
        {
          "internalType": "uint256",
          "name": "",
          "type": "uint256"
        }
      ],
      "payable": false,
      "stateMutability": "view",
      "type": "function"
    },
    {
      "constant": true,
      "inputs": [
        {
          "internalType": "uint256",
          "name": "cash",
          "type": "uint256"
        },
        {
          "internalType": "uint256",
          "name": "borrows",
          "type": "uint256"
        },
        {
          "internalType": "uint256",
          "name": "reserves",
          "type": "uint256"
        }
      ],
      "name": "isAboveOptimal",
      "outputs": [
        {
          "internalType": "bool",
          "name": "",
          "type": "bool"
        }
      ],
      "payable": false,
      "stateMutability": "view",
      "type": "function"
    },
    {
      "constant": true,
      "inputs": [],
      "name": "isInterestRateModel",
      "outputs": [
        {
          "internalType": "bool",
          "name": "",
          "type": "bool"
        }
      ],
      "payable": false,
      "stateMutability": "view",
      "type": "function"
    },
    {
      "constant": true,
      "inputs": [],
      "name": "isTropykusInterestRateModel",
      "outputs": [
        {
          "internalType": "bool",
          "name": "",
          "type": "bool"
        }
      ],
      "payable": false,
      "stateMutability": "view",
      "type": "function"
    },
    {
      "constant": true,
      "inputs": [],
      "name": "optimalUtilizationRate",
      "outputs": [
        {
          "internalType": "uint256",
          "name": "",
          "type": "uint256"
        }
      ],
      "payable": false,
      "stateMutability": "view",
      "type": "function"
    },
    {
      "constant": true,
      "inputs": [],
      "name": "owner",
      "outputs": [
        {
          "internalType": "address",
          "name": "",
          "type": "address"
        }
      ],
      "payable": false,
      "stateMutability": "view",
      "type": "function"
    },
    {
      "constant": true,
      "inputs": [],
      "name": "promisedBaseReturnRatePerBlock",
      "outputs": [
        {
          "internalType": "uint256",
          "name": "",
          "type": "uint256"
        }
      ],
      "payable": false,
      "stateMutability": "view",
      "type": "function"
    },
    {
      "constant": false,
      "inputs": [
        {
          "internalType": "uint256",
          "name": "blocksPerYear_",
          "type": "uint256"
        }
      ],
      "name": "setBlocksPerYear",
      "outputs": [],
      "payable": false,
      "stateMutability": "nonpayable",
      "type": "function"
    },
    {
      "constant": true,
      "inputs": [],
      "name": "supplyRateSlopePerBlock",
      "outputs": [
        {
          "internalType": "uint256",
          "name": "",
          "type": "uint256"
        }
      ],
      "payable": false,
      "stateMutability": "view",
      "type": "function"
    },
    {
      "constant": true,
      "inputs": [
        {
          "internalType": "uint256",
          "name": "cash",
          "type": "uint256"
        },
        {
          "internalType": "uint256",
          "name": "borrows",
          "type": "uint256"
        },
        {
          "internalType": "uint256",
          "name": "reserves",
          "type": "uint256"
        }
      ],
      "name": "utilizationRate",
      "outputs": [
        {
          "internalType": "uint256",
          "name": "",
          "type": "uint256"
        }
      ],
      "payable": false,
      "stateMutability": "pure",
      "type": "function"
    }
  ],
  "bytecode": "0x60806040523480156200001157600080fd5b5060405162000d9738038062000d97833981810160405260a08110156200003757600080fd5b5080516020808301516040840151606085015160809095015162100a406000819055600180546001600160a01b0319163317905594959294919390916200008a918791906200073962000112821b17901c565b600481905550620000ac600054856200011260201b620007391790919060201c565b600581905550620000ce600054836200011260201b620007391790919060201c565b600781905550620000f0600054826200011260201b620007391790919060201c565b60085550506006555050600380546001600160a01b031916331790556200020a565b60006200015c83836040518060400160405280601a81526020017f536166654d6174683a206469766973696f6e206279207a65726f0000000000008152506200016360201b60201c565b9392505050565b60008183620001f35760405162461bcd60e51b81526004018080602001828103825283818151815260200191508051906020019080838360005b83811015620001b75781810151838201526020016200019d565b50505050905090810190601f168015620001e55780820380516001836020036101000a031916815260200191505b509250505060405180910390fd5b5060008385816200020057fe5b0495945050505050565b610b7d806200021a6000396000f3fe608060405234801561001057600080fd5b506004361061010b5760003560e01c80638da5cb5b116100a2578063b71d1a0c11610071578063b71d1a0c14610269578063b81688161461028f578063dffd2b38146102be578063e36c26e414610153578063e5fa2b70146102c65761010b565b80638da5cb5b146101db5780639207aede146101ff5780639dc8bea714610207578063a385fb96146102615761010b565b8063599ff732116100de578063599ff732146101795780635b6dde7f1461018157806364f42eda146101895780636e71e2d8146101b25761010b565b80630b454f231461011057806315f240531461012a5780632191f92a146101535780634a198ca61461016f575b600080fd5b6101186102e3565b60408051918252519081900360200190f35b6101186004803603606081101561014057600080fd5b50803590602081013590604001356102e9565b61015b610341565b604080519115158252519081900360200190f35b610177610346565b005b6101186103b7565b6101186103bd565b61015b6004803603606081101561019f57600080fd5b50803590602081013590604001356103c3565b610118600480360360608110156101c857600080fd5b50803590602081013590604001356103e0565b6101e3610432565b604080516001600160a01b039092168252519081900360200190f35b610118610441565b6102366004803603608081101561021d57600080fd5b5080359060208101359060408101359060600135610447565b6040518083600381111561024657fe5b60ff1681526020018281526020019250505060405180910390f35b6101186104c8565b6101776004803603602081101561027f57600080fd5b50356001600160a01b03166104ce565b610118600480360360808110156102a557600080fd5b508035906020810135906040810135906060013561057a565b6101186105bb565b610177600480360360208110156102dc57600080fd5b50356105c1565b60045481565b6000806102f78585856103e0565b905061033860045461032c670de0b6b3a7640000610320600754866106d790919063ffffffff16565b9063ffffffff61073916565b9063ffffffff61077b16565b95945050505050565b600181565b6002546001600160a01b03163314610393576040805162461bcd60e51b815260206004820152600b60248201526a2727a72722aba0a226a4a760a91b604482015290519081900360640190fd5b600254600180546001600160a01b0319166001600160a01b03909216919091179055565b60075481565b60055481565b6000806103d18585856103e0565b600654109150505b9392505050565b6000826103ef575060006103d9565b61042a61041283610406878763ffffffff61077b16565b9063ffffffff6107d516565b61032085670de0b6b3a764000063ffffffff6106d716565b949350505050565b6003546001600160a01b031681565b60085481565b600080610452610b14565b600080610460898989610817565b9092509050600082600381111561047357fe5b1461048657509250600091506104bf9050565b6104908187610864565b9350915060008260038111156104a257fe5b146104b557509250600091506104bf9050565b5050516000925090505b94509492505050565b60005481565b6001546001600160a01b03163314610518576040805162461bcd60e51b81526020600482015260086024820152672727a720a226a4a760c11b604482015290519081900360640190fd5b6001600160a01b038116610558576040805162461bcd60e51b8152602060048201526002602482015261413160f01b604482015290519081900360640190fd5b600280546001600160a01b0319166001600160a01b0392909216919091179055565b6000806105888686866103e0565b90506105b160055461032c670de0b6b3a7640000610320600854866106d790919063ffffffff16565b9695505050505050565b60065481565b6001546001600160a01b0316331461060b576040805162461bcd60e51b81526020600482015260086024820152672727a720a226a4a760c11b604482015290519081900360640190fd5b6000546004546106209163ffffffff6106d716565b6004556000546005546106389163ffffffff6106d716565b6005556000546007546106509163ffffffff6106d716565b6007556000546008546106689163ffffffff6106d716565b60085561067481610916565b6000546004546106899163ffffffff61073916565b6004556000546005546106a19163ffffffff61073916565b6005556000546007546106b99163ffffffff61073916565b6007556000546008546106d19163ffffffff61073916565b60085550565b6000826106e657506000610733565b828202828482816106f357fe5b04146107305760405162461bcd60e51b8152600401808060200182810382526021815260200180610b286021913960400191505060405180910390fd5b90505b92915050565b600061073083836040518060400160405280601a81526020017f536166654d6174683a206469766973696f6e206279207a65726f000000000000815250610965565b600082820183811015610730576040805162461bcd60e51b815260206004820152601b60248201527f536166654d6174683a206164646974696f6e206f766572666c6f770000000000604482015290519081900360640190fd5b600061073083836040518060400160405280601f81526020017f536166654d6174683a207375627472616374696f6e20756e646572666c6f7700815250610a07565b6000806000806108278787610a61565b9092509050600082600381111561083a57fe5b1461084b575091506000905061085c565b6108558186610a87565b9350935050505b935093915050565b600061086e610b14565b60008061088386670de0b6b3a7640000610aaa565b9092509050600082600381111561089657fe5b146108b55750604080516020810190915260008152909250905061090f565b6000806108c28388610ae9565b909250905060008260038111156108d557fe5b146108f75750604080516020810190915260008152909450925061090f915050565b60408051602081019091529081526000955093505050505b9250929050565b6001546001600160a01b03163314610960576040805162461bcd60e51b81526020600482015260086024820152672727a720a226a4a760c11b604482015290519081900360640190fd5b600055565b600081836109f15760405162461bcd60e51b81526004018080602001828103825283818151815260200191508051906020019080838360005b838110156109b657818101518382015260200161099e565b50505050905090810190601f1680156109e35780820380516001836020036101000a031916815260200191505b509250505060405180910390fd5b5060008385816109fd57fe5b0495945050505050565b60008184841115610a595760405162461bcd60e51b81526020600482018181528351602484015283519092839260449091019190850190808383600083156109b657818101518382015260200161099e565b505050900390565b600080838301848110610a795760009250905061090f565b50600291506000905061090f565b600080838311610a9e57506000905081830361090f565b5060039050600061090f565b60008083610abd5750600090508061090f565b83830283858281610aca57fe5b0414610ade5750600291506000905061090f565b60009250905061090f565b60008082610afd575060019050600061090f565b6000838581610b0857fe5b04915091509250929050565b604051806020016040528060008152509056fe536166654d6174683a206d756c7469706c69636174696f6e206f766572666c6f77a265627a7a7231582031f59e158b3e8facb586d1c8457d3a9752b59ab35684b4601a8388602c4f33b164736f6c63430005100032",
  "linkReferences": {},
  "deployedLinkReferences": {}
}