{
  "_format": "hh-sol-artifact-1",
  "contractName": "Comptroller",
  "sourceName": "contracts/Comptroller.sol",
  "abi": [
    {
      "inputs": [],
      "payable": false,
      "stateMutability": "nonpayable",
      "type": "constructor"
    },
    {
      "anonymous": false,
      "inputs": [
        {
          "indexed": false,
          "internalType": "string",
          "name": "action",
          "type": "string"
        },
        {
          "indexed": false,
          "internalType": "bool",
          "name": "pauseState",
          "type": "bool"
        }
      ],
      "name": "ActionPaused",
      "type": "event"
    },
    {
      "anonymous": false,
      "inputs": [
        {
          "indexed": false,
          "internalType": "contract CToken",
          "name": "cToken",
          "type": "address"
        },
        {
          "indexed": false,
          "internalType": "string",
          "name": "action",
          "type": "string"
        },
        {
          "indexed": false,
          "internalType": "bool",
          "name": "pauseState",
          "type": "bool"
        }
      ],
      "name": "ActionPaused",
      "type": "event"
    },
    {
      "anonymous": false,
      "inputs": [
        {
          "indexed": false,
          "internalType": "address",
          "name": "recipient",
          "type": "address"
        },
        {
          "indexed": false,
          "internalType": "uint256",
          "name": "amount",
          "type": "uint256"
        }
      ],
      "name": "CompGranted",
      "type": "event"
    },
    {
      "anonymous": false,
      "inputs": [
        {
          "indexed": true,
          "internalType": "contract CToken",
          "name": "cToken",
          "type": "address"
        },
        {
          "indexed": false,
          "internalType": "uint256",
          "name": "newSpeed",
          "type": "uint256"
        }
      ],
      "name": "CompSpeedUpdated",
      "type": "event"
    },
    {
      "anonymous": false,
      "inputs": [
        {
          "indexed": true,
          "internalType": "address",
          "name": "contributor",
          "type": "address"
        },
        {
          "indexed": false,
          "internalType": "uint256",
          "name": "newSpeed",
          "type": "uint256"
        }
      ],
      "name": "ContributorCompSpeedUpdated",
      "type": "event"
    },
    {
      "anonymous": false,
      "inputs": [
        {
          "indexed": true,
          "internalType": "contract CToken",
          "name": "cToken",
          "type": "address"
        },
        {
          "indexed": true,
          "internalType": "address",
          "name": "borrower",
          "type": "address"
        },
        {
          "indexed": false,
          "internalType": "uint256",
          "name": "compDelta",
          "type": "uint256"
        },
        {
          "indexed": false,
          "internalType": "uint256",
          "name": "compBorrowIndex",
          "type": "uint256"
        }
      ],
      "name": "DistributedBorrowerComp",
      "type": "event"
    },
    {
      "anonymous": false,
      "inputs": [
        {
          "indexed": true,
          "internalType": "contract CToken",
          "name": "cToken",
          "type": "address"
        },
        {
          "indexed": true,
          "internalType": "address",
          "name": "supplier",
          "type": "address"
        },
        {
          "indexed": false,
          "internalType": "uint256",
          "name": "compDelta",
          "type": "uint256"
        },
        {
          "indexed": false,
          "internalType": "uint256",
          "name": "compSupplyIndex",
          "type": "uint256"
        }
      ],
      "name": "DistributedSupplierComp",
      "type": "event"
    },
    {
      "anonymous": false,
      "inputs": [
        {
          "indexed": false,
          "internalType": "uint256",
          "name": "error",
          "type": "uint256"
        },
        {
          "indexed": false,
          "internalType": "uint256",
          "name": "info",
          "type": "uint256"
        },
        {
          "indexed": false,
          "internalType": "uint256",
          "name": "detail",
          "type": "uint256"
        }
      ],
      "name": "Failure",
      "type": "event"
    },
    {
      "anonymous": false,
      "inputs": [
        {
          "indexed": false,
          "internalType": "contract CToken",
          "name": "cToken",
          "type": "address"
        },
        {
          "indexed": false,
          "internalType": "address",
          "name": "account",
          "type": "address"
        }
      ],
      "name": "MarketEntered",
      "type": "event"
    },
    {
      "anonymous": false,
      "inputs": [
        {
          "indexed": false,
          "internalType": "contract CToken",
          "name": "cToken",
          "type": "address"
        },
        {
          "indexed": false,
          "internalType": "address",
          "name": "account",
          "type": "address"
        }
      ],
      "name": "MarketExited",
      "type": "event"
    },
    {
      "anonymous": false,
      "inputs": [
        {
          "indexed": false,
          "internalType": "contract CToken",
          "name": "cToken",
          "type": "address"
        }
      ],
      "name": "MarketListed",
      "type": "event"
    },
    {
      "anonymous": false,
      "inputs": [
        {
          "indexed": true,
          "internalType": "contract CToken",
          "name": "cToken",
          "type": "address"
        },
        {
          "indexed": false,
          "internalType": "uint256",
          "name": "newBorrowCap",
          "type": "uint256"
        }
      ],
      "name": "NewBorrowCap",
      "type": "event"
    },
    {
      "anonymous": false,
      "inputs": [
        {
          "indexed": false,
          "internalType": "address",
          "name": "oldBorrowCapGuardian",
          "type": "address"
        },
        {
          "indexed": false,
          "internalType": "address",
          "name": "newBorrowCapGuardian",
          "type": "address"
        }
      ],
      "name": "NewBorrowCapGuardian",
      "type": "event"
    },
    {
      "anonymous": false,
      "inputs": [
        {
          "indexed": false,
          "internalType": "uint256",
          "name": "oldCloseFactorMantissa",
          "type": "uint256"
        },
        {
          "indexed": false,
          "internalType": "uint256",
          "name": "newCloseFactorMantissa",
          "type": "uint256"
        }
      ],
      "name": "NewCloseFactor",
      "type": "event"
    },
    {
      "anonymous": false,
      "inputs": [
        {
          "indexed": false,
          "internalType": "contract CToken",
          "name": "cToken",
          "type": "address"
        },
        {
          "indexed": false,
          "internalType": "uint256",
          "name": "oldCollateralFactorMantissa",
          "type": "uint256"
        },
        {
          "indexed": false,
          "internalType": "uint256",
          "name": "newCollateralFactorMantissa",
          "type": "uint256"
        }
      ],
      "name": "NewCollateralFactor",
      "type": "event"
    },
    {
      "anonymous": false,
      "inputs": [
        {
          "indexed": false,
          "internalType": "uint256",
          "name": "oldLiquidationIncentiveMantissa",
          "type": "uint256"
        },
        {
          "indexed": false,
          "internalType": "uint256",
          "name": "newLiquidationIncentiveMantissa",
          "type": "uint256"
        }
      ],
      "name": "NewLiquidationIncentive",
      "type": "event"
    },
    {
      "anonymous": false,
      "inputs": [
        {
          "indexed": false,
          "internalType": "address",
          "name": "oldPauseGuardian",
          "type": "address"
        },
        {
          "indexed": false,
          "internalType": "address",
          "name": "newPauseGuardian",
          "type": "address"
        }
      ],
      "name": "NewPauseGuardian",
      "type": "event"
    },
    {
      "anonymous": false,
      "inputs": [
        {
          "indexed": false,
          "internalType": "contract PriceOracle",
          "name": "oldPriceOracle",
          "type": "address"
        },
        {
          "indexed": false,
          "internalType": "contract PriceOracle",
          "name": "newPriceOracle",
          "type": "address"
        }
      ],
      "name": "NewPriceOracle",
      "type": "event"
    },
    {
      "constant": false,
      "inputs": [
        {
          "internalType": "contract Unitroller",
          "name": "unitroller",
          "type": "address"
        }
      ],
      "name": "_become",
      "outputs": [],
      "payable": false,
      "stateMutability": "nonpayable",
      "type": "function"
    },
    {
      "constant": true,
      "inputs": [],
      "name": "_borrowGuardianPaused",
      "outputs": [
        {
          "internalType": "bool",
          "name": "",
          "type": "bool"
        }
      ],
      "payable": false,
      "stateMutability": "view",
      "type": "function"
    },
    {
      "constant": false,
      "inputs": [
        {
          "internalType": "address",
          "name": "recipient",
          "type": "address"
        },
        {
          "internalType": "uint256",
          "name": "amount",
          "type": "uint256"
        }
      ],
      "name": "_grantComp",
      "outputs": [],
      "payable": false,
      "stateMutability": "nonpayable",
      "type": "function"
    },
    {
      "constant": true,
      "inputs": [],
      "name": "_mintGuardianPaused",
      "outputs": [
        {
          "internalType": "bool",
          "name": "",
          "type": "bool"
        }
      ],
      "payable": false,
      "stateMutability": "view",
      "type": "function"
    },
    {
      "constant": false,
      "inputs": [
        {
          "internalType": "address",
          "name": "newBorrowCapGuardian",
          "type": "address"
        }
      ],
      "name": "_setBorrowCapGuardian",
      "outputs": [],
      "payable": false,
      "stateMutability": "nonpayable",
      "type": "function"
    },
    {
      "constant": false,
      "inputs": [
        {
          "internalType": "contract CToken",
          "name": "cToken",
          "type": "address"
        },
        {
          "internalType": "bool",
          "name": "state",
          "type": "bool"
        }
      ],
      "name": "_setBorrowPaused",
      "outputs": [
        {
          "internalType": "bool",
          "name": "",
          "type": "bool"
        }
      ],
      "payable": false,
      "stateMutability": "nonpayable",
      "type": "function"
    },
    {
      "constant": false,
      "inputs": [
        {
          "internalType": "uint256",
          "name": "newCloseFactorMantissa",
          "type": "uint256"
        }
      ],
      "name": "_setCloseFactor",
      "outputs": [
        {
          "internalType": "uint256",
          "name": "",
          "type": "uint256"
        }
      ],
      "payable": false,
      "stateMutability": "nonpayable",
      "type": "function"
    },
    {
      "constant": false,
      "inputs": [
        {
          "internalType": "contract CToken",
          "name": "cToken",
          "type": "address"
        },
        {
          "internalType": "uint256",
          "name": "newCollateralFactorMantissa",
          "type": "uint256"
        }
      ],
      "name": "_setCollateralFactor",
      "outputs": [
        {
          "internalType": "uint256",
          "name": "",
          "type": "uint256"
        }
      ],
      "payable": false,
      "stateMutability": "nonpayable",
      "type": "function"
    },
    {
      "constant": false,
      "inputs": [
        {
          "internalType": "contract CToken",
          "name": "cToken",
          "type": "address"
        },
        {
          "internalType": "uint256",
          "name": "compSpeed",
          "type": "uint256"
        }
      ],
      "name": "_setCompSpeed",
      "outputs": [],
      "payable": false,
      "stateMutability": "nonpayable",
      "type": "function"
    },
    {
      "constant": false,
      "inputs": [
        {
          "internalType": "address",
          "name": "contributor",
          "type": "address"
        },
        {
          "internalType": "uint256",
          "name": "compSpeed",
          "type": "uint256"
        }
      ],
      "name": "_setContributorCompSpeed",
      "outputs": [],
      "payable": false,
      "stateMutability": "nonpayable",
      "type": "function"
    },
    {
      "constant": false,
      "inputs": [
        {
          "internalType": "uint256",
          "name": "newLiquidationIncentiveMantissa",
          "type": "uint256"
        }
      ],
      "name": "_setLiquidationIncentive",
      "outputs": [
        {
          "internalType": "uint256",
          "name": "",
          "type": "uint256"
        }
      ],
      "payable": false,
      "stateMutability": "nonpayable",
      "type": "function"
    },
    {
      "constant": false,
      "inputs": [
        {
          "internalType": "contract CToken[]",
          "name": "cTokens",
          "type": "address[]"
        },
        {
          "internalType": "uint256[]",
          "name": "newBorrowCaps",
          "type": "uint256[]"
        }
      ],
      "name": "_setMarketBorrowCaps",
      "outputs": [],
      "payable": false,
      "stateMutability": "nonpayable",
      "type": "function"
    },
    {
      "constant": false,
      "inputs": [
        {
          "internalType": "contract CToken",
          "name": "cToken",
          "type": "address"
        },
        {
          "internalType": "bool",
          "name": "state",
          "type": "bool"
        }
      ],
      "name": "_setMintPaused",
      "outputs": [
        {
          "internalType": "bool",
          "name": "",
          "type": "bool"
        }
      ],
      "payable": false,
      "stateMutability": "nonpayable",
      "type": "function"
    },
    {
      "constant": false,
      "inputs": [
        {
          "internalType": "address",
          "name": "newPauseGuardian",
          "type": "address"
        }
      ],
      "name": "_setPauseGuardian",
      "outputs": [
        {
          "internalType": "uint256",
          "name": "",
          "type": "uint256"
        }
      ],
      "payable": false,
      "stateMutability": "nonpayable",
      "type": "function"
    },
    {
      "constant": false,
      "inputs": [
        {
          "internalType": "contract PriceOracle",
          "name": "newOracle",
          "type": "address"
        }
      ],
      "name": "_setPriceOracle",
      "outputs": [
        {
          "internalType": "uint256",
          "name": "",
          "type": "uint256"
        }
      ],
      "payable": false,
      "stateMutability": "nonpayable",
      "type": "function"
    },
    {
      "constant": false,
      "inputs": [
        {
          "internalType": "bool",
          "name": "state",
          "type": "bool"
        }
      ],
      "name": "_setSeizePaused",
      "outputs": [
        {
          "internalType": "bool",
          "name": "",
          "type": "bool"
        }
      ],
      "payable": false,
      "stateMutability": "nonpayable",
      "type": "function"
    },
    {
      "constant": false,
      "inputs": [
        {
          "internalType": "bool",
          "name": "state",
          "type": "bool"
        }
      ],
      "name": "_setTransferPaused",
      "outputs": [
        {
          "internalType": "bool",
          "name": "",
          "type": "bool"
        }
      ],
      "payable": false,
      "stateMutability": "nonpayable",
      "type": "function"
    },
    {
      "constant": false,
      "inputs": [
        {
          "internalType": "contract CToken",
          "name": "cToken",
          "type": "address"
        }
      ],
      "name": "_supportMarket",
      "outputs": [
        {
          "internalType": "uint256",
          "name": "",
          "type": "uint256"
        }
      ],
      "payable": false,
      "stateMutability": "nonpayable",
      "type": "function"
    },
    {
      "constant": true,
      "inputs": [
        {
          "internalType": "address",
          "name": "",
          "type": "address"
        },
        {
          "internalType": "uint256",
          "name": "",
          "type": "uint256"
        }
      ],
      "name": "accountAssets",
      "outputs": [
        {
          "internalType": "contract CToken",
          "name": "",
          "type": "address"
        }
      ],
      "payable": false,
      "stateMutability": "view",
      "type": "function"
    },
    {
      "constant": true,
      "inputs": [],
      "name": "admin",
      "outputs": [
        {
          "internalType": "address",
          "name": "",
          "type": "address"
        }
      ],
      "payable": false,
      "stateMutability": "view",
      "type": "function"
    },
    {
      "constant": true,
      "inputs": [
        {
          "internalType": "uint256",
          "name": "",
          "type": "uint256"
        }
      ],
      "name": "allMarkets",
      "outputs": [
        {
          "internalType": "contract CToken",
          "name": "",
          "type": "address"
        }
      ],
      "payable": false,
      "stateMutability": "view",
      "type": "function"
    },
    {
      "constant": false,
      "inputs": [
        {
          "internalType": "address",
          "name": "cToken",
          "type": "address"
        },
        {
          "internalType": "address",
          "name": "borrower",
          "type": "address"
        },
        {
          "internalType": "uint256",
          "name": "borrowAmount",
          "type": "uint256"
        }
      ],
      "name": "borrowAllowed",
      "outputs": [
        {
          "internalType": "uint256",
          "name": "",
          "type": "uint256"
        }
      ],
      "payable": false,
      "stateMutability": "nonpayable",
      "type": "function"
    },
    {
      "constant": true,
      "inputs": [],
      "name": "borrowCapGuardian",
      "outputs": [
        {
          "internalType": "address",
          "name": "",
          "type": "address"
        }
      ],
      "payable": false,
      "stateMutability": "view",
      "type": "function"
    },
    {
      "constant": true,
      "inputs": [
        {
          "internalType": "address",
          "name": "",
          "type": "address"
        }
      ],
      "name": "borrowCaps",
      "outputs": [
        {
          "internalType": "uint256",
          "name": "",
          "type": "uint256"
        }
      ],
      "payable": false,
      "stateMutability": "view",
      "type": "function"
    },
    {
      "constant": true,
      "inputs": [
        {
          "internalType": "address",
          "name": "",
          "type": "address"
        }
      ],
      "name": "borrowGuardianPaused",
      "outputs": [
        {
          "internalType": "bool",
          "name": "",
          "type": "bool"
        }
      ],
      "payable": false,
      "stateMutability": "view",
      "type": "function"
    },
    {
      "constant": false,
      "inputs": [
        {
          "internalType": "address",
          "name": "",
          "type": "address"
        },
        {
          "internalType": "address",
          "name": "",
          "type": "address"
        },
        {
          "internalType": "uint256",
          "name": "",
          "type": "uint256"
        }
      ],
      "name": "borrowVerify",
      "outputs": [],
      "payable": false,
      "stateMutability": "nonpayable",
      "type": "function"
    },
    {
      "constant": true,
      "inputs": [
        {
          "internalType": "address",
          "name": "account",
          "type": "address"
        },
        {
          "internalType": "contract CToken",
          "name": "cToken",
          "type": "address"
        }
      ],
      "name": "checkMembership",
      "outputs": [
        {
          "internalType": "bool",
          "name": "",
          "type": "bool"
        }
      ],
      "payable": false,
      "stateMutability": "view",
      "type": "function"
    },
    {
      "constant": false,
      "inputs": [
        {
          "internalType": "address",
          "name": "holder",
          "type": "address"
        },
        {
          "internalType": "contract CToken[]",
          "name": "cTokens",
          "type": "address[]"
        }
      ],
      "name": "claimComp",
      "outputs": [],
      "payable": false,
      "stateMutability": "nonpayable",
      "type": "function"
    },
    {
      "constant": false,
      "inputs": [
        {
          "internalType": "address[]",
          "name": "holders",
          "type": "address[]"
        },
        {
          "internalType": "contract CToken[]",
          "name": "cTokens",
          "type": "address[]"
        },
        {
          "internalType": "bool",
          "name": "borrowers",
          "type": "bool"
        },
        {
          "internalType": "bool",
          "name": "suppliers",
          "type": "bool"
        }
      ],
      "name": "claimComp",
      "outputs": [],
      "payable": false,
      "stateMutability": "nonpayable",
      "type": "function"
    },
    {
      "constant": false,
      "inputs": [
        {
          "internalType": "address",
          "name": "holder",
          "type": "address"
        }
      ],
      "name": "claimComp",
      "outputs": [],
      "payable": false,
      "stateMutability": "nonpayable",
      "type": "function"
    },
    {
      "constant": true,
      "inputs": [],
      "name": "closeFactorMantissa",
      "outputs": [
        {
          "internalType": "uint256",
          "name": "",
          "type": "uint256"
        }
      ],
      "payable": false,
      "stateMutability": "view",
      "type": "function"
    },
    {
      "constant": true,
      "inputs": [
        {
          "internalType": "address",
          "name": "",
          "type": "address"
        }
      ],
      "name": "compAccrued",
      "outputs": [
        {
          "internalType": "uint256",
          "name": "",
          "type": "uint256"
        }
      ],
      "payable": false,
      "stateMutability": "view",
      "type": "function"
    },
    {
      "constant": true,
      "inputs": [
        {
          "internalType": "address",
          "name": "",
          "type": "address"
        }
      ],
      "name": "compBorrowState",
      "outputs": [
        {
          "internalType": "uint224",
          "name": "index",
          "type": "uint224"
        },
        {
          "internalType": "uint32",
          "name": "block",
          "type": "uint32"
        }
      ],
      "payable": false,
      "stateMutability": "view",
      "type": "function"
    },
    {
      "constant": true,
      "inputs": [
        {
          "internalType": "address",
          "name": "",
          "type": "address"
        },
        {
          "internalType": "address",
          "name": "",
          "type": "address"
        }
      ],
      "name": "compBorrowerIndex",
      "outputs": [
        {
          "internalType": "uint256",
          "name": "",
          "type": "uint256"
        }
      ],
      "payable": false,
      "stateMutability": "view",
      "type": "function"
    },
    {
      "constant": true,
      "inputs": [
        {
          "internalType": "address",
          "name": "",
          "type": "address"
        }
      ],
      "name": "compContributorSpeeds",
      "outputs": [
        {
          "internalType": "uint256",
          "name": "",
          "type": "uint256"
        }
      ],
      "payable": false,
      "stateMutability": "view",
      "type": "function"
    },
    {
      "constant": true,
      "inputs": [],
      "name": "compInitialIndex",
      "outputs": [
        {
          "internalType": "uint224",
          "name": "",
          "type": "uint224"
        }
      ],
      "payable": false,
      "stateMutability": "view",
      "type": "function"
    },
    {
      "constant": true,
      "inputs": [],
      "name": "compRate",
      "outputs": [
        {
          "internalType": "uint256",
          "name": "",
          "type": "uint256"
        }
      ],
      "payable": false,
      "stateMutability": "view",
      "type": "function"
    },
    {
      "constant": true,
      "inputs": [
        {
          "internalType": "address",
          "name": "",
          "type": "address"
        }
      ],
      "name": "compSpeeds",
      "outputs": [
        {
          "internalType": "uint256",
          "name": "",
          "type": "uint256"
        }
      ],
      "payable": false,
      "stateMutability": "view",
      "type": "function"
    },
    {
      "constant": true,
      "inputs": [
        {
          "internalType": "address",
          "name": "",
          "type": "address"
        },
        {
          "internalType": "address",
          "name": "",
          "type": "address"
        }
      ],
      "name": "compSupplierIndex",
      "outputs": [
        {
          "internalType": "uint256",
          "name": "",
          "type": "uint256"
        }
      ],
      "payable": false,
      "stateMutability": "view",
      "type": "function"
    },
    {
      "constant": true,
      "inputs": [
        {
          "internalType": "address",
          "name": "",
          "type": "address"
        }
      ],
      "name": "compSupplyState",
      "outputs": [
        {
          "internalType": "uint224",
          "name": "index",
          "type": "uint224"
        },
        {
          "internalType": "uint32",
          "name": "block",
          "type": "uint32"
        }
      ],
      "payable": false,
      "stateMutability": "view",
      "type": "function"
    },
    {
      "constant": true,
      "inputs": [],
      "name": "comptrollerImplementation",
      "outputs": [
        {
          "internalType": "address",
          "name": "",
          "type": "address"
        }
      ],
      "payable": false,
      "stateMutability": "view",
      "type": "function"
    },
    {
      "constant": false,
      "inputs": [
        {
          "internalType": "address[]",
          "name": "cTokens",
          "type": "address[]"
        }
      ],
      "name": "enterMarkets",
      "outputs": [
        {
          "internalType": "uint256[]",
          "name": "",
          "type": "uint256[]"
        }
      ],
      "payable": false,
      "stateMutability": "nonpayable",
      "type": "function"
    },
    {
      "constant": false,
      "inputs": [
        {
          "internalType": "address",
          "name": "cTokenAddress",
          "type": "address"
        }
      ],
      "name": "exitMarket",
      "outputs": [
        {
          "internalType": "uint256",
          "name": "",
          "type": "uint256"
        }
      ],
      "payable": false,
      "stateMutability": "nonpayable",
      "type": "function"
    },
    {
      "constant": true,
      "inputs": [
        {
          "internalType": "address",
          "name": "account",
          "type": "address"
        }
      ],
      "name": "getAccountLiquidity",
      "outputs": [
        {
          "internalType": "uint256",
          "name": "",
          "type": "uint256"
        },
        {
          "internalType": "uint256",
          "name": "",
          "type": "uint256"
        },
        {
          "internalType": "uint256",
          "name": "",
          "type": "uint256"
        }
      ],
      "payable": false,
      "stateMutability": "view",
      "type": "function"
    },
    {
      "constant": true,
      "inputs": [],
      "name": "getAllMarkets",
      "outputs": [
        {
          "internalType": "contract CToken[]",
          "name": "",
          "type": "address[]"
        }
      ],
      "payable": false,
      "stateMutability": "view",
      "type": "function"
    },
    {
      "constant": true,
      "inputs": [
        {
          "internalType": "address",
          "name": "account",
          "type": "address"
        }
      ],
      "name": "getAssetsIn",
      "outputs": [
        {
          "internalType": "contract CToken[]",
          "name": "",
          "type": "address[]"
        }
      ],
      "payable": false,
      "stateMutability": "view",
      "type": "function"
    },
    {
      "constant": true,
      "inputs": [],
      "name": "getBlockNumber",
      "outputs": [
        {
          "internalType": "uint256",
          "name": "",
          "type": "uint256"
        }
      ],
      "payable": false,
      "stateMutability": "view",
      "type": "function"
    },
    {
      "constant": true,
      "inputs": [],
      "name": "getCompAddress",
      "outputs": [
        {
          "internalType": "address",
          "name": "",
          "type": "address"
        }
      ],
      "payable": false,
      "stateMutability": "view",
      "type": "function"
    },
    {
      "constant": true,
      "inputs": [
        {
          "internalType": "address",
          "name": "account",
          "type": "address"
        },
        {
          "internalType": "address",
          "name": "cTokenModify",
          "type": "address"
        },
        {
          "internalType": "uint256",
          "name": "redeemTokens",
          "type": "uint256"
        },
        {
          "internalType": "uint256",
          "name": "borrowAmount",
          "type": "uint256"
        }
      ],
      "name": "getHypotheticalAccountLiquidity",
      "outputs": [
        {
          "internalType": "uint256",
          "name": "",
          "type": "uint256"
        },
        {
          "internalType": "uint256",
          "name": "",
          "type": "uint256"
        },
        {
          "internalType": "uint256",
          "name": "",
          "type": "uint256"
        }
      ],
      "payable": false,
      "stateMutability": "view",
      "type": "function"
    },
    {
      "constant": true,
      "inputs": [],
      "name": "isComptroller",
      "outputs": [
        {
          "internalType": "bool",
          "name": "",
          "type": "bool"
        }
      ],
      "payable": false,
      "stateMutability": "view",
      "type": "function"
    },
    {
      "constant": true,
      "inputs": [
        {
          "internalType": "address",
          "name": "",
          "type": "address"
        }
      ],
      "name": "lastContributorBlock",
      "outputs": [
        {
          "internalType": "uint256",
          "name": "",
          "type": "uint256"
        }
      ],
      "payable": false,
      "stateMutability": "view",
      "type": "function"
    },
    {
      "constant": false,
      "inputs": [
        {
          "internalType": "address",
          "name": "cTokenBorrowed",
          "type": "address"
        },
        {
          "internalType": "address",
          "name": "cTokenCollateral",
          "type": "address"
        },
        {
          "internalType": "address",
          "name": "",
          "type": "address"
        },
        {
          "internalType": "address",
          "name": "borrower",
          "type": "address"
        },
        {
          "internalType": "uint256",
          "name": "repayAmount",
          "type": "uint256"
        }
      ],
      "name": "liquidateBorrowAllowed",
      "outputs": [
        {
          "internalType": "uint256",
          "name": "",
          "type": "uint256"
        }
      ],
      "payable": false,
      "stateMutability": "nonpayable",
      "type": "function"
    },
    {
      "constant": false,
      "inputs": [
        {
          "internalType": "address",
          "name": "",
          "type": "address"
        },
        {
          "internalType": "address",
          "name": "",
          "type": "address"
        },
        {
          "internalType": "address",
          "name": "",
          "type": "address"
        },
        {
          "internalType": "address",
          "name": "",
          "type": "address"
        },
        {
          "internalType": "uint256",
          "name": "",
          "type": "uint256"
        },
        {
          "internalType": "uint256",
          "name": "",
          "type": "uint256"
        }
      ],
      "name": "liquidateBorrowVerify",
      "outputs": [],
      "payable": false,
      "stateMutability": "nonpayable",
      "type": "function"
    },
    {
      "constant": true,
      "inputs": [
        {
          "internalType": "address",
          "name": "cTokenBorrowed",
          "type": "address"
        },
        {
          "internalType": "address",
          "name": "cTokenCollateral",
          "type": "address"
        },
        {
          "internalType": "uint256",
          "name": "actualRepayAmount",
          "type": "uint256"
        }
      ],
      "name": "liquidateCalculateSeizeTokens",
      "outputs": [
        {
          "internalType": "uint256",
          "name": "",
          "type": "uint256"
        },
        {
          "internalType": "uint256",
          "name": "",
          "type": "uint256"
        }
      ],
      "payable": false,
      "stateMutability": "view",
      "type": "function"
    },
    {
      "constant": true,
      "inputs": [],
      "name": "liquidationIncentiveMantissa",
      "outputs": [
        {
          "internalType": "uint256",
          "name": "",
          "type": "uint256"
        }
      ],
      "payable": false,
      "stateMutability": "view",
      "type": "function"
    },
    {
      "constant": true,
      "inputs": [
        {
          "internalType": "address",
          "name": "",
          "type": "address"
        }
      ],
      "name": "markets",
      "outputs": [
        {
          "internalType": "bool",
          "name": "isListed",
          "type": "bool"
        },
        {
          "internalType": "uint256",
          "name": "collateralFactorMantissa",
          "type": "uint256"
        },
        {
          "internalType": "bool",
          "name": "isComped",
          "type": "bool"
        }
      ],
      "payable": false,
      "stateMutability": "view",
      "type": "function"
    },
    {
      "constant": true,
      "inputs": [],
      "name": "maxAssets",
      "outputs": [
        {
          "internalType": "uint256",
          "name": "",
          "type": "uint256"
        }
      ],
      "payable": false,
      "stateMutability": "view",
      "type": "function"
    },
    {
      "constant": false,
      "inputs": [
        {
          "internalType": "address",
          "name": "cToken",
          "type": "address"
        },
        {
          "internalType": "address",
          "name": "minter",
          "type": "address"
        },
        {
          "internalType": "uint256",
          "name": "",
          "type": "uint256"
        }
      ],
      "name": "mintAllowed",
      "outputs": [
        {
          "internalType": "uint256",
          "name": "",
          "type": "uint256"
        }
      ],
      "payable": false,
      "stateMutability": "nonpayable",
      "type": "function"
    },
    {
      "constant": true,
      "inputs": [
        {
          "internalType": "address",
          "name": "",
          "type": "address"
        }
      ],
      "name": "mintGuardianPaused",
      "outputs": [
        {
          "internalType": "bool",
          "name": "",
          "type": "bool"
        }
      ],
      "payable": false,
      "stateMutability": "view",
      "type": "function"
    },
    {
      "constant": false,
      "inputs": [
        {
          "internalType": "address",
          "name": "",
          "type": "address"
        },
        {
          "internalType": "address",
          "name": "",
          "type": "address"
        },
        {
          "internalType": "uint256",
          "name": "",
          "type": "uint256"
        },
        {
          "internalType": "uint256",
          "name": "",
          "type": "uint256"
        }
      ],
      "name": "mintVerify",
      "outputs": [],
      "payable": false,
      "stateMutability": "nonpayable",
      "type": "function"
    },
    {
      "constant": true,
      "inputs": [],
      "name": "oracle",
      "outputs": [
        {
          "internalType": "contract PriceOracle",
          "name": "",
          "type": "address"
        }
      ],
      "payable": false,
      "stateMutability": "view",
      "type": "function"
    },
    {
      "constant": true,
      "inputs": [],
      "name": "pauseGuardian",
      "outputs": [
        {
          "internalType": "address",
          "name": "",
          "type": "address"
        }
      ],
      "payable": false,
      "stateMutability": "view",
      "type": "function"
    },
    {
      "constant": true,
      "inputs": [],
      "name": "pendingAdmin",
      "outputs": [
        {
          "internalType": "address",
          "name": "",
          "type": "address"
        }
      ],
      "payable": false,
      "stateMutability": "view",
      "type": "function"
    },
    {
      "constant": true,
      "inputs": [],
      "name": "pendingComptrollerImplementation",
      "outputs": [
        {
          "internalType": "address",
          "name": "",
          "type": "address"
        }
      ],
      "payable": false,
      "stateMutability": "view",
      "type": "function"
    },
    {
      "constant": false,
      "inputs": [
        {
          "internalType": "address",
          "name": "cToken",
          "type": "address"
        },
        {
          "internalType": "address",
          "name": "redeemer",
          "type": "address"
        },
        {
          "internalType": "uint256",
          "name": "redeemTokens",
          "type": "uint256"
        }
      ],
      "name": "redeemAllowed",
      "outputs": [
        {
          "internalType": "uint256",
          "name": "",
          "type": "uint256"
        }
      ],
      "payable": false,
      "stateMutability": "nonpayable",
      "type": "function"
    },
    {
      "constant": false,
      "inputs": [
        {
          "internalType": "address",
          "name": "",
          "type": "address"
        },
        {
          "internalType": "address",
          "name": "",
          "type": "address"
        },
        {
          "internalType": "uint256",
          "name": "redeemAmount",
          "type": "uint256"
        },
        {
          "internalType": "uint256",
          "name": "redeemTokens",
          "type": "uint256"
        }
      ],
      "name": "redeemVerify",
      "outputs": [],
      "payable": false,
      "stateMutability": "nonpayable",
      "type": "function"
    },
    {
      "constant": false,
      "inputs": [
        {
          "internalType": "address",
          "name": "cToken",
          "type": "address"
        },
        {
          "internalType": "address",
          "name": "",
          "type": "address"
        },
        {
          "internalType": "address",
          "name": "borrower",
          "type": "address"
        },
        {
          "internalType": "uint256",
          "name": "",
          "type": "uint256"
        }
      ],
      "name": "repayBorrowAllowed",
      "outputs": [
        {
          "internalType": "uint256",
          "name": "",
          "type": "uint256"
        }
      ],
      "payable": false,
      "stateMutability": "nonpayable",
      "type": "function"
    },
    {
      "constant": false,
      "inputs": [
        {
          "internalType": "address",
          "name": "",
          "type": "address"
        },
        {
          "internalType": "address",
          "name": "",
          "type": "address"
        },
        {
          "internalType": "address",
          "name": "",
          "type": "address"
        },
        {
          "internalType": "uint256",
          "name": "",
          "type": "uint256"
        },
        {
          "internalType": "uint256",
          "name": "",
          "type": "uint256"
        }
      ],
      "name": "repayBorrowVerify",
      "outputs": [],
      "payable": false,
      "stateMutability": "nonpayable",
      "type": "function"
    },
    {
      "constant": false,
      "inputs": [
        {
          "internalType": "address",
          "name": "cTokenCollateral",
          "type": "address"
        },
        {
          "internalType": "address",
          "name": "cTokenBorrowed",
          "type": "address"
        },
        {
          "internalType": "address",
          "name": "liquidator",
          "type": "address"
        },
        {
          "internalType": "address",
          "name": "borrower",
          "type": "address"
        },
        {
          "internalType": "uint256",
          "name": "",
          "type": "uint256"
        }
      ],
      "name": "seizeAllowed",
      "outputs": [
        {
          "internalType": "uint256",
          "name": "",
          "type": "uint256"
        }
      ],
      "payable": false,
      "stateMutability": "nonpayable",
      "type": "function"
    },
    {
      "constant": true,
      "inputs": [],
      "name": "seizeGuardianPaused",
      "outputs": [
        {
          "internalType": "bool",
          "name": "",
          "type": "bool"
        }
      ],
      "payable": false,
      "stateMutability": "view",
      "type": "function"
    },
    {
      "constant": false,
      "inputs": [
        {
          "internalType": "address",
          "name": "",
          "type": "address"
        },
        {
          "internalType": "address",
          "name": "",
          "type": "address"
        },
        {
          "internalType": "address",
          "name": "",
          "type": "address"
        },
        {
          "internalType": "address",
          "name": "",
          "type": "address"
        },
        {
          "internalType": "uint256",
          "name": "",
          "type": "uint256"
        }
      ],
      "name": "seizeVerify",
      "outputs": [],
      "payable": false,
      "stateMutability": "nonpayable",
      "type": "function"
    },
    {
      "constant": false,
      "inputs": [
        {
          "internalType": "address",
          "name": "tropAddress_",
          "type": "address"
        }
      ],
      "name": "setCompAddress",
      "outputs": [],
      "payable": false,
      "stateMutability": "nonpayable",
      "type": "function"
    },
    {
      "constant": false,
      "inputs": [
        {
          "internalType": "address",
          "name": "cToken",
          "type": "address"
        },
        {
          "internalType": "address",
          "name": "src",
          "type": "address"
        },
        {
          "internalType": "address",
          "name": "dst",
          "type": "address"
        },
        {
          "internalType": "uint256",
          "name": "transferTokens",
          "type": "uint256"
        }
      ],
      "name": "transferAllowed",
      "outputs": [
        {
          "internalType": "uint256",
          "name": "",
          "type": "uint256"
        }
      ],
      "payable": false,
      "stateMutability": "nonpayable",
      "type": "function"
    },
    {
      "constant": true,
      "inputs": [],
      "name": "transferGuardianPaused",
      "outputs": [
        {
          "internalType": "bool",
          "name": "",
          "type": "bool"
        }
      ],
      "payable": false,
      "stateMutability": "view",
      "type": "function"
    },
    {
      "constant": false,
      "inputs": [
        {
          "internalType": "address",
          "name": "",
          "type": "address"
        },
        {
          "internalType": "address",
          "name": "",
          "type": "address"
        },
        {
          "internalType": "address",
          "name": "",
          "type": "address"
        },
        {
          "internalType": "uint256",
          "name": "",
          "type": "uint256"
        }
      ],
      "name": "transferVerify",
      "outputs": [],
      "payable": false,
      "stateMutability": "nonpayable",
      "type": "function"
    },
    {
      "constant": true,
      "inputs": [],
      "name": "tropAddress",
      "outputs": [
        {
          "internalType": "address",
          "name": "",
          "type": "address"
        }
      ],
      "payable": false,
      "stateMutability": "view",
      "type": "function"
    },
    {
      "constant": false,
      "inputs": [
        {
          "internalType": "address",
          "name": "contributor",
          "type": "address"
        }
      ],
      "name": "updateContributorRewards",
      "outputs": [],
      "payable": false,
      "stateMutability": "nonpayable",
      "type": "function"
    }
  ],
  "bytecode": "0x608060405234801561001057600080fd5b50600080546001600160a01b0319163317905561557f806100326000396000f3fe608060405234801561001057600080fd5b506004361061045e5760003560e01c80636d35bf911161024c578063b21be7fd11610146578063da3d454c116100c3578063e875544611610087578063e875544614611231578063e9af029214611239578063eabe7d911461125f578063ede4edd014611295578063f851a440146112bb5761045e565b8063da3d454c14611193578063dce15449146111c9578063dcfbc0c7146111f5578063e4028eee146111fd578063e6653f3d146112295761045e565b8063c488847b1161010a578063c488847b146110a2578063ca0af043146110f1578063cc7ebdc41461111f578063d02f735114611145578063d9bbdf381461118b5761045e565b8063b21be7fd14610f69578063bb82aa5e14610f97578063bdcdc25814610f9f578063bea6b8b814610fdb578063c2998238146110015761045e565b8063929fe9a1116101d4578063a7f0e23111610198578063a7f0e23114610eb7578063aa90075414610edb578063abfceffc14610ee3578063ac0b0bb714610f59578063b0772d0b14610f615761045e565b8063929fe9a114610e2d57806394b2294b14610e5b578063986ab83814610e635780639d1b5a0a14610e89578063a76b3fda14610e915761045e565b8063858aa5e51161021b578063858aa5e514610d7257806387f7630314610d985780638c57804e14610da05780638e8f294b14610dc65780638ebf636414610e0e5761045e565b80636d35bf9114610cd8578063731f0c2b14610d1e578063741b252514610d445780637dc0d1d014610d6a5761045e565b806347ef3b3b1161035d578063598ee1cb116102e5578063607ef6c1116102a9578063607ef6c114610a3e5780636810dfa614610afc5780636a56947e14610c285780636b79c38d14610c645780636d154ea514610cb25761045e565b8063598ee1cb1461094a5780635c778605146109765780635ec88c79146109ac5780635f5af1aa146109d25780635fc7e71e146109f85761045e565b80634ef4c3e11161032c5780634ef4c3e1146108785780634fd42e17146108ae57806351dff989146108cb57806352d84d1e1461090757806355ee1fe1146109245761045e565b806347ef3b3b146107a45780634a584432146107f05780634ada90af146108165780634e79238f1461081e5761045e565b806326782247116103eb5780633bcf7ec1116103af5780633bcf7ec1146106fe5780633c94786f1461072c57806341c728b91461073457806342cbb15c14610770578063434caf25146107785761045e565b8063267822471461066857806327efe3cb146106705780632d70db781461069c578063317b0b77146106bb578063391957d7146106d85761045e565b80631d7b33d7116104325780631d7b33d7146105865780631ededc91146105be57806321af45691461060057806324008a621461062457806324a3d622146106605761045e565b80627e3dd21461046357806318c882a51461047f5780631c3db2e0146104ad5780631d504dc614610560575b600080fd5b61046b6112c3565b604080519115158252519081900360200190f35b61046b6004803603604081101561049557600080fd5b506001600160a01b03813516906020013515156112c8565b61055e600480360360408110156104c357600080fd5b6001600160a01b038235169190810190604081016020820135600160201b8111156104ed57600080fd5b8201836020820111156104ff57600080fd5b803590602001918460208302840111600160201b8311171561052057600080fd5b919080806020026020016040519081016040528093929190818152602001838360200280828437600092019190915250929550611462945050505050565b005b61055e6004803603602081101561057657600080fd5b50356001600160a01b03166114c4565b6105ac6004803603602081101561059c57600080fd5b50356001600160a01b0316611627565b60408051918252519081900360200190f35b61055e600480360360a08110156105d457600080fd5b506001600160a01b03813581169160208101358216916040820135169060608101359060800135611639565b610608611640565b604080516001600160a01b039092168252519081900360200190f35b6105ac6004803603608081101561063a57600080fd5b506001600160a01b0381358116916020810135821691604082013516906060013561164f565b610608611716565b610608611725565b61055e6004803603604081101561068657600080fd5b506001600160a01b038135169060200135611734565b61046b600480360360208110156106b257600080fd5b50351515611837565b6105ac600480360360208110156106d157600080fd5b503561195e565b61055e600480360360208110156106ee57600080fd5b50356001600160a01b0316611a0b565b61046b6004803603604081101561071457600080fd5b506001600160a01b0381351690602001351515611acd565b61046b611c5f565b61055e6004803603608081101561074a57600080fd5b506001600160a01b03813581169160208101359091169060408101359060600135611c6f565b6105ac611c75565b61055e6004803603604081101561078e57600080fd5b506001600160a01b038135169060200135611c7a565b61055e600480360360c08110156107ba57600080fd5b506001600160a01b0381358116916020810135821691604082013581169160608101359091169060808101359060a00135611ce1565b6105ac6004803603602081101561080657600080fd5b50356001600160a01b0316611ce9565b6105ac611cfb565b61085a6004803603608081101561083457600080fd5b506001600160a01b03813581169160208101359091169060408101359060600135611d01565b60408051938452602084019290925282820152519081900360600190f35b6105ac6004803603606081101561088e57600080fd5b506001600160a01b03813581169160208101359091169060400135611d3b565b6105ac600480360360208110156108c457600080fd5b5035611dd5565b61055e600480360360808110156108e157600080fd5b506001600160a01b03813581169160208101359091169060408101359060600135611e45565b6106086004803603602081101561091d57600080fd5b5035611e8a565b6105ac6004803603602081101561093a57600080fd5b50356001600160a01b0316611eb1565b61055e6004803603604081101561096057600080fd5b506001600160a01b038135169060200135611f36565b61055e6004803603606081101561098c57600080fd5b506001600160a01b038135811691602081013590911690604001356114bf565b61085a600480360360208110156109c257600080fd5b50356001600160a01b0316612031565b6105ac600480360360208110156109e857600080fd5b50356001600160a01b0316612066565b6105ac600480360360a0811015610a0e57600080fd5b506001600160a01b03813581169160208101358216916040820135811691606081013590911690608001356120ea565b61055e60048036036040811015610a5457600080fd5b810190602081018135600160201b811115610a6e57600080fd5b820183602082011115610a8057600080fd5b803590602001918460208302840111600160201b83111715610aa157600080fd5b919390929091602081019035600160201b811115610abe57600080fd5b820183602082011115610ad057600080fd5b803590602001918460208302840111600160201b83111715610af157600080fd5b50909250905061224f565b61055e60048036036080811015610b1257600080fd5b810190602081018135600160201b811115610b2c57600080fd5b820183602082011115610b3e57600080fd5b803590602001918460208302840111600160201b83111715610b5f57600080fd5b9190808060200260200160405190810160405280939291908181526020018383602002808284376000920191909152509295949360208101935035915050600160201b811115610bae57600080fd5b820183602082011115610bc057600080fd5b803590602001918460208302840111600160201b83111715610be157600080fd5b9190808060200260200160405190810160405280939291908181526020018383602002808284376000920191909152509295505050508035151591506020013515156123e4565b61055e60048036036080811015610c3e57600080fd5b506001600160a01b03813581169160208101358216916040820135169060600135611c6f565b610c8a60048036036020811015610c7a57600080fd5b50356001600160a01b031661266d565b604080516001600160e01b03909316835263ffffffff90911660208301528051918290030190f35b61046b60048036036020811015610cc857600080fd5b50356001600160a01b0316612697565b61055e600480360360a0811015610cee57600080fd5b506001600160a01b0381358116916020810135821691604082013581169160608101359091169060800135611639565b61046b60048036036020811015610d3457600080fd5b50356001600160a01b03166126ac565b61055e60048036036020811015610d5a57600080fd5b50356001600160a01b03166126c1565b610608612784565b61055e60048036036020811015610d8857600080fd5b50356001600160a01b0316612793565b61046b612814565b610c8a60048036036020811015610db657600080fd5b50356001600160a01b0316612824565b610dec60048036036020811015610ddc57600080fd5b50356001600160a01b031661284e565b6040805193151584526020840192909252151582820152519081900360600190f35b61046b60048036036020811015610e2457600080fd5b50351515612874565b61046b60048036036040811015610e4357600080fd5b506001600160a01b038135811691602001351661299a565b6105ac6129cd565b6105ac60048036036020811015610e7957600080fd5b50356001600160a01b03166129d3565b6106086129e5565b6105ac60048036036020811015610ea757600080fd5b50356001600160a01b03166129f4565b610ebf612b51565b604080516001600160e01b039092168252519081900360200190f35b6105ac612b64565b610f0960048036036020811015610ef957600080fd5b50356001600160a01b0316612b6a565b60408051602080825283518183015283519192839290830191858101910280838360005b83811015610f45578181015183820152602001610f2d565b505050509050019250505060405180910390f35b61046b612be0565b610f09612bf0565b6105ac60048036036040811015610f7f57600080fd5b506001600160a01b0381358116916020013516612c52565b610608612c6f565b6105ac60048036036080811015610fb557600080fd5b506001600160a01b03813581169160208101358216916040820135169060600135612c7e565b6105ac60048036036020811015610ff157600080fd5b50356001600160a01b0316612cfe565b610f096004803603602081101561101757600080fd5b810190602081018135600160201b81111561103157600080fd5b82018360208201111561104357600080fd5b803590602001918460208302840111600160201b8311171561106457600080fd5b919080806020026020016040519081016040528093929190818152602001838360200280828437600092019190915250929550612d10945050505050565b6110d8600480360360608110156110b857600080fd5b506001600160a01b03813581169160208101359091169060400135612da7565b6040805192835260208301919091528051918290030190f35b6105ac6004803603604081101561110757600080fd5b506001600160a01b0381358116916020013516612fcf565b6105ac6004803603602081101561113557600080fd5b50356001600160a01b0316612fec565b6105ac600480360360a081101561115b57600080fd5b506001600160a01b0381358116916020810135821691604082013581169160608101359091169060800135612ffe565b6106086131a5565b6105ac600480360360608110156111a957600080fd5b506001600160a01b038135811691602081013590911690604001356131b4565b610608600480360360408110156111df57600080fd5b506001600160a01b038135169060200135613561565b610608613596565b6105ac6004803603604081101561121357600080fd5b506001600160a01b0381351690602001356135a5565b61046b613755565b6105ac613765565b61055e6004803603602081101561124f57600080fd5b50356001600160a01b031661376b565b6105ac6004803603606081101561127557600080fd5b506001600160a01b038135811691602081013590911690604001356137cf565b6105ac600480360360208110156112ab57600080fd5b50356001600160a01b031661380a565b610608613b33565b600181565b6001600160a01b03821660009081526009602052604081205460ff1661132c576040805162461bcd60e51b81526020600482015260146024820152731b585c9ad95d081a5cc81b9bdd081b1a5cdd195960621b604482015290519081900360640190fd5b600a546001600160a01b031633148061134f57506000546001600160a01b031633145b61138a5760405162461bcd60e51b815260040180806020018281038252602181526020018061552a6021913960400191505060405180910390fd5b6000546001600160a01b03163314806113a557506001821515145b6113dc576040805162461bcd60e51b815260206004820152600360248201526221989b60e91b604482015290519081900360640190fd5b6001600160a01b0383166000818152600c6020908152604091829020805486151560ff199091168117909155825193845283830152606090830181905260069083015265426f72726f7760d01b6080830152517f71aec636243f9709bb0007ae15e9afb8150ab01716d75fd7573be5cc096e03b09181900360a00190a150805b92915050565b60408051600180825281830190925260609160208083019080388339019050509050828160008151811061149257fe5b60200260200101906001600160a01b031690816001600160a01b0316815250506114bf81836001806123e4565b505050565b806001600160a01b031663f851a4406040518163ffffffff1660e01b815260040160206040518083038186803b1580156114fd57600080fd5b505afa158015611511573d6000803e3d6000fd5b505050506040513d602081101561152757600080fd5b50516001600160a01b03163314611585576040805162461bcd60e51b815260206004820181905260248201527f6f6e6c7920756e6974726f6c6c65722061646d696e2063616e206265636f6d65604482015290519081900360640190fd5b806001600160a01b031663c1e803346040518163ffffffff1660e01b8152600401602060405180830381600087803b1580156115c057600080fd5b505af11580156115d4573d6000803e3d6000fd5b505050506040513d60208110156115ea57600080fd5b505115611624576040805162461bcd60e51b815260206004820152600360248201526208662760eb1b604482015290519081900360640190fd5b50565b600f6020526000908152604090205481565b5050505050565b6015546001600160a01b031681565b6001600160a01b03841660009081526009602052604081205460ff166116775750600961170e565b61167f61546a565b6040518060200160405280876001600160a01b031663aa5af0fd6040518163ffffffff1660e01b815260040160206040518083038186803b1580156116c357600080fd5b505afa1580156116d7573d6000803e3d6000fd5b505050506040513d60208110156116ed57600080fd5b5051905290506116fd8682613b42565b611708868583613dd7565b60009150505b949350505050565b600a546001600160a01b031681565b6001546001600160a01b031681565b61173c613f6e565b61178d576040805162461bcd60e51b815260206004820152601960248201527f6f6e6c792061646d696e2063616e206772616e7420636f6d7000000000000000604482015290519081900360640190fd5b60006117998383613f97565b905080156117ee576040805162461bcd60e51b815260206004820152601b60248201527f696e73756666696369656e7420636f6d7020666f72206772616e740000000000604482015290519081900360640190fd5b604080516001600160a01b03851681526020810184905281517f98b2f82a3a07f223a0be64b3d0f47711c64dccd1feafb94aa28156b38cd9695c929181900390910190a1505050565b600a546000906001600160a01b031633148061185d57506000546001600160a01b031633145b6118985760405162461bcd60e51b815260040180806020018281038252602181526020018061552a6021913960400191505060405180910390fd5b6000546001600160a01b03163314806118b357506001821515145b6118ea576040805162461bcd60e51b815260206004820152600360248201526221989b60e91b604482015290519081900360640190fd5b600a8054831515600160b81b810260ff60b81b1990921691909117909155604080516020810192909252808252600582820152645365697a6560d81b6060830152517fef159d9a32b2472e32b098f954f3ce62d232939f1c207070b584df1814de2de09181900360800190a150805b919050565b600080546001600160a01b031633146119be576040805162461bcd60e51b815260206004820152601f60248201527f6f6e6c792061646d696e2063616e2073657420636c6f736520666163746f7200604482015290519081900360640190fd5b6005805490839055604080518281526020810185905281517f3b9670cf975d26958e754b57098eaa2ac914d8d2a31b83257997b9f346110fd9929181900390910190a160005b9392505050565b6000546001600160a01b03163314611a6a576040805162461bcd60e51b815260206004820152601b60248201527f6f6e6c792061646d696e2063616e2073657420677561726469616e0000000000604482015290519081900360640190fd5b601580546001600160a01b038381166001600160a01b0319831681179093556040805191909216808252602082019390935281517feda98690e518e9a05f8ec6837663e188211b2da8f4906648b323f2c1d4434e29929181900390910190a15050565b6001600160a01b03821660009081526009602052604081205460ff16611b2e576040805162461bcd60e51b81526020600482015260116024820152701b585c9ad95d081b9bdd081b1a5cdd1959607a1b604482015290519081900360640190fd5b600a546001600160a01b0316331480611b5157506000546001600160a01b031633145b611b8c5760405162461bcd60e51b815260040180806020018281038252602181526020018061552a6021913960400191505060405180910390fd5b6000546001600160a01b0316331480611ba757506001821515145b611bde576040805162461bcd60e51b815260206004820152600360248201526221989b60e91b604482015290519081900360640190fd5b6001600160a01b0383166000818152600b6020908152604091829020805486151560ff199091168117909155825193845283830152606090830181905260049083015263135a5b9d60e21b6080830152517f71aec636243f9709bb0007ae15e9afb8150ab01716d75fd7573be5cc096e03b09181900360a00190a150919050565b600a54600160a01b900460ff1681565b50505050565b435b90565b611c82613f6e565b611cd3576040805162461bcd60e51b815260206004820152601d60248201527f6f6e6c792061646d696e2063616e2073657420636f6d70207370656564000000604482015290519081900360640190fd5b611cdd82826140d1565b5050565b505050505050565b60166020526000908152604090205481565b60065481565b600080600080600080611d168a8a8a8a614449565b925092509250826011811115611d2857fe5b95509093509150505b9450945094915050565b6001600160a01b0383166000908152600b602052604081205460ff1615611d8e576040805162461bcd60e51b8152602060048201526002602482015261219960f11b604482015290519081900360640190fd5b6001600160a01b03841660009081526009602052604090205460ff16611db85760095b9050611a04565b611dc184614781565b611dcb8484614a0c565b6000949350505050565b600080546001600160a01b03163314611dfb57611df46001600b614beb565b9050611959565b6006805490839055604080518281526020810185905281517faeba5a6c40a8ac138134bff1aaa65debf25971188a58804bad717f82f0ec1316929181900390910190a16000611a04565b80158015611e535750600082115b15611c6f576040805162461bcd60e51b8152602060048201526002602482015261433360f01b604482015290519081900360640190fd5b600d8181548110611e9757fe5b6000918252602090912001546001600160a01b0316905081565b600080546001600160a01b03163314611ed057611df460016010614beb565b600480546001600160a01b038481166001600160a01b0319831681179093556040805191909216808252602082019390935281517fd52b2b9b7e9ee655fcb95d2e5b9e0c9f69e7ef2b8e9d2d0ea78402d576d22e22929181900390910190a16000611a04565b611f3e613f6e565b611f8f576040805162461bcd60e51b815260206004820152601d60248201527f6f6e6c792061646d696e2063616e2073657420636f6d70207370656564000000604482015290519081900360640190fd5b611f98826126c1565b80611fbb576001600160a01b038216600090815260196020526040812055611fdd565b611fc3611c75565b6001600160a01b0383166000908152601960205260409020555b6001600160a01b038216600081815260186020908152604091829020849055815184815291517f386537fa92edc3319af95f1f904dcf1900021e4f3f4e08169a577a09076e66b39281900390910190a25050565b600080600080600080612048876000806000614449565b92509250925082601181111561205a57fe5b97919650945092505050565b600080546001600160a01b0316331461208557611df460016013614beb565b600a80546001600160a01b038481166001600160a01b0319831617928390556040805192821680845293909116602083015280517f0613b6ee6a04f0d09f390e4d9318894b9f6ac7fd83897cd8d18896ba579c401e9281900390910190a16000611a04565b6001600160a01b03851660009081526009602052604081205460ff16158061212b57506001600160a01b03851660009081526009602052604090205460ff16155b1561213a5760095b9050612246565b60008061214685614c51565b9193509091506000905082601181111561215c57fe5b146121765781601181111561216d57fe5b92505050612246565b8061218257600361216d565b6000886001600160a01b03166395dd9193876040518263ffffffff1660e01b815260040180826001600160a01b03166001600160a01b0316815260200191505060206040518083038186803b1580156121da57600080fd5b505afa1580156121ee573d6000803e3d6000fd5b505050506040513d602081101561220457600080fd5b5051604080516020810190915260055481529091506000906122269083614c71565b90508086111561223d576011945050505050612246565b60009450505050505b95945050505050565b6000546001600160a01b031633148061227257506015546001600160a01b031633145b6122bc576040805162461bcd60e51b815260206004820152601660248201527537b7363c9030b236b4b71037b91033bab0b93234b0b760511b604482015290519081900360640190fd5b828181158015906122cc57508082145b612303576040805162461bcd60e51b815260206004820152600360248201526221989960e91b604482015290519081900360640190fd5b60005b828110156123db5784848281811061231a57fe5b905060200201356016600089898581811061233157fe5b905060200201356001600160a01b03166001600160a01b03166001600160a01b031681526020019081526020016000208190555086868281811061237157fe5b905060200201356001600160a01b03166001600160a01b03167f6f1951b2aad10f3fc81b86d91105b413a5b3f847a34bbc5ce1904201b14438f68686848181106123b757fe5b905060200201356040518082815260200191505060405180910390a2600101612306565b50505050505050565b60005b83518110156116395760008482815181106123fe57fe5b6020908102919091018101516001600160a01b0381166000908152600990925260409091205490915060ff16612473576040805162461bcd60e51b81526020600482015260156024820152741b585c9ad95d081b5d5cdd081899481b1a5cdd1959605a1b604482015290519081900360640190fd5b600184151514156125c25761248661546a565b6040518060200160405280836001600160a01b031663aa5af0fd6040518163ffffffff1660e01b815260040160206040518083038186803b1580156124ca57600080fd5b505afa1580156124de573d6000803e3d6000fd5b505050506040513d60208110156124f457600080fd5b5051905290506125048282613b42565b60005b87518110156125bf5761252e8389838151811061252057fe5b602002602001015184613dd7565b61258388828151811061253d57fe5b6020026020010151601460008b858151811061255557fe5b60200260200101516001600160a01b03166001600160a01b0316815260200190815260200160002054613f97565b601460008a848151811061259357fe5b6020908102919091018101516001600160a01b0316825281019190915260400160002055600101612507565b50505b60018315151415612664576125d681614781565b60005b8651811015612662576125ff828883815181106125f257fe5b6020026020010151614a0c565b61262687828151811061260e57fe5b6020026020010151601460008a858151811061255557fe5b6014600089848151811061263657fe5b6020908102919091018101516001600160a01b03168252810191909152604001600020556001016125d9565b505b506001016123e7565b6010602052600090815260409020546001600160e01b03811690600160e01b900463ffffffff1682565b600c6020526000908152604090205460ff1681565b600b6020526000908152604090205460ff1681565b6001600160a01b038116600090815260186020526040812054906126e3611c75565b6001600160a01b0384166000908152601960205260408120549192509061270b908390614c90565b905060008111801561271d5750600083115b15611c6f57600061272e8285614cca565b6001600160a01b038616600090815260146020526040812054919250906127559083614d0c565b6001600160a01b0387166000908152601460209081526040808320939093556019905220849055505050505050565b6004546001600160a01b031681565b6000546001600160a01b031633146127f2576040805162461bcd60e51b815260206004820152601760248201527f6f6e6c792061646d696e2063616e207365742054524f50000000000000000000604482015290519081900360640190fd5b601780546001600160a01b0319166001600160a01b0392909216919091179055565b600a54600160b01b900460ff1681565b6011602052600090815260409020546001600160e01b03811690600160e01b900463ffffffff1682565b60096020526000908152604090208054600182015460039092015460ff91821692911683565b600a546000906001600160a01b031633148061289a57506000546001600160a01b031633145b6128d55760405162461bcd60e51b815260040180806020018281038252602181526020018061552a6021913960400191505060405180910390fd5b6000546001600160a01b03163314806128f057506001821515145b612927576040805162461bcd60e51b815260206004820152600360248201526221989b60e91b604482015290519081900360640190fd5b600a8054831515600160b01b810260ff60b01b1990921691909117909155604080516020810192909252808252600882820152672a3930b739b332b960c11b6060830152517fef159d9a32b2472e32b098f954f3ce62d232939f1c207070b584df1814de2de09181900360800190a15090565b6001600160a01b038082166000908152600960209081526040808320938616835260029093019052205460ff1692915050565b60075481565b60186020526000908152604090205481565b6017546001600160a01b031690565b600080546001600160a01b03163314612a1357611df460016012614beb565b6001600160a01b03821660009081526009602052604090205460ff1615612a4057611df4600a6011614beb565b816001600160a01b031663fe9c44ae6040518163ffffffff1660e01b815260040160206040518083038186803b158015612a7957600080fd5b505afa158015612a8d573d6000803e3d6000fd5b505050506040513d6020811015612aa357600080fd5b5050604080516060810182526001808252600060208381018281528486018381526001600160a01b03891684526009909252949091209251835490151560ff19918216178455935191830191909155516003909101805491151591909216179055612b0d82614d42565b604080516001600160a01b038416815290517fcf583bb0c569eb967f806b11601c4cb93c10310485c67add5f8362c2f212321f9181900360200190a1600092915050565b6ec097ce7bc90715b34b9f100000000081565b600e5481565b6001600160a01b038116600090815260086020908152604091829020805483518184028101840190945280845260609392830182828015612bd457602002820191906000526020600020905b81546001600160a01b03168152600190910190602001808311612bb6575b50505050509050919050565b600a54600160b81b900460ff1681565b6060600d805480602002602001604051908101604052809291908181526020018280548015612c4857602002820191906000526020600020905b81546001600160a01b03168152600190910190602001808311612c2a575b5050505050905090565b601260209081526000928352604080842090915290825290205481565b6002546001600160a01b031681565b600a54600090600160b01b900460ff1615612cc5576040805162461bcd60e51b8152602060048201526002602482015261433960f01b604482015290519081900360640190fd5b6000612cd2868685614e0f565b90508015612ce157905061170e565b612cea86614781565b612cf48686614a0c565b6117088685614a0c565b60196020526000908152604090205481565b6060600082519050606081604051908082528060200260200182016040528015612d44578160200160208202803883390190505b50905060005b82811015612d9f576000858281518110612d6057fe5b60200260200101519050612d748133614ebb565b6011811115612d7f57fe5b838381518110612d8b57fe5b602090810291909101015250600101612d4a565b509392505050565b600480546040805163fc57d4df60e01b81526001600160a01b038781169482019490945290516000938493849391169163fc57d4df91602480820192602092909190829003018186803b158015612dfd57600080fd5b505afa158015612e11573d6000803e3d6000fd5b505050506040513d6020811015612e2757600080fd5b5051600480546040805163fc57d4df60e01b81526001600160a01b038a8116948201949094529051939450600093929091169163fc57d4df91602480820192602092909190829003018186803b158015612e8057600080fd5b505afa158015612e94573d6000803e3d6000fd5b505050506040513d6020811015612eaa57600080fd5b50519050811580612eb9575080155b15612ece57600d935060009250612fc7915050565b6000866001600160a01b031663182df0f56040518163ffffffff1660e01b815260040160206040518083038186803b158015612f0957600080fd5b505afa158015612f1d573d6000803e3d6000fd5b505050506040513d6020811015612f3357600080fd5b505190506000612f4161546a565b612f4961546a565b612f5161546a565b612f79604051806020016040528060065481525060405180602001604052808a815250614fb1565b9250612fa1604051806020016040528088815250604051806020016040528088815250614fb1565b9150612fad8383614ff0565b9050612fb9818b614c71565b600099509750505050505050505b935093915050565b601360209081526000928352604080842090915290825290205481565b60146020526000908152604090205481565b600a54600090600160b81b900460ff1615613045576040805162461bcd60e51b8152602060048201526002602482015261086760f31b604482015290519081900360640190fd5b6001600160a01b03861660009081526009602052604090205460ff16158061308657506001600160a01b03851660009081526009602052604090205460ff16155b15613092576009612133565b846001600160a01b0316635fe3b5676040518163ffffffff1660e01b815260040160206040518083038186803b1580156130cb57600080fd5b505afa1580156130df573d6000803e3d6000fd5b505050506040513d60208110156130f557600080fd5b505160408051635fe3b56760e01b815290516001600160a01b0392831692891691635fe3b567916004808301926020929190829003018186803b15801561313b57600080fd5b505afa15801561314f573d6000803e3d6000fd5b505050506040513d602081101561316557600080fd5b50516001600160a01b03161461317c576002612133565b61318586614781565b61318f8684614a0c565b6131998685614a0c565b60009695505050505050565b6017546001600160a01b031681565b6001600160a01b0383166000908152600c602052604081205460ff1615613207576040805162461bcd60e51b815260206004820152600260248201526110cd60f21b604482015290519081900360640190fd5b6001600160a01b03841660009081526009602052604090205460ff1661322e576009611db1565b6001600160a01b038085166000908152600960209081526040808320938716835260029093019052205460ff1661331a57336001600160a01b038516146132b0576040805162461bcd60e51b815260206004820152601160248201527039b2b73232b9103737ba1031aa37b5b2b760791b604482015290519081900360640190fd5b60006132bc3385614ebb565b905060008160118111156132cc57fe5b146132e5578060118111156132dd57fe5b915050611a04565b6001600160a01b038086166000908152600960209081526040808320938816835260029093019052205460ff1661331857fe5b505b600480546040805163fc57d4df60e01b81526001600160a01b03888116948201949094529051929091169163fc57d4df91602480820192602092909190829003018186803b15801561336b57600080fd5b505afa15801561337f573d6000803e3d6000fd5b505050506040513d602081101561339557600080fd5b50516133a257600d611db1565b6001600160a01b0384166000908152601660205260409020548015613474576000856001600160a01b03166347bd37186040518163ffffffff1660e01b815260040160206040518083038186803b1580156133fc57600080fd5b505afa158015613410573d6000803e3d6000fd5b505050506040513d602081101561342657600080fd5b5051905060006134368286614d0c565b9050828110613471576040805162461bcd60e51b8152602060048201526002602482015261433760f01b604482015290519081900360640190fd5b50505b6000806134848688600088614449565b9193509091506000905082601181111561349a57fe5b146134b5578160118111156134ab57fe5b9350505050611a04565b80156134c25760046134ab565b6134ca61546a565b6040518060200160405280896001600160a01b031663aa5af0fd6040518163ffffffff1660e01b815260040160206040518083038186803b15801561350e57600080fd5b505afa158015613522573d6000803e3d6000fd5b505050506040513d602081101561353857600080fd5b5051905290506135488882613b42565b613553888883613dd7565b600098975050505050505050565b6008602052816000526040600020818154811061357a57fe5b6000918252602090912001546001600160a01b03169150829050565b6003546001600160a01b031681565b600080546001600160a01b031633146135cb576135c460016006614beb565b905061145c565b6001600160a01b0383166000908152600960205260409020805460ff16613600576135f860096007614beb565b91505061145c565b61360861546a565b50604080516020810190915283815261361f61546a565b506040805160208101909152670c7d713b49da00008152613640818361502c565b1561365b5761365160066008614beb565b935050505061145c565b84158015906136e45750600480546040805163fc57d4df60e01b81526001600160a01b038a8116948201949094529051929091169163fc57d4df91602480820192602092909190829003018186803b1580156136b657600080fd5b505afa1580156136ca573d6000803e3d6000fd5b505050506040513d60208110156136e057600080fd5b5051155b156136f557613651600d6009614beb565b60018301805490869055604080516001600160a01b03891681526020810183905280820188905290517f70483e6592cd5182d45ac970e05bc62cdcc90e9d8ef2c2dbe686cf383bcd7fc59181900360600190a16000979650505050505050565b600a54600160a81b900460ff1681565b60055481565b61162481600d8054806020026020016040519081016040528092919081815260200182805480156137c557602002820191906000526020600020905b81546001600160a01b031681526001909101906020018083116137a7575b5050505050611462565b6000806137dd858585614e0f565b905080156137ec579050611a04565b6137f585614781565b6137ff8585614a0c565b600095945050505050565b6000808290506000806000836001600160a01b031663c37f68e2336040518263ffffffff1660e01b815260040180826001600160a01b03166001600160a01b0316815260200191505060806040518083038186803b15801561386b57600080fd5b505afa15801561387f573d6000803e3d6000fd5b505050506040513d608081101561389557600080fd5b5080516020820151604090920151909450909250905082156138fe576040805162461bcd60e51b815260206004820152601960248201527f6765744163636f756e74536e617073686f74206661696c656400000000000000604482015290519081900360640190fd5b801561391b57613910600c6002614beb565b945050505050611959565b6000613928873385614e0f565b905080156139495761393d600e600383615033565b95505050505050611959565b6001600160a01b0385166000908152600960209081526040808320338452600281019092529091205460ff166139885760009650505050505050611959565b3360009081526002820160209081526040808320805460ff1916905560088252918290208054835181840281018401909452808452606093928301828280156139fa57602002820191906000526020600020905b81546001600160a01b031681526001909101906020018083116139dc575b5050835193945083925060009150505b82811015613a4f57896001600160a01b0316848281518110613a2857fe5b60200260200101516001600160a01b03161415613a4757809150613a4f565b600101613a0a565b50818110613a5957fe5b336000908152600860205260409020805481906000198101908110613a7a57fe5b9060005260206000200160009054906101000a90046001600160a01b0316818381548110613aa457fe5b600091825260209091200180546001600160a01b0319166001600160a01b03929092169190911790558054613add82600019830161547d565b50604080516001600160a01b038c16815233602082015281517fe699a64c18b07ac5b7301aa273f36a2287239eb9501d81950672794afba29a0d929181900390910190a160009c9b505050505050505050505050565b6000546001600160a01b031681565b6001600160a01b0382166000908152601160209081526040808320600f9092528220549091613b6f611c75565b8354909150600090613b8f908390600160e01b900463ffffffff16614c90565b9050600081118015613ba15750600083115b15613d73576000613c16876001600160a01b03166347bd37186040518163ffffffff1660e01b815260040160206040518083038186803b158015613be457600080fd5b505afa158015613bf8573d6000803e3d6000fd5b505050506040513d6020811015613c0e57600080fd5b505187615099565b90506000613c248386614cca565b9050613c2e61546a565b60008311613c4b5760405180602001604052806000815250613c55565b613c5582846150b7565b9050613c5f61546a565b604080516020810190915288546001600160e01b03168152613c8190836150ec565b90506040518060400160405280613cca836000015160405180604001604052806016815260200175696e646578206578636565647320323234206269747360501b815250615111565b6001600160e01b03168152602001613d0f8860405180604001604052806015815260200174626c6f636b2065786365656473203332206269747360581b8152506151ab565b63ffffffff9081169091526001600160a01b038c166000908152601160209081526040909120835181549490920151909216600160e01b026001600160e01b039182166001600160e01b0319909416939093171691909117905550611ce192505050565b8015611ce157613db08260405180604001604052806015815260200174626c6f636b2065786365656473203332206269747360581b8152506151ab565b845463ffffffff91909116600160e01b026001600160e01b03909116178455505050505050565b6001600160a01b0383166000908152601160205260409020613df761546a565b50604080516020810190915281546001600160e01b03168152613e1861546a565b5060408051602080820183526001600160a01b0380891660009081526013835284812091891680825282845294812080548552865195909152915291909155805115611ce157613e6661546a565b613e708383615200565b90506000613ecd886001600160a01b03166395dd9193896040518263ffffffff1660e01b815260040180826001600160a01b03166001600160a01b0316815260200191505060206040518083038186803b158015613be457600080fd5b90506000613edb8284615225565b6001600160a01b03891660009081526014602052604081205491925090613f029083614d0c565b6001600160a01b03808b166000818152601460209081526040918290208590558a5182518881529182015281519495509193928e16927f1fc3ecc087d8d2d15e23d0032af5a47059c3892d003d8e139fdcb6bb327c99a69281900390910190a350505050505050505050565b600080546001600160a01b0316331480613f9257506002546001600160a01b031633145b905090565b600080613fa26129e5565b604080516370a0823160e01b815230600482015290519192506000916001600160a01b038416916370a08231916024808301926020929190829003018186803b158015613fee57600080fd5b505afa158015614002573d6000803e3d6000fd5b505050506040513d602081101561401857600080fd5b50519050831580159061402b5750808411155b156140c857816001600160a01b031663a9059cbb86866040518363ffffffff1660e01b815260040180836001600160a01b03166001600160a01b0316815260200182815260200192505050602060405180830381600087803b15801561409057600080fd5b505af11580156140a4573d6000803e3d6000fd5b505050506040513d60208110156140ba57600080fd5b506000935061145c92505050565b50919392505050565b6001600160a01b0382166000908152600f60205260409020548015614185576140f861546a565b6040518060200160405280856001600160a01b031663aa5af0fd6040518163ffffffff1660e01b815260040160206040518083038186803b15801561413c57600080fd5b505afa158015614150573d6000803e3d6000fd5b505050506040513d602081101561416657600080fd5b50519052905061417584614781565b61417f8482613b42565b506143ed565b81156143ed576001600160a01b0383166000908152600960205260409020805460ff1615156001146141fe576040805162461bcd60e51b815260206004820152601960248201527f636f6d70206d61726b6574206973206e6f74206c697374656400000000000000604482015290519081900360640190fd5b6001600160a01b0384166000908152601060205260409020546001600160e01b031615801561425057506001600160a01b038416600090815260106020526040902054600160e01b900463ffffffff16155b156143055760405180604001604052806ec097ce7bc90715b34b9f10000000006001600160e01b031681526020016142aa614289611c75565b6040518060400160405280600381526020016243323160e81b8152506151ab565b63ffffffff9081169091526001600160a01b0386166000908152601060209081526040909120835181549490920151909216600160e01b026001600160e01b039182166001600160e01b031990941693909317169190911790555b6001600160a01b0384166000908152601160205260409020546001600160e01b031615801561435757506001600160a01b038416600090815260116020526040902054600160e01b900463ffffffff16155b156143eb5760405180604001604052806ec097ce7bc90715b34b9f10000000006001600160e01b03168152602001614390614289611c75565b63ffffffff9081169091526001600160a01b0386166000908152601160209081526040909120835181549490920151909216600160e01b026001600160e01b039182166001600160e01b031990941693909317169190911790555b505b8181146114bf576001600160a01b0383166000818152600f6020908152604091829020859055815185815291517f2ab93f65628379309f36cb125e90d7c902454a545c4f8b8cb0794af75c24b8079281900390910190a2505050565b60008060006144566154a1565b6001600160a01b038816600090815260086020908152604080832080548251818502810185019093528083526060938301828280156144be57602002820191906000526020600020905b81546001600160a01b031681526001909101906020018083116144a0575b50939450600093505050505b81518110156147425760008282815181106144e157fe5b60200260200101519050806001600160a01b031663c37f68e28d6040518263ffffffff1660e01b815260040180826001600160a01b03166001600160a01b0316815260200191505060806040518083038186803b15801561454157600080fd5b505afa158015614555573d6000803e3d6000fd5b505050506040513d608081101561456b57600080fd5b508051602082015160408084015160609485015160808b01529389019390935291870191909152935083156145b05750600f965060009550859450611d319350505050565b60408051602080820183526001600160a01b0380851660008181526009845285902060010154845260c08a01939093528351808301855260808a0151815260e08a015260048054855163fc57d4df60e01b815291820194909452935192169263fc57d4df9260248083019392829003018186803b15801561463057600080fd5b505afa158015614644573d6000803e3d6000fd5b505050506040513d602081101561465a57600080fd5b505160a0860181905261467d5750600d965060009550859450611d319350505050565b604080516020810190915260a0860151815261010086015260c085015160e08601516146b7916146ac91614fb1565b866101000151614fb1565b6101208601819052604086015186516146d1929190615254565b8552610100850151606086015160208701516146ee929190615254565b60208601526001600160a01b03818116908c1614156147395761471b8561012001518b8760200151615254565b60208601819052610100860151614733918b90615254565b60208601525b506001016144ca565b506020830151835111156147685750506020810151905160009450039150829050611d31565b5050805160209091015160009450849350039050611d31565b6001600160a01b0381166000908152601060209081526040808320600f90925282205490916147ae611c75565b83549091506000906147ce908390600160e01b900463ffffffff16614c90565b90506000811180156147e05750600083115b156149a9576000856001600160a01b03166318160ddd6040518163ffffffff1660e01b815260040160206040518083038186803b15801561482057600080fd5b505afa158015614834573d6000803e3d6000fd5b505050506040513d602081101561484a57600080fd5b50519050600061485a8386614cca565b905061486461546a565b60008311614881576040518060200160405280600081525061488b565b61488b82846150b7565b905061489561546a565b604080516020810190915288546001600160e01b031681526148b790836150ec565b90506040518060400160405280614900836000015160405180604001604052806016815260200175696e646578206578636565647320323234206269747360501b815250615111565b6001600160e01b031681526020016149458860405180604001604052806015815260200174626c6f636b2065786365656473203332206269747360581b8152506151ab565b63ffffffff9081169091526001600160a01b038b166000908152601060209081526040909120835181549490920151909216600160e01b026001600160e01b039182166001600160e01b031990941693909317169190911790555061163992505050565b8015611639576149e68260405180604001604052806015815260200174626c6f636b2065786365656473203332206269747360581b8152506151ab565b845463ffffffff91909116600160e01b026001600160e01b039091161784555050505050565b6001600160a01b0382166000908152601060205260409020614a2c61546a565b50604080516020810190915281546001600160e01b03168152614a4d61546a565b5060408051602080820183526001600160a01b03808816600090815260128352848120918816808252828452948120805485528651959091529152919091558051158015614a9b5750815115155b15614ab3576ec097ce7bc90715b34b9f100000000081525b614abb61546a565b614ac58383615200565b90506000866001600160a01b03166370a08231876040518263ffffffff1660e01b815260040180826001600160a01b03166001600160a01b0316815260200191505060206040518083038186803b158015614b1f57600080fd5b505afa158015614b33573d6000803e3d6000fd5b505050506040513d6020811015614b4957600080fd5b505190506000614b598284615225565b6001600160a01b03881660009081526014602052604081205491925090614b809083614d0c565b6001600160a01b03808a166000818152601460209081526040918290208590558a5182518881529182015281519495509193928d16927f2caecd17d02f56fa897705dcc740da2d237c373f70686f4e0d9bd3bf0400ea7a9281900390910190a3505050505050505050565b60007f45b96fe442630264581b197e84bbada861235052c5a1aadfff9ea4e40a969aa0836011811115614c1a57fe5b836013811115614c2657fe5b604080519283526020830191909152600082820152519081900360600190a1826011811115611a0457fe5b6000806000614c64846000806000614449565b9250925092509193909250565b6000614c7b61546a565b614c85848461527c565b905061170e8161529d565b6000611a048383604051806040016040528060158152602001747375627472616374696f6e20756e646572666c6f7760581b8152506152ac565b6000611a0483836040518060400160405280601781526020017f6d756c7469706c69636174696f6e206f766572666c6f77000000000000000000815250615306565b6000611a048383604051806040016040528060118152602001706164646974696f6e206f766572666c6f7760781b815250615385565b60005b600d54811015614dbc57816001600160a01b0316600d8281548110614d6657fe5b6000918252602090912001546001600160a01b03161415614db4576040805162461bcd60e51b815260206004820152600360248201526204331360ec1b604482015290519081900360640190fd5b600101614d45565b50600d80546001810182556000919091527fd7b6990105719101dabeb77144f2a3385c8033acd3af97e9423a695e81ad1eb50180546001600160a01b0319166001600160a01b0392909216919091179055565b6001600160a01b03831660009081526009602052604081205460ff16614e36576009611db1565b6001600160a01b038085166000908152600960209081526040808320938716835260029093019052205460ff16614e6e576000611db1565b600080614e7e8587866000614449565b91935090915060009050826011811115614e9457fe5b14614eae57816011811115614ea557fe5b92505050611a04565b8015613199576004614ea5565b6001600160a01b0382166000908152600960205260408120805460ff16614ee657600991505061145c565b6001600160a01b038316600090815260028201602052604090205460ff16151560011415614f1857600091505061145c565b6001600160a01b0380841660008181526002840160209081526040808320805460ff19166001908117909155600883528184208054918201815584529282902090920180549489166001600160a01b031990951685179055815193845283019190915280517f3ab23ab0d51cccc0c3085aec51f99228625aa1a922b3a8ca89a26b0f2027a1a59281900390910190a15060009392505050565b614fb961546a565b6040518060200160405280670de0b6b3a7640000614fdf86600001518660000151614cca565b81614fe657fe5b0490529392505050565b614ff861546a565b604051806020016040528061502361501c8660000151670de0b6b3a7640000614cca565b85516153da565b90529392505050565b5190511090565b60007f45b96fe442630264581b197e84bbada861235052c5a1aadfff9ea4e40a969aa084601181111561506257fe5b84601381111561506e57fe5b604080519283526020830191909152818101859052519081900360600190a183601181111561170e57fe5b6000611a046150b084670de0b6b3a7640000614cca565b83516153da565b6150bf61546a565b60405180602001604052806150236150e6866ec097ce7bc90715b34b9f1000000000614cca565b856153da565b6150f461546a565b604051806020016040528061502385600001518560000151614d0c565b600081600160e01b84106151a35760405162461bcd60e51b81526004018080602001828103825283818151815260200191508051906020019080838360005b83811015615168578181015183820152602001615150565b50505050905090810190601f1680156151955780820380516001836020036101000a031916815260200191505b509250505060405180910390fd5b509192915050565b600081600160201b84106151a35760405162461bcd60e51b8152602060048201818152835160248401528351909283926044909101919085019080838360008315615168578181015183820152602001615150565b61520861546a565b604051806020016040528061502385600001518560000151614c90565b60006ec097ce7bc90715b34b9f1000000000615245848460000151614cca565b8161524c57fe5b049392505050565b600061525e61546a565b615268858561527c565b90506122466152768261529d565b84614d0c565b61528461546a565b6040518060200160405280615023856000015185614cca565b51670de0b6b3a7640000900490565b600081848411156152fe5760405162461bcd60e51b8152602060048201818152835160248401528351909283926044909101919085019080838360008315615168578181015183820152602001615150565b505050900390565b6000831580615313575082155b1561532057506000611a04565b8383028385828161532d57fe5b0414839061537c5760405162461bcd60e51b8152602060048201818152835160248401528351909283926044909101919085019080838360008315615168578181015183820152602001615150565b50949350505050565b6000838301828582101561537c5760405162461bcd60e51b8152602060048201818152835160248401528351909283926044909101919085019080838360008315615168578181015183820152602001615150565b6000611a0483836040518060400160405280600e81526020016d646976696465206279207a65726f60901b815250600081836154575760405162461bcd60e51b8152602060048201818152835160248401528351909283926044909101919085019080838360008315615168578181015183820152602001615150565b5082848161546157fe5b04949350505050565b6040518060200160405280600081525090565b8154818355818111156114bf576000838152602090206114bf91810190830161550b565b6040518061014001604052806000815260200160008152602001600081526020016000815260200160008152602001600081526020016154df61546a565b81526020016154ec61546a565b81526020016154f961546a565b815260200161550661546a565b905290565b611c7791905b808211156155255760008155600101615511565b509056fe6f6e6c7920677561726469616e20616e642061646d696e2063616e207061757365a265627a7a7231582028b443db9c2163202dc1acaf8a48f34a7a6fba097c1297a835d2147407feeb4364736f6c63430005100032",
  "linkReferences": {},
  "deployedLinkReferences": {}
}