{
  "_format": "hh-sol-artifact-1",
  "contractName": "ComptrollerG3",
  "sourceName": "contracts/ComptrollerG3.sol",
  "abi": [
    {
      "inputs": [],
      "payable": false,
      "stateMutability": "nonpayable",
      "type": "constructor"
    },
    {
      "anonymous": false,
      "inputs": [
        {
          "indexed": false,
          "internalType": "string",
          "name": "action",
          "type": "string"
        },
        {
          "indexed": false,
          "internalType": "bool",
          "name": "pauseState",
          "type": "bool"
        }
      ],
      "name": "ActionPaused",
      "type": "event"
    },
    {
      "anonymous": false,
      "inputs": [
        {
          "indexed": false,
          "internalType": "contract CToken",
          "name": "cToken",
          "type": "address"
        },
        {
          "indexed": false,
          "internalType": "string",
          "name": "action",
          "type": "string"
        },
        {
          "indexed": false,
          "internalType": "bool",
          "name": "pauseState",
          "type": "bool"
        }
      ],
      "name": "ActionPaused",
      "type": "event"
    },
    {
      "anonymous": false,
      "inputs": [
        {
          "indexed": true,
          "internalType": "contract CToken",
          "name": "cToken",
          "type": "address"
        },
        {
          "indexed": false,
          "internalType": "uint256",
          "name": "newSpeed",
          "type": "uint256"
        }
      ],
      "name": "CompSpeedUpdated",
      "type": "event"
    },
    {
      "anonymous": false,
      "inputs": [
        {
          "indexed": true,
          "internalType": "contract CToken",
          "name": "cToken",
          "type": "address"
        },
        {
          "indexed": true,
          "internalType": "address",
          "name": "borrower",
          "type": "address"
        },
        {
          "indexed": false,
          "internalType": "uint256",
          "name": "compDelta",
          "type": "uint256"
        },
        {
          "indexed": false,
          "internalType": "uint256",
          "name": "compBorrowIndex",
          "type": "uint256"
        }
      ],
      "name": "DistributedBorrowerComp",
      "type": "event"
    },
    {
      "anonymous": false,
      "inputs": [
        {
          "indexed": true,
          "internalType": "contract CToken",
          "name": "cToken",
          "type": "address"
        },
        {
          "indexed": true,
          "internalType": "address",
          "name": "supplier",
          "type": "address"
        },
        {
          "indexed": false,
          "internalType": "uint256",
          "name": "compDelta",
          "type": "uint256"
        },
        {
          "indexed": false,
          "internalType": "uint256",
          "name": "compSupplyIndex",
          "type": "uint256"
        }
      ],
      "name": "DistributedSupplierComp",
      "type": "event"
    },
    {
      "anonymous": false,
      "inputs": [
        {
          "indexed": false,
          "internalType": "uint256",
          "name": "error",
          "type": "uint256"
        },
        {
          "indexed": false,
          "internalType": "uint256",
          "name": "info",
          "type": "uint256"
        },
        {
          "indexed": false,
          "internalType": "uint256",
          "name": "detail",
          "type": "uint256"
        }
      ],
      "name": "Failure",
      "type": "event"
    },
    {
      "anonymous": false,
      "inputs": [
        {
          "indexed": false,
          "internalType": "contract CToken",
          "name": "cToken",
          "type": "address"
        },
        {
          "indexed": false,
          "internalType": "bool",
          "name": "isComped",
          "type": "bool"
        }
      ],
      "name": "MarketComped",
      "type": "event"
    },
    {
      "anonymous": false,
      "inputs": [
        {
          "indexed": false,
          "internalType": "contract CToken",
          "name": "cToken",
          "type": "address"
        },
        {
          "indexed": false,
          "internalType": "address",
          "name": "account",
          "type": "address"
        }
      ],
      "name": "MarketEntered",
      "type": "event"
    },
    {
      "anonymous": false,
      "inputs": [
        {
          "indexed": false,
          "internalType": "contract CToken",
          "name": "cToken",
          "type": "address"
        },
        {
          "indexed": false,
          "internalType": "address",
          "name": "account",
          "type": "address"
        }
      ],
      "name": "MarketExited",
      "type": "event"
    },
    {
      "anonymous": false,
      "inputs": [
        {
          "indexed": false,
          "internalType": "contract CToken",
          "name": "cToken",
          "type": "address"
        }
      ],
      "name": "MarketListed",
      "type": "event"
    },
    {
      "anonymous": false,
      "inputs": [
        {
          "indexed": false,
          "internalType": "uint256",
          "name": "oldCloseFactorMantissa",
          "type": "uint256"
        },
        {
          "indexed": false,
          "internalType": "uint256",
          "name": "newCloseFactorMantissa",
          "type": "uint256"
        }
      ],
      "name": "NewCloseFactor",
      "type": "event"
    },
    {
      "anonymous": false,
      "inputs": [
        {
          "indexed": false,
          "internalType": "contract CToken",
          "name": "cToken",
          "type": "address"
        },
        {
          "indexed": false,
          "internalType": "uint256",
          "name": "oldCollateralFactorMantissa",
          "type": "uint256"
        },
        {
          "indexed": false,
          "internalType": "uint256",
          "name": "newCollateralFactorMantissa",
          "type": "uint256"
        }
      ],
      "name": "NewCollateralFactor",
      "type": "event"
    },
    {
      "anonymous": false,
      "inputs": [
        {
          "indexed": false,
          "internalType": "uint256",
          "name": "oldCompRate",
          "type": "uint256"
        },
        {
          "indexed": false,
          "internalType": "uint256",
          "name": "newCompRate",
          "type": "uint256"
        }
      ],
      "name": "NewCompRate",
      "type": "event"
    },
    {
      "anonymous": false,
      "inputs": [
        {
          "indexed": false,
          "internalType": "uint256",
          "name": "oldLiquidationIncentiveMantissa",
          "type": "uint256"
        },
        {
          "indexed": false,
          "internalType": "uint256",
          "name": "newLiquidationIncentiveMantissa",
          "type": "uint256"
        }
      ],
      "name": "NewLiquidationIncentive",
      "type": "event"
    },
    {
      "anonymous": false,
      "inputs": [
        {
          "indexed": false,
          "internalType": "uint256",
          "name": "oldMaxAssets",
          "type": "uint256"
        },
        {
          "indexed": false,
          "internalType": "uint256",
          "name": "newMaxAssets",
          "type": "uint256"
        }
      ],
      "name": "NewMaxAssets",
      "type": "event"
    },
    {
      "anonymous": false,
      "inputs": [
        {
          "indexed": false,
          "internalType": "address",
          "name": "oldPauseGuardian",
          "type": "address"
        },
        {
          "indexed": false,
          "internalType": "address",
          "name": "newPauseGuardian",
          "type": "address"
        }
      ],
      "name": "NewPauseGuardian",
      "type": "event"
    },
    {
      "anonymous": false,
      "inputs": [
        {
          "indexed": false,
          "internalType": "contract PriceOracle",
          "name": "oldPriceOracle",
          "type": "address"
        },
        {
          "indexed": false,
          "internalType": "contract PriceOracle",
          "name": "newPriceOracle",
          "type": "address"
        }
      ],
      "name": "NewPriceOracle",
      "type": "event"
    },
    {
      "constant": false,
      "inputs": [
        {
          "internalType": "address[]",
          "name": "cTokens",
          "type": "address[]"
        }
      ],
      "name": "_addCompMarkets",
      "outputs": [],
      "payable": false,
      "stateMutability": "nonpayable",
      "type": "function"
    },
    {
      "constant": false,
      "inputs": [
        {
          "internalType": "contract Unitroller",
          "name": "unitroller",
          "type": "address"
        },
        {
          "internalType": "uint256",
          "name": "compRate_",
          "type": "uint256"
        },
        {
          "internalType": "address[]",
          "name": "compMarketsToAdd",
          "type": "address[]"
        },
        {
          "internalType": "address[]",
          "name": "otherMarketsToAdd",
          "type": "address[]"
        }
      ],
      "name": "_become",
      "outputs": [],
      "payable": false,
      "stateMutability": "nonpayable",
      "type": "function"
    },
    {
      "constant": false,
      "inputs": [
        {
          "internalType": "uint256",
          "name": "compRate_",
          "type": "uint256"
        },
        {
          "internalType": "address[]",
          "name": "compMarketsToAdd",
          "type": "address[]"
        },
        {
          "internalType": "address[]",
          "name": "otherMarketsToAdd",
          "type": "address[]"
        }
      ],
      "name": "_becomeG3",
      "outputs": [],
      "payable": false,
      "stateMutability": "nonpayable",
      "type": "function"
    },
    {
      "constant": true,
      "inputs": [],
      "name": "_borrowGuardianPaused",
      "outputs": [
        {
          "internalType": "bool",
          "name": "",
          "type": "bool"
        }
      ],
      "payable": false,
      "stateMutability": "view",
      "type": "function"
    },
    {
      "constant": false,
      "inputs": [
        {
          "internalType": "address",
          "name": "cToken",
          "type": "address"
        }
      ],
      "name": "_dropCompMarket",
      "outputs": [],
      "payable": false,
      "stateMutability": "nonpayable",
      "type": "function"
    },
    {
      "constant": true,
      "inputs": [],
      "name": "_mintGuardianPaused",
      "outputs": [
        {
          "internalType": "bool",
          "name": "",
          "type": "bool"
        }
      ],
      "payable": false,
      "stateMutability": "view",
      "type": "function"
    },
    {
      "constant": false,
      "inputs": [
        {
          "internalType": "contract CToken",
          "name": "cToken",
          "type": "address"
        },
        {
          "internalType": "bool",
          "name": "state",
          "type": "bool"
        }
      ],
      "name": "_setBorrowPaused",
      "outputs": [
        {
          "internalType": "bool",
          "name": "",
          "type": "bool"
        }
      ],
      "payable": false,
      "stateMutability": "nonpayable",
      "type": "function"
    },
    {
      "constant": false,
      "inputs": [
        {
          "internalType": "uint256",
          "name": "newCloseFactorMantissa",
          "type": "uint256"
        }
      ],
      "name": "_setCloseFactor",
      "outputs": [
        {
          "internalType": "uint256",
          "name": "",
          "type": "uint256"
        }
      ],
      "payable": false,
      "stateMutability": "nonpayable",
      "type": "function"
    },
    {
      "constant": false,
      "inputs": [
        {
          "internalType": "contract CToken",
          "name": "cToken",
          "type": "address"
        },
        {
          "internalType": "uint256",
          "name": "newCollateralFactorMantissa",
          "type": "uint256"
        }
      ],
      "name": "_setCollateralFactor",
      "outputs": [
        {
          "internalType": "uint256",
          "name": "",
          "type": "uint256"
        }
      ],
      "payable": false,
      "stateMutability": "nonpayable",
      "type": "function"
    },
    {
      "constant": false,
      "inputs": [
        {
          "internalType": "uint256",
          "name": "compRate_",
          "type": "uint256"
        }
      ],
      "name": "_setCompRate",
      "outputs": [],
      "payable": false,
      "stateMutability": "nonpayable",
      "type": "function"
    },
    {
      "constant": false,
      "inputs": [
        {
          "internalType": "uint256",
          "name": "newLiquidationIncentiveMantissa",
          "type": "uint256"
        }
      ],
      "name": "_setLiquidationIncentive",
      "outputs": [
        {
          "internalType": "uint256",
          "name": "",
          "type": "uint256"
        }
      ],
      "payable": false,
      "stateMutability": "nonpayable",
      "type": "function"
    },
    {
      "constant": false,
      "inputs": [
        {
          "internalType": "uint256",
          "name": "newMaxAssets",
          "type": "uint256"
        }
      ],
      "name": "_setMaxAssets",
      "outputs": [
        {
          "internalType": "uint256",
          "name": "",
          "type": "uint256"
        }
      ],
      "payable": false,
      "stateMutability": "nonpayable",
      "type": "function"
    },
    {
      "constant": false,
      "inputs": [
        {
          "internalType": "contract CToken",
          "name": "cToken",
          "type": "address"
        },
        {
          "internalType": "bool",
          "name": "state",
          "type": "bool"
        }
      ],
      "name": "_setMintPaused",
      "outputs": [
        {
          "internalType": "bool",
          "name": "",
          "type": "bool"
        }
      ],
      "payable": false,
      "stateMutability": "nonpayable",
      "type": "function"
    },
    {
      "constant": false,
      "inputs": [
        {
          "internalType": "address",
          "name": "newPauseGuardian",
          "type": "address"
        }
      ],
      "name": "_setPauseGuardian",
      "outputs": [
        {
          "internalType": "uint256",
          "name": "",
          "type": "uint256"
        }
      ],
      "payable": false,
      "stateMutability": "nonpayable",
      "type": "function"
    },
    {
      "constant": false,
      "inputs": [
        {
          "internalType": "contract PriceOracle",
          "name": "newOracle",
          "type": "address"
        }
      ],
      "name": "_setPriceOracle",
      "outputs": [
        {
          "internalType": "uint256",
          "name": "",
          "type": "uint256"
        }
      ],
      "payable": false,
      "stateMutability": "nonpayable",
      "type": "function"
    },
    {
      "constant": false,
      "inputs": [
        {
          "internalType": "bool",
          "name": "state",
          "type": "bool"
        }
      ],
      "name": "_setSeizePaused",
      "outputs": [
        {
          "internalType": "bool",
          "name": "",
          "type": "bool"
        }
      ],
      "payable": false,
      "stateMutability": "nonpayable",
      "type": "function"
    },
    {
      "constant": false,
      "inputs": [
        {
          "internalType": "bool",
          "name": "state",
          "type": "bool"
        }
      ],
      "name": "_setTransferPaused",
      "outputs": [
        {
          "internalType": "bool",
          "name": "",
          "type": "bool"
        }
      ],
      "payable": false,
      "stateMutability": "nonpayable",
      "type": "function"
    },
    {
      "constant": false,
      "inputs": [
        {
          "internalType": "contract CToken",
          "name": "cToken",
          "type": "address"
        }
      ],
      "name": "_supportMarket",
      "outputs": [
        {
          "internalType": "uint256",
          "name": "",
          "type": "uint256"
        }
      ],
      "payable": false,
      "stateMutability": "nonpayable",
      "type": "function"
    },
    {
      "constant": true,
      "inputs": [
        {
          "internalType": "address",
          "name": "",
          "type": "address"
        },
        {
          "internalType": "uint256",
          "name": "",
          "type": "uint256"
        }
      ],
      "name": "accountAssets",
      "outputs": [
        {
          "internalType": "contract CToken",
          "name": "",
          "type": "address"
        }
      ],
      "payable": false,
      "stateMutability": "view",
      "type": "function"
    },
    {
      "constant": true,
      "inputs": [],
      "name": "admin",
      "outputs": [
        {
          "internalType": "address",
          "name": "",
          "type": "address"
        }
      ],
      "payable": false,
      "stateMutability": "view",
      "type": "function"
    },
    {
      "constant": true,
      "inputs": [
        {
          "internalType": "uint256",
          "name": "",
          "type": "uint256"
        }
      ],
      "name": "allMarkets",
      "outputs": [
        {
          "internalType": "contract CToken",
          "name": "",
          "type": "address"
        }
      ],
      "payable": false,
      "stateMutability": "view",
      "type": "function"
    },
    {
      "constant": false,
      "inputs": [
        {
          "internalType": "address",
          "name": "cToken",
          "type": "address"
        },
        {
          "internalType": "address",
          "name": "borrower",
          "type": "address"
        },
        {
          "internalType": "uint256",
          "name": "borrowAmount",
          "type": "uint256"
        }
      ],
      "name": "borrowAllowed",
      "outputs": [
        {
          "internalType": "uint256",
          "name": "",
          "type": "uint256"
        }
      ],
      "payable": false,
      "stateMutability": "nonpayable",
      "type": "function"
    },
    {
      "constant": true,
      "inputs": [
        {
          "internalType": "address",
          "name": "",
          "type": "address"
        }
      ],
      "name": "borrowGuardianPaused",
      "outputs": [
        {
          "internalType": "bool",
          "name": "",
          "type": "bool"
        }
      ],
      "payable": false,
      "stateMutability": "view",
      "type": "function"
    },
    {
      "constant": false,
      "inputs": [
        {
          "internalType": "address",
          "name": "cToken",
          "type": "address"
        },
        {
          "internalType": "address",
          "name": "borrower",
          "type": "address"
        },
        {
          "internalType": "uint256",
          "name": "borrowAmount",
          "type": "uint256"
        }
      ],
      "name": "borrowVerify",
      "outputs": [],
      "payable": false,
      "stateMutability": "nonpayable",
      "type": "function"
    },
    {
      "constant": true,
      "inputs": [
        {
          "internalType": "address",
          "name": "account",
          "type": "address"
        },
        {
          "internalType": "contract CToken",
          "name": "cToken",
          "type": "address"
        }
      ],
      "name": "checkMembership",
      "outputs": [
        {
          "internalType": "bool",
          "name": "",
          "type": "bool"
        }
      ],
      "payable": false,
      "stateMutability": "view",
      "type": "function"
    },
    {
      "constant": false,
      "inputs": [
        {
          "internalType": "address",
          "name": "holder",
          "type": "address"
        },
        {
          "internalType": "contract CToken[]",
          "name": "cTokens",
          "type": "address[]"
        }
      ],
      "name": "claimComp",
      "outputs": [],
      "payable": false,
      "stateMutability": "nonpayable",
      "type": "function"
    },
    {
      "constant": false,
      "inputs": [
        {
          "internalType": "address[]",
          "name": "holders",
          "type": "address[]"
        },
        {
          "internalType": "contract CToken[]",
          "name": "cTokens",
          "type": "address[]"
        },
        {
          "internalType": "bool",
          "name": "borrowers",
          "type": "bool"
        },
        {
          "internalType": "bool",
          "name": "suppliers",
          "type": "bool"
        }
      ],
      "name": "claimComp",
      "outputs": [],
      "payable": false,
      "stateMutability": "nonpayable",
      "type": "function"
    },
    {
      "constant": false,
      "inputs": [
        {
          "internalType": "address",
          "name": "holder",
          "type": "address"
        }
      ],
      "name": "claimComp",
      "outputs": [],
      "payable": false,
      "stateMutability": "nonpayable",
      "type": "function"
    },
    {
      "constant": true,
      "inputs": [],
      "name": "closeFactorMantissa",
      "outputs": [
        {
          "internalType": "uint256",
          "name": "",
          "type": "uint256"
        }
      ],
      "payable": false,
      "stateMutability": "view",
      "type": "function"
    },
    {
      "constant": true,
      "inputs": [
        {
          "internalType": "address",
          "name": "",
          "type": "address"
        }
      ],
      "name": "compAccrued",
      "outputs": [
        {
          "internalType": "uint256",
          "name": "",
          "type": "uint256"
        }
      ],
      "payable": false,
      "stateMutability": "view",
      "type": "function"
    },
    {
      "constant": true,
      "inputs": [
        {
          "internalType": "address",
          "name": "",
          "type": "address"
        }
      ],
      "name": "compBorrowState",
      "outputs": [
        {
          "internalType": "uint224",
          "name": "index",
          "type": "uint224"
        },
        {
          "internalType": "uint32",
          "name": "block",
          "type": "uint32"
        }
      ],
      "payable": false,
      "stateMutability": "view",
      "type": "function"
    },
    {
      "constant": true,
      "inputs": [
        {
          "internalType": "address",
          "name": "",
          "type": "address"
        },
        {
          "internalType": "address",
          "name": "",
          "type": "address"
        }
      ],
      "name": "compBorrowerIndex",
      "outputs": [
        {
          "internalType": "uint256",
          "name": "",
          "type": "uint256"
        }
      ],
      "payable": false,
      "stateMutability": "view",
      "type": "function"
    },
    {
      "constant": true,
      "inputs": [],
      "name": "compClaimThreshold",
      "outputs": [
        {
          "internalType": "uint256",
          "name": "",
          "type": "uint256"
        }
      ],
      "payable": false,
      "stateMutability": "view",
      "type": "function"
    },
    {
      "constant": true,
      "inputs": [],
      "name": "compInitialIndex",
      "outputs": [
        {
          "internalType": "uint224",
          "name": "",
          "type": "uint224"
        }
      ],
      "payable": false,
      "stateMutability": "view",
      "type": "function"
    },
    {
      "constant": true,
      "inputs": [],
      "name": "compRate",
      "outputs": [
        {
          "internalType": "uint256",
          "name": "",
          "type": "uint256"
        }
      ],
      "payable": false,
      "stateMutability": "view",
      "type": "function"
    },
    {
      "constant": true,
      "inputs": [
        {
          "internalType": "address",
          "name": "",
          "type": "address"
        }
      ],
      "name": "compSpeeds",
      "outputs": [
        {
          "internalType": "uint256",
          "name": "",
          "type": "uint256"
        }
      ],
      "payable": false,
      "stateMutability": "view",
      "type": "function"
    },
    {
      "constant": true,
      "inputs": [
        {
          "internalType": "address",
          "name": "",
          "type": "address"
        },
        {
          "internalType": "address",
          "name": "",
          "type": "address"
        }
      ],
      "name": "compSupplierIndex",
      "outputs": [
        {
          "internalType": "uint256",
          "name": "",
          "type": "uint256"
        }
      ],
      "payable": false,
      "stateMutability": "view",
      "type": "function"
    },
    {
      "constant": true,
      "inputs": [
        {
          "internalType": "address",
          "name": "",
          "type": "address"
        }
      ],
      "name": "compSupplyState",
      "outputs": [
        {
          "internalType": "uint224",
          "name": "index",
          "type": "uint224"
        },
        {
          "internalType": "uint32",
          "name": "block",
          "type": "uint32"
        }
      ],
      "payable": false,
      "stateMutability": "view",
      "type": "function"
    },
    {
      "constant": true,
      "inputs": [],
      "name": "comptrollerImplementation",
      "outputs": [
        {
          "internalType": "address",
          "name": "",
          "type": "address"
        }
      ],
      "payable": false,
      "stateMutability": "view",
      "type": "function"
    },
    {
      "constant": false,
      "inputs": [
        {
          "internalType": "address[]",
          "name": "cTokens",
          "type": "address[]"
        }
      ],
      "name": "enterMarkets",
      "outputs": [
        {
          "internalType": "uint256[]",
          "name": "",
          "type": "uint256[]"
        }
      ],
      "payable": false,
      "stateMutability": "nonpayable",
      "type": "function"
    },
    {
      "constant": false,
      "inputs": [
        {
          "internalType": "address",
          "name": "cTokenAddress",
          "type": "address"
        }
      ],
      "name": "exitMarket",
      "outputs": [
        {
          "internalType": "uint256",
          "name": "",
          "type": "uint256"
        }
      ],
      "payable": false,
      "stateMutability": "nonpayable",
      "type": "function"
    },
    {
      "constant": true,
      "inputs": [
        {
          "internalType": "address",
          "name": "account",
          "type": "address"
        }
      ],
      "name": "getAccountLiquidity",
      "outputs": [
        {
          "internalType": "uint256",
          "name": "",
          "type": "uint256"
        },
        {
          "internalType": "uint256",
          "name": "",
          "type": "uint256"
        },
        {
          "internalType": "uint256",
          "name": "",
          "type": "uint256"
        }
      ],
      "payable": false,
      "stateMutability": "view",
      "type": "function"
    },
    {
      "constant": true,
      "inputs": [],
      "name": "getAllMarkets",
      "outputs": [
        {
          "internalType": "contract CToken[]",
          "name": "",
          "type": "address[]"
        }
      ],
      "payable": false,
      "stateMutability": "view",
      "type": "function"
    },
    {
      "constant": true,
      "inputs": [
        {
          "internalType": "address",
          "name": "account",
          "type": "address"
        }
      ],
      "name": "getAssetsIn",
      "outputs": [
        {
          "internalType": "contract CToken[]",
          "name": "",
          "type": "address[]"
        }
      ],
      "payable": false,
      "stateMutability": "view",
      "type": "function"
    },
    {
      "constant": true,
      "inputs": [],
      "name": "getBlockNumber",
      "outputs": [
        {
          "internalType": "uint256",
          "name": "",
          "type": "uint256"
        }
      ],
      "payable": false,
      "stateMutability": "view",
      "type": "function"
    },
    {
      "constant": true,
      "inputs": [],
      "name": "getCompAddress",
      "outputs": [
        {
          "internalType": "address",
          "name": "",
          "type": "address"
        }
      ],
      "payable": false,
      "stateMutability": "view",
      "type": "function"
    },
    {
      "constant": true,
      "inputs": [
        {
          "internalType": "address",
          "name": "account",
          "type": "address"
        },
        {
          "internalType": "address",
          "name": "cTokenModify",
          "type": "address"
        },
        {
          "internalType": "uint256",
          "name": "redeemTokens",
          "type": "uint256"
        },
        {
          "internalType": "uint256",
          "name": "borrowAmount",
          "type": "uint256"
        }
      ],
      "name": "getHypotheticalAccountLiquidity",
      "outputs": [
        {
          "internalType": "uint256",
          "name": "",
          "type": "uint256"
        },
        {
          "internalType": "uint256",
          "name": "",
          "type": "uint256"
        },
        {
          "internalType": "uint256",
          "name": "",
          "type": "uint256"
        }
      ],
      "payable": false,
      "stateMutability": "view",
      "type": "function"
    },
    {
      "constant": true,
      "inputs": [],
      "name": "isComptroller",
      "outputs": [
        {
          "internalType": "bool",
          "name": "",
          "type": "bool"
        }
      ],
      "payable": false,
      "stateMutability": "view",
      "type": "function"
    },
    {
      "constant": false,
      "inputs": [
        {
          "internalType": "address",
          "name": "cTokenBorrowed",
          "type": "address"
        },
        {
          "internalType": "address",
          "name": "cTokenCollateral",
          "type": "address"
        },
        {
          "internalType": "address",
          "name": "liquidator",
          "type": "address"
        },
        {
          "internalType": "address",
          "name": "borrower",
          "type": "address"
        },
        {
          "internalType": "uint256",
          "name": "repayAmount",
          "type": "uint256"
        }
      ],
      "name": "liquidateBorrowAllowed",
      "outputs": [
        {
          "internalType": "uint256",
          "name": "",
          "type": "uint256"
        }
      ],
      "payable": false,
      "stateMutability": "nonpayable",
      "type": "function"
    },
    {
      "constant": false,
      "inputs": [
        {
          "internalType": "address",
          "name": "cTokenBorrowed",
          "type": "address"
        },
        {
          "internalType": "address",
          "name": "cTokenCollateral",
          "type": "address"
        },
        {
          "internalType": "address",
          "name": "liquidator",
          "type": "address"
        },
        {
          "internalType": "address",
          "name": "borrower",
          "type": "address"
        },
        {
          "internalType": "uint256",
          "name": "actualRepayAmount",
          "type": "uint256"
        },
        {
          "internalType": "uint256",
          "name": "seizeTokens",
          "type": "uint256"
        }
      ],
      "name": "liquidateBorrowVerify",
      "outputs": [],
      "payable": false,
      "stateMutability": "nonpayable",
      "type": "function"
    },
    {
      "constant": true,
      "inputs": [
        {
          "internalType": "address",
          "name": "cTokenBorrowed",
          "type": "address"
        },
        {
          "internalType": "address",
          "name": "cTokenCollateral",
          "type": "address"
        },
        {
          "internalType": "uint256",
          "name": "actualRepayAmount",
          "type": "uint256"
        }
      ],
      "name": "liquidateCalculateSeizeTokens",
      "outputs": [
        {
          "internalType": "uint256",
          "name": "",
          "type": "uint256"
        },
        {
          "internalType": "uint256",
          "name": "",
          "type": "uint256"
        }
      ],
      "payable": false,
      "stateMutability": "view",
      "type": "function"
    },
    {
      "constant": true,
      "inputs": [],
      "name": "liquidationIncentiveMantissa",
      "outputs": [
        {
          "internalType": "uint256",
          "name": "",
          "type": "uint256"
        }
      ],
      "payable": false,
      "stateMutability": "view",
      "type": "function"
    },
    {
      "constant": true,
      "inputs": [
        {
          "internalType": "address",
          "name": "",
          "type": "address"
        }
      ],
      "name": "markets",
      "outputs": [
        {
          "internalType": "bool",
          "name": "isListed",
          "type": "bool"
        },
        {
          "internalType": "uint256",
          "name": "collateralFactorMantissa",
          "type": "uint256"
        },
        {
          "internalType": "bool",
          "name": "isComped",
          "type": "bool"
        }
      ],
      "payable": false,
      "stateMutability": "view",
      "type": "function"
    },
    {
      "constant": true,
      "inputs": [],
      "name": "maxAssets",
      "outputs": [
        {
          "internalType": "uint256",
          "name": "",
          "type": "uint256"
        }
      ],
      "payable": false,
      "stateMutability": "view",
      "type": "function"
    },
    {
      "constant": false,
      "inputs": [
        {
          "internalType": "address",
          "name": "cToken",
          "type": "address"
        },
        {
          "internalType": "address",
          "name": "minter",
          "type": "address"
        },
        {
          "internalType": "uint256",
          "name": "mintAmount",
          "type": "uint256"
        }
      ],
      "name": "mintAllowed",
      "outputs": [
        {
          "internalType": "uint256",
          "name": "",
          "type": "uint256"
        }
      ],
      "payable": false,
      "stateMutability": "nonpayable",
      "type": "function"
    },
    {
      "constant": true,
      "inputs": [
        {
          "internalType": "address",
          "name": "",
          "type": "address"
        }
      ],
      "name": "mintGuardianPaused",
      "outputs": [
        {
          "internalType": "bool",
          "name": "",
          "type": "bool"
        }
      ],
      "payable": false,
      "stateMutability": "view",
      "type": "function"
    },
    {
      "constant": false,
      "inputs": [
        {
          "internalType": "address",
          "name": "cToken",
          "type": "address"
        },
        {
          "internalType": "address",
          "name": "minter",
          "type": "address"
        },
        {
          "internalType": "uint256",
          "name": "actualMintAmount",
          "type": "uint256"
        },
        {
          "internalType": "uint256",
          "name": "mintTokens",
          "type": "uint256"
        }
      ],
      "name": "mintVerify",
      "outputs": [],
      "payable": false,
      "stateMutability": "nonpayable",
      "type": "function"
    },
    {
      "constant": true,
      "inputs": [],
      "name": "oracle",
      "outputs": [
        {
          "internalType": "contract PriceOracle",
          "name": "",
          "type": "address"
        }
      ],
      "payable": false,
      "stateMutability": "view",
      "type": "function"
    },
    {
      "constant": true,
      "inputs": [],
      "name": "pauseGuardian",
      "outputs": [
        {
          "internalType": "address",
          "name": "",
          "type": "address"
        }
      ],
      "payable": false,
      "stateMutability": "view",
      "type": "function"
    },
    {
      "constant": true,
      "inputs": [],
      "name": "pendingAdmin",
      "outputs": [
        {
          "internalType": "address",
          "name": "",
          "type": "address"
        }
      ],
      "payable": false,
      "stateMutability": "view",
      "type": "function"
    },
    {
      "constant": true,
      "inputs": [],
      "name": "pendingComptrollerImplementation",
      "outputs": [
        {
          "internalType": "address",
          "name": "",
          "type": "address"
        }
      ],
      "payable": false,
      "stateMutability": "view",
      "type": "function"
    },
    {
      "constant": false,
      "inputs": [
        {
          "internalType": "address",
          "name": "cToken",
          "type": "address"
        },
        {
          "internalType": "address",
          "name": "redeemer",
          "type": "address"
        },
        {
          "internalType": "uint256",
          "name": "redeemTokens",
          "type": "uint256"
        }
      ],
      "name": "redeemAllowed",
      "outputs": [
        {
          "internalType": "uint256",
          "name": "",
          "type": "uint256"
        }
      ],
      "payable": false,
      "stateMutability": "nonpayable",
      "type": "function"
    },
    {
      "constant": false,
      "inputs": [
        {
          "internalType": "address",
          "name": "cToken",
          "type": "address"
        },
        {
          "internalType": "address",
          "name": "redeemer",
          "type": "address"
        },
        {
          "internalType": "uint256",
          "name": "redeemAmount",
          "type": "uint256"
        },
        {
          "internalType": "uint256",
          "name": "redeemTokens",
          "type": "uint256"
        }
      ],
      "name": "redeemVerify",
      "outputs": [],
      "payable": false,
      "stateMutability": "nonpayable",
      "type": "function"
    },
    {
      "constant": false,
      "inputs": [],
      "name": "refreshCompSpeeds",
      "outputs": [],
      "payable": false,
      "stateMutability": "nonpayable",
      "type": "function"
    },
    {
      "constant": false,
      "inputs": [
        {
          "internalType": "address",
          "name": "cToken",
          "type": "address"
        },
        {
          "internalType": "address",
          "name": "payer",
          "type": "address"
        },
        {
          "internalType": "address",
          "name": "borrower",
          "type": "address"
        },
        {
          "internalType": "uint256",
          "name": "repayAmount",
          "type": "uint256"
        }
      ],
      "name": "repayBorrowAllowed",
      "outputs": [
        {
          "internalType": "uint256",
          "name": "",
          "type": "uint256"
        }
      ],
      "payable": false,
      "stateMutability": "nonpayable",
      "type": "function"
    },
    {
      "constant": false,
      "inputs": [
        {
          "internalType": "address",
          "name": "cToken",
          "type": "address"
        },
        {
          "internalType": "address",
          "name": "payer",
          "type": "address"
        },
        {
          "internalType": "address",
          "name": "borrower",
          "type": "address"
        },
        {
          "internalType": "uint256",
          "name": "actualRepayAmount",
          "type": "uint256"
        },
        {
          "internalType": "uint256",
          "name": "borrowerIndex",
          "type": "uint256"
        }
      ],
      "name": "repayBorrowVerify",
      "outputs": [],
      "payable": false,
      "stateMutability": "nonpayable",
      "type": "function"
    },
    {
      "constant": false,
      "inputs": [
        {
          "internalType": "address",
          "name": "cTokenCollateral",
          "type": "address"
        },
        {
          "internalType": "address",
          "name": "cTokenBorrowed",
          "type": "address"
        },
        {
          "internalType": "address",
          "name": "liquidator",
          "type": "address"
        },
        {
          "internalType": "address",
          "name": "borrower",
          "type": "address"
        },
        {
          "internalType": "uint256",
          "name": "seizeTokens",
          "type": "uint256"
        }
      ],
      "name": "seizeAllowed",
      "outputs": [
        {
          "internalType": "uint256",
          "name": "",
          "type": "uint256"
        }
      ],
      "payable": false,
      "stateMutability": "nonpayable",
      "type": "function"
    },
    {
      "constant": true,
      "inputs": [],
      "name": "seizeGuardianPaused",
      "outputs": [
        {
          "internalType": "bool",
          "name": "",
          "type": "bool"
        }
      ],
      "payable": false,
      "stateMutability": "view",
      "type": "function"
    },
    {
      "constant": false,
      "inputs": [
        {
          "internalType": "address",
          "name": "cTokenCollateral",
          "type": "address"
        },
        {
          "internalType": "address",
          "name": "cTokenBorrowed",
          "type": "address"
        },
        {
          "internalType": "address",
          "name": "liquidator",
          "type": "address"
        },
        {
          "internalType": "address",
          "name": "borrower",
          "type": "address"
        },
        {
          "internalType": "uint256",
          "name": "seizeTokens",
          "type": "uint256"
        }
      ],
      "name": "seizeVerify",
      "outputs": [],
      "payable": false,
      "stateMutability": "nonpayable",
      "type": "function"
    },
    {
      "constant": false,
      "inputs": [
        {
          "internalType": "address",
          "name": "cToken",
          "type": "address"
        },
        {
          "internalType": "address",
          "name": "src",
          "type": "address"
        },
        {
          "internalType": "address",
          "name": "dst",
          "type": "address"
        },
        {
          "internalType": "uint256",
          "name": "transferTokens",
          "type": "uint256"
        }
      ],
      "name": "transferAllowed",
      "outputs": [
        {
          "internalType": "uint256",
          "name": "",
          "type": "uint256"
        }
      ],
      "payable": false,
      "stateMutability": "nonpayable",
      "type": "function"
    },
    {
      "constant": true,
      "inputs": [],
      "name": "transferGuardianPaused",
      "outputs": [
        {
          "internalType": "bool",
          "name": "",
          "type": "bool"
        }
      ],
      "payable": false,
      "stateMutability": "view",
      "type": "function"
    },
    {
      "constant": false,
      "inputs": [
        {
          "internalType": "address",
          "name": "cToken",
          "type": "address"
        },
        {
          "internalType": "address",
          "name": "src",
          "type": "address"
        },
        {
          "internalType": "address",
          "name": "dst",
          "type": "address"
        },
        {
          "internalType": "uint256",
          "name": "transferTokens",
          "type": "uint256"
        }
      ],
      "name": "transferVerify",
      "outputs": [],
      "payable": false,
      "stateMutability": "nonpayable",
      "type": "function"
    }
  ],
  "bytecode": "0x608060405234801561001057600080fd5b50600080546001600160a01b03191633179055615c1c80620000336000396000f3fe608060405234801561001057600080fd5b50600436106104275760003560e01c8063747026c91161022b578063bdcdc25811610130578063dce15449116100b8578063e875544611610087578063e875544614611311578063e9af029214611319578063eabe7d911461133f578063ede4edd014611375578063f851a4401461139b57610427565b8063dce15449146112a9578063dcfbc0c7146112d5578063e4028eee146112dd578063e6653f3d1461130957610427565b8063cc7ebdc4116100ff578063cc7ebdc414611149578063ce485c5e1461116f578063d02f735114611210578063d9226ced14611256578063da3d454c1461127357610427565b8063bdcdc25814610fef578063c29982381461102b578063c488847b146110cc578063ca0af0431461111b57610427565b80639d1b5a0a116101b3578063abfceffc11610182578063abfceffc14610f33578063ac0b0bb714610fa9578063b0772d0b14610fb1578063b21be7fd14610fb9578063bb82aa5e14610fe757610427565b80639d1b5a0a14610ed9578063a76b3fda14610ee1578063a7f0e23114610f07578063aa90075414610f2b57610427565b80638e8f294b116101fa5780638e8f294b14610d045780638ebf636414610d4c578063929fe9a114610d6b57806394b2294b14610d99578063992c529414610da157610427565b8063747026c914610cc65780637dc0d1d014610cce57806387f7630314610cd65780638c57804e14610cde57610427565b80634d8e5037116103315780635f5af1aa116102b95780636a56947e116102885780636a56947e14610baa5780636b79c38d14610be65780636d154ea514610c345780636d35bf9114610c5a578063731f0c2b14610ca057610427565b80635f5af1aa146109f55780635fc7e71e14610a1b5780636810dfa614610a615780636a49111214610b8d57610427565b806351dff9891161030057806351dff9891461091a57806352d84d1e1461095657806355ee1fe1146109735780635c778605146109995780635ec88c79146109cf57610427565b80634d8e5037146108655780634e79238f1461086d5780634ef4c3e1146108c75780634fd42e17146108fd57610427565b80632d70db78116103b45780633c94786f116103835780633c94786f146107c557806341c728b9146107cd57806342cbb15c1461080957806347ef3b3b146108115780634ada90af1461085d57610427565b80632d70db7814610735578063317b0b77146107545780633aa729b4146107715780633bcf7ec11461079757610427565b80631ededc91116103fb5780631ededc91146105615780632327c7df146105a357806324008a62146106cd57806324a3d62214610709578063267822471461072d57610427565b80627e3dd21461042c57806318c882a5146104485780631c3db2e0146104765780631d7b33d714610529575b600080fd5b6104346113a3565b604080519115158252519081900360200190f35b6104346004803603604081101561045e57600080fd5b506001600160a01b03813516906020013515156113a8565b6105276004803603604081101561048c57600080fd5b6001600160a01b038235169190810190604081016020820135600160201b8111156104b657600080fd5b8201836020820111156104c857600080fd5b803590602001918460208302840111600160201b831117156104e957600080fd5b91908080602002602001604051908101604052809392919081815260200183836020028082843760009201919091525092955061152d945050505050565b005b61054f6004803603602081101561053f57600080fd5b50356001600160a01b031661158f565b60408051918252519081900360200190f35b610527600480360360a081101561057757600080fd5b506001600160a01b038135811691602081013582169160408201351690606081013590608001356115a1565b610527600480360360608110156105b957600080fd5b81359190810190604081016020820135600160201b8111156105da57600080fd5b8201836020820111156105ec57600080fd5b803590602001918460208302840111600160201b8311171561060d57600080fd5b9190808060200260200160405190810160405280939291908181526020018383602002808284376000920191909152509295949360208101935035915050600160201b81111561065c57600080fd5b82018360208201111561066e57600080fd5b803590602001918460208302840111600160201b8311171561068f57600080fd5b9190808060200260200160405190810160405280939291908181526020018383602002808284376000920191909152509295506115a8945050505050565b61054f600480360360808110156106e357600080fd5b506001600160a01b0381358116916020810135821691604082013516906060013561166e565b610711611737565b604080516001600160a01b039092168252519081900360200190f35b610711611746565b6104346004803603602081101561074b57600080fd5b50351515611755565b61054f6004803603602081101561076a57600080fd5b5035611878565b6105276004803603602081101561078757600080fd5b50356001600160a01b0316611989565b610434600480360360408110156107ad57600080fd5b506001600160a01b0381351690602001351515611a86565b610434611c06565b610527600480360360808110156107e357600080fd5b506001600160a01b03813581169160208101359091169060408101359060600135611c16565b61054f611c1c565b610527600480360360c081101561082757600080fd5b506001600160a01b0381358116916020810135821691604082013581169160608101359091169060808101359060a00135611c21565b61054f611c29565b610527611c2f565b6108a96004803603608081101561088357600080fd5b506001600160a01b03813581169160208101359091169060408101359060600135612081565b60408051938452602084019290925282820152519081900360600190f35b61054f600480360360608110156108dd57600080fd5b506001600160a01b038135811691602081013590911690604001356120bb565b61054f6004803603602081101561091357600080fd5b503561215a565b6105276004803603608081101561093057600080fd5b506001600160a01b0381358116916020810135909116906040810135906060013561224e565b6107116004803603602081101561096c57600080fd5b5035612293565b61054f6004803603602081101561098957600080fd5b50356001600160a01b03166122ba565b610527600480360360608110156109af57600080fd5b506001600160a01b03813581169160208101359091169060400135612341565b6108a9600480360360208110156109e557600080fd5b50356001600160a01b0316612346565b61054f60048036036020811015610a0b57600080fd5b50356001600160a01b031661237b565b61054f600480360360a0811015610a3157600080fd5b506001600160a01b03813581169160208101358216916040820135811691606081013590911690608001356123ff565b61052760048036036080811015610a7757600080fd5b810190602081018135600160201b811115610a9157600080fd5b820183602082011115610aa357600080fd5b803590602001918460208302840111600160201b83111715610ac457600080fd5b9190808060200260200160405190810160405280939291908181526020018383602002808284376000920191909152509295949360208101935035915050600160201b811115610b1357600080fd5b820183602082011115610b2557600080fd5b803590602001918460208302840111600160201b83111715610b4657600080fd5b919080806020026020016040519081016040528093929190818152602001838360200280828437600092019190915250929550505050803515159150602001351515612586565b61052760048036036020811015610ba357600080fd5b503561272f565b61052760048036036080811015610bc057600080fd5b506001600160a01b03813581169160208101358216916040820135169060600135611c16565b610c0c60048036036020811015610bfc57600080fd5b50356001600160a01b03166127b9565b604080516001600160e01b03909316835263ffffffff90911660208301528051918290030190f35b61043460048036036020811015610c4a57600080fd5b50356001600160a01b03166127e3565b610527600480360360a0811015610c7057600080fd5b506001600160a01b03813581169160208101358216916040820135811691606081013590911690608001356115a1565b61043460048036036020811015610cb657600080fd5b50356001600160a01b03166127f8565b61054f61280d565b610711612818565b610434612827565b610c0c60048036036020811015610cf457600080fd5b50356001600160a01b0316612837565b610d2a60048036036020811015610d1a57600080fd5b50356001600160a01b0316612861565b6040805193151584526020840192909252151582820152519081900360600190f35b61043460048036036020811015610d6257600080fd5b50351515612887565b61043460048036036040811015610d8157600080fd5b506001600160a01b03813581169160200135166129a9565b61054f6129dc565b61052760048036036080811015610db757600080fd5b6001600160a01b0382351691602081013591810190606081016040820135600160201b811115610de657600080fd5b820183602082011115610df857600080fd5b803590602001918460208302840111600160201b83111715610e1957600080fd5b9190808060200260200160405190810160405280939291908181526020018383602002808284376000920191909152509295949360208101935035915050600160201b811115610e6857600080fd5b820183602082011115610e7a57600080fd5b803590602001918460208302840111600160201b83111715610e9b57600080fd5b9190808060200260200160405190810160405280939291908181526020018383602002808284376000920191909152509295506129e2945050505050565b610711612c18565b61054f60048036036020811015610ef757600080fd5b50356001600160a01b0316612c30565b610f0f612d8d565b604080516001600160e01b039092168252519081900360200190f35b61054f612da0565b610f5960048036036020811015610f4957600080fd5b50356001600160a01b0316612da6565b60408051602080825283518183015283519192839290830191858101910280838360005b83811015610f95578181015183820152602001610f7d565b505050509050019250505060405180910390f35b610434612e2f565b610f59612e3f565b61054f60048036036040811015610fcf57600080fd5b506001600160a01b0381358116916020013516612ea1565b610711612ebe565b61054f6004803603608081101561100557600080fd5b506001600160a01b03813581169160208101358216916040820135169060600135612ecd565b610f596004803603602081101561104157600080fd5b810190602081018135600160201b81111561105b57600080fd5b82018360208201111561106d57600080fd5b803590602001918460208302840111600160201b8311171561108e57600080fd5b919080806020026020016040519081016040528093929190818152602001838360200280828437600092019190915250929550612f51945050505050565b611102600480360360608110156110e257600080fd5b506001600160a01b03813581169160208101359091169060400135612fe8565b6040805192835260208301919091528051918290030190f35b61054f6004803603604081101561113157600080fd5b506001600160a01b038135811691602001351661325d565b61054f6004803603602081101561115f57600080fd5b50356001600160a01b031661327a565b6105276004803603602081101561118557600080fd5b810190602081018135600160201b81111561119f57600080fd5b8201836020820111156111b157600080fd5b803590602001918460208302840111600160201b831117156111d257600080fd5b91908080602002602001604051908101604052809392919081815260200183836020028082843760009201919091525092955061328c945050505050565b61054f600480360360a081101561122657600080fd5b506001600160a01b0381358116916020810135821691604082013581169160608101359091169060800135613307565b61054f6004803603602081101561126c57600080fd5b50356134b2565b61054f6004803603606081101561128957600080fd5b506001600160a01b0381358116916020810135909116906040013561351b565b610711600480360360408110156112bf57600080fd5b506001600160a01b0381351690602001356137e7565b61071161381c565b61054f600480360360408110156112f357600080fd5b506001600160a01b03813516906020013561382b565b6104346139db565b61054f6139eb565b6105276004803603602081101561132f57600080fd5b50356001600160a01b03166139f1565b61054f6004803603606081101561135557600080fd5b506001600160a01b03813581169160208101359091169060400135613a55565b61054f6004803603602081101561138b57600080fd5b50356001600160a01b0316613a92565b610711613da0565b600181565b6001600160a01b03821660009081526009602052604081205460ff166113fb576040805162461bcd60e51b815260206004820152600360248201526210cc4d60ea1b604482015290519081900360640190fd5b600a546001600160a01b031633148061141e57506000546001600160a01b031633145b611455576040805162461bcd60e51b815260206004820152600360248201526243313560e81b604482015290519081900360640190fd5b6000546001600160a01b031633148061147057506001821515145b6114a7576040805162461bcd60e51b815260206004820152600360248201526221989b60e91b604482015290519081900360640190fd5b6001600160a01b0383166000818152600c6020908152604091829020805486151560ff199091168117909155825193845283830152606090830181905260069083015265426f72726f7760d01b6080830152517f71aec636243f9709bb0007ae15e9afb8150ab01716d75fd7573be5cc096e03b09181900360a00190a150805b92915050565b60408051600180825281830190925260609160208083019080388339019050509050828160008151811061155d57fe5b60200260200101906001600160a01b031690816001600160a01b03168152505061158a8183600180612586565b505050565b600f6020526000908152604090205481565b5050505050565b6002546001600160a01b03163314611607576040805162461bcd60e51b815260206004820152601d60248201527f6f6e6c7920627261696e732063616e206265636f6d6520697473656c66000000604482015290519081900360640190fd5b60005b82518110156116375761162f83828151811061162257fe5b6020026020010151613daf565b60010161160a565b5060005b815181101561165b5761165382828151811061162257fe5b60010161163b565b506116658361272f565b61158a8261328c565b6001600160a01b03841660009081526009602052604081205460ff166116965750600961172f565b61169e615b28565b6040518060200160405280876001600160a01b031663aa5af0fd6040518163ffffffff1660e01b815260040160206040518083038186803b1580156116e257600080fd5b505afa1580156116f6573d6000803e3d6000fd5b505050506040513d602081101561170c57600080fd5b50519052905061171c8682613e7c565b61172986858360006140da565b60009150505b949350505050565b600a546001600160a01b031681565b6001546001600160a01b031681565b600a546000906001600160a01b031633148061177b57506000546001600160a01b031633145b6117b2576040805162461bcd60e51b815260206004820152600360248201526243313560e81b604482015290519081900360640190fd5b6000546001600160a01b03163314806117cd57506001821515145b611804576040805162461bcd60e51b815260206004820152600360248201526221989b60e91b604482015290519081900360640190fd5b600a8054831515600160b81b810260ff60b81b1990921691909117909155604080516020810192909252808252600582820152645365697a6560d81b6060830152517fef159d9a32b2472e32b098f954f3ce62d232939f1c207070b584df1814de2de09181900360800190a150805b919050565b600080546001600160a01b0316331461189e57611897600160046142c5565b9050611873565b6118a6615b28565b5060408051602081019091528281526118bd615b28565b50604080516020810190915266b1a2bc2ec5000081526118dd828261432b565b156118f6576118ed6005806142c5565b92505050611873565b6118fe615b28565b506040805160208101909152670c7d713b49da0000815261191f8184614333565b156119395761192f6005806142c5565b9350505050611873565b6005805490869055604080518281526020810188905281517f3b9670cf975d26958e754b57098eaa2ac914d8d2a31b83257997b9f346110fd9929181900390910190a160005b9695505050505050565b6000546001600160a01b031633146119ce576040805162461bcd60e51b815260206004820152600360248201526210cc8d60ea1b604482015290519081900360640190fd5b6001600160a01b0381166000908152600960205260409020600381015460ff161515600114611a2a576040805162461bcd60e51b815260206004820152600360248201526243323560e81b604482015290519081900360640190fd5b60038101805460ff19169055604080516001600160a01b03841681526000602082015281517f93c1f3e36ed71139f466a4ce8c9751790e2e33f5afb2df0dcfb3aeabe55d5aa2929181900390910190a1611a82611c2f565b5050565b6001600160a01b03821660009081526009602052604081205460ff16611ad9576040805162461bcd60e51b815260206004820152600360248201526210cc4d60ea1b604482015290519081900360640190fd5b600a546001600160a01b0316331480611afc57506000546001600160a01b031633145b611b33576040805162461bcd60e51b815260206004820152600360248201526243313560e81b604482015290519081900360640190fd5b6000546001600160a01b0316331480611b4e57506001821515145b611b85576040805162461bcd60e51b815260206004820152600360248201526221989b60e91b604482015290519081900360640190fd5b6001600160a01b0383166000818152600b6020908152604091829020805486151560ff199091168117909155825193845283830152606090830181905260049083015263135a5b9d60e21b6080830152517f71aec636243f9709bb0007ae15e9afb8150ab01716d75fd7573be5cc096e03b09181900360a00190a150919050565b600a54600160a01b900460ff1681565b50505050565b435b90565b505050505050565b60065481565b6060600d805480602002602001604051908101604052809291908181526020018280548015611c8757602002820191906000526020600020905b81546001600160a01b03168152600190910190602001808311611c69575b50939450600093505050505b8151811015611d4d576000828281518110611caa57fe5b60200260200101519050611cbc615b28565b6040518060200160405280836001600160a01b031663aa5af0fd6040518163ffffffff1660e01b815260040160206040518083038186803b158015611d0057600080fd5b505afa158015611d14573d6000803e3d6000fd5b505050506040513d6020811015611d2a57600080fd5b505190529050611d398261433a565b611d438282613e7c565b5050600101611c93565b50611d56615b28565b60405180602001604052806000815250905060608251604051908082528060200260200182016040528015611da557816020015b611d92615b28565b815260200190600190039081611d8a5790505b50905060005b8351811015611fb8576000848281518110611dc257fe5b6020908102919091018101516001600160a01b0381166000908152600990925260409091206003015490915060ff1615611faf57611dfe615b28565b60408051602080820180845260045463fc57d4df60e01b9091526001600160a01b03868116602485015293519293849391169163fc57d4df916044808601929190818703018186803b158015611e5357600080fd5b505afa158015611e67573d6000803e3d6000fd5b505050506040513d6020811015611e7d57600080fd5b505190529050611e8b615b28565b611f716040518060200160405280856001600160a01b031663f8f9da286040518163ffffffff1660e01b815260040160206040518083038186803b158015611ed257600080fd5b505afa158015611ee6573d6000803e3d6000fd5b505050506040513d6020811015611efc57600080fd5b50519052604080516308f7a6e360e31b815290516001600160a01b038716916347bd3718916004808301926020929190829003018186803b158015611f4057600080fd5b505afa158015611f54573d6000803e3d6000fd5b505050506040513d6020811015611f6a57600080fd5b505161458e565b9050611f7b615b28565b611f8582846145b8565b905080868681518110611f9457fe5b6020026020010181905250611fa987826145f7565b96505050505b50600101611dab565b5060005b8351811015611c16576000600d8281548110611fd457fe5b600091825260208220015485516001600160a01b039091169250611ff9576000612021565b612021600e5461201c86868151811061200e57fe5b60200260200101518861461c565b61464f565b6001600160a01b0383166000818152600f60209081526040918290208490558151848152915193945091927f2ab93f65628379309f36cb125e90d7c902454a545c4f8b8cb0794af75c24b807929181900390910190a25050600101611fbc565b6000806000806000806120968a8a8a8a614677565b9250925092508260118111156120a857fe5b95509093509150505b9450945094915050565b6001600160a01b0383166000908152600b602052604081205460ff161561210e576040805162461bcd60e51b8152602060048201526002602482015261219960f11b604482015290519081900360640190fd5b6001600160a01b03841660009081526009602052604090205460ff166121385760095b9050612153565b6121418461433a565b61214d84846000614a92565b60005b90505b9392505050565b600080546001600160a01b03163314612179576118976001600b6142c5565b612181615b28565b506040805160208101909152828152612198615b28565b506040805160208101909152670de0b6b3a764000081526121b98282614333565b156121ca576118ed6007600c6142c5565b6121d2615b28565b5060408051602081019091526714d1120d7b16000081526121f38184614333565b156122045761192f6007600c6142c5565b6006805490869055604080518281526020810188905281517faeba5a6c40a8ac138134bff1aaa65debf25971188a58804bad717f82f0ec1316929181900390910190a1600061197f565b8015801561225c5750600082115b15611c16576040805162461bcd60e51b8152602060048201526002602482015261433360f01b604482015290519081900360640190fd5b600d81815481106122a057fe5b6000918252602090912001546001600160a01b0316905081565b600080546001600160a01b031633146122d957611897600160106142c5565b600480546001600160a01b038481166001600160a01b0319831681179093556040805191909216808252602082019390935281517fd52b2b9b7e9ee655fcb95d2e5b9e0c9f69e7ef2b8e9d2d0ea78402d576d22e22929181900390910190a160009392505050565b61158a565b60008060008060008061235d876000806000614677565b92509250925082601181111561236f57fe5b97919650945092505050565b600080546001600160a01b0316331461239a57611897600160136142c5565b600a80546001600160a01b038481166001600160a01b0319831617928390556040805192821680845293909116602083015280517f0613b6ee6a04f0d09f390e4d9318894b9f6ac7fd83897cd8d18896ba579c401e9281900390910190a16000612153565b6001600160a01b03851660009081526009602052604081205460ff16158061244057506001600160a01b03851660009081526009602052604090205460ff16155b1561244f5760095b905061257d565b60008061245b85614c8a565b9193509091506000905082601181111561247157fe5b1461248b5781601181111561248257fe5b9250505061257d565b80612497576003612482565b6000886001600160a01b03166395dd9193876040518263ffffffff1660e01b815260040180826001600160a01b03166001600160a01b0316815260200191505060206040518083038186803b1580156124ef57600080fd5b505afa158015612503573d6000803e3d6000fd5b505050506040513d602081101561251957600080fd5b505160408051602081019091526005548152909150600090819061253d9084614caa565b9092509050600082600381111561255057fe5b1461256457600b5b9550505050505061257d565b80871115612573576011612558565b6000955050505050505b95945050505050565b60005b83518110156115a15760008482815181106125a057fe5b6020908102919091018101516001600160a01b0381166000908152600990925260409091205490915060ff16612615576040805162461bcd60e51b81526020600482015260156024820152741b585c9ad95d081b5d5cdd081899481b1a5cdd1959605a1b604482015290519081900360640190fd5b600184151514156126dd57612628615b28565b6040518060200160405280836001600160a01b031663aa5af0fd6040518163ffffffff1660e01b815260040160206040518083038186803b15801561266c57600080fd5b505afa158015612680573d6000803e3d6000fd5b505050506040513d602081101561269657600080fd5b5051905290506126a68282613e7c565b60005b87518110156126da576126d2838983815181106126c257fe5b60200260200101518460016140da565b6001016126a9565b50505b60018315151415612726576126f18161433a565b60005b86518110156127245761271c8288838151811061270d57fe5b60200260200101516001614a92565b6001016126f4565b505b50600101612589565b612737614cfe565b61276e576040805162461bcd60e51b815260206004820152600360248201526221991960e91b604482015290519081900360640190fd5b600e805490829055604080518281526020810184905281517fc227c9272633c3a307d9845bf2bc2509cefb20d655b5f3c1002d8e1e3f22c8b0929181900390910190a1611a82611c2f565b6010602052600090815260409020546001600160e01b03811690600160e01b900463ffffffff1682565b600c6020526000908152604090205460ff1681565b600b6020526000908152604090205460ff1681565b66038d7ea4c6800081565b6004546001600160a01b031681565b600a54600160b01b900460ff1681565b6011602052600090815260409020546001600160e01b03811690600160e01b900463ffffffff1682565b60096020526000908152604090208054600182015460039092015460ff91821692911683565b600a546000906001600160a01b03163314806128ad57506000546001600160a01b031633145b6128e4576040805162461bcd60e51b815260206004820152600360248201526243313560e81b604482015290519081900360640190fd5b6000546001600160a01b03163314806128ff57506001821515145b612936576040805162461bcd60e51b815260206004820152600360248201526221989b60e91b604482015290519081900360640190fd5b600a8054831515600160b01b810260ff60b01b1990921691909117909155604080516020810192909252808252600882820152672a3930b739b332b960c11b6060830152517fef159d9a32b2472e32b098f954f3ce62d232939f1c207070b584df1814de2de09181900360800190a15090565b6001600160a01b038082166000908152600960209081526040808320938616835260029093019052205460ff1692915050565b60075481565b836001600160a01b031663f851a4406040518163ffffffff1660e01b815260040160206040518083038186803b158015612a1b57600080fd5b505afa158015612a2f573d6000803e3d6000fd5b505050506040513d6020811015612a4557600080fd5b50516001600160a01b03163314612a89576040805162461bcd60e51b815260206004820152600360248201526243313760e81b604482015290519081900360640190fd5b836001600160a01b031663c1e803346040518163ffffffff1660e01b8152600401602060405180830381600087803b158015612ac457600080fd5b505af1158015612ad8573d6000803e3d6000fd5b505050506040513d6020811015612aee57600080fd5b505115612b28576040805162461bcd60e51b815260206004820152600360248201526208662760eb1b604482015290519081900360640190fd5b836001600160a01b0316632327c7df8484846040518463ffffffff1660e01b8152600401808481526020018060200180602001838103835285818151815260200191508051906020019060200280838360005b83811015612b93578181015183820152602001612b7b565b50505050905001838103825284818151815260200191508051906020019060200280838360005b83811015612bd2578181015183820152602001612bba565b5050505090500195505050505050600060405180830381600087803b158015612bfa57600080fd5b505af1158015612c0e573d6000803e3d6000fd5b5050505050505050565b73c00e94cb662c3520282e6f5717214004a7f2688890565b600080546001600160a01b03163314612c4f57611897600160126142c5565b6001600160a01b03821660009081526009602052604090205460ff1615612c7c57611897600a60116142c5565b816001600160a01b031663fe9c44ae6040518163ffffffff1660e01b815260040160206040518083038186803b158015612cb557600080fd5b505afa158015612cc9573d6000803e3d6000fd5b505050506040513d6020811015612cdf57600080fd5b5050604080516060810182526001808252600060208381018281528486018381526001600160a01b03891684526009909252949091209251835490151560ff19918216178455935191830191909155516003909101805491151591909216179055612d4982613daf565b604080516001600160a01b038416815290517fcf583bb0c569eb967f806b11601c4cb93c10310485c67add5f8362c2f212321f9181900360200190a1600092915050565b6ec097ce7bc90715b34b9f100000000081565b600e5481565b60608060086000846001600160a01b03166001600160a01b03168152602001908152602001600020805480602002602001604051908101604052809291908181526020018280548015612e2257602002820191906000526020600020905b81546001600160a01b03168152600190910190602001808311612e04575b5093979650505050505050565b600a54600160b81b900460ff1681565b6060600d805480602002602001604051908101604052809291908181526020018280548015612e9757602002820191906000526020600020905b81546001600160a01b03168152600190910190602001808311612e79575b5050505050905090565b601260209081526000928352604080842090915290825290205481565b6002546001600160a01b031681565b600a54600090600160b01b900460ff1615612f14576040805162461bcd60e51b8152602060048201526002602482015261433960f01b604482015290519081900360640190fd5b6000612f21868685614d27565b90508015612f3057905061172f565b612f398661433a565b612f4586866000614a92565b61172986856000614a92565b6060600082519050606081604051908082528060200260200182016040528015612f85578160200160208202803883390190505b50905060005b82811015612fe0576000858281518110612fa157fe5b60200260200101519050612fb58133614dca565b6011811115612fc057fe5b838381518110612fcc57fe5b602090810291909101015250600101612f8b565b509392505050565b600480546040805163fc57d4df60e01b81526001600160a01b038781169482019490945290516000938493849391169163fc57d4df91602480820192602092909190829003018186803b15801561303e57600080fd5b505afa158015613052573d6000803e3d6000fd5b505050506040513d602081101561306857600080fd5b5051600480546040805163fc57d4df60e01b81526001600160a01b038a8116948201949094529051939450600093929091169163fc57d4df91602480820192602092909190829003018186803b1580156130c157600080fd5b505afa1580156130d5573d6000803e3d6000fd5b505050506040513d60208110156130eb57600080fd5b505190508115806130fa575080155b1561310f57600d935060009250613255915050565b6000866001600160a01b031663182df0f56040518163ffffffff1660e01b815260040160206040518083038186803b15801561314a57600080fd5b505afa15801561315e573d6000803e3d6000fd5b505050506040513d602081101561317457600080fd5b505190506000613182615b28565b61318a615b28565b613192615b28565b60006131a060065489614eeb565b9450905060008160038111156131b257fe5b146131ce57600b5b995060009850613255975050505050505050565b6131d88787614eeb565b9350905060008160038111156131ea57fe5b146131f657600b6131ba565b6132008484614f26565b92509050600081600381111561321257fe5b1461321e57600b6131ba565b613228828c614caa565b95509050600081600381111561323a57fe5b1461324657600b6131ba565b60009950939750505050505050505b935093915050565b601360209081526000928352604080842090915290825290205481565b60146020526000908152604090205481565b613294614cfe565b6132cb576040805162461bcd60e51b815260206004820152600360248201526243323360e81b604482015290519081900360640190fd5b60005b81518110156132fb576132f38282815181106132e657fe5b6020026020010151614f3e565b6001016132ce565b50613304611c2f565b50565b600a54600090600160b81b900460ff161561334e576040805162461bcd60e51b8152602060048201526002602482015261086760f31b604482015290519081900360640190fd5b6001600160a01b03861660009081526009602052604090205460ff16158061338f57506001600160a01b03851660009081526009602052604090205460ff16155b1561339b576009612448565b846001600160a01b0316635fe3b5676040518163ffffffff1660e01b815260040160206040518083038186803b1580156133d457600080fd5b505afa1580156133e8573d6000803e3d6000fd5b505050506040513d60208110156133fe57600080fd5b505160408051635fe3b56760e01b815290516001600160a01b0392831692891691635fe3b567916004808301926020929190829003018186803b15801561344457600080fd5b505afa158015613458573d6000803e3d6000fd5b505050506040513d602081101561346e57600080fd5b50516001600160a01b031614613485576002612448565b61348e8661433a565b61349a86846000614a92565b6134a686856000614a92565b60009695505050505050565b600080546001600160a01b031633146134d1576118976001600d6142c5565b6007805490839055604080518281526020810185905281517f7093cf1eb653f749c3ff531d6df7f92764536a7fa0d13530cd26e070780c32ea929181900390910190a16000612153565b6001600160a01b0383166000908152600c602052604081205460ff161561356e576040805162461bcd60e51b815260206004820152600260248201526110cd60f21b604482015290519081900360640190fd5b6001600160a01b03841660009081526009602052604090205460ff16613595576009612131565b6001600160a01b038085166000908152600960209081526040808320938716835260029093019052205460ff1661367257336001600160a01b03851614613608576040805162461bcd60e51b8152602060048201526002602482015261433560f01b604482015290519081900360640190fd5b60006136143385614dca565b9050600081601181111561362457fe5b1461363d5780601181111561363557fe5b915050612153565b6001600160a01b038086166000908152600960209081526040808320938816835260029093019052205460ff1661367057fe5b505b600480546040805163fc57d4df60e01b81526001600160a01b03888116948201949094529051929091169163fc57d4df91602480820192602092909190829003018186803b1580156136c357600080fd5b505afa1580156136d7573d6000803e3d6000fd5b505050506040513d60208110156136ed57600080fd5b50516136fa57600d612131565b60008061370a8587600087614677565b9193509091506000905082601181111561372057fe5b1461373a5781601181111561373157fe5b92505050612153565b8015613747576004613731565b61374f615b28565b6040518060200160405280886001600160a01b031663aa5af0fd6040518163ffffffff1660e01b815260040160206040518083038186803b15801561379357600080fd5b505afa1580156137a7573d6000803e3d6000fd5b505050506040513d60208110156137bd57600080fd5b5051905290506137cd8782613e7c565b6137da87878360006140da565b6000979650505050505050565b6008602052816000526040600020818154811061380057fe5b6000918252602090912001546001600160a01b03169150829050565b6003546001600160a01b031681565b600080546001600160a01b031633146138515761384a600160066142c5565b9050611527565b6001600160a01b0383166000908152600960205260409020805460ff166138865761387e600960076142c5565b915050611527565b61388e615b28565b5060408051602081019091528381526138a5615b28565b506040805160208101909152670c7d713b49da000081526138c68183614333565b156138e1576138d7600660086142c5565b9350505050611527565b841580159061396a5750600480546040805163fc57d4df60e01b81526001600160a01b038a8116948201949094529051929091169163fc57d4df91602480820192602092909190829003018186803b15801561393c57600080fd5b505afa158015613950573d6000803e3d6000fd5b505050506040513d602081101561396657600080fd5b5051155b1561397b576138d7600d60096142c5565b60018301805490869055604080516001600160a01b03891681526020810183905280820188905290517f70483e6592cd5182d45ac970e05bc62cdcc90e9d8ef2c2dbe686cf383bcd7fc59181900360600190a16000979650505050505050565b600a54600160a81b900460ff1681565b60055481565b61330481600d805480602002602001604051908101604052809291908181526020018280548015613a4b57602002820191906000526020600020905b81546001600160a01b03168152600190910190602001808311613a2d575b505050505061152d565b600080613a63858585614d27565b90508015613a72579050612153565b613a7b8561433a565b613a8785856000614a92565b600095945050505050565b6000808290506000806000836001600160a01b031663c37f68e2336040518263ffffffff1660e01b815260040180826001600160a01b03166001600160a01b0316815260200191505060806040518083038186803b158015613af357600080fd5b505afa158015613b07573d6000803e3d6000fd5b505050506040513d6080811015613b1d57600080fd5b508051602082015160409092015190945090925090508215613b6b576040805162461bcd60e51b8152602060048201526002602482015261433160f01b604482015290519081900360640190fd5b8015613b8857613b7d600c60026142c5565b945050505050611873565b6000613b95873385614d27565b90508015613bb657613baa600e60038361523c565b95505050505050611873565b6001600160a01b0385166000908152600960209081526040808320338452600281019092529091205460ff16613bf55760009650505050505050611873565b3360009081526002820160209081526040808320805460ff191690556008825291829020805483518184028101840190945280845260609392830182828015613c6757602002820191906000526020600020905b81546001600160a01b03168152600190910190602001808311613c49575b5050835193945083925060009150505b82811015613cbc57896001600160a01b0316848281518110613c9557fe5b60200260200101516001600160a01b03161415613cb457809150613cbc565b600101613c77565b50818110613cc657fe5b336000908152600860205260409020805481906000198101908110613ce757fe5b9060005260206000200160009054906101000a90046001600160a01b0316818381548110613d1157fe5b600091825260209091200180546001600160a01b0319166001600160a01b03929092169190911790558054613d4a826000198301615b3b565b50604080516001600160a01b038c16815233602082015281517fe699a64c18b07ac5b7301aa273f36a2287239eb9501d81950672794afba29a0d929181900390910190a160009c9b505050505050505050505050565b6000546001600160a01b031681565b60005b600d54811015613e2957816001600160a01b0316600d8281548110613dd357fe5b6000918252602090912001546001600160a01b03161415613e21576040805162461bcd60e51b815260206004820152600360248201526204331360ec1b604482015290519081900360640190fd5b600101613db2565b50600d80546001810182556000919091527fd7b6990105719101dabeb77144f2a3385c8033acd3af97e9423a695e81ad1eb50180546001600160a01b0319166001600160a01b0392909216919091179055565b6001600160a01b0382166000908152601160209081526040808320600f9092528220549091613ea9611c1c565b8354909150600090613ec9908390600160e01b900463ffffffff166152a2565b9050600081118015613edb5750600083115b15614088576000613f50876001600160a01b03166347bd37186040518163ffffffff1660e01b815260040160206040518083038186803b158015613f1e57600080fd5b505afa158015613f32573d6000803e3d6000fd5b505050506040513d6020811015613f4857600080fd5b5051876152dc565b90506000613f5e83866152fa565b9050613f68615b28565b60008311613f855760405180602001604052806000815250613f8f565b613f8f828461533c565b9050613f99615b28565b604080516020810190915288546001600160e01b03168152613fbb90836145f7565b90506040518060400160405280613ff183600001516040518060400160405280600381526020016204332360ec1b815250615371565b6001600160e01b03168152602001614024886040518060400160405280600381526020016243323160e81b81525061540b565b63ffffffff9081169091526001600160a01b038c166000908152601160209081526040909120835181549490920151909216600160e01b026001600160e01b039182166001600160e01b0319909416939093171691909117905550611c2192505050565b8015611c21576140b3826040518060400160405280600381526020016243323160e81b81525061540b565b845463ffffffff91909116600160e01b026001600160e01b03909116178455505050505050565b6001600160a01b03841660009081526011602052604090206140fa615b28565b50604080516020810190915281546001600160e01b0316815261411b615b28565b5060408051602080820183526001600160a01b03808a16600090815260138352848120918a16808252828452948120805485528651959091529152919091558051156142bc57614169615b28565b6141738383615460565b90506000614202896001600160a01b03166395dd91938a6040518263ffffffff1660e01b815260040180826001600160a01b03166001600160a01b0316815260200191505060206040518083038186803b1580156141d057600080fd5b505afa1580156141e4573d6000803e3d6000fd5b505050506040513d60208110156141fa57600080fd5b5051886152dc565b905060006142108284615485565b6001600160a01b038a166000908152601460205260408120549192509061423790836154a5565b90506142588a828a6142505766038d7ea4c68000614253565b60005b6154db565b6001600160a01b03808c1660008181526014602090815260409182902094909455895181518781529485015280519193928f16927f1fc3ecc087d8d2d15e23d0032af5a47059c3892d003d8e139fdcb6bb327c99a6929081900390910190a3505050505b50505050505050565b60007f45b96fe442630264581b197e84bbada861235052c5a1aadfff9ea4e40a969aa08360118111156142f457fe5b83601381111561430057fe5b604080519283526020830191909152600082820152519081900360600190a182601181111561215357fe5b519051111590565b5190511090565b6001600160a01b0381166000908152601060209081526040808320600f9092528220549091614367611c1c565b8354909150600090614387908390600160e01b900463ffffffff166152a2565b90506000811180156143995750600083115b1561453d576000856001600160a01b03166318160ddd6040518163ffffffff1660e01b815260040160206040518083038186803b1580156143d957600080fd5b505afa1580156143ed573d6000803e3d6000fd5b505050506040513d602081101561440357600080fd5b50519050600061441383866152fa565b905061441d615b28565b6000831161443a5760405180602001604052806000815250614444565b614444828461533c565b905061444e615b28565b604080516020810190915288546001600160e01b0316815261447090836145f7565b905060405180604001604052806144a683600001516040518060400160405280600381526020016204332360ec1b815250615371565b6001600160e01b031681526020016144d9886040518060400160405280600381526020016243323160e81b81525061540b565b63ffffffff9081169091526001600160a01b038b166000908152601060209081526040909120835181549490920151909216600160e01b026001600160e01b039182166001600160e01b03199094169390931716919091179055506115a192505050565b80156115a157614568826040518060400160405280600381526020016243323160e81b81525061540b565b845463ffffffff91909116600160e01b026001600160e01b039091161784555050505050565b614596615b28565b60405180602001604052806145af8560000151856152fa565b90529392505050565b6145c0615b28565b6040518060200160405280670de0b6b3a76400006145e6866000015186600001516152fa565b816145ed57fe5b0490529392505050565b6145ff615b28565b60405180602001604052806145af856000015185600001516154a5565b614624615b28565b60405180602001604052806145af6146488660000151670de0b6b3a76400006152fa565b8551615620565b6000670de0b6b3a76400006146688484600001516152fa565b8161466f57fe5b049392505050565b6000806000614684615b5f565b6001600160a01b0388166000908152600860209081526040808320805482518185028101850190935280835284936060939291908301828280156146f157602002820191906000526020600020905b81546001600160a01b031681526001909101906020018083116146d3575b50939450600093505050505b8151811015614a4d57600082828151811061471457fe5b60200260200101519050806001600160a01b031663c37f68e28e6040518263ffffffff1660e01b815260040180826001600160a01b03166001600160a01b0316815260200191505060806040518083038186803b15801561477457600080fd5b505afa158015614788573d6000803e3d6000fd5b505050506040513d608081101561479e57600080fd5b508051602082015160408084015160609485015160808c0152938a019390935291880191909152945084156147e45750600f9750600096508695506120b1945050505050565b60408051602080820183526001600160a01b0380851660008181526009845285902060010154845260c08b01939093528351808301855260808b0151815260e08b015260048054855163fc57d4df60e01b815291820194909452935192169263fc57d4df9260248083019392829003018186803b15801561486457600080fd5b505afa158015614878573d6000803e3d6000fd5b505050506040513d602081101561488e57600080fd5b505160a087018190526148b25750600d9750600096508695506120b1945050505050565b604080516020810190915260a08701518152610100870181905260c087015160e08801516148df92615653565b610120880152935060008460038111156148f557fe5b146149115750600b9750600096508695506120b1945050505050565b614929866101200151876040015188600001516156ab565b87529350600084600381111561493b57fe5b146149575750600b9750600096508695506120b1945050505050565b61496f866101000151876060015188602001516156ab565b60208801529350600084600381111561498457fe5b146149a05750600b9750600096508695506120b1945050505050565b8b6001600160a01b0316816001600160a01b03161415614a44576149ce8661012001518c88602001516156ab565b6020880152935060008460038111156149e357fe5b146149ff5750600b9750600096508695506120b1945050505050565b614a138661010001518b88602001516156ab565b602088015293506000846003811115614a2857fe5b14614a445750600b9750600096508695506120b1945050505050565b506001016146fd565b50602084015184511115614a745750505060208101519051600094500391508290506120b1565b50508151602090920151600095508594509190910391506120b19050565b6001600160a01b0383166000908152601060205260409020614ab2615b28565b50604080516020810190915281546001600160e01b03168152614ad3615b28565b5060408051602080820183526001600160a01b03808916600090815260128352848120918916808252828452948120805485528651959091529152919091558051158015614b215750815115155b15614b39576ec097ce7bc90715b34b9f100000000081525b614b41615b28565b614b4b8383615460565b90506000876001600160a01b03166370a08231886040518263ffffffff1660e01b815260040180826001600160a01b03166001600160a01b0316815260200191505060206040518083038186803b158015614ba557600080fd5b505afa158015614bb9573d6000803e3d6000fd5b505050506040513d6020811015614bcf57600080fd5b505190506000614bdf8284615485565b6001600160a01b03891660009081526014602052604081205491925090614c0690836154a5565b9050614c1f89828a6142505766038d7ea4c68000614253565b6001600160a01b03808b1660008181526014602090815260409182902094909455895181518781529485015280519193928e16927f2caecd17d02f56fa897705dcc740da2d237c373f70686f4e0d9bd3bf0400ea7a929081900390910190a350505050505050505050565b6000806000614c9d846000806000614677565b9250925092509193909250565b6000806000614cb7615b28565b614cc186866156f8565b90925090506000826003811115614cd457fe5b14614ce55750915060009050614cf7565b6000614cf082615760565b9350935050505b9250929050565b600080546001600160a01b0316331480614d2257506002546001600160a01b031633145b905090565b6001600160a01b03831660009081526009602052604081205460ff16614d4e576009612131565b6001600160a01b038085166000908152600960209081526040808320938716835260029093019052205460ff16614d86576000612131565b600080614d968587866000614677565b91935090915060009050826011811115614dac57fe5b14614dbd5781601181111561373157fe5b80156134a6576004613731565b6001600160a01b0382166000908152600960205260408120805460ff16614df5576009915050611527565b6001600160a01b038316600090815260028201602052604090205460ff16151560011415614e27576000915050611527565b6007546001600160a01b03841660009081526008602052604090205410614e52576010915050611527565b6001600160a01b0380841660008181526002840160209081526040808320805460ff19166001908117909155600883528184208054918201815584529282902090920180549489166001600160a01b031990951685179055815193845283019190915280517f3ab23ab0d51cccc0c3085aec51f99228625aa1a922b3a8ca89a26b0f2027a1a59281900390910190a15060009392505050565b6000614ef5615b28565b614f1b60405180602001604052808681525060405180602001604052808681525061576f565b915091509250929050565b6000614f30615b28565b83518351614f1b9190615858565b6001600160a01b0381166000908152600960205260409020805460ff161515600114614fb1576040805162461bcd60e51b815260206004820152601960248201527f636f6d70206d61726b6574206973206e6f74206c697374656400000000000000604482015290519081900360640190fd5b600381015460ff1615614ff6576040805162461bcd60e51b81526020600482015260086024820152670636f6d70204331360c41b604482015290519081900360640190fd5b60038101805460ff19166001908117909155604080516001600160a01b0385168152602081019290925280517f93c1f3e36ed71139f466a4ce8c9751790e2e33f5afb2df0dcfb3aeabe55d5aa29281900390910190a16001600160a01b0382166000908152601060205260409020546001600160e01b031615801561509e57506001600160a01b038216600090815260106020526040902054600160e01b900463ffffffff16155b156151535760405180604001604052806ec097ce7bc90715b34b9f10000000006001600160e01b031681526020016150f86150d7611c1c565b6040518060400160405280600381526020016243323160e81b81525061540b565b63ffffffff9081169091526001600160a01b0384166000908152601060209081526040909120835181549490920151909216600160e01b026001600160e01b039182166001600160e01b031990941693909317169190911790555b6001600160a01b0382166000908152601160205260409020546001600160e01b03161580156151a557506001600160a01b038216600090815260116020526040902054600160e01b900463ffffffff16155b15611a825760405180604001604052806ec097ce7bc90715b34b9f10000000006001600160e01b031681526020016151de6150d7611c1c565b63ffffffff9081169091526001600160a01b0384166000908152601160209081526040909120835181549490920151909216600160e01b026001600160e01b039182166001600160e01b031990941693909317169190911790555050565b60007f45b96fe442630264581b197e84bbada861235052c5a1aadfff9ea4e40a969aa084601181111561526b57fe5b84601381111561527757fe5b604080519283526020830191909152818101859052519081900360600190a183601181111561215057fe5b60006121538383604051806040016040528060158152602001747375627472616374696f6e20756e646572666c6f7760581b815250615908565b60006121536152f384670de0b6b3a76400006152fa565b8351615620565b600061215383836040518060400160405280601781526020017f6d756c7469706c69636174696f6e206f766572666c6f77000000000000000000815250615962565b615344615b28565b60405180602001604052806145af61536b866ec097ce7bc90715b34b9f10000000006152fa565b85615620565b600081600160e01b84106154035760405162461bcd60e51b81526004018080602001828103825283818151815260200191508051906020019080838360005b838110156153c85781810151838201526020016153b0565b50505050905090810190601f1680156153f55780820380516001836020036101000a031916815260200191505b509250505060405180910390fd5b509192915050565b600081600160201b84106154035760405162461bcd60e51b81526020600482018181528351602484015283519092839260449091019190850190808383600083156153c85781810151838201526020016153b0565b615468615b28565b60405180602001604052806145af856000015185600001516152a2565b60006ec097ce7bc90715b34b9f10000000006146688484600001516152fa565b60006121538383604051806040016040528060118152602001706164646974696f6e206f766572666c6f7760781b8152506159e1565b60008183101580156154ed5750600083115b156156185760006154fc612c18565b604080516370a0823160e01b815230600482015290519192506000916001600160a01b038416916370a08231916024808301926020929190829003018186803b15801561554857600080fd5b505afa15801561555c573d6000803e3d6000fd5b505050506040513d602081101561557257600080fd5b5051905080851161561557816001600160a01b031663a9059cbb87876040518363ffffffff1660e01b815260040180836001600160a01b03166001600160a01b0316815260200182815260200192505050602060405180830381600087803b1580156155dd57600080fd5b505af11580156155f1573d6000803e3d6000fd5b505050506040513d602081101561560757600080fd5b506000935061215392505050565b50505b509092915050565b600061215383836040518060400160405280600e81526020016d646976696465206279207a65726f60901b815250615a36565b600061565d615b28565b6000615667615b28565b615671878761576f565b9092509050600082600381111561568457fe5b14615693579092509050613255565b61569d818661576f565b935093505050935093915050565b60008060006156b8615b28565b6156c287876156f8565b909250905060008260038111156156d557fe5b146156e65750915060009050613255565b61569d6156f282615760565b86615a98565b6000615702615b28565b600080615713866000015186615abe565b9092509050600082600381111561572657fe5b1461574557506040805160208101909152600081529092509050614cf7565b60408051602081019091529081526000969095509350505050565b51670de0b6b3a7640000900490565b6000615779615b28565b60008061578e86600001518660000151615abe565b909250905060008260038111156157a157fe5b146157c057506040805160208101909152600081529092509050614cf7565b6000806157d56706f05b59d3b2000084615a98565b909250905060008260038111156157e857fe5b1461580a57506040805160208101909152600081529094509250614cf7915050565b60008061581f83670de0b6b3a7640000615afd565b9092509050600082600381111561583257fe5b1461583957fe5b604080516020810190915290815260009a909950975050505050505050565b6000615862615b28565b60008061587786670de0b6b3a7640000615abe565b9092509050600082600381111561588a57fe5b146158a957506040805160208101909152600081529092509050614cf7565b6000806158b68388615afd565b909250905060008260038111156158c957fe5b146158eb57506040805160208101909152600081529094509250614cf7915050565b604080516020810190915290815260009890975095505050505050565b6000818484111561595a5760405162461bcd60e51b81526020600482018181528351602484015283519092839260449091019190850190808383600083156153c85781810151838201526020016153b0565b505050900390565b600083158061596f575082155b1561597c57506000612153565b8383028385828161598957fe5b041483906159d85760405162461bcd60e51b81526020600482018181528351602484015283519092839260449091019190850190808383600083156153c85781810151838201526020016153b0565b50949350505050565b600083830182858210156159d85760405162461bcd60e51b81526020600482018181528351602484015283519092839260449091019190850190808383600083156153c85781810151838201526020016153b0565b60008183615a855760405162461bcd60e51b81526020600482018181528351602484015283519092839260449091019190850190808383600083156153c85781810151838201526020016153b0565b50828481615a8f57fe5b04949350505050565b600080838301848110615ab057600092509050614cf7565b506002915060009050614cf7565b60008083615ad157506000905080614cf7565b83830283858281615ade57fe5b0414615af257506002915060009050614cf7565b600092509050614cf7565b60008082615b115750600190506000614cf7565b6000838581615b1c57fe5b04915091509250929050565b6040518060200160405280600081525090565b81548183558181111561158a5760008381526020902061158a918101908301615bc9565b604051806101400160405280600081526020016000815260200160008152602001600081526020016000815260200160008152602001615b9d615b28565b8152602001615baa615b28565b8152602001615bb7615b28565b8152602001615bc4615b28565b905290565b611c1e91905b80821115615be35760008155600101615bcf565b509056fea265627a7a7231582071438ecf5c405c225025a9e6288d16443a0e424d5b13b3348fb157983ea9004b64736f6c63430005100032",
  "linkReferences": {},
  "deployedLinkReferences": {}
}