{
  "_format": "hh-sol-artifact-1",
  "contractName": "CErc20",
  "sourceName": "contracts/CErc20.sol",
  "abi": [
    {
      "anonymous": false,
      "inputs": [
        {
          "indexed": false,
          "internalType": "uint256",
          "name": "cashPrior",
          "type": "uint256"
        },
        {
          "indexed": false,
          "internalType": "uint256",
          "name": "interestAccumulated",
          "type": "uint256"
        },
        {
          "indexed": false,
          "internalType": "uint256",
          "name": "borrowIndex",
          "type": "uint256"
        },
        {
          "indexed": false,
          "internalType": "uint256",
          "name": "totalBorrows",
          "type": "uint256"
        }
      ],
      "name": "AccrueInterest",
      "type": "event"
    },
    {
      "anonymous": false,
      "inputs": [
        {
          "indexed": true,
          "internalType": "address",
          "name": "owner",
          "type": "address"
        },
        {
          "indexed": true,
          "internalType": "address",
          "name": "spender",
          "type": "address"
        },
        {
          "indexed": false,
          "internalType": "uint256",
          "name": "amount",
          "type": "uint256"
        }
      ],
      "name": "Approval",
      "type": "event"
    },
    {
      "anonymous": false,
      "inputs": [
        {
          "indexed": true,
          "internalType": "address",
          "name": "borrower",
          "type": "address"
        },
        {
          "indexed": false,
          "internalType": "uint256",
          "name": "borrowAmount",
          "type": "uint256"
        },
        {
          "indexed": false,
          "internalType": "uint256",
          "name": "accountBorrows",
          "type": "uint256"
        },
        {
          "indexed": false,
          "internalType": "uint256",
          "name": "totalBorrows",
          "type": "uint256"
        }
      ],
      "name": "Borrow",
      "type": "event"
    },
    {
      "anonymous": false,
      "inputs": [
        {
          "indexed": false,
          "internalType": "uint256",
          "name": "error",
          "type": "uint256"
        },
        {
          "indexed": false,
          "internalType": "uint256",
          "name": "info",
          "type": "uint256"
        },
        {
          "indexed": false,
          "internalType": "uint256",
          "name": "detail",
          "type": "uint256"
        }
      ],
      "name": "Failure",
      "type": "event"
    },
    {
      "anonymous": false,
      "inputs": [
        {
          "indexed": true,
          "internalType": "address",
          "name": "liquidator",
          "type": "address"
        },
        {
          "indexed": true,
          "internalType": "address",
          "name": "borrower",
          "type": "address"
        },
        {
          "indexed": false,
          "internalType": "uint256",
          "name": "repayAmount",
          "type": "uint256"
        },
        {
          "indexed": true,
          "internalType": "address",
          "name": "cTokenCollateral",
          "type": "address"
        },
        {
          "indexed": false,
          "internalType": "uint256",
          "name": "seizeTokens",
          "type": "uint256"
        }
      ],
      "name": "LiquidateBorrow",
      "type": "event"
    },
    {
      "anonymous": false,
      "inputs": [
        {
          "indexed": true,
          "internalType": "address",
          "name": "minter",
          "type": "address"
        },
        {
          "indexed": false,
          "internalType": "uint256",
          "name": "mintAmount",
          "type": "uint256"
        },
        {
          "indexed": false,
          "internalType": "uint256",
          "name": "mintTokens",
          "type": "uint256"
        }
      ],
      "name": "Mint",
      "type": "event"
    },
    {
      "anonymous": false,
      "inputs": [
        {
          "indexed": false,
          "internalType": "address",
          "name": "oldAdmin",
          "type": "address"
        },
        {
          "indexed": false,
          "internalType": "address",
          "name": "newAdmin",
          "type": "address"
        }
      ],
      "name": "NewAdmin",
      "type": "event"
    },
    {
      "anonymous": false,
      "inputs": [
        {
          "indexed": false,
          "internalType": "contract ComptrollerInterface",
          "name": "oldComptroller",
          "type": "address"
        },
        {
          "indexed": false,
          "internalType": "contract ComptrollerInterface",
          "name": "newComptroller",
          "type": "address"
        }
      ],
      "name": "NewComptroller",
      "type": "event"
    },
    {
      "anonymous": false,
      "inputs": [
        {
          "indexed": false,
          "internalType": "contract InterestRateModel",
          "name": "oldInterestRateModel",
          "type": "address"
        },
        {
          "indexed": false,
          "internalType": "contract InterestRateModel",
          "name": "newInterestRateModel",
          "type": "address"
        }
      ],
      "name": "NewMarketInterestRateModel",
      "type": "event"
    },
    {
      "anonymous": false,
      "inputs": [
        {
          "indexed": false,
          "internalType": "address",
          "name": "oldPendingAdmin",
          "type": "address"
        },
        {
          "indexed": false,
          "internalType": "address",
          "name": "newPendingAdmin",
          "type": "address"
        }
      ],
      "name": "NewPendingAdmin",
      "type": "event"
    },
    {
      "anonymous": false,
      "inputs": [
        {
          "indexed": false,
          "internalType": "uint256",
          "name": "oldReserveFactorMantissa",
          "type": "uint256"
        },
        {
          "indexed": false,
          "internalType": "uint256",
          "name": "newReserveFactorMantissa",
          "type": "uint256"
        }
      ],
      "name": "NewReserveFactor",
      "type": "event"
    },
    {
      "anonymous": false,
      "inputs": [
        {
          "indexed": true,
          "internalType": "address",
          "name": "redeemer",
          "type": "address"
        },
        {
          "indexed": false,
          "internalType": "uint256",
          "name": "redeemAmount",
          "type": "uint256"
        },
        {
          "indexed": false,
          "internalType": "uint256",
          "name": "redeemTokens",
          "type": "uint256"
        }
      ],
      "name": "Redeem",
      "type": "event"
    },
    {
      "anonymous": false,
      "inputs": [
        {
          "indexed": true,
          "internalType": "address",
          "name": "payer",
          "type": "address"
        },
        {
          "indexed": true,
          "internalType": "address",
          "name": "borrower",
          "type": "address"
        },
        {
          "indexed": false,
          "internalType": "uint256",
          "name": "repayAmount",
          "type": "uint256"
        },
        {
          "indexed": false,
          "internalType": "uint256",
          "name": "accountBorrows",
          "type": "uint256"
        },
        {
          "indexed": false,
          "internalType": "uint256",
          "name": "totalBorrows",
          "type": "uint256"
        }
      ],
      "name": "RepayBorrow",
      "type": "event"
    },
    {
      "anonymous": false,
      "inputs": [
        {
          "indexed": false,
          "internalType": "address",
          "name": "benefactor",
          "type": "address"
        },
        {
          "indexed": false,
          "internalType": "uint256",
          "name": "addAmount",
          "type": "uint256"
        },
        {
          "indexed": false,
          "internalType": "uint256",
          "name": "newTotalReserves",
          "type": "uint256"
        }
      ],
      "name": "ReservesAdded",
      "type": "event"
    },
    {
      "anonymous": false,
      "inputs": [
        {
          "indexed": false,
          "internalType": "address",
          "name": "admin",
          "type": "address"
        },
        {
          "indexed": false,
          "internalType": "uint256",
          "name": "reduceAmount",
          "type": "uint256"
        },
        {
          "indexed": false,
          "internalType": "uint256",
          "name": "newTotalReserves",
          "type": "uint256"
        }
      ],
      "name": "ReservesReduced",
      "type": "event"
    },
    {
      "anonymous": false,
      "inputs": [
        {
          "indexed": false,
          "internalType": "address",
          "name": "benefactor",
          "type": "address"
        },
        {
          "indexed": false,
          "internalType": "uint256",
          "name": "addAmount",
          "type": "uint256"
        },
        {
          "indexed": false,
          "internalType": "uint256",
          "name": "newSubsidyFund",
          "type": "uint256"
        }
      ],
      "name": "SubsidyAdded",
      "type": "event"
    },
    {
      "anonymous": false,
      "inputs": [
        {
          "indexed": true,
          "internalType": "address",
          "name": "from",
          "type": "address"
        },
        {
          "indexed": true,
          "internalType": "address",
          "name": "to",
          "type": "address"
        },
        {
          "indexed": false,
          "internalType": "uint256",
          "name": "amount",
          "type": "uint256"
        }
      ],
      "name": "Transfer",
      "type": "event"
    },
    {
      "constant": false,
      "inputs": [],
      "name": "_acceptAdmin",
      "outputs": [
        {
          "internalType": "uint256",
          "name": "",
          "type": "uint256"
        }
      ],
      "payable": false,
      "stateMutability": "nonpayable",
      "type": "function"
    },
    {
      "constant": false,
      "inputs": [
        {
          "internalType": "uint256",
          "name": "addAmount",
          "type": "uint256"
        }
      ],
      "name": "_addReserves",
      "outputs": [
        {
          "internalType": "uint256",
          "name": "",
          "type": "uint256"
        }
      ],
      "payable": false,
      "stateMutability": "nonpayable",
      "type": "function"
    },
    {
      "constant": false,
      "inputs": [
        {
          "internalType": "uint256",
          "name": "reduceAmount",
          "type": "uint256"
        }
      ],
      "name": "_reduceReserves",
      "outputs": [
        {
          "internalType": "uint256",
          "name": "",
          "type": "uint256"
        }
      ],
      "payable": false,
      "stateMutability": "nonpayable",
      "type": "function"
    },
    {
      "constant": false,
      "inputs": [
        {
          "internalType": "contract ComptrollerInterface",
          "name": "newComptroller",
          "type": "address"
        }
      ],
      "name": "_setComptroller",
      "outputs": [
        {
          "internalType": "uint256",
          "name": "",
          "type": "uint256"
        }
      ],
      "payable": false,
      "stateMutability": "nonpayable",
      "type": "function"
    },
    {
      "constant": false,
      "inputs": [
        {
          "internalType": "contract InterestRateModel",
          "name": "newInterestRateModel",
          "type": "address"
        }
      ],
      "name": "_setInterestRateModel",
      "outputs": [
        {
          "internalType": "uint256",
          "name": "",
          "type": "uint256"
        }
      ],
      "payable": false,
      "stateMutability": "nonpayable",
      "type": "function"
    },
    {
      "constant": false,
      "inputs": [
        {
          "internalType": "address payable",
          "name": "newPendingAdmin",
          "type": "address"
        }
      ],
      "name": "_setPendingAdmin",
      "outputs": [
        {
          "internalType": "uint256",
          "name": "",
          "type": "uint256"
        }
      ],
      "payable": false,
      "stateMutability": "nonpayable",
      "type": "function"
    },
    {
      "constant": false,
      "inputs": [
        {
          "internalType": "uint256",
          "name": "newReserveFactorMantissa",
          "type": "uint256"
        }
      ],
      "name": "_setReserveFactor",
      "outputs": [
        {
          "internalType": "uint256",
          "name": "",
          "type": "uint256"
        }
      ],
      "payable": false,
      "stateMutability": "nonpayable",
      "type": "function"
    },
    {
      "constant": true,
      "inputs": [],
      "name": "accrualBlockNumber",
      "outputs": [
        {
          "internalType": "uint256",
          "name": "",
          "type": "uint256"
        }
      ],
      "payable": false,
      "stateMutability": "view",
      "type": "function"
    },
    {
      "constant": false,
      "inputs": [],
      "name": "accrueInterest",
      "outputs": [
        {
          "internalType": "uint256",
          "name": "",
          "type": "uint256"
        }
      ],
      "payable": false,
      "stateMutability": "nonpayable",
      "type": "function"
    },
    {
      "constant": true,
      "inputs": [],
      "name": "admin",
      "outputs": [
        {
          "internalType": "address payable",
          "name": "",
          "type": "address"
        }
      ],
      "payable": false,
      "stateMutability": "view",
      "type": "function"
    },
    {
      "constant": true,
      "inputs": [
        {
          "internalType": "address",
          "name": "owner",
          "type": "address"
        },
        {
          "internalType": "address",
          "name": "spender",
          "type": "address"
        }
      ],
      "name": "allowance",
      "outputs": [
        {
          "internalType": "uint256",
          "name": "",
          "type": "uint256"
        }
      ],
      "payable": false,
      "stateMutability": "view",
      "type": "function"
    },
    {
      "constant": false,
      "inputs": [
        {
          "internalType": "address",
          "name": "spender",
          "type": "address"
        },
        {
          "internalType": "uint256",
          "name": "amount",
          "type": "uint256"
        }
      ],
      "name": "approve",
      "outputs": [
        {
          "internalType": "bool",
          "name": "",
          "type": "bool"
        }
      ],
      "payable": false,
      "stateMutability": "nonpayable",
      "type": "function"
    },
    {
      "constant": true,
      "inputs": [
        {
          "internalType": "address",
          "name": "owner",
          "type": "address"
        }
      ],
      "name": "balanceOf",
      "outputs": [
        {
          "internalType": "uint256",
          "name": "",
          "type": "uint256"
        }
      ],
      "payable": false,
      "stateMutability": "view",
      "type": "function"
    },
    {
      "constant": false,
      "inputs": [
        {
          "internalType": "address",
          "name": "owner",
          "type": "address"
        }
      ],
      "name": "balanceOfUnderlying",
      "outputs": [
        {
          "internalType": "uint256",
          "name": "",
          "type": "uint256"
        }
      ],
      "payable": false,
      "stateMutability": "nonpayable",
      "type": "function"
    },
    {
      "constant": false,
      "inputs": [
        {
          "internalType": "uint256",
          "name": "borrowAmount",
          "type": "uint256"
        }
      ],
      "name": "borrow",
      "outputs": [
        {
          "internalType": "uint256",
          "name": "",
          "type": "uint256"
        }
      ],
      "payable": false,
      "stateMutability": "nonpayable",
      "type": "function"
    },
    {
      "constant": false,
      "inputs": [
        {
          "internalType": "address",
          "name": "account",
          "type": "address"
        }
      ],
      "name": "borrowBalanceCurrent",
      "outputs": [
        {
          "internalType": "uint256",
          "name": "",
          "type": "uint256"
        }
      ],
      "payable": false,
      "stateMutability": "nonpayable",
      "type": "function"
    },
    {
      "constant": true,
      "inputs": [
        {
          "internalType": "address",
          "name": "account",
          "type": "address"
        }
      ],
      "name": "borrowBalanceStored",
      "outputs": [
        {
          "internalType": "uint256",
          "name": "",
          "type": "uint256"
        }
      ],
      "payable": false,
      "stateMutability": "view",
      "type": "function"
    },
    {
      "constant": true,
      "inputs": [],
      "name": "borrowIndex",
      "outputs": [
        {
          "internalType": "uint256",
          "name": "",
          "type": "uint256"
        }
      ],
      "payable": false,
      "stateMutability": "view",
      "type": "function"
    },
    {
      "constant": true,
      "inputs": [],
      "name": "borrowRatePerBlock",
      "outputs": [
        {
          "internalType": "uint256",
          "name": "",
          "type": "uint256"
        }
      ],
      "payable": false,
      "stateMutability": "view",
      "type": "function"
    },
    {
      "constant": true,
      "inputs": [],
      "name": "comptroller",
      "outputs": [
        {
          "internalType": "contract ComptrollerInterface",
          "name": "",
          "type": "address"
        }
      ],
      "payable": false,
      "stateMutability": "view",
      "type": "function"
    },
    {
      "constant": true,
      "inputs": [],
      "name": "decimals",
      "outputs": [
        {
          "internalType": "uint8",
          "name": "",
          "type": "uint8"
        }
      ],
      "payable": false,
      "stateMutability": "view",
      "type": "function"
    },
    {
      "constant": false,
      "inputs": [],
      "name": "exchangeRateCurrent",
      "outputs": [
        {
          "internalType": "uint256",
          "name": "",
          "type": "uint256"
        }
      ],
      "payable": false,
      "stateMutability": "nonpayable",
      "type": "function"
    },
    {
      "constant": true,
      "inputs": [],
      "name": "exchangeRateStored",
      "outputs": [
        {
          "internalType": "uint256",
          "name": "",
          "type": "uint256"
        }
      ],
      "payable": false,
      "stateMutability": "view",
      "type": "function"
    },
    {
      "constant": true,
      "inputs": [
        {
          "internalType": "address",
          "name": "account",
          "type": "address"
        }
      ],
      "name": "getAccountSnapshot",
      "outputs": [
        {
          "internalType": "uint256",
          "name": "",
          "type": "uint256"
        },
        {
          "internalType": "uint256",
          "name": "",
          "type": "uint256"
        },
        {
          "internalType": "uint256",
          "name": "",
          "type": "uint256"
        },
        {
          "internalType": "uint256",
          "name": "",
          "type": "uint256"
        }
      ],
      "payable": false,
      "stateMutability": "view",
      "type": "function"
    },
    {
      "constant": true,
      "inputs": [
        {
          "internalType": "address",
          "name": "account",
          "type": "address"
        }
      ],
      "name": "getBorrowerPrincipalStored",
      "outputs": [
        {
          "internalType": "uint256",
          "name": "borrowed",
          "type": "uint256"
        }
      ],
      "payable": false,
      "stateMutability": "view",
      "type": "function"
    },
    {
      "constant": true,
      "inputs": [],
      "name": "getCash",
      "outputs": [
        {
          "internalType": "uint256",
          "name": "",
          "type": "uint256"
        }
      ],
      "payable": false,
      "stateMutability": "view",
      "type": "function"
    },
    {
      "constant": true,
      "inputs": [
        {
          "internalType": "address",
          "name": "account",
          "type": "address"
        }
      ],
      "name": "getSupplierSnapshotStored",
      "outputs": [
        {
          "internalType": "uint256",
          "name": "tokens",
          "type": "uint256"
        },
        {
          "internalType": "uint256",
          "name": "underlyingAmount",
          "type": "uint256"
        },
        {
          "internalType": "uint256",
          "name": "suppliedAt",
          "type": "uint256"
        },
        {
          "internalType": "uint256",
          "name": "promisedSupplyRate",
          "type": "uint256"
        }
      ],
      "payable": false,
      "stateMutability": "view",
      "type": "function"
    },
    {
      "constant": true,
      "inputs": [],
      "name": "initialExchangeRateMantissa",
      "outputs": [
        {
          "internalType": "uint256",
          "name": "",
          "type": "uint256"
        }
      ],
      "payable": false,
      "stateMutability": "view",
      "type": "function"
    },
    {
      "constant": false,
      "inputs": [
        {
          "internalType": "address",
          "name": "underlying_",
          "type": "address"
        },
        {
          "internalType": "contract ComptrollerInterface",
          "name": "comptroller_",
          "type": "address"
        },
        {
          "internalType": "contract InterestRateModel",
          "name": "interestRateModel_",
          "type": "address"
        },
        {
          "internalType": "uint256",
          "name": "initialExchangeRateMantissa_",
          "type": "uint256"
        },
        {
          "internalType": "string",
          "name": "name_",
          "type": "string"
        },
        {
          "internalType": "string",
          "name": "symbol_",
          "type": "string"
        },
        {
          "internalType": "uint8",
          "name": "decimals_",
          "type": "uint8"
        }
      ],
      "name": "initialize",
      "outputs": [],
      "payable": false,
      "stateMutability": "nonpayable",
      "type": "function"
    },
    {
      "constant": false,
      "inputs": [
        {
          "internalType": "contract ComptrollerInterface",
          "name": "comptroller_",
          "type": "address"
        },
        {
          "internalType": "contract InterestRateModel",
          "name": "interestRateModel_",
          "type": "address"
        },
        {
          "internalType": "uint256",
          "name": "initialExchangeRateMantissa_",
          "type": "uint256"
        },
        {
          "internalType": "string",
          "name": "name_",
          "type": "string"
        },
        {
          "internalType": "string",
          "name": "symbol_",
          "type": "string"
        },
        {
          "internalType": "uint8",
          "name": "decimals_",
          "type": "uint8"
        }
      ],
      "name": "initialize",
      "outputs": [],
      "payable": false,
      "stateMutability": "nonpayable",
      "type": "function"
    },
    {
      "constant": true,
      "inputs": [],
      "name": "interestRateModel",
      "outputs": [
        {
          "internalType": "contract InterestRateModel",
          "name": "",
          "type": "address"
        }
      ],
      "payable": false,
      "stateMutability": "view",
      "type": "function"
    },
    {
      "constant": true,
      "inputs": [],
      "name": "isCToken",
      "outputs": [
        {
          "internalType": "bool",
          "name": "",
          "type": "bool"
        }
      ],
      "payable": false,
      "stateMutability": "view",
      "type": "function"
    },
    {
      "constant": false,
      "inputs": [
        {
          "internalType": "address",
          "name": "borrower",
          "type": "address"
        },
        {
          "internalType": "uint256",
          "name": "repayAmount",
          "type": "uint256"
        },
        {
          "internalType": "contract CTokenInterface",
          "name": "cTokenCollateral",
          "type": "address"
        }
      ],
      "name": "liquidateBorrow",
      "outputs": [
        {
          "internalType": "uint256",
          "name": "",
          "type": "uint256"
        }
      ],
      "payable": false,
      "stateMutability": "nonpayable",
      "type": "function"
    },
    {
      "constant": false,
      "inputs": [
        {
          "internalType": "uint256",
          "name": "mintAmount",
          "type": "uint256"
        }
      ],
      "name": "mint",
      "outputs": [
        {
          "internalType": "uint256",
          "name": "",
          "type": "uint256"
        }
      ],
      "payable": false,
      "stateMutability": "nonpayable",
      "type": "function"
    },
    {
      "constant": true,
      "inputs": [],
      "name": "name",
      "outputs": [
        {
          "internalType": "string",
          "name": "",
          "type": "string"
        }
      ],
      "payable": false,
      "stateMutability": "view",
      "type": "function"
    },
    {
      "constant": true,
      "inputs": [],
      "name": "pendingAdmin",
      "outputs": [
        {
          "internalType": "address payable",
          "name": "",
          "type": "address"
        }
      ],
      "payable": false,
      "stateMutability": "view",
      "type": "function"
    },
    {
      "constant": false,
      "inputs": [
        {
          "internalType": "uint256",
          "name": "redeemTokens",
          "type": "uint256"
        }
      ],
      "name": "redeem",
      "outputs": [
        {
          "internalType": "uint256",
          "name": "",
          "type": "uint256"
        }
      ],
      "payable": false,
      "stateMutability": "nonpayable",
      "type": "function"
    },
    {
      "constant": false,
      "inputs": [
        {
          "internalType": "uint256",
          "name": "redeemAmount",
          "type": "uint256"
        }
      ],
      "name": "redeemUnderlying",
      "outputs": [
        {
          "internalType": "uint256",
          "name": "",
          "type": "uint256"
        }
      ],
      "payable": false,
      "stateMutability": "nonpayable",
      "type": "function"
    },
    {
      "constant": false,
      "inputs": [
        {
          "internalType": "uint256",
          "name": "repayAmount",
          "type": "uint256"
        }
      ],
      "name": "repayBorrow",
      "outputs": [
        {
          "internalType": "uint256",
          "name": "",
          "type": "uint256"
        }
      ],
      "payable": false,
      "stateMutability": "nonpayable",
      "type": "function"
    },
    {
      "constant": false,
      "inputs": [
        {
          "internalType": "address",
          "name": "borrower",
          "type": "address"
        },
        {
          "internalType": "uint256",
          "name": "repayAmount",
          "type": "uint256"
        }
      ],
      "name": "repayBorrowBehalf",
      "outputs": [
        {
          "internalType": "uint256",
          "name": "",
          "type": "uint256"
        }
      ],
      "payable": false,
      "stateMutability": "nonpayable",
      "type": "function"
    },
    {
      "constant": true,
      "inputs": [],
      "name": "reserveFactorMantissa",
      "outputs": [
        {
          "internalType": "uint256",
          "name": "",
          "type": "uint256"
        }
      ],
      "payable": false,
      "stateMutability": "view",
      "type": "function"
    },
    {
      "constant": false,
      "inputs": [
        {
          "internalType": "address",
          "name": "liquidator",
          "type": "address"
        },
        {
          "internalType": "address",
          "name": "borrower",
          "type": "address"
        },
        {
          "internalType": "uint256",
          "name": "seizeTokens",
          "type": "uint256"
        }
      ],
      "name": "seize",
      "outputs": [
        {
          "internalType": "uint256",
          "name": "",
          "type": "uint256"
        }
      ],
      "payable": false,
      "stateMutability": "nonpayable",
      "type": "function"
    },
    {
      "constant": true,
      "inputs": [],
      "name": "subsidyFund",
      "outputs": [
        {
          "internalType": "uint256",
          "name": "",
          "type": "uint256"
        }
      ],
      "payable": false,
      "stateMutability": "view",
      "type": "function"
    },
    {
      "constant": true,
      "inputs": [],
      "name": "supplyRatePerBlock",
      "outputs": [
        {
          "internalType": "uint256",
          "name": "",
          "type": "uint256"
        }
      ],
      "payable": false,
      "stateMutability": "view",
      "type": "function"
    },
    {
      "constant": false,
      "inputs": [
        {
          "internalType": "contract EIP20NonStandardInterface",
          "name": "token",
          "type": "address"
        }
      ],
      "name": "sweepToken",
      "outputs": [],
      "payable": false,
      "stateMutability": "nonpayable",
      "type": "function"
    },
    {
      "constant": true,
      "inputs": [],
      "name": "symbol",
      "outputs": [
        {
          "internalType": "string",
          "name": "",
          "type": "string"
        }
      ],
      "payable": false,
      "stateMutability": "view",
      "type": "function"
    },
    {
      "constant": true,
      "inputs": [],
      "name": "totalBorrows",
      "outputs": [
        {
          "internalType": "uint256",
          "name": "",
          "type": "uint256"
        }
      ],
      "payable": false,
      "stateMutability": "view",
      "type": "function"
    },
    {
      "constant": false,
      "inputs": [],
      "name": "totalBorrowsCurrent",
      "outputs": [
        {
          "internalType": "uint256",
          "name": "",
          "type": "uint256"
        }
      ],
      "payable": false,
      "stateMutability": "nonpayable",
      "type": "function"
    },
    {
      "constant": true,
      "inputs": [],
      "name": "totalReserves",
      "outputs": [
        {
          "internalType": "uint256",
          "name": "",
          "type": "uint256"
        }
      ],
      "payable": false,
      "stateMutability": "view",
      "type": "function"
    },
    {
      "constant": true,
      "inputs": [],
      "name": "totalSupply",
      "outputs": [
        {
          "internalType": "uint256",
          "name": "",
          "type": "uint256"
        }
      ],
      "payable": false,
      "stateMutability": "view",
      "type": "function"
    },
    {
      "constant": false,
      "inputs": [
        {
          "internalType": "address",
          "name": "dst",
          "type": "address"
        },
        {
          "internalType": "uint256",
          "name": "amount",
          "type": "uint256"
        }
      ],
      "name": "transfer",
      "outputs": [
        {
          "internalType": "bool",
          "name": "",
          "type": "bool"
        }
      ],
      "payable": false,
      "stateMutability": "nonpayable",
      "type": "function"
    },
    {
      "constant": false,
      "inputs": [
        {
          "internalType": "address",
          "name": "src",
          "type": "address"
        },
        {
          "internalType": "address",
          "name": "dst",
          "type": "address"
        },
        {
          "internalType": "uint256",
          "name": "amount",
          "type": "uint256"
        }
      ],
      "name": "transferFrom",
      "outputs": [
        {
          "internalType": "bool",
          "name": "",
          "type": "bool"
        }
      ],
      "payable": false,
      "stateMutability": "nonpayable",
      "type": "function"
    },
    {
      "constant": true,
      "inputs": [
        {
          "internalType": "address",
          "name": "account",
          "type": "address"
        }
      ],
      "name": "tropykusInterestAccrued",
      "outputs": [
        {
          "internalType": "enum CarefulMath.MathError",
          "name": "",
          "type": "uint8"
        },
        {
          "internalType": "uint256",
          "name": "",
          "type": "uint256"
        },
        {
          "internalType": "uint256",
          "name": "",
          "type": "uint256"
        },
        {
          "internalType": "uint256",
          "name": "",
          "type": "uint256"
        },
        {
          "internalType": "uint256",
          "name": "",
          "type": "uint256"
        }
      ],
      "payable": false,
      "stateMutability": "view",
      "type": "function"
    },
    {
      "constant": true,
      "inputs": [],
      "name": "underlying",
      "outputs": [
        {
          "internalType": "address",
          "name": "",
          "type": "address"
        }
      ],
      "payable": false,
      "stateMutability": "view",
      "type": "function"
    }
  ],
  "bytecode": "0x608060405234801561001057600080fd5b50615b2f80620000216000396000f3fe608060405234801561001057600080fd5b50600436106103425760003560e01c8063852a12e3116101b8578063c139562b11610104578063f3fdb15a116100a2578063f8f9da281161007c578063f8f9da2814610b59578063fc610b3d14610b61578063fca7820b14610bc7578063fe9c44ae14610be457610342565b8063f3fdb15a14610b13578063f5e3c46214610b1b578063f851a44014610b5157610342565b8063db006a75116100de578063db006a7514610a9a578063dd62ed3e14610ab7578063e9c714f214610ae5578063f2b3abbd14610aed57610342565b8063c139562b14610a31578063c37f68e214610a57578063c5ebeaec14610a7d57610342565b8063a6afed9511610171578063ae9d70b01161014b578063ae9d70b0146109c5578063b2a02ff1146109cd578063b71d1a0c14610a03578063bd6d894d14610a2957610342565b8063a6afed9514610989578063a9059cbb14610991578063aa5af0fd146109bd57610342565b8063852a12e3146107cb5780638f840ddd146107e857806395d89b41146107f057806395dd9193146107f857806399d8c1b41461081e578063a0712d681461096c57610342565b8063313ce567116102925780635fe3b567116102305780636c540baf1161020a5780636c540baf1461078d5780636f307dc31461079557806370a082311461079d57806373acee98146107c357610342565b80635fe3b56714610760578063601a0bf114610768578063675d972c1461078557610342565b80633e9410101161026c5780633e941010146106c95780634576b5db146106e657806347bd37181461070c578063524fe4b51461071457610342565b8063313ce5671461067d5780633af9e6691461069b5780633b1d21a2146106c157610342565b8063182df0f5116102ff5780631df0ba9d116102d95780631df0ba9d146105ef57806323b872dd146105f75780632608f8181461062d578063267822471461065957610342565b8063182df0f5146104695780631a31d465146104715780631be19560146105c957610342565b806306fdde0314610347578063095ea7b3146103c45780630e75270214610404578063173b99041461043357806317bfdfbc1461043b57806318160ddd14610461575b600080fd5b61034f610bec565b6040805160208082528351818301528351919283929083019185019080838360005b83811015610389578181015183820152602001610371565b50505050905090810190601f1680156103b65780820380516001836020036101000a031916815260200191505b509250505060405180910390f35b6103f0600480360360408110156103da57600080fd5b506001600160a01b038135169060200135610c79565b604080519115158252519081900360200190f35b6104216004803603602081101561041a57600080fd5b5035610ce6565b60408051918252519081900360200190f35b610421610cfc565b6104216004803603602081101561045157600080fd5b50356001600160a01b0316610d02565b610421610da7565b610421610dad565b6105c7600480360360e081101561048757600080fd5b6001600160a01b03823581169260208101358216926040820135909216916060820135919081019060a081016080820135600160201b8111156104c957600080fd5b8201836020820111156104db57600080fd5b803590602001918460018302840111600160201b831117156104fc57600080fd5b91908080601f0160208091040260200160405190810160405280939291908181526020018383808284376000920191909152509295949360208101935035915050600160201b81111561054e57600080fd5b82018360208201111561056057600080fd5b803590602001918460018302840111600160201b8311171561058157600080fd5b91908080601f0160208091040260200160405190810160405280939291908181526020018383808284376000920191909152509295505050903560ff169150610e0b9050565b005b6105c7600480360360208110156105df57600080fd5b50356001600160a01b0316610eaa565b610421610fe1565b6103f06004803603606081101561060d57600080fd5b506001600160a01b03813581169160208101359091169060400135610fe7565b6104216004803603604081101561064357600080fd5b506001600160a01b038135169060200135611052565b610661611068565b604080516001600160a01b039092168252519081900360200190f35b610685611077565b6040805160ff9092168252519081900360200190f35b610421600480360360208110156106b157600080fd5b50356001600160a01b0316611080565b61042161111b565b610421600480360360208110156106df57600080fd5b503561112a565b610421600480360360208110156106fc57600080fd5b50356001600160a01b0316611135565b610421611270565b61073a6004803603602081101561072a57600080fd5b50356001600160a01b0316611276565b604080519485526020850193909352838301919091526060830152519081900360800190f35b6106616112a7565b6104216004803603602081101561077e57600080fd5b50356112b6565b61042161134a565b610421611350565b610661611356565b610421600480360360208110156107b357600080fd5b50356001600160a01b0316611365565b610421611380565b610421600480360360208110156107e157600080fd5b503561141b565b610421611426565b61034f61142c565b6104216004803603602081101561080e57600080fd5b50356001600160a01b0316611484565b6105c7600480360360c081101561083457600080fd5b6001600160a01b03823581169260208101359091169160408201359190810190608081016060820135600160201b81111561086e57600080fd5b82018360208201111561088057600080fd5b803590602001918460018302840111600160201b831117156108a157600080fd5b91908080601f0160208091040260200160405190810160405280939291908181526020018383808284376000920191909152509295949360208101935035915050600160201b8111156108f357600080fd5b82018360208201111561090557600080fd5b803590602001918460018302840111600160201b8311171561092657600080fd5b91908080601f0160208091040260200160405190810160405280939291908181526020018383808284376000920191909152509295505050903560ff1691506114dc9050565b6104216004803603602081101561098257600080fd5b5035611694565b6104216116a0565b6103f0600480360360408110156109a757600080fd5b506001600160a01b038135169060200135611a7b565b610421611ae5565b610421611aeb565b610421600480360360608110156109e357600080fd5b506001600160a01b03813581169160208101359091169060400135611b8a565b61042160048036036020811015610a1957600080fd5b50356001600160a01b0316611bf4565b610421611c80565b61042160048036036020811015610a4757600080fd5b50356001600160a01b0316611d21565b61073a60048036036020811015610a6d57600080fd5b50356001600160a01b0316611d3c565b61042160048036036020811015610a9357600080fd5b5035611dd1565b61042160048036036020811015610ab057600080fd5b5035611ddc565b61042160048036036040811015610acd57600080fd5b506001600160a01b0381358116916020013516611de7565b610421611e12565b61042160048036036020811015610b0357600080fd5b50356001600160a01b0316611f15565b610661611f4f565b61042160048036036060811015610b3157600080fd5b506001600160a01b03813581169160208101359160409091013516611f5e565b610661611f76565b610421611f8a565b610b8760048036036020811015610b7757600080fd5b50356001600160a01b0316611fee565b60405180866003811115610b9757fe5b60ff1681526020018581526020018481526020018381526020018281526020019550505050505060405180910390f35b61042160048036036020811015610bdd57600080fd5b50356122d5565b6103f061234c565b60018054604080516020600284861615610100026000190190941693909304601f81018490048402820184019092528181529291830182828015610c715780601f10610c4657610100808354040283529160200191610c71565b820191906000526020600020905b815481529060010190602001808311610c5457829003601f168201915b505050505081565b3360008181526010602090815260408083206001600160a01b03871680855290835281842086905581518681529151939493909284927f8c5be1e5ebec7d5bd14f71427d1e84f3dd0314c0f7b2291e5b200ac8c7c3b925929081900390910190a360019150505b92915050565b600080610cf283612351565b509150505b919050565b60085481565b6000805460ff16610d40576040805162461bcd60e51b81526020600482015260036024820152622a191b60e91b604482015290519081900360640190fd5b6000805460ff19168155610d526116a0565b14610d89576040805162461bcd60e51b8152602060048201526002602482015261543760f01b604482015290519081900360640190fd5b610d9282611484565b90505b6000805460ff19166001179055919050565b600d5481565b6000806000610dba6123f3565b90925090506000826003811115610dcd57fe5b14610e04576040805162461bcd60e51b8152602060048201526002602482015261543960f01b604482015290519081900360640190fd5b9150505b90565b610e198686868686866114dc565b601280546001600160a01b0319166001600160a01b038981169190911791829055604080516318160ddd60e01b8152905192909116916318160ddd91600480820192602092909190829003018186803b158015610e7557600080fd5b505afa158015610e89573d6000803e3d6000fd5b505050506040513d6020811015610e9f57600080fd5b505050505050505050565b6012546001600160a01b0382811691161415610ef2576040805162461bcd60e51b8152602060048201526002602482015261453160f01b604482015290519081900360640190fd5b604080516370a0823160e01b815230600482015290516000916001600160a01b038416916370a0823191602480820192602092909190829003018186803b158015610f3c57600080fd5b505afa158015610f50573d6000803e3d6000fd5b505050506040513d6020811015610f6657600080fd5b50516003546040805163a9059cbb60e01b81526101009092046001600160a01b03908116600484015260248301849052905192935084169163a9059cbb9160448082019260009290919082900301818387803b158015610fc557600080fd5b505af1158015610fd9573d6000803e3d6000fd5b505050505050565b600e5481565b6000805460ff16611025576040805162461bcd60e51b81526020600482015260036024820152622a191b60e91b604482015290519081900360640190fd5b6000805460ff1916815561103b3386868661258b565b1490506000805460ff191660011790559392505050565b60008061105f8484612817565b50949350505050565b6004546001600160a01b031681565b60035460ff1681565b600061108a615963565b604051806020016040528061109d611c80565b90526001600160a01b0384166000908152600f60205260408120549192509081906110c99084906128bb565b909250905060008260038111156110dc57fe5b14611113576040805162461bcd60e51b81526020600482015260026024820152612a1b60f11b604482015290519081900360640190fd5b949350505050565b600061112561290f565b905090565b6000610ce08261298f565b60035460009061010090046001600160a01b031633146111625761115b6001603f612a1c565b9050610cf7565b60055460408051623f1ee960e11b815290516001600160a01b0392831692851691627e3dd2916004808301926020929190829003018186803b1580156111a757600080fd5b505afa1580156111bb573d6000803e3d6000fd5b505050506040513d60208110156111d157600080fd5b505161120a576040805162461bcd60e51b81526020600482015260036024820152622a191960e91b604482015290519081900360640190fd5b600580546001600160a01b0319166001600160a01b03858116918217909255604080519284168352602083019190915280517f7ac369dbd14fa5ea3f473ed67cc9d598964a77501540ba6751eb0b3decf5870d9281900390910190a160005b9392505050565b600b5481565b6001600160a01b03166000908152600f60205260409020805460018201546002830154600390930154919390929190565b6005546001600160a01b031681565b6000805460ff166112f4576040805162461bcd60e51b81526020600482015260036024820152622a191b60e91b604482015290519081900360640190fd5b6000805460ff191681556113066116a0565b9050801561132c5761132481601081111561131d57fe5b6030612a1c565b915050610d95565b61133583612a82565b9150506000805460ff19166001179055919050565b60075481565b60095481565b6012546001600160a01b031681565b6001600160a01b03166000908152600f602052604090205490565b6000805460ff166113be576040805162461bcd60e51b81526020600482015260036024820152622a191b60e91b604482015290519081900360640190fd5b6000805460ff191681556113d06116a0565b14611407576040805162461bcd60e51b8152602060048201526002602482015261543760f01b604482015290519081900360640190fd5b50600b546000805460ff1916600117905590565b6000610ce082612bb1565b600c5481565b6002805460408051602060018416156101000260001901909316849004601f81018490048402820184019092528181529291830182828015610c715780601f10610c4657610100808354040283529160200191610c71565b600080600061149284612c2b565b909250905060008260038111156114a557fe5b14611269576040805162461bcd60e51b81526020600482015260026024820152610a8760f31b604482015290519081900360640190fd5b60035461010090046001600160a01b03163314611525576040805162461bcd60e51b8152602060048201526002602482015261543160f01b604482015290519081900360640190fd5b6009541580156115355750600a54155b61156b576040805162461bcd60e51b81526020600482015260026024820152612a1960f11b604482015290519081900360640190fd5b6007849055836115a7576040805162461bcd60e51b8152602060048201526002602482015261543360f01b604482015290519081900360640190fd5b60006115b287611135565b905080156115ec576040805162461bcd60e51b8152602060048201526002602482015261150d60f21b604482015290519081900360640190fd5b6115f4612cdf565b600955670de0b6b3a7640000600a5561160c86612ce3565b90508015611646576040805162461bcd60e51b8152602060048201526002602482015261543560f01b604482015290519081900360640190fd5b8351611659906001906020870190615976565b50825161166d906002906020860190615976565b50506003805460ff90921660ff199283161790556000805490911660011790555050505050565b600080610cf283612e3e565b6000806116ab612cdf565b600954909150808214156116c457600092505050610e08565b60006116ce61290f565b600b54600c54600a54600654604080516315f2405360e01b815260048101879052602481018690526044810185905290519596509394929391926000926001600160a01b03909216916315f24053916064808301926020929190829003018186803b15801561173c57600080fd5b505afa158015611750573d6000803e3d6000fd5b505050506040513d602081101561176657600080fd5b5051905065048c273950008111156117ab576040805162461bcd60e51b815260206004820152600360248201526205431360ec1b604482015290519081900360640190fd5b6000806117b88989612eb8565b909250905060008260038111156117cb57fe5b14611803576040805162461bcd60e51b815260206004820152600360248201526254313160e81b604482015290519081900360640190fd5b61180b615963565b60008060008061182960405180602001604052808a81525087612edb565b9097509450600087600381111561183c57fe5b1461186e576118596009600689600381111561185457fe5b612f43565b9e505050505050505050505050505050610e08565b611878858c6128bb565b9097509350600087600381111561188b57fe5b146118a3576118596009600189600381111561185457fe5b6118ad848c612fa9565b909750925060008760038111156118c057fe5b146118d8576118596009600489600381111561185457fe5b6118f36040518060200160405280600854815250858c612fcf565b9097509150600087600381111561190657fe5b1461191e576118596009600589600381111561185457fe5b600660009054906101000a90046001600160a01b03166001600160a01b031663e36c26e46040518163ffffffff1660e01b815260040160206040518083038186803b15801561196c57600080fd5b505afa158015611980573d6000803e3d6000fd5b505050506040513d602081101561199657600080fd5b5051156119d5576119aa888d8d8d8861302b565b909750915060008760038111156119bd57fe5b146119d5576118596009600589600381111561185457fe5b6119e0858a8b612fcf565b909750905060008760038111156119f357fe5b14611a0b576118596009600389600381111561185457fe5b60098e9055600a819055600b839055600c829055604080518d8152602081018690528082018390526060810185905290517f4dec04e750ca11537cabcd8a9eab06494de08da3735bc8871cd41250e190bc049181900360800190a160009e50505050505050505050505050505090565b6000805460ff16611ab9576040805162461bcd60e51b81526020600482015260036024820152622a191b60e91b604482015290519081900360640190fd5b6000805460ff19168155611acf3333868661258b565b1490506000805460ff1916600117905592915050565b600a5481565b6006546000906001600160a01b031663b8168816611b0761290f565b600b54600c546008546040518563ffffffff1660e01b81526004018085815260200184815260200183815260200182815260200194505050505060206040518083038186803b158015611b5957600080fd5b505afa158015611b6d573d6000803e3d6000fd5b505050506040513d6020811015611b8357600080fd5b5051905090565b6000805460ff16611bc8576040805162461bcd60e51b81526020600482015260036024820152622a191b60e91b604482015290519081900360640190fd5b6000805460ff19169055611bde338585856132a0565b90506000805460ff191660011790559392505050565b60035460009061010090046001600160a01b03163314611c1a5761115b60016045612a1c565b600480546001600160a01b038481166001600160a01b0319831681179093556040805191909216808252602082019390935281517fca4f2f25d0898edd99413412fb94012f9e54ec8142f9b093e7720646a95b16a9929181900390910190a16000611269565b6000805460ff16611cbe576040805162461bcd60e51b81526020600482015260036024820152622a191b60e91b604482015290519081900360640190fd5b6000805460ff19168155611cd06116a0565b14611d07576040805162461bcd60e51b8152602060048201526002602482015261543760f01b604482015290519081900360640190fd5b611d0f610dad565b90506000805460ff1916600117905590565b6001600160a01b031660009081526011602052604090205490565b6001600160a01b0381166000908152600f6020526040812054819081908190818080611d6789612c2b565b935090506000816003811115611d7957fe5b14611d975760095b975060009650869550859450611dca9350505050565b611d9f6123f3565b925090506000816003811115611db157fe5b14611dbd576009611d81565b5060009650919450925090505b9193509193565b6000610ce08261347c565b6000610ce0826134f4565b6001600160a01b03918216600090815260106020908152604080832093909416825291909152205490565b6004546000906001600160a01b031633141580611e2d575033155b15611e4557611e3e60016000612a1c565b9050610e08565b60038054600480546001600160a01b03818116610100818102610100600160a81b0319871617968790556001600160a01b031990931690935560408051948390048216808652929095041660208401528351909391927ff9ffabca9c8276e99321725bcb43fb076a6c66a54b7f21c4e8146d8519b417dc92908290030190a1600454604080516001600160a01b038085168252909216602083015280517fca4f2f25d0898edd99413412fb94012f9e54ec8142f9b093e7720646a95b16a99281900390910190a160009250505090565b600080611f206116a0565b90508015611f4657611f3e816010811115611f3757fe5b6040612a1c565b915050610cf7565b61126983612ce3565b6006546001600160a01b031681565b600080611f6c858585613567565b5095945050505050565b60035461010090046001600160a01b031681565b6006546000906001600160a01b03166315f24053611fa661290f565b600b54600c546040518463ffffffff1660e01b815260040180848152602001838152602001828152602001935050505060206040518083038186803b158015611b5957600080fd5b6000806000806000611ffe6159f4565b6001600160a01b0387166000908152600f6020908152604090912060038101549183019190915261202d615963565b6040518060200160405280846020015181525090506120526009548360020154612eb8565b604085018190528482600381111561206657fe5b600381111561207157fe5b905250600090508351600381111561208557fe5b146120a4575050516007549095506000945084935091508290506122cc565b6120ac615963565b6120ba828560400151612edb565b915081858260038111156120ca57fe5b60038111156120d557fe5b90525060009050845160038111156120e957fe5b1461210b57505090516007549096506000955085945092508391506122cc9050565b61212b6040518060200160405280670de0b6b3a764000081525082613692565b606086018190528582600381111561213f57fe5b600381111561214a57fe5b9052505060018301546080850190815260408051602081019091529051815260a08501819052606085015161217e916136cc565b60c086018190528582600381111561219257fe5b600381111561219d57fe5b90525060009050845160038111156121b157fe5b146121d357505090516007549096506000955085945092508391506122cc9050565b60006121eb8560c00151600001518660800151612eb8565b915081868260038111156121fb57fe5b600381111561220657fe5b905250600090508551600381111561221a57fe5b1461223d57505091516007549097506000965086955093508492506122cc915050565b60c085015151845461224f91906137b5565b60e087018190528682600381111561226357fe5b600381111561226e57fe5b905250600090508551600381111561228257fe5b146122a557505091516007549097506000965086955093508492506122cc915050565b60608501515160e08601515160c0909601515160009b509099509097509395509293505050505b91939590929450565b6000805460ff16612313576040805162461bcd60e51b81526020600482015260036024820152622a191b60e91b604482015290519081900360640190fd5b6000805460ff191681556123256116a0565b905080156123435761132481601081111561233c57fe5b6046612a1c565b61133583613865565b600181565b60008054819060ff16612391576040805162461bcd60e51b81526020600482015260036024820152622a191b60e91b604482015290519081900360640190fd5b6000805460ff191681556123a36116a0565b905080156123ce576123c18160108111156123ba57fe5b6036612a1c565b9250600091506123df9050565b6123d933338661390d565b92509250505b6000805460ff191660011790559092909150565b600d5460009081908061240e57505060075460009150612587565b600080600061241b61290f565b9050600660009054906101000a90046001600160a01b03166001600160a01b031663e36c26e46040518163ffffffff1660e01b815260040160206040518083038186803b15801561246b57600080fd5b505afa15801561247f573d6000803e3d6000fd5b505050506040513d602081101561249557600080fd5b5051156124df576124a533613c57565b909350915060008360038111156124b857fe5b14156124cd5750600094509250612587915050565b60006007549550955050505050612587565b600654600b54600c54600d5460408051639dc8bea760e01b81526004810187905260248101949094526044840192909252606483015280516001600160a01b0390931692639dc8bea7926084808201939291829003018186803b15801561254557600080fd5b505afa158015612559573d6000803e3d6000fd5b505050506040513d604081101561256f57600080fd5b50805160209091015190965094506125879350505050565b9091565b600554604080516317b9b84b60e31b81523060048201526001600160a01b03868116602483015285811660448301526064820185905291516000938493169163bdcdc25891608480830192602092919082900301818787803b1580156125f057600080fd5b505af1158015612604573d6000803e3d6000fd5b505050506040513d602081101561261a57600080fd5b505190508015612639576126316003604a83612f43565b915050611113565b836001600160a01b0316856001600160a01b0316141561265f576126316002604b612a1c565b60006001600160a01b03878116908716141561267e57506000196126a6565b506001600160a01b038086166000908152601060209081526040808320938a16835292905220545b6000806000806126b68589612eb8565b909450925060008460038111156126c957fe5b146126e7576126da6009604b612a1c565b9650505050505050611113565b6001600160a01b038a166000908152600f602052604090205461270a9089612eb8565b9094509150600084600381111561271d57fe5b1461272e576126da6009604c612a1c565b6001600160a01b0389166000908152600f60205260409020546127519089612fa9565b9094509050600084600381111561276457fe5b14612775576126da6009604d612a1c565b6001600160a01b03808b166000908152600f6020526040808220859055918b1681522081905560001985146127cd576001600160a01b03808b166000908152601060209081526040808320938f168352929052208390555b886001600160a01b03168a6001600160a01b0316600080516020615adb8339815191528a6040518082815260200191505060405180910390a35060009a9950505050505050505050565b60008054819060ff16612857576040805162461bcd60e51b81526020600482015260036024820152622a191b60e91b604482015290519081900360640190fd5b6000805460ff191681556128696116a0565b905080156128945761288781601081111561288057fe5b6035612a1c565b9250600091506128a59050565b61289f33868661390d565b92509250505b6000805460ff1916600117905590939092509050565b60008060006128c8615963565b6128d28686612edb565b909250905060008260038111156128e557fe5b146128f65750915060009050612908565b600061290182613d1f565b9350935050505b9250929050565b601254604080516370a0823160e01b815230600482015290516000926001600160a01b03169182916370a0823191602480820192602092909190829003018186803b15801561295d57600080fd5b505afa158015612971573d6000803e3d6000fd5b505050506040513d602081101561298757600080fd5b505191505090565b6000805460ff166129cd576040805162461bcd60e51b81526020600482015260036024820152622a191b60e91b604482015290519081900360640190fd5b6000805460ff191681556129df6116a0565b905080156129fd576113248160108111156129f657fe5b604e612a1c565b612a0683613d2e565b509150506000805460ff19166001179055919050565b60007f45b96fe442630264581b197e84bbada861235052c5a1aadfff9ea4e40a969aa0836010811115612a4b57fe5b836052811115612a5757fe5b604080519283526020830191909152600082820152519081900360600190a182601081111561126957fe5b600354600090819061010090046001600160a01b03163314612aaa57611f3e60016031612a1c565b612ab2612cdf565b60095414612ac657611f3e600a6033612a1c565b82612acf61290f565b1015612ae157611f3e600e6032612a1c565b600c54831115612af757611f3e60026034612a1c565b50600c5482810390811115612b39576040805162461bcd60e51b815260206004820152600360248201526254323560e81b604482015290519081900360640190fd5b600c819055600354612b599061010090046001600160a01b031684613dfc565b600354604080516101009092046001600160a01b0316825260208201859052818101839052517f3bad0c59cf2f06e7314077049f48a93578cd16f5ef92329f1dab1420a99c177e916060908290030190a16000611269565b6000805460ff16612bef576040805162461bcd60e51b81526020600482015260036024820152622a191b60e91b604482015290519081900360640190fd5b6000805460ff19168155612c016116a0565b90508015612c1f57611324816010811115612c1857fe5b6027612a1c565b61133533600085613ed8565b6001600160a01b038116600090815260116020526040812080548291829182918291612c62575060009450849350612cda92505050565b612c728160000154600a54614884565b90945092506000846003811115612c8557fe5b14612c9a575091935060009250612cda915050565b612ca88382600101546148c3565b90945091506000846003811115612cbb57fe5b14612cd0575091935060009250612cda915050565b5060009450925050505b915091565b4390565b600354600090819061010090046001600160a01b03163314612d0b57611f3e60016042612a1c565b612d13612cdf565b60095414612d2757611f3e600a6041612a1c565b600660009054906101000a90046001600160a01b03169050826001600160a01b0316632191f92a6040518163ffffffff1660e01b815260040160206040518083038186803b158015612d7857600080fd5b505afa158015612d8c573d6000803e3d6000fd5b505050506040513d6020811015612da257600080fd5b5051612ddb576040805162461bcd60e51b81526020600482015260036024820152622a191960e91b604482015290519081900360640190fd5b600680546001600160a01b0319166001600160a01b03858116918217909255604080519284168352602083019190915280517fedffc32e068c7c95dfd4bdfd5c4d939a084d6b11c4199eac8436ed234d72f9269281900390910190a16000611269565b60008054819060ff16612e7e576040805162461bcd60e51b81526020600482015260036024820152622a191b60e91b604482015290519081900360640190fd5b6000805460ff19168155612e906116a0565b90508015612eae576123c1816010811115612ea757fe5b601e612a1c565b6123d933856148ee565b600080838311612ecf575060009050818303612908565b50600390506000612908565b6000612ee5615963565b600080612ef6866000015186614884565b90925090506000826003811115612f0957fe5b14612f2857506040805160208101909152600081529092509050612908565b60408051602081019091529081526000969095509350505050565b60007f45b96fe442630264581b197e84bbada861235052c5a1aadfff9ea4e40a969aa0846010811115612f7257fe5b846052811115612f7e57fe5b604080519283526020830191909152818101859052519081900360600190a183601081111561111357fe5b600080838301848110612fc157600092509050612908565b506002915060009050612908565b6000806000612fdc615963565b612fe68787612edb565b90925090506000826003811115612ff957fe5b1461300a5750915060009050613023565b61301c61301682613d1f565b86612fa9565b9350935050505b935093915050565b60065460408051630dce3c5b60e31b815260048101879052602481018690526044810185905290516000928392839283926001600160a01b031691636e71e2d8916064808301926020929190829003018186803b15801561308b57600080fd5b505afa15801561309f573d6000803e3d6000fd5b505050506040513d60208110156130b557600080fd5b505160065460085460408051635c0b440b60e11b8152600481018d9052602481018c9052604481018b90526064810192909252519293506000926001600160a01b039092169163b816881691608480820192602092909190829003018186803b15801561312157600080fd5b505afa158015613135573d6000803e3d6000fd5b505050506040513d602081101561314b57600080fd5b50516006546040805163327a176d60e11b8152600481018d9052602481018c9052604481018b905290519293506001600160a01b03909116916364f42eda91606480820192602092909190829003018186803b1580156131aa57600080fd5b505afa1580156131be573d6000803e3d6000fd5b505050506040513d60208110156131d457600080fd5b50511561328a576131f36040518060200160405280848152508b6128bb565b9095509250600085600381111561320657fe5b14613218575060009250613296915050565b6132228382612eb8565b9095509250600085600381111561323557fe5b14613247575060009250613296915050565b6132606040518060200160405280858152508789612fcf565b9095509350600085600381111561327357fe5b14613285575060009250613296915050565b613292565b600094508693505b5050505b9550959350505050565b6005546040805163d02f735160e01b81523060048201526001600160a01b038781166024830152868116604483015285811660648301526084820185905291516000938493169163d02f73519160a480830192602092919082900301818787803b15801561330d57600080fd5b505af1158015613321573d6000803e3d6000fd5b505050506040513d602081101561333757600080fd5b50519050801561334e576126316003601b83612f43565b846001600160a01b0316846001600160a01b03161415613374576126316006601c612a1c565b6001600160a01b0384166000908152600f60205260408120548190819061339b9087612eb8565b909350915060008360038111156133ae57fe5b146133d1576133c66009601a85600381111561185457fe5b945050505050611113565b6001600160a01b0388166000908152600f60205260409020546133f49087612fa9565b9093509050600083600381111561340757fe5b1461341f576133c66009601985600381111561185457fe5b6001600160a01b038088166000818152600f60209081526040808320879055938c168083529184902085905583518a815293519193600080516020615adb833981519152929081900390910190a360009998505050505050505050565b6000805460ff166134ba576040805162461bcd60e51b81526020600482015260036024820152622a191b60e91b604482015290519081900360640190fd5b6000805460ff191681556134cc6116a0565b905080156134ea576113248160108111156134e357fe5b6008612a1c565b6113353384614f25565b6000805460ff16613532576040805162461bcd60e51b81526020600482015260036024820152622a191b60e91b604482015290519081900360640190fd5b6000805460ff191681556135446116a0565b9050801561355b57611324816010811115612c1857fe5b61133533846000613ed8565b60008054819060ff166135a7576040805162461bcd60e51b81526020600482015260036024820152622a191b60e91b604482015290519081900360640190fd5b6000805460ff191681556135b96116a0565b905080156135e4576135d78160108111156135d057fe5b600f612a1c565b92506000915061367b9050565b836001600160a01b031663a6afed956040518163ffffffff1660e01b8152600401602060405180830381600087803b15801561361f57600080fd5b505af1158015613633573d6000803e3d6000fd5b505050506040513d602081101561364957600080fd5b505190508015613669576135d781601081111561366257fe5b6010612a1c565b613675338787876151bd565b92509250505b6000805460ff191660011790559094909350915050565b600061369c615963565b6000806136b186600001518660000151612fa9565b60408051602081019091529081529097909650945050505050565b60006136d6615963565b6000806136eb86600001518660000151614884565b909250905060008260038111156136fe57fe5b1461371d57506040805160208101909152600081529092509050612908565b6000806137326706f05b59d3b2000084612fa9565b9092509050600082600381111561374557fe5b1461376757506040805160208101909152600081529094509250612908915050565b60008061377c83670de0b6b3a76400006148c3565b9092509050600082600381111561378f57fe5b1461379657fe5b604080516020810190915290815260009a909950975050505050505050565b60006137bf615963565b6000806137d486670de0b6b3a7640000614884565b909250905060008260038111156137e757fe5b1461380657506040805160208101909152600081529092509050612908565b60008061381383886148c3565b9092509050600082600381111561382657fe5b1461384857506040805160208101909152600081529094509250612908915050565b604080516020810190915290815260009890975095505050505050565b60035460009061010090046001600160a01b0316331461388b5761115b60016047612a1c565b613893612cdf565b600954146138a75761115b600a6048612a1c565b670de0b6b3a76400008211156138c35761115b60026049612a1c565b6008805490839055604080518281526020810185905281517faaa68312e2ea9d50e16af5068410ab56e1a1fd06037b1a35664812c30f821460929181900390910190a16000611269565b60055460408051631200453160e11b81523060048201526001600160a01b0386811660248301528581166044830152606482018590529151600093849384939116916324008a629160848082019260209290919082900301818787803b15801561397657600080fd5b505af115801561398a573d6000803e3d6000fd5b505050506040513d60208110156139a057600080fd5b5051905080156139c4576139b76003603883612f43565b9250600091506130239050565b6139cc612cdf565b600954146139e0576139b7600a6039612a1c565b6139e8615a51565b6001600160a01b0386166000908152601160205260409020600101546060820152613a1286612c2b565b6080830181905260208301826003811115613a2957fe5b6003811115613a3457fe5b9052506000905081602001516003811115613a4b57fe5b14613a7557613a67600960378360200151600381111561185457fe5b935060009250613023915050565b600019851415613aa257608081015160408201819052613a989088906001615684565b60e0820152613ab9565b60408101859052613ab3878661568c565b60e08201525b613acb81608001518260e00151612eb8565b60a0830181905260208301826003811115613ae257fe5b6003811115613aed57fe5b9052506000905081602001516003811115613b0457fe5b14613b3c576040805162461bcd60e51b815260206004820152600360248201526254313760e81b604482015290519081900360640190fd5b613b4c600b548260e00151612eb8565b60c0830181905260208301826003811115613b6357fe5b6003811115613b6e57fe5b9052506000905081602001516003811115613b8557fe5b14613bbd576040805162461bcd60e51b81526020600482015260036024820152620a862760eb1b604482015290519081900360640190fd5b60a0810180516001600160a01b03808916600081815260116020908152604091829020948555600a5460019095019490945560c0860151600b81905560e087015195518251968752948601949094528481019390935291519192908a16917f1a2a22cb034d26d1854bdc6666a5b91fe25efbbb5dcad3b0355478d6f5c362a19181900360600190a360e00151600097909650945050505050565b600080600d5460001415613c72575050600754600090612cda565b613c7a6159f4565b6001600160a01b0384166000908152600f602052604090206002810154613cab57506001925060009150612cda9050565b80541580613cbb57506001810154155b15613cd0576000600754935093505050612cda565b600080613cdc87611fee565b5093505050915060006003811115613cf057fe5b826003811115613cfc57fe5b14613d105750935060009250612cda915050565b600095509350612cda92505050565b51670de0b6b3a7640000900490565b600080600080613d3c612cdf565b60095414613d5b57613d50600a604f612a1c565b93509150612cda9050565b613d65338661568c565b905080600c54019150600c54821015613dab576040805162461bcd60e51b815260206004820152600360248201526254323360e81b604482015290519081900360640190fd5b600c829055604080513381526020810183905280820184905290517fa91e67c5ea634cd43a12c5a482724b03de01e85ca68702a53d0c2f45cb7c1dc59181900360600190a160009350915050915091565b6012546040805163a9059cbb60e01b81526001600160a01b0385811660048301526024820185905291519190921691829163a9059cbb9160448082019260009290919082900301818387803b158015613e5457600080fd5b505af1158015613e68573d6000803e3d6000fd5b5050505060003d60008114613e845760208114613e8e57600080fd5b6000199150613e9a565b60206000803e60005191505b5080613ed2576040805162461bcd60e51b8152602060048201526002602482015261114d60f21b604482015290519081900360640190fd5b50505050565b6000821580613ee5575081155b613f1c576040805162461bcd60e51b81526020600482015260036024820152622a189b60e91b604482015290519081900360640190fd5b613f24615a51565b6001600160a01b0385166000908152600f60205260409020613f446123f3565b6040840181905260208401826003811115613f5b57fe5b6003811115613f6657fe5b9052506000905082602001516003811115613f7d57fe5b14613fa257613f996009602b8460200151600381111561185457fe5b92505050611269565b6000806000806000600660009054906101000a90046001600160a01b03166001600160a01b031663e36c26e46040518163ffffffff1660e01b815260040160206040518083038186803b158015613ff857600080fd5b505afa15801561400c573d6000803e3d6000fd5b505050506040513d602081101561402257600080fd5b505190508015614049576140358b611fee565b60018b018190559198509095508594505050505b6006546001600160a01b031663b816881661406261290f565b600b54600c546008546040518563ffffffff1660e01b81526004018085815260200184815260200183815260200182815260200194505050505060206040518083038186803b1580156140b457600080fd5b505afa1580156140c8573d6000803e3d6000fd5b505050506040513d60208110156140de57600080fd5b5051600387015580801561417c57506006546001600160a01b03166364f42eda61410661290f565b600b54600c546040518463ffffffff1660e01b815260040180848152602001838152602001828152602001935050505060206040518083038186803b15801561414e57600080fd5b505afa158015614162573d6000803e3d6000fd5b505050506040513d602081101561417857600080fd5b5051155b15614302576006546000906001600160a01b03166315f2405361419d61290f565b600b54600c546040518463ffffffff1660e01b815260040180848152602001838152602001828152602001935050505060206040518083038186803b1580156141e557600080fd5b505afa1580156141f9573d6000803e3d6000fd5b505050506040513d602081101561420f57600080fd5b50516006549091506000906001600160a01b0316636e71e2d861423061290f565b600b54600c546040518463ffffffff1660e01b815260040180848152602001838152602001828152602001935050505060206040518083038186803b15801561427857600080fd5b505afa15801561428c573d6000803e3d6000fd5b505050506040513d60208110156142a257600080fd5b505160408051602081019091528381529091506000906142c290836128bb565b9150506142d3896003015482612eb8565b97506142df9050615963565b6142ed888b600301546137b5565b9150506142fa818a6128bb565b985050505050505b6000198914156143385760408051602081018252908801518152865461432891906128bb565b6080890181905299506143409050565b608087018990525b891561442d57606087018a905280156143a95785548a141561436b57600186015460808801526143a4565b614373615963565b6143818860600151846158a0565b91505061438c615963565b8151885461439a91906137b5565b5160808b01525050505b614428565b6143c5604051806020016040528089604001518152508b6128bb565b60808901819052602089018260038111156143dc57fe5b60038111156143e757fe5b90525060009050876020015160038111156143fe57fe5b146144285761441a600960298960200151600381111561185457fe5b975050505050505050611269565b6144eb565b60808701899052801561447a57614442615963565b614454886080015188600001546158a0565b91505061445f615963565b815161446b90856137b5565b5160608b0152506144eb915050565b6144968960405180602001604052808a604001518152506158db565b60608901819052602089018260038111156144ad57fe5b60038111156144b857fe5b90525060009050876020015160038111156144cf57fe5b146144eb5761441a6009602a8960200151600381111561185457fe5b60055460608801516040805163eabe7d9160e01b81523060048201526001600160a01b038f8116602483015260448201939093529051600093929092169163eabe7d919160648082019260209290919082900301818787803b15801561455057600080fd5b505af1158015614564573d6000803e3d6000fd5b505050506040513d602081101561457a57600080fd5b5051905080156145a0576145916003602883612f43565b98505050505050505050611269565b6145a8612cdf565b600954146145bc57614591600a602c612a1c565b6145cc600d548960600151612eb8565b60a08a0181905260208a018260038111156145e357fe5b60038111156145ee57fe5b905250600090508860200151600381111561460557fe5b14614621576145916009602e8a60200151600381111561185457fe5b61462d600e5486612eb8565b60e08a015250865460608901516146449190612eb8565b60c08a0181905260208a0182600381111561465b57fe5b600381111561466657fe5b905250600090508860200151600381111561467d57fe5b14614699576145916009602d8a60200151600381111561185457fe5b60006146a361290f565b905082156146ae5750475b88608001518110156146d6576146c6600e602f612a1c565b9950505050505050505050611269565b6146e48d8a60800151613dfc565b60a0890151600d5560e0890151600e5560c089015188556009546002890155600188015460808a01516147179190612eb8565b9050886001016000829190505550306001600160a01b03168d6001600160a01b0316600080516020615adb8339815191528b606001516040518082815260200191505060405180910390a38c6001600160a01b03167fe5b754fb1abb7f01b499791d0b820ae3b6af3424ac1c59768edb53f4ec31a9298a608001518b60600151604051808381526020018281526020019250505060405180910390a2600560009054906101000a90046001600160a01b03166001600160a01b03166351dff989308f8c608001518d606001516040518563ffffffff1660e01b815260040180856001600160a01b03166001600160a01b03168152602001846001600160a01b03166001600160a01b03168152602001838152602001828152602001945050505050600060405180830381600087803b15801561485257600080fd5b505af1158015614866573d6000803e3d6000fd5b5060009250614873915050565b9d9c50505050505050505050505050565b6000808361489757506000905080612908565b838302838582816148a457fe5b04146148b857506002915060009050612908565b600092509050612908565b600080826148d75750600190506000612908565b60008385816148e257fe5b04915091509250929050565b6001600160a01b038216600090815260116020526040812054819015614941576040805162461bcd60e51b81526020600482015260036024820152622a189960e91b604482015290519081900360640190fd5b60055460408051634ef4c3e160e01b81523060048201526001600160a01b0387811660248301526044820187905291516000939290921691634ef4c3e19160648082019260209290919082900301818787803b1580156149a057600080fd5b505af11580156149b4573d6000803e3d6000fd5b505050506040513d60208110156149ca57600080fd5b5051905080156149ee576149e16003601f83612f43565b9250600091506129089050565b6149f6612cdf565b60095414614a0a576149e1600a6022612a1c565b614a12615a51565b614a1a6123f3565b6040830181905260208301826003811115614a3157fe5b6003811115614a3c57fe5b9052506000905081602001516003811115614a5357fe5b14614a7d57614a6f600960218360200151600381111561185457fe5b935060009250612908915050565b60808101859052614a8e86826158f2565b614a98868661568c565b60e0820181905260408051602081018252908301518152614ab991906158db565b6060830181905260208301826003811115614ad057fe5b6003811115614adb57fe5b9052506000905081602001516003811115614af257fe5b14614b2a576040805162461bcd60e51b815260206004820152600360248201526254313360e81b604482015290519081900360640190fd5b614b3a600d548260600151612fa9565b60a0830181905260208301826003811115614b5157fe5b6003811115614b5c57fe5b9052506000905081602001516003811115614b7357fe5b14614bab576040805162461bcd60e51b8152602060048201526003602482015262150c4d60ea1b604482015290519081900360640190fd5b6001600160a01b0386166000908152600f60205260409020546060820151614bd39190612fa9565b60c0830181905260208301826003811115614bea57fe5b6003811115614bf557fe5b9052506000905081602001516003811115614c0c57fe5b14614c44576040805162461bcd60e51b815260206004820152600360248201526254313560e81b604482015290519081900360640190fd5b6006546000906001600160a01b031663b8168816614c6061290f565b600b54600c546008546040518563ffffffff1660e01b81526004018085815260200184815260200183815260200182815260200194505050505060206040518083038186803b158015614cb257600080fd5b505afa158015614cc6573d6000803e3d6000fd5b505050506040513d6020811015614cdc57600080fd5b5051600654604080516338db09b960e21b815290519293506000926001600160a01b039092169163e36c26e491600480820192602092909190829003018186803b158015614d2957600080fd5b505afa158015614d3d573d6000803e3d6000fd5b505050506040513d6020811015614d5357600080fd5b50516001600160a01b0389166000908152600f602052604090205490915015614e3a57614d7e615963565b8115614daa576000614d8f8a611fee565b60408051602081019091529081529550614e29945050505050565b6001600160a01b0389166000908152600f602090815260408083205481518084018352818152825193840183529188015183529291614de991906136cc565b935090506000816003811115614dfb57fe5b14614e2657614e136009602083600381111561185457fe5b9850600097506129089650505050505050565b50505b8051614e359089612fa9565b985050505b60a0830151600d556040805160808101825260c0850151815260208082018a815260095483850190815260608085018881526001600160a01b038f166000818152600f8752889020965187559351600187015591516002860155905160039094019390935560e087015192870151845193845291830191909152825190927f4c209b5fc8ad50758f13e2e1088ba56a560dff690a1c6fef26394f4c03821c4f928290030190a2606083015160408051918252516001600160a01b038a16913091600080516020615adb8339815191529181900360200190a3505060e001516000969095509350505050565b6005546040805163368f515360e21b81523060048201526001600160a01b0385811660248301526044820185905291516000938493169163da3d454c91606480830192602092919082900301818787803b158015614f8257600080fd5b505af1158015614f96573d6000803e3d6000fd5b505050506040513d6020811015614fac57600080fd5b505190508015614fcb57614fc36003600e83612f43565b915050610ce0565b614fd3612cdf565b60095414614fe657614fc3600a80612a1c565b82614fef61290f565b101561500157614fc3600e6009612a1c565b615009615a97565b61501285612c2b565b602083018190528282600381111561502657fe5b600381111561503157fe5b905250600090508151600381111561504557fe5b1461506a57615061600960078360000151600381111561185457fe5b92505050610ce0565b615078816020015185612fa9565b604083018190528282600381111561508c57fe5b600381111561509757fe5b90525060009050815160038111156150ab57fe5b146150c7576150616009600c8360000151600381111561185457fe5b6150d3600b5485612fa9565b60608301819052828260038111156150e757fe5b60038111156150f257fe5b905250600090508151600381111561510657fe5b14615122576150616009600b8360000151600381111561185457fe5b61512c85826158f6565b90506151388585613dfc565b604080820180516001600160a01b03881660008181526011602090815290859020928355600a54600190930192909255606080860151600b819055935185518a8152938401528285019390935292517f13ed6866d4e1ee6da46f845c46d7e54120883d75c5ea9a2dacc1c4ca8984ab80929181900390910190a2600095945050505050565b60055460408051632fe3f38f60e11b81523060048201526001600160a01b0384811660248301528781166044830152868116606483015260848201869052915160009384938493911691635fc7e71e9160a48082019260209290919082900301818787803b15801561522e57600080fd5b505af1158015615242573d6000803e3d6000fd5b505050506040513d602081101561525857600080fd5b50519050801561527c5761526f6003601283612f43565b92506000915061567b9050565b615284612cdf565b600954146152985761526f600a6016612a1c565b6152a0612cdf565b846001600160a01b0316636c540baf6040518163ffffffff1660e01b815260040160206040518083038186803b1580156152d957600080fd5b505afa1580156152ed573d6000803e3d6000fd5b505050506040513d602081101561530357600080fd5b5051146153165761526f600a6011612a1c565b866001600160a01b0316866001600160a01b0316141561533c5761526f60066017612a1c565b8461534d5761526f60076015612a1c565b6000198514156153635761526f60076014612a1c565b60008061537189898961390d565b909250905081156153a15761539282601081111561538b57fe5b6018612a1c565b94506000935061567b92505050565b6005546040805163c488847b60e01b81523060048201526001600160a01b038981166024830152604482018590528251600094859492169263c488847b926064808301939192829003018186803b1580156153fb57600080fd5b505afa15801561540f573d6000803e3d6000fd5b505050506040513d604081101561542557600080fd5b5080516020909101519092509050811561546c576040805162461bcd60e51b815260206004820152600360248201526254313960e81b604482015290519081900360640190fd5b80886001600160a01b03166370a082318c6040518263ffffffff1660e01b815260040180826001600160a01b03166001600160a01b0316815260200191505060206040518083038186803b1580156154c357600080fd5b505afa1580156154d7573d6000803e3d6000fd5b505050506040513d60208110156154ed57600080fd5b50511015615528576040805162461bcd60e51b815260206004820152600360248201526205432360ec1b604482015290519081900360640190fd5b60006001600160a01b03891630141561554e57615547308d8d856132a0565b90506155d8565b6040805163b2a02ff160e01b81526001600160a01b038e811660048301528d81166024830152604482018590529151918b169163b2a02ff1916064808201926020929091908290030181600087803b1580156155a957600080fd5b505af11580156155bd573d6000803e3d6000fd5b505050506040513d60208110156155d357600080fd5b505190505b8015615611576040805162461bcd60e51b815260206004820152600360248201526254323160e81b604482015290519081900360640190fd5b886001600160a01b03168b6001600160a01b03168d6001600160a01b03167f298637f684da70674f26509b10f07ec2fbc77a335ab1e7d6215a4b2484d8bb528786604051808381526020018281526020019250505060405180910390a46000975092955050505050505b94509492505050565b600061111384845b601254604080516370a0823160e01b815230600482015290516000926001600160a01b031691839183916370a08231916024808301926020929190829003018186803b1580156156db57600080fd5b505afa1580156156ef573d6000803e3d6000fd5b505050506040513d602081101561570557600080fd5b5051604080516323b872dd60e01b81526001600160a01b038881166004830152306024830152604482018890529151929350908416916323b872dd9160648082019260009290919082900301818387803b15801561576257600080fd5b505af1158015615776573d6000803e3d6000fd5b5050505060003d60008114615792576020811461579c57600080fd5b60001991506157a8565b60206000803e60005191505b50806157e0576040805162461bcd60e51b8152602060048201526002602482015261229960f11b604482015290519081900360640190fd5b601254604080516370a0823160e01b815230600482015290516000926001600160a01b0316916370a08231916024808301926020929190829003018186803b15801561582b57600080fd5b505afa15801561583f573d6000803e3d6000fd5b505050506040513d602081101561585557600080fd5b5051905082811015615893576040805162461bcd60e51b8152602060048201526002602482015261453360f01b604482015290519081900360640190fd5b9190910395945050505050565b60006158aa615963565b6158d06040518060200160405280868152506040518060200160405280868152506136cc565b915091509250929050565b60008060006158e8615963565b6128d28686615904565b5050565b6158fe615a97565b50919050565b600061590e615963565b600080615923670de0b6b3a764000087614884565b9092509050600082600381111561593657fe5b1461595557506040805160208101909152600081529092509050612908565b6129018186600001516137b5565b6040518060200160405280600081525090565b828054600181600116156101000203166002900490600052602060002090601f016020900481019282601f106159b757805160ff19168380011785556159e4565b828001600101855582156159e4579182015b828111156159e45782518255916020019190600101906159c9565b506159f0929150615ac0565b5090565b60408051610100810190915280600081526020016000815260200160008152602001615a1e615963565b815260200160008152602001615a32615963565b8152602001615a3f615963565b8152602001615a4c615963565b905290565b6040805161010081019091528060008152602001600081526020016000815260200160008152602001600081526020016000815260200160008152602001600081525090565b604080516080810190915280600081526020016000815260200160008152602001600081525090565b610e0891905b808211156159f05760008155600101615ac656feddf252ad1be2c89b69c2b068fc378daa952ba7f163c4a11628f55a4df523b3efa265627a7a72315820d308d44804adfeb106d3b8a80209ec7371e11f95722e0219271cd085a11855c364736f6c63430005100032",
  "linkReferences": {},
  "deployedLinkReferences": {}
}