{
  "_format": "hh-sol-artifact-1",
  "contractName": "LegacyJumpRateModelV2",
  "sourceName": "contracts/LegacyJumpRateModelV2.sol",
  "abi": [
    {
      "inputs": [
        {
          "internalType": "uint256",
          "name": "baseRatePerYear",
          "type": "uint256"
        },
        {
          "internalType": "uint256",
          "name": "multiplierPerYear",
          "type": "uint256"
        },
        {
          "internalType": "uint256",
          "name": "jumpMultiplierPerYear",
          "type": "uint256"
        },
        {
          "internalType": "uint256",
          "name": "kink_",
          "type": "uint256"
        },
        {
          "internalType": "address",
          "name": "owner_",
          "type": "address"
        }
      ],
      "payable": false,
      "stateMutability": "nonpayable",
      "type": "constructor"
    },
    {
      "anonymous": false,
      "inputs": [
        {
          "indexed": true,
          "internalType": "address",
          "name": "newAdmin",
          "type": "address"
        }
      ],
      "name": "NewAdmin",
      "type": "event"
    },
    {
      "anonymous": false,
      "inputs": [
        {
          "indexed": false,
          "internalType": "uint256",
          "name": "baseRatePerBlock",
          "type": "uint256"
        },
        {
          "indexed": false,
          "internalType": "uint256",
          "name": "multiplierPerBlock",
          "type": "uint256"
        },
        {
          "indexed": false,
          "internalType": "uint256",
          "name": "jumpMultiplierPerBlock",
          "type": "uint256"
        },
        {
          "indexed": false,
          "internalType": "uint256",
          "name": "kink",
          "type": "uint256"
        }
      ],
      "name": "NewInterestParams",
      "type": "event"
    },
    {
      "anonymous": false,
      "inputs": [
        {
          "indexed": true,
          "internalType": "address",
          "name": "newPendingAdmin",
          "type": "address"
        }
      ],
      "name": "NewPendingAdmin",
      "type": "event"
    },
    {
      "constant": false,
      "inputs": [],
      "name": "_acceptPendingAdmin",
      "outputs": [],
      "payable": false,
      "stateMutability": "nonpayable",
      "type": "function"
    },
    {
      "constant": false,
      "inputs": [
        {
          "internalType": "address",
          "name": "pendingAdmin_",
          "type": "address"
        }
      ],
      "name": "_setPendingAdmin",
      "outputs": [],
      "payable": false,
      "stateMutability": "nonpayable",
      "type": "function"
    },
    {
      "constant": false,
      "inputs": [],
      "name": "acceptAdmin",
      "outputs": [],
      "payable": false,
      "stateMutability": "nonpayable",
      "type": "function"
    },
    {
      "constant": true,
      "inputs": [],
      "name": "baseRatePerBlock",
      "outputs": [
        {
          "internalType": "uint256",
          "name": "",
          "type": "uint256"
        }
      ],
      "payable": false,
      "stateMutability": "view",
      "type": "function"
    },
    {
      "constant": true,
      "inputs": [],
      "name": "blocksPerYear",
      "outputs": [
        {
          "internalType": "uint256",
          "name": "",
          "type": "uint256"
        }
      ],
      "payable": false,
      "stateMutability": "view",
      "type": "function"
    },
    {
      "constant": true,
      "inputs": [
        {
          "internalType": "uint256",
          "name": "cash",
          "type": "uint256"
        },
        {
          "internalType": "uint256",
          "name": "borrows",
          "type": "uint256"
        },
        {
          "internalType": "uint256",
          "name": "reserves",
          "type": "uint256"
        }
      ],
      "name": "getBorrowRate",
      "outputs": [
        {
          "internalType": "uint256",
          "name": "",
          "type": "uint256"
        }
      ],
      "payable": false,
      "stateMutability": "view",
      "type": "function"
    },
    {
      "constant": true,
      "inputs": [
        {
          "internalType": "uint256",
          "name": "_totalCash",
          "type": "uint256"
        },
        {
          "internalType": "uint256",
          "name": "_totalBorrows",
          "type": "uint256"
        },
        {
          "internalType": "uint256",
          "name": "_totalReserves",
          "type": "uint256"
        },
        {
          "internalType": "uint256",
          "name": "_totalSupply",
          "type": "uint256"
        }
      ],
      "name": "getExchangeRate",
      "outputs": [
        {
          "internalType": "enum CarefulMath.MathError",
          "name": "",
          "type": "uint8"
        },
        {
          "internalType": "uint256",
          "name": "",
          "type": "uint256"
        }
      ],
      "payable": false,
      "stateMutability": "pure",
      "type": "function"
    },
    {
      "constant": true,
      "inputs": [
        {
          "internalType": "uint256",
          "name": "cash",
          "type": "uint256"
        },
        {
          "internalType": "uint256",
          "name": "borrows",
          "type": "uint256"
        },
        {
          "internalType": "uint256",
          "name": "reserves",
          "type": "uint256"
        },
        {
          "internalType": "uint256",
          "name": "reserveFactorMantissa",
          "type": "uint256"
        }
      ],
      "name": "getSupplyRate",
      "outputs": [
        {
          "internalType": "uint256",
          "name": "",
          "type": "uint256"
        }
      ],
      "payable": false,
      "stateMutability": "view",
      "type": "function"
    },
    {
      "constant": true,
      "inputs": [
        {
          "internalType": "uint256",
          "name": "cash",
          "type": "uint256"
        },
        {
          "internalType": "uint256",
          "name": "borrows",
          "type": "uint256"
        },
        {
          "internalType": "uint256",
          "name": "reserves",
          "type": "uint256"
        }
      ],
      "name": "isAboveOptimal",
      "outputs": [
        {
          "internalType": "bool",
          "name": "",
          "type": "bool"
        }
      ],
      "payable": false,
      "stateMutability": "view",
      "type": "function"
    },
    {
      "constant": true,
      "inputs": [],
      "name": "isInterestRateModel",
      "outputs": [
        {
          "internalType": "bool",
          "name": "",
          "type": "bool"
        }
      ],
      "payable": false,
      "stateMutability": "view",
      "type": "function"
    },
    {
      "constant": true,
      "inputs": [],
      "name": "isTropykusInterestRateModel",
      "outputs": [
        {
          "internalType": "bool",
          "name": "",
          "type": "bool"
        }
      ],
      "payable": false,
      "stateMutability": "view",
      "type": "function"
    },
    {
      "constant": true,
      "inputs": [],
      "name": "jumpMultiplierPerBlock",
      "outputs": [
        {
          "internalType": "uint256",
          "name": "",
          "type": "uint256"
        }
      ],
      "payable": false,
      "stateMutability": "view",
      "type": "function"
    },
    {
      "constant": true,
      "inputs": [],
      "name": "kink",
      "outputs": [
        {
          "internalType": "uint256",
          "name": "",
          "type": "uint256"
        }
      ],
      "payable": false,
      "stateMutability": "view",
      "type": "function"
    },
    {
      "constant": true,
      "inputs": [],
      "name": "multiplierPerBlock",
      "outputs": [
        {
          "internalType": "uint256",
          "name": "",
          "type": "uint256"
        }
      ],
      "payable": false,
      "stateMutability": "view",
      "type": "function"
    },
    {
      "constant": true,
      "inputs": [],
      "name": "owner",
      "outputs": [
        {
          "internalType": "address",
          "name": "",
          "type": "address"
        }
      ],
      "payable": false,
      "stateMutability": "view",
      "type": "function"
    },
    {
      "constant": true,
      "inputs": [],
      "name": "pendingAdmin",
      "outputs": [
        {
          "internalType": "address",
          "name": "",
          "type": "address"
        }
      ],
      "payable": false,
      "stateMutability": "view",
      "type": "function"
    },
    {
      "constant": false,
      "inputs": [
        {
          "internalType": "uint256",
          "name": "blocksPerYear_",
          "type": "uint256"
        }
      ],
      "name": "setBlocksPerYear",
      "outputs": [],
      "payable": false,
      "stateMutability": "nonpayable",
      "type": "function"
    },
    {
      "constant": false,
      "inputs": [
        {
          "internalType": "address",
          "name": "pendingAdmin_",
          "type": "address"
        }
      ],
      "name": "setPendingAdmin",
      "outputs": [],
      "payable": false,
      "stateMutability": "nonpayable",
      "type": "function"
    },
    {
      "constant": false,
      "inputs": [
        {
          "internalType": "uint256",
          "name": "baseRatePerYear",
          "type": "uint256"
        },
        {
          "internalType": "uint256",
          "name": "multiplierPerYear",
          "type": "uint256"
        },
        {
          "internalType": "uint256",
          "name": "jumpMultiplierPerYear",
          "type": "uint256"
        },
        {
          "internalType": "uint256",
          "name": "kink_",
          "type": "uint256"
        }
      ],
      "name": "updateJumpRateModel",
      "outputs": [],
      "payable": false,
      "stateMutability": "nonpayable",
      "type": "function"
    },
    {
      "constant": true,
      "inputs": [
        {
          "internalType": "uint256",
          "name": "cash",
          "type": "uint256"
        },
        {
          "internalType": "uint256",
          "name": "borrows",
          "type": "uint256"
        },
        {
          "internalType": "uint256",
          "name": "reserves",
          "type": "uint256"
        }
      ],
      "name": "utilizationRate",
      "outputs": [
        {
          "internalType": "uint256",
          "name": "",
          "type": "uint256"
        }
      ],
      "payable": false,
      "stateMutability": "pure",
      "type": "function"
    }
  ],
  "bytecode": "0x60806040523480156200001157600080fd5b506040516200123c3803806200123c833981810160405260a08110156200003757600080fd5b50805160208201516040808401516060850151608090950151600380546001600160a01b038084166001600160a01b0319928316179283905560018054909216331790915562100a40600090815594519697959693959492938893889388938893889392909116917f71614071b88dee5e0b2ae578a9dd7b2ebbe9ae832ba419dc0242cd065a290b6c91a2620000d9858585856001600160e01b03620000e916565b505050505050505050506200033a565b6200010560005485620001e260201b62000acf1790919060201c565b600681905550620001616200012b826000546200023560201b62000a761790919060201c565b6200014d670de0b6b3a7640000866200023560201b62000a761790919060201c565b620001e260201b62000acf1790919060201c565b6005819055506200018360005483620001e260201b62000acf1790919060201c565b60078190556008829055600654600554604080519283526020830191909152818101929092526060810183905290517f6960ab234c7ef4b0c9197100f5393cfcde7c453ac910a27bd2000aa1dd4c068d9181900360800190a150505050565b60006200022c83836040518060400160405280601a81526020017f536166654d6174683a206469766973696f6e206279207a65726f0000000000008152506200029360201b60201c565b90505b92915050565b60008262000246575060006200022f565b828202828482816200025457fe5b04146200022c5760405162461bcd60e51b81526004018080602001828103825260218152602001806200121b6021913960400191505060405180910390fd5b60008183620003235760405162461bcd60e51b81526004018080602001828103825283818151815260200191508051906020019080838360005b83811015620002e7578181015183820152602001620002cd565b50505050905090810190601f168015620003155780820380516001836020036101000a031916815260200191505b509250505060405180910390fd5b5060008385816200033057fe5b0495945050505050565b610ed1806200034a6000396000f3fe608060405234801561001057600080fd5b506004361061012c5760003560e01c80638da5cb5b116100ad578063b9f9850a11610071578063b9f9850a1461032c578063e36c26e414610334578063e5fa2b701461033c578063f14039de14610359578063fd2da339146103615761012c565b80638da5cb5b1461026d5780639dc8bea714610275578063a385fb96146102cf578063b71d1a0c146102d7578063b8168816146102fd5761012c565b80634a198ca6116100f45780634a198ca6146101e55780634dd18bf5146101ed57806364f42eda146102135780636e71e2d81461023c5780638726bb89146102655761012c565b80630e18b6811461013157806315f240531461013b5780632037f3e7146101765780632191f92a146101a557806326782247146101c1575b600080fd5b610139610369565b005b6101646004803603606081101561015157600080fd5b5080359060208101359060400135610408565b60408051918252519081900360200190f35b6101396004803603608081101561018c57600080fd5b508035906020810135906040810135906060013561041f565b6101ad61047a565b604080519115158252519081900360200190f35b6101c961047f565b604080516001600160a01b039092168252519081900360200190f35b61013961048e565b6101396004803603602081101561020357600080fd5b50356001600160a01b03166104ff565b6101ad6004803603606081101561022957600080fd5b50803590602081013590604001356105d8565b6101646004803603606081101561025257600080fd5b50803590602081013590604001356105e1565b610164610637565b6101c961063d565b6102a46004803603608081101561028b57600080fd5b508035906020810135906040810135906060013561064c565b604051808360038111156102b457fe5b60ff1681526020018281526020019250505060405180910390f35b6101646106cd565b610139600480360360208110156102ed57600080fd5b50356001600160a01b03166106d3565b6101646004803603608081101561031357600080fd5b508035906020810135906040810135906060013561077f565b6101646107fe565b6101ad610804565b6101396004803603602081101561035257600080fd5b5035610809565b610164610858565b61016461085e565b6004546001600160a01b031633146103b25760405162461bcd60e51b8152600401808060200182810382526043815260200180610dd36043913960600191505060405180910390fd5b60038054336001600160a01b031991821617918290556004805490911690556040516001600160a01b03909116907f71614071b88dee5e0b2ae578a9dd7b2ebbe9ae832ba419dc0242cd065a290b6c90600090a2565b6000610415848484610864565b90505b9392505050565b6003546001600160a01b031633146104685760405162461bcd60e51b8152600401808060200182810382526026815260200180610e776026913960400191505060405180910390fd5b6104748484848461092d565b50505050565b600181565b6004546001600160a01b031681565b6002546001600160a01b031633146104db576040805162461bcd60e51b815260206004820152600b60248201526a2727a72722aba0a226a4a760a91b604482015290519081900360640190fd5b600254600180546001600160a01b0319166001600160a01b03909216919091179055565b6003546001600160a01b031633146105485760405162461bcd60e51b8152600401808060200182810382526040815260200180610e376040913960400191505060405180910390fd5b6001600160a01b038116610588576040805162461bcd60e51b8152602060048201526002602482015261413160f01b604482015290519081900360640190fd5b600480546001600160a01b0319166001600160a01b0383811691909117918290556040519116907f69d78e38a01985fbb1462961809b4b2d65531bc93b2b94037f3334b82ca4a75690600090a250565b60009392505050565b6000826105f057506000610418565b61041561061383610607878763ffffffff6109d116565b9063ffffffff610a3416565b61062b85670de0b6b3a764000063ffffffff610a7616565b9063ffffffff610acf16565b60055481565b6003546001600160a01b031681565b600080610657610dbf565b600080610665898989610b11565b9092509050600082600381111561067857fe5b1461068b57509250600091506106c49050565b6106958187610b5e565b9350915060008260038111156106a757fe5b146106ba57509250600091506106c49050565b5050516000925090505b94509492505050565b60005481565b6001546001600160a01b0316331461071d576040805162461bcd60e51b81526020600482015260086024820152672727a720a226a4a760c11b604482015290519081900360640190fd5b6001600160a01b03811661075d576040805162461bcd60e51b8152602060048201526002602482015261413160f01b604482015290519081900360640190fd5b600280546001600160a01b0319166001600160a01b0392909216919091179055565b60008061079a670de0b6b3a76400008463ffffffff610a3416565b905060006107a9878787610864565b905060006107c9670de0b6b3a764000061062b848663ffffffff610a7616565b90506107f2670de0b6b3a764000061062b836107e68c8c8c6105e1565b9063ffffffff610a7616565b98975050505050505050565b60075481565b600081565b6001546001600160a01b03163314610853576040805162461bcd60e51b81526020600482015260086024820152672727a720a226a4a760c11b604482015290519081900360640190fd5b600055565b60065481565b60085481565b6000806108728585856105e1565b905060085481116108b8576108b06006546108a4670de0b6b3a764000061062b60055486610a7690919063ffffffff16565b9063ffffffff6109d116565b915050610418565b60006108e36006546108a4670de0b6b3a764000061062b600554600854610a7690919063ffffffff16565b905060006108fc60085484610a3490919063ffffffff16565b9050610923826108a4670de0b6b3a764000061062b60075486610a7690919063ffffffff16565b9350505050610418565b60005461094190859063ffffffff610acf16565b60065560005461095b90610613908363ffffffff610a7616565b60055560005461097290839063ffffffff610acf16565b60078190556008829055600654600554604080519283526020830191909152818101929092526060810183905290517f6960ab234c7ef4b0c9197100f5393cfcde7c453ac910a27bd2000aa1dd4c068d9181900360800190a150505050565b600082820183811015610a2b576040805162461bcd60e51b815260206004820152601b60248201527f536166654d6174683a206164646974696f6e206f766572666c6f770000000000604482015290519081900360640190fd5b90505b92915050565b6000610a2b83836040518060400160405280601f81526020017f536166654d6174683a207375627472616374696f6e20756e646572666c6f7700815250610c10565b600082610a8557506000610a2e565b82820282848281610a9257fe5b0414610a2b5760405162461bcd60e51b8152600401808060200182810382526021815260200180610e166021913960400191505060405180910390fd5b6000610a2b83836040518060400160405280601a81526020017f536166654d6174683a206469766973696f6e206279207a65726f000000000000815250610ca7565b600080600080610b218787610d0c565b90925090506000826003811115610b3457fe5b14610b455750915060009050610b56565b610b4f8186610d32565b9350935050505b935093915050565b6000610b68610dbf565b600080610b7d86670de0b6b3a7640000610d55565b90925090506000826003811115610b9057fe5b14610baf57506040805160208101909152600081529092509050610c09565b600080610bbc8388610d94565b90925090506000826003811115610bcf57fe5b14610bf157506040805160208101909152600081529094509250610c09915050565b60408051602081019091529081526000955093505050505b9250929050565b60008184841115610c9f5760405162461bcd60e51b81526004018080602001828103825283818151815260200191508051906020019080838360005b83811015610c64578181015183820152602001610c4c565b50505050905090810190601f168015610c915780820380516001836020036101000a031916815260200191505b509250505060405180910390fd5b505050900390565b60008183610cf65760405162461bcd60e51b8152602060048201818152835160248401528351909283926044909101919085019080838360008315610c64578181015183820152602001610c4c565b506000838581610d0257fe5b0495945050505050565b600080838301848110610d2457600092509050610c09565b506002915060009050610c09565b600080838311610d49575060009050818303610c09565b50600390506000610c09565b60008083610d6857506000905080610c09565b83830283858281610d7557fe5b0414610d8957506002915060009050610c09565b600092509050610c09565b60008082610da85750600190506000610c09565b6000838581610db357fe5b04915091509250929050565b604051806020016040528060008152509056fe426173654a756d70526174654d6f64656c56323a3a61636365707441646d696e3a2043616c6c206d75737420636f6d652066726f6d2070656e64696e6741646d696e2e536166654d6174683a206d756c7469706c69636174696f6e206f766572666c6f77426173654a756d70526174654d6f64656c56323a3a73657450656e64696e6741646d696e3a2043616c6c206d75737420636f6d652066726f6d206f776e65722e6f6e6c7920746865206f776e6572206d61792063616c6c20746869732066756e6374696f6e2ea265627a7a72315820c4a4b0923967a5594b1c8b02b3043c154c2ad22fa3d3207ae2238864c68c512164736f6c63430005100032536166654d6174683a206d756c7469706c69636174696f6e206f766572666c6f77",
  "linkReferences": {},
  "deployedLinkReferences": {}
}