{
  "_format": "hh-sol-artifact-1",
  "contractName": "PriceOracleAdapterMoc",
  "sourceName": "contracts/PriceOracleAdapterMoc.sol",
  "abi": [
    {
      "inputs": [
        {
          "internalType": "address",
          "name": "guardian_",
          "type": "address"
        },
        {
          "internalType": "address",
          "name": "priceProvider",
          "type": "address"
        }
      ],
      "payable": false,
      "stateMutability": "nonpayable",
      "type": "constructor"
    },
    {
      "anonymous": false,
      "inputs": [
        {
          "indexed": false,
          "internalType": "address",
          "name": "oldGuardian",
          "type": "address"
        },
        {
          "indexed": false,
          "internalType": "address",
          "name": "newGuardian",
          "type": "address"
        }
      ],
      "name": "NewGuardian",
      "type": "event"
    },
    {
      "anonymous": false,
      "inputs": [
        {
          "indexed": false,
          "internalType": "address",
          "name": "oldAddress",
          "type": "address"
        },
        {
          "indexed": false,
          "internalType": "address",
          "name": "newAddress",
          "type": "address"
        }
      ],
      "name": "PriceOracleAdapterUpdated",
      "type": "event"
    },
    {
      "constant": true,
      "inputs": [
        {
          "internalType": "address",
          "name": "",
          "type": "address"
        }
      ],
      "name": "assetPrices",
      "outputs": [
        {
          "internalType": "uint256",
          "name": "",
          "type": "uint256"
        }
      ],
      "payable": false,
      "stateMutability": "view",
      "type": "function"
    },
    {
      "constant": true,
      "inputs": [],
      "name": "guardian",
      "outputs": [
        {
          "internalType": "address",
          "name": "",
          "type": "address"
        }
      ],
      "payable": false,
      "stateMutability": "view",
      "type": "function"
    },
    {
      "constant": true,
      "inputs": [],
      "name": "priceProviderMoC",
      "outputs": [
        {
          "internalType": "contract PriceProviderMoC",
          "name": "",
          "type": "address"
        }
      ],
      "payable": false,
      "stateMutability": "view",
      "type": "function"
    },
    {
      "constant": false,
      "inputs": [
        {
          "internalType": "address",
          "name": "newGuardian",
          "type": "address"
        }
      ],
      "name": "setGuardian",
      "outputs": [],
      "payable": false,
      "stateMutability": "nonpayable",
      "type": "function"
    },
    {
      "constant": false,
      "inputs": [
        {
          "internalType": "address",
          "name": "priceProviderAddress",
          "type": "address"
        }
      ],
      "name": "setPriceProvider",
      "outputs": [],
      "payable": false,
      "stateMutability": "nonpayable",
      "type": "function"
    }
  ],
  "bytecode": "0x608060405234801561001057600080fd5b506040516106593803806106598339818101604052604081101561003357600080fd5b5080516020909101516001600160a01b0382166100815760405162461bcd60e51b815260040180806020018281038252602e8152602001806105f8602e913960400191505060405180910390fd5b6001600160a01b0381166100c65760405162461bcd60e51b81526004018080602001828103825260338152602001806106266033913960400191505060405180910390fd5b600080546001600160a01b039384166001600160a01b031991821617909155600180549290931691161790556104f7806101016000396000f3fe608060405234801561001057600080fd5b50600436106100575760003560e01c806303fa251b1461005c578063372aa22414610080578063452a9320146100a85780635e9a523c146100b05780638a0dac4a146100e8575b600080fd5b61006461010e565b604080516001600160a01b039092168252519081900360200190f35b6100a66004803603602081101561009657600080fd5b50356001600160a01b031661011d565b005b61006461020e565b6100d6600480360360208110156100c657600080fd5b50356001600160a01b031661021d565b60408051918252519081900360200190f35b6100a6600480360360208110156100fe57600080fd5b50356001600160a01b03166102ea565b6001546001600160a01b031681565b6000546001600160a01b031633146101665760405162461bcd60e51b81526004018080602001828103825260388152602001806104076038913960400191505060405180910390fd5b6001600160a01b0381166101ab5760405162461bcd60e51b815260040180806020018281038252602d815260200180610496602d913960400191505060405180910390fd5b600180546001600160a01b038381166001600160a01b0319831681179093556040805191909216808252602082019390935281517f58d7caa9bcc8339b310213ec53c711c9157920c93aef03ac3c4a16ce01bc602e929181900390910190a15050565b6000546001600160a01b031681565b6000806000600160009054906101000a90046001600160a01b03166001600160a01b03166359e02dd76040518163ffffffff1660e01b8152600401604080518083038186803b15801561026f57600080fd5b505afa158015610283573d6000803e3d6000fd5b505050506040513d604081101561029957600080fd5b5080516020909101519092509050806102e35760405162461bcd60e51b815260040180806020018281038252602b8152602001806103dc602b913960400191505060405180910390fd5b5092915050565b6000546001600160a01b031633146103335760405162461bcd60e51b81526004018080602001828103825260248152602001806104726024913960400191505060405180910390fd5b6001600160a01b0381166103785760405162461bcd60e51b815260040180806020018281038252603381526020018061043f6033913960400191505060405180910390fd5b600080546001600160a01b038381166001600160a01b0319831681179093556040805191909216808252602082019390935281517f08fdaf06427a2010e5958f4329b566993472d14ce81d3f16ce7f2a2660da98e3929181900390910190a1505056fe50726963654f7261636c65416461707465724d6f633a204f7261636c652068617665206e6f20507269636550726963654f7261636c65416461707465724d6f633a206f6e6c7920677561726469616e206d61792073657420746865206164647265737350726963654f7261636c65416461707465724d6f633a206775617264696e20616464726573732063616e206e6f74206265203050726963654f7261636c65416461707465724d6f633a206f6e6c7920677561726469616e50726963654f7261636c65416461707465724d6f633a206164647265737320636f756c64206e6f742062652030a265627a7a72315820ccd85d809aa69b9b6baafa467b766cd8ba93c44970ff843db25351698a78da4564736f6c6343000510003250726963654f7261636c65416461707465724d6f633a20677561726469616e20636f756c64206e6f74206265203050726963654f7261636c65416461707465724d6f633a20707269636550726f766964657220636f756c64206e6f742062652030",
  "linkReferences": {},
  "deployedLinkReferences": {}
}