{
  "_format": "hh-sol-artifact-1",
  "contractName": "CRBTCCompanion",
  "sourceName": "contracts/CRBTCCompanion.sol",
  "abi": [
    {
      "inputs": [
        {
          "internalType": "contract ComptrollerG6",
          "name": "_comptroller",
          "type": "address"
        },
        {
          "internalType": "address",
          "name": "_crbtcAddress",
          "type": "address"
        },
        {
          "internalType": "address",
          "name": "_oracle",
          "type": "address"
        }
      ],
      "payable": false,
      "stateMutability": "nonpayable",
      "type": "constructor"
    },
    {
      "anonymous": false,
      "inputs": [
        {
          "indexed": false,
          "internalType": "uint256",
          "name": "error",
          "type": "uint256"
        },
        {
          "indexed": false,
          "internalType": "uint256",
          "name": "info",
          "type": "uint256"
        },
        {
          "indexed": false,
          "internalType": "uint256",
          "name": "detail",
          "type": "uint256"
        }
      ],
      "name": "Failure",
      "type": "event"
    },
    {
      "constant": true,
      "inputs": [],
      "name": "comptroller",
      "outputs": [
        {
          "internalType": "contract ComptrollerG6",
          "name": "",
          "type": "address"
        }
      ],
      "payable": false,
      "stateMutability": "view",
      "type": "function"
    },
    {
      "constant": true,
      "inputs": [],
      "name": "crbtcAddress",
      "outputs": [
        {
          "internalType": "address",
          "name": "",
          "type": "address"
        }
      ],
      "payable": false,
      "stateMutability": "view",
      "type": "function"
    },
    {
      "constant": true,
      "inputs": [],
      "name": "getTotalBorrowsInOtherMarkets",
      "outputs": [
        {
          "internalType": "uint256",
          "name": "",
          "type": "uint256"
        },
        {
          "internalType": "uint256",
          "name": "",
          "type": "uint256"
        },
        {
          "internalType": "uint256",
          "name": "",
          "type": "uint256"
        }
      ],
      "payable": false,
      "stateMutability": "view",
      "type": "function"
    },
    {
      "constant": true,
      "inputs": [],
      "name": "marketCapThresholdMantissa",
      "outputs": [
        {
          "internalType": "uint256",
          "name": "",
          "type": "uint256"
        }
      ],
      "payable": false,
      "stateMutability": "view",
      "type": "function"
    },
    {
      "constant": true,
      "inputs": [],
      "name": "oracle",
      "outputs": [
        {
          "internalType": "address",
          "name": "",
          "type": "address"
        }
      ],
      "payable": false,
      "stateMutability": "view",
      "type": "function"
    },
    {
      "constant": true,
      "inputs": [],
      "name": "owner",
      "outputs": [
        {
          "internalType": "address",
          "name": "",
          "type": "address"
        }
      ],
      "payable": false,
      "stateMutability": "view",
      "type": "function"
    },
    {
      "constant": false,
      "inputs": [
        {
          "internalType": "uint256",
          "name": "_marketCapThresholdMantissa",
          "type": "uint256"
        }
      ],
      "name": "setMarketCapThreshold",
      "outputs": [],
      "payable": false,
      "stateMutability": "nonpayable",
      "type": "function"
    },
    {
      "constant": false,
      "inputs": [
        {
          "internalType": "uint256",
          "name": "totalSupply",
          "type": "uint256"
        },
        {
          "internalType": "uint256",
          "name": "mintAmount",
          "type": "uint256"
        },
        {
          "internalType": "uint256",
          "name": "exchangeRateMantissa",
          "type": "uint256"
        }
      ],
      "name": "verifySupplyMarketCapLimit",
      "outputs": [],
      "payable": false,
      "stateMutability": "nonpayable",
      "type": "function"
    },
    {
      "constant": false,
      "inputs": [
        {
          "internalType": "uint256",
          "name": "underlyingAmount",
          "type": "uint256"
        },
        {
          "internalType": "uint256",
          "name": "mintAmount",
          "type": "uint256"
        }
      ],
      "name": "verifySupplyPerAccountLimit",
      "outputs": [],
      "payable": false,
      "stateMutability": "nonpayable",
      "type": "function"
    }
  ],
  "bytecode": "0x608060405234801561001057600080fd5b50604051610c91380380610c918339818101604052606081101561003357600080fd5b50805160208201516040909201519091906001600160a01b038316610084576040805162461bcd60e51b8152602060048201526002602482015261413160f01b604482015290519081900360640190fd5b6001600160a01b0382166100c4576040805162461bcd60e51b8152602060048201526002602482015261413160f01b604482015290519081900360640190fd5b6001600160a01b038116610104576040805162461bcd60e51b8152602060048201526002602482015261413160f01b604482015290519081900360640190fd5b600180546001600160a01b03199081163317909155600080546001600160a01b03958616908316179055600380549385169382169390931790925560048054919093169116179055610b368061015b6000396000f3fe608060405234801561001057600080fd5b50600436106100935760003560e01c80637dc0d1d0116100665780637dc0d1d0146101045780638da5cb5b1461010c578063c9be579b14610114578063da75e1a014610133578063ff29071c1461015657610093565b80632335f4021461009857806327e323f4146100b25780635fe3b567146100d8578063607f9f15146100fc575b600080fd5b6100a061017f565b60408051918252519081900360200190f35b6100ba610185565b60408051938452602084019290925282820152519081900360600190f35b6100e06104c9565b604080516001600160a01b039092168252519081900360200190f35b6100e06104d8565b6100e06104e7565b6100e06104f6565b6101316004803603602081101561012a57600080fd5b5035610505565b005b6101316004803603604081101561014957600080fd5b5080359060200135610553565b6101316004803603606081101561016c57600080fd5b50803590602081013590604001356105a8565b60025481565b600080600080600060606000809054906101000a90046001600160a01b03166001600160a01b031663b0772d0b6040518163ffffffff1660e01b815260040160006040518083038186803b1580156101dc57600080fd5b505afa1580156101f0573d6000803e3d6000fd5b505050506040513d6000823e601f3d908101601f19168201604052602081101561021957600080fd5b810190808051604051939291908464010000000082111561023957600080fd5b90830190602082018581111561024e57600080fd5b825186602082028301116401000000008211171561026b57600080fd5b82525081516020918201928201910280838360005b83811015610298578181015183820152602001610280565b50505050905001604052505050905060008090505b81518110156104215760008282815181106102c457fe5b60209081029190910101516003549091506001600160a01b03808316911614156102ee5750610419565b6000816001600160a01b03166347bd37186040518163ffffffff1660e01b815260040160206040518083038186803b15801561032957600080fd5b505afa15801561033d573d6000803e3d6000fd5b505050506040513d602081101561035357600080fd5b5051600480546040805163fc57d4df60e01b81526001600160a01b0387811694820194909452905193945091169163fc57d4df91602480820192602092909190829003018186803b1580156103a757600080fd5b505afa1580156103bb573d6000803e3d6000fd5b505050506040513d60208110156103d157600080fd5b50519450846103f157600d9850600097508796506104c495505050505050565b6103f9610ac4565b50604080516020810190915285815261041381838961069b565b96505050505b6001016102ad565b50600480546003546040805163fc57d4df60e01b81526001600160a01b03928316948101949094525191169163fc57d4df916024808301926020929190829003018186803b15801561047257600080fd5b505afa158015610486573d6000803e3d6000fd5b505050506040513d602081101561049c57600080fd5b50519150816104b957600d9550600094508493506104c492505050565b600095509193509150505b909192565b6000546001600160a01b031681565b6003546001600160a01b031681565b6004546001600160a01b031681565b6001546001600160a01b031681565b6001546001600160a01b0316331461054e5760405162461bcd60e51b815260040180806020018281038252602a815260200180610ad8602a913960400191505060405180910390fd5b600255565b600061055f83836106ce565b9150506658d15e176280008111156105a3576040805162461bcd60e51b81526020600482015260026024820152610a4760f31b604482015290519081900360640190fd5b505050565b6000806105b3610185565b925092505060006105d2856040518060200160405280878152506106f7565b9150506105dd610ac4565b61062161060d60405180602001604052806105f88b8761074a565b90526040805160208101909152888152610780565b604051806020016040528086815250610780565b905061062b610ac4565b6106536040518060200160405280878152506040518060200160405280600254815250610780565b8251815191925010610691576040805162461bcd60e51b8152602060048201526002602482015261523960f01b604482015290519081900360640190fd5b5050505050505050565b60006106a5610ac4565b6106af85856107bf565b90506106c36106bd826107e9565b8461074a565b9150505b9392505050565b6000808383018481106106e6576000925090506106f0565b5060029150600090505b9250929050565b6000806000610704610ac4565b61070e86866107f8565b9092509050600082600381111561072157fe5b1461073257509150600090506106f0565b600061073d826107e9565b9350935050509250929050565b60006106c78383604051806040016040528060118152602001706164646974696f6e206f766572666c6f7760781b815250610857565b610788610ac4565b6040518060200160405280670de0b6b3a76400006107ae866000015186600001516108f2565b816107b557fe5b0490529392505050565b6107c7610ac4565b60405180602001604052806107e08560000151856108f2565b90529392505050565b51670de0b6b3a7640000900490565b6000610802610ac4565b600080610817670de0b6b3a764000087610934565b9092509050600082600381111561082a57fe5b14610849575060408051602081019091526000815290925090506106f0565b61073d818660000151610973565b600083830182858210156108e95760405162461bcd60e51b81526004018080602001828103825283818151815260200191508051906020019080838360005b838110156108ae578181015183820152602001610896565b50505050905090810190601f1680156108db5780820380516001836020036101000a031916815260200191505b509250505060405180910390fd5b50949350505050565b60006106c783836040518060400160405280601781526020017f6d756c7469706c69636174696f6e206f766572666c6f77000000000000000000815250610a23565b60008083610947575060009050806106f0565b8383028385828161095457fe5b0414610968575060029150600090506106f0565b6000925090506106f0565b600061097d610ac4565b60008061099286670de0b6b3a7640000610934565b909250905060008260038111156109a557fe5b146109c4575060408051602081019091526000815290925090506106f0565b6000806109d18388610a99565b909250905060008260038111156109e457fe5b14610a06575060408051602081019091526000815290945092506106f0915050565b604080516020810190915290815260009890975095505050505050565b6000831580610a30575082155b15610a3d575060006106c7565b83830283858281610a4a57fe5b041483906108e95760405162461bcd60e51b81526020600482018181528351602484015283519092839260449091019190850190808383600083156108ae578181015183820152602001610896565b60008082610aad57506001905060006106f0565b6000838581610ab857fe5b04915091509250929050565b604051806020016040528060008152509056fe596f7520617265206e6f7420616c6c6f77656420746f20706572666f726d207468697320616374696f6ea265627a7a72315820bb6778429e0edd9f01da2ddf3ae7eece63fbfbdc6494ff33aa59e1c9950c84c364736f6c63430005100032",
  "linkReferences": {},
  "deployedLinkReferences": {}
}