{
  "_format": "hh-sol-artifact-1",
  "contractName": "JumpRateModel",
  "sourceName": "contracts/JumpRateModel.sol",
  "abi": [
    {
      "inputs": [
        {
          "internalType": "uint256",
          "name": "baseRatePerYear",
          "type": "uint256"
        },
        {
          "internalType": "uint256",
          "name": "multiplierPerYear",
          "type": "uint256"
        },
        {
          "internalType": "uint256",
          "name": "jumpMultiplierPerYear",
          "type": "uint256"
        },
        {
          "internalType": "uint256",
          "name": "kink_",
          "type": "uint256"
        }
      ],
      "payable": false,
      "stateMutability": "nonpayable",
      "type": "constructor"
    },
    {
      "anonymous": false,
      "inputs": [
        {
          "indexed": false,
          "internalType": "uint256",
          "name": "baseRatePerBlock",
          "type": "uint256"
        },
        {
          "indexed": false,
          "internalType": "uint256",
          "name": "multiplierPerBlock",
          "type": "uint256"
        },
        {
          "indexed": false,
          "internalType": "uint256",
          "name": "jumpMultiplierPerBlock",
          "type": "uint256"
        },
        {
          "indexed": false,
          "internalType": "uint256",
          "name": "kink",
          "type": "uint256"
        }
      ],
      "name": "NewInterestParams",
      "type": "event"
    },
    {
      "constant": false,
      "inputs": [],
      "name": "_acceptPendingAdmin",
      "outputs": [],
      "payable": false,
      "stateMutability": "nonpayable",
      "type": "function"
    },
    {
      "constant": false,
      "inputs": [
        {
          "internalType": "address",
          "name": "pendingAdmin_",
          "type": "address"
        }
      ],
      "name": "_setPendingAdmin",
      "outputs": [],
      "payable": false,
      "stateMutability": "nonpayable",
      "type": "function"
    },
    {
      "constant": true,
      "inputs": [],
      "name": "baseRatePerBlock",
      "outputs": [
        {
          "internalType": "uint256",
          "name": "",
          "type": "uint256"
        }
      ],
      "payable": false,
      "stateMutability": "view",
      "type": "function"
    },
    {
      "constant": true,
      "inputs": [],
      "name": "blocksPerYear",
      "outputs": [
        {
          "internalType": "uint256",
          "name": "",
          "type": "uint256"
        }
      ],
      "payable": false,
      "stateMutability": "view",
      "type": "function"
    },
    {
      "constant": true,
      "inputs": [
        {
          "internalType": "uint256",
          "name": "cash",
          "type": "uint256"
        },
        {
          "internalType": "uint256",
          "name": "borrows",
          "type": "uint256"
        },
        {
          "internalType": "uint256",
          "name": "reserves",
          "type": "uint256"
        }
      ],
      "name": "getBorrowRate",
      "outputs": [
        {
          "internalType": "uint256",
          "name": "",
          "type": "uint256"
        }
      ],
      "payable": false,
      "stateMutability": "view",
      "type": "function"
    },
    {
      "constant": true,
      "inputs": [
        {
          "internalType": "uint256",
          "name": "_totalCash",
          "type": "uint256"
        },
        {
          "internalType": "uint256",
          "name": "_totalBorrows",
          "type": "uint256"
        },
        {
          "internalType": "uint256",
          "name": "_totalReserves",
          "type": "uint256"
        },
        {
          "internalType": "uint256",
          "name": "_totalSupply",
          "type": "uint256"
        }
      ],
      "name": "getExchangeRate",
      "outputs": [
        {
          "internalType": "enum CarefulMath.MathError",
          "name": "",
          "type": "uint8"
        },
        {
          "internalType": "uint256",
          "name": "",
          "type": "uint256"
        }
      ],
      "payable": false,
      "stateMutability": "pure",
      "type": "function"
    },
    {
      "constant": true,
      "inputs": [
        {
          "internalType": "uint256",
          "name": "cash",
          "type": "uint256"
        },
        {
          "internalType": "uint256",
          "name": "borrows",
          "type": "uint256"
        },
        {
          "internalType": "uint256",
          "name": "reserves",
          "type": "uint256"
        },
        {
          "internalType": "uint256",
          "name": "reserveFactorMantissa",
          "type": "uint256"
        }
      ],
      "name": "getSupplyRate",
      "outputs": [
        {
          "internalType": "uint256",
          "name": "",
          "type": "uint256"
        }
      ],
      "payable": false,
      "stateMutability": "view",
      "type": "function"
    },
    {
      "constant": true,
      "inputs": [
        {
          "internalType": "uint256",
          "name": "cash",
          "type": "uint256"
        },
        {
          "internalType": "uint256",
          "name": "borrows",
          "type": "uint256"
        },
        {
          "internalType": "uint256",
          "name": "reserves",
          "type": "uint256"
        }
      ],
      "name": "isAboveOptimal",
      "outputs": [
        {
          "internalType": "bool",
          "name": "",
          "type": "bool"
        }
      ],
      "payable": false,
      "stateMutability": "view",
      "type": "function"
    },
    {
      "constant": true,
      "inputs": [],
      "name": "isInterestRateModel",
      "outputs": [
        {
          "internalType": "bool",
          "name": "",
          "type": "bool"
        }
      ],
      "payable": false,
      "stateMutability": "view",
      "type": "function"
    },
    {
      "constant": true,
      "inputs": [],
      "name": "isTropykusInterestRateModel",
      "outputs": [
        {
          "internalType": "bool",
          "name": "",
          "type": "bool"
        }
      ],
      "payable": false,
      "stateMutability": "view",
      "type": "function"
    },
    {
      "constant": true,
      "inputs": [],
      "name": "jumpMultiplierPerBlock",
      "outputs": [
        {
          "internalType": "uint256",
          "name": "",
          "type": "uint256"
        }
      ],
      "payable": false,
      "stateMutability": "view",
      "type": "function"
    },
    {
      "constant": true,
      "inputs": [],
      "name": "kink",
      "outputs": [
        {
          "internalType": "uint256",
          "name": "",
          "type": "uint256"
        }
      ],
      "payable": false,
      "stateMutability": "view",
      "type": "function"
    },
    {
      "constant": true,
      "inputs": [],
      "name": "multiplierPerBlock",
      "outputs": [
        {
          "internalType": "uint256",
          "name": "",
          "type": "uint256"
        }
      ],
      "payable": false,
      "stateMutability": "view",
      "type": "function"
    },
    {
      "constant": false,
      "inputs": [
        {
          "internalType": "uint256",
          "name": "blocksPerYear_",
          "type": "uint256"
        }
      ],
      "name": "setBlocksPerYear",
      "outputs": [],
      "payable": false,
      "stateMutability": "nonpayable",
      "type": "function"
    },
    {
      "constant": true,
      "inputs": [
        {
          "internalType": "uint256",
          "name": "cash",
          "type": "uint256"
        },
        {
          "internalType": "uint256",
          "name": "borrows",
          "type": "uint256"
        },
        {
          "internalType": "uint256",
          "name": "reserves",
          "type": "uint256"
        }
      ],
      "name": "utilizationRate",
      "outputs": [
        {
          "internalType": "uint256",
          "name": "",
          "type": "uint256"
        }
      ],
      "payable": false,
      "stateMutability": "pure",
      "type": "function"
    }
  ],
  "bytecode": "0x608060405234801561001057600080fd5b50604051610ce5380380610ce58339818101604052608081101561003357600080fd5b508051602080830151604084015160609094015162100a406000819055600180546001600160a01b03191633179055939491939192909161007e918691906106d261011e821b17901c565b60048190555061009d6000548461011e60201b6106d21790919060201c565b6003819055506100bc6000548361011e60201b6106d21790919060201c565b60058190556006829055600454600354604080519283526020830191909152818101929092526060810183905290517f6960ab234c7ef4b0c9197100f5393cfcde7c453ac910a27bd2000aa1dd4c068d9181900360800190a15050505061020f565b600061016683836040518060400160405280601a81526020017f536166654d6174683a206469766973696f6e206279207a65726f00000000000081525061016d60201b60201c565b9392505050565b600081836101f95760405162461bcd60e51b81526004018080602001828103825283818151815260200191508051906020019080838360005b838110156101be5781810151838201526020016101a6565b50505050905090810190601f1680156101eb5780820380516001836020036101000a031916815260200191505b509250505060405180910390fd5b50600083858161020557fe5b0495945050505050565b610ac78061021e6000396000f3fe608060405234801561001057600080fd5b50600436106100f55760003560e01c8063a385fb9611610097578063e36c26e411610066578063e36c26e414610274578063e5fa2b701461027c578063f14039de14610299578063fd2da339146102a1576100f5565b8063a385fb961461020f578063b71d1a0c14610217578063b81688161461023d578063b9f9850a1461026c576100f5565b806364f42eda116100d357806364f42eda1461015b5780636e71e2d8146101845780638726bb89146101ad5780639dc8bea7146101b5576100f5565b806315f24053146100fa5780632191f92a146101355780634a198ca614610151575b600080fd5b6101236004803603606081101561011057600080fd5b50803590602081013590604001356102a9565b60408051918252519081900360200190f35b61013d610381565b604080519115158252519081900360200190f35b610159610386565b005b61013d6004803603606081101561017157600080fd5b50803590602081013590604001356103f7565b6101236004803603606081101561019a57600080fd5b5080359060208101359060400135610400565b610123610452565b6101e4600480360360808110156101cb57600080fd5b5080359060208101359060408101359060600135610458565b604051808360038111156101f457fe5b60ff1681526020018281526020019250505060405180910390f35b6101236104d9565b6101596004803603602081101561022d57600080fd5b50356001600160a01b03166104df565b6101236004803603608081101561025357600080fd5b508035906020810135906040810135906060013561058b565b61012361060a565b61013d610610565b6101596004803603602081101561029257600080fd5b5035610615565b610123610664565b61012361066a565b6000806102b7858585610400565b90506006548111610309576103016004546102f5670de0b6b3a76400006102e96003548661067090919063ffffffff16565b9063ffffffff6106d216565b9063ffffffff61071416565b91505061037a565b60006103346004546102f5670de0b6b3a76400006102e960035460065461067090919063ffffffff16565b9050600061034d6006548461076e90919063ffffffff16565b9050610374826102f5670de0b6b3a76400006102e96005548661067090919063ffffffff16565b93505050505b9392505050565b600181565b6002546001600160a01b031633146103d3576040805162461bcd60e51b815260206004820152600b60248201526a2727a72722aba0a226a4a760a91b604482015290519081900360640190fd5b600254600180546001600160a01b0319166001600160a01b03909216919091179055565b60009392505050565b60008261040f5750600061037a565b61044a61043283610426878763ffffffff61071416565b9063ffffffff61076e16565b6102e985670de0b6b3a764000063ffffffff61067016565b949350505050565b60035481565b600080610463610a5e565b6000806104718989896107b0565b9092509050600082600381111561048457fe5b1461049757509250600091506104d09050565b6104a181876107fd565b9350915060008260038111156104b357fe5b146104c657509250600091506104d09050565b5050516000925090505b94509492505050565b60005481565b6001546001600160a01b03163314610529576040805162461bcd60e51b81526020600482015260086024820152672727a720a226a4a760c11b604482015290519081900360640190fd5b6001600160a01b038116610569576040805162461bcd60e51b8152602060048201526002602482015261413160f01b604482015290519081900360640190fd5b600280546001600160a01b0319166001600160a01b0392909216919091179055565b6000806105a6670de0b6b3a76400008463ffffffff61076e16565b905060006105b58787876102a9565b905060006105d5670de0b6b3a76400006102e9848663ffffffff61067016565b90506105fe670de0b6b3a76400006102e9836105f28c8c8c610400565b9063ffffffff61067016565b98975050505050505050565b60055481565b600081565b6001546001600160a01b0316331461065f576040805162461bcd60e51b81526020600482015260086024820152672727a720a226a4a760c11b604482015290519081900360640190fd5b600055565b60045481565b60065481565b60008261067f575060006106cc565b8282028284828161068c57fe5b04146106c95760405162461bcd60e51b8152600401808060200182810382526021815260200180610a726021913960400191505060405180910390fd5b90505b92915050565b60006106c983836040518060400160405280601a81526020017f536166654d6174683a206469766973696f6e206279207a65726f0000000000008152506108af565b6000828201838110156106c9576040805162461bcd60e51b815260206004820152601b60248201527f536166654d6174683a206164646974696f6e206f766572666c6f770000000000604482015290519081900360640190fd5b60006106c983836040518060400160405280601f81526020017f536166654d6174683a207375627472616374696f6e20756e646572666c6f7700815250610951565b6000806000806107c087876109ab565b909250905060008260038111156107d357fe5b146107e457509150600090506107f5565b6107ee81866109d1565b9350935050505b935093915050565b6000610807610a5e565b60008061081c86670de0b6b3a76400006109f4565b9092509050600082600381111561082f57fe5b1461084e575060408051602081019091526000815290925090506108a8565b60008061085b8388610a33565b9092509050600082600381111561086e57fe5b14610890575060408051602081019091526000815290945092506108a8915050565b60408051602081019091529081526000955093505050505b9250929050565b6000818361093b5760405162461bcd60e51b81526004018080602001828103825283818151815260200191508051906020019080838360005b838110156109005781810151838201526020016108e8565b50505050905090810190601f16801561092d5780820380516001836020036101000a031916815260200191505b509250505060405180910390fd5b50600083858161094757fe5b0495945050505050565b600081848411156109a35760405162461bcd60e51b81526020600482018181528351602484015283519092839260449091019190850190808383600083156109005781810151838201526020016108e8565b505050900390565b6000808383018481106109c3576000925090506108a8565b5060029150600090506108a8565b6000808383116109e85750600090508183036108a8565b506003905060006108a8565b60008083610a07575060009050806108a8565b83830283858281610a1457fe5b0414610a28575060029150600090506108a8565b6000925090506108a8565b60008082610a4757506001905060006108a8565b6000838581610a5257fe5b04915091509250929050565b604051806020016040528060008152509056fe536166654d6174683a206d756c7469706c69636174696f6e206f766572666c6f77a265627a7a72315820961441be82c0f353ae5aee254a2fa30bf8038a7431fd15c32ddf5b27b9a2f7d764736f6c63430005100032",
  "linkReferences": {},
  "deployedLinkReferences": {}
}