{
  "_format": "hh-sol-artifact-1",
  "contractName": "ComptrollerG2",
  "sourceName": "contracts/ComptrollerG2.sol",
  "abi": [
    {
      "inputs": [],
      "payable": false,
      "stateMutability": "nonpayable",
      "type": "constructor"
    },
    {
      "anonymous": false,
      "inputs": [
        {
          "indexed": false,
          "internalType": "string",
          "name": "action",
          "type": "string"
        },
        {
          "indexed": false,
          "internalType": "bool",
          "name": "pauseState",
          "type": "bool"
        }
      ],
      "name": "ActionPaused",
      "type": "event"
    },
    {
      "anonymous": false,
      "inputs": [
        {
          "indexed": false,
          "internalType": "contract CToken",
          "name": "cToken",
          "type": "address"
        },
        {
          "indexed": false,
          "internalType": "string",
          "name": "action",
          "type": "string"
        },
        {
          "indexed": false,
          "internalType": "bool",
          "name": "pauseState",
          "type": "bool"
        }
      ],
      "name": "ActionPaused",
      "type": "event"
    },
    {
      "anonymous": false,
      "inputs": [
        {
          "indexed": false,
          "internalType": "uint256",
          "name": "error",
          "type": "uint256"
        },
        {
          "indexed": false,
          "internalType": "uint256",
          "name": "info",
          "type": "uint256"
        },
        {
          "indexed": false,
          "internalType": "uint256",
          "name": "detail",
          "type": "uint256"
        }
      ],
      "name": "Failure",
      "type": "event"
    },
    {
      "anonymous": false,
      "inputs": [
        {
          "indexed": false,
          "internalType": "contract CToken",
          "name": "cToken",
          "type": "address"
        },
        {
          "indexed": false,
          "internalType": "address",
          "name": "account",
          "type": "address"
        }
      ],
      "name": "MarketEntered",
      "type": "event"
    },
    {
      "anonymous": false,
      "inputs": [
        {
          "indexed": false,
          "internalType": "contract CToken",
          "name": "cToken",
          "type": "address"
        },
        {
          "indexed": false,
          "internalType": "address",
          "name": "account",
          "type": "address"
        }
      ],
      "name": "MarketExited",
      "type": "event"
    },
    {
      "anonymous": false,
      "inputs": [
        {
          "indexed": false,
          "internalType": "contract CToken",
          "name": "cToken",
          "type": "address"
        }
      ],
      "name": "MarketListed",
      "type": "event"
    },
    {
      "anonymous": false,
      "inputs": [
        {
          "indexed": false,
          "internalType": "uint256",
          "name": "oldCloseFactorMantissa",
          "type": "uint256"
        },
        {
          "indexed": false,
          "internalType": "uint256",
          "name": "newCloseFactorMantissa",
          "type": "uint256"
        }
      ],
      "name": "NewCloseFactor",
      "type": "event"
    },
    {
      "anonymous": false,
      "inputs": [
        {
          "indexed": false,
          "internalType": "contract CToken",
          "name": "cToken",
          "type": "address"
        },
        {
          "indexed": false,
          "internalType": "uint256",
          "name": "oldCollateralFactorMantissa",
          "type": "uint256"
        },
        {
          "indexed": false,
          "internalType": "uint256",
          "name": "newCollateralFactorMantissa",
          "type": "uint256"
        }
      ],
      "name": "NewCollateralFactor",
      "type": "event"
    },
    {
      "anonymous": false,
      "inputs": [
        {
          "indexed": false,
          "internalType": "uint256",
          "name": "oldLiquidationIncentiveMantissa",
          "type": "uint256"
        },
        {
          "indexed": false,
          "internalType": "uint256",
          "name": "newLiquidationIncentiveMantissa",
          "type": "uint256"
        }
      ],
      "name": "NewLiquidationIncentive",
      "type": "event"
    },
    {
      "anonymous": false,
      "inputs": [
        {
          "indexed": false,
          "internalType": "uint256",
          "name": "oldMaxAssets",
          "type": "uint256"
        },
        {
          "indexed": false,
          "internalType": "uint256",
          "name": "newMaxAssets",
          "type": "uint256"
        }
      ],
      "name": "NewMaxAssets",
      "type": "event"
    },
    {
      "anonymous": false,
      "inputs": [
        {
          "indexed": false,
          "internalType": "address",
          "name": "oldPauseGuardian",
          "type": "address"
        },
        {
          "indexed": false,
          "internalType": "address",
          "name": "newPauseGuardian",
          "type": "address"
        }
      ],
      "name": "NewPauseGuardian",
      "type": "event"
    },
    {
      "anonymous": false,
      "inputs": [
        {
          "indexed": false,
          "internalType": "contract PriceOracle",
          "name": "oldPriceOracle",
          "type": "address"
        },
        {
          "indexed": false,
          "internalType": "contract PriceOracle",
          "name": "newPriceOracle",
          "type": "address"
        }
      ],
      "name": "NewPriceOracle",
      "type": "event"
    },
    {
      "constant": false,
      "inputs": [
        {
          "internalType": "contract Unitroller",
          "name": "unitroller",
          "type": "address"
        }
      ],
      "name": "_become",
      "outputs": [],
      "payable": false,
      "stateMutability": "nonpayable",
      "type": "function"
    },
    {
      "constant": true,
      "inputs": [],
      "name": "_borrowGuardianPaused",
      "outputs": [
        {
          "internalType": "bool",
          "name": "",
          "type": "bool"
        }
      ],
      "payable": false,
      "stateMutability": "view",
      "type": "function"
    },
    {
      "constant": true,
      "inputs": [],
      "name": "_mintGuardianPaused",
      "outputs": [
        {
          "internalType": "bool",
          "name": "",
          "type": "bool"
        }
      ],
      "payable": false,
      "stateMutability": "view",
      "type": "function"
    },
    {
      "constant": false,
      "inputs": [
        {
          "internalType": "contract CToken",
          "name": "cToken",
          "type": "address"
        },
        {
          "internalType": "bool",
          "name": "state",
          "type": "bool"
        }
      ],
      "name": "_setBorrowPaused",
      "outputs": [
        {
          "internalType": "bool",
          "name": "",
          "type": "bool"
        }
      ],
      "payable": false,
      "stateMutability": "nonpayable",
      "type": "function"
    },
    {
      "constant": false,
      "inputs": [
        {
          "internalType": "uint256",
          "name": "newCloseFactorMantissa",
          "type": "uint256"
        }
      ],
      "name": "_setCloseFactor",
      "outputs": [
        {
          "internalType": "uint256",
          "name": "",
          "type": "uint256"
        }
      ],
      "payable": false,
      "stateMutability": "nonpayable",
      "type": "function"
    },
    {
      "constant": false,
      "inputs": [
        {
          "internalType": "contract CToken",
          "name": "cToken",
          "type": "address"
        },
        {
          "internalType": "uint256",
          "name": "newCollateralFactorMantissa",
          "type": "uint256"
        }
      ],
      "name": "_setCollateralFactor",
      "outputs": [
        {
          "internalType": "uint256",
          "name": "",
          "type": "uint256"
        }
      ],
      "payable": false,
      "stateMutability": "nonpayable",
      "type": "function"
    },
    {
      "constant": false,
      "inputs": [
        {
          "internalType": "uint256",
          "name": "newLiquidationIncentiveMantissa",
          "type": "uint256"
        }
      ],
      "name": "_setLiquidationIncentive",
      "outputs": [
        {
          "internalType": "uint256",
          "name": "",
          "type": "uint256"
        }
      ],
      "payable": false,
      "stateMutability": "nonpayable",
      "type": "function"
    },
    {
      "constant": false,
      "inputs": [
        {
          "internalType": "uint256",
          "name": "newMaxAssets",
          "type": "uint256"
        }
      ],
      "name": "_setMaxAssets",
      "outputs": [
        {
          "internalType": "uint256",
          "name": "",
          "type": "uint256"
        }
      ],
      "payable": false,
      "stateMutability": "nonpayable",
      "type": "function"
    },
    {
      "constant": false,
      "inputs": [
        {
          "internalType": "contract CToken",
          "name": "cToken",
          "type": "address"
        },
        {
          "internalType": "bool",
          "name": "state",
          "type": "bool"
        }
      ],
      "name": "_setMintPaused",
      "outputs": [
        {
          "internalType": "bool",
          "name": "",
          "type": "bool"
        }
      ],
      "payable": false,
      "stateMutability": "nonpayable",
      "type": "function"
    },
    {
      "constant": false,
      "inputs": [
        {
          "internalType": "address",
          "name": "newPauseGuardian",
          "type": "address"
        }
      ],
      "name": "_setPauseGuardian",
      "outputs": [
        {
          "internalType": "uint256",
          "name": "",
          "type": "uint256"
        }
      ],
      "payable": false,
      "stateMutability": "nonpayable",
      "type": "function"
    },
    {
      "constant": false,
      "inputs": [
        {
          "internalType": "contract PriceOracle",
          "name": "newOracle",
          "type": "address"
        }
      ],
      "name": "_setPriceOracle",
      "outputs": [
        {
          "internalType": "uint256",
          "name": "",
          "type": "uint256"
        }
      ],
      "payable": false,
      "stateMutability": "nonpayable",
      "type": "function"
    },
    {
      "constant": false,
      "inputs": [
        {
          "internalType": "bool",
          "name": "state",
          "type": "bool"
        }
      ],
      "name": "_setSeizePaused",
      "outputs": [
        {
          "internalType": "bool",
          "name": "",
          "type": "bool"
        }
      ],
      "payable": false,
      "stateMutability": "nonpayable",
      "type": "function"
    },
    {
      "constant": false,
      "inputs": [
        {
          "internalType": "bool",
          "name": "state",
          "type": "bool"
        }
      ],
      "name": "_setTransferPaused",
      "outputs": [
        {
          "internalType": "bool",
          "name": "",
          "type": "bool"
        }
      ],
      "payable": false,
      "stateMutability": "nonpayable",
      "type": "function"
    },
    {
      "constant": false,
      "inputs": [
        {
          "internalType": "contract CToken",
          "name": "cToken",
          "type": "address"
        }
      ],
      "name": "_supportMarket",
      "outputs": [
        {
          "internalType": "uint256",
          "name": "",
          "type": "uint256"
        }
      ],
      "payable": false,
      "stateMutability": "nonpayable",
      "type": "function"
    },
    {
      "constant": true,
      "inputs": [
        {
          "internalType": "address",
          "name": "",
          "type": "address"
        },
        {
          "internalType": "uint256",
          "name": "",
          "type": "uint256"
        }
      ],
      "name": "accountAssets",
      "outputs": [
        {
          "internalType": "contract CToken",
          "name": "",
          "type": "address"
        }
      ],
      "payable": false,
      "stateMutability": "view",
      "type": "function"
    },
    {
      "constant": true,
      "inputs": [],
      "name": "admin",
      "outputs": [
        {
          "internalType": "address",
          "name": "",
          "type": "address"
        }
      ],
      "payable": false,
      "stateMutability": "view",
      "type": "function"
    },
    {
      "constant": false,
      "inputs": [
        {
          "internalType": "address",
          "name": "cToken",
          "type": "address"
        },
        {
          "internalType": "address",
          "name": "borrower",
          "type": "address"
        },
        {
          "internalType": "uint256",
          "name": "borrowAmount",
          "type": "uint256"
        }
      ],
      "name": "borrowAllowed",
      "outputs": [
        {
          "internalType": "uint256",
          "name": "",
          "type": "uint256"
        }
      ],
      "payable": false,
      "stateMutability": "nonpayable",
      "type": "function"
    },
    {
      "constant": true,
      "inputs": [
        {
          "internalType": "address",
          "name": "",
          "type": "address"
        }
      ],
      "name": "borrowGuardianPaused",
      "outputs": [
        {
          "internalType": "bool",
          "name": "",
          "type": "bool"
        }
      ],
      "payable": false,
      "stateMutability": "view",
      "type": "function"
    },
    {
      "constant": false,
      "inputs": [
        {
          "internalType": "address",
          "name": "cToken",
          "type": "address"
        },
        {
          "internalType": "address",
          "name": "borrower",
          "type": "address"
        },
        {
          "internalType": "uint256",
          "name": "borrowAmount",
          "type": "uint256"
        }
      ],
      "name": "borrowVerify",
      "outputs": [],
      "payable": false,
      "stateMutability": "nonpayable",
      "type": "function"
    },
    {
      "constant": true,
      "inputs": [
        {
          "internalType": "address",
          "name": "account",
          "type": "address"
        },
        {
          "internalType": "contract CToken",
          "name": "cToken",
          "type": "address"
        }
      ],
      "name": "checkMembership",
      "outputs": [
        {
          "internalType": "bool",
          "name": "",
          "type": "bool"
        }
      ],
      "payable": false,
      "stateMutability": "view",
      "type": "function"
    },
    {
      "constant": true,
      "inputs": [],
      "name": "closeFactorMantissa",
      "outputs": [
        {
          "internalType": "uint256",
          "name": "",
          "type": "uint256"
        }
      ],
      "payable": false,
      "stateMutability": "view",
      "type": "function"
    },
    {
      "constant": true,
      "inputs": [],
      "name": "comptrollerImplementation",
      "outputs": [
        {
          "internalType": "address",
          "name": "",
          "type": "address"
        }
      ],
      "payable": false,
      "stateMutability": "view",
      "type": "function"
    },
    {
      "constant": false,
      "inputs": [
        {
          "internalType": "address[]",
          "name": "cTokens",
          "type": "address[]"
        }
      ],
      "name": "enterMarkets",
      "outputs": [
        {
          "internalType": "uint256[]",
          "name": "",
          "type": "uint256[]"
        }
      ],
      "payable": false,
      "stateMutability": "nonpayable",
      "type": "function"
    },
    {
      "constant": false,
      "inputs": [
        {
          "internalType": "address",
          "name": "cTokenAddress",
          "type": "address"
        }
      ],
      "name": "exitMarket",
      "outputs": [
        {
          "internalType": "uint256",
          "name": "",
          "type": "uint256"
        }
      ],
      "payable": false,
      "stateMutability": "nonpayable",
      "type": "function"
    },
    {
      "constant": true,
      "inputs": [
        {
          "internalType": "address",
          "name": "account",
          "type": "address"
        }
      ],
      "name": "getAccountLiquidity",
      "outputs": [
        {
          "internalType": "uint256",
          "name": "",
          "type": "uint256"
        },
        {
          "internalType": "uint256",
          "name": "",
          "type": "uint256"
        },
        {
          "internalType": "uint256",
          "name": "",
          "type": "uint256"
        }
      ],
      "payable": false,
      "stateMutability": "view",
      "type": "function"
    },
    {
      "constant": true,
      "inputs": [
        {
          "internalType": "address",
          "name": "account",
          "type": "address"
        }
      ],
      "name": "getAssetsIn",
      "outputs": [
        {
          "internalType": "contract CToken[]",
          "name": "",
          "type": "address[]"
        }
      ],
      "payable": false,
      "stateMutability": "view",
      "type": "function"
    },
    {
      "constant": true,
      "inputs": [
        {
          "internalType": "address",
          "name": "account",
          "type": "address"
        },
        {
          "internalType": "address",
          "name": "cTokenModify",
          "type": "address"
        },
        {
          "internalType": "uint256",
          "name": "redeemTokens",
          "type": "uint256"
        },
        {
          "internalType": "uint256",
          "name": "borrowAmount",
          "type": "uint256"
        }
      ],
      "name": "getHypotheticalAccountLiquidity",
      "outputs": [
        {
          "internalType": "uint256",
          "name": "",
          "type": "uint256"
        },
        {
          "internalType": "uint256",
          "name": "",
          "type": "uint256"
        },
        {
          "internalType": "uint256",
          "name": "",
          "type": "uint256"
        }
      ],
      "payable": false,
      "stateMutability": "view",
      "type": "function"
    },
    {
      "constant": true,
      "inputs": [],
      "name": "isComptroller",
      "outputs": [
        {
          "internalType": "bool",
          "name": "",
          "type": "bool"
        }
      ],
      "payable": false,
      "stateMutability": "view",
      "type": "function"
    },
    {
      "constant": false,
      "inputs": [
        {
          "internalType": "address",
          "name": "cTokenBorrowed",
          "type": "address"
        },
        {
          "internalType": "address",
          "name": "cTokenCollateral",
          "type": "address"
        },
        {
          "internalType": "address",
          "name": "liquidator",
          "type": "address"
        },
        {
          "internalType": "address",
          "name": "borrower",
          "type": "address"
        },
        {
          "internalType": "uint256",
          "name": "repayAmount",
          "type": "uint256"
        }
      ],
      "name": "liquidateBorrowAllowed",
      "outputs": [
        {
          "internalType": "uint256",
          "name": "",
          "type": "uint256"
        }
      ],
      "payable": false,
      "stateMutability": "nonpayable",
      "type": "function"
    },
    {
      "constant": false,
      "inputs": [
        {
          "internalType": "address",
          "name": "cTokenBorrowed",
          "type": "address"
        },
        {
          "internalType": "address",
          "name": "cTokenCollateral",
          "type": "address"
        },
        {
          "internalType": "address",
          "name": "liquidator",
          "type": "address"
        },
        {
          "internalType": "address",
          "name": "borrower",
          "type": "address"
        },
        {
          "internalType": "uint256",
          "name": "actualRepayAmount",
          "type": "uint256"
        },
        {
          "internalType": "uint256",
          "name": "seizeTokens",
          "type": "uint256"
        }
      ],
      "name": "liquidateBorrowVerify",
      "outputs": [],
      "payable": false,
      "stateMutability": "nonpayable",
      "type": "function"
    },
    {
      "constant": true,
      "inputs": [
        {
          "internalType": "address",
          "name": "cTokenBorrowed",
          "type": "address"
        },
        {
          "internalType": "address",
          "name": "cTokenCollateral",
          "type": "address"
        },
        {
          "internalType": "uint256",
          "name": "actualRepayAmount",
          "type": "uint256"
        }
      ],
      "name": "liquidateCalculateSeizeTokens",
      "outputs": [
        {
          "internalType": "uint256",
          "name": "",
          "type": "uint256"
        },
        {
          "internalType": "uint256",
          "name": "",
          "type": "uint256"
        }
      ],
      "payable": false,
      "stateMutability": "view",
      "type": "function"
    },
    {
      "constant": true,
      "inputs": [],
      "name": "liquidationIncentiveMantissa",
      "outputs": [
        {
          "internalType": "uint256",
          "name": "",
          "type": "uint256"
        }
      ],
      "payable": false,
      "stateMutability": "view",
      "type": "function"
    },
    {
      "constant": true,
      "inputs": [
        {
          "internalType": "address",
          "name": "",
          "type": "address"
        }
      ],
      "name": "markets",
      "outputs": [
        {
          "internalType": "bool",
          "name": "isListed",
          "type": "bool"
        },
        {
          "internalType": "uint256",
          "name": "collateralFactorMantissa",
          "type": "uint256"
        },
        {
          "internalType": "bool",
          "name": "isComped",
          "type": "bool"
        }
      ],
      "payable": false,
      "stateMutability": "view",
      "type": "function"
    },
    {
      "constant": true,
      "inputs": [],
      "name": "maxAssets",
      "outputs": [
        {
          "internalType": "uint256",
          "name": "",
          "type": "uint256"
        }
      ],
      "payable": false,
      "stateMutability": "view",
      "type": "function"
    },
    {
      "constant": false,
      "inputs": [
        {
          "internalType": "address",
          "name": "cToken",
          "type": "address"
        },
        {
          "internalType": "address",
          "name": "minter",
          "type": "address"
        },
        {
          "internalType": "uint256",
          "name": "mintAmount",
          "type": "uint256"
        }
      ],
      "name": "mintAllowed",
      "outputs": [
        {
          "internalType": "uint256",
          "name": "",
          "type": "uint256"
        }
      ],
      "payable": false,
      "stateMutability": "nonpayable",
      "type": "function"
    },
    {
      "constant": true,
      "inputs": [
        {
          "internalType": "address",
          "name": "",
          "type": "address"
        }
      ],
      "name": "mintGuardianPaused",
      "outputs": [
        {
          "internalType": "bool",
          "name": "",
          "type": "bool"
        }
      ],
      "payable": false,
      "stateMutability": "view",
      "type": "function"
    },
    {
      "constant": false,
      "inputs": [
        {
          "internalType": "address",
          "name": "cToken",
          "type": "address"
        },
        {
          "internalType": "address",
          "name": "minter",
          "type": "address"
        },
        {
          "internalType": "uint256",
          "name": "actualMintAmount",
          "type": "uint256"
        },
        {
          "internalType": "uint256",
          "name": "mintTokens",
          "type": "uint256"
        }
      ],
      "name": "mintVerify",
      "outputs": [],
      "payable": false,
      "stateMutability": "nonpayable",
      "type": "function"
    },
    {
      "constant": true,
      "inputs": [],
      "name": "oracle",
      "outputs": [
        {
          "internalType": "contract PriceOracle",
          "name": "",
          "type": "address"
        }
      ],
      "payable": false,
      "stateMutability": "view",
      "type": "function"
    },
    {
      "constant": true,
      "inputs": [],
      "name": "pauseGuardian",
      "outputs": [
        {
          "internalType": "address",
          "name": "",
          "type": "address"
        }
      ],
      "payable": false,
      "stateMutability": "view",
      "type": "function"
    },
    {
      "constant": true,
      "inputs": [],
      "name": "pendingAdmin",
      "outputs": [
        {
          "internalType": "address",
          "name": "",
          "type": "address"
        }
      ],
      "payable": false,
      "stateMutability": "view",
      "type": "function"
    },
    {
      "constant": true,
      "inputs": [],
      "name": "pendingComptrollerImplementation",
      "outputs": [
        {
          "internalType": "address",
          "name": "",
          "type": "address"
        }
      ],
      "payable": false,
      "stateMutability": "view",
      "type": "function"
    },
    {
      "constant": false,
      "inputs": [
        {
          "internalType": "address",
          "name": "cToken",
          "type": "address"
        },
        {
          "internalType": "address",
          "name": "redeemer",
          "type": "address"
        },
        {
          "internalType": "uint256",
          "name": "redeemTokens",
          "type": "uint256"
        }
      ],
      "name": "redeemAllowed",
      "outputs": [
        {
          "internalType": "uint256",
          "name": "",
          "type": "uint256"
        }
      ],
      "payable": false,
      "stateMutability": "nonpayable",
      "type": "function"
    },
    {
      "constant": false,
      "inputs": [
        {
          "internalType": "address",
          "name": "cToken",
          "type": "address"
        },
        {
          "internalType": "address",
          "name": "redeemer",
          "type": "address"
        },
        {
          "internalType": "uint256",
          "name": "redeemAmount",
          "type": "uint256"
        },
        {
          "internalType": "uint256",
          "name": "redeemTokens",
          "type": "uint256"
        }
      ],
      "name": "redeemVerify",
      "outputs": [],
      "payable": false,
      "stateMutability": "nonpayable",
      "type": "function"
    },
    {
      "constant": false,
      "inputs": [
        {
          "internalType": "address",
          "name": "cToken",
          "type": "address"
        },
        {
          "internalType": "address",
          "name": "payer",
          "type": "address"
        },
        {
          "internalType": "address",
          "name": "borrower",
          "type": "address"
        },
        {
          "internalType": "uint256",
          "name": "repayAmount",
          "type": "uint256"
        }
      ],
      "name": "repayBorrowAllowed",
      "outputs": [
        {
          "internalType": "uint256",
          "name": "",
          "type": "uint256"
        }
      ],
      "payable": false,
      "stateMutability": "nonpayable",
      "type": "function"
    },
    {
      "constant": false,
      "inputs": [
        {
          "internalType": "address",
          "name": "cToken",
          "type": "address"
        },
        {
          "internalType": "address",
          "name": "payer",
          "type": "address"
        },
        {
          "internalType": "address",
          "name": "borrower",
          "type": "address"
        },
        {
          "internalType": "uint256",
          "name": "actualRepayAmount",
          "type": "uint256"
        },
        {
          "internalType": "uint256",
          "name": "borrowerIndex",
          "type": "uint256"
        }
      ],
      "name": "repayBorrowVerify",
      "outputs": [],
      "payable": false,
      "stateMutability": "nonpayable",
      "type": "function"
    },
    {
      "constant": false,
      "inputs": [
        {
          "internalType": "address",
          "name": "cTokenCollateral",
          "type": "address"
        },
        {
          "internalType": "address",
          "name": "cTokenBorrowed",
          "type": "address"
        },
        {
          "internalType": "address",
          "name": "liquidator",
          "type": "address"
        },
        {
          "internalType": "address",
          "name": "borrower",
          "type": "address"
        },
        {
          "internalType": "uint256",
          "name": "seizeTokens",
          "type": "uint256"
        }
      ],
      "name": "seizeAllowed",
      "outputs": [
        {
          "internalType": "uint256",
          "name": "",
          "type": "uint256"
        }
      ],
      "payable": false,
      "stateMutability": "nonpayable",
      "type": "function"
    },
    {
      "constant": true,
      "inputs": [],
      "name": "seizeGuardianPaused",
      "outputs": [
        {
          "internalType": "bool",
          "name": "",
          "type": "bool"
        }
      ],
      "payable": false,
      "stateMutability": "view",
      "type": "function"
    },
    {
      "constant": false,
      "inputs": [
        {
          "internalType": "address",
          "name": "cTokenCollateral",
          "type": "address"
        },
        {
          "internalType": "address",
          "name": "cTokenBorrowed",
          "type": "address"
        },
        {
          "internalType": "address",
          "name": "liquidator",
          "type": "address"
        },
        {
          "internalType": "address",
          "name": "borrower",
          "type": "address"
        },
        {
          "internalType": "uint256",
          "name": "seizeTokens",
          "type": "uint256"
        }
      ],
      "name": "seizeVerify",
      "outputs": [],
      "payable": false,
      "stateMutability": "nonpayable",
      "type": "function"
    },
    {
      "constant": false,
      "inputs": [
        {
          "internalType": "address",
          "name": "cToken",
          "type": "address"
        },
        {
          "internalType": "address",
          "name": "src",
          "type": "address"
        },
        {
          "internalType": "address",
          "name": "dst",
          "type": "address"
        },
        {
          "internalType": "uint256",
          "name": "transferTokens",
          "type": "uint256"
        }
      ],
      "name": "transferAllowed",
      "outputs": [
        {
          "internalType": "uint256",
          "name": "",
          "type": "uint256"
        }
      ],
      "payable": false,
      "stateMutability": "nonpayable",
      "type": "function"
    },
    {
      "constant": true,
      "inputs": [],
      "name": "transferGuardianPaused",
      "outputs": [
        {
          "internalType": "bool",
          "name": "",
          "type": "bool"
        }
      ],
      "payable": false,
      "stateMutability": "view",
      "type": "function"
    },
    {
      "constant": false,
      "inputs": [
        {
          "internalType": "address",
          "name": "cToken",
          "type": "address"
        },
        {
          "internalType": "address",
          "name": "src",
          "type": "address"
        },
        {
          "internalType": "address",
          "name": "dst",
          "type": "address"
        },
        {
          "internalType": "uint256",
          "name": "transferTokens",
          "type": "uint256"
        }
      ],
      "name": "transferVerify",
      "outputs": [],
      "payable": false,
      "stateMutability": "nonpayable",
      "type": "function"
    }
  ],
  "bytecode": "0x608060405234801561001057600080fd5b50600080546001600160a01b0319163317905561338d806100326000396000f3fe608060405234801561001057600080fd5b50600436106102f05760003560e01c80636d35bf911161019d578063c2998238116100e9578063dcfbc0c7116100a2578063e87554461161007c578063e875544614610b52578063eabe7d9114610b5a578063ede4edd014610b90578063f851a44014610bb6576102f0565b8063dcfbc0c714610b16578063e4028eee14610b1e578063e6653f3d14610b4a576102f0565b8063c29982381461095f578063c488847b14610a02578063d02f735114610a51578063d9226ced14610a97578063da3d454c14610ab4578063dce1544914610aea576102f0565b8063929fe9a111610156578063abfceffc11610130578063abfceffc1461089d578063ac0b0bb714610913578063bb82aa5e1461091b578063bdcdc25814610923576102f0565b8063929fe9a11461084157806394b2294b1461086f578063a76b3fda14610877576102f0565b80636d35bf911461075e578063731f0c2b146107a45780637dc0d1d0146107ca57806387f76303146107d25780638e8f294b146107da5780638ebf636414610822576102f0565b806347ef3b3b1161025c57806355ee1fe1116102155780635f5af1aa116101ef5780635f5af1aa146106905780635fc7e71e146106b65780636a56947e146106fc5780636d154ea514610738576102f0565b806355ee1fe11461060e5780635c778605146106345780635ec88c791461066a576102f0565b806347ef3b3b146104d15780634ada90af1461051d5780634e79238f146105255780634ef4c3e11461057f5780634fd42e17146105b557806351dff989146105d2576102f0565b806326782247116102ae578063267822471461041b5780632d70db7814610423578063317b0b77146104425780633bcf7ec11461045f5780633c94786f1461048d57806341c728b914610495576102f0565b80627e3dd2146102f557806318c882a5146103115780631d504dc61461033f5780631ededc911461036757806324008a62146103a957806324a3d622146103f7575b600080fd5b6102fd610bbe565b604080519115158252519081900360200190f35b6102fd6004803603604081101561032757600080fd5b506001600160a01b0381351690602001351515610bc3565b6103656004803603602081101561035557600080fd5b50356001600160a01b0316610d48565b005b610365600480360360a081101561037d57600080fd5b506001600160a01b03813581169160208101358216916040820135169060608101359060800135610e97565b6103e5600480360360808110156103bf57600080fd5b506001600160a01b03813581169160208101358216916040820135169060600135610e9e565b60408051918252519081900360200190f35b6103ff610ed4565b604080516001600160a01b039092168252519081900360200190f35b6103ff610ee3565b6102fd6004803603602081101561043957600080fd5b50351515610ef2565b6103e56004803603602081101561045857600080fd5b5035611015565b6102fd6004803603604081101561047557600080fd5b506001600160a01b0381351690602001351515611126565b6102fd6112a6565b610365600480360360808110156104ab57600080fd5b506001600160a01b038135811691602081013590911690604081013590606001356112b6565b610365600480360360c08110156104e757600080fd5b506001600160a01b0381358116916020810135821691604082013581169160608101359091169060808101359060a001356112bc565b6103e56112c4565b6105616004803603608081101561053b57600080fd5b506001600160a01b038135811691602081013590911690604081013590606001356112ca565b60408051938452602084019290925282820152519081900360600190f35b6103e56004803603606081101561059557600080fd5b506001600160a01b03813581169160208101359091169060400135611304565b6103e5600480360360208110156105cb57600080fd5b503561138e565b610365600480360360808110156105e857600080fd5b506001600160a01b03813581169160208101359091169060408101359060600135611482565b6103e56004803603602081101561062457600080fd5b50356001600160a01b03166114c7565b6103656004803603606081101561064a57600080fd5b506001600160a01b0381358116916020810135909116906040013561154e565b6105616004803603602081101561068057600080fd5b50356001600160a01b0316611553565b6103e5600480360360208110156106a657600080fd5b50356001600160a01b0316611588565b6103e5600480360360a08110156106cc57600080fd5b506001600160a01b038135811691602081013582169160408201358116916060810135909116906080013561160c565b6103656004803603608081101561071257600080fd5b506001600160a01b038135811691602081013582169160408201351690606001356112b6565b6102fd6004803603602081101561074e57600080fd5b50356001600160a01b0316611793565b610365600480360360a081101561077457600080fd5b506001600160a01b0381358116916020810135821691604082013581169160608101359091169060800135610e97565b6102fd600480360360208110156107ba57600080fd5b50356001600160a01b03166117a8565b6103ff6117bd565b6102fd6117cc565b610800600480360360208110156107f057600080fd5b50356001600160a01b03166117dc565b6040805193151584526020840192909252151582820152519081900360600190f35b6102fd6004803603602081101561083857600080fd5b50351515611802565b6102fd6004803603604081101561085757600080fd5b506001600160a01b0381358116916020013516611924565b6103e5611957565b6103e56004803603602081101561088d57600080fd5b50356001600160a01b031661195d565b6108c3600480360360208110156108b357600080fd5b50356001600160a01b0316611aab565b60408051602080825283518183015283519192839290830191858101910280838360005b838110156108ff5781810151838201526020016108e7565b505050509050019250505060405180910390f35b6102fd611b34565b6103ff611b44565b6103e56004803603608081101561093957600080fd5b506001600160a01b03813581169160208101358216916040820135169060600135611b53565b6108c36004803603602081101561097557600080fd5b81019060208101813564010000000081111561099057600080fd5b8201836020820111156109a257600080fd5b803590602001918460208302840111640100000000831117156109c457600080fd5b919080806020026020016040519081016040528093929190818152602001838360200280828437600092019190915250929550611ba5945050505050565b610a3860048036036060811015610a1857600080fd5b506001600160a01b03813581169160208101359091169060400135611c3c565b6040805192835260208301919091528051918290030190f35b6103e5600480360360a0811015610a6757600080fd5b506001600160a01b0381358116916020810135821691604082013581169160608101359091169060800135611eb1565b6103e560048036036020811015610aad57600080fd5b503561203b565b6103e560048036036060811015610aca57600080fd5b506001600160a01b038135811691602081013590911690604001356120a4565b6103ff60048036036040811015610b0057600080fd5b506001600160a01b0381351690602001356122d0565b6103ff612305565b6103e560048036036040811015610b3457600080fd5b506001600160a01b038135169060200135612314565b6102fd6124c4565b6103e56124d4565b6103e560048036036060811015610b7057600080fd5b506001600160a01b038135811691602081013590911690604001356124da565b6103e560048036036020811015610ba657600080fd5b50356001600160a01b03166124e7565b6103ff6127f5565b600181565b6001600160a01b03821660009081526009602052604081205460ff16610c16576040805162461bcd60e51b815260206004820152600360248201526210cc4d60ea1b604482015290519081900360640190fd5b600a546001600160a01b0316331480610c3957506000546001600160a01b031633145b610c70576040805162461bcd60e51b815260206004820152600360248201526243313560e81b604482015290519081900360640190fd5b6000546001600160a01b0316331480610c8b57506001821515145b610cc2576040805162461bcd60e51b815260206004820152600360248201526221989b60e91b604482015290519081900360640190fd5b6001600160a01b0383166000818152600c6020908152604091829020805486151560ff199091168117909155825193845283830152606090830181905260069083015265426f72726f7760d01b6080830152517f71aec636243f9709bb0007ae15e9afb8150ab01716d75fd7573be5cc096e03b09181900360a00190a150805b92915050565b806001600160a01b031663f851a4406040518163ffffffff1660e01b815260040160206040518083038186803b158015610d8157600080fd5b505afa158015610d95573d6000803e3d6000fd5b505050506040513d6020811015610dab57600080fd5b50516001600160a01b03163314610def576040805162461bcd60e51b815260206004820152600360248201526243313760e81b604482015290519081900360640190fd5b6000816001600160a01b031663c1e803346040518163ffffffff1660e01b8152600401602060405180830381600087803b158015610e2c57600080fd5b505af1158015610e40573d6000803e3d6000fd5b505050506040513d6020811015610e5657600080fd5b505190508015610e93576040805162461bcd60e51b815260206004820152600360248201526208662760eb1b604482015290519081900360640190fd5b5050565b5050505050565b6001600160a01b03841660009081526009602052604081205460ff16610ec657506009610ecc565b60005b90505b949350505050565b600a546001600160a01b031681565b6001546001600160a01b031681565b600a546000906001600160a01b0316331480610f1857506000546001600160a01b031633145b610f4f576040805162461bcd60e51b815260206004820152600360248201526243313560e81b604482015290519081900360640190fd5b6000546001600160a01b0316331480610f6a57506001821515145b610fa1576040805162461bcd60e51b815260206004820152600360248201526221989b60e91b604482015290519081900360640190fd5b600a8054831515600160b81b810260ff60b81b1990921691909117909155604080516020810192909252808252600582820152645365697a6560d81b6060830152517fef159d9a32b2472e32b098f954f3ce62d232939f1c207070b584df1814de2de09181900360800190a150805b919050565b600080546001600160a01b0316331461103b5761103460016004612804565b9050611010565b611043613296565b50604080516020810190915282815261105a613296565b50604080516020810190915266b1a2bc2ec50000815261107a828261286a565b156110935761108a600580612804565b92505050611010565b61109b613296565b506040805160208101909152670c7d713b49da000081526110bc8184612872565b156110d6576110cc600580612804565b9350505050611010565b6005805490869055604080518281526020810188905281517f3b9670cf975d26958e754b57098eaa2ac914d8d2a31b83257997b9f346110fd9929181900390910190a160005b9695505050505050565b6001600160a01b03821660009081526009602052604081205460ff16611179576040805162461bcd60e51b815260206004820152600360248201526210cc4d60ea1b604482015290519081900360640190fd5b600a546001600160a01b031633148061119c57506000546001600160a01b031633145b6111d3576040805162461bcd60e51b815260206004820152600360248201526243313560e81b604482015290519081900360640190fd5b6000546001600160a01b03163314806111ee57506001821515145b611225576040805162461bcd60e51b815260206004820152600360248201526221989b60e91b604482015290519081900360640190fd5b6001600160a01b0383166000818152600b6020908152604091829020805486151560ff199091168117909155825193845283830152606090830181905260049083015263135a5b9d60e21b6080830152517f71aec636243f9709bb0007ae15e9afb8150ab01716d75fd7573be5cc096e03b09181900360a00190a150919050565b600a54600160a01b900460ff1681565b50505050565b505050505050565b60065481565b6000806000806000806112df8a8a8a8a612879565b9250925092508260118111156112f157fe5b95509093509150505b9450945094915050565b6001600160a01b0383166000908152600b602052604081205460ff1615611357576040805162461bcd60e51b8152602060048201526002602482015261219960f11b604482015290519081900360640190fd5b6001600160a01b03841660009081526009602052604090205460ff166113815760095b9050611387565b60005b90505b9392505050565b600080546001600160a01b031633146113ad576110346001600b612804565b6113b5613296565b5060408051602081019091528281526113cc613296565b506040805160208101909152670de0b6b3a764000081526113ed8282612872565b156113fe5761108a6007600c612804565b611406613296565b5060408051602081019091526714d1120d7b16000081526114278184612872565b15611438576110cc6007600c612804565b6006805490869055604080518281526020810188905281517faeba5a6c40a8ac138134bff1aaa65debf25971188a58804bad717f82f0ec1316929181900390910190a1600061111c565b801580156114905750600082115b156112b6576040805162461bcd60e51b8152602060048201526002602482015261433360f01b604482015290519081900360640190fd5b600080546001600160a01b031633146114e65761103460016010612804565b600480546001600160a01b038481166001600160a01b0319831681179093556040805191909216808252602082019390935281517fd52b2b9b7e9ee655fcb95d2e5b9e0c9f69e7ef2b8e9d2d0ea78402d576d22e22929181900390910190a160009392505050565b505050565b60008060008060008061156a876000806000612879565b92509250925082601181111561157c57fe5b97919650945092505050565b600080546001600160a01b031633146115a75761103460016013612804565b600a80546001600160a01b038481166001600160a01b0319831617928390556040805192821680845293909116602083015280517f0613b6ee6a04f0d09f390e4d9318894b9f6ac7fd83897cd8d18896ba579c401e9281900390910190a16000611387565b6001600160a01b03851660009081526009602052604081205460ff16158061164d57506001600160a01b03851660009081526009602052604090205460ff16155b1561165c5760095b905061178a565b60008061166885612c94565b9193509091506000905082601181111561167e57fe5b146116985781601181111561168f57fe5b9250505061178a565b806116a457600361168f565b6000886001600160a01b03166395dd9193876040518263ffffffff1660e01b815260040180826001600160a01b03166001600160a01b0316815260200191505060206040518083038186803b1580156116fc57600080fd5b505afa158015611710573d6000803e3d6000fd5b505050506040513d602081101561172657600080fd5b505160408051602081019091526005548152909150600090819061174a9084612cb4565b9092509050600082600381111561175d57fe5b1461177157600b5b9550505050505061178a565b80871115611780576011611765565b6000955050505050505b95945050505050565b600c6020526000908152604090205460ff1681565b600b6020526000908152604090205460ff1681565b6004546001600160a01b031681565b600a54600160b01b900460ff1681565b60096020526000908152604090208054600182015460039092015460ff91821692911683565b600a546000906001600160a01b031633148061182857506000546001600160a01b031633145b61185f576040805162461bcd60e51b815260206004820152600360248201526243313560e81b604482015290519081900360640190fd5b6000546001600160a01b031633148061187a57506001821515145b6118b1576040805162461bcd60e51b815260206004820152600360248201526221989b60e91b604482015290519081900360640190fd5b600a8054831515600160b01b810260ff60b01b1990921691909117909155604080516020810192909252808252600882820152672a3930b739b332b960c11b6060830152517fef159d9a32b2472e32b098f954f3ce62d232939f1c207070b584df1814de2de09181900360800190a15090565b6001600160a01b038082166000908152600960209081526040808320938616835260029093019052205460ff1692915050565b60075481565b600080546001600160a01b0316331461197c5761103460016012612804565b6001600160a01b03821660009081526009602052604090205460ff16156119a957611034600a6011612804565b816001600160a01b031663fe9c44ae6040518163ffffffff1660e01b815260040160206040518083038186803b1580156119e257600080fd5b505afa1580156119f6573d6000803e3d6000fd5b505050506040513d6020811015611a0c57600080fd5b5050604080516060810182526001808252600060208381018281528486018381526001600160a01b03891680855260098452938790209551865490151560ff199182161787559151948601949094559251600390940180549415159490931693909317909155825190815291517fcf583bb0c569eb967f806b11601c4cb93c10310485c67add5f8362c2f212321f9281900390910190a1600092915050565b60608060086000846001600160a01b03166001600160a01b03168152602001908152602001600020805480602002602001604051908101604052809291908181526020018280548015611b2757602002820191906000526020600020905b81546001600160a01b03168152600190910190602001808311611b09575b5093979650505050505050565b600a54600160b81b900460ff1681565b6002546001600160a01b031681565b600a54600090600160b01b900460ff1615611b9a576040805162461bcd60e51b8152602060048201526002602482015261433960f01b604482015290519081900360640190fd5b610ec9858584612d08565b6060600082519050606081604051908082528060200260200182016040528015611bd9578160200160208202803883390190505b50905060005b82811015611c34576000858281518110611bf557fe5b60200260200101519050611c098133612d77565b6011811115611c1457fe5b838381518110611c2057fe5b602090810291909101015250600101611bdf565b509392505050565b600480546040805163fc57d4df60e01b81526001600160a01b038781169482019490945290516000938493849391169163fc57d4df91602480820192602092909190829003018186803b158015611c9257600080fd5b505afa158015611ca6573d6000803e3d6000fd5b505050506040513d6020811015611cbc57600080fd5b5051600480546040805163fc57d4df60e01b81526001600160a01b038a8116948201949094529051939450600093929091169163fc57d4df91602480820192602092909190829003018186803b158015611d1557600080fd5b505afa158015611d29573d6000803e3d6000fd5b505050506040513d6020811015611d3f57600080fd5b50519050811580611d4e575080155b15611d6357600d935060009250611ea9915050565b6000866001600160a01b031663182df0f56040518163ffffffff1660e01b815260040160206040518083038186803b158015611d9e57600080fd5b505afa158015611db2573d6000803e3d6000fd5b505050506040513d6020811015611dc857600080fd5b505190506000611dd6613296565b611dde613296565b611de6613296565b6000611df460065489612e98565b945090506000816003811115611e0657fe5b14611e2257600b5b995060009850611ea9975050505050505050565b611e2c8787612e98565b935090506000816003811115611e3e57fe5b14611e4a57600b611e0e565b611e548484612ed3565b925090506000816003811115611e6657fe5b14611e7257600b611e0e565b611e7c828c612cb4565b955090506000816003811115611e8e57fe5b14611e9a57600b611e0e565b60009950939750505050505050505b935093915050565b600a54600090600160b81b900460ff1615611ef8576040805162461bcd60e51b8152602060048201526002602482015261086760f31b604482015290519081900360640190fd5b6001600160a01b03861660009081526009602052604090205460ff161580611f3957506001600160a01b03851660009081526009602052604090205460ff16155b15611f45576009611655565b846001600160a01b0316635fe3b5676040518163ffffffff1660e01b815260040160206040518083038186803b158015611f7e57600080fd5b505afa158015611f92573d6000803e3d6000fd5b505050506040513d6020811015611fa857600080fd5b505160408051635fe3b56760e01b815290516001600160a01b0392831692891691635fe3b567916004808301926020929190829003018186803b158015611fee57600080fd5b505afa158015612002573d6000803e3d6000fd5b505050506040513d602081101561201857600080fd5b50516001600160a01b03161461202f576002611655565b60009695505050505050565b600080546001600160a01b0316331461205a576110346001600d612804565b6007805490839055604080518281526020810185905281517f7093cf1eb653f749c3ff531d6df7f92764536a7fa0d13530cd26e070780c32ea929181900390910190a16000611387565b6001600160a01b0383166000908152600c602052604081205460ff16156120f7576040805162461bcd60e51b815260206004820152600260248201526110cd60f21b604482015290519081900360640190fd5b6001600160a01b03841660009081526009602052604090205460ff1661211e57600961137a565b6001600160a01b038085166000908152600960209081526040808320938716835260029093019052205460ff166121fb57336001600160a01b03851614612191576040805162461bcd60e51b8152602060048201526002602482015261433560f01b604482015290519081900360640190fd5b600061219d3385612d77565b905060008160118111156121ad57fe5b146121c6578060118111156121be57fe5b915050611387565b6001600160a01b038086166000908152600960209081526040808320938816835260029093019052205460ff166121f957fe5b505b600480546040805163fc57d4df60e01b81526001600160a01b03888116948201949094529051929091169163fc57d4df91602480820192602092909190829003018186803b15801561224c57600080fd5b505afa158015612260573d6000803e3d6000fd5b505050506040513d602081101561227657600080fd5b505161228357600d61137a565b6000806122938587600087612879565b919350909150600090508260118111156122a957fe5b146122c3578160118111156122ba57fe5b92505050611387565b801561202f5760046122ba565b600860205281600052604060002081815481106122e957fe5b6000918252602090912001546001600160a01b03169150829050565b6003546001600160a01b031681565b600080546001600160a01b0316331461233a5761233360016006612804565b9050610d42565b6001600160a01b0383166000908152600960205260409020805460ff1661236f5761236760096007612804565b915050610d42565b612377613296565b50604080516020810190915283815261238e613296565b506040805160208101909152670c7d713b49da000081526123af8183612872565b156123ca576123c060066008612804565b9350505050610d42565b84158015906124535750600480546040805163fc57d4df60e01b81526001600160a01b038a8116948201949094529051929091169163fc57d4df91602480820192602092909190829003018186803b15801561242557600080fd5b505afa158015612439573d6000803e3d6000fd5b505050506040513d602081101561244f57600080fd5b5051155b15612464576123c0600d6009612804565b60018301805490869055604080516001600160a01b03891681526020810183905280820188905290517f70483e6592cd5182d45ac970e05bc62cdcc90e9d8ef2c2dbe686cf383bcd7fc59181900360600190a16000979650505050505050565b600a54600160a81b900460ff1681565b60055481565b6000611384848484612d08565b6000808290506000806000836001600160a01b031663c37f68e2336040518263ffffffff1660e01b815260040180826001600160a01b03166001600160a01b0316815260200191505060806040518083038186803b15801561254857600080fd5b505afa15801561255c573d6000803e3d6000fd5b505050506040513d608081101561257257600080fd5b5080516020820151604090920151909450909250905082156125c0576040805162461bcd60e51b8152602060048201526002602482015261433160f01b604482015290519081900360640190fd5b80156125dd576125d2600c6002612804565b945050505050611010565b60006125ea873385612d08565b9050801561260b576125ff600e600383612eeb565b95505050505050611010565b6001600160a01b0385166000908152600960209081526040808320338452600281019092529091205460ff1661264a5760009650505050505050611010565b3360009081526002820160209081526040808320805460ff1916905560088252918290208054835181840281018401909452808452606093928301828280156126bc57602002820191906000526020600020905b81546001600160a01b0316815260019091019060200180831161269e575b5050835193945083925060009150505b8281101561271157896001600160a01b03168482815181106126ea57fe5b60200260200101516001600160a01b0316141561270957809150612711565b6001016126cc565b5081811061271b57fe5b33600090815260086020526040902080548190600019810190811061273c57fe5b9060005260206000200160009054906101000a90046001600160a01b031681838154811061276657fe5b600091825260209091200180546001600160a01b0319166001600160a01b0392909216919091179055805461279f8260001983016132a9565b50604080516001600160a01b038c16815233602082015281517fe699a64c18b07ac5b7301aa273f36a2287239eb9501d81950672794afba29a0d929181900390910190a160009c9b505050505050505050505050565b6000546001600160a01b031681565b60007f45b96fe442630264581b197e84bbada861235052c5a1aadfff9ea4e40a969aa083601181111561283357fe5b83601381111561283f57fe5b604080519283526020830191909152600082820152519081900360600190a182601181111561138757fe5b519051111590565b5190511090565b60008060006128866132cd565b6001600160a01b0388166000908152600860209081526040808320805482518185028101850190935280835284936060939291908301828280156128f357602002820191906000526020600020905b81546001600160a01b031681526001909101906020018083116128d5575b50939450600093505050505b8151811015612c4f57600082828151811061291657fe5b60200260200101519050806001600160a01b031663c37f68e28e6040518263ffffffff1660e01b815260040180826001600160a01b03166001600160a01b0316815260200191505060806040518083038186803b15801561297657600080fd5b505afa15801561298a573d6000803e3d6000fd5b505050506040513d60808110156129a057600080fd5b508051602082015160408084015160609485015160808c0152938a019390935291880191909152945084156129e65750600f9750600096508695506112fa945050505050565b60408051602080820183526001600160a01b0380851660008181526009845285902060010154845260c08b01939093528351808301855260808b0151815260e08b015260048054855163fc57d4df60e01b815291820194909452935192169263fc57d4df9260248083019392829003018186803b158015612a6657600080fd5b505afa158015612a7a573d6000803e3d6000fd5b505050506040513d6020811015612a9057600080fd5b505160a08701819052612ab45750600d9750600096508695506112fa945050505050565b604080516020810190915260a08701518152610100870181905260c087015160e0880151612ae192612f51565b61012088015293506000846003811115612af757fe5b14612b135750600b9750600096508695506112fa945050505050565b612b2b86610120015187604001518860000151612fa9565b875293506000846003811115612b3d57fe5b14612b595750600b9750600096508695506112fa945050505050565b612b7186610100015187606001518860200151612fa9565b602088015293506000846003811115612b8657fe5b14612ba25750600b9750600096508695506112fa945050505050565b8b6001600160a01b0316816001600160a01b03161415612c4657612bd08661012001518c8860200151612fa9565b602088015293506000846003811115612be557fe5b14612c015750600b9750600096508695506112fa945050505050565b612c158661010001518b8860200151612fa9565b602088015293506000846003811115612c2a57fe5b14612c465750600b9750600096508695506112fa945050505050565b506001016128ff565b50602084015184511115612c765750505060208101519051600094500391508290506112fa565b50508151602090920151600095508594509190910391506112fa9050565b6000806000612ca7846000806000612879565b9250925092509193909250565b6000806000612cc1613296565b612ccb8686612ff6565b90925090506000826003811115612cde57fe5b14612cef5750915060009050612d01565b6000612cfa8261305e565b9350935050505b9250929050565b6001600160a01b03831660009081526009602052604081205460ff16612d2f57600961137a565b6001600160a01b038085166000908152600960209081526040808320938716835260029093019052205460ff16612d6757600061137a565b6000806122938587866000612879565b6001600160a01b0382166000908152600960205260408120805460ff16612da2576009915050610d42565b6001600160a01b038316600090815260028201602052604090205460ff16151560011415612dd4576000915050610d42565b6007546001600160a01b03841660009081526008602052604090205410612dff576010915050610d42565b6001600160a01b0380841660008181526002840160209081526040808320805460ff19166001908117909155600883528184208054918201815584529282902090920180549489166001600160a01b031990951685179055815193845283019190915280517f3ab23ab0d51cccc0c3085aec51f99228625aa1a922b3a8ca89a26b0f2027a1a59281900390910190a15060009392505050565b6000612ea2613296565b612ec860405180602001604052808681525060405180602001604052808681525061306d565b915091509250929050565b6000612edd613296565b83518351612ec89190613156565b60007f45b96fe442630264581b197e84bbada861235052c5a1aadfff9ea4e40a969aa0846011811115612f1a57fe5b846013811115612f2657fe5b604080519283526020830191909152818101859052519081900360600190a183601181111561138457fe5b6000612f5b613296565b6000612f65613296565b612f6f878761306d565b90925090506000826003811115612f8257fe5b14612f91579092509050611ea9565b612f9b818661306d565b935093505050935093915050565b6000806000612fb6613296565b612fc08787612ff6565b90925090506000826003811115612fd357fe5b14612fe45750915060009050611ea9565b612f9b612ff08261305e565b86613206565b6000613000613296565b60008061301186600001518661322c565b9092509050600082600381111561302457fe5b1461304357506040805160208101909152600081529092509050612d01565b60408051602081019091529081526000969095509350505050565b51670de0b6b3a7640000900490565b6000613077613296565b60008061308c8660000151866000015161322c565b9092509050600082600381111561309f57fe5b146130be57506040805160208101909152600081529092509050612d01565b6000806130d36706f05b59d3b2000084613206565b909250905060008260038111156130e657fe5b1461310857506040805160208101909152600081529094509250612d01915050565b60008061311d83670de0b6b3a764000061326b565b9092509050600082600381111561313057fe5b1461313757fe5b604080516020810190915290815260009a909950975050505050505050565b6000613160613296565b60008061317586670de0b6b3a764000061322c565b9092509050600082600381111561318857fe5b146131a757506040805160208101909152600081529092509050612d01565b6000806131b4838861326b565b909250905060008260038111156131c757fe5b146131e957506040805160208101909152600081529094509250612d01915050565b604080516020810190915290815260009890975095505050505050565b60008083830184811061321e57600092509050612d01565b506002915060009050612d01565b6000808361323f57506000905080612d01565b8383028385828161324c57fe5b041461326057506002915060009050612d01565b600092509050612d01565b6000808261327f5750600190506000612d01565b600083858161328a57fe5b04915091509250929050565b6040518060200160405280600081525090565b81548183558181111561154e5760008381526020902061154e918101908301613337565b60405180610140016040528060008152602001600081526020016000815260200160008152602001600081526020016000815260200161330b613296565b8152602001613318613296565b8152602001613325613296565b8152602001613332613296565b905290565b61335591905b80821115613351576000815560010161333d565b5090565b9056fea265627a7a723158209da620ad4f421a88b17965e1b7f111d3dde8ad8bdf6f7b6d4ba8427c30b07a1264736f6c63430005100032",
  "linkReferences": {},
  "deployedLinkReferences": {}
}