{
  "_format": "hh-sol-artifact-1",
  "contractName": "GovernorAlpha",
  "sourceName": "contracts/Governance/GovernorAlpha.sol",
  "abi": [
    {
      "inputs": [
        {
          "internalType": "address",
          "name": "timelock_",
          "type": "address"
        },
        {
          "internalType": "address",
          "name": "comp_",
          "type": "address"
        },
        {
          "internalType": "address",
          "name": "guardian_",
          "type": "address"
        }
      ],
      "payable": false,
      "stateMutability": "nonpayable",
      "type": "constructor"
    },
    {
      "anonymous": false,
      "inputs": [
        {
          "indexed": false,
          "internalType": "uint256",
          "name": "id",
          "type": "uint256"
        }
      ],
      "name": "ProposalCanceled",
      "type": "event"
    },
    {
      "anonymous": false,
      "inputs": [
        {
          "indexed": false,
          "internalType": "uint256",
          "name": "id",
          "type": "uint256"
        },
        {
          "indexed": false,
          "internalType": "address",
          "name": "proposer",
          "type": "address"
        },
        {
          "indexed": false,
          "internalType": "address[]",
          "name": "targets",
          "type": "address[]"
        },
        {
          "indexed": false,
          "internalType": "uint256[]",
          "name": "values",
          "type": "uint256[]"
        },
        {
          "indexed": false,
          "internalType": "string[]",
          "name": "signatures",
          "type": "string[]"
        },
        {
          "indexed": false,
          "internalType": "bytes[]",
          "name": "calldatas",
          "type": "bytes[]"
        },
        {
          "indexed": false,
          "internalType": "uint256",
          "name": "startBlock",
          "type": "uint256"
        },
        {
          "indexed": false,
          "internalType": "uint256",
          "name": "endBlock",
          "type": "uint256"
        },
        {
          "indexed": false,
          "internalType": "string",
          "name": "description",
          "type": "string"
        }
      ],
      "name": "ProposalCreated",
      "type": "event"
    },
    {
      "anonymous": false,
      "inputs": [
        {
          "indexed": false,
          "internalType": "uint256",
          "name": "id",
          "type": "uint256"
        }
      ],
      "name": "ProposalExecuted",
      "type": "event"
    },
    {
      "anonymous": false,
      "inputs": [
        {
          "indexed": false,
          "internalType": "uint256",
          "name": "id",
          "type": "uint256"
        },
        {
          "indexed": false,
          "internalType": "uint256",
          "name": "eta",
          "type": "uint256"
        }
      ],
      "name": "ProposalQueued",
      "type": "event"
    },
    {
      "anonymous": false,
      "inputs": [
        {
          "indexed": false,
          "internalType": "address",
          "name": "voter",
          "type": "address"
        },
        {
          "indexed": false,
          "internalType": "uint256",
          "name": "proposalId",
          "type": "uint256"
        },
        {
          "indexed": false,
          "internalType": "bool",
          "name": "support",
          "type": "bool"
        },
        {
          "indexed": false,
          "internalType": "uint256",
          "name": "votes",
          "type": "uint256"
        }
      ],
      "name": "VoteCast",
      "type": "event"
    },
    {
      "constant": true,
      "inputs": [],
      "name": "BALLOT_TYPEHASH",
      "outputs": [
        {
          "internalType": "bytes32",
          "name": "",
          "type": "bytes32"
        }
      ],
      "payable": false,
      "stateMutability": "view",
      "type": "function"
    },
    {
      "constant": true,
      "inputs": [],
      "name": "DOMAIN_TYPEHASH",
      "outputs": [
        {
          "internalType": "bytes32",
          "name": "",
          "type": "bytes32"
        }
      ],
      "payable": false,
      "stateMutability": "view",
      "type": "function"
    },
    {
      "constant": false,
      "inputs": [],
      "name": "__abdicate",
      "outputs": [],
      "payable": false,
      "stateMutability": "nonpayable",
      "type": "function"
    },
    {
      "constant": false,
      "inputs": [],
      "name": "__acceptAdmin",
      "outputs": [],
      "payable": false,
      "stateMutability": "nonpayable",
      "type": "function"
    },
    {
      "constant": false,
      "inputs": [
        {
          "internalType": "address",
          "name": "newPendingAdmin",
          "type": "address"
        },
        {
          "internalType": "uint256",
          "name": "eta",
          "type": "uint256"
        }
      ],
      "name": "__executeSetTimelockPendingAdmin",
      "outputs": [],
      "payable": false,
      "stateMutability": "nonpayable",
      "type": "function"
    },
    {
      "constant": false,
      "inputs": [
        {
          "internalType": "address",
          "name": "newPendingAdmin",
          "type": "address"
        },
        {
          "internalType": "uint256",
          "name": "eta",
          "type": "uint256"
        }
      ],
      "name": "__queueSetTimelockPendingAdmin",
      "outputs": [],
      "payable": false,
      "stateMutability": "nonpayable",
      "type": "function"
    },
    {
      "constant": false,
      "inputs": [
        {
          "internalType": "uint256",
          "name": "proposalId",
          "type": "uint256"
        }
      ],
      "name": "cancel",
      "outputs": [],
      "payable": false,
      "stateMutability": "nonpayable",
      "type": "function"
    },
    {
      "constant": false,
      "inputs": [
        {
          "internalType": "uint256",
          "name": "proposalId",
          "type": "uint256"
        },
        {
          "internalType": "bool",
          "name": "support",
          "type": "bool"
        }
      ],
      "name": "castVote",
      "outputs": [],
      "payable": false,
      "stateMutability": "nonpayable",
      "type": "function"
    },
    {
      "constant": false,
      "inputs": [
        {
          "internalType": "uint256",
          "name": "proposalId",
          "type": "uint256"
        },
        {
          "internalType": "bool",
          "name": "support",
          "type": "bool"
        },
        {
          "internalType": "uint8",
          "name": "v",
          "type": "uint8"
        },
        {
          "internalType": "bytes32",
          "name": "r",
          "type": "bytes32"
        },
        {
          "internalType": "bytes32",
          "name": "s",
          "type": "bytes32"
        }
      ],
      "name": "castVoteBySig",
      "outputs": [],
      "payable": false,
      "stateMutability": "nonpayable",
      "type": "function"
    },
    {
      "constant": true,
      "inputs": [],
      "name": "comp",
      "outputs": [
        {
          "internalType": "contract CompInterface",
          "name": "",
          "type": "address"
        }
      ],
      "payable": false,
      "stateMutability": "view",
      "type": "function"
    },
    {
      "constant": false,
      "inputs": [
        {
          "internalType": "uint256",
          "name": "proposalId",
          "type": "uint256"
        }
      ],
      "name": "execute",
      "outputs": [],
      "payable": true,
      "stateMutability": "payable",
      "type": "function"
    },
    {
      "constant": true,
      "inputs": [
        {
          "internalType": "uint256",
          "name": "proposalId",
          "type": "uint256"
        }
      ],
      "name": "getActions",
      "outputs": [
        {
          "internalType": "address[]",
          "name": "targets",
          "type": "address[]"
        },
        {
          "internalType": "uint256[]",
          "name": "values",
          "type": "uint256[]"
        },
        {
          "internalType": "string[]",
          "name": "signatures",
          "type": "string[]"
        },
        {
          "internalType": "bytes[]",
          "name": "calldatas",
          "type": "bytes[]"
        }
      ],
      "payable": false,
      "stateMutability": "view",
      "type": "function"
    },
    {
      "constant": true,
      "inputs": [
        {
          "internalType": "uint256",
          "name": "proposalId",
          "type": "uint256"
        },
        {
          "internalType": "address",
          "name": "voter",
          "type": "address"
        }
      ],
      "name": "getReceipt",
      "outputs": [
        {
          "components": [
            {
              "internalType": "bool",
              "name": "hasVoted",
              "type": "bool"
            },
            {
              "internalType": "bool",
              "name": "support",
              "type": "bool"
            },
            {
              "internalType": "uint96",
              "name": "votes",
              "type": "uint96"
            }
          ],
          "internalType": "struct GovernorAlpha.Receipt",
          "name": "",
          "type": "tuple"
        }
      ],
      "payable": false,
      "stateMutability": "view",
      "type": "function"
    },
    {
      "constant": true,
      "inputs": [],
      "name": "guardian",
      "outputs": [
        {
          "internalType": "address",
          "name": "",
          "type": "address"
        }
      ],
      "payable": false,
      "stateMutability": "view",
      "type": "function"
    },
    {
      "constant": true,
      "inputs": [
        {
          "internalType": "address",
          "name": "",
          "type": "address"
        }
      ],
      "name": "latestProposalIds",
      "outputs": [
        {
          "internalType": "uint256",
          "name": "",
          "type": "uint256"
        }
      ],
      "payable": false,
      "stateMutability": "view",
      "type": "function"
    },
    {
      "constant": true,
      "inputs": [],
      "name": "name",
      "outputs": [
        {
          "internalType": "string",
          "name": "",
          "type": "string"
        }
      ],
      "payable": false,
      "stateMutability": "view",
      "type": "function"
    },
    {
      "constant": true,
      "inputs": [],
      "name": "proposalCount",
      "outputs": [
        {
          "internalType": "uint256",
          "name": "",
          "type": "uint256"
        }
      ],
      "payable": false,
      "stateMutability": "view",
      "type": "function"
    },
    {
      "constant": true,
      "inputs": [],
      "name": "proposalMaxOperations",
      "outputs": [
        {
          "internalType": "uint256",
          "name": "",
          "type": "uint256"
        }
      ],
      "payable": false,
      "stateMutability": "pure",
      "type": "function"
    },
    {
      "constant": true,
      "inputs": [],
      "name": "proposalThreshold",
      "outputs": [
        {
          "internalType": "uint256",
          "name": "",
          "type": "uint256"
        }
      ],
      "payable": false,
      "stateMutability": "pure",
      "type": "function"
    },
    {
      "constant": true,
      "inputs": [
        {
          "internalType": "uint256",
          "name": "",
          "type": "uint256"
        }
      ],
      "name": "proposals",
      "outputs": [
        {
          "internalType": "uint256",
          "name": "id",
          "type": "uint256"
        },
        {
          "internalType": "address",
          "name": "proposer",
          "type": "address"
        },
        {
          "internalType": "uint256",
          "name": "eta",
          "type": "uint256"
        },
        {
          "internalType": "uint256",
          "name": "startBlock",
          "type": "uint256"
        },
        {
          "internalType": "uint256",
          "name": "endBlock",
          "type": "uint256"
        },
        {
          "internalType": "uint256",
          "name": "forVotes",
          "type": "uint256"
        },
        {
          "internalType": "uint256",
          "name": "againstVotes",
          "type": "uint256"
        },
        {
          "internalType": "bool",
          "name": "canceled",
          "type": "bool"
        },
        {
          "internalType": "bool",
          "name": "executed",
          "type": "bool"
        }
      ],
      "payable": false,
      "stateMutability": "view",
      "type": "function"
    },
    {
      "constant": false,
      "inputs": [
        {
          "internalType": "address[]",
          "name": "targets",
          "type": "address[]"
        },
        {
          "internalType": "uint256[]",
          "name": "values",
          "type": "uint256[]"
        },
        {
          "internalType": "string[]",
          "name": "signatures",
          "type": "string[]"
        },
        {
          "internalType": "bytes[]",
          "name": "calldatas",
          "type": "bytes[]"
        },
        {
          "internalType": "string",
          "name": "description",
          "type": "string"
        }
      ],
      "name": "propose",
      "outputs": [
        {
          "internalType": "uint256",
          "name": "",
          "type": "uint256"
        }
      ],
      "payable": false,
      "stateMutability": "nonpayable",
      "type": "function"
    },
    {
      "constant": false,
      "inputs": [
        {
          "internalType": "uint256",
          "name": "proposalId",
          "type": "uint256"
        }
      ],
      "name": "queue",
      "outputs": [],
      "payable": false,
      "stateMutability": "nonpayable",
      "type": "function"
    },
    {
      "constant": true,
      "inputs": [],
      "name": "quorumVotes",
      "outputs": [
        {
          "internalType": "uint256",
          "name": "",
          "type": "uint256"
        }
      ],
      "payable": false,
      "stateMutability": "pure",
      "type": "function"
    },
    {
      "constant": true,
      "inputs": [
        {
          "internalType": "uint256",
          "name": "proposalId",
          "type": "uint256"
        }
      ],
      "name": "state",
      "outputs": [
        {
          "internalType": "enum GovernorAlpha.ProposalState",
          "name": "",
          "type": "uint8"
        }
      ],
      "payable": false,
      "stateMutability": "view",
      "type": "function"
    },
    {
      "constant": true,
      "inputs": [],
      "name": "timelock",
      "outputs": [
        {
          "internalType": "contract TimelockInterface",
          "name": "",
          "type": "address"
        }
      ],
      "payable": false,
      "stateMutability": "view",
      "type": "function"
    },
    {
      "constant": true,
      "inputs": [],
      "name": "votingDelay",
      "outputs": [
        {
          "internalType": "uint256",
          "name": "",
          "type": "uint256"
        }
      ],
      "payable": false,
      "stateMutability": "pure",
      "type": "function"
    },
    {
      "constant": true,
      "inputs": [],
      "name": "votingPeriod",
      "outputs": [
        {
          "internalType": "uint256",
          "name": "",
          "type": "uint256"
        }
      ],
      "payable": false,
      "stateMutability": "pure",
      "type": "function"
    }
  ],
  "bytecode": "0x60806040523480156200001157600080fd5b50604051620038863803806200388683398101604081905262000034916200008a565b600080546001600160a01b039485166001600160a01b0319918216179091556001805493851693821693909317909255600280549190931691161790556200010a565b80516200008481620000f0565b92915050565b600080600060608486031215620000a057600080fd5b6000620000ae868662000077565b9350506020620000c18682870162000077565b9250506040620000d48682870162000077565b9150509250925092565b60006001600160a01b03821662000084565b620000fb81620000de565b81146200010757600080fd5b50565b61376c806200011a6000396000f3fe60806040526004361061019c5760003560e01c8063452a9320116100ec578063d33219b41161008a578063ddf0b00911610064578063ddf0b00914610463578063deaaa7cc14610483578063e23a9a5214610498578063fe0d94c1146104c55761019c565b8063d33219b414610419578063da35c6641461042e578063da95691a146104435761019c565b80637bdbe4d0116100c65780637bdbe4d0146103ba57806391500671146103cf578063b58131b0146103ef578063b9a61961146104045761019c565b8063452a9320146103635780634634c61f14610385578063760fbc13146103a55761019c565b806320606b7011610159578063328dd98211610133578063328dd982146102d15780633932abb1146103015780633e4f49e61461031657806340e58ee5146103435761019c565b806320606b701461028757806321f43e421461029c57806324bc1a64146102bc5761019c565b8063013cf08b146101a157806302a251a3146101df57806306fdde0314610201578063109d0af81461022357806315373e3d1461024557806317977c6114610267575b600080fd5b3480156101ad57600080fd5b506101c16101bc366004612474565b6104d8565b6040516101d699989796959493929190613517565b60405180910390f35b3480156101eb57600080fd5b506101f4610531565b6040516101d69190613254565b34801561020d57600080fd5b50610216610538565b6040516101d69190613310565b34801561022f57600080fd5b5061023861056b565b6040516101d691906132f4565b34801561025157600080fd5b506102656102603660046124c2565b61057a565b005b34801561027357600080fd5b506101f46102823660046122b7565b610589565b34801561029357600080fd5b506101f461059b565b3480156102a857600080fd5b506102656102b73660046122dd565b6105b2565b3480156102c857600080fd5b506101f4610699565b3480156102dd57600080fd5b506102f16102ec366004612474565b6106a7565b6040516101d69493929190613207565b34801561030d57600080fd5b506101f4610936565b34801561032257600080fd5b50610336610331366004612474565b61093b565b6040516101d69190613302565b34801561034f57600080fd5b5061026561035e366004612474565b610abd565b34801561036f57600080fd5b50610378610d26565b6040516101d691906130b1565b34801561039157600080fd5b506102656103a03660046124f2565b610d35565b3480156103b157600080fd5b50610265610ef7565b3480156103c657600080fd5b506101f4610f33565b3480156103db57600080fd5b506102656103ea3660046122dd565b610f38565b3480156103fb57600080fd5b506101f461100d565b34801561041057600080fd5b5061026561101b565b34801561042557600080fd5b506102386110a0565b34801561043a57600080fd5b506101f46110af565b34801561044f57600080fd5b506101f461045e366004612317565b6110b5565b34801561046f57600080fd5b5061026561047e366004612474565b6114d7565b34801561048f57600080fd5b506101f4611741565b3480156104a457600080fd5b506104b86104b3366004612492565b61174d565b6040516101d69190613461565b6102656104d3366004612474565b6117bc565b6004602052600090815260409020805460018201546002830154600784015460088501546009860154600a870154600b9097015495966001600160a01b0390951695939492939192909160ff8082169161010090041689565b6143805b90565b60405180604001604052806017815260200176436f6d706f756e6420476f7665726e6f7220416c70686160481b81525081565b6001546001600160a01b031681565b610585338383611981565b5050565b60056020526000908152604090205481565b6040516105a79061309b565b604051809103902081565b6002546001600160a01b031633146105e55760405162461bcd60e51b81526004016105dc90613351565b60405180910390fd5b600080546040516001600160a01b0390911691630825f38f9183919061060f9087906020016130b1565b604051602081830303815290604052856040518563ffffffff1660e01b815260040161063e94939291906130da565b600060405180830381600087803b15801561065857600080fd5b505af115801561066c573d6000803e3d6000fd5b505050506040513d6000823e601f3d908101601f19168201604052610694919081019061243f565b505050565b6954b40b1f852bda00000090565b6060806060806000600460008781526020019081526020016000209050806003018160040182600501836006018380548060200260200160405190810160405280929190818152602001828054801561072957602002820191906000526020600020905b81546001600160a01b0316815260019091019060200180831161070b575b505050505093508280548060200260200160405190810160405280929190818152602001828054801561077b57602002820191906000526020600020905b815481526020019060010190808311610767575b5050505050925081805480602002602001604051908101604052809291908181526020016000905b8282101561084e5760008481526020908190208301805460408051601f600260001961010060018716150201909416939093049283018590048502810185019091528181529283018282801561083a5780601f1061080f5761010080835404028352916020019161083a565b820191906000526020600020905b81548152906001019060200180831161081d57829003601f168201915b5050505050815260200190600101906107a3565b50505050915080805480602002602001604051908101604052809291908181526020016000905b828210156109205760008481526020908190208301805460408051601f600260001961010060018716150201909416939093049283018590048502810185019091528181529283018282801561090c5780601f106108e15761010080835404028352916020019161090c565b820191906000526020600020905b8154815290600101906020018083116108ef57829003601f168201915b505050505081526020019060010190610875565b5050505090509450945094509450509193509193565b600190565b6000816003541015801561094f5750600082115b61096b5760405162461bcd60e51b81526004016105dc90613361565b6000828152600460205260409020600b81015460ff1615610990576002915050610ab8565b806007015443116109a5576000915050610ab8565b806008015443116109ba576001915050610ab8565b80600a015481600901541115806109db57506109d4610699565b8160090154105b156109ea576003915050610ab8565b60028101546109fd576004915050610ab8565b600b810154610100900460ff1615610a19576007915050610ab8565b6002810154600054604080516360d143f160e11b81529051610aa293926001600160a01b03169163c1a287e2916004808301926020929190829003018186803b158015610a6557600080fd5b505afa158015610a79573d6000803e3d6000fd5b505050506040513d601f19601f82011682018060405250610a9d9190810190612421565b611b4a565b4210610ab2576006915050610ab8565b60059150505b919050565b6000610ac88261093b565b90506007816007811115610ad857fe5b1415610af65760405162461bcd60e51b81526004016105dc90613421565b60008281526004602052604090206002546001600160a01b0316331480610bc15750610b2061100d565b60018054838201546001600160a01b039182169263782d6fe19290911690610b49904390611b76565b6040518363ffffffff1660e01b8152600401610b66929190613129565b60206040518083038186803b158015610b7e57600080fd5b505afa158015610b92573d6000803e3d6000fd5b505050506040513d601f19601f82011682018060405250610bb6919081019061255a565b6001600160601b0316105b610bdd5760405162461bcd60e51b81526004016105dc906133c1565b600b8101805460ff1916600117905560005b6003820154811015610ce9576000546003830180546001600160a01b039092169163591fcdfe919084908110610c2157fe5b6000918252602090912001546004850180546001600160a01b039092169185908110610c4957fe5b9060005260206000200154856005018581548110610c6357fe5b90600052602060002001866006018681548110610c7c57fe5b9060005260206000200187600201546040518663ffffffff1660e01b8152600401610cab9594939291906131c6565b600060405180830381600087803b158015610cc557600080fd5b505af1158015610cd9573d6000803e3d6000fd5b505060019092019150610bef9050565b507f789cf55be980739dad1d0699b93b58e806b51c9d96619bfa8fe0a28abaa7b30c83604051610d199190613254565b60405180910390a1505050565b6002546001600160a01b031681565b6000604051610d439061309b565b604080519182900382208282019091526017825276436f6d706f756e6420476f7665726e6f7220416c70686160481b6020909201919091527ff5eb22c2e7100465020c98b00537528808db4fec6eb24c550685a92742247bc5610da4611b9e565b30604051602001610db89493929190613262565b6040516020818303038152906040528051906020012090506000604051610dde906130a6565b604051908190038120610df79189908990602001613297565b60405160208183030381529060405280519060200120905060008282604051602001610e2492919061306a565b604051602081830303815290604052805190602001209050600060018288888860405160008152602001604052604051610e6194939291906132bf565b6020604051602081039080840390855afa158015610e83573d6000803e3d6000fd5b5050604051601f19015191505073dcc703c0e500b653ca82273b7bfad8045d85a4706001600160a01b03821614801590610ec557506001600160a01b03811615155b610ee15760405162461bcd60e51b81526004016105dc90613411565b610eec818a8a611981565b505050505050505050565b6002546001600160a01b03163314610f215760405162461bcd60e51b81526004016105dc90613451565b600280546001600160a01b0319169055565b600a90565b6002546001600160a01b03163314610f625760405162461bcd60e51b81526004016105dc90613381565b600080546040516001600160a01b0390911691633a66f90191839190610f8c9087906020016130b1565b604051602081830303815290604052856040518563ffffffff1660e01b8152600401610fbb94939291906130da565b602060405180830381600087803b158015610fd557600080fd5b505af1158015610fe9573d6000803e3d6000fd5b505050506040513d601f19601f820116820180604052506106949190810190612421565b69152d02c7e14af680000090565b6002546001600160a01b031633146110455760405162461bcd60e51b81526004016105dc90613321565b6000805460408051630e18b68160e01b815290516001600160a01b0390921692630e18b6819260048084019382900301818387803b15801561108657600080fd5b505af115801561109a573d6000803e3d6000fd5b50505050565b6000546001600160a01b031681565b60035481565b60006110bf61100d565b600180546001600160a01b03169063782d6fe19033906110e0904390611b76565b6040518363ffffffff1660e01b81526004016110fd9291906130bf565b60206040518083038186803b15801561111557600080fd5b505afa158015611129573d6000803e3d6000fd5b505050506040513d601f19601f8201168201806040525061114d919081019061255a565b6001600160601b0316116111735760405162461bcd60e51b81526004016105dc90613401565b84518651148015611185575083518651145b8015611192575082518651145b6111ae5760405162461bcd60e51b81526004016105dc906133b1565b85516111cc5760405162461bcd60e51b81526004016105dc906133f1565b6111d4610f33565b865111156111f45760405162461bcd60e51b81526004016105dc90613391565b3360009081526005602052604090205480156112715760006112158261093b565b9050600181600781111561122557fe5b14156112435760405162461bcd60e51b81526004016105dc906133e1565b600081600781111561125157fe5b141561126f5760405162461bcd60e51b81526004016105dc906133e1565b505b600061127f43610a9d610936565b9050600061128f82610a9d610531565b60038054600101905590506112a2611d01565b604051806101a001604052806003548152602001336001600160a01b03168152602001600081526020018b81526020018a815260200189815260200188815260200184815260200183815260200160008152602001600081526020016000151581526020016000151581525090508060046000836000015181526020019081526020016000206000820151816000015560208201518160010160006101000a8154816001600160a01b0302191690836001600160a01b03160217905550604082015181600201556060820151816003019080519060200190611385929190611d76565b50608082015180516113a1916004840191602090910190611ddb565b5060a082015180516113bd916005840191602090910190611e22565b5060c082015180516113d9916006840191602090910190611e7b565b5060e082015181600701556101008201518160080155610120820151816009015561014082015181600a015561016082015181600b0160006101000a81548160ff02191690831515021790555061018082015181600b0160016101000a81548160ff02191690831515021790555090505080600001516005600083602001516001600160a01b03166001600160a01b03168152602001908152602001600020819055507f7d84a6263ae0d98d3329bd7b46bb4e8d6f98cd35a7adb45c274c8b7fd5ebd5e08160000151338c8c8c8c89898e6040516114bf9998979695949392919061346f565b60405180910390a15193505050505b95945050505050565b60046114e28261093b565b60078111156114ed57fe5b1461150a5760405162461bcd60e51b81526004016105dc90613331565b600081815260046020818152604080842084548251630d48571f60e31b8152925191959461155f9442946001600160a01b0390931693636a42b8f8938084019390829003018186803b158015610a6557600080fd5b905060005b6003830154811015611707576116ff83600301828154811061158257fe5b6000918252602090912001546004850180546001600160a01b0390921691849081106115aa57fe5b90600052602060002001548560050184815481106115c457fe5b600091825260209182902001805460408051601f60026000196101006001871615020190941693909304928301859004850281018501909152818152928301828280156116525780601f1061162757610100808354040283529160200191611652565b820191906000526020600020905b81548152906001019060200180831161163557829003601f168201915b505050505086600601858154811061166657fe5b600091825260209182902001805460408051601f60026000196101006001871615020190941693909304928301859004850281018501909152818152928301828280156116f45780601f106116c9576101008083540402835291602001916116f4565b820191906000526020600020905b8154815290600101906020018083116116d757829003601f168201915b505050505086611ba2565b600101611564565b50600282018190556040517f9a2e42fd6722813d69113e7d0079d3d940171428df7373df9c7f7617cfda289290610d19908590849061359d565b6040516105a7906130a6565b611755611ed4565b5060008281526004602090815260408083206001600160a01b0385168452600c018252918290208251606081018452905460ff80821615158352610100820416151592820192909252620100009091046001600160601b0316918101919091525b92915050565b60056117c78261093b565b60078111156117d257fe5b146117ef5760405162461bcd60e51b81526004016105dc90613341565b6000818152600460205260408120600b8101805461ff001916610100179055905b6003820154811015611945576000546004830180546001600160a01b0390921691630825f38f91908490811061184257fe5b906000526020600020015484600301848154811061185c57fe5b6000918252602090912001546004860180546001600160a01b03909216918690811061188457fe5b906000526020600020015486600501868154811061189e57fe5b906000526020600020018760060187815481106118b757fe5b9060005260206000200188600201546040518763ffffffff1660e01b81526004016118e69594939291906131c6565b6000604051808303818588803b1580156118ff57600080fd5b505af1158015611913573d6000803e3d6000fd5b50505050506040513d6000823e601f3d908101601f1916820160405261193c919081019061243f565b50600101611810565b507f712ae1383f79ac853f8d882153778e0260ef8f03b504e2866e0593e04d2b291f826040516119759190613254565b60405180910390a15050565b600161198c8361093b565b600781111561199757fe5b146119b45760405162461bcd60e51b81526004016105dc90613431565b60008281526004602090815260408083206001600160a01b0387168452600c8101909252909120805460ff16156119fd5760405162461bcd60e51b81526004016105dc90613371565b600154600783015460405163782d6fe160e01b81526000926001600160a01b03169163782d6fe191611a33918a91600401613129565b60206040518083038186803b158015611a4b57600080fd5b505afa158015611a5f573d6000803e3d6000fd5b505050506040513d601f19601f82011682018060405250611a83919081019061255a565b90508315611aac57611aa28360090154826001600160601b0316611b4a565b6009840155611ac9565b611ac383600a0154826001600160601b0316611b4a565b600a8401555b8154600160ff199091161761ff00191661010085151502176dffffffffffffffffffffffff00001916620100006001600160601b038316021782556040517f877856338e13f63d0c36822ff0ef736b80934cd90574a3a5bc9262c39d217c4690611b3a908890889088908690613137565b60405180910390a1505050505050565b600082820183811015611b6f5760405162461bcd60e51b81526004016105dc906133a1565b9392505050565b600082821115611b985760405162461bcd60e51b81526004016105dc90613441565b50900390565b4690565b6000546040516001600160a01b039091169063f2b0653790611bd0908890889088908890889060200161316c565b604051602081830303815290604052805190602001206040518263ffffffff1660e01b8152600401611c029190613254565b60206040518083038186803b158015611c1a57600080fd5b505afa158015611c2e573d6000803e3d6000fd5b505050506040513d601f19601f82011682018060405250611c529190810190612403565b15611c6f5760405162461bcd60e51b81526004016105dc906133d1565b600054604051633a66f90160e01b81526001600160a01b0390911690633a66f90190611ca7908890889088908890889060040161316c565b602060405180830381600087803b158015611cc157600080fd5b505af1158015611cd5573d6000803e3d6000fd5b505050506040513d601f19601f82011682018060405250611cf99190810190612421565b505050505050565b604051806101a001604052806000815260200160006001600160a01b031681526020016000815260200160608152602001606081526020016060815260200160608152602001600081526020016000815260200160008152602001600081526020016000151581526020016000151581525090565b828054828255906000526020600020908101928215611dcb579160200282015b82811115611dcb57825182546001600160a01b0319166001600160a01b03909116178255602090920191600190910190611d96565b50611dd7929150611ef4565b5090565b828054828255906000526020600020908101928215611e16579160200282015b82811115611e16578251825591602001919060010190611dfb565b50611dd7929150611f18565b828054828255906000526020600020908101928215611e6f579160200282015b82811115611e6f5782518051611e5f918491602090910190611f32565b5091602001919060010190611e42565b50611dd7929150611f9f565b828054828255906000526020600020908101928215611ec8579160200282015b82811115611ec85782518051611eb8918491602090910190611f32565b5091602001919060010190611e9b565b50611dd7929150611fc2565b604080516060810182526000808252602082018190529181019190915290565b61053591905b80821115611dd75780546001600160a01b0319168155600101611efa565b61053591905b80821115611dd75760008155600101611f1e565b828054600181600116156101000203166002900490600052602060002090601f016020900481019282601f10611f7357805160ff1916838001178555611e16565b82800160010185558215611e165791820182811115611e16578251825591602001919060010190611dfb565b61053591905b80821115611dd7576000611fb98282611fe5565b50600101611fa5565b61053591905b80821115611dd7576000611fdc8282611fe5565b50600101611fc8565b50805460018160011615610100020316600290046000825580601f1061200b5750612029565b601f0160209004906000526020600020908101906120299190611f18565b50565b80356117b6816136f1565b600082601f83011261204857600080fd5b813561205b612056826135d2565b6135ab565b9150818183526020840193506020810190508385602084028201111561208057600080fd5b60005b838110156120ac5781612096888261202c565b8452506020928301929190910190600101612083565b5050505092915050565b600082601f8301126120c757600080fd5b81356120d5612056826135d2565b81815260209384019390925082018360005b838110156120ac57813586016120fd888261220c565b84525060209283019291909101906001016120e7565b600082601f83011261212457600080fd5b8135612132612056826135d2565b81815260209384019390925082018360005b838110156120ac578135860161215a888261220c565b8452506020928301929190910190600101612144565b600082601f83011261218157600080fd5b813561218f612056826135d2565b915081818352602084019350602081019050838560208402820111156121b457600080fd5b60005b838110156120ac57816121ca88826121f6565b84525060209283019291909101906001016121b7565b80356117b681613705565b80516117b681613705565b80356117b68161370e565b80516117b68161370e565b600082601f83011261221d57600080fd5b813561222b612056826135f3565b9150808252602083016020830185838301111561224757600080fd5b6122528382846136a5565b50505092915050565b600082601f83011261226c57600080fd5b815161227a612056826135f3565b9150808252602083016020830185838301111561229657600080fd5b6122528382846136b1565b80356117b681613717565b80516117b681613720565b6000602082840312156122c957600080fd5b60006122d5848461202c565b949350505050565b600080604083850312156122f057600080fd5b60006122fc858561202c565b925050602061230d858286016121f6565b9150509250929050565b600080600080600060a0868803121561232f57600080fd5b853567ffffffffffffffff81111561234657600080fd5b61235288828901612037565b955050602086013567ffffffffffffffff81111561236f57600080fd5b61237b88828901612170565b945050604086013567ffffffffffffffff81111561239857600080fd5b6123a488828901612113565b935050606086013567ffffffffffffffff8111156123c157600080fd5b6123cd888289016120b6565b925050608086013567ffffffffffffffff8111156123ea57600080fd5b6123f68882890161220c565b9150509295509295909350565b60006020828403121561241557600080fd5b60006122d584846121eb565b60006020828403121561243357600080fd5b60006122d58484612201565b60006020828403121561245157600080fd5b815167ffffffffffffffff81111561246857600080fd5b6122d58482850161225b565b60006020828403121561248657600080fd5b60006122d584846121f6565b600080604083850312156124a557600080fd5b60006124b185856121f6565b925050602061230d8582860161202c565b600080604083850312156124d557600080fd5b60006124e185856121f6565b925050602061230d858286016121e0565b600080600080600060a0868803121561250a57600080fd5b600061251688886121f6565b9550506020612527888289016121e0565b9450506040612538888289016122a1565b9350506060612549888289016121f6565b92505060806123f6888289016121f6565b60006020828403121561256c57600080fd5b60006122d584846122ac565b600061258483836125b3565b505060200190565b6000611b6f8383612755565b6000612584838361273b565b6125ad81613672565b82525050565b6125ad8161363a565b60006125c78261362d565b6125d18185613631565b93506125dc8361361b565b8060005b8381101561260a5781516125f48882612578565b97506125ff8361361b565b9250506001016125e0565b509495945050505050565b60006126208261362d565b61262a8185613631565b93508360208202850161263c8561361b565b8060005b858110156126765784840389528151612659858261258c565b94506126648361361b565b60209a909a0199925050600101612640565b5091979650505050505050565b600061268e8261362d565b6126988185613631565b9350836020820285016126aa8561361b565b8060005b8581101561267657848403895281516126c7858261258c565b94506126d28361361b565b60209a909a01999250506001016126ae565b60006126ef8261362d565b6126f98185613631565b93506127048361361b565b8060005b8381101561260a57815161271c8882612598565b97506127278361361b565b925050600101612708565b6125ad81613645565b6125ad81610535565b6125ad61275082610535565b610535565b60006127608261362d565b61276a8185613631565b935061277a8185602086016136b1565b612783816136dd565b9093019392505050565b6000815460018116600081146127aa57600181146127d05761280f565b607f60028304166127bb8187613631565b60ff198416815295505060208501925061280f565b600282046127de8187613631565b95506127e985613621565b60005b82811015612808578154888201526001909101906020016127ec565b8701945050505b505092915050565b6125ad81613679565b6125ad81613684565b6125ad8161368f565b600061283f603983613631565b7f476f7665726e6f72416c7068613a3a5f5f61636365707441646d696e3a20736581527f6e646572206d75737420626520676f7620677561726469616e00000000000000602082015260400192915050565b600061289e604483613631565b7f476f7665726e6f72416c7068613a3a71756575653a2070726f706f73616c206381527f616e206f6e6c79206265207175657565642069662069742069732073756363656020820152631959195960e21b604082015260600192915050565b600061290a604583613631565b7f476f7665726e6f72416c7068613a3a657865637574653a2070726f706f73616c81527f2063616e206f6e6c7920626520657865637574656420696620697420697320716020820152641d595d595960da1b604082015260600192915050565b6000612977600283610ab8565b61190160f01b815260020192915050565b6000612995604c83613631565b7f476f7665726e6f72416c7068613a3a5f5f6578656375746553657454696d656c81527f6f636b50656e64696e6741646d696e3a2073656e646572206d7573742062652060208201526b33b7bb1033bab0b93234b0b760a11b604082015260600192915050565b6000612a09601883613631565b7f73657450656e64696e6741646d696e2861646472657373290000000000000000815260200192915050565b6000612a42602983613631565b7f476f7665726e6f72416c7068613a3a73746174653a20696e76616c69642070728152681bdc1bdcd85b081a5960ba1b602082015260400192915050565b6000612a8d602d83613631565b7f476f7665726e6f72416c7068613a3a5f63617374566f74653a20766f7465722081526c185b1c9958591e481d9bdd1959609a1b602082015260400192915050565b6000612adc604a83613631565b7f476f7665726e6f72416c7068613a3a5f5f717565756553657454696d656c6f6381527f6b50656e64696e6741646d696e3a2073656e646572206d75737420626520676f6020820152693b1033bab0b93234b0b760b11b604082015260600192915050565b6000612b4e602883613631565b7f476f7665726e6f72416c7068613a3a70726f706f73653a20746f6f206d616e7981526720616374696f6e7360c01b602082015260400192915050565b6000612b98601183613631565b706164646974696f6e206f766572666c6f7760781b815260200192915050565b6000612bc5604383610ab8565b7f454950373132446f6d61696e28737472696e67206e616d652c75696e7432353681527f20636861696e49642c6164647265737320766572696679696e67436f6e74726160208201526263742960e81b604082015260430192915050565b6000612c30602783610ab8565b7f42616c6c6f742875696e743235362070726f706f73616c49642c626f6f6c20738152667570706f72742960c81b602082015260270192915050565b6000612c79604483613631565b7f476f7665726e6f72416c7068613a3a70726f706f73653a2070726f706f73616c81527f2066756e6374696f6e20696e666f726d6174696f6e206172697479206d69736d6020820152630c2e8c6d60e31b604082015260600192915050565b6000612ce5602f83613631565b7f476f7665726e6f72416c7068613a3a63616e63656c3a2070726f706f7365722081526e18589bdd99481d1a1c995cda1bdb19608a1b602082015260400192915050565b6000612d36604483613631565b7f476f7665726e6f72416c7068613a3a5f71756575654f725265766572743a207081527f726f706f73616c20616374696f6e20616c7265616479207175657565642061746020820152632065746160e01b604082015260600192915050565b6000612da2603683613631565b7f476f7665726e6f72416c7068613a3a70726f706f73653a206f6e65206c69766581527510383937b837b9b0b6103832b910383937b837b9b2b960511b602082015260400192915050565b6000612dfa602c83613631565b7f476f7665726e6f72416c7068613a3a70726f706f73653a206d7573742070726f81526b7669646520616374696f6e7360a01b602082015260400192915050565b6000612e48603f83613631565b7f476f7665726e6f72416c7068613a3a70726f706f73653a2070726f706f73657281527f20766f7465732062656c6f772070726f706f73616c207468726573686f6c6400602082015260400192915050565b6000612ea7602f83613631565b7f476f7665726e6f72416c7068613a3a63617374566f746542795369673a20696e81526e76616c6964207369676e617475726560881b602082015260400192915050565b6000612ef8603683613631565b7f476f7665726e6f72416c7068613a3a63616e63656c3a2063616e6e6f742063618152751b98d95b08195e1958dd5d1959081c1c9bdc1bdcd85b60521b602082015260400192915050565b6000612f50602a83613631565b7f476f7665726e6f72416c7068613a3a5f63617374566f74653a20766f74696e67815269081a5cc818db1bdcd95960b21b602082015260400192915050565b6000612f9c601583613631565b747375627472616374696f6e20756e646572666c6f7760581b815260200192915050565b6000612fcd603683613631565b7f476f7665726e6f72416c7068613a3a5f5f61626469636174653a2073656e6465815275391036bab9ba1031329033b7bb1033bab0b93234b0b760511b602082015260400192915050565b805160608301906130298482612732565b50602082015161303c6020850182612732565b50604082015161109a6040850182613061565b6125ad81613660565b6125ad8161369a565b6125ad81613666565b60006130758261296a565b91506130818285612744565b6020820191506130918284612744565b5060200192915050565b60006117b682612bb8565b60006117b682612c23565b602081016117b682846125b3565b604081016130cd82856125a4565b611b6f602083018461273b565b60a081016130e882876125b3565b6130f56020830186612829565b8181036040830152613106816129fc565b9050818103606083015261311a8185612755565b90506114ce608083018461273b565b604081016130cd82856125b3565b6080810161314582876125b3565b613152602083018661273b565b61315f6040830185612732565b6114ce6060830184613058565b60a0810161317a82886125b3565b613187602083018761273b565b81810360408301526131998186612755565b905081810360608301526131ad8185612755565b90506131bc608083018461273b565b9695505050505050565b60a081016131d482886125b3565b6131e1602083018761273b565b81810360408301526131f3818661278d565b905081810360608301526131ad818561278d565b6080808252810161321881876125bc565b9050818103602083015261322c81866126e4565b905081810360408301526132408185612683565b905081810360608301526131bc8184612615565b602081016117b6828461273b565b60808101613270828761273b565b61327d602083018661273b565b61328a604083018561273b565b6114ce60608301846125b3565b606081016132a5828661273b565b6132b2602083018561273b565b6122d56040830184612732565b608081016132cd828761273b565b6132da602083018661304f565b6132e7604083018561273b565b6114ce606083018461273b565b602081016117b68284612817565b602081016117b68284612820565b60208082528101611b6f8184612755565b602080825281016117b681612832565b602080825281016117b681612891565b602080825281016117b6816128fd565b602080825281016117b681612988565b602080825281016117b681612a35565b602080825281016117b681612a80565b602080825281016117b681612acf565b602080825281016117b681612b41565b602080825281016117b681612b8b565b602080825281016117b681612c6c565b602080825281016117b681612cd8565b602080825281016117b681612d29565b602080825281016117b681612d95565b602080825281016117b681612ded565b602080825281016117b681612e3b565b602080825281016117b681612e9a565b602080825281016117b681612eeb565b602080825281016117b681612f43565b602080825281016117b681612f8f565b602080825281016117b681612fc0565b606081016117b68284613018565b610120810161347e828c61273b565b61348b602083018b6125a4565b818103604083015261349d818a6125bc565b905081810360608301526134b181896126e4565b905081810360808301526134c58188612683565b905081810360a08301526134d98187612615565b90506134e860c083018661273b565b6134f560e083018561273b565b8181036101008301526135088184612755565b9b9a5050505050505050505050565b6101208101613526828c61273b565b613533602083018b6125b3565b613540604083018a61273b565b61354d606083018961273b565b61355a608083018861273b565b61356760a083018761273b565b61357460c083018661273b565b61358160e0830185612732565b61358f610100830184612732565b9a9950505050505050505050565b604081016130cd828561273b565b60405181810167ffffffffffffffff811182821017156135ca57600080fd5b604052919050565b600067ffffffffffffffff8211156135e957600080fd5b5060209081020190565b600067ffffffffffffffff82111561360a57600080fd5b506020601f91909101601f19160190565b60200190565b60009081526020902090565b5190565b90815260200190565b60006117b682613654565b151590565b80610ab8816136e7565b6001600160a01b031690565b60ff1690565b6001600160601b031690565b60006117b6825b60006117b68261363a565b60006117b68261364a565b60006117b682610535565b60006117b682613666565b82818337506000910152565b60005b838110156136cc5781810151838201526020016136b4565b8381111561109a5750506000910152565b601f01601f191690565b6008811061202957fe5b6136fa8161363a565b811461202957600080fd5b6136fa81613645565b6136fa81610535565b6136fa81613660565b6136fa8161366656fea365627a7a723158207d21db7fe760315987385a6e1b9ab0529d75af50573ea3237ffe3d2c9bd1e9826c6578706572696d656e74616cf564736f6c63430005100040",
  "linkReferences": {},
  "deployedLinkReferences": {}
}