{
  "_format": "hh-sol-artifact-1",
  "contractName": "CRDOC",
  "sourceName": "contracts/CRDOC.sol",
  "abi": [
    {
      "inputs": [
        {
          "internalType": "address",
          "name": "underlying_",
          "type": "address"
        },
        {
          "internalType": "contract ComptrollerInterface",
          "name": "comptroller_",
          "type": "address"
        },
        {
          "internalType": "contract InterestRateModel",
          "name": "interestRateModel_",
          "type": "address"
        },
        {
          "internalType": "uint256",
          "name": "initialExchangeRateMantissa_",
          "type": "uint256"
        },
        {
          "internalType": "string",
          "name": "name_",
          "type": "string"
        },
        {
          "internalType": "string",
          "name": "symbol_",
          "type": "string"
        },
        {
          "internalType": "uint8",
          "name": "decimals_",
          "type": "uint8"
        },
        {
          "internalType": "address payable",
          "name": "admin_",
          "type": "address"
        }
      ],
      "payable": false,
      "stateMutability": "nonpayable",
      "type": "constructor"
    },
    {
      "anonymous": false,
      "inputs": [
        {
          "indexed": false,
          "internalType": "uint256",
          "name": "cashPrior",
          "type": "uint256"
        },
        {
          "indexed": false,
          "internalType": "uint256",
          "name": "interestAccumulated",
          "type": "uint256"
        },
        {
          "indexed": false,
          "internalType": "uint256",
          "name": "borrowIndex",
          "type": "uint256"
        },
        {
          "indexed": false,
          "internalType": "uint256",
          "name": "totalBorrows",
          "type": "uint256"
        }
      ],
      "name": "AccrueInterest",
      "type": "event"
    },
    {
      "anonymous": false,
      "inputs": [
        {
          "indexed": true,
          "internalType": "address",
          "name": "owner",
          "type": "address"
        },
        {
          "indexed": true,
          "internalType": "address",
          "name": "spender",
          "type": "address"
        },
        {
          "indexed": false,
          "internalType": "uint256",
          "name": "amount",
          "type": "uint256"
        }
      ],
      "name": "Approval",
      "type": "event"
    },
    {
      "anonymous": false,
      "inputs": [
        {
          "indexed": true,
          "internalType": "address",
          "name": "borrower",
          "type": "address"
        },
        {
          "indexed": false,
          "internalType": "uint256",
          "name": "borrowAmount",
          "type": "uint256"
        },
        {
          "indexed": false,
          "internalType": "uint256",
          "name": "accountBorrows",
          "type": "uint256"
        },
        {
          "indexed": false,
          "internalType": "uint256",
          "name": "totalBorrows",
          "type": "uint256"
        }
      ],
      "name": "Borrow",
      "type": "event"
    },
    {
      "anonymous": false,
      "inputs": [
        {
          "indexed": false,
          "internalType": "uint256",
          "name": "error",
          "type": "uint256"
        },
        {
          "indexed": false,
          "internalType": "uint256",
          "name": "info",
          "type": "uint256"
        },
        {
          "indexed": false,
          "internalType": "uint256",
          "name": "detail",
          "type": "uint256"
        }
      ],
      "name": "Failure",
      "type": "event"
    },
    {
      "anonymous": false,
      "inputs": [
        {
          "indexed": true,
          "internalType": "address",
          "name": "liquidator",
          "type": "address"
        },
        {
          "indexed": true,
          "internalType": "address",
          "name": "borrower",
          "type": "address"
        },
        {
          "indexed": false,
          "internalType": "uint256",
          "name": "repayAmount",
          "type": "uint256"
        },
        {
          "indexed": true,
          "internalType": "address",
          "name": "cTokenCollateral",
          "type": "address"
        },
        {
          "indexed": false,
          "internalType": "uint256",
          "name": "seizeTokens",
          "type": "uint256"
        }
      ],
      "name": "LiquidateBorrow",
      "type": "event"
    },
    {
      "anonymous": false,
      "inputs": [
        {
          "indexed": true,
          "internalType": "address",
          "name": "minter",
          "type": "address"
        },
        {
          "indexed": false,
          "internalType": "uint256",
          "name": "mintAmount",
          "type": "uint256"
        },
        {
          "indexed": false,
          "internalType": "uint256",
          "name": "mintTokens",
          "type": "uint256"
        }
      ],
      "name": "Mint",
      "type": "event"
    },
    {
      "anonymous": false,
      "inputs": [
        {
          "indexed": false,
          "internalType": "address",
          "name": "oldAdmin",
          "type": "address"
        },
        {
          "indexed": false,
          "internalType": "address",
          "name": "newAdmin",
          "type": "address"
        }
      ],
      "name": "NewAdmin",
      "type": "event"
    },
    {
      "anonymous": false,
      "inputs": [
        {
          "indexed": false,
          "internalType": "contract ComptrollerInterface",
          "name": "oldComptroller",
          "type": "address"
        },
        {
          "indexed": false,
          "internalType": "contract ComptrollerInterface",
          "name": "newComptroller",
          "type": "address"
        }
      ],
      "name": "NewComptroller",
      "type": "event"
    },
    {
      "anonymous": false,
      "inputs": [
        {
          "indexed": false,
          "internalType": "contract InterestRateModel",
          "name": "oldInterestRateModel",
          "type": "address"
        },
        {
          "indexed": false,
          "internalType": "contract InterestRateModel",
          "name": "newInterestRateModel",
          "type": "address"
        }
      ],
      "name": "NewMarketInterestRateModel",
      "type": "event"
    },
    {
      "anonymous": false,
      "inputs": [
        {
          "indexed": false,
          "internalType": "address",
          "name": "oldPendingAdmin",
          "type": "address"
        },
        {
          "indexed": false,
          "internalType": "address",
          "name": "newPendingAdmin",
          "type": "address"
        }
      ],
      "name": "NewPendingAdmin",
      "type": "event"
    },
    {
      "anonymous": false,
      "inputs": [
        {
          "indexed": false,
          "internalType": "uint256",
          "name": "oldReserveFactorMantissa",
          "type": "uint256"
        },
        {
          "indexed": false,
          "internalType": "uint256",
          "name": "newReserveFactorMantissa",
          "type": "uint256"
        }
      ],
      "name": "NewReserveFactor",
      "type": "event"
    },
    {
      "anonymous": false,
      "inputs": [
        {
          "indexed": true,
          "internalType": "address",
          "name": "redeemer",
          "type": "address"
        },
        {
          "indexed": false,
          "internalType": "uint256",
          "name": "redeemAmount",
          "type": "uint256"
        },
        {
          "indexed": false,
          "internalType": "uint256",
          "name": "redeemTokens",
          "type": "uint256"
        }
      ],
      "name": "Redeem",
      "type": "event"
    },
    {
      "anonymous": false,
      "inputs": [
        {
          "indexed": true,
          "internalType": "address",
          "name": "payer",
          "type": "address"
        },
        {
          "indexed": true,
          "internalType": "address",
          "name": "borrower",
          "type": "address"
        },
        {
          "indexed": false,
          "internalType": "uint256",
          "name": "repayAmount",
          "type": "uint256"
        },
        {
          "indexed": false,
          "internalType": "uint256",
          "name": "accountBorrows",
          "type": "uint256"
        },
        {
          "indexed": false,
          "internalType": "uint256",
          "name": "totalBorrows",
          "type": "uint256"
        }
      ],
      "name": "RepayBorrow",
      "type": "event"
    },
    {
      "anonymous": false,
      "inputs": [
        {
          "indexed": false,
          "internalType": "address",
          "name": "benefactor",
          "type": "address"
        },
        {
          "indexed": false,
          "internalType": "uint256",
          "name": "addAmount",
          "type": "uint256"
        },
        {
          "indexed": false,
          "internalType": "uint256",
          "name": "newTotalReserves",
          "type": "uint256"
        }
      ],
      "name": "ReservesAdded",
      "type": "event"
    },
    {
      "anonymous": false,
      "inputs": [
        {
          "indexed": false,
          "internalType": "address",
          "name": "admin",
          "type": "address"
        },
        {
          "indexed": false,
          "internalType": "uint256",
          "name": "reduceAmount",
          "type": "uint256"
        },
        {
          "indexed": false,
          "internalType": "uint256",
          "name": "newTotalReserves",
          "type": "uint256"
        }
      ],
      "name": "ReservesReduced",
      "type": "event"
    },
    {
      "anonymous": false,
      "inputs": [
        {
          "indexed": false,
          "internalType": "address",
          "name": "benefactor",
          "type": "address"
        },
        {
          "indexed": false,
          "internalType": "uint256",
          "name": "addAmount",
          "type": "uint256"
        },
        {
          "indexed": false,
          "internalType": "uint256",
          "name": "newSubsidyFund",
          "type": "uint256"
        }
      ],
      "name": "SubsidyAdded",
      "type": "event"
    },
    {
      "anonymous": false,
      "inputs": [
        {
          "indexed": true,
          "internalType": "address",
          "name": "from",
          "type": "address"
        },
        {
          "indexed": true,
          "internalType": "address",
          "name": "to",
          "type": "address"
        },
        {
          "indexed": false,
          "internalType": "uint256",
          "name": "amount",
          "type": "uint256"
        }
      ],
      "name": "Transfer",
      "type": "event"
    },
    {
      "constant": false,
      "inputs": [],
      "name": "_acceptAdmin",
      "outputs": [
        {
          "internalType": "uint256",
          "name": "",
          "type": "uint256"
        }
      ],
      "payable": false,
      "stateMutability": "nonpayable",
      "type": "function"
    },
    {
      "constant": false,
      "inputs": [
        {
          "internalType": "uint256",
          "name": "addAmount",
          "type": "uint256"
        }
      ],
      "name": "_addReserves",
      "outputs": [
        {
          "internalType": "uint256",
          "name": "",
          "type": "uint256"
        }
      ],
      "payable": false,
      "stateMutability": "nonpayable",
      "type": "function"
    },
    {
      "constant": false,
      "inputs": [
        {
          "internalType": "uint256",
          "name": "reduceAmount",
          "type": "uint256"
        }
      ],
      "name": "_reduceReserves",
      "outputs": [
        {
          "internalType": "uint256",
          "name": "",
          "type": "uint256"
        }
      ],
      "payable": false,
      "stateMutability": "nonpayable",
      "type": "function"
    },
    {
      "constant": false,
      "inputs": [
        {
          "internalType": "contract ComptrollerInterface",
          "name": "newComptroller",
          "type": "address"
        }
      ],
      "name": "_setComptroller",
      "outputs": [
        {
          "internalType": "uint256",
          "name": "",
          "type": "uint256"
        }
      ],
      "payable": false,
      "stateMutability": "nonpayable",
      "type": "function"
    },
    {
      "constant": false,
      "inputs": [
        {
          "internalType": "contract InterestRateModel",
          "name": "newInterestRateModel",
          "type": "address"
        }
      ],
      "name": "_setInterestRateModel",
      "outputs": [
        {
          "internalType": "uint256",
          "name": "",
          "type": "uint256"
        }
      ],
      "payable": false,
      "stateMutability": "nonpayable",
      "type": "function"
    },
    {
      "constant": false,
      "inputs": [
        {
          "internalType": "address payable",
          "name": "newPendingAdmin",
          "type": "address"
        }
      ],
      "name": "_setPendingAdmin",
      "outputs": [
        {
          "internalType": "uint256",
          "name": "",
          "type": "uint256"
        }
      ],
      "payable": false,
      "stateMutability": "nonpayable",
      "type": "function"
    },
    {
      "constant": false,
      "inputs": [
        {
          "internalType": "uint256",
          "name": "newReserveFactorMantissa",
          "type": "uint256"
        }
      ],
      "name": "_setReserveFactor",
      "outputs": [
        {
          "internalType": "uint256",
          "name": "",
          "type": "uint256"
        }
      ],
      "payable": false,
      "stateMutability": "nonpayable",
      "type": "function"
    },
    {
      "constant": true,
      "inputs": [],
      "name": "accrualBlockNumber",
      "outputs": [
        {
          "internalType": "uint256",
          "name": "",
          "type": "uint256"
        }
      ],
      "payable": false,
      "stateMutability": "view",
      "type": "function"
    },
    {
      "constant": false,
      "inputs": [],
      "name": "accrueInterest",
      "outputs": [
        {
          "internalType": "uint256",
          "name": "",
          "type": "uint256"
        }
      ],
      "payable": false,
      "stateMutability": "nonpayable",
      "type": "function"
    },
    {
      "constant": true,
      "inputs": [],
      "name": "admin",
      "outputs": [
        {
          "internalType": "address payable",
          "name": "",
          "type": "address"
        }
      ],
      "payable": false,
      "stateMutability": "view",
      "type": "function"
    },
    {
      "constant": true,
      "inputs": [
        {
          "internalType": "address",
          "name": "owner",
          "type": "address"
        },
        {
          "internalType": "address",
          "name": "spender",
          "type": "address"
        }
      ],
      "name": "allowance",
      "outputs": [
        {
          "internalType": "uint256",
          "name": "",
          "type": "uint256"
        }
      ],
      "payable": false,
      "stateMutability": "view",
      "type": "function"
    },
    {
      "constant": false,
      "inputs": [
        {
          "internalType": "address",
          "name": "spender",
          "type": "address"
        },
        {
          "internalType": "uint256",
          "name": "amount",
          "type": "uint256"
        }
      ],
      "name": "approve",
      "outputs": [
        {
          "internalType": "bool",
          "name": "",
          "type": "bool"
        }
      ],
      "payable": false,
      "stateMutability": "nonpayable",
      "type": "function"
    },
    {
      "constant": true,
      "inputs": [
        {
          "internalType": "address",
          "name": "owner",
          "type": "address"
        }
      ],
      "name": "balanceOf",
      "outputs": [
        {
          "internalType": "uint256",
          "name": "",
          "type": "uint256"
        }
      ],
      "payable": false,
      "stateMutability": "view",
      "type": "function"
    },
    {
      "constant": false,
      "inputs": [
        {
          "internalType": "address",
          "name": "owner",
          "type": "address"
        }
      ],
      "name": "balanceOfUnderlying",
      "outputs": [
        {
          "internalType": "uint256",
          "name": "",
          "type": "uint256"
        }
      ],
      "payable": false,
      "stateMutability": "nonpayable",
      "type": "function"
    },
    {
      "constant": false,
      "inputs": [
        {
          "internalType": "uint256",
          "name": "borrowAmount",
          "type": "uint256"
        }
      ],
      "name": "borrow",
      "outputs": [
        {
          "internalType": "uint256",
          "name": "",
          "type": "uint256"
        }
      ],
      "payable": false,
      "stateMutability": "nonpayable",
      "type": "function"
    },
    {
      "constant": false,
      "inputs": [
        {
          "internalType": "address",
          "name": "account",
          "type": "address"
        }
      ],
      "name": "borrowBalanceCurrent",
      "outputs": [
        {
          "internalType": "uint256",
          "name": "",
          "type": "uint256"
        }
      ],
      "payable": false,
      "stateMutability": "nonpayable",
      "type": "function"
    },
    {
      "constant": true,
      "inputs": [
        {
          "internalType": "address",
          "name": "account",
          "type": "address"
        }
      ],
      "name": "borrowBalanceStored",
      "outputs": [
        {
          "internalType": "uint256",
          "name": "",
          "type": "uint256"
        }
      ],
      "payable": false,
      "stateMutability": "view",
      "type": "function"
    },
    {
      "constant": true,
      "inputs": [],
      "name": "borrowIndex",
      "outputs": [
        {
          "internalType": "uint256",
          "name": "",
          "type": "uint256"
        }
      ],
      "payable": false,
      "stateMutability": "view",
      "type": "function"
    },
    {
      "constant": true,
      "inputs": [],
      "name": "borrowRatePerBlock",
      "outputs": [
        {
          "internalType": "uint256",
          "name": "",
          "type": "uint256"
        }
      ],
      "payable": false,
      "stateMutability": "view",
      "type": "function"
    },
    {
      "constant": true,
      "inputs": [],
      "name": "comptroller",
      "outputs": [
        {
          "internalType": "contract ComptrollerInterface",
          "name": "",
          "type": "address"
        }
      ],
      "payable": false,
      "stateMutability": "view",
      "type": "function"
    },
    {
      "constant": true,
      "inputs": [],
      "name": "decimals",
      "outputs": [
        {
          "internalType": "uint8",
          "name": "",
          "type": "uint8"
        }
      ],
      "payable": false,
      "stateMutability": "view",
      "type": "function"
    },
    {
      "constant": false,
      "inputs": [],
      "name": "exchangeRateCurrent",
      "outputs": [
        {
          "internalType": "uint256",
          "name": "",
          "type": "uint256"
        }
      ],
      "payable": false,
      "stateMutability": "nonpayable",
      "type": "function"
    },
    {
      "constant": true,
      "inputs": [],
      "name": "exchangeRateStored",
      "outputs": [
        {
          "internalType": "uint256",
          "name": "",
          "type": "uint256"
        }
      ],
      "payable": false,
      "stateMutability": "view",
      "type": "function"
    },
    {
      "constant": true,
      "inputs": [
        {
          "internalType": "address",
          "name": "account",
          "type": "address"
        }
      ],
      "name": "getAccountSnapshot",
      "outputs": [
        {
          "internalType": "uint256",
          "name": "",
          "type": "uint256"
        },
        {
          "internalType": "uint256",
          "name": "",
          "type": "uint256"
        },
        {
          "internalType": "uint256",
          "name": "",
          "type": "uint256"
        },
        {
          "internalType": "uint256",
          "name": "",
          "type": "uint256"
        }
      ],
      "payable": false,
      "stateMutability": "view",
      "type": "function"
    },
    {
      "constant": true,
      "inputs": [
        {
          "internalType": "address",
          "name": "account",
          "type": "address"
        }
      ],
      "name": "getBorrowerPrincipalStored",
      "outputs": [
        {
          "internalType": "uint256",
          "name": "borrowed",
          "type": "uint256"
        }
      ],
      "payable": false,
      "stateMutability": "view",
      "type": "function"
    },
    {
      "constant": true,
      "inputs": [],
      "name": "getCash",
      "outputs": [
        {
          "internalType": "uint256",
          "name": "",
          "type": "uint256"
        }
      ],
      "payable": false,
      "stateMutability": "view",
      "type": "function"
    },
    {
      "constant": true,
      "inputs": [
        {
          "internalType": "address",
          "name": "account",
          "type": "address"
        }
      ],
      "name": "getSupplierSnapshotStored",
      "outputs": [
        {
          "internalType": "uint256",
          "name": "tokens",
          "type": "uint256"
        },
        {
          "internalType": "uint256",
          "name": "underlyingAmount",
          "type": "uint256"
        },
        {
          "internalType": "uint256",
          "name": "suppliedAt",
          "type": "uint256"
        },
        {
          "internalType": "uint256",
          "name": "promisedSupplyRate",
          "type": "uint256"
        }
      ],
      "payable": false,
      "stateMutability": "view",
      "type": "function"
    },
    {
      "constant": true,
      "inputs": [],
      "name": "initialExchangeRateMantissa",
      "outputs": [
        {
          "internalType": "uint256",
          "name": "",
          "type": "uint256"
        }
      ],
      "payable": false,
      "stateMutability": "view",
      "type": "function"
    },
    {
      "constant": false,
      "inputs": [
        {
          "internalType": "address",
          "name": "underlying_",
          "type": "address"
        },
        {
          "internalType": "contract ComptrollerInterface",
          "name": "comptroller_",
          "type": "address"
        },
        {
          "internalType": "contract InterestRateModel",
          "name": "interestRateModel_",
          "type": "address"
        },
        {
          "internalType": "uint256",
          "name": "initialExchangeRateMantissa_",
          "type": "uint256"
        },
        {
          "internalType": "string",
          "name": "name_",
          "type": "string"
        },
        {
          "internalType": "string",
          "name": "symbol_",
          "type": "string"
        },
        {
          "internalType": "uint8",
          "name": "decimals_",
          "type": "uint8"
        }
      ],
      "name": "initialize",
      "outputs": [],
      "payable": false,
      "stateMutability": "nonpayable",
      "type": "function"
    },
    {
      "constant": false,
      "inputs": [
        {
          "internalType": "contract ComptrollerInterface",
          "name": "comptroller_",
          "type": "address"
        },
        {
          "internalType": "contract InterestRateModel",
          "name": "interestRateModel_",
          "type": "address"
        },
        {
          "internalType": "uint256",
          "name": "initialExchangeRateMantissa_",
          "type": "uint256"
        },
        {
          "internalType": "string",
          "name": "name_",
          "type": "string"
        },
        {
          "internalType": "string",
          "name": "symbol_",
          "type": "string"
        },
        {
          "internalType": "uint8",
          "name": "decimals_",
          "type": "uint8"
        }
      ],
      "name": "initialize",
      "outputs": [],
      "payable": false,
      "stateMutability": "nonpayable",
      "type": "function"
    },
    {
      "constant": true,
      "inputs": [],
      "name": "interestRateModel",
      "outputs": [
        {
          "internalType": "contract InterestRateModel",
          "name": "",
          "type": "address"
        }
      ],
      "payable": false,
      "stateMutability": "view",
      "type": "function"
    },
    {
      "constant": true,
      "inputs": [],
      "name": "isCToken",
      "outputs": [
        {
          "internalType": "bool",
          "name": "",
          "type": "bool"
        }
      ],
      "payable": false,
      "stateMutability": "view",
      "type": "function"
    },
    {
      "constant": false,
      "inputs": [
        {
          "internalType": "address",
          "name": "borrower",
          "type": "address"
        },
        {
          "internalType": "uint256",
          "name": "repayAmount",
          "type": "uint256"
        },
        {
          "internalType": "contract CTokenInterface",
          "name": "cTokenCollateral",
          "type": "address"
        }
      ],
      "name": "liquidateBorrow",
      "outputs": [
        {
          "internalType": "uint256",
          "name": "",
          "type": "uint256"
        }
      ],
      "payable": false,
      "stateMutability": "nonpayable",
      "type": "function"
    },
    {
      "constant": false,
      "inputs": [
        {
          "internalType": "uint256",
          "name": "mintAmount",
          "type": "uint256"
        }
      ],
      "name": "mint",
      "outputs": [
        {
          "internalType": "uint256",
          "name": "",
          "type": "uint256"
        }
      ],
      "payable": false,
      "stateMutability": "nonpayable",
      "type": "function"
    },
    {
      "constant": true,
      "inputs": [],
      "name": "name",
      "outputs": [
        {
          "internalType": "string",
          "name": "",
          "type": "string"
        }
      ],
      "payable": false,
      "stateMutability": "view",
      "type": "function"
    },
    {
      "constant": true,
      "inputs": [],
      "name": "pendingAdmin",
      "outputs": [
        {
          "internalType": "address payable",
          "name": "",
          "type": "address"
        }
      ],
      "payable": false,
      "stateMutability": "view",
      "type": "function"
    },
    {
      "constant": false,
      "inputs": [
        {
          "internalType": "uint256",
          "name": "redeemTokens",
          "type": "uint256"
        }
      ],
      "name": "redeem",
      "outputs": [
        {
          "internalType": "uint256",
          "name": "",
          "type": "uint256"
        }
      ],
      "payable": false,
      "stateMutability": "nonpayable",
      "type": "function"
    },
    {
      "constant": false,
      "inputs": [
        {
          "internalType": "uint256",
          "name": "redeemAmount",
          "type": "uint256"
        }
      ],
      "name": "redeemUnderlying",
      "outputs": [
        {
          "internalType": "uint256",
          "name": "",
          "type": "uint256"
        }
      ],
      "payable": false,
      "stateMutability": "nonpayable",
      "type": "function"
    },
    {
      "constant": false,
      "inputs": [
        {
          "internalType": "uint256",
          "name": "repayAmount",
          "type": "uint256"
        }
      ],
      "name": "repayBorrow",
      "outputs": [
        {
          "internalType": "uint256",
          "name": "",
          "type": "uint256"
        }
      ],
      "payable": false,
      "stateMutability": "nonpayable",
      "type": "function"
    },
    {
      "constant": false,
      "inputs": [
        {
          "internalType": "address",
          "name": "borrower",
          "type": "address"
        },
        {
          "internalType": "uint256",
          "name": "repayAmount",
          "type": "uint256"
        }
      ],
      "name": "repayBorrowBehalf",
      "outputs": [
        {
          "internalType": "uint256",
          "name": "",
          "type": "uint256"
        }
      ],
      "payable": false,
      "stateMutability": "nonpayable",
      "type": "function"
    },
    {
      "constant": true,
      "inputs": [],
      "name": "reserveFactorMantissa",
      "outputs": [
        {
          "internalType": "uint256",
          "name": "",
          "type": "uint256"
        }
      ],
      "payable": false,
      "stateMutability": "view",
      "type": "function"
    },
    {
      "constant": false,
      "inputs": [
        {
          "internalType": "address",
          "name": "liquidator",
          "type": "address"
        },
        {
          "internalType": "address",
          "name": "borrower",
          "type": "address"
        },
        {
          "internalType": "uint256",
          "name": "seizeTokens",
          "type": "uint256"
        }
      ],
      "name": "seize",
      "outputs": [
        {
          "internalType": "uint256",
          "name": "",
          "type": "uint256"
        }
      ],
      "payable": false,
      "stateMutability": "nonpayable",
      "type": "function"
    },
    {
      "constant": true,
      "inputs": [],
      "name": "subsidyFund",
      "outputs": [
        {
          "internalType": "uint256",
          "name": "",
          "type": "uint256"
        }
      ],
      "payable": false,
      "stateMutability": "view",
      "type": "function"
    },
    {
      "constant": true,
      "inputs": [],
      "name": "supplyRatePerBlock",
      "outputs": [
        {
          "internalType": "uint256",
          "name": "",
          "type": "uint256"
        }
      ],
      "payable": false,
      "stateMutability": "view",
      "type": "function"
    },
    {
      "constant": false,
      "inputs": [
        {
          "internalType": "contract EIP20NonStandardInterface",
          "name": "token",
          "type": "address"
        }
      ],
      "name": "sweepToken",
      "outputs": [],
      "payable": false,
      "stateMutability": "nonpayable",
      "type": "function"
    },
    {
      "constant": true,
      "inputs": [],
      "name": "symbol",
      "outputs": [
        {
          "internalType": "string",
          "name": "",
          "type": "string"
        }
      ],
      "payable": false,
      "stateMutability": "view",
      "type": "function"
    },
    {
      "constant": true,
      "inputs": [],
      "name": "totalBorrows",
      "outputs": [
        {
          "internalType": "uint256",
          "name": "",
          "type": "uint256"
        }
      ],
      "payable": false,
      "stateMutability": "view",
      "type": "function"
    },
    {
      "constant": false,
      "inputs": [],
      "name": "totalBorrowsCurrent",
      "outputs": [
        {
          "internalType": "uint256",
          "name": "",
          "type": "uint256"
        }
      ],
      "payable": false,
      "stateMutability": "nonpayable",
      "type": "function"
    },
    {
      "constant": true,
      "inputs": [],
      "name": "totalReserves",
      "outputs": [
        {
          "internalType": "uint256",
          "name": "",
          "type": "uint256"
        }
      ],
      "payable": false,
      "stateMutability": "view",
      "type": "function"
    },
    {
      "constant": true,
      "inputs": [],
      "name": "totalSupply",
      "outputs": [
        {
          "internalType": "uint256",
          "name": "",
          "type": "uint256"
        }
      ],
      "payable": false,
      "stateMutability": "view",
      "type": "function"
    },
    {
      "constant": false,
      "inputs": [
        {
          "internalType": "address",
          "name": "dst",
          "type": "address"
        },
        {
          "internalType": "uint256",
          "name": "amount",
          "type": "uint256"
        }
      ],
      "name": "transfer",
      "outputs": [
        {
          "internalType": "bool",
          "name": "",
          "type": "bool"
        }
      ],
      "payable": false,
      "stateMutability": "nonpayable",
      "type": "function"
    },
    {
      "constant": false,
      "inputs": [
        {
          "internalType": "address",
          "name": "src",
          "type": "address"
        },
        {
          "internalType": "address",
          "name": "dst",
          "type": "address"
        },
        {
          "internalType": "uint256",
          "name": "amount",
          "type": "uint256"
        }
      ],
      "name": "transferFrom",
      "outputs": [
        {
          "internalType": "bool",
          "name": "",
          "type": "bool"
        }
      ],
      "payable": false,
      "stateMutability": "nonpayable",
      "type": "function"
    },
    {
      "constant": true,
      "inputs": [
        {
          "internalType": "address",
          "name": "account",
          "type": "address"
        }
      ],
      "name": "tropykusInterestAccrued",
      "outputs": [
        {
          "internalType": "enum CarefulMath.MathError",
          "name": "",
          "type": "uint8"
        },
        {
          "internalType": "uint256",
          "name": "",
          "type": "uint256"
        },
        {
          "internalType": "uint256",
          "name": "",
          "type": "uint256"
        },
        {
          "internalType": "uint256",
          "name": "",
          "type": "uint256"
        },
        {
          "internalType": "uint256",
          "name": "",
          "type": "uint256"
        }
      ],
      "payable": false,
      "stateMutability": "view",
      "type": "function"
    },
    {
      "constant": true,
      "inputs": [],
      "name": "underlying",
      "outputs": [
        {
          "internalType": "address",
          "name": "",
          "type": "address"
        }
      ],
      "payable": false,
      "stateMutability": "view",
      "type": "function"
    }
  ],
  "bytecode": "0x60806040523480156200001157600080fd5b50604051620065273803806200652783398181016040526101008110156200003857600080fd5b81516020830151604080850151606086015160808701805193519597949692959194919392820192846401000000008211156200007457600080fd5b9083019060208201858111156200008a57600080fd5b8251640100000000811182820188101715620000a557600080fd5b82525081516020918201929091019080838360005b83811015620000d4578181015183820152602001620000ba565b50505050905090810190601f168015620001025780820380516001836020036101000a031916815260200191505b50604052602001805160405193929190846401000000008211156200012657600080fd5b9083019060208201858111156200013c57600080fd5b82516401000000008111828201881017156200015757600080fd5b82525081516020918201929091019080838360005b83811015620001865781810151838201526020016200016c565b50505050905090810190601f168015620001b45780820380516001836020036101000a031916815260200191505b506040908152602082015191015160038054610100600160a81b03191633610100021790559092509050620001ef8888888888888862000223565b600380546001600160a01b0390921661010002610100600160a81b031990921691909117905550620008a695505050505050565b6200023e868686868686620002d260201b620014dc1760201c565b601280546001600160a01b0319166001600160a01b038981169190911791829055604080516318160ddd60e01b8152905192909116916318160ddd91600480820192602092909190829003018186803b1580156200029b57600080fd5b505afa158015620002b0573d6000803e3d6000fd5b505050506040513d6020811015620002c757600080fd5b505050505050505050565b60035461010090046001600160a01b031633146200031c576040805162461bcd60e51b8152602060048201526002602482015261543160f01b604482015290519081900360640190fd5b6009541580156200032d5750600a54155b62000364576040805162461bcd60e51b81526020600482015260026024820152612a1960f11b604482015290519081900360640190fd5b600784905583620003a1576040805162461bcd60e51b8152602060048201526002602482015261543360f01b604482015290519081900360640190fd5b6000620003b7876001600160e01b03620004b516565b90508015620003f2576040805162461bcd60e51b8152602060048201526002602482015261150d60f21b604482015290519081900360640190fd5b620004056001600160e01b036200060316565b600955670de0b6b3a7640000600a5562000428866001600160e01b036200060816565b9050801562000463576040805162461bcd60e51b8152602060048201526002602482015261543560f01b604482015290519081900360640190fd5b83516200047890600190602087019062000804565b5082516200048e90600290602086019062000804565b50506003805460ff90921660ff199283161790556000805490911660011790555050505050565b60035460009061010090046001600160a01b03163314620004ef57620004e76001603f6001600160e01b036200079416565b9050620005fe565b60055460408051623f1ee960e11b815290516001600160a01b0392831692851691627e3dd2916004808301926020929190829003018186803b1580156200053557600080fd5b505afa1580156200054a573d6000803e3d6000fd5b505050506040513d60208110156200056157600080fd5b50516200059b576040805162461bcd60e51b81526020600482015260036024820152622a191960e91b604482015290519081900360640190fd5b600580546001600160a01b0319166001600160a01b03858116918217909255604080519284168352602083019190915280517f7ac369dbd14fa5ea3f473ed67cc9d598964a77501540ba6751eb0b3decf5870d9281900390910190a160005b9150505b919050565b435b90565b600354600090819061010090046001600160a01b0316331462000645576200063c600160426001600160e01b036200079416565b915050620005fe565b620006586001600160e01b036200060316565b6009541462000678576200063c600a60416001600160e01b036200079416565b600660009054906101000a90046001600160a01b03169050826001600160a01b0316632191f92a6040518163ffffffff1660e01b815260040160206040518083038186803b158015620006ca57600080fd5b505afa158015620006df573d6000803e3d6000fd5b505050506040513d6020811015620006f657600080fd5b505162000730576040805162461bcd60e51b81526020600482015260036024820152622a191960e91b604482015290519081900360640190fd5b600680546001600160a01b0319166001600160a01b03858116918217909255604080519284168352602083019190915280517fedffc32e068c7c95dfd4bdfd5c4d939a084d6b11c4199eac8436ed234d72f9269281900390910190a16000620005fa565b60007f45b96fe442630264581b197e84bbada861235052c5a1aadfff9ea4e40a969aa0836010811115620007c457fe5b836052811115620007d157fe5b604080519283526020830191909152600082820152519081900360600190a1826010811115620007fd57fe5b9392505050565b828054600181600116156101000203166002900490600052602060002090601f016020900481019282601f106200084757805160ff191683800117855562000877565b8280016001018555821562000877579182015b82811115620008775782518255916020019190600101906200085a565b506200088592915062000889565b5090565b6200060591905b8082111562000885576000815560010162000890565b615c7180620008b66000396000f3fe608060405234801561001057600080fd5b50600436106103425760003560e01c8063852a12e3116101b8578063c139562b11610104578063f3fdb15a116100a2578063f8f9da281161007c578063f8f9da2814610b59578063fc610b3d14610b61578063fca7820b14610bc7578063fe9c44ae14610be457610342565b8063f3fdb15a14610b13578063f5e3c46214610b1b578063f851a44014610b5157610342565b8063db006a75116100de578063db006a7514610a9a578063dd62ed3e14610ab7578063e9c714f214610ae5578063f2b3abbd14610aed57610342565b8063c139562b14610a31578063c37f68e214610a57578063c5ebeaec14610a7d57610342565b8063a6afed9511610171578063ae9d70b01161014b578063ae9d70b0146109c5578063b2a02ff1146109cd578063b71d1a0c14610a03578063bd6d894d14610a2957610342565b8063a6afed9514610989578063a9059cbb14610991578063aa5af0fd146109bd57610342565b8063852a12e3146107cb5780638f840ddd146107e857806395d89b41146107f057806395dd9193146107f857806399d8c1b41461081e578063a0712d681461096c57610342565b8063313ce567116102925780635fe3b567116102305780636c540baf1161020a5780636c540baf1461078d5780636f307dc31461079557806370a082311461079d57806373acee98146107c357610342565b80635fe3b56714610760578063601a0bf114610768578063675d972c1461078557610342565b80633e9410101161026c5780633e941010146106c95780634576b5db146106e657806347bd37181461070c578063524fe4b51461071457610342565b8063313ce5671461067d5780633af9e6691461069b5780633b1d21a2146106c157610342565b8063182df0f5116102ff5780631df0ba9d116102d95780631df0ba9d146105ef57806323b872dd146105f75780632608f8181461062d578063267822471461065957610342565b8063182df0f5146104695780631a31d465146104715780631be19560146105c957610342565b806306fdde0314610347578063095ea7b3146103c45780630e75270214610404578063173b99041461043357806317bfdfbc1461043b57806318160ddd14610461575b600080fd5b61034f610bec565b6040805160208082528351818301528351919283929083019185019080838360005b83811015610389578181015183820152602001610371565b50505050905090810190601f1680156103b65780820380516001836020036101000a031916815260200191505b509250505060405180910390f35b6103f0600480360360408110156103da57600080fd5b506001600160a01b038135169060200135610c79565b604080519115158252519081900360200190f35b6104216004803603602081101561041a57600080fd5b5035610ce6565b60408051918252519081900360200190f35b610421610cfc565b6104216004803603602081101561045157600080fd5b50356001600160a01b0316610d02565b610421610da7565b610421610dad565b6105c7600480360360e081101561048757600080fd5b6001600160a01b03823581169260208101358216926040820135909216916060820135919081019060a081016080820135600160201b8111156104c957600080fd5b8201836020820111156104db57600080fd5b803590602001918460018302840111600160201b831117156104fc57600080fd5b91908080601f0160208091040260200160405190810160405280939291908181526020018383808284376000920191909152509295949360208101935035915050600160201b81111561054e57600080fd5b82018360208201111561056057600080fd5b803590602001918460018302840111600160201b8311171561058157600080fd5b91908080601f0160208091040260200160405190810160405280939291908181526020018383808284376000920191909152509295505050903560ff169150610e0b9050565b005b6105c7600480360360208110156105df57600080fd5b50356001600160a01b0316610eaa565b610421610fe1565b6103f06004803603606081101561060d57600080fd5b506001600160a01b03813581169160208101359091169060400135610fe7565b6104216004803603604081101561064357600080fd5b506001600160a01b038135169060200135611052565b610661611068565b604080516001600160a01b039092168252519081900360200190f35b610685611077565b6040805160ff9092168252519081900360200190f35b610421600480360360208110156106b157600080fd5b50356001600160a01b0316611080565b61042161111b565b610421600480360360208110156106df57600080fd5b503561112a565b610421600480360360208110156106fc57600080fd5b50356001600160a01b0316611135565b610421611270565b61073a6004803603602081101561072a57600080fd5b50356001600160a01b0316611276565b604080519485526020850193909352838301919091526060830152519081900360800190f35b6106616112a7565b6104216004803603602081101561077e57600080fd5b50356112b6565b61042161134a565b610421611350565b610661611356565b610421600480360360208110156107b357600080fd5b50356001600160a01b0316611365565b610421611380565b610421600480360360208110156107e157600080fd5b503561141b565b610421611426565b61034f61142c565b6104216004803603602081101561080e57600080fd5b50356001600160a01b0316611484565b6105c7600480360360c081101561083457600080fd5b6001600160a01b03823581169260208101359091169160408201359190810190608081016060820135600160201b81111561086e57600080fd5b82018360208201111561088057600080fd5b803590602001918460018302840111600160201b831117156108a157600080fd5b91908080601f0160208091040260200160405190810160405280939291908181526020018383808284376000920191909152509295949360208101935035915050600160201b8111156108f357600080fd5b82018360208201111561090557600080fd5b803590602001918460018302840111600160201b8311171561092657600080fd5b91908080601f0160208091040260200160405190810160405280939291908181526020018383808284376000920191909152509295505050903560ff1691506114dc9050565b6104216004803603602081101561098257600080fd5b5035611694565b6104216116a0565b6103f0600480360360408110156109a757600080fd5b506001600160a01b038135169060200135611a7b565b610421611ae5565b610421611aeb565b610421600480360360608110156109e357600080fd5b506001600160a01b03813581169160208101359091169060400135611b8a565b61042160048036036020811015610a1957600080fd5b50356001600160a01b0316611bf4565b610421611c80565b61042160048036036020811015610a4757600080fd5b50356001600160a01b0316611d21565b61073a60048036036020811015610a6d57600080fd5b50356001600160a01b0316611d3c565b61042160048036036020811015610a9357600080fd5b5035611dd1565b61042160048036036020811015610ab057600080fd5b5035611e0c565b61042160048036036040811015610acd57600080fd5b506001600160a01b0381358116916020013516611e17565b610421611e42565b61042160048036036020811015610b0357600080fd5b50356001600160a01b0316611f45565b610661611f7f565b61042160048036036060811015610b3157600080fd5b506001600160a01b03813581169160208101359160409091013516611f8e565b610661611fa6565b610421611fba565b610b8760048036036020811015610b7757600080fd5b50356001600160a01b031661201e565b60405180866003811115610b9757fe5b60ff1681526020018581526020018481526020018381526020018281526020019550505050505060405180910390f35b61042160048036036020811015610bdd57600080fd5b5035612305565b6103f061237c565b60018054604080516020600284861615610100026000190190941693909304601f81018490048402820184019092528181529291830182828015610c715780601f10610c4657610100808354040283529160200191610c71565b820191906000526020600020905b815481529060010190602001808311610c5457829003601f168201915b505050505081565b3360008181526010602090815260408083206001600160a01b03871680855290835281842086905581518681529151939493909284927f8c5be1e5ebec7d5bd14f71427d1e84f3dd0314c0f7b2291e5b200ac8c7c3b925929081900390910190a360019150505b92915050565b600080610cf283612381565b509150505b919050565b60085481565b6000805460ff16610d40576040805162461bcd60e51b81526020600482015260036024820152622a191b60e91b604482015290519081900360640190fd5b6000805460ff19168155610d526116a0565b14610d89576040805162461bcd60e51b8152602060048201526002602482015261543760f01b604482015290519081900360640190fd5b610d9282611484565b90505b6000805460ff19166001179055919050565b600d5481565b6000806000610dba612423565b90925090506000826003811115610dcd57fe5b14610e04576040805162461bcd60e51b8152602060048201526002602482015261543960f01b604482015290519081900360640190fd5b9150505b90565b610e198686868686866114dc565b601280546001600160a01b0319166001600160a01b038981169190911791829055604080516318160ddd60e01b8152905192909116916318160ddd91600480820192602092909190829003018186803b158015610e7557600080fd5b505afa158015610e89573d6000803e3d6000fd5b505050506040513d6020811015610e9f57600080fd5b505050505050505050565b6012546001600160a01b0382811691161415610ef2576040805162461bcd60e51b8152602060048201526002602482015261453160f01b604482015290519081900360640190fd5b604080516370a0823160e01b815230600482015290516000916001600160a01b038416916370a0823191602480820192602092909190829003018186803b158015610f3c57600080fd5b505afa158015610f50573d6000803e3d6000fd5b505050506040513d6020811015610f6657600080fd5b50516003546040805163a9059cbb60e01b81526101009092046001600160a01b03908116600484015260248301849052905192935084169163a9059cbb9160448082019260009290919082900301818387803b158015610fc557600080fd5b505af1158015610fd9573d6000803e3d6000fd5b505050505050565b600e5481565b6000805460ff16611025576040805162461bcd60e51b81526020600482015260036024820152622a191b60e91b604482015290519081900360640190fd5b6000805460ff1916815561103b338686866125bb565b1490506000805460ff191660011790559392505050565b60008061105f8484612847565b50949350505050565b6004546001600160a01b031681565b60035460ff1681565b600061108a615aa5565b604051806020016040528061109d611c80565b90526001600160a01b0384166000908152600f60205260408120549192509081906110c99084906128eb565b909250905060008260038111156110dc57fe5b14611113576040805162461bcd60e51b81526020600482015260026024820152612a1b60f11b604482015290519081900360640190fd5b949350505050565b600061112561293f565b905090565b6000610ce0826129bf565b60035460009061010090046001600160a01b031633146111625761115b6001603f612a4c565b9050610cf7565b60055460408051623f1ee960e11b815290516001600160a01b0392831692851691627e3dd2916004808301926020929190829003018186803b1580156111a757600080fd5b505afa1580156111bb573d6000803e3d6000fd5b505050506040513d60208110156111d157600080fd5b505161120a576040805162461bcd60e51b81526020600482015260036024820152622a191960e91b604482015290519081900360640190fd5b600580546001600160a01b0319166001600160a01b03858116918217909255604080519284168352602083019190915280517f7ac369dbd14fa5ea3f473ed67cc9d598964a77501540ba6751eb0b3decf5870d9281900390910190a160005b9392505050565b600b5481565b6001600160a01b03166000908152600f60205260409020805460018201546002830154600390930154919390929190565b6005546001600160a01b031681565b6000805460ff166112f4576040805162461bcd60e51b81526020600482015260036024820152622a191b60e91b604482015290519081900360640190fd5b6000805460ff191681556113066116a0565b9050801561132c5761132481601081111561131d57fe5b6030612a4c565b915050610d95565b61133583612ab2565b9150506000805460ff19166001179055919050565b60075481565b60095481565b6012546001600160a01b031681565b6001600160a01b03166000908152600f602052604090205490565b6000805460ff166113be576040805162461bcd60e51b81526020600482015260036024820152622a191b60e91b604482015290519081900360640190fd5b6000805460ff191681556113d06116a0565b14611407576040805162461bcd60e51b8152602060048201526002602482015261543760f01b604482015290519081900360640190fd5b50600b546000805460ff1916600117905590565b6000610ce082612be1565b600c5481565b6002805460408051602060018416156101000260001901909316849004601f81018490048402820184019092528181529291830182828015610c715780601f10610c4657610100808354040283529160200191610c71565b600080600061149284612c5b565b909250905060008260038111156114a557fe5b14611269576040805162461bcd60e51b81526020600482015260026024820152610a8760f31b604482015290519081900360640190fd5b60035461010090046001600160a01b03163314611525576040805162461bcd60e51b8152602060048201526002602482015261543160f01b604482015290519081900360640190fd5b6009541580156115355750600a54155b61156b576040805162461bcd60e51b81526020600482015260026024820152612a1960f11b604482015290519081900360640190fd5b6007849055836115a7576040805162461bcd60e51b8152602060048201526002602482015261543360f01b604482015290519081900360640190fd5b60006115b287611135565b905080156115ec576040805162461bcd60e51b8152602060048201526002602482015261150d60f21b604482015290519081900360640190fd5b6115f4612d0f565b600955670de0b6b3a7640000600a5561160c86612d13565b90508015611646576040805162461bcd60e51b8152602060048201526002602482015261543560f01b604482015290519081900360640190fd5b8351611659906001906020870190615ab8565b50825161166d906002906020860190615ab8565b50506003805460ff90921660ff199283161790556000805490911660011790555050505050565b600080610cf283612e6e565b6000806116ab612d0f565b600954909150808214156116c457600092505050610e08565b60006116ce61293f565b600b54600c54600a54600654604080516315f2405360e01b815260048101879052602481018690526044810185905290519596509394929391926000926001600160a01b03909216916315f24053916064808301926020929190829003018186803b15801561173c57600080fd5b505afa158015611750573d6000803e3d6000fd5b505050506040513d602081101561176657600080fd5b5051905065048c273950008111156117ab576040805162461bcd60e51b815260206004820152600360248201526205431360ec1b604482015290519081900360640190fd5b6000806117b88989612ee8565b909250905060008260038111156117cb57fe5b14611803576040805162461bcd60e51b815260206004820152600360248201526254313160e81b604482015290519081900360640190fd5b61180b615aa5565b60008060008061182960405180602001604052808a81525087612f0b565b9097509450600087600381111561183c57fe5b1461186e576118596009600689600381111561185457fe5b612f73565b9e505050505050505050505050505050610e08565b611878858c6128eb565b9097509350600087600381111561188b57fe5b146118a3576118596009600189600381111561185457fe5b6118ad848c612fd9565b909750925060008760038111156118c057fe5b146118d8576118596009600489600381111561185457fe5b6118f36040518060200160405280600854815250858c612fff565b9097509150600087600381111561190657fe5b1461191e576118596009600589600381111561185457fe5b600660009054906101000a90046001600160a01b03166001600160a01b031663e36c26e46040518163ffffffff1660e01b815260040160206040518083038186803b15801561196c57600080fd5b505afa158015611980573d6000803e3d6000fd5b505050506040513d602081101561199657600080fd5b5051156119d5576119aa888d8d8d8861305b565b909750915060008760038111156119bd57fe5b146119d5576118596009600589600381111561185457fe5b6119e0858a8b612fff565b909750905060008760038111156119f357fe5b14611a0b576118596009600389600381111561185457fe5b60098e9055600a819055600b839055600c829055604080518d8152602081018690528082018390526060810185905290517f4dec04e750ca11537cabcd8a9eab06494de08da3735bc8871cd41250e190bc049181900360800190a160009e50505050505050505050505050505090565b6000805460ff16611ab9576040805162461bcd60e51b81526020600482015260036024820152622a191b60e91b604482015290519081900360640190fd5b6000805460ff19168155611acf333386866125bb565b1490506000805460ff1916600117905592915050565b600a5481565b6006546000906001600160a01b031663b8168816611b0761293f565b600b54600c546008546040518563ffffffff1660e01b81526004018085815260200184815260200183815260200182815260200194505050505060206040518083038186803b158015611b5957600080fd5b505afa158015611b6d573d6000803e3d6000fd5b505050506040513d6020811015611b8357600080fd5b5051905090565b6000805460ff16611bc8576040805162461bcd60e51b81526020600482015260036024820152622a191b60e91b604482015290519081900360640190fd5b6000805460ff19169055611bde338585856132d0565b90506000805460ff191660011790559392505050565b60035460009061010090046001600160a01b03163314611c1a5761115b60016045612a4c565b600480546001600160a01b038481166001600160a01b0319831681179093556040805191909216808252602082019390935281517fca4f2f25d0898edd99413412fb94012f9e54ec8142f9b093e7720646a95b16a9929181900390910190a16000611269565b6000805460ff16611cbe576040805162461bcd60e51b81526020600482015260036024820152622a191b60e91b604482015290519081900360640190fd5b6000805460ff19168155611cd06116a0565b14611d07576040805162461bcd60e51b8152602060048201526002602482015261543760f01b604482015290519081900360640190fd5b611d0f610dad565b90506000805460ff1916600117905590565b6001600160a01b031660009081526011602052604090205490565b6001600160a01b0381166000908152600f6020526040812054819081908190818080611d6789612c5b565b935090506000816003811115611d7957fe5b14611d975760095b975060009650869550859450611dca9350505050565b611d9f612423565b925090506000816003811115611db157fe5b14611dbd576009611d81565b5060009650919450925090505b9193509193565b6000611e036040518060400160405280600f81526020016e656e74726f20616c20626f72726f7760881b8152506134ac565b610ce082613555565b6000610ce0826135cd565b6001600160a01b03918216600090815260106020908152604080832093909416825291909152205490565b6004546000906001600160a01b031633141580611e5d575033155b15611e7557611e6e60016000612a4c565b9050610e08565b60038054600480546001600160a01b03818116610100818102610100600160a81b0319871617968790556001600160a01b031990931690935560408051948390048216808652929095041660208401528351909391927ff9ffabca9c8276e99321725bcb43fb076a6c66a54b7f21c4e8146d8519b417dc92908290030190a1600454604080516001600160a01b038085168252909216602083015280517fca4f2f25d0898edd99413412fb94012f9e54ec8142f9b093e7720646a95b16a99281900390910190a160009250505090565b600080611f506116a0565b90508015611f7657611f6e816010811115611f6757fe5b6040612a4c565b915050610cf7565b61126983612d13565b6006546001600160a01b031681565b600080611f9c858585613640565b5095945050505050565b60035461010090046001600160a01b031681565b6006546000906001600160a01b03166315f24053611fd661293f565b600b54600c546040518463ffffffff1660e01b815260040180848152602001838152602001828152602001935050505060206040518083038186803b158015611b5957600080fd5b600080600080600061202e615b36565b6001600160a01b0387166000908152600f6020908152604090912060038101549183019190915261205d615aa5565b6040518060200160405280846020015181525090506120826009548360020154612ee8565b604085018190528482600381111561209657fe5b60038111156120a157fe5b90525060009050835160038111156120b557fe5b146120d4575050516007549095506000945084935091508290506122fc565b6120dc615aa5565b6120ea828560400151612f0b565b915081858260038111156120fa57fe5b600381111561210557fe5b905250600090508451600381111561211957fe5b1461213b57505090516007549096506000955085945092508391506122fc9050565b61215b6040518060200160405280670de0b6b3a76400008152508261376b565b606086018190528582600381111561216f57fe5b600381111561217a57fe5b9052505060018301546080850190815260408051602081019091529051815260a0850181905260608501516121ae916137a5565b60c08601819052858260038111156121c257fe5b60038111156121cd57fe5b90525060009050845160038111156121e157fe5b1461220357505090516007549096506000955085945092508391506122fc9050565b600061221b8560c00151600001518660800151612ee8565b9150818682600381111561222b57fe5b600381111561223657fe5b905250600090508551600381111561224a57fe5b1461226d57505091516007549097506000965086955093508492506122fc915050565b60c085015151845461227f919061388e565b60e087018190528682600381111561229357fe5b600381111561229e57fe5b90525060009050855160038111156122b257fe5b146122d557505091516007549097506000965086955093508492506122fc915050565b60608501515160e08601515160c0909601515160009b509099509097509395509293505050505b91939590929450565b6000805460ff16612343576040805162461bcd60e51b81526020600482015260036024820152622a191b60e91b604482015290519081900360640190fd5b6000805460ff191681556123556116a0565b905080156123735761132481601081111561236c57fe5b6046612a4c565b6113358361393e565b600181565b60008054819060ff166123c1576040805162461bcd60e51b81526020600482015260036024820152622a191b60e91b604482015290519081900360640190fd5b6000805460ff191681556123d36116a0565b905080156123fe576123f18160108111156123ea57fe5b6036612a4c565b92506000915061240f9050565b6124093333866139e6565b92509250505b6000805460ff191660011790559092909150565b600d5460009081908061243e575050600754600091506125b7565b600080600061244b61293f565b9050600660009054906101000a90046001600160a01b03166001600160a01b031663e36c26e46040518163ffffffff1660e01b815260040160206040518083038186803b15801561249b57600080fd5b505afa1580156124af573d6000803e3d6000fd5b505050506040513d60208110156124c557600080fd5b50511561250f576124d533613d30565b909350915060008360038111156124e857fe5b14156124fd57506000945092506125b7915050565b600060075495509550505050506125b7565b600654600b54600c54600d5460408051639dc8bea760e01b81526004810187905260248101949094526044840192909252606483015280516001600160a01b0390931692639dc8bea7926084808201939291829003018186803b15801561257557600080fd5b505afa158015612589573d6000803e3d6000fd5b505050506040513d604081101561259f57600080fd5b50805160209091015190965094506125b79350505050565b9091565b600554604080516317b9b84b60e31b81523060048201526001600160a01b03868116602483015285811660448301526064820185905291516000938493169163bdcdc25891608480830192602092919082900301818787803b15801561262057600080fd5b505af1158015612634573d6000803e3d6000fd5b505050506040513d602081101561264a57600080fd5b505190508015612669576126616003604a83612f73565b915050611113565b836001600160a01b0316856001600160a01b0316141561268f576126616002604b612a4c565b60006001600160a01b0387811690871614156126ae57506000196126d6565b506001600160a01b038086166000908152601060209081526040808320938a16835292905220545b6000806000806126e68589612ee8565b909450925060008460038111156126f957fe5b146127175761270a6009604b612a4c565b9650505050505050611113565b6001600160a01b038a166000908152600f602052604090205461273a9089612ee8565b9094509150600084600381111561274d57fe5b1461275e5761270a6009604c612a4c565b6001600160a01b0389166000908152600f60205260409020546127819089612fd9565b9094509050600084600381111561279457fe5b146127a55761270a6009604d612a4c565b6001600160a01b03808b166000908152600f6020526040808220859055918b1681522081905560001985146127fd576001600160a01b03808b166000908152601060209081526040808320938f168352929052208390555b886001600160a01b03168a6001600160a01b0316600080516020615c1d8339815191528a6040518082815260200191505060405180910390a35060009a9950505050505050505050565b60008054819060ff16612887576040805162461bcd60e51b81526020600482015260036024820152622a191b60e91b604482015290519081900360640190fd5b6000805460ff191681556128996116a0565b905080156128c4576128b78160108111156128b057fe5b6035612a4c565b9250600091506128d59050565b6128cf3386866139e6565b92509250505b6000805460ff1916600117905590939092509050565b60008060006128f8615aa5565b6129028686612f0b565b9092509050600082600381111561291557fe5b146129265750915060009050612938565b600061293182613df8565b9350935050505b9250929050565b601254604080516370a0823160e01b815230600482015290516000926001600160a01b03169182916370a0823191602480820192602092909190829003018186803b15801561298d57600080fd5b505afa1580156129a1573d6000803e3d6000fd5b505050506040513d60208110156129b757600080fd5b505191505090565b6000805460ff166129fd576040805162461bcd60e51b81526020600482015260036024820152622a191b60e91b604482015290519081900360640190fd5b6000805460ff19168155612a0f6116a0565b90508015612a2d57611324816010811115612a2657fe5b604e612a4c565b612a3683613e07565b509150506000805460ff19166001179055919050565b60007f45b96fe442630264581b197e84bbada861235052c5a1aadfff9ea4e40a969aa0836010811115612a7b57fe5b836052811115612a8757fe5b604080519283526020830191909152600082820152519081900360600190a182601081111561126957fe5b600354600090819061010090046001600160a01b03163314612ada57611f6e60016031612a4c565b612ae2612d0f565b60095414612af657611f6e600a6033612a4c565b82612aff61293f565b1015612b1157611f6e600e6032612a4c565b600c54831115612b2757611f6e60026034612a4c565b50600c5482810390811115612b69576040805162461bcd60e51b815260206004820152600360248201526254323560e81b604482015290519081900360640190fd5b600c819055600354612b899061010090046001600160a01b031684613ed5565b600354604080516101009092046001600160a01b0316825260208201859052818101839052517f3bad0c59cf2f06e7314077049f48a93578cd16f5ef92329f1dab1420a99c177e916060908290030190a16000611269565b6000805460ff16612c1f576040805162461bcd60e51b81526020600482015260036024820152622a191b60e91b604482015290519081900360640190fd5b6000805460ff19168155612c316116a0565b90508015612c4f57611324816010811115612c4857fe5b6027612a4c565b61133533600085613fb1565b6001600160a01b038116600090815260116020526040812080548291829182918291612c92575060009450849350612d0a92505050565b612ca28160000154600a5461495d565b90945092506000846003811115612cb557fe5b14612cca575091935060009250612d0a915050565b612cd883826001015461499c565b90945091506000846003811115612ceb57fe5b14612d00575091935060009250612d0a915050565b5060009450925050505b915091565b4390565b600354600090819061010090046001600160a01b03163314612d3b57611f6e60016042612a4c565b612d43612d0f565b60095414612d5757611f6e600a6041612a4c565b600660009054906101000a90046001600160a01b03169050826001600160a01b0316632191f92a6040518163ffffffff1660e01b815260040160206040518083038186803b158015612da857600080fd5b505afa158015612dbc573d6000803e3d6000fd5b505050506040513d6020811015612dd257600080fd5b5051612e0b576040805162461bcd60e51b81526020600482015260036024820152622a191960e91b604482015290519081900360640190fd5b600680546001600160a01b0319166001600160a01b03858116918217909255604080519284168352602083019190915280517fedffc32e068c7c95dfd4bdfd5c4d939a084d6b11c4199eac8436ed234d72f9269281900390910190a16000611269565b60008054819060ff16612eae576040805162461bcd60e51b81526020600482015260036024820152622a191b60e91b604482015290519081900360640190fd5b6000805460ff19168155612ec06116a0565b90508015612ede576123f1816010811115612ed757fe5b601e612a4c565b61240933856149c7565b600080838311612eff575060009050818303612938565b50600390506000612938565b6000612f15615aa5565b600080612f2686600001518661495d565b90925090506000826003811115612f3957fe5b14612f5857506040805160208101909152600081529092509050612938565b60408051602081019091529081526000969095509350505050565b60007f45b96fe442630264581b197e84bbada861235052c5a1aadfff9ea4e40a969aa0846010811115612fa257fe5b846052811115612fae57fe5b604080519283526020830191909152818101859052519081900360600190a183601081111561111357fe5b600080838301848110612ff157600092509050612938565b506002915060009050612938565b600080600061300c615aa5565b6130168787612f0b565b9092509050600082600381111561302957fe5b1461303a5750915060009050613053565b61304c61304682613df8565b86612fd9565b9350935050505b935093915050565b60065460408051630dce3c5b60e31b815260048101879052602481018690526044810185905290516000928392839283926001600160a01b031691636e71e2d8916064808301926020929190829003018186803b1580156130bb57600080fd5b505afa1580156130cf573d6000803e3d6000fd5b505050506040513d60208110156130e557600080fd5b505160065460085460408051635c0b440b60e11b8152600481018d9052602481018c9052604481018b90526064810192909252519293506000926001600160a01b039092169163b816881691608480820192602092909190829003018186803b15801561315157600080fd5b505afa158015613165573d6000803e3d6000fd5b505050506040513d602081101561317b57600080fd5b50516006546040805163327a176d60e11b8152600481018d9052602481018c9052604481018b905290519293506001600160a01b03909116916364f42eda91606480820192602092909190829003018186803b1580156131da57600080fd5b505afa1580156131ee573d6000803e3d6000fd5b505050506040513d602081101561320457600080fd5b5051156132ba576132236040518060200160405280848152508b6128eb565b9095509250600085600381111561323657fe5b146132485750600092506132c6915050565b6132528382612ee8565b9095509250600085600381111561326557fe5b146132775750600092506132c6915050565b6132906040518060200160405280858152508789612fff565b909550935060008560038111156132a357fe5b146132b55750600092506132c6915050565b6132c2565b600094508693505b5050505b9550959350505050565b6005546040805163d02f735160e01b81523060048201526001600160a01b038781166024830152868116604483015285811660648301526084820185905291516000938493169163d02f73519160a480830192602092919082900301818787803b15801561333d57600080fd5b505af1158015613351573d6000803e3d6000fd5b505050506040513d602081101561336757600080fd5b50519050801561337e576126616003601b83612f73565b846001600160a01b0316846001600160a01b031614156133a4576126616006601c612a4c565b6001600160a01b0384166000908152600f6020526040812054819081906133cb9087612ee8565b909350915060008360038111156133de57fe5b14613401576133f66009601a85600381111561185457fe5b945050505050611113565b6001600160a01b0388166000908152600f60205260409020546134249087612fd9565b9093509050600083600381111561343757fe5b1461344f576133f66009601985600381111561185457fe5b6001600160a01b038088166000818152600f60209081526040808320879055938c168083529184902085905583518a815293519193600080516020615c1d833981519152929081900390910190a360009998505050505050505050565b613552816040516024018080602001828103825283818151815260200191508051906020019080838360005b838110156134f05781810151838201526020016134d8565b50505050905090810190601f16801561351d5780820380516001836020036101000a031916815260200191505b5060408051601f198184030181529190526020810180516001600160e01b031663104c13eb60e21b1790529250614ffe915050565b50565b6000805460ff16613593576040805162461bcd60e51b81526020600482015260036024820152622a191b60e91b604482015290519081900360640190fd5b6000805460ff191681556135a56116a0565b905080156135c3576113248160108111156135bc57fe5b6008612a4c565b611335338461501f565b6000805460ff1661360b576040805162461bcd60e51b81526020600482015260036024820152622a191b60e91b604482015290519081900360640190fd5b6000805460ff1916815561361d6116a0565b9050801561363457611324816010811115612c4857fe5b61133533846000613fb1565b60008054819060ff16613680576040805162461bcd60e51b81526020600482015260036024820152622a191b60e91b604482015290519081900360640190fd5b6000805460ff191681556136926116a0565b905080156136bd576136b08160108111156136a957fe5b600f612a4c565b9250600091506137549050565b836001600160a01b031663a6afed956040518163ffffffff1660e01b8152600401602060405180830381600087803b1580156136f857600080fd5b505af115801561370c573d6000803e3d6000fd5b505050506040513d602081101561372257600080fd5b505190508015613742576136b081601081111561373b57fe5b6010612a4c565b61374e338787876152b7565b92509250505b6000805460ff191660011790559094909350915050565b6000613775615aa5565b60008061378a86600001518660000151612fd9565b60408051602081019091529081529097909650945050505050565b60006137af615aa5565b6000806137c48660000151866000015161495d565b909250905060008260038111156137d757fe5b146137f657506040805160208101909152600081529092509050612938565b60008061380b6706f05b59d3b2000084612fd9565b9092509050600082600381111561381e57fe5b1461384057506040805160208101909152600081529094509250612938915050565b60008061385583670de0b6b3a764000061499c565b9092509050600082600381111561386857fe5b1461386f57fe5b604080516020810190915290815260009a909950975050505050505050565b6000613898615aa5565b6000806138ad86670de0b6b3a764000061495d565b909250905060008260038111156138c057fe5b146138df57506040805160208101909152600081529092509050612938565b6000806138ec838861499c565b909250905060008260038111156138ff57fe5b1461392157506040805160208101909152600081529094509250612938915050565b604080516020810190915290815260009890975095505050505050565b60035460009061010090046001600160a01b031633146139645761115b60016047612a4c565b61396c612d0f565b600954146139805761115b600a6048612a4c565b670de0b6b3a764000082111561399c5761115b60026049612a4c565b6008805490839055604080518281526020810185905281517faaa68312e2ea9d50e16af5068410ab56e1a1fd06037b1a35664812c30f821460929181900390910190a16000611269565b60055460408051631200453160e11b81523060048201526001600160a01b0386811660248301528581166044830152606482018590529151600093849384939116916324008a629160848082019260209290919082900301818787803b158015613a4f57600080fd5b505af1158015613a63573d6000803e3d6000fd5b505050506040513d6020811015613a7957600080fd5b505190508015613a9d57613a906003603883612f73565b9250600091506130539050565b613aa5612d0f565b60095414613ab957613a90600a6039612a4c565b613ac1615b93565b6001600160a01b0386166000908152601160205260409020600101546060820152613aeb86612c5b565b6080830181905260208301826003811115613b0257fe5b6003811115613b0d57fe5b9052506000905081602001516003811115613b2457fe5b14613b4e57613b40600960378360200151600381111561185457fe5b935060009250613053915050565b600019851415613b7b57608081015160408201819052613b71908890600161577e565b60e0820152613b92565b60408101859052613b8c8786615786565b60e08201525b613ba481608001518260e00151612ee8565b60a0830181905260208301826003811115613bbb57fe5b6003811115613bc657fe5b9052506000905081602001516003811115613bdd57fe5b14613c15576040805162461bcd60e51b815260206004820152600360248201526254313760e81b604482015290519081900360640190fd5b613c25600b548260e00151612ee8565b60c0830181905260208301826003811115613c3c57fe5b6003811115613c4757fe5b9052506000905081602001516003811115613c5e57fe5b14613c96576040805162461bcd60e51b81526020600482015260036024820152620a862760eb1b604482015290519081900360640190fd5b60a0810180516001600160a01b03808916600081815260116020908152604091829020948555600a5460019095019490945560c0860151600b81905560e087015195518251968752948601949094528481019390935291519192908a16917f1a2a22cb034d26d1854bdc6666a5b91fe25efbbb5dcad3b0355478d6f5c362a19181900360600190a360e00151600097909650945050505050565b600080600d5460001415613d4b575050600754600090612d0a565b613d53615b36565b6001600160a01b0384166000908152600f602052604090206002810154613d8457506001925060009150612d0a9050565b80541580613d9457506001810154155b15613da9576000600754935093505050612d0a565b600080613db58761201e565b5093505050915060006003811115613dc957fe5b826003811115613dd557fe5b14613de95750935060009250612d0a915050565b600095509350612d0a92505050565b51670de0b6b3a7640000900490565b600080600080613e15612d0f565b60095414613e3457613e29600a604f612a4c565b93509150612d0a9050565b613e3e3386615786565b905080600c54019150600c54821015613e84576040805162461bcd60e51b815260206004820152600360248201526254323360e81b604482015290519081900360640190fd5b600c829055604080513381526020810183905280820184905290517fa91e67c5ea634cd43a12c5a482724b03de01e85ca68702a53d0c2f45cb7c1dc59181900360600190a160009350915050915091565b6012546040805163a9059cbb60e01b81526001600160a01b0385811660048301526024820185905291519190921691829163a9059cbb9160448082019260009290919082900301818387803b158015613f2d57600080fd5b505af1158015613f41573d6000803e3d6000fd5b5050505060003d60008114613f5d5760208114613f6757600080fd5b6000199150613f73565b60206000803e60005191505b5080613fab576040805162461bcd60e51b8152602060048201526002602482015261114d60f21b604482015290519081900360640190fd5b50505050565b6000821580613fbe575081155b613ff5576040805162461bcd60e51b81526020600482015260036024820152622a189b60e91b604482015290519081900360640190fd5b613ffd615b93565b6001600160a01b0385166000908152600f6020526040902061401d612423565b604084018190526020840182600381111561403457fe5b600381111561403f57fe5b905250600090508260200151600381111561405657fe5b1461407b576140726009602b8460200151600381111561185457fe5b92505050611269565b6000806000806000600660009054906101000a90046001600160a01b03166001600160a01b031663e36c26e46040518163ffffffff1660e01b815260040160206040518083038186803b1580156140d157600080fd5b505afa1580156140e5573d6000803e3d6000fd5b505050506040513d60208110156140fb57600080fd5b5051905080156141225761410e8b61201e565b60018b018190559198509095508594505050505b6006546001600160a01b031663b816881661413b61293f565b600b54600c546008546040518563ffffffff1660e01b81526004018085815260200184815260200183815260200182815260200194505050505060206040518083038186803b15801561418d57600080fd5b505afa1580156141a1573d6000803e3d6000fd5b505050506040513d60208110156141b757600080fd5b5051600387015580801561425557506006546001600160a01b03166364f42eda6141df61293f565b600b54600c546040518463ffffffff1660e01b815260040180848152602001838152602001828152602001935050505060206040518083038186803b15801561422757600080fd5b505afa15801561423b573d6000803e3d6000fd5b505050506040513d602081101561425157600080fd5b5051155b156143db576006546000906001600160a01b03166315f2405361427661293f565b600b54600c546040518463ffffffff1660e01b815260040180848152602001838152602001828152602001935050505060206040518083038186803b1580156142be57600080fd5b505afa1580156142d2573d6000803e3d6000fd5b505050506040513d60208110156142e857600080fd5b50516006549091506000906001600160a01b0316636e71e2d861430961293f565b600b54600c546040518463ffffffff1660e01b815260040180848152602001838152602001828152602001935050505060206040518083038186803b15801561435157600080fd5b505afa158015614365573d6000803e3d6000fd5b505050506040513d602081101561437b57600080fd5b5051604080516020810190915283815290915060009061439b90836128eb565b9150506143ac896003015482612ee8565b97506143b89050615aa5565b6143c6888b6003015461388e565b9150506143d3818a6128eb565b985050505050505b6000198914156144115760408051602081018252908801518152865461440191906128eb565b6080890181905299506144199050565b608087018990525b891561450657606087018a905280156144825785548a1415614444576001860154608088015261447d565b61444c615aa5565b61445a88606001518461599a565b915050614465615aa5565b81518854614473919061388e565b5160808b01525050505b614501565b61449e604051806020016040528089604001518152508b6128eb565b60808901819052602089018260038111156144b557fe5b60038111156144c057fe5b90525060009050876020015160038111156144d757fe5b14614501576144f3600960298960200151600381111561185457fe5b975050505050505050611269565b6145c4565b6080870189905280156145535761451b615aa5565b61452d8860800151886000015461599a565b915050614538615aa5565b8151614544908561388e565b5160608b0152506145c4915050565b61456f8960405180602001604052808a604001518152506159d5565b606089018190526020890182600381111561458657fe5b600381111561459157fe5b90525060009050876020015160038111156145a857fe5b146145c4576144f36009602a8960200151600381111561185457fe5b60055460608801516040805163eabe7d9160e01b81523060048201526001600160a01b038f8116602483015260448201939093529051600093929092169163eabe7d919160648082019260209290919082900301818787803b15801561462957600080fd5b505af115801561463d573d6000803e3d6000fd5b505050506040513d602081101561465357600080fd5b5051905080156146795761466a6003602883612f73565b98505050505050505050611269565b614681612d0f565b600954146146955761466a600a602c612a4c565b6146a5600d548960600151612ee8565b60a08a0181905260208a018260038111156146bc57fe5b60038111156146c757fe5b90525060009050886020015160038111156146de57fe5b146146fa5761466a6009602e8a60200151600381111561185457fe5b614706600e5486612ee8565b60e08a0152508654606089015161471d9190612ee8565b60c08a0181905260208a0182600381111561473457fe5b600381111561473f57fe5b905250600090508860200151600381111561475657fe5b146147725761466a6009602d8a60200151600381111561185457fe5b600061477c61293f565b905082156147875750475b88608001518110156147af5761479f600e602f612a4c565b9950505050505050505050611269565b6147bd8d8a60800151613ed5565b60a0890151600d5560e0890151600e5560c089015188556009546002890155600188015460808a01516147f09190612ee8565b9050886001016000829190505550306001600160a01b03168d6001600160a01b0316600080516020615c1d8339815191528b606001516040518082815260200191505060405180910390a38c6001600160a01b03167fe5b754fb1abb7f01b499791d0b820ae3b6af3424ac1c59768edb53f4ec31a9298a608001518b60600151604051808381526020018281526020019250505060405180910390a2600560009054906101000a90046001600160a01b03166001600160a01b03166351dff989308f8c608001518d606001516040518563ffffffff1660e01b815260040180856001600160a01b03166001600160a01b03168152602001846001600160a01b03166001600160a01b03168152602001838152602001828152602001945050505050600060405180830381600087803b15801561492b57600080fd5b505af115801561493f573d6000803e3d6000fd5b506000925061494c915050565b9d9c50505050505050505050505050565b6000808361497057506000905080612938565b8383028385828161497d57fe5b041461499157506002915060009050612938565b600092509050612938565b600080826149b05750600190506000612938565b60008385816149bb57fe5b04915091509250929050565b6001600160a01b038216600090815260116020526040812054819015614a1a576040805162461bcd60e51b81526020600482015260036024820152622a189960e91b604482015290519081900360640190fd5b60055460408051634ef4c3e160e01b81523060048201526001600160a01b0387811660248301526044820187905291516000939290921691634ef4c3e19160648082019260209290919082900301818787803b158015614a7957600080fd5b505af1158015614a8d573d6000803e3d6000fd5b505050506040513d6020811015614aa357600080fd5b505190508015614ac757614aba6003601f83612f73565b9250600091506129389050565b614acf612d0f565b60095414614ae357614aba600a6022612a4c565b614aeb615b93565b614af3612423565b6040830181905260208301826003811115614b0a57fe5b6003811115614b1557fe5b9052506000905081602001516003811115614b2c57fe5b14614b5657614b48600960218360200151600381111561185457fe5b935060009250612938915050565b60808101859052614b6786826159ec565b614b718686615786565b60e0820181905260408051602081018252908301518152614b9291906159d5565b6060830181905260208301826003811115614ba957fe5b6003811115614bb457fe5b9052506000905081602001516003811115614bcb57fe5b14614c03576040805162461bcd60e51b815260206004820152600360248201526254313360e81b604482015290519081900360640190fd5b614c13600d548260600151612fd9565b60a0830181905260208301826003811115614c2a57fe5b6003811115614c3557fe5b9052506000905081602001516003811115614c4c57fe5b14614c84576040805162461bcd60e51b8152602060048201526003602482015262150c4d60ea1b604482015290519081900360640190fd5b6001600160a01b0386166000908152600f60205260409020546060820151614cac9190612fd9565b60c0830181905260208301826003811115614cc357fe5b6003811115614cce57fe5b9052506000905081602001516003811115614ce557fe5b14614d1d576040805162461bcd60e51b815260206004820152600360248201526254313560e81b604482015290519081900360640190fd5b6006546000906001600160a01b031663b8168816614d3961293f565b600b54600c546008546040518563ffffffff1660e01b81526004018085815260200184815260200183815260200182815260200194505050505060206040518083038186803b158015614d8b57600080fd5b505afa158015614d9f573d6000803e3d6000fd5b505050506040513d6020811015614db557600080fd5b5051600654604080516338db09b960e21b815290519293506000926001600160a01b039092169163e36c26e491600480820192602092909190829003018186803b158015614e0257600080fd5b505afa158015614e16573d6000803e3d6000fd5b505050506040513d6020811015614e2c57600080fd5b50516001600160a01b0389166000908152600f602052604090205490915015614f1357614e57615aa5565b8115614e83576000614e688a61201e565b60408051602081019091529081529550614f02945050505050565b6001600160a01b0389166000908152600f602090815260408083205481518084018352818152825193840183529188015183529291614ec291906137a5565b935090506000816003811115614ed457fe5b14614eff57614eec6009602083600381111561185457fe5b9850600097506129389650505050505050565b50505b8051614f0e9089612fd9565b985050505b60a0830151600d556040805160808101825260c0850151815260208082018a815260095483850190815260608085018881526001600160a01b038f166000818152600f8752889020965187559351600187015591516002860155905160039094019390935560e087015192870151845193845291830191909152825190927f4c209b5fc8ad50758f13e2e1088ba56a560dff690a1c6fef26394f4c03821c4f928290030190a2606083015160408051918252516001600160a01b038a16913091600080516020615c1d8339815191529181900360200190a3505060e001516000969095509350505050565b80516a636f6e736f6c652e6c6f67602083016000808483855afa5050505050565b6005546040805163368f515360e21b81523060048201526001600160a01b0385811660248301526044820185905291516000938493169163da3d454c91606480830192602092919082900301818787803b15801561507c57600080fd5b505af1158015615090573d6000803e3d6000fd5b505050506040513d60208110156150a657600080fd5b5051905080156150c5576150bd6003600e83612f73565b915050610ce0565b6150cd612d0f565b600954146150e0576150bd600a80612a4c565b826150e961293f565b10156150fb576150bd600e6009612a4c565b615103615bd9565b61510c85612c5b565b602083018190528282600381111561512057fe5b600381111561512b57fe5b905250600090508151600381111561513f57fe5b146151645761515b600960078360000151600381111561185457fe5b92505050610ce0565b615172816020015185612fd9565b604083018190528282600381111561518657fe5b600381111561519157fe5b90525060009050815160038111156151a557fe5b146151c15761515b6009600c8360000151600381111561185457fe5b6151cd600b5485612fd9565b60608301819052828260038111156151e157fe5b60038111156151ec57fe5b905250600090508151600381111561520057fe5b1461521c5761515b6009600b8360000151600381111561185457fe5b61522685826159f0565b90506152328585613ed5565b604080820180516001600160a01b03881660008181526011602090815290859020928355600a54600190930192909255606080860151600b819055935185518a8152938401528285019390935292517f13ed6866d4e1ee6da46f845c46d7e54120883d75c5ea9a2dacc1c4ca8984ab80929181900390910190a2600095945050505050565b60055460408051632fe3f38f60e11b81523060048201526001600160a01b0384811660248301528781166044830152868116606483015260848201869052915160009384938493911691635fc7e71e9160a48082019260209290919082900301818787803b15801561532857600080fd5b505af115801561533c573d6000803e3d6000fd5b505050506040513d602081101561535257600080fd5b505190508015615376576153696003601283612f73565b9250600091506157759050565b61537e612d0f565b6009541461539257615369600a6016612a4c565b61539a612d0f565b846001600160a01b0316636c540baf6040518163ffffffff1660e01b815260040160206040518083038186803b1580156153d357600080fd5b505afa1580156153e7573d6000803e3d6000fd5b505050506040513d60208110156153fd57600080fd5b50511461541057615369600a6011612a4c565b866001600160a01b0316866001600160a01b031614156154365761536960066017612a4c565b846154475761536960076015612a4c565b60001985141561545d5761536960076014612a4c565b60008061546b8989896139e6565b9092509050811561549b5761548c82601081111561548557fe5b6018612a4c565b94506000935061577592505050565b6005546040805163c488847b60e01b81523060048201526001600160a01b038981166024830152604482018590528251600094859492169263c488847b926064808301939192829003018186803b1580156154f557600080fd5b505afa158015615509573d6000803e3d6000fd5b505050506040513d604081101561551f57600080fd5b50805160209091015190925090508115615566576040805162461bcd60e51b815260206004820152600360248201526254313960e81b604482015290519081900360640190fd5b80886001600160a01b03166370a082318c6040518263ffffffff1660e01b815260040180826001600160a01b03166001600160a01b0316815260200191505060206040518083038186803b1580156155bd57600080fd5b505afa1580156155d1573d6000803e3d6000fd5b505050506040513d60208110156155e757600080fd5b50511015615622576040805162461bcd60e51b815260206004820152600360248201526205432360ec1b604482015290519081900360640190fd5b60006001600160a01b03891630141561564857615641308d8d856132d0565b90506156d2565b6040805163b2a02ff160e01b81526001600160a01b038e811660048301528d81166024830152604482018590529151918b169163b2a02ff1916064808201926020929091908290030181600087803b1580156156a357600080fd5b505af11580156156b7573d6000803e3d6000fd5b505050506040513d60208110156156cd57600080fd5b505190505b801561570b576040805162461bcd60e51b815260206004820152600360248201526254323160e81b604482015290519081900360640190fd5b886001600160a01b03168b6001600160a01b03168d6001600160a01b03167f298637f684da70674f26509b10f07ec2fbc77a335ab1e7d6215a4b2484d8bb528786604051808381526020018281526020019250505060405180910390a46000975092955050505050505b94509492505050565b600061111384845b601254604080516370a0823160e01b815230600482015290516000926001600160a01b031691839183916370a08231916024808301926020929190829003018186803b1580156157d557600080fd5b505afa1580156157e9573d6000803e3d6000fd5b505050506040513d60208110156157ff57600080fd5b5051604080516323b872dd60e01b81526001600160a01b038881166004830152306024830152604482018890529151929350908416916323b872dd9160648082019260009290919082900301818387803b15801561585c57600080fd5b505af1158015615870573d6000803e3d6000fd5b5050505060003d6000811461588c576020811461589657600080fd5b60001991506158a2565b60206000803e60005191505b50806158da576040805162461bcd60e51b8152602060048201526002602482015261229960f11b604482015290519081900360640190fd5b601254604080516370a0823160e01b815230600482015290516000926001600160a01b0316916370a08231916024808301926020929190829003018186803b15801561592557600080fd5b505afa158015615939573d6000803e3d6000fd5b505050506040513d602081101561594f57600080fd5b505190508281101561598d576040805162461bcd60e51b8152602060048201526002602482015261453360f01b604482015290519081900360640190fd5b9190910395945050505050565b60006159a4615aa5565b6159ca6040518060200160405280868152506040518060200160405280868152506137a5565b915091509250929050565b60008060006159e2615aa5565b6129028686615a46565b5050565b6159f8615bd9565b683635c9adc5dea0000082604001511115615a40576040805162461bcd60e51b815260206004820152600360248201526252443160e81b604482015290519081900360640190fd5b50919050565b6000615a50615aa5565b600080615a65670de0b6b3a76400008761495d565b90925090506000826003811115615a7857fe5b14615a9757506040805160208101909152600081529092509050612938565b61293181866000015161388e565b6040518060200160405280600081525090565b828054600181600116156101000203166002900490600052602060002090601f016020900481019282601f10615af957805160ff1916838001178555615b26565b82800160010185558215615b26579182015b82811115615b26578251825591602001919060010190615b0b565b50615b32929150615c02565b5090565b60408051610100810190915280600081526020016000815260200160008152602001615b60615aa5565b815260200160008152602001615b74615aa5565b8152602001615b81615aa5565b8152602001615b8e615aa5565b905290565b6040805161010081019091528060008152602001600081526020016000815260200160008152602001600081526020016000815260200160008152602001600081525090565b604080516080810190915280600081526020016000815260200160008152602001600081525090565b610e0891905b80821115615b325760008155600101615c0856feddf252ad1be2c89b69c2b068fc378daa952ba7f163c4a11628f55a4df523b3efa265627a7a72315820a4a17bd68549275e7751fac9c78970fe038a545eadd2a9cadefaf53fda8919c264736f6c63430005100032",
  "linkReferences": {},
  "deployedLinkReferences": {}
}